{
	"contracts/DegenToken.sol": {
		"DegenToken": {
			"abi": [
				{
					"inputs": [
						{
							"internalType": "address",
							"name": "initialOwner",
							"type": "address"
						},
						{
							"internalType": "uint256",
							"name": "tokenSupply",
							"type": "uint256"
						}
					],
					"stateMutability": "nonpayable",
					"type": "constructor"
				},
				{
					"inputs": [
						{
							"internalType": "address",
							"name": "spender",
							"type": "address"
						},
						{
							"internalType": "uint256",
							"name": "allowance",
							"type": "uint256"
						},
						{
							"internalType": "uint256",
							"name": "needed",
							"type": "uint256"
						}
					],
					"name": "ERC20InsufficientAllowance",
					"type": "error"
				},
				{
					"inputs": [
						{
							"internalType": "address",
							"name": "sender",
							"type": "address"
						},
						{
							"internalType": "uint256",
							"name": "balance",
							"type": "uint256"
						},
						{
							"internalType": "uint256",
							"name": "needed",
							"type": "uint256"
						}
					],
					"name": "ERC20InsufficientBalance",
					"type": "error"
				},
				{
					"inputs": [
						{
							"internalType": "address",
							"name": "approver",
							"type": "address"
						}
					],
					"name": "ERC20InvalidApprover",
					"type": "error"
				},
				{
					"inputs": [
						{
							"internalType": "address",
							"name": "receiver",
							"type": "address"
						}
					],
					"name": "ERC20InvalidReceiver",
					"type": "error"
				},
				{
					"inputs": [
						{
							"internalType": "address",
							"name": "sender",
							"type": "address"
						}
					],
					"name": "ERC20InvalidSender",
					"type": "error"
				},
				{
					"inputs": [
						{
							"internalType": "address",
							"name": "spender",
							"type": "address"
						}
					],
					"name": "ERC20InvalidSpender",
					"type": "error"
				},
				{
					"inputs": [
						{
							"internalType": "address",
							"name": "owner",
							"type": "address"
						}
					],
					"name": "OwnableInvalidOwner",
					"type": "error"
				},
				{
					"inputs": [
						{
							"internalType": "address",
							"name": "account",
							"type": "address"
						}
					],
					"name": "OwnableUnauthorizedAccount",
					"type": "error"
				},
				{
					"anonymous": false,
					"inputs": [
						{
							"indexed": true,
							"internalType": "address",
							"name": "owner",
							"type": "address"
						},
						{
							"indexed": true,
							"internalType": "address",
							"name": "spender",
							"type": "address"
						},
						{
							"indexed": false,
							"internalType": "uint256",
							"name": "value",
							"type": "uint256"
						}
					],
					"name": "Approval",
					"type": "event"
				},
				{
					"anonymous": false,
					"inputs": [
						{
							"indexed": true,
							"internalType": "address",
							"name": "player",
							"type": "address"
						},
						{
							"indexed": false,
							"internalType": "uint256",
							"name": "num",
							"type": "uint256"
						},
						{
							"indexed": false,
							"internalType": "bool",
							"name": "won",
							"type": "bool"
						},
						{
							"indexed": false,
							"internalType": "string",
							"name": "result",
							"type": "string"
						}
					],
					"name": "GameOutcome",
					"type": "event"
				},
				{
					"anonymous": false,
					"inputs": [
						{
							"indexed": true,
							"internalType": "address",
							"name": "buyer",
							"type": "address"
						},
						{
							"indexed": false,
							"internalType": "uint8",
							"name": "itemId",
							"type": "uint8"
						},
						{
							"indexed": false,
							"internalType": "string",
							"name": "itemName",
							"type": "string"
						},
						{
							"indexed": false,
							"internalType": "uint256",
							"name": "price",
							"type": "uint256"
						}
					],
					"name": "ItemPurchased",
					"type": "event"
				},
				{
					"anonymous": false,
					"inputs": [
						{
							"indexed": true,
							"internalType": "address",
							"name": "previousOwner",
							"type": "address"
						},
						{
							"indexed": true,
							"internalType": "address",
							"name": "newOwner",
							"type": "address"
						}
					],
					"name": "OwnershipTransferred",
					"type": "event"
				},
				{
					"anonymous": false,
					"inputs": [
						{
							"indexed": true,
							"internalType": "address",
							"name": "from",
							"type": "address"
						},
						{
							"indexed": true,
							"internalType": "address",
							"name": "to",
							"type": "address"
						},
						{
							"indexed": false,
							"internalType": "uint256",
							"name": "value",
							"type": "uint256"
						}
					],
					"name": "Transfer",
					"type": "event"
				},
				{
					"inputs": [
						{
							"internalType": "string",
							"name": "_name",
							"type": "string"
						},
						{
							"internalType": "uint256",
							"name": "_price",
							"type": "uint256"
						}
					],
					"name": "addItem",
					"outputs": [],
					"stateMutability": "nonpayable",
					"type": "function"
				},
				{
					"inputs": [
						{
							"internalType": "address",
							"name": "owner",
							"type": "address"
						},
						{
							"internalType": "address",
							"name": "spender",
							"type": "address"
						}
					],
					"name": "allowance",
					"outputs": [
						{
							"internalType": "uint256",
							"name": "",
							"type": "uint256"
						}
					],
					"stateMutability": "view",
					"type": "function"
				},
				{
					"inputs": [
						{
							"internalType": "address",
							"name": "spender",
							"type": "address"
						},
						{
							"internalType": "uint256",
							"name": "value",
							"type": "uint256"
						}
					],
					"name": "approve",
					"outputs": [
						{
							"internalType": "bool",
							"name": "",
							"type": "bool"
						}
					],
					"stateMutability": "nonpayable",
					"type": "function"
				},
				{
					"inputs": [
						{
							"internalType": "address",
							"name": "account",
							"type": "address"
						}
					],
					"name": "balanceOf",
					"outputs": [
						{
							"internalType": "uint256",
							"name": "",
							"type": "uint256"
						}
					],
					"stateMutability": "view",
					"type": "function"
				},
				{
					"inputs": [
						{
							"internalType": "uint256",
							"name": "value",
							"type": "uint256"
						}
					],
					"name": "burn",
					"outputs": [],
					"stateMutability": "nonpayable",
					"type": "function"
				},
				{
					"inputs": [
						{
							"internalType": "address",
							"name": "account",
							"type": "address"
						},
						{
							"internalType": "uint256",
							"name": "value",
							"type": "uint256"
						}
					],
					"name": "burnFrom",
					"outputs": [],
					"stateMutability": "nonpayable",
					"type": "function"
				},
				{
					"inputs": [
						{
							"internalType": "uint256",
							"name": "_amount",
							"type": "uint256"
						}
					],
					"name": "burnToken",
					"outputs": [],
					"stateMutability": "nonpayable",
					"type": "function"
				},
				{
					"inputs": [],
					"name": "decimals",
					"outputs": [
						{
							"internalType": "uint8",
							"name": "",
							"type": "uint8"
						}
					],
					"stateMutability": "pure",
					"type": "function"
				},
				{
					"inputs": [],
					"name": "getBalance",
					"outputs": [
						{
							"internalType": "uint256",
							"name": "",
							"type": "uint256"
						}
					],
					"stateMutability": "view",
					"type": "function"
				},
				{
					"inputs": [
						{
							"internalType": "address",
							"name": "user",
							"type": "address"
						}
					],
					"name": "getUserItems",
					"outputs": [
						{
							"components": [
								{
									"internalType": "string",
									"name": "name",
									"type": "string"
								},
								{
									"internalType": "uint8",
									"name": "itemId",
									"type": "uint8"
								},
								{
									"internalType": "uint256",
									"name": "price",
									"type": "uint256"
								}
							],
							"internalType": "struct DegenToken.Item[]",
							"name": "",
							"type": "tuple[]"
						}
					],
					"stateMutability": "view",
					"type": "function"
				},
				{
					"inputs": [
						{
							"internalType": "bool",
							"name": "_prediction",
							"type": "bool"
						},
						{
							"internalType": "uint256",
							"name": "_betAmount",
							"type": "uint256"
						}
					],
					"name": "isLessThanFive",
					"outputs": [],
					"stateMutability": "nonpayable",
					"type": "function"
				},
				{
					"inputs": [
						{
							"internalType": "uint8",
							"name": "",
							"type": "uint8"
						}
					],
					"name": "items",
					"outputs": [
						{
							"internalType": "string",
							"name": "name",
							"type": "string"
						},
						{
							"internalType": "uint8",
							"name": "itemId",
							"type": "uint8"
						},
						{
							"internalType": "uint256",
							"name": "price",
							"type": "uint256"
						}
					],
					"stateMutability": "view",
					"type": "function"
				},
				{
					"inputs": [
						{
							"internalType": "address",
							"name": "to",
							"type": "address"
						},
						{
							"internalType": "uint256",
							"name": "amount",
							"type": "uint256"
						}
					],
					"name": "mint",
					"outputs": [],
					"stateMutability": "nonpayable",
					"type": "function"
				},
				{
					"inputs": [],
					"name": "name",
					"outputs": [
						{
							"internalType": "string",
							"name": "",
							"type": "string"
						}
					],
					"stateMutability": "view",
					"type": "function"
				},
				{
					"inputs": [],
					"name": "owner",
					"outputs": [
						{
							"internalType": "address",
							"name": "",
							"type": "address"
						}
					],
					"stateMutability": "view",
					"type": "function"
				},
				{
					"inputs": [
						{
							"internalType": "uint8",
							"name": "_itemId",
							"type": "uint8"
						}
					],
					"name": "purchaseItem",
					"outputs": [],
					"stateMutability": "nonpayable",
					"type": "function"
				},
				{
					"inputs": [],
					"name": "renounceOwnership",
					"outputs": [],
					"stateMutability": "nonpayable",
					"type": "function"
				},
				{
					"inputs": [],
					"name": "symbol",
					"outputs": [
						{
							"internalType": "string",
							"name": "",
							"type": "string"
						}
					],
					"stateMutability": "view",
					"type": "function"
				},
				{
					"inputs": [],
					"name": "tokenId",
					"outputs": [
						{
							"internalType": "uint8",
							"name": "",
							"type": "uint8"
						}
					],
					"stateMutability": "view",
					"type": "function"
				},
				{
					"inputs": [],
					"name": "totalSupply",
					"outputs": [
						{
							"internalType": "uint256",
							"name": "",
							"type": "uint256"
						}
					],
					"stateMutability": "view",
					"type": "function"
				},
				{
					"inputs": [
						{
							"internalType": "address",
							"name": "to",
							"type": "address"
						},
						{
							"internalType": "uint256",
							"name": "value",
							"type": "uint256"
						}
					],
					"name": "transfer",
					"outputs": [
						{
							"internalType": "bool",
							"name": "",
							"type": "bool"
						}
					],
					"stateMutability": "nonpayable",
					"type": "function"
				},
				{
					"inputs": [
						{
							"internalType": "address",
							"name": "from",
							"type": "address"
						},
						{
							"internalType": "address",
							"name": "to",
							"type": "address"
						},
						{
							"internalType": "uint256",
							"name": "value",
							"type": "uint256"
						}
					],
					"name": "transferFrom",
					"outputs": [
						{
							"internalType": "bool",
							"name": "",
							"type": "bool"
						}
					],
					"stateMutability": "nonpayable",
					"type": "function"
				},
				{
					"inputs": [
						{
							"internalType": "address",
							"name": "newOwner",
							"type": "address"
						}
					],
					"name": "transferOwnership",
					"outputs": [],
					"stateMutability": "nonpayable",
					"type": "function"
				},
				{
					"inputs": [
						{
							"internalType": "address",
							"name": "_recipient",
							"type": "address"
						},
						{
							"internalType": "uint256",
							"name": "_amount",
							"type": "uint256"
						}
					],
					"name": "transferToken",
					"outputs": [],
					"stateMutability": "nonpayable",
					"type": "function"
				},
				{
					"inputs": [],
					"name": "welcomeBonus",
					"outputs": [],
					"stateMutability": "nonpayable",
					"type": "function"
				}
			],
			"devdoc": {
				"errors": {
					"ERC20InsufficientAllowance(address,uint256,uint256)": [
						{
							"details": "Indicates a failure with the `spender`’s `allowance`. Used in transfers.",
							"params": {
								"allowance": "Amount of tokens a `spender` is allowed to operate with.",
								"needed": "Minimum amount required to perform a transfer.",
								"spender": "Address that may be allowed to operate on tokens without being their owner."
							}
						}
					],
					"ERC20InsufficientBalance(address,uint256,uint256)": [
						{
							"details": "Indicates an error related to the current `balance` of a `sender`. Used in transfers.",
							"params": {
								"balance": "Current balance for the interacting account.",
								"needed": "Minimum amount required to perform a transfer.",
								"sender": "Address whose tokens are being transferred."
							}
						}
					],
					"ERC20InvalidApprover(address)": [
						{
							"details": "Indicates a failure with the `approver` of a token to be approved. Used in approvals.",
							"params": {
								"approver": "Address initiating an approval operation."
							}
						}
					],
					"ERC20InvalidReceiver(address)": [
						{
							"details": "Indicates a failure with the token `receiver`. Used in transfers.",
							"params": {
								"receiver": "Address to which tokens are being transferred."
							}
						}
					],
					"ERC20InvalidSender(address)": [
						{
							"details": "Indicates a failure with the token `sender`. Used in transfers.",
							"params": {
								"sender": "Address whose tokens are being transferred."
							}
						}
					],
					"ERC20InvalidSpender(address)": [
						{
							"details": "Indicates a failure with the `spender` to be approved. Used in approvals.",
							"params": {
								"spender": "Address that may be allowed to operate on tokens without being their owner."
							}
						}
					],
					"OwnableInvalidOwner(address)": [
						{
							"details": "The owner is not a valid owner account. (eg. `address(0)`)"
						}
					],
					"OwnableUnauthorizedAccount(address)": [
						{
							"details": "The caller account is not authorized to perform an operation."
						}
					]
				},
				"events": {
					"Approval(address,address,uint256)": {
						"details": "Emitted when the allowance of a `spender` for an `owner` is set by a call to {approve}. `value` is the new allowance."
					},
					"Transfer(address,address,uint256)": {
						"details": "Emitted when `value` tokens are moved from one account (`from`) to another (`to`). Note that `value` may be zero."
					}
				},
				"kind": "dev",
				"methods": {
					"allowance(address,address)": {
						"details": "See {IERC20-allowance}."
					},
					"approve(address,uint256)": {
						"details": "See {IERC20-approve}. NOTE: If `value` is the maximum `uint256`, the allowance is not updated on `transferFrom`. This is semantically equivalent to an infinite approval. Requirements: - `spender` cannot be the zero address."
					},
					"balanceOf(address)": {
						"details": "See {IERC20-balanceOf}."
					},
					"burn(uint256)": {
						"details": "Destroys a `value` amount of tokens from the caller. See {ERC20-_burn}."
					},
					"burnFrom(address,uint256)": {
						"details": "Destroys a `value` amount of tokens from `account`, deducting from the caller's allowance. See {ERC20-_burn} and {ERC20-allowance}. Requirements: - the caller must have allowance for ``accounts``'s tokens of at least `value`."
					},
					"decimals()": {
						"details": "Returns the number of decimals used to get its user representation. For example, if `decimals` equals `2`, a balance of `505` tokens should be displayed to a user as `5.05` (`505 / 10 ** 2`). Tokens usually opt for a value of 18, imitating the relationship between Ether and Wei. This is the default value returned by this function, unless it's overridden. NOTE: This information is only used for _display_ purposes: it in no way affects any of the arithmetic of the contract, including {IERC20-balanceOf} and {IERC20-transfer}."
					},
					"name()": {
						"details": "Returns the name of the token."
					},
					"owner()": {
						"details": "Returns the address of the current owner."
					},
					"renounceOwnership()": {
						"details": "Leaves the contract without owner. It will not be possible to call `onlyOwner` functions. Can only be called by the current owner. NOTE: Renouncing ownership will leave the contract without an owner, thereby disabling any functionality that is only available to the owner."
					},
					"symbol()": {
						"details": "Returns the symbol of the token, usually a shorter version of the name."
					},
					"totalSupply()": {
						"details": "See {IERC20-totalSupply}."
					},
					"transfer(address,uint256)": {
						"details": "See {IERC20-transfer}. Requirements: - `to` cannot be the zero address. - the caller must have a balance of at least `value`."
					},
					"transferFrom(address,address,uint256)": {
						"details": "See {IERC20-transferFrom}. Emits an {Approval} event indicating the updated allowance. This is not required by the EIP. See the note at the beginning of {ERC20}. NOTE: Does not update the allowance if the current allowance is the maximum `uint256`. Requirements: - `from` and `to` cannot be the zero address. - `from` must have a balance of at least `value`. - the caller must have allowance for ``from``'s tokens of at least `value`."
					},
					"transferOwnership(address)": {
						"details": "Transfers ownership of the contract to a new account (`newOwner`). Can only be called by the current owner."
					}
				},
				"version": 1
			},
			"evm": {
				"assembly": "    /* \"contracts/DegenToken.sol\":785:3822  contract DegenToken is ERC20, Ownable, ERC20Burnable {... */\n  mstore(0x40, 0x80)\n    /* \"contracts/DegenToken.sol\":1243:1680  constructor (address initialOwner, uint tokenSupply) ERC20(\"Degen\", \"DGN\") Ownable(initialOwner) {... */\n  callvalue\n  dup1\n  iszero\n  tag_1\n  jumpi\n  0x00\n  dup1\n  revert\ntag_1:\n  pop\n  mload(0x40)\n  sub(codesize, bytecodeSize)\n  dup1\n  bytecodeSize\n  dup4\n  codecopy\n  dup2\n  dup2\n  add\n  0x40\n  mstore\n  dup2\n  add\n  swap1\n  tag_2\n  swap2\n  swap1\n  tag_3\n  jump\t// in\ntag_2:\n    /* \"contracts/DegenToken.sol\":1326:1338  initialOwner */\n  dup2\n    /* \"@openzeppelin/contracts/token/ERC20/ERC20.sol\":1896:2009  constructor(string memory name_, string memory symbol_) {... */\n  mload(0x40)\n  dup1\n  0x40\n  add\n  0x40\n  mstore\n  dup1\n  0x05\n  dup2\n  mstore\n  0x20\n  add\n  0x446567656e000000000000000000000000000000000000000000000000000000\n  dup2\n  mstore\n  pop\n  mload(0x40)\n  dup1\n  0x40\n  add\n  0x40\n  mstore\n  dup1\n  0x03\n  dup2\n  mstore\n  0x20\n  add\n  0x44474e0000000000000000000000000000000000000000000000000000000000\n  dup2\n  mstore\n  pop\n    /* \"@openzeppelin/contracts/token/ERC20/ERC20.sol\":1970:1975  name_ */\n  dup2\n    /* \"@openzeppelin/contracts/token/ERC20/ERC20.sol\":1962:1967  _name */\n  0x03\n    /* \"@openzeppelin/contracts/token/ERC20/ERC20.sol\":1962:1975  _name = name_ */\n  swap1\n  dup2\n  tag_8\n  swap2\n  swap1\n  tag_9\n  jump\t// in\ntag_8:\n  pop\n    /* \"@openzeppelin/contracts/token/ERC20/ERC20.sol\":1995:2002  symbol_ */\n  dup1\n    /* \"@openzeppelin/contracts/token/ERC20/ERC20.sol\":1985:1992  _symbol */\n  0x04\n    /* \"@openzeppelin/contracts/token/ERC20/ERC20.sol\":1985:2002  _symbol = symbol_ */\n  swap1\n  dup2\n  tag_10\n  swap2\n  swap1\n  tag_9\n  jump\t// in\ntag_10:\n  pop\n    /* \"@openzeppelin/contracts/token/ERC20/ERC20.sol\":1896:2009  constructor(string memory name_, string memory symbol_) {... */\n  pop\n  pop\n    /* \"@openzeppelin/contracts/access/Ownable.sol\":1297:1298  0 */\n  0x00\n    /* \"@openzeppelin/contracts/access/Ownable.sol\":1273:1299  initialOwner == address(0) */\n  0xffffffffffffffffffffffffffffffffffffffff\n  and\n    /* \"@openzeppelin/contracts/access/Ownable.sol\":1273:1285  initialOwner */\n  dup2\n    /* \"@openzeppelin/contracts/access/Ownable.sol\":1273:1299  initialOwner == address(0) */\n  0xffffffffffffffffffffffffffffffffffffffff\n  and\n  sub\n    /* \"@openzeppelin/contracts/access/Ownable.sol\":1269:1364  if (initialOwner == address(0)) {... */\n  tag_12\n  jumpi\n    /* \"@openzeppelin/contracts/access/Ownable.sol\":1350:1351  0 */\n  0x00\n    /* \"@openzeppelin/contracts/access/Ownable.sol\":1322:1353  OwnableInvalidOwner(address(0)) */\n  mload(0x40)\n  0x1e4fbdf700000000000000000000000000000000000000000000000000000000\n  dup2\n  mstore\n  0x04\n  add\n  tag_13\n  swap2\n  swap1\n  tag_14\n  jump\t// in\ntag_13:\n  mload(0x40)\n  dup1\n  swap2\n  sub\n  swap1\n  revert\n    /* \"@openzeppelin/contracts/access/Ownable.sol\":1269:1364  if (initialOwner == address(0)) {... */\ntag_12:\n    /* \"@openzeppelin/contracts/access/Ownable.sol\":1373:1405  _transferOwnership(initialOwner) */\n  tag_15\n    /* \"@openzeppelin/contracts/access/Ownable.sol\":1392:1404  initialOwner */\n  dup2\n    /* \"@openzeppelin/contracts/access/Ownable.sol\":1373:1391  _transferOwnership */\n  shl(0x20, tag_16)\n    /* \"@openzeppelin/contracts/access/Ownable.sol\":1373:1405  _transferOwnership(initialOwner) */\n  0x20\n  shr\n  jump\t// in\ntag_15:\n    /* \"@openzeppelin/contracts/access/Ownable.sol\":1225:1412  constructor(address initialOwner) {... */\n  pop\n    /* \"contracts/DegenToken.sol\":1351:1382  mint(initialOwner, tokenSupply) */\n  tag_18\n    /* \"contracts/DegenToken.sol\":1356:1368  initialOwner */\n  dup3\n    /* \"contracts/DegenToken.sol\":1370:1381  tokenSupply */\n  dup3\n    /* \"contracts/DegenToken.sol\":1351:1355  mint */\n  shl(0x20, tag_19)\n    /* \"contracts/DegenToken.sol\":1351:1382  mint(initialOwner, tokenSupply) */\n  0x20\n  shr\n  jump\t// in\ntag_18:\n    /* \"contracts/DegenToken.sol\":1414:1445  Item(\"Novice Navigator\",1, 100) */\n  mload(0x40)\n  dup1\n  0x60\n  add\n  0x40\n  mstore\n  dup1\n  mload(0x40)\n  dup1\n  0x40\n  add\n  0x40\n  mstore\n  dup1\n  0x10\n  dup2\n  mstore\n  0x20\n  add\n  0x4e6f76696365204e6176696761746f7200000000000000000000000000000000\n  dup2\n  mstore\n  pop\n  dup2\n  mstore\n  0x20\n  add\n    /* \"contracts/DegenToken.sol\":1438:1439  1 */\n  0x01\n    /* \"contracts/DegenToken.sol\":1414:1445  Item(\"Novice Navigator\",1, 100) */\n  0xff\n  and\n  dup2\n  mstore\n  0x20\n  add\n    /* \"contracts/DegenToken.sol\":1441:1444  100 */\n  0x64\n    /* \"contracts/DegenToken.sol\":1414:1445  Item(\"Novice Navigator\",1, 100) */\n  dup2\n  mstore\n  pop\n    /* \"contracts/DegenToken.sol\":1403:1408  items */\n  0x06\n    /* \"contracts/DegenToken.sol\":1403:1411  items[1] */\n  0x00\n    /* \"contracts/DegenToken.sol\":1409:1410  1 */\n  0x01\n    /* \"contracts/DegenToken.sol\":1403:1411  items[1] */\n  0xff\n  and\n  dup2\n  mstore\n  0x20\n  add\n  swap1\n  dup2\n  mstore\n  0x20\n  add\n  0x00\n  keccak256\n    /* \"contracts/DegenToken.sol\":1403:1445  items[1] = Item(\"Novice Navigator\",1, 100) */\n  0x00\n  dup3\n  add\n  mload\n  dup2\n  0x00\n  add\n  swap1\n  dup2\n  tag_20\n  swap2\n  swap1\n  tag_9\n  jump\t// in\ntag_20:\n  pop\n  0x20\n  dup3\n  add\n  mload\n  dup2\n  0x01\n  add\n  exp(0x0100, 0x00)\n  dup2\n  sload\n  dup2\n  0xff\n  mul\n  not\n  and\n  swap1\n  dup4\n  0xff\n  and\n  mul\n  or\n  swap1\n  sstore\n  pop\n  0x40\n  dup3\n  add\n  mload\n  dup2\n  0x02\n  add\n  sstore\n  swap1\n  pop\n  pop\n    /* \"contracts/DegenToken.sol\":1465:1496  Item(\"Mythic Maverick\", 2, 700) */\n  mload(0x40)\n  dup1\n  0x60\n  add\n  0x40\n  mstore\n  dup1\n  mload(0x40)\n  dup1\n  0x40\n  add\n  0x40\n  mstore\n  dup1\n  0x0f\n  dup2\n  mstore\n  0x20\n  add\n  0x4d7974686963204d6176657269636b0000000000000000000000000000000000\n  dup2\n  mstore\n  pop\n  dup2\n  mstore\n  0x20\n  add\n    /* \"contracts/DegenToken.sol\":1489:1490  2 */\n  0x02\n    /* \"contracts/DegenToken.sol\":1465:1496  Item(\"Mythic Maverick\", 2, 700) */\n  0xff\n  and\n  dup2\n  mstore\n  0x20\n  add\n    /* \"contracts/DegenToken.sol\":1492:1495  700 */\n  0x02bc\n    /* \"contracts/DegenToken.sol\":1465:1496  Item(\"Mythic Maverick\", 2, 700) */\n  dup2\n  mstore\n  pop\n    /* \"contracts/DegenToken.sol\":1456:1461  items */\n  0x06\n    /* \"contracts/DegenToken.sol\":1456:1464  items[2] */\n  0x00\n    /* \"contracts/DegenToken.sol\":1462:1463  2 */\n  0x02\n    /* \"contracts/DegenToken.sol\":1456:1464  items[2] */\n  0xff\n  and\n  dup2\n  mstore\n  0x20\n  add\n  swap1\n  dup2\n  mstore\n  0x20\n  add\n  0x00\n  keccak256\n    /* \"contracts/DegenToken.sol\":1456:1496  items[2]=Item(\"Mythic Maverick\", 2, 700) */\n  0x00\n  dup3\n  add\n  mload\n  dup2\n  0x00\n  add\n  swap1\n  dup2\n  tag_21\n  swap2\n  swap1\n  tag_9\n  jump\t// in\ntag_21:\n  pop\n  0x20\n  dup3\n  add\n  mload\n  dup2\n  0x01\n  add\n  exp(0x0100, 0x00)\n  dup2\n  sload\n  dup2\n  0xff\n  mul\n  not\n  and\n  swap1\n  dup4\n  0xff\n  and\n  mul\n  or\n  swap1\n  sstore\n  pop\n  0x40\n  dup3\n  add\n  mload\n  dup2\n  0x02\n  add\n  sstore\n  swap1\n  pop\n  pop\n    /* \"contracts/DegenToken.sol\":1516:1550  Item(\"Celestial Crusher\", 3, 1200) */\n  mload(0x40)\n  dup1\n  0x60\n  add\n  0x40\n  mstore\n  dup1\n  mload(0x40)\n  dup1\n  0x40\n  add\n  0x40\n  mstore\n  dup1\n  0x11\n  dup2\n  mstore\n  0x20\n  add\n  0x43656c65737469616c2043727573686572000000000000000000000000000000\n  dup2\n  mstore\n  pop\n  dup2\n  mstore\n  0x20\n  add\n    /* \"contracts/DegenToken.sol\":1542:1543  3 */\n  0x03\n    /* \"contracts/DegenToken.sol\":1516:1550  Item(\"Celestial Crusher\", 3, 1200) */\n  0xff\n  and\n  dup2\n  mstore\n  0x20\n  add\n    /* \"contracts/DegenToken.sol\":1545:1549  1200 */\n  0x04b0\n    /* \"contracts/DegenToken.sol\":1516:1550  Item(\"Celestial Crusher\", 3, 1200) */\n  dup2\n  mstore\n  pop\n    /* \"contracts/DegenToken.sol\":1507:1512  items */\n  0x06\n    /* \"contracts/DegenToken.sol\":1507:1515  items[3] */\n  0x00\n    /* \"contracts/DegenToken.sol\":1513:1514  3 */\n  0x03\n    /* \"contracts/DegenToken.sol\":1507:1515  items[3] */\n  0xff\n  and\n  dup2\n  mstore\n  0x20\n  add\n  swap1\n  dup2\n  mstore\n  0x20\n  add\n  0x00\n  keccak256\n    /* \"contracts/DegenToken.sol\":1507:1550  items[3]=Item(\"Celestial Crusher\", 3, 1200) */\n  0x00\n  dup3\n  add\n  mload\n  dup2\n  0x00\n  add\n  swap1\n  dup2\n  tag_22\n  swap2\n  swap1\n  tag_9\n  jump\t// in\ntag_22:\n  pop\n  0x20\n  dup3\n  add\n  mload\n  dup2\n  0x01\n  add\n  exp(0x0100, 0x00)\n  dup2\n  sload\n  dup2\n  0xff\n  mul\n  not\n  and\n  swap1\n  dup4\n  0xff\n  and\n  mul\n  or\n  swap1\n  sstore\n  pop\n  0x40\n  dup3\n  add\n  mload\n  dup2\n  0x02\n  add\n  sstore\n  swap1\n  pop\n  pop\n    /* \"contracts/DegenToken.sol\":1570:1597  Item(\"Astral Ace\", 4, 2200) */\n  mload(0x40)\n  dup1\n  0x60\n  add\n  0x40\n  mstore\n  dup1\n  mload(0x40)\n  dup1\n  0x40\n  add\n  0x40\n  mstore\n  dup1\n  0x0a\n  dup2\n  mstore\n  0x20\n  add\n  0x41737472616c2041636500000000000000000000000000000000000000000000\n  dup2\n  mstore\n  pop\n  dup2\n  mstore\n  0x20\n  add\n    /* \"contracts/DegenToken.sol\":1589:1590  4 */\n  0x04\n    /* \"contracts/DegenToken.sol\":1570:1597  Item(\"Astral Ace\", 4, 2200) */\n  0xff\n  and\n  dup2\n  mstore\n  0x20\n  add\n    /* \"contracts/DegenToken.sol\":1592:1596  2200 */\n  0x0898\n    /* \"contracts/DegenToken.sol\":1570:1597  Item(\"Astral Ace\", 4, 2200) */\n  dup2\n  mstore\n  pop\n    /* \"contracts/DegenToken.sol\":1561:1566  items */\n  0x06\n    /* \"contracts/DegenToken.sol\":1561:1569  items[4] */\n  0x00\n    /* \"contracts/DegenToken.sol\":1567:1568  4 */\n  0x04\n    /* \"contracts/DegenToken.sol\":1561:1569  items[4] */\n  0xff\n  and\n  dup2\n  mstore\n  0x20\n  add\n  swap1\n  dup2\n  mstore\n  0x20\n  add\n  0x00\n  keccak256\n    /* \"contracts/DegenToken.sol\":1561:1597  items[4]=Item(\"Astral Ace\", 4, 2200) */\n  0x00\n  dup3\n  add\n  mload\n  dup2\n  0x00\n  add\n  swap1\n  dup2\n  tag_23\n  swap2\n  swap1\n  tag_9\n  jump\t// in\ntag_23:\n  pop\n  0x20\n  dup3\n  add\n  mload\n  dup2\n  0x01\n  add\n  exp(0x0100, 0x00)\n  dup2\n  sload\n  dup2\n  0xff\n  mul\n  not\n  and\n  swap1\n  dup4\n  0xff\n  and\n  mul\n  or\n  swap1\n  sstore\n  pop\n  0x40\n  dup3\n  add\n  mload\n  dup2\n  0x02\n  add\n  sstore\n  swap1\n  pop\n  pop\n    /* \"contracts/DegenToken.sol\":1617:1650  Item(\"Divine Dominator\", 5, 2400) */\n  mload(0x40)\n  dup1\n  0x60\n  add\n  0x40\n  mstore\n  dup1\n  mload(0x40)\n  dup1\n  0x40\n  add\n  0x40\n  mstore\n  dup1\n  0x10\n  dup2\n  mstore\n  0x20\n  add\n  0x446976696e6520446f6d696e61746f7200000000000000000000000000000000\n  dup2\n  mstore\n  pop\n  dup2\n  mstore\n  0x20\n  add\n    /* \"contracts/DegenToken.sol\":1642:1643  5 */\n  0x05\n    /* \"contracts/DegenToken.sol\":1617:1650  Item(\"Divine Dominator\", 5, 2400) */\n  0xff\n  and\n  dup2\n  mstore\n  0x20\n  add\n    /* \"contracts/DegenToken.sol\":1645:1649  2400 */\n  0x0960\n    /* \"contracts/DegenToken.sol\":1617:1650  Item(\"Divine Dominator\", 5, 2400) */\n  dup2\n  mstore\n  pop\n    /* \"contracts/DegenToken.sol\":1608:1613  items */\n  0x06\n    /* \"contracts/DegenToken.sol\":1608:1616  items[5] */\n  0x00\n    /* \"contracts/DegenToken.sol\":1614:1615  5 */\n  0x05\n    /* \"contracts/DegenToken.sol\":1608:1616  items[5] */\n  0xff\n  and\n  dup2\n  mstore\n  0x20\n  add\n  swap1\n  dup2\n  mstore\n  0x20\n  add\n  0x00\n  keccak256\n    /* \"contracts/DegenToken.sol\":1608:1650  items[5]=Item(\"Divine Dominator\", 5, 2400) */\n  0x00\n  dup3\n  add\n  mload\n  dup2\n  0x00\n  add\n  swap1\n  dup2\n  tag_24\n  swap2\n  swap1\n  tag_9\n  jump\t// in\ntag_24:\n  pop\n  0x20\n  dup3\n  add\n  mload\n  dup2\n  0x01\n  add\n  exp(0x0100, 0x00)\n  dup2\n  sload\n  dup2\n  0xff\n  mul\n  not\n  and\n  swap1\n  dup4\n  0xff\n  and\n  mul\n  or\n  swap1\n  sstore\n  pop\n  0x40\n  dup3\n  add\n  mload\n  dup2\n  0x02\n  add\n  sstore\n  swap1\n  pop\n  pop\n    /* \"contracts/DegenToken.sol\":1669:1670  6 */\n  0x06\n    /* \"contracts/DegenToken.sol\":1661:1668  tokenId */\n  0x08\n  0x00\n    /* \"contracts/DegenToken.sol\":1661:1670  tokenId=6 */\n  0x0100\n  exp\n  dup2\n  sload\n  dup2\n  0xff\n  mul\n  not\n  and\n  swap1\n  dup4\n  0xff\n  and\n  mul\n  or\n  swap1\n  sstore\n  pop\n    /* \"contracts/DegenToken.sol\":1243:1680  constructor (address initialOwner, uint tokenSupply) ERC20(\"Degen\", \"DGN\") Ownable(initialOwner) {... */\n  pop\n  pop\n    /* \"contracts/DegenToken.sol\":785:3822  contract DegenToken is ERC20, Ownable, ERC20Burnable {... */\n  jump(tag_25)\n    /* \"@openzeppelin/contracts/access/Ownable.sol\":2912:3099  function _transferOwnership(address newOwner) internal virtual {... */\ntag_16:\n    /* \"@openzeppelin/contracts/access/Ownable.sol\":2985:3001  address oldOwner */\n  0x00\n    /* \"@openzeppelin/contracts/access/Ownable.sol\":3004:3010  _owner */\n  0x05\n  0x00\n  swap1\n  sload\n  swap1\n  0x0100\n  exp\n  swap1\n  div\n  0xffffffffffffffffffffffffffffffffffffffff\n  and\n    /* \"@openzeppelin/contracts/access/Ownable.sol\":2985:3010  address oldOwner = _owner */\n  swap1\n  pop\n    /* \"@openzeppelin/contracts/access/Ownable.sol\":3029:3037  newOwner */\n  dup2\n    /* \"@openzeppelin/contracts/access/Ownable.sol\":3020:3026  _owner */\n  0x05\n  0x00\n    /* \"@openzeppelin/contracts/access/Ownable.sol\":3020:3037  _owner = newOwner */\n  0x0100\n  exp\n  dup2\n  sload\n  dup2\n  0xffffffffffffffffffffffffffffffffffffffff\n  mul\n  not\n  and\n  swap1\n  dup4\n  0xffffffffffffffffffffffffffffffffffffffff\n  and\n  mul\n  or\n  swap1\n  sstore\n  pop\n    /* \"@openzeppelin/contracts/access/Ownable.sol\":3083:3091  newOwner */\n  dup2\n    /* \"@openzeppelin/contracts/access/Ownable.sol\":3052:3092  OwnershipTransferred(oldOwner, newOwner) */\n  0xffffffffffffffffffffffffffffffffffffffff\n  and\n    /* \"@openzeppelin/contracts/access/Ownable.sol\":3073:3081  oldOwner */\n  dup2\n    /* \"@openzeppelin/contracts/access/Ownable.sol\":3052:3092  OwnershipTransferred(oldOwner, newOwner) */\n  0xffffffffffffffffffffffffffffffffffffffff\n  and\n  0x8be0079c531659141344cd1fd0a4f28419497f9722a3daafe3b4186f6b6457e0\n  mload(0x40)\n  mload(0x40)\n  dup1\n  swap2\n  sub\n  swap1\n  log3\n    /* \"@openzeppelin/contracts/access/Ownable.sol\":2975:3099  {... */\n  pop\n    /* \"@openzeppelin/contracts/access/Ownable.sol\":2912:3099  function _transferOwnership(address newOwner) internal virtual {... */\n  pop\n  jump\t// out\n    /* \"contracts/DegenToken.sol\":1804:1899  function mint(address to, uint256 amount) public onlyOwner {... */\ntag_19:\n    /* \"@openzeppelin/contracts/access/Ownable.sol\":1531:1544  _checkOwner() */\n  tag_28\n    /* \"@openzeppelin/contracts/access/Ownable.sol\":1531:1542  _checkOwner */\n  shl(0x20, tag_29)\n    /* \"@openzeppelin/contracts/access/Ownable.sol\":1531:1544  _checkOwner() */\n  0x20\n  shr\n  jump\t// in\ntag_28:\n    /* \"contracts/DegenToken.sol\":1874:1891  _mint(to, amount) */\n  tag_31\n    /* \"contracts/DegenToken.sol\":1880:1882  to */\n  dup3\n    /* \"contracts/DegenToken.sol\":1884:1890  amount */\n  dup3\n    /* \"contracts/DegenToken.sol\":1874:1879  _mint */\n  shl(0x20, tag_32)\n    /* \"contracts/DegenToken.sol\":1874:1891  _mint(to, amount) */\n  0x20\n  shr\n  jump\t// in\ntag_31:\n    /* \"contracts/DegenToken.sol\":1804:1899  function mint(address to, uint256 amount) public onlyOwner {... */\n  pop\n  pop\n  jump\t// out\n    /* \"@openzeppelin/contracts/access/Ownable.sol\":1796:1958  function _checkOwner() internal view virtual {... */\ntag_29:\n    /* \"@openzeppelin/contracts/access/Ownable.sol\":1866:1878  _msgSender() */\n  tag_34\n    /* \"@openzeppelin/contracts/access/Ownable.sol\":1866:1876  _msgSender */\n  shl(0x20, tag_35)\n    /* \"@openzeppelin/contracts/access/Ownable.sol\":1866:1878  _msgSender() */\n  0x20\n  shr\n  jump\t// in\ntag_34:\n    /* \"@openzeppelin/contracts/access/Ownable.sol\":1855:1878  owner() != _msgSender() */\n  0xffffffffffffffffffffffffffffffffffffffff\n  and\n    /* \"@openzeppelin/contracts/access/Ownable.sol\":1855:1862  owner() */\n  tag_36\n    /* \"@openzeppelin/contracts/access/Ownable.sol\":1855:1860  owner */\n  shl(0x20, tag_37)\n    /* \"@openzeppelin/contracts/access/Ownable.sol\":1855:1862  owner() */\n  0x20\n  shr\n  jump\t// in\ntag_36:\n    /* \"@openzeppelin/contracts/access/Ownable.sol\":1855:1878  owner() != _msgSender() */\n  0xffffffffffffffffffffffffffffffffffffffff\n  and\n  eq\n    /* \"@openzeppelin/contracts/access/Ownable.sol\":1851:1952  if (owner() != _msgSender()) {... */\n  tag_38\n  jumpi\n    /* \"@openzeppelin/contracts/access/Ownable.sol\":1928:1940  _msgSender() */\n  tag_39\n    /* \"@openzeppelin/contracts/access/Ownable.sol\":1928:1938  _msgSender */\n  shl(0x20, tag_35)\n    /* \"@openzeppelin/contracts/access/Ownable.sol\":1928:1940  _msgSender() */\n  0x20\n  shr\n  jump\t// in\ntag_39:\n    /* \"@openzeppelin/contracts/access/Ownable.sol\":1901:1941  OwnableUnauthorizedAccount(_msgSender()) */\n  mload(0x40)\n  0x118cdaa700000000000000000000000000000000000000000000000000000000\n  dup2\n  mstore\n  0x04\n  add\n  tag_40\n  swap2\n  swap1\n  tag_14\n  jump\t// in\ntag_40:\n  mload(0x40)\n  dup1\n  swap2\n  sub\n  swap1\n  revert\n    /* \"@openzeppelin/contracts/access/Ownable.sol\":1851:1952  if (owner() != _msgSender()) {... */\ntag_38:\n    /* \"@openzeppelin/contracts/access/Ownable.sol\":1796:1958  function _checkOwner() internal view virtual {... */\n  jump\t// out\n    /* \"@openzeppelin/contracts/token/ERC20/ERC20.sol\":7721:7929  function _mint(address account, uint256 value) internal {... */\ntag_32:\n    /* \"@openzeppelin/contracts/token/ERC20/ERC20.sol\":7810:7811  0 */\n  0x00\n    /* \"@openzeppelin/contracts/token/ERC20/ERC20.sol\":7791:7812  account == address(0) */\n  0xffffffffffffffffffffffffffffffffffffffff\n  and\n    /* \"@openzeppelin/contracts/token/ERC20/ERC20.sol\":7791:7798  account */\n  dup3\n    /* \"@openzeppelin/contracts/token/ERC20/ERC20.sol\":7791:7812  account == address(0) */\n  0xffffffffffffffffffffffffffffffffffffffff\n  and\n  sub\n    /* \"@openzeppelin/contracts/token/ERC20/ERC20.sol\":7787:7878  if (account == address(0)) {... */\n  tag_42\n  jumpi\n    /* \"@openzeppelin/contracts/token/ERC20/ERC20.sol\":7864:7865  0 */\n  0x00\n    /* \"@openzeppelin/contracts/token/ERC20/ERC20.sol\":7835:7867  ERC20InvalidReceiver(address(0)) */\n  mload(0x40)\n  0xec442f0500000000000000000000000000000000000000000000000000000000\n  dup2\n  mstore\n  0x04\n  add\n  tag_43\n  swap2\n  swap1\n  tag_14\n  jump\t// in\ntag_43:\n  mload(0x40)\n  dup1\n  swap2\n  sub\n  swap1\n  revert\n    /* \"@openzeppelin/contracts/token/ERC20/ERC20.sol\":7787:7878  if (account == address(0)) {... */\ntag_42:\n    /* \"@openzeppelin/contracts/token/ERC20/ERC20.sol\":7887:7922  _update(address(0), account, value) */\n  tag_44\n    /* \"@openzeppelin/contracts/token/ERC20/ERC20.sol\":7903:7904  0 */\n  0x00\n    /* \"@openzeppelin/contracts/token/ERC20/ERC20.sol\":7907:7914  account */\n  dup4\n    /* \"@openzeppelin/contracts/token/ERC20/ERC20.sol\":7916:7921  value */\n  dup4\n    /* \"@openzeppelin/contracts/token/ERC20/ERC20.sol\":7887:7894  _update */\n  shl(0x20, tag_45)\n    /* \"@openzeppelin/contracts/token/ERC20/ERC20.sol\":7887:7922  _update(address(0), account, value) */\n  0x20\n  shr\n  jump\t// in\ntag_44:\n    /* \"@openzeppelin/contracts/token/ERC20/ERC20.sol\":7721:7929  function _mint(address account, uint256 value) internal {... */\n  pop\n  pop\n  jump\t// out\n    /* \"@openzeppelin/contracts/utils/Context.sol\":656:752  function _msgSender() internal view virtual returns (address) {... */\ntag_35:\n    /* \"@openzeppelin/contracts/utils/Context.sol\":709:716  address */\n  0x00\n    /* \"@openzeppelin/contracts/utils/Context.sol\":735:745  msg.sender */\n  caller\n    /* \"@openzeppelin/contracts/utils/Context.sol\":728:745  return msg.sender */\n  swap1\n  pop\n    /* \"@openzeppelin/contracts/utils/Context.sol\":656:752  function _msgSender() internal view virtual returns (address) {... */\n  swap1\n  jump\t// out\n    /* \"@openzeppelin/contracts/access/Ownable.sol\":1638:1723  function owner() public view virtual returns (address) {... */\ntag_37:\n    /* \"@openzeppelin/contracts/access/Ownable.sol\":1684:1691  address */\n  0x00\n    /* \"@openzeppelin/contracts/access/Ownable.sol\":1710:1716  _owner */\n  0x05\n  0x00\n  swap1\n  sload\n  swap1\n  0x0100\n  exp\n  swap1\n  div\n  0xffffffffffffffffffffffffffffffffffffffff\n  and\n    /* \"@openzeppelin/contracts/access/Ownable.sol\":1703:1716  return _owner */\n  swap1\n  pop\n    /* \"@openzeppelin/contracts/access/Ownable.sol\":1638:1723  function owner() public view virtual returns (address) {... */\n  swap1\n  jump\t// out\n    /* \"@openzeppelin/contracts/token/ERC20/ERC20.sol\":6271:7378  function _update(address from, address to, uint256 value) internal virtual {... */\ntag_45:\n    /* \"@openzeppelin/contracts/token/ERC20/ERC20.sol\":6376:6377  0 */\n  0x00\n    /* \"@openzeppelin/contracts/token/ERC20/ERC20.sol\":6360:6378  from == address(0) */\n  0xffffffffffffffffffffffffffffffffffffffff\n  and\n    /* \"@openzeppelin/contracts/token/ERC20/ERC20.sol\":6360:6364  from */\n  dup4\n    /* \"@openzeppelin/contracts/token/ERC20/ERC20.sol\":6360:6378  from == address(0) */\n  0xffffffffffffffffffffffffffffffffffffffff\n  and\n  sub\n    /* \"@openzeppelin/contracts/token/ERC20/ERC20.sol\":6356:6896  if (from == address(0)) {... */\n  tag_49\n  jumpi\n    /* \"@openzeppelin/contracts/token/ERC20/ERC20.sol\":6512:6517  value */\n  dup1\n    /* \"@openzeppelin/contracts/token/ERC20/ERC20.sol\":6496:6508  _totalSupply */\n  0x02\n  0x00\n    /* \"@openzeppelin/contracts/token/ERC20/ERC20.sol\":6496:6517  _totalSupply += value */\n  dup3\n  dup3\n  sload\n  tag_50\n  swap2\n  swap1\n  tag_51\n  jump\t// in\ntag_50:\n  swap3\n  pop\n  pop\n  dup2\n  swap1\n  sstore\n  pop\n    /* \"@openzeppelin/contracts/token/ERC20/ERC20.sol\":6356:6896  if (from == address(0)) {... */\n  jump(tag_52)\ntag_49:\n    /* \"@openzeppelin/contracts/token/ERC20/ERC20.sol\":6548:6567  uint256 fromBalance */\n  0x00\n    /* \"@openzeppelin/contracts/token/ERC20/ERC20.sol\":6570:6579  _balances */\n  dup1\n    /* \"@openzeppelin/contracts/token/ERC20/ERC20.sol\":6570:6585  _balances[from] */\n  0x00\n    /* \"@openzeppelin/contracts/token/ERC20/ERC20.sol\":6580:6584  from */\n  dup6\n    /* \"@openzeppelin/contracts/token/ERC20/ERC20.sol\":6570:6585  _balances[from] */\n  0xffffffffffffffffffffffffffffffffffffffff\n  and\n  0xffffffffffffffffffffffffffffffffffffffff\n  and\n  dup2\n  mstore\n  0x20\n  add\n  swap1\n  dup2\n  mstore\n  0x20\n  add\n  0x00\n  keccak256\n  sload\n    /* \"@openzeppelin/contracts/token/ERC20/ERC20.sol\":6548:6585  uint256 fromBalance = _balances[from] */\n  swap1\n  pop\n    /* \"@openzeppelin/contracts/token/ERC20/ERC20.sol\":6617:6622  value */\n  dup2\n    /* \"@openzeppelin/contracts/token/ERC20/ERC20.sol\":6603:6614  fromBalance */\n  dup2\n    /* \"@openzeppelin/contracts/token/ERC20/ERC20.sol\":6603:6622  fromBalance < value */\n  lt\n    /* \"@openzeppelin/contracts/token/ERC20/ERC20.sol\":6599:6714  if (fromBalance < value) {... */\n  iszero\n  tag_53\n  jumpi\n    /* \"@openzeppelin/contracts/token/ERC20/ERC20.sol\":6674:6678  from */\n  dup4\n    /* \"@openzeppelin/contracts/token/ERC20/ERC20.sol\":6680:6691  fromBalance */\n  dup2\n    /* \"@openzeppelin/contracts/token/ERC20/ERC20.sol\":6693:6698  value */\n  dup4\n    /* \"@openzeppelin/contracts/token/ERC20/ERC20.sol\":6649:6699  ERC20InsufficientBalance(from, fromBalance, value) */\n  mload(0x40)\n  0xe450d38c00000000000000000000000000000000000000000000000000000000\n  dup2\n  mstore\n  0x04\n  add\n  tag_54\n  swap4\n  swap3\n  swap2\n  swap1\n  tag_55\n  jump\t// in\ntag_54:\n  mload(0x40)\n  dup1\n  swap2\n  sub\n  swap1\n  revert\n    /* \"@openzeppelin/contracts/token/ERC20/ERC20.sol\":6599:6714  if (fromBalance < value) {... */\ntag_53:\n    /* \"@openzeppelin/contracts/token/ERC20/ERC20.sol\":6866:6871  value */\n  dup2\n    /* \"@openzeppelin/contracts/token/ERC20/ERC20.sol\":6852:6863  fromBalance */\n  dup2\n    /* \"@openzeppelin/contracts/token/ERC20/ERC20.sol\":6852:6871  fromBalance - value */\n  sub\n    /* \"@openzeppelin/contracts/token/ERC20/ERC20.sol\":6834:6843  _balances */\n  0x00\n    /* \"@openzeppelin/contracts/token/ERC20/ERC20.sol\":6834:6849  _balances[from] */\n  dup1\n    /* \"@openzeppelin/contracts/token/ERC20/ERC20.sol\":6844:6848  from */\n  dup7\n    /* \"@openzeppelin/contracts/token/ERC20/ERC20.sol\":6834:6849  _balances[from] */\n  0xffffffffffffffffffffffffffffffffffffffff\n  and\n  0xffffffffffffffffffffffffffffffffffffffff\n  and\n  dup2\n  mstore\n  0x20\n  add\n  swap1\n  dup2\n  mstore\n  0x20\n  add\n  0x00\n  keccak256\n    /* \"@openzeppelin/contracts/token/ERC20/ERC20.sol\":6834:6871  _balances[from] = fromBalance - value */\n  dup2\n  swap1\n  sstore\n  pop\n    /* \"@openzeppelin/contracts/token/ERC20/ERC20.sol\":6534:6896  {... */\n  pop\n    /* \"@openzeppelin/contracts/token/ERC20/ERC20.sol\":6356:6896  if (from == address(0)) {... */\ntag_52:\n    /* \"@openzeppelin/contracts/token/ERC20/ERC20.sol\":6924:6925  0 */\n  0x00\n    /* \"@openzeppelin/contracts/token/ERC20/ERC20.sol\":6910:6926  to == address(0) */\n  0xffffffffffffffffffffffffffffffffffffffff\n  and\n    /* \"@openzeppelin/contracts/token/ERC20/ERC20.sol\":6910:6912  to */\n  dup3\n    /* \"@openzeppelin/contracts/token/ERC20/ERC20.sol\":6910:6926  to == address(0) */\n  0xffffffffffffffffffffffffffffffffffffffff\n  and\n  sub\n    /* \"@openzeppelin/contracts/token/ERC20/ERC20.sol\":6906:7331  if (to == address(0)) {... */\n  tag_56\n  jumpi\n    /* \"@openzeppelin/contracts/token/ERC20/ERC20.sol\":7089:7094  value */\n  dup1\n    /* \"@openzeppelin/contracts/token/ERC20/ERC20.sol\":7073:7085  _totalSupply */\n  0x02\n  0x00\n    /* \"@openzeppelin/contracts/token/ERC20/ERC20.sol\":7073:7094  _totalSupply -= value */\n  dup3\n  dup3\n  sload\n  sub\n  swap3\n  pop\n  pop\n  dup2\n  swap1\n  sstore\n  pop\n    /* \"@openzeppelin/contracts/token/ERC20/ERC20.sol\":6906:7331  if (to == address(0)) {... */\n  jump(tag_57)\ntag_56:\n    /* \"@openzeppelin/contracts/token/ERC20/ERC20.sol\":7301:7306  value */\n  dup1\n    /* \"@openzeppelin/contracts/token/ERC20/ERC20.sol\":7284:7293  _balances */\n  0x00\n    /* \"@openzeppelin/contracts/token/ERC20/ERC20.sol\":7284:7297  _balances[to] */\n  dup1\n    /* \"@openzeppelin/contracts/token/ERC20/ERC20.sol\":7294:7296  to */\n  dup5\n    /* \"@openzeppelin/contracts/token/ERC20/ERC20.sol\":7284:7297  _balances[to] */\n  0xffffffffffffffffffffffffffffffffffffffff\n  and\n  0xffffffffffffffffffffffffffffffffffffffff\n  and\n  dup2\n  mstore\n  0x20\n  add\n  swap1\n  dup2\n  mstore\n  0x20\n  add\n  0x00\n  keccak256\n  0x00\n    /* \"@openzeppelin/contracts/token/ERC20/ERC20.sol\":7284:7306  _balances[to] += value */\n  dup3\n  dup3\n  sload\n  add\n  swap3\n  pop\n  pop\n  dup2\n  swap1\n  sstore\n  pop\n    /* \"@openzeppelin/contracts/token/ERC20/ERC20.sol\":6906:7331  if (to == address(0)) {... */\ntag_57:\n    /* \"@openzeppelin/contracts/token/ERC20/ERC20.sol\":7361:7363  to */\n  dup2\n    /* \"@openzeppelin/contracts/token/ERC20/ERC20.sol\":7346:7371  Transfer(from, to, value) */\n  0xffffffffffffffffffffffffffffffffffffffff\n  and\n    /* \"@openzeppelin/contracts/token/ERC20/ERC20.sol\":7355:7359  from */\n  dup4\n    /* \"@openzeppelin/contracts/token/ERC20/ERC20.sol\":7346:7371  Transfer(from, to, value) */\n  0xffffffffffffffffffffffffffffffffffffffff\n  and\n  0xddf252ad1be2c89b69c2b068fc378daa952ba7f163c4a11628f55a4df523b3ef\n    /* \"@openzeppelin/contracts/token/ERC20/ERC20.sol\":7365:7370  value */\n  dup4\n    /* \"@openzeppelin/contracts/token/ERC20/ERC20.sol\":7346:7371  Transfer(from, to, value) */\n  mload(0x40)\n  tag_58\n  swap2\n  swap1\n  tag_59\n  jump\t// in\ntag_58:\n  mload(0x40)\n  dup1\n  swap2\n  sub\n  swap1\n  log3\n    /* \"@openzeppelin/contracts/token/ERC20/ERC20.sol\":6271:7378  function _update(address from, address to, uint256 value) internal virtual {... */\n  pop\n  pop\n  pop\n  jump\t// out\n    /* \"#utility.yul\":88:205   */\ntag_61:\n    /* \"#utility.yul\":197:198   */\n  0x00\n    /* \"#utility.yul\":194:195   */\n  dup1\n    /* \"#utility.yul\":187:199   */\n  revert\n    /* \"#utility.yul\":334:460   */\ntag_63:\n    /* \"#utility.yul\":371:378   */\n  0x00\n    /* \"#utility.yul\":411:453   */\n  0xffffffffffffffffffffffffffffffffffffffff\n    /* \"#utility.yul\":404:409   */\n  dup3\n    /* \"#utility.yul\":400:454   */\n  and\n    /* \"#utility.yul\":389:454   */\n  swap1\n  pop\n    /* \"#utility.yul\":334:460   */\n  swap2\n  swap1\n  pop\n  jump\t// out\n    /* \"#utility.yul\":466:562   */\ntag_64:\n    /* \"#utility.yul\":503:510   */\n  0x00\n    /* \"#utility.yul\":532:556   */\n  tag_98\n    /* \"#utility.yul\":550:555   */\n  dup3\n    /* \"#utility.yul\":532:556   */\n  tag_63\n  jump\t// in\ntag_98:\n    /* \"#utility.yul\":521:556   */\n  swap1\n  pop\n    /* \"#utility.yul\":466:562   */\n  swap2\n  swap1\n  pop\n  jump\t// out\n    /* \"#utility.yul\":568:690   */\ntag_65:\n    /* \"#utility.yul\":641:665   */\n  tag_100\n    /* \"#utility.yul\":659:664   */\n  dup2\n    /* \"#utility.yul\":641:665   */\n  tag_64\n  jump\t// in\ntag_100:\n    /* \"#utility.yul\":634:639   */\n  dup2\n    /* \"#utility.yul\":631:666   */\n  eq\n    /* \"#utility.yul\":621:684   */\n  tag_101\n  jumpi\n    /* \"#utility.yul\":680:681   */\n  0x00\n    /* \"#utility.yul\":677:678   */\n  dup1\n    /* \"#utility.yul\":670:682   */\n  revert\n    /* \"#utility.yul\":621:684   */\ntag_101:\n    /* \"#utility.yul\":568:690   */\n  pop\n  jump\t// out\n    /* \"#utility.yul\":696:839   */\ntag_66:\n    /* \"#utility.yul\":753:758   */\n  0x00\n    /* \"#utility.yul\":784:790   */\n  dup2\n    /* \"#utility.yul\":778:791   */\n  mload\n    /* \"#utility.yul\":769:791   */\n  swap1\n  pop\n    /* \"#utility.yul\":800:833   */\n  tag_103\n    /* \"#utility.yul\":827:832   */\n  dup2\n    /* \"#utility.yul\":800:833   */\n  tag_65\n  jump\t// in\ntag_103:\n    /* \"#utility.yul\":696:839   */\n  swap3\n  swap2\n  pop\n  pop\n  jump\t// out\n    /* \"#utility.yul\":845:922   */\ntag_67:\n    /* \"#utility.yul\":882:889   */\n  0x00\n    /* \"#utility.yul\":911:916   */\n  dup2\n    /* \"#utility.yul\":900:916   */\n  swap1\n  pop\n    /* \"#utility.yul\":845:922   */\n  swap2\n  swap1\n  pop\n  jump\t// out\n    /* \"#utility.yul\":928:1050   */\ntag_68:\n    /* \"#utility.yul\":1001:1025   */\n  tag_106\n    /* \"#utility.yul\":1019:1024   */\n  dup2\n    /* \"#utility.yul\":1001:1025   */\n  tag_67\n  jump\t// in\ntag_106:\n    /* \"#utility.yul\":994:999   */\n  dup2\n    /* \"#utility.yul\":991:1026   */\n  eq\n    /* \"#utility.yul\":981:1044   */\n  tag_107\n  jumpi\n    /* \"#utility.yul\":1040:1041   */\n  0x00\n    /* \"#utility.yul\":1037:1038   */\n  dup1\n    /* \"#utility.yul\":1030:1042   */\n  revert\n    /* \"#utility.yul\":981:1044   */\ntag_107:\n    /* \"#utility.yul\":928:1050   */\n  pop\n  jump\t// out\n    /* \"#utility.yul\":1056:1199   */\ntag_69:\n    /* \"#utility.yul\":1113:1118   */\n  0x00\n    /* \"#utility.yul\":1144:1150   */\n  dup2\n    /* \"#utility.yul\":1138:1151   */\n  mload\n    /* \"#utility.yul\":1129:1151   */\n  swap1\n  pop\n    /* \"#utility.yul\":1160:1193   */\n  tag_109\n    /* \"#utility.yul\":1187:1192   */\n  dup2\n    /* \"#utility.yul\":1160:1193   */\n  tag_68\n  jump\t// in\ntag_109:\n    /* \"#utility.yul\":1056:1199   */\n  swap3\n  swap2\n  pop\n  pop\n  jump\t// out\n    /* \"#utility.yul\":1205:1712   */\ntag_3:\n    /* \"#utility.yul\":1284:1290   */\n  0x00\n    /* \"#utility.yul\":1292:1298   */\n  dup1\n    /* \"#utility.yul\":1341:1343   */\n  0x40\n    /* \"#utility.yul\":1329:1338   */\n  dup4\n    /* \"#utility.yul\":1320:1327   */\n  dup6\n    /* \"#utility.yul\":1316:1339   */\n  sub\n    /* \"#utility.yul\":1312:1344   */\n  slt\n    /* \"#utility.yul\":1309:1428   */\n  iszero\n  tag_111\n  jumpi\n    /* \"#utility.yul\":1347:1426   */\n  tag_112\n  tag_61\n  jump\t// in\ntag_112:\n    /* \"#utility.yul\":1309:1428   */\ntag_111:\n    /* \"#utility.yul\":1467:1468   */\n  0x00\n    /* \"#utility.yul\":1492:1556   */\n  tag_113\n    /* \"#utility.yul\":1548:1555   */\n  dup6\n    /* \"#utility.yul\":1539:1545   */\n  dup3\n    /* \"#utility.yul\":1528:1537   */\n  dup7\n    /* \"#utility.yul\":1524:1546   */\n  add\n    /* \"#utility.yul\":1492:1556   */\n  tag_66\n  jump\t// in\ntag_113:\n    /* \"#utility.yul\":1482:1556   */\n  swap3\n  pop\n    /* \"#utility.yul\":1438:1566   */\n  pop\n    /* \"#utility.yul\":1605:1607   */\n  0x20\n    /* \"#utility.yul\":1631:1695   */\n  tag_114\n    /* \"#utility.yul\":1687:1694   */\n  dup6\n    /* \"#utility.yul\":1678:1684   */\n  dup3\n    /* \"#utility.yul\":1667:1676   */\n  dup7\n    /* \"#utility.yul\":1663:1685   */\n  add\n    /* \"#utility.yul\":1631:1695   */\n  tag_69\n  jump\t// in\ntag_114:\n    /* \"#utility.yul\":1621:1695   */\n  swap2\n  pop\n    /* \"#utility.yul\":1576:1705   */\n  pop\n    /* \"#utility.yul\":1205:1712   */\n  swap3\n  pop\n  swap3\n  swap1\n  pop\n  jump\t// out\n    /* \"#utility.yul\":1718:1817   */\ntag_70:\n    /* \"#utility.yul\":1770:1776   */\n  0x00\n    /* \"#utility.yul\":1804:1809   */\n  dup2\n    /* \"#utility.yul\":1798:1810   */\n  mload\n    /* \"#utility.yul\":1788:1810   */\n  swap1\n  pop\n    /* \"#utility.yul\":1718:1817   */\n  swap2\n  swap1\n  pop\n  jump\t// out\n    /* \"#utility.yul\":1823:2003   */\ntag_71:\n    /* \"#utility.yul\":1871:1948   */\n  0x4e487b7100000000000000000000000000000000000000000000000000000000\n    /* \"#utility.yul\":1868:1869   */\n  0x00\n    /* \"#utility.yul\":1861:1949   */\n  mstore\n    /* \"#utility.yul\":1968:1972   */\n  0x41\n    /* \"#utility.yul\":1965:1966   */\n  0x04\n    /* \"#utility.yul\":1958:1973   */\n  mstore\n    /* \"#utility.yul\":1992:1996   */\n  0x24\n    /* \"#utility.yul\":1989:1990   */\n  0x00\n    /* \"#utility.yul\":1982:1997   */\n  revert\n    /* \"#utility.yul\":2009:2189   */\ntag_72:\n    /* \"#utility.yul\":2057:2134   */\n  0x4e487b7100000000000000000000000000000000000000000000000000000000\n    /* \"#utility.yul\":2054:2055   */\n  0x00\n    /* \"#utility.yul\":2047:2135   */\n  mstore\n    /* \"#utility.yul\":2154:2158   */\n  0x22\n    /* \"#utility.yul\":2151:2152   */\n  0x04\n    /* \"#utility.yul\":2144:2159   */\n  mstore\n    /* \"#utility.yul\":2178:2182   */\n  0x24\n    /* \"#utility.yul\":2175:2176   */\n  0x00\n    /* \"#utility.yul\":2168:2183   */\n  revert\n    /* \"#utility.yul\":2195:2515   */\ntag_73:\n    /* \"#utility.yul\":2239:2245   */\n  0x00\n    /* \"#utility.yul\":2276:2277   */\n  0x02\n    /* \"#utility.yul\":2270:2274   */\n  dup3\n    /* \"#utility.yul\":2266:2278   */\n  div\n    /* \"#utility.yul\":2256:2278   */\n  swap1\n  pop\n    /* \"#utility.yul\":2323:2324   */\n  0x01\n    /* \"#utility.yul\":2317:2321   */\n  dup3\n    /* \"#utility.yul\":2313:2325   */\n  and\n    /* \"#utility.yul\":2344:2362   */\n  dup1\n    /* \"#utility.yul\":2334:2415   */\n  tag_119\n  jumpi\n    /* \"#utility.yul\":2400:2404   */\n  0x7f\n    /* \"#utility.yul\":2392:2398   */\n  dup3\n    /* \"#utility.yul\":2388:2405   */\n  and\n    /* \"#utility.yul\":2378:2405   */\n  swap2\n  pop\n    /* \"#utility.yul\":2334:2415   */\ntag_119:\n    /* \"#utility.yul\":2462:2464   */\n  0x20\n    /* \"#utility.yul\":2454:2460   */\n  dup3\n    /* \"#utility.yul\":2451:2465   */\n  lt\n    /* \"#utility.yul\":2431:2449   */\n  dup2\n    /* \"#utility.yul\":2428:2466   */\n  sub\n    /* \"#utility.yul\":2425:2509   */\n  tag_120\n  jumpi\n    /* \"#utility.yul\":2481:2499   */\n  tag_121\n  tag_72\n  jump\t// in\ntag_121:\n    /* \"#utility.yul\":2425:2509   */\ntag_120:\n    /* \"#utility.yul\":2246:2515   */\n  pop\n    /* \"#utility.yul\":2195:2515   */\n  swap2\n  swap1\n  pop\n  jump\t// out\n    /* \"#utility.yul\":2521:2662   */\ntag_74:\n    /* \"#utility.yul\":2570:2574   */\n  0x00\n    /* \"#utility.yul\":2593:2596   */\n  dup2\n    /* \"#utility.yul\":2585:2596   */\n  swap1\n  pop\n    /* \"#utility.yul\":2616:2619   */\n  dup2\n    /* \"#utility.yul\":2613:2614   */\n  0x00\n    /* \"#utility.yul\":2606:2620   */\n  mstore\n    /* \"#utility.yul\":2650:2654   */\n  0x20\n    /* \"#utility.yul\":2647:2648   */\n  0x00\n    /* \"#utility.yul\":2637:2655   */\n  keccak256\n    /* \"#utility.yul\":2629:2655   */\n  swap1\n  pop\n    /* \"#utility.yul\":2521:2662   */\n  swap2\n  swap1\n  pop\n  jump\t// out\n    /* \"#utility.yul\":2668:2761   */\ntag_75:\n    /* \"#utility.yul\":2705:2711   */\n  0x00\n    /* \"#utility.yul\":2752:2754   */\n  0x20\n    /* \"#utility.yul\":2747:2749   */\n  0x1f\n    /* \"#utility.yul\":2740:2745   */\n  dup4\n    /* \"#utility.yul\":2736:2750   */\n  add\n    /* \"#utility.yul\":2732:2755   */\n  div\n    /* \"#utility.yul\":2722:2755   */\n  swap1\n  pop\n    /* \"#utility.yul\":2668:2761   */\n  swap2\n  swap1\n  pop\n  jump\t// out\n    /* \"#utility.yul\":2767:2874   */\ntag_76:\n    /* \"#utility.yul\":2811:2819   */\n  0x00\n    /* \"#utility.yul\":2861:2866   */\n  dup3\n    /* \"#utility.yul\":2855:2859   */\n  dup3\n    /* \"#utility.yul\":2851:2867   */\n  shl\n    /* \"#utility.yul\":2830:2867   */\n  swap1\n  pop\n    /* \"#utility.yul\":2767:2874   */\n  swap3\n  swap2\n  pop\n  pop\n  jump\t// out\n    /* \"#utility.yul\":2880:3273   */\ntag_77:\n    /* \"#utility.yul\":2949:2955   */\n  0x00\n    /* \"#utility.yul\":2999:3000   */\n  0x08\n    /* \"#utility.yul\":2987:2997   */\n  dup4\n    /* \"#utility.yul\":2983:3001   */\n  mul\n    /* \"#utility.yul\":3022:3119   */\n  tag_126\n    /* \"#utility.yul\":3052:3118   */\n  0xffffffffffffffffffffffffffffffffffffffffffffffffffffffffffffffff\n    /* \"#utility.yul\":3041:3050   */\n  dup3\n    /* \"#utility.yul\":3022:3119   */\n  tag_76\n  jump\t// in\ntag_126:\n    /* \"#utility.yul\":3140:3179   */\n  tag_127\n    /* \"#utility.yul\":3170:3178   */\n  dup7\n    /* \"#utility.yul\":3159:3168   */\n  dup4\n    /* \"#utility.yul\":3140:3179   */\n  tag_76\n  jump\t// in\ntag_127:\n    /* \"#utility.yul\":3128:3179   */\n  swap6\n  pop\n    /* \"#utility.yul\":3212:3216   */\n  dup1\n    /* \"#utility.yul\":3208:3217   */\n  not\n    /* \"#utility.yul\":3201:3206   */\n  dup5\n    /* \"#utility.yul\":3197:3218   */\n  and\n    /* \"#utility.yul\":3188:3218   */\n  swap4\n  pop\n    /* \"#utility.yul\":3261:3265   */\n  dup1\n    /* \"#utility.yul\":3251:3259   */\n  dup7\n    /* \"#utility.yul\":3247:3266   */\n  and\n    /* \"#utility.yul\":3240:3245   */\n  dup5\n    /* \"#utility.yul\":3237:3267   */\n  or\n    /* \"#utility.yul\":3227:3267   */\n  swap3\n  pop\n    /* \"#utility.yul\":2956:3273   */\n  pop\n  pop\n    /* \"#utility.yul\":2880:3273   */\n  swap4\n  swap3\n  pop\n  pop\n  pop\n  jump\t// out\n    /* \"#utility.yul\":3279:3339   */\ntag_78:\n    /* \"#utility.yul\":3307:3310   */\n  0x00\n    /* \"#utility.yul\":3328:3333   */\n  dup2\n    /* \"#utility.yul\":3321:3333   */\n  swap1\n  pop\n    /* \"#utility.yul\":3279:3339   */\n  swap2\n  swap1\n  pop\n  jump\t// out\n    /* \"#utility.yul\":3345:3487   */\ntag_79:\n    /* \"#utility.yul\":3395:3404   */\n  0x00\n    /* \"#utility.yul\":3428:3481   */\n  tag_130\n    /* \"#utility.yul\":3446:3480   */\n  tag_131\n    /* \"#utility.yul\":3455:3479   */\n  tag_132\n    /* \"#utility.yul\":3473:3478   */\n  dup5\n    /* \"#utility.yul\":3455:3479   */\n  tag_67\n  jump\t// in\ntag_132:\n    /* \"#utility.yul\":3446:3480   */\n  tag_78\n  jump\t// in\ntag_131:\n    /* \"#utility.yul\":3428:3481   */\n  tag_67\n  jump\t// in\ntag_130:\n    /* \"#utility.yul\":3415:3481   */\n  swap1\n  pop\n    /* \"#utility.yul\":3345:3487   */\n  swap2\n  swap1\n  pop\n  jump\t// out\n    /* \"#utility.yul\":3493:3568   */\ntag_80:\n    /* \"#utility.yul\":3536:3539   */\n  0x00\n    /* \"#utility.yul\":3557:3562   */\n  dup2\n    /* \"#utility.yul\":3550:3562   */\n  swap1\n  pop\n    /* \"#utility.yul\":3493:3568   */\n  swap2\n  swap1\n  pop\n  jump\t// out\n    /* \"#utility.yul\":3574:3843   */\ntag_81:\n    /* \"#utility.yul\":3684:3723   */\n  tag_135\n    /* \"#utility.yul\":3715:3722   */\n  dup4\n    /* \"#utility.yul\":3684:3723   */\n  tag_79\n  jump\t// in\ntag_135:\n    /* \"#utility.yul\":3745:3836   */\n  tag_136\n    /* \"#utility.yul\":3794:3835   */\n  tag_137\n    /* \"#utility.yul\":3818:3834   */\n  dup3\n    /* \"#utility.yul\":3794:3835   */\n  tag_80\n  jump\t// in\ntag_137:\n    /* \"#utility.yul\":3786:3792   */\n  dup5\n    /* \"#utility.yul\":3779:3783   */\n  dup5\n    /* \"#utility.yul\":3773:3784   */\n  sload\n    /* \"#utility.yul\":3745:3836   */\n  tag_77\n  jump\t// in\ntag_136:\n    /* \"#utility.yul\":3739:3743   */\n  dup3\n    /* \"#utility.yul\":3732:3837   */\n  sstore\n    /* \"#utility.yul\":3650:3843   */\n  pop\n    /* \"#utility.yul\":3574:3843   */\n  pop\n  pop\n  pop\n  jump\t// out\n    /* \"#utility.yul\":3849:3922   */\ntag_82:\n    /* \"#utility.yul\":3894:3897   */\n  0x00\n    /* \"#utility.yul\":3849:3922   */\n  swap1\n  jump\t// out\n    /* \"#utility.yul\":3928:4117   */\ntag_83:\n    /* \"#utility.yul\":4005:4037   */\n  tag_140\n  tag_82\n  jump\t// in\ntag_140:\n    /* \"#utility.yul\":4046:4111   */\n  tag_141\n    /* \"#utility.yul\":4104:4110   */\n  dup2\n    /* \"#utility.yul\":4096:4102   */\n  dup5\n    /* \"#utility.yul\":4090:4094   */\n  dup5\n    /* \"#utility.yul\":4046:4111   */\n  tag_81\n  jump\t// in\ntag_141:\n    /* \"#utility.yul\":3981:4117   */\n  pop\n    /* \"#utility.yul\":3928:4117   */\n  pop\n  pop\n  jump\t// out\n    /* \"#utility.yul\":4123:4309   */\ntag_84:\n    /* \"#utility.yul\":4183:4303   */\ntag_143:\n    /* \"#utility.yul\":4200:4203   */\n  dup2\n    /* \"#utility.yul\":4193:4198   */\n  dup2\n    /* \"#utility.yul\":4190:4204   */\n  lt\n    /* \"#utility.yul\":4183:4303   */\n  iszero\n  tag_145\n  jumpi\n    /* \"#utility.yul\":4254:4293   */\n  tag_146\n    /* \"#utility.yul\":4291:4292   */\n  0x00\n    /* \"#utility.yul\":4284:4289   */\n  dup3\n    /* \"#utility.yul\":4254:4293   */\n  tag_83\n  jump\t// in\ntag_146:\n    /* \"#utility.yul\":4227:4228   */\n  0x01\n    /* \"#utility.yul\":4220:4225   */\n  dup2\n    /* \"#utility.yul\":4216:4229   */\n  add\n    /* \"#utility.yul\":4207:4229   */\n  swap1\n  pop\n    /* \"#utility.yul\":4183:4303   */\n  jump(tag_143)\ntag_145:\n    /* \"#utility.yul\":4123:4309   */\n  pop\n  pop\n  jump\t// out\n    /* \"#utility.yul\":4315:4858   */\ntag_85:\n    /* \"#utility.yul\":4416:4418   */\n  0x1f\n    /* \"#utility.yul\":4411:4414   */\n  dup3\n    /* \"#utility.yul\":4408:4419   */\n  gt\n    /* \"#utility.yul\":4405:4851   */\n  iszero\n  tag_148\n  jumpi\n    /* \"#utility.yul\":4450:4488   */\n  tag_149\n    /* \"#utility.yul\":4482:4487   */\n  dup2\n    /* \"#utility.yul\":4450:4488   */\n  tag_74\n  jump\t// in\ntag_149:\n    /* \"#utility.yul\":4534:4563   */\n  tag_150\n    /* \"#utility.yul\":4552:4562   */\n  dup5\n    /* \"#utility.yul\":4534:4563   */\n  tag_75\n  jump\t// in\ntag_150:\n    /* \"#utility.yul\":4524:4532   */\n  dup2\n    /* \"#utility.yul\":4520:4564   */\n  add\n    /* \"#utility.yul\":4717:4719   */\n  0x20\n    /* \"#utility.yul\":4705:4715   */\n  dup6\n    /* \"#utility.yul\":4702:4720   */\n  lt\n    /* \"#utility.yul\":4699:4748   */\n  iszero\n  tag_151\n  jumpi\n    /* \"#utility.yul\":4738:4746   */\n  dup2\n    /* \"#utility.yul\":4723:4746   */\n  swap1\n  pop\n    /* \"#utility.yul\":4699:4748   */\ntag_151:\n    /* \"#utility.yul\":4761:4841   */\n  tag_152\n    /* \"#utility.yul\":4817:4839   */\n  tag_153\n    /* \"#utility.yul\":4835:4838   */\n  dup6\n    /* \"#utility.yul\":4817:4839   */\n  tag_75\n  jump\t// in\ntag_153:\n    /* \"#utility.yul\":4807:4815   */\n  dup4\n    /* \"#utility.yul\":4803:4840   */\n  add\n    /* \"#utility.yul\":4790:4801   */\n  dup3\n    /* \"#utility.yul\":4761:4841   */\n  tag_84\n  jump\t// in\ntag_152:\n    /* \"#utility.yul\":4420:4851   */\n  pop\n  pop\n    /* \"#utility.yul\":4405:4851   */\ntag_148:\n    /* \"#utility.yul\":4315:4858   */\n  pop\n  pop\n  pop\n  jump\t// out\n    /* \"#utility.yul\":4864:4981   */\ntag_86:\n    /* \"#utility.yul\":4918:4926   */\n  0x00\n    /* \"#utility.yul\":4968:4973   */\n  dup3\n    /* \"#utility.yul\":4962:4966   */\n  dup3\n    /* \"#utility.yul\":4958:4974   */\n  shr\n    /* \"#utility.yul\":4937:4974   */\n  swap1\n  pop\n    /* \"#utility.yul\":4864:4981   */\n  swap3\n  swap2\n  pop\n  pop\n  jump\t// out\n    /* \"#utility.yul\":4987:5156   */\ntag_87:\n    /* \"#utility.yul\":5031:5037   */\n  0x00\n    /* \"#utility.yul\":5064:5115   */\n  tag_156\n    /* \"#utility.yul\":5112:5113   */\n  0x00\n    /* \"#utility.yul\":5108:5114   */\n  not\n    /* \"#utility.yul\":5100:5105   */\n  dup5\n    /* \"#utility.yul\":5097:5098   */\n  0x08\n    /* \"#utility.yul\":5093:5106   */\n  mul\n    /* \"#utility.yul\":5064:5115   */\n  tag_86\n  jump\t// in\ntag_156:\n    /* \"#utility.yul\":5060:5116   */\n  not\n    /* \"#utility.yul\":5145:5149   */\n  dup1\n    /* \"#utility.yul\":5139:5143   */\n  dup4\n    /* \"#utility.yul\":5135:5150   */\n  and\n    /* \"#utility.yul\":5125:5150   */\n  swap2\n  pop\n    /* \"#utility.yul\":5038:5156   */\n  pop\n    /* \"#utility.yul\":4987:5156   */\n  swap3\n  swap2\n  pop\n  pop\n  jump\t// out\n    /* \"#utility.yul\":5161:5456   */\ntag_88:\n    /* \"#utility.yul\":5237:5241   */\n  0x00\n    /* \"#utility.yul\":5383:5412   */\n  tag_158\n    /* \"#utility.yul\":5408:5411   */\n  dup4\n    /* \"#utility.yul\":5402:5406   */\n  dup4\n    /* \"#utility.yul\":5383:5412   */\n  tag_87\n  jump\t// in\ntag_158:\n    /* \"#utility.yul\":5375:5412   */\n  swap2\n  pop\n    /* \"#utility.yul\":5445:5448   */\n  dup3\n    /* \"#utility.yul\":5442:5443   */\n  0x02\n    /* \"#utility.yul\":5438:5449   */\n  mul\n    /* \"#utility.yul\":5432:5436   */\n  dup3\n    /* \"#utility.yul\":5429:5450   */\n  or\n    /* \"#utility.yul\":5421:5450   */\n  swap1\n  pop\n    /* \"#utility.yul\":5161:5456   */\n  swap3\n  swap2\n  pop\n  pop\n  jump\t// out\n    /* \"#utility.yul\":5461:6856   */\ntag_9:\n    /* \"#utility.yul\":5578:5615   */\n  tag_160\n    /* \"#utility.yul\":5611:5614   */\n  dup3\n    /* \"#utility.yul\":5578:5615   */\n  tag_70\n  jump\t// in\ntag_160:\n    /* \"#utility.yul\":5680:5698   */\n  0xffffffffffffffff\n    /* \"#utility.yul\":5672:5678   */\n  dup2\n    /* \"#utility.yul\":5669:5699   */\n  gt\n    /* \"#utility.yul\":5666:5722   */\n  iszero\n  tag_161\n  jumpi\n    /* \"#utility.yul\":5702:5720   */\n  tag_162\n  tag_71\n  jump\t// in\ntag_162:\n    /* \"#utility.yul\":5666:5722   */\ntag_161:\n    /* \"#utility.yul\":5746:5784   */\n  tag_163\n    /* \"#utility.yul\":5778:5782   */\n  dup3\n    /* \"#utility.yul\":5772:5783   */\n  sload\n    /* \"#utility.yul\":5746:5784   */\n  tag_73\n  jump\t// in\ntag_163:\n    /* \"#utility.yul\":5831:5898   */\n  tag_164\n    /* \"#utility.yul\":5891:5897   */\n  dup3\n    /* \"#utility.yul\":5883:5889   */\n  dup3\n    /* \"#utility.yul\":5877:5881   */\n  dup6\n    /* \"#utility.yul\":5831:5898   */\n  tag_85\n  jump\t// in\ntag_164:\n    /* \"#utility.yul\":5925:5926   */\n  0x00\n    /* \"#utility.yul\":5949:5953   */\n  0x20\n    /* \"#utility.yul\":5936:5953   */\n  swap1\n  pop\n    /* \"#utility.yul\":5981:5983   */\n  0x1f\n    /* \"#utility.yul\":5973:5979   */\n  dup4\n    /* \"#utility.yul\":5970:5984   */\n  gt\n    /* \"#utility.yul\":5998:5999   */\n  0x01\n    /* \"#utility.yul\":5993:6611   */\n  dup2\n  eq\n  tag_166\n  jumpi\n    /* \"#utility.yul\":6655:6656   */\n  0x00\n    /* \"#utility.yul\":6672:6678   */\n  dup5\n    /* \"#utility.yul\":6669:6746   */\n  iszero\n  tag_167\n  jumpi\n    /* \"#utility.yul\":6721:6730   */\n  dup3\n    /* \"#utility.yul\":6716:6719   */\n  dup8\n    /* \"#utility.yul\":6712:6731   */\n  add\n    /* \"#utility.yul\":6706:6732   */\n  mload\n    /* \"#utility.yul\":6697:6732   */\n  swap1\n  pop\n    /* \"#utility.yul\":6669:6746   */\ntag_167:\n    /* \"#utility.yul\":6772:6839   */\n  tag_168\n    /* \"#utility.yul\":6832:6838   */\n  dup6\n    /* \"#utility.yul\":6825:6830   */\n  dup3\n    /* \"#utility.yul\":6772:6839   */\n  tag_88\n  jump\t// in\ntag_168:\n    /* \"#utility.yul\":6766:6770   */\n  dup7\n    /* \"#utility.yul\":6759:6840   */\n  sstore\n    /* \"#utility.yul\":6628:6850   */\n  pop\n    /* \"#utility.yul\":5963:6850   */\n  jump(tag_165)\n    /* \"#utility.yul\":5993:6611   */\ntag_166:\n    /* \"#utility.yul\":6045:6049   */\n  0x1f\n    /* \"#utility.yul\":6041:6050   */\n  not\n    /* \"#utility.yul\":6033:6039   */\n  dup5\n    /* \"#utility.yul\":6029:6051   */\n  and\n    /* \"#utility.yul\":6079:6116   */\n  tag_169\n    /* \"#utility.yul\":6111:6115   */\n  dup7\n    /* \"#utility.yul\":6079:6116   */\n  tag_74\n  jump\t// in\ntag_169:\n    /* \"#utility.yul\":6138:6139   */\n  0x00\n    /* \"#utility.yul\":6152:6360   */\ntag_170:\n    /* \"#utility.yul\":6166:6173   */\n  dup3\n    /* \"#utility.yul\":6163:6164   */\n  dup2\n    /* \"#utility.yul\":6160:6174   */\n  lt\n    /* \"#utility.yul\":6152:6360   */\n  iszero\n  tag_172\n  jumpi\n    /* \"#utility.yul\":6245:6254   */\n  dup5\n    /* \"#utility.yul\":6240:6243   */\n  dup10\n    /* \"#utility.yul\":6236:6255   */\n  add\n    /* \"#utility.yul\":6230:6256   */\n  mload\n    /* \"#utility.yul\":6222:6228   */\n  dup3\n    /* \"#utility.yul\":6215:6257   */\n  sstore\n    /* \"#utility.yul\":6296:6297   */\n  0x01\n    /* \"#utility.yul\":6288:6294   */\n  dup3\n    /* \"#utility.yul\":6284:6298   */\n  add\n    /* \"#utility.yul\":6274:6298   */\n  swap2\n  pop\n    /* \"#utility.yul\":6343:6345   */\n  0x20\n    /* \"#utility.yul\":6332:6341   */\n  dup6\n    /* \"#utility.yul\":6328:6346   */\n  add\n    /* \"#utility.yul\":6315:6346   */\n  swap5\n  pop\n    /* \"#utility.yul\":6189:6193   */\n  0x20\n    /* \"#utility.yul\":6186:6187   */\n  dup2\n    /* \"#utility.yul\":6182:6194   */\n  add\n    /* \"#utility.yul\":6177:6194   */\n  swap1\n  pop\n    /* \"#utility.yul\":6152:6360   */\n  jump(tag_170)\ntag_172:\n    /* \"#utility.yul\":6388:6394   */\n  dup7\n    /* \"#utility.yul\":6379:6386   */\n  dup4\n    /* \"#utility.yul\":6376:6395   */\n  lt\n    /* \"#utility.yul\":6373:6552   */\n  iszero\n  tag_173\n  jumpi\n    /* \"#utility.yul\":6446:6455   */\n  dup5\n    /* \"#utility.yul\":6441:6444   */\n  dup10\n    /* \"#utility.yul\":6437:6456   */\n  add\n    /* \"#utility.yul\":6431:6457   */\n  mload\n    /* \"#utility.yul\":6489:6537   */\n  tag_174\n    /* \"#utility.yul\":6531:6535   */\n  0x1f\n    /* \"#utility.yul\":6523:6529   */\n  dup10\n    /* \"#utility.yul\":6519:6536   */\n  and\n    /* \"#utility.yul\":6508:6517   */\n  dup3\n    /* \"#utility.yul\":6489:6537   */\n  tag_87\n  jump\t// in\ntag_174:\n    /* \"#utility.yul\":6481:6487   */\n  dup4\n    /* \"#utility.yul\":6474:6538   */\n  sstore\n    /* \"#utility.yul\":6396:6552   */\n  pop\n    /* \"#utility.yul\":6373:6552   */\ntag_173:\n    /* \"#utility.yul\":6598:6599   */\n  0x01\n    /* \"#utility.yul\":6594:6595   */\n  0x02\n    /* \"#utility.yul\":6586:6592   */\n  dup9\n    /* \"#utility.yul\":6582:6596   */\n  mul\n    /* \"#utility.yul\":6578:6600   */\n  add\n    /* \"#utility.yul\":6572:6576   */\n  dup9\n    /* \"#utility.yul\":6565:6601   */\n  sstore\n    /* \"#utility.yul\":6000:6611   */\n  pop\n  pop\n  pop\n    /* \"#utility.yul\":5963:6850   */\ntag_165:\n  pop\n    /* \"#utility.yul\":5553:6856   */\n  pop\n  pop\n  pop\n    /* \"#utility.yul\":5461:6856   */\n  pop\n  pop\n  jump\t// out\n    /* \"#utility.yul\":6862:6980   */\ntag_89:\n    /* \"#utility.yul\":6949:6973   */\n  tag_176\n    /* \"#utility.yul\":6967:6972   */\n  dup2\n    /* \"#utility.yul\":6949:6973   */\n  tag_64\n  jump\t// in\ntag_176:\n    /* \"#utility.yul\":6944:6947   */\n  dup3\n    /* \"#utility.yul\":6937:6974   */\n  mstore\n    /* \"#utility.yul\":6862:6980   */\n  pop\n  pop\n  jump\t// out\n    /* \"#utility.yul\":6986:7208   */\ntag_14:\n    /* \"#utility.yul\":7079:7083   */\n  0x00\n    /* \"#utility.yul\":7117:7119   */\n  0x20\n    /* \"#utility.yul\":7106:7115   */\n  dup3\n    /* \"#utility.yul\":7102:7120   */\n  add\n    /* \"#utility.yul\":7094:7120   */\n  swap1\n  pop\n    /* \"#utility.yul\":7130:7201   */\n  tag_178\n    /* \"#utility.yul\":7198:7199   */\n  0x00\n    /* \"#utility.yul\":7187:7196   */\n  dup4\n    /* \"#utility.yul\":7183:7200   */\n  add\n    /* \"#utility.yul\":7174:7180   */\n  dup5\n    /* \"#utility.yul\":7130:7201   */\n  tag_89\n  jump\t// in\ntag_178:\n    /* \"#utility.yul\":6986:7208   */\n  swap3\n  swap2\n  pop\n  pop\n  jump\t// out\n    /* \"#utility.yul\":7214:7394   */\ntag_90:\n    /* \"#utility.yul\":7262:7339   */\n  0x4e487b7100000000000000000000000000000000000000000000000000000000\n    /* \"#utility.yul\":7259:7260   */\n  0x00\n    /* \"#utility.yul\":7252:7340   */\n  mstore\n    /* \"#utility.yul\":7359:7363   */\n  0x11\n    /* \"#utility.yul\":7356:7357   */\n  0x04\n    /* \"#utility.yul\":7349:7364   */\n  mstore\n    /* \"#utility.yul\":7383:7387   */\n  0x24\n    /* \"#utility.yul\":7380:7381   */\n  0x00\n    /* \"#utility.yul\":7373:7388   */\n  revert\n    /* \"#utility.yul\":7400:7591   */\ntag_51:\n    /* \"#utility.yul\":7440:7443   */\n  0x00\n    /* \"#utility.yul\":7459:7479   */\n  tag_181\n    /* \"#utility.yul\":7477:7478   */\n  dup3\n    /* \"#utility.yul\":7459:7479   */\n  tag_67\n  jump\t// in\ntag_181:\n    /* \"#utility.yul\":7454:7479   */\n  swap2\n  pop\n    /* \"#utility.yul\":7493:7513   */\n  tag_182\n    /* \"#utility.yul\":7511:7512   */\n  dup4\n    /* \"#utility.yul\":7493:7513   */\n  tag_67\n  jump\t// in\ntag_182:\n    /* \"#utility.yul\":7488:7513   */\n  swap3\n  pop\n    /* \"#utility.yul\":7536:7537   */\n  dup3\n    /* \"#utility.yul\":7533:7534   */\n  dup3\n    /* \"#utility.yul\":7529:7538   */\n  add\n    /* \"#utility.yul\":7522:7538   */\n  swap1\n  pop\n    /* \"#utility.yul\":7557:7560   */\n  dup1\n    /* \"#utility.yul\":7554:7555   */\n  dup3\n    /* \"#utility.yul\":7551:7561   */\n  gt\n    /* \"#utility.yul\":7548:7584   */\n  iszero\n  tag_183\n  jumpi\n    /* \"#utility.yul\":7564:7582   */\n  tag_184\n  tag_90\n  jump\t// in\ntag_184:\n    /* \"#utility.yul\":7548:7584   */\ntag_183:\n    /* \"#utility.yul\":7400:7591   */\n  swap3\n  swap2\n  pop\n  pop\n  jump\t// out\n    /* \"#utility.yul\":7597:7715   */\ntag_91:\n    /* \"#utility.yul\":7684:7708   */\n  tag_186\n    /* \"#utility.yul\":7702:7707   */\n  dup2\n    /* \"#utility.yul\":7684:7708   */\n  tag_67\n  jump\t// in\ntag_186:\n    /* \"#utility.yul\":7679:7682   */\n  dup3\n    /* \"#utility.yul\":7672:7709   */\n  mstore\n    /* \"#utility.yul\":7597:7715   */\n  pop\n  pop\n  jump\t// out\n    /* \"#utility.yul\":7721:8163   */\ntag_55:\n    /* \"#utility.yul\":7870:7874   */\n  0x00\n    /* \"#utility.yul\":7908:7910   */\n  0x60\n    /* \"#utility.yul\":7897:7906   */\n  dup3\n    /* \"#utility.yul\":7893:7911   */\n  add\n    /* \"#utility.yul\":7885:7911   */\n  swap1\n  pop\n    /* \"#utility.yul\":7921:7992   */\n  tag_188\n    /* \"#utility.yul\":7989:7990   */\n  0x00\n    /* \"#utility.yul\":7978:7987   */\n  dup4\n    /* \"#utility.yul\":7974:7991   */\n  add\n    /* \"#utility.yul\":7965:7971   */\n  dup7\n    /* \"#utility.yul\":7921:7992   */\n  tag_89\n  jump\t// in\ntag_188:\n    /* \"#utility.yul\":8002:8074   */\n  tag_189\n    /* \"#utility.yul\":8070:8072   */\n  0x20\n    /* \"#utility.yul\":8059:8068   */\n  dup4\n    /* \"#utility.yul\":8055:8073   */\n  add\n    /* \"#utility.yul\":8046:8052   */\n  dup6\n    /* \"#utility.yul\":8002:8074   */\n  tag_91\n  jump\t// in\ntag_189:\n    /* \"#utility.yul\":8084:8156   */\n  tag_190\n    /* \"#utility.yul\":8152:8154   */\n  0x40\n    /* \"#utility.yul\":8141:8150   */\n  dup4\n    /* \"#utility.yul\":8137:8155   */\n  add\n    /* \"#utility.yul\":8128:8134   */\n  dup5\n    /* \"#utility.yul\":8084:8156   */\n  tag_91\n  jump\t// in\ntag_190:\n    /* \"#utility.yul\":7721:8163   */\n  swap5\n  swap4\n  pop\n  pop\n  pop\n  pop\n  jump\t// out\n    /* \"#utility.yul\":8169:8391   */\ntag_59:\n    /* \"#utility.yul\":8262:8266   */\n  0x00\n    /* \"#utility.yul\":8300:8302   */\n  0x20\n    /* \"#utility.yul\":8289:8298   */\n  dup3\n    /* \"#utility.yul\":8285:8303   */\n  add\n    /* \"#utility.yul\":8277:8303   */\n  swap1\n  pop\n    /* \"#utility.yul\":8313:8384   */\n  tag_192\n    /* \"#utility.yul\":8381:8382   */\n  0x00\n    /* \"#utility.yul\":8370:8379   */\n  dup4\n    /* \"#utility.yul\":8366:8383   */\n  add\n    /* \"#utility.yul\":8357:8363   */\n  dup5\n    /* \"#utility.yul\":8313:8384   */\n  tag_91\n  jump\t// in\ntag_192:\n    /* \"#utility.yul\":8169:8391   */\n  swap3\n  swap2\n  pop\n  pop\n  jump\t// out\n    /* \"contracts/DegenToken.sol\":785:3822  contract DegenToken is ERC20, Ownable, ERC20Burnable {... */\ntag_25:\n  dataSize(sub_0)\n  dup1\n  dataOffset(sub_0)\n  0x00\n  codecopy\n  0x00\n  return\nstop\n\nsub_0: assembly {\n        /* \"contracts/DegenToken.sol\":785:3822  contract DegenToken is ERC20, Ownable, ERC20Burnable {... */\n      mstore(0x40, 0x80)\n      callvalue\n      dup1\n      iszero\n      tag_1\n      jumpi\n      0x00\n      dup1\n      revert\n    tag_1:\n      pop\n      jumpi(tag_2, lt(calldatasize, 0x04))\n      shr(0xe0, calldataload(0x00))\n      dup1\n      0x715018a6\n      gt\n      tag_28\n      jumpi\n      dup1\n      0xaf3bcb7d\n      gt\n      tag_29\n      jumpi\n      dup1\n      0xea5e65e0\n      gt\n      tag_30\n      jumpi\n      dup1\n      0xea5e65e0\n      eq\n      tag_24\n      jumpi\n      dup1\n      0xf2fde38b\n      eq\n      tag_25\n      jumpi\n      dup1\n      0xf5112f87\n      eq\n      tag_26\n      jumpi\n      dup1\n      0xfbd1a97b\n      eq\n      tag_27\n      jumpi\n      jump(tag_2)\n    tag_30:\n      dup1\n      0xaf3bcb7d\n      eq\n      tag_21\n      jumpi\n      dup1\n      0xce6019b4\n      eq\n      tag_22\n      jumpi\n      dup1\n      0xdd62ed3e\n      eq\n      tag_23\n      jumpi\n      jump(tag_2)\n    tag_29:\n      dup1\n      0x715018a6\n      eq\n      tag_15\n      jumpi\n      dup1\n      0x79cc6790\n      eq\n      tag_16\n      jumpi\n      dup1\n      0x7b47ec1a\n      eq\n      tag_17\n      jumpi\n      dup1\n      0x8da5cb5b\n      eq\n      tag_18\n      jumpi\n      dup1\n      0x95d89b41\n      eq\n      tag_19\n      jumpi\n      dup1\n      0xa9059cbb\n      eq\n      tag_20\n      jumpi\n      jump(tag_2)\n    tag_28:\n      dup1\n      0x23b872dd\n      gt\n      tag_31\n      jumpi\n      dup1\n      0x23b872dd\n      eq\n      tag_9\n      jumpi\n      dup1\n      0x313ce567\n      eq\n      tag_10\n      jumpi\n      dup1\n      0x40c10f19\n      eq\n      tag_11\n      jumpi\n      dup1\n      0x42966c68\n      eq\n      tag_12\n      jumpi\n      dup1\n      0x62d6bbdf\n      eq\n      tag_13\n      jumpi\n      dup1\n      0x70a08231\n      eq\n      tag_14\n      jumpi\n      jump(tag_2)\n    tag_31:\n      dup1\n      0x06fdde03\n      eq\n      tag_3\n      jumpi\n      dup1\n      0x095ea7b3\n      eq\n      tag_4\n      jumpi\n      dup1\n      0x1072cbea\n      eq\n      tag_5\n      jumpi\n      dup1\n      0x12065fe0\n      eq\n      tag_6\n      jumpi\n      dup1\n      0x17d70f7c\n      eq\n      tag_7\n      jumpi\n      dup1\n      0x18160ddd\n      eq\n      tag_8\n      jumpi\n    tag_2:\n      0x00\n      dup1\n      revert\n        /* \"@openzeppelin/contracts/token/ERC20/ERC20.sol\":2074:2163  function name() public view virtual returns (string memory) {... */\n    tag_3:\n      tag_32\n      tag_33\n      jump\t// in\n    tag_32:\n      mload(0x40)\n      tag_34\n      swap2\n      swap1\n      tag_35\n      jump\t// in\n    tag_34:\n      mload(0x40)\n      dup1\n      swap2\n      sub\n      swap1\n      return\n        /* \"@openzeppelin/contracts/token/ERC20/ERC20.sol\":4293:4479  function approve(address spender, uint256 value) public virtual returns (bool) {... */\n    tag_4:\n      tag_36\n      0x04\n      dup1\n      calldatasize\n      sub\n      dup2\n      add\n      swap1\n      tag_37\n      swap2\n      swap1\n      tag_38\n      jump\t// in\n    tag_37:\n      tag_39\n      jump\t// in\n    tag_36:\n      mload(0x40)\n      tag_40\n      swap2\n      swap1\n      tag_41\n      jump\t// in\n    tag_40:\n      mload(0x40)\n      dup1\n      swap2\n      sub\n      swap1\n      return\n        /* \"contracts/DegenToken.sol\":1937:2125  function transferToken(address _recipient, uint _amount) external {... */\n    tag_5:\n      tag_42\n      0x04\n      dup1\n      calldatasize\n      sub\n      dup2\n      add\n      swap1\n      tag_43\n      swap2\n      swap1\n      tag_38\n      jump\t// in\n    tag_43:\n      tag_44\n      jump\t// in\n    tag_42:\n      stop\n        /* \"contracts/DegenToken.sol\":3538:3637  function getBalance() external view returns(uint256){... */\n    tag_6:\n      tag_45\n      tag_46\n      jump\t// in\n    tag_45:\n      mload(0x40)\n      tag_47\n      swap2\n      swap1\n      tag_48\n      jump\t// in\n    tag_47:\n      mload(0x40)\n      dup1\n      swap2\n      sub\n      swap1\n      return\n        /* \"contracts/DegenToken.sol\":1027:1047  uint8 public tokenId */\n    tag_7:\n      tag_49\n      tag_50\n      jump\t// in\n    tag_49:\n      mload(0x40)\n      tag_51\n      swap2\n      swap1\n      tag_52\n      jump\t// in\n    tag_51:\n      mload(0x40)\n      dup1\n      swap2\n      sub\n      swap1\n      return\n        /* \"@openzeppelin/contracts/token/ERC20/ERC20.sol\":3144:3241  function totalSupply() public view virtual returns (uint256) {... */\n    tag_8:\n      tag_53\n      tag_54\n      jump\t// in\n    tag_53:\n      mload(0x40)\n      tag_55\n      swap2\n      swap1\n      tag_48\n      jump\t// in\n    tag_55:\n      mload(0x40)\n      dup1\n      swap2\n      sub\n      swap1\n      return\n        /* \"@openzeppelin/contracts/token/ERC20/ERC20.sol\":5039:5283  function transferFrom(address from, address to, uint256 value) public virtual returns (bool) {... */\n    tag_9:\n      tag_56\n      0x04\n      dup1\n      calldatasize\n      sub\n      dup2\n      add\n      swap1\n      tag_57\n      swap2\n      swap1\n      tag_58\n      jump\t// in\n    tag_57:\n      tag_59\n      jump\t// in\n    tag_56:\n      mload(0x40)\n      tag_60\n      swap2\n      swap1\n      tag_41\n      jump\t// in\n    tag_60:\n      mload(0x40)\n      dup1\n      swap2\n      sub\n      swap1\n      return\n        /* \"contracts/DegenToken.sol\":1688:1771  function decimals() override public pure returns (uint8){... */\n    tag_10:\n      tag_61\n      tag_62\n      jump\t// in\n    tag_61:\n      mload(0x40)\n      tag_63\n      swap2\n      swap1\n      tag_52\n      jump\t// in\n    tag_63:\n      mload(0x40)\n      dup1\n      swap2\n      sub\n      swap1\n      return\n        /* \"contracts/DegenToken.sol\":1804:1899  function mint(address to, uint256 amount) public onlyOwner {... */\n    tag_11:\n      tag_64\n      0x04\n      dup1\n      calldatasize\n      sub\n      dup2\n      add\n      swap1\n      tag_65\n      swap2\n      swap1\n      tag_38\n      jump\t// in\n    tag_65:\n      tag_66\n      jump\t// in\n    tag_64:\n      stop\n        /* \"@openzeppelin/contracts/token/ERC20/extensions/ERC20Burnable.sol\":618:705  function burn(uint256 value) public virtual {... */\n    tag_12:\n      tag_67\n      0x04\n      dup1\n      calldatasize\n      sub\n      dup2\n      add\n      swap1\n      tag_68\n      swap2\n      swap1\n      tag_69\n      jump\t// in\n    tag_68:\n      tag_70\n      jump\t// in\n    tag_67:\n      stop\n        /* \"contracts/DegenToken.sol\":2330:2484  function addItem(string memory _name, uint256 _price) public onlyOwner {... */\n    tag_13:\n      tag_71\n      0x04\n      dup1\n      calldatasize\n      sub\n      dup2\n      add\n      swap1\n      tag_72\n      swap2\n      swap1\n      tag_73\n      jump\t// in\n    tag_72:\n      tag_74\n      jump\t// in\n    tag_71:\n      stop\n        /* \"@openzeppelin/contracts/token/ERC20/ERC20.sol\":3299:3415  function balanceOf(address account) public view virtual returns (uint256) {... */\n    tag_14:\n      tag_75\n      0x04\n      dup1\n      calldatasize\n      sub\n      dup2\n      add\n      swap1\n      tag_76\n      swap2\n      swap1\n      tag_77\n      jump\t// in\n    tag_76:\n      tag_78\n      jump\t// in\n    tag_75:\n      mload(0x40)\n      tag_79\n      swap2\n      swap1\n      tag_48\n      jump\t// in\n    tag_79:\n      mload(0x40)\n      dup1\n      swap2\n      sub\n      swap1\n      return\n        /* \"@openzeppelin/contracts/access/Ownable.sol\":2293:2394  function renounceOwnership() public virtual onlyOwner {... */\n    tag_15:\n      tag_80\n      tag_81\n      jump\t// in\n    tag_80:\n      stop\n        /* \"@openzeppelin/contracts/token/ERC20/extensions/ERC20Burnable.sol\":1021:1179  function burnFrom(address account, uint256 value) public virtual {... */\n    tag_16:\n      tag_82\n      0x04\n      dup1\n      calldatasize\n      sub\n      dup2\n      add\n      swap1\n      tag_83\n      swap2\n      swap1\n      tag_38\n      jump\t// in\n    tag_83:\n      tag_84\n      jump\t// in\n    tag_82:\n      stop\n        /* \"contracts/DegenToken.sol\":3670:3817  function burnToken(uint _amount) external {... */\n    tag_17:\n      tag_85\n      0x04\n      dup1\n      calldatasize\n      sub\n      dup2\n      add\n      swap1\n      tag_86\n      swap2\n      swap1\n      tag_69\n      jump\t// in\n    tag_86:\n      tag_87\n      jump\t// in\n    tag_85:\n      stop\n        /* \"@openzeppelin/contracts/access/Ownable.sol\":1638:1723  function owner() public view virtual returns (address) {... */\n    tag_18:\n      tag_88\n      tag_89\n      jump\t// in\n    tag_88:\n      mload(0x40)\n      tag_90\n      swap2\n      swap1\n      tag_91\n      jump\t// in\n    tag_90:\n      mload(0x40)\n      dup1\n      swap2\n      sub\n      swap1\n      return\n        /* \"@openzeppelin/contracts/token/ERC20/ERC20.sol\":2276:2369  function symbol() public view virtual returns (string memory) {... */\n    tag_19:\n      tag_92\n      tag_93\n      jump\t// in\n    tag_92:\n      mload(0x40)\n      tag_94\n      swap2\n      swap1\n      tag_35\n      jump\t// in\n    tag_94:\n      mload(0x40)\n      dup1\n      swap2\n      sub\n      swap1\n      return\n        /* \"@openzeppelin/contracts/token/ERC20/ERC20.sol\":3610:3788  function transfer(address to, uint256 value) public virtual returns (bool) {... */\n    tag_20:\n      tag_95\n      0x04\n      dup1\n      calldatasize\n      sub\n      dup2\n      add\n      swap1\n      tag_96\n      swap2\n      swap1\n      tag_38\n      jump\t// in\n    tag_96:\n      tag_97\n      jump\t// in\n    tag_95:\n      mload(0x40)\n      tag_98\n      swap2\n      swap1\n      tag_41\n      jump\t// in\n    tag_98:\n      mload(0x40)\n      dup1\n      swap2\n      sub\n      swap1\n      return\n        /* \"contracts/DegenToken.sol\":2979:3374  function purchaseItem(uint8 _itemId) external {... */\n    tag_21:\n      tag_99\n      0x04\n      dup1\n      calldatasize\n      sub\n      dup2\n      add\n      swap1\n      tag_100\n      swap2\n      swap1\n      tag_101\n      jump\t// in\n    tag_100:\n      tag_102\n      jump\t// in\n    tag_99:\n      stop\n        /* \"contracts/DegenToken.sol\":3382:3497  function getUserItems(address user) external view returns(Item[] memory){... */\n    tag_22:\n      tag_103\n      0x04\n      dup1\n      calldatasize\n      sub\n      dup2\n      add\n      swap1\n      tag_104\n      swap2\n      swap1\n      tag_77\n      jump\t// in\n    tag_104:\n      tag_105\n      jump\t// in\n    tag_103:\n      mload(0x40)\n      tag_106\n      swap2\n      swap1\n      tag_107\n      jump\t// in\n    tag_106:\n      mload(0x40)\n      dup1\n      swap2\n      sub\n      swap1\n      return\n        /* \"@openzeppelin/contracts/token/ERC20/ERC20.sol\":3846:3986  function allowance(address owner, address spender) public view virtual returns (uint256) {... */\n    tag_23:\n      tag_108\n      0x04\n      dup1\n      calldatasize\n      sub\n      dup2\n      add\n      swap1\n      tag_109\n      swap2\n      swap1\n      tag_110\n      jump\t// in\n    tag_109:\n      tag_111\n      jump\t// in\n    tag_108:\n      mload(0x40)\n      tag_112\n      swap2\n      swap1\n      tag_48\n      jump\t// in\n    tag_112:\n      mload(0x40)\n      dup1\n      swap2\n      sub\n      swap1\n      return\n        /* \"contracts/DegenToken.sol\":2493:2967  function isLessThanFive(bool _prediction, uint256 _betAmount) public {... */\n    tag_24:\n      tag_113\n      0x04\n      dup1\n      calldatasize\n      sub\n      dup2\n      add\n      swap1\n      tag_114\n      swap2\n      swap1\n      tag_115\n      jump\t// in\n    tag_114:\n      tag_116\n      jump\t// in\n    tag_113:\n      stop\n        /* \"@openzeppelin/contracts/access/Ownable.sol\":2543:2758  function transferOwnership(address newOwner) public virtual onlyOwner {... */\n    tag_25:\n      tag_117\n      0x04\n      dup1\n      calldatasize\n      sub\n      dup2\n      add\n      swap1\n      tag_118\n      swap2\n      swap1\n      tag_77\n      jump\t// in\n    tag_118:\n      tag_119\n      jump\t// in\n    tag_117:\n      stop\n        /* \"contracts/DegenToken.sol\":2160:2322  function welcomeBonus() public {... */\n    tag_26:\n      tag_120\n      tag_121\n      jump\t// in\n    tag_120:\n      stop\n        /* \"contracts/DegenToken.sol\":942:976  mapping (uint8=>Item) public items */\n    tag_27:\n      tag_122\n      0x04\n      dup1\n      calldatasize\n      sub\n      dup2\n      add\n      swap1\n      tag_123\n      swap2\n      swap1\n      tag_101\n      jump\t// in\n    tag_123:\n      tag_124\n      jump\t// in\n    tag_122:\n      mload(0x40)\n      tag_125\n      swap4\n      swap3\n      swap2\n      swap1\n      tag_126\n      jump\t// in\n    tag_125:\n      mload(0x40)\n      dup1\n      swap2\n      sub\n      swap1\n      return\n        /* \"@openzeppelin/contracts/token/ERC20/ERC20.sol\":2074:2163  function name() public view virtual returns (string memory) {... */\n    tag_33:\n        /* \"@openzeppelin/contracts/token/ERC20/ERC20.sol\":2119:2132  string memory */\n      0x60\n        /* \"@openzeppelin/contracts/token/ERC20/ERC20.sol\":2151:2156  _name */\n      0x03\n        /* \"@openzeppelin/contracts/token/ERC20/ERC20.sol\":2144:2156  return _name */\n      dup1\n      sload\n      tag_128\n      swap1\n      tag_129\n      jump\t// in\n    tag_128:\n      dup1\n      0x1f\n      add\n      0x20\n      dup1\n      swap2\n      div\n      mul\n      0x20\n      add\n      mload(0x40)\n      swap1\n      dup2\n      add\n      0x40\n      mstore\n      dup1\n      swap3\n      swap2\n      swap1\n      dup2\n      dup2\n      mstore\n      0x20\n      add\n      dup3\n      dup1\n      sload\n      tag_130\n      swap1\n      tag_129\n      jump\t// in\n    tag_130:\n      dup1\n      iszero\n      tag_131\n      jumpi\n      dup1\n      0x1f\n      lt\n      tag_132\n      jumpi\n      0x0100\n      dup1\n      dup4\n      sload\n      div\n      mul\n      dup4\n      mstore\n      swap2\n      0x20\n      add\n      swap2\n      jump(tag_131)\n    tag_132:\n      dup3\n      add\n      swap2\n      swap1\n      0x00\n      mstore\n      keccak256(0x00, 0x20)\n      swap1\n    tag_133:\n      dup2\n      sload\n      dup2\n      mstore\n      swap1\n      0x01\n      add\n      swap1\n      0x20\n      add\n      dup1\n      dup4\n      gt\n      tag_133\n      jumpi\n      dup3\n      swap1\n      sub\n      0x1f\n      and\n      dup3\n      add\n      swap2\n    tag_131:\n      pop\n      pop\n      pop\n      pop\n      pop\n      swap1\n      pop\n        /* \"@openzeppelin/contracts/token/ERC20/ERC20.sol\":2074:2163  function name() public view virtual returns (string memory) {... */\n      swap1\n      jump\t// out\n        /* \"@openzeppelin/contracts/token/ERC20/ERC20.sol\":4293:4479  function approve(address spender, uint256 value) public virtual returns (bool) {... */\n    tag_39:\n        /* \"@openzeppelin/contracts/token/ERC20/ERC20.sol\":4366:4370  bool */\n      0x00\n        /* \"@openzeppelin/contracts/token/ERC20/ERC20.sol\":4382:4395  address owner */\n      dup1\n        /* \"@openzeppelin/contracts/token/ERC20/ERC20.sol\":4398:4410  _msgSender() */\n      tag_135\n        /* \"@openzeppelin/contracts/token/ERC20/ERC20.sol\":4398:4408  _msgSender */\n      tag_136\n        /* \"@openzeppelin/contracts/token/ERC20/ERC20.sol\":4398:4410  _msgSender() */\n      jump\t// in\n    tag_135:\n        /* \"@openzeppelin/contracts/token/ERC20/ERC20.sol\":4382:4410  address owner = _msgSender() */\n      swap1\n      pop\n        /* \"@openzeppelin/contracts/token/ERC20/ERC20.sol\":4420:4451  _approve(owner, spender, value) */\n      tag_137\n        /* \"@openzeppelin/contracts/token/ERC20/ERC20.sol\":4429:4434  owner */\n      dup2\n        /* \"@openzeppelin/contracts/token/ERC20/ERC20.sol\":4436:4443  spender */\n      dup6\n        /* \"@openzeppelin/contracts/token/ERC20/ERC20.sol\":4445:4450  value */\n      dup6\n        /* \"@openzeppelin/contracts/token/ERC20/ERC20.sol\":4420:4428  _approve */\n      tag_138\n        /* \"@openzeppelin/contracts/token/ERC20/ERC20.sol\":4420:4451  _approve(owner, spender, value) */\n      jump\t// in\n    tag_137:\n        /* \"@openzeppelin/contracts/token/ERC20/ERC20.sol\":4468:4472  true */\n      0x01\n        /* \"@openzeppelin/contracts/token/ERC20/ERC20.sol\":4461:4472  return true */\n      swap2\n      pop\n      pop\n        /* \"@openzeppelin/contracts/token/ERC20/ERC20.sol\":4293:4479  function approve(address spender, uint256 value) public virtual returns (bool) {... */\n      swap3\n      swap2\n      pop\n      pop\n      jump\t// out\n        /* \"contracts/DegenToken.sol\":1937:2125  function transferToken(address _recipient, uint _amount) external {... */\n    tag_44:\n        /* \"contracts/DegenToken.sol\":2045:2052  _amount */\n      dup1\n        /* \"contracts/DegenToken.sol\":2022:2043  balanceOf(msg.sender) */\n      tag_140\n        /* \"contracts/DegenToken.sol\":2032:2042  msg.sender */\n      caller\n        /* \"contracts/DegenToken.sol\":2022:2031  balanceOf */\n      tag_78\n        /* \"contracts/DegenToken.sol\":2022:2043  balanceOf(msg.sender) */\n      jump\t// in\n    tag_140:\n        /* \"contracts/DegenToken.sol\":2022:2052  balanceOf(msg.sender)>=_amount */\n      lt\n      iszero\n        /* \"contracts/DegenToken.sol\":2014:2077  require(balanceOf(msg.sender)>=_amount, \"Insufficient balance\") */\n      tag_141\n      jumpi\n      mload(0x40)\n      0x08c379a000000000000000000000000000000000000000000000000000000000\n      dup2\n      mstore\n      0x04\n      add\n      tag_142\n      swap1\n      tag_143\n      jump\t// in\n    tag_142:\n      mload(0x40)\n      dup1\n      swap2\n      sub\n      swap1\n      revert\n    tag_141:\n        /* \"contracts/DegenToken.sol\":2088:2117  transfer(_recipient, _amount) */\n      tag_144\n        /* \"contracts/DegenToken.sol\":2097:2107  _recipient */\n      dup3\n        /* \"contracts/DegenToken.sol\":2109:2116  _amount */\n      dup3\n        /* \"contracts/DegenToken.sol\":2088:2096  transfer */\n      tag_97\n        /* \"contracts/DegenToken.sol\":2088:2117  transfer(_recipient, _amount) */\n      jump\t// in\n    tag_144:\n      pop\n        /* \"contracts/DegenToken.sol\":1937:2125  function transferToken(address _recipient, uint _amount) external {... */\n      pop\n      pop\n      jump\t// out\n        /* \"contracts/DegenToken.sol\":3538:3637  function getBalance() external view returns(uint256){... */\n    tag_46:\n        /* \"contracts/DegenToken.sol\":3582:3589  uint256 */\n      0x00\n        /* \"contracts/DegenToken.sol\":3608:3629  balanceOf(msg.sender) */\n      tag_146\n        /* \"contracts/DegenToken.sol\":3618:3628  msg.sender */\n      caller\n        /* \"contracts/DegenToken.sol\":3608:3617  balanceOf */\n      tag_78\n        /* \"contracts/DegenToken.sol\":3608:3629  balanceOf(msg.sender) */\n      jump\t// in\n    tag_146:\n        /* \"contracts/DegenToken.sol\":3601:3629  return balanceOf(msg.sender) */\n      swap1\n      pop\n        /* \"contracts/DegenToken.sol\":3538:3637  function getBalance() external view returns(uint256){... */\n      swap1\n      jump\t// out\n        /* \"contracts/DegenToken.sol\":1027:1047  uint8 public tokenId */\n    tag_50:\n      0x08\n      0x00\n      swap1\n      sload\n      swap1\n      0x0100\n      exp\n      swap1\n      div\n      0xff\n      and\n      dup2\n      jump\t// out\n        /* \"@openzeppelin/contracts/token/ERC20/ERC20.sol\":3144:3241  function totalSupply() public view virtual returns (uint256) {... */\n    tag_54:\n        /* \"@openzeppelin/contracts/token/ERC20/ERC20.sol\":3196:3203  uint256 */\n      0x00\n        /* \"@openzeppelin/contracts/token/ERC20/ERC20.sol\":3222:3234  _totalSupply */\n      sload(0x02)\n        /* \"@openzeppelin/contracts/token/ERC20/ERC20.sol\":3215:3234  return _totalSupply */\n      swap1\n      pop\n        /* \"@openzeppelin/contracts/token/ERC20/ERC20.sol\":3144:3241  function totalSupply() public view virtual returns (uint256) {... */\n      swap1\n      jump\t// out\n        /* \"@openzeppelin/contracts/token/ERC20/ERC20.sol\":5039:5283  function transferFrom(address from, address to, uint256 value) public virtual returns (bool) {... */\n    tag_59:\n        /* \"@openzeppelin/contracts/token/ERC20/ERC20.sol\":5126:5130  bool */\n      0x00\n        /* \"@openzeppelin/contracts/token/ERC20/ERC20.sol\":5142:5157  address spender */\n      dup1\n        /* \"@openzeppelin/contracts/token/ERC20/ERC20.sol\":5160:5172  _msgSender() */\n      tag_149\n        /* \"@openzeppelin/contracts/token/ERC20/ERC20.sol\":5160:5170  _msgSender */\n      tag_136\n        /* \"@openzeppelin/contracts/token/ERC20/ERC20.sol\":5160:5172  _msgSender() */\n      jump\t// in\n    tag_149:\n        /* \"@openzeppelin/contracts/token/ERC20/ERC20.sol\":5142:5172  address spender = _msgSender() */\n      swap1\n      pop\n        /* \"@openzeppelin/contracts/token/ERC20/ERC20.sol\":5182:5219  _spendAllowance(from, spender, value) */\n      tag_150\n        /* \"@openzeppelin/contracts/token/ERC20/ERC20.sol\":5198:5202  from */\n      dup6\n        /* \"@openzeppelin/contracts/token/ERC20/ERC20.sol\":5204:5211  spender */\n      dup3\n        /* \"@openzeppelin/contracts/token/ERC20/ERC20.sol\":5213:5218  value */\n      dup6\n        /* \"@openzeppelin/contracts/token/ERC20/ERC20.sol\":5182:5197  _spendAllowance */\n      tag_151\n        /* \"@openzeppelin/contracts/token/ERC20/ERC20.sol\":5182:5219  _spendAllowance(from, spender, value) */\n      jump\t// in\n    tag_150:\n        /* \"@openzeppelin/contracts/token/ERC20/ERC20.sol\":5229:5255  _transfer(from, to, value) */\n      tag_152\n        /* \"@openzeppelin/contracts/token/ERC20/ERC20.sol\":5239:5243  from */\n      dup6\n        /* \"@openzeppelin/contracts/token/ERC20/ERC20.sol\":5245:5247  to */\n      dup6\n        /* \"@openzeppelin/contracts/token/ERC20/ERC20.sol\":5249:5254  value */\n      dup6\n        /* \"@openzeppelin/contracts/token/ERC20/ERC20.sol\":5229:5238  _transfer */\n      tag_153\n        /* \"@openzeppelin/contracts/token/ERC20/ERC20.sol\":5229:5255  _transfer(from, to, value) */\n      jump\t// in\n    tag_152:\n        /* \"@openzeppelin/contracts/token/ERC20/ERC20.sol\":5272:5276  true */\n      0x01\n        /* \"@openzeppelin/contracts/token/ERC20/ERC20.sol\":5265:5276  return true */\n      swap2\n      pop\n      pop\n        /* \"@openzeppelin/contracts/token/ERC20/ERC20.sol\":5039:5283  function transferFrom(address from, address to, uint256 value) public virtual returns (bool) {... */\n      swap4\n      swap3\n      pop\n      pop\n      pop\n      jump\t// out\n        /* \"contracts/DegenToken.sol\":1688:1771  function decimals() override public pure returns (uint8){... */\n    tag_62:\n        /* \"contracts/DegenToken.sol\":1738:1743  uint8 */\n      0x00\n        /* \"contracts/DegenToken.sol\":1688:1771  function decimals() override public pure returns (uint8){... */\n      swap1\n      jump\t// out\n        /* \"contracts/DegenToken.sol\":1804:1899  function mint(address to, uint256 amount) public onlyOwner {... */\n    tag_66:\n        /* \"@openzeppelin/contracts/access/Ownable.sol\":1531:1544  _checkOwner() */\n      tag_156\n        /* \"@openzeppelin/contracts/access/Ownable.sol\":1531:1542  _checkOwner */\n      tag_157\n        /* \"@openzeppelin/contracts/access/Ownable.sol\":1531:1544  _checkOwner() */\n      jump\t// in\n    tag_156:\n        /* \"contracts/DegenToken.sol\":1874:1891  _mint(to, amount) */\n      tag_159\n        /* \"contracts/DegenToken.sol\":1880:1882  to */\n      dup3\n        /* \"contracts/DegenToken.sol\":1884:1890  amount */\n      dup3\n        /* \"contracts/DegenToken.sol\":1874:1879  _mint */\n      tag_160\n        /* \"contracts/DegenToken.sol\":1874:1891  _mint(to, amount) */\n      jump\t// in\n    tag_159:\n        /* \"contracts/DegenToken.sol\":1804:1899  function mint(address to, uint256 amount) public onlyOwner {... */\n      pop\n      pop\n      jump\t// out\n        /* \"@openzeppelin/contracts/token/ERC20/extensions/ERC20Burnable.sol\":618:705  function burn(uint256 value) public virtual {... */\n    tag_70:\n        /* \"@openzeppelin/contracts/token/ERC20/extensions/ERC20Burnable.sol\":672:698  _burn(_msgSender(), value) */\n      tag_162\n        /* \"@openzeppelin/contracts/token/ERC20/extensions/ERC20Burnable.sol\":678:690  _msgSender() */\n      tag_163\n        /* \"@openzeppelin/contracts/token/ERC20/extensions/ERC20Burnable.sol\":678:688  _msgSender */\n      tag_136\n        /* \"@openzeppelin/contracts/token/ERC20/extensions/ERC20Burnable.sol\":678:690  _msgSender() */\n      jump\t// in\n    tag_163:\n        /* \"@openzeppelin/contracts/token/ERC20/extensions/ERC20Burnable.sol\":692:697  value */\n      dup3\n        /* \"@openzeppelin/contracts/token/ERC20/extensions/ERC20Burnable.sol\":672:677  _burn */\n      tag_164\n        /* \"@openzeppelin/contracts/token/ERC20/extensions/ERC20Burnable.sol\":672:698  _burn(_msgSender(), value) */\n      jump\t// in\n    tag_162:\n        /* \"@openzeppelin/contracts/token/ERC20/extensions/ERC20Burnable.sol\":618:705  function burn(uint256 value) public virtual {... */\n      pop\n      jump\t// out\n        /* \"contracts/DegenToken.sol\":2330:2484  function addItem(string memory _name, uint256 _price) public onlyOwner {... */\n    tag_74:\n        /* \"@openzeppelin/contracts/access/Ownable.sol\":1531:1544  _checkOwner() */\n      tag_166\n        /* \"@openzeppelin/contracts/access/Ownable.sol\":1531:1542  _checkOwner */\n      tag_157\n        /* \"@openzeppelin/contracts/access/Ownable.sol\":1531:1544  _checkOwner() */\n      jump\t// in\n    tag_166:\n        /* \"contracts/DegenToken.sol\":2429:2456  Item(_name, tokenId,_price) */\n      mload(0x40)\n      dup1\n      0x60\n      add\n      0x40\n      mstore\n      dup1\n        /* \"contracts/DegenToken.sol\":2434:2439  _name */\n      dup4\n        /* \"contracts/DegenToken.sol\":2429:2456  Item(_name, tokenId,_price) */\n      dup2\n      mstore\n      0x20\n      add\n        /* \"contracts/DegenToken.sol\":2441:2448  tokenId */\n      0x08\n      0x00\n      swap1\n      sload\n      swap1\n      0x0100\n      exp\n      swap1\n      div\n      0xff\n      and\n        /* \"contracts/DegenToken.sol\":2429:2456  Item(_name, tokenId,_price) */\n      0xff\n      and\n      dup2\n      mstore\n      0x20\n      add\n        /* \"contracts/DegenToken.sol\":2449:2455  _price */\n      dup3\n        /* \"contracts/DegenToken.sol\":2429:2456  Item(_name, tokenId,_price) */\n      dup2\n      mstore\n      pop\n        /* \"contracts/DegenToken.sol\":2412:2417  items */\n      0x06\n        /* \"contracts/DegenToken.sol\":2412:2426  items[tokenId] */\n      0x00\n        /* \"contracts/DegenToken.sol\":2418:2425  tokenId */\n      0x08\n      0x00\n      swap1\n      sload\n      swap1\n      0x0100\n      exp\n      swap1\n      div\n      0xff\n      and\n        /* \"contracts/DegenToken.sol\":2412:2426  items[tokenId] */\n      0xff\n      and\n      0xff\n      and\n      dup2\n      mstore\n      0x20\n      add\n      swap1\n      dup2\n      mstore\n      0x20\n      add\n      0x00\n      keccak256\n        /* \"contracts/DegenToken.sol\":2412:2456  items[tokenId] = Item(_name, tokenId,_price) */\n      0x00\n      dup3\n      add\n      mload\n      dup2\n      0x00\n      add\n      swap1\n      dup2\n      tag_168\n      swap2\n      swap1\n      tag_169\n      jump\t// in\n    tag_168:\n      pop\n      0x20\n      dup3\n      add\n      mload\n      dup2\n      0x01\n      add\n      exp(0x0100, 0x00)\n      dup2\n      sload\n      dup2\n      0xff\n      mul\n      not\n      and\n      swap1\n      dup4\n      0xff\n      and\n      mul\n      or\n      swap1\n      sstore\n      pop\n      0x40\n      dup3\n      add\n      mload\n      dup2\n      0x02\n      add\n      sstore\n      swap1\n      pop\n      pop\n        /* \"contracts/DegenToken.sol\":2467:2474  tokenId */\n      0x08\n      0x00\n        /* \"contracts/DegenToken.sol\":2467:2476  tokenId++ */\n      dup2\n      dup2\n      swap1\n      sload\n      swap1\n      0x0100\n      exp\n      swap1\n      div\n      0xff\n      and\n      dup1\n      swap3\n      swap2\n      swap1\n      tag_170\n      swap1\n      tag_171\n      jump\t// in\n    tag_170:\n      swap2\n      swap1\n      0x0100\n      exp\n      dup2\n      sload\n      dup2\n      0xff\n      mul\n      not\n      and\n      swap1\n      dup4\n      0xff\n      and\n      mul\n      or\n      swap1\n      sstore\n      pop\n      pop\n        /* \"contracts/DegenToken.sol\":2330:2484  function addItem(string memory _name, uint256 _price) public onlyOwner {... */\n      pop\n      pop\n      jump\t// out\n        /* \"@openzeppelin/contracts/token/ERC20/ERC20.sol\":3299:3415  function balanceOf(address account) public view virtual returns (uint256) {... */\n    tag_78:\n        /* \"@openzeppelin/contracts/token/ERC20/ERC20.sol\":3364:3371  uint256 */\n      0x00\n        /* \"@openzeppelin/contracts/token/ERC20/ERC20.sol\":3390:3399  _balances */\n      dup1\n        /* \"@openzeppelin/contracts/token/ERC20/ERC20.sol\":3390:3408  _balances[account] */\n      0x00\n        /* \"@openzeppelin/contracts/token/ERC20/ERC20.sol\":3400:3407  account */\n      dup4\n        /* \"@openzeppelin/contracts/token/ERC20/ERC20.sol\":3390:3408  _balances[account] */\n      0xffffffffffffffffffffffffffffffffffffffff\n      and\n      0xffffffffffffffffffffffffffffffffffffffff\n      and\n      dup2\n      mstore\n      0x20\n      add\n      swap1\n      dup2\n      mstore\n      0x20\n      add\n      0x00\n      keccak256\n      sload\n        /* \"@openzeppelin/contracts/token/ERC20/ERC20.sol\":3383:3408  return _balances[account] */\n      swap1\n      pop\n        /* \"@openzeppelin/contracts/token/ERC20/ERC20.sol\":3299:3415  function balanceOf(address account) public view virtual returns (uint256) {... */\n      swap2\n      swap1\n      pop\n      jump\t// out\n        /* \"@openzeppelin/contracts/access/Ownable.sol\":2293:2394  function renounceOwnership() public virtual onlyOwner {... */\n    tag_81:\n        /* \"@openzeppelin/contracts/access/Ownable.sol\":1531:1544  _checkOwner() */\n      tag_174\n        /* \"@openzeppelin/contracts/access/Ownable.sol\":1531:1542  _checkOwner */\n      tag_157\n        /* \"@openzeppelin/contracts/access/Ownable.sol\":1531:1544  _checkOwner() */\n      jump\t// in\n    tag_174:\n        /* \"@openzeppelin/contracts/access/Ownable.sol\":2357:2387  _transferOwnership(address(0)) */\n      tag_176\n        /* \"@openzeppelin/contracts/access/Ownable.sol\":2384:2385  0 */\n      0x00\n        /* \"@openzeppelin/contracts/access/Ownable.sol\":2357:2375  _transferOwnership */\n      tag_177\n        /* \"@openzeppelin/contracts/access/Ownable.sol\":2357:2387  _transferOwnership(address(0)) */\n      jump\t// in\n    tag_176:\n        /* \"@openzeppelin/contracts/access/Ownable.sol\":2293:2394  function renounceOwnership() public virtual onlyOwner {... */\n      jump\t// out\n        /* \"@openzeppelin/contracts/token/ERC20/extensions/ERC20Burnable.sol\":1021:1179  function burnFrom(address account, uint256 value) public virtual {... */\n    tag_84:\n        /* \"@openzeppelin/contracts/token/ERC20/extensions/ERC20Burnable.sol\":1096:1141  _spendAllowance(account, _msgSender(), value) */\n      tag_179\n        /* \"@openzeppelin/contracts/token/ERC20/extensions/ERC20Burnable.sol\":1112:1119  account */\n      dup3\n        /* \"@openzeppelin/contracts/token/ERC20/extensions/ERC20Burnable.sol\":1121:1133  _msgSender() */\n      tag_180\n        /* \"@openzeppelin/contracts/token/ERC20/extensions/ERC20Burnable.sol\":1121:1131  _msgSender */\n      tag_136\n        /* \"@openzeppelin/contracts/token/ERC20/extensions/ERC20Burnable.sol\":1121:1133  _msgSender() */\n      jump\t// in\n    tag_180:\n        /* \"@openzeppelin/contracts/token/ERC20/extensions/ERC20Burnable.sol\":1135:1140  value */\n      dup4\n        /* \"@openzeppelin/contracts/token/ERC20/extensions/ERC20Burnable.sol\":1096:1111  _spendAllowance */\n      tag_151\n        /* \"@openzeppelin/contracts/token/ERC20/extensions/ERC20Burnable.sol\":1096:1141  _spendAllowance(account, _msgSender(), value) */\n      jump\t// in\n    tag_179:\n        /* \"@openzeppelin/contracts/token/ERC20/extensions/ERC20Burnable.sol\":1151:1172  _burn(account, value) */\n      tag_181\n        /* \"@openzeppelin/contracts/token/ERC20/extensions/ERC20Burnable.sol\":1157:1164  account */\n      dup3\n        /* \"@openzeppelin/contracts/token/ERC20/extensions/ERC20Burnable.sol\":1166:1171  value */\n      dup3\n        /* \"@openzeppelin/contracts/token/ERC20/extensions/ERC20Burnable.sol\":1151:1156  _burn */\n      tag_164\n        /* \"@openzeppelin/contracts/token/ERC20/extensions/ERC20Burnable.sol\":1151:1172  _burn(account, value) */\n      jump\t// in\n    tag_181:\n        /* \"@openzeppelin/contracts/token/ERC20/extensions/ERC20Burnable.sol\":1021:1179  function burnFrom(address account, uint256 value) public virtual {... */\n      pop\n      pop\n      jump\t// out\n        /* \"contracts/DegenToken.sol\":3670:3817  function burnToken(uint _amount) external {... */\n    tag_87:\n        /* \"contracts/DegenToken.sol\":3754:3761  _amount */\n      dup1\n        /* \"contracts/DegenToken.sol\":3731:3752  balanceOf(msg.sender) */\n      tag_183\n        /* \"contracts/DegenToken.sol\":3741:3751  msg.sender */\n      caller\n        /* \"contracts/DegenToken.sol\":3731:3740  balanceOf */\n      tag_78\n        /* \"contracts/DegenToken.sol\":3731:3752  balanceOf(msg.sender) */\n      jump\t// in\n    tag_183:\n        /* \"contracts/DegenToken.sol\":3731:3761  balanceOf(msg.sender)>=_amount */\n      lt\n      iszero\n        /* \"contracts/DegenToken.sol\":3723:3785  require(balanceOf(msg.sender)>=_amount, \"Insufficient amount\") */\n      tag_184\n      jumpi\n      mload(0x40)\n      0x08c379a000000000000000000000000000000000000000000000000000000000\n      dup2\n      mstore\n      0x04\n      add\n      tag_185\n      swap1\n      tag_186\n      jump\t// in\n    tag_185:\n      mload(0x40)\n      dup1\n      swap2\n      sub\n      swap1\n      revert\n    tag_184:\n        /* \"contracts/DegenToken.sol\":3796:3809  burn(_amount) */\n      tag_187\n        /* \"contracts/DegenToken.sol\":3801:3808  _amount */\n      dup2\n        /* \"contracts/DegenToken.sol\":3796:3800  burn */\n      tag_70\n        /* \"contracts/DegenToken.sol\":3796:3809  burn(_amount) */\n      jump\t// in\n    tag_187:\n        /* \"contracts/DegenToken.sol\":3670:3817  function burnToken(uint _amount) external {... */\n      pop\n      jump\t// out\n        /* \"@openzeppelin/contracts/access/Ownable.sol\":1638:1723  function owner() public view virtual returns (address) {... */\n    tag_89:\n        /* \"@openzeppelin/contracts/access/Ownable.sol\":1684:1691  address */\n      0x00\n        /* \"@openzeppelin/contracts/access/Ownable.sol\":1710:1716  _owner */\n      0x05\n      0x00\n      swap1\n      sload\n      swap1\n      0x0100\n      exp\n      swap1\n      div\n      0xffffffffffffffffffffffffffffffffffffffff\n      and\n        /* \"@openzeppelin/contracts/access/Ownable.sol\":1703:1716  return _owner */\n      swap1\n      pop\n        /* \"@openzeppelin/contracts/access/Ownable.sol\":1638:1723  function owner() public view virtual returns (address) {... */\n      swap1\n      jump\t// out\n        /* \"@openzeppelin/contracts/token/ERC20/ERC20.sol\":2276:2369  function symbol() public view virtual returns (string memory) {... */\n    tag_93:\n        /* \"@openzeppelin/contracts/token/ERC20/ERC20.sol\":2323:2336  string memory */\n      0x60\n        /* \"@openzeppelin/contracts/token/ERC20/ERC20.sol\":2355:2362  _symbol */\n      0x04\n        /* \"@openzeppelin/contracts/token/ERC20/ERC20.sol\":2348:2362  return _symbol */\n      dup1\n      sload\n      tag_190\n      swap1\n      tag_129\n      jump\t// in\n    tag_190:\n      dup1\n      0x1f\n      add\n      0x20\n      dup1\n      swap2\n      div\n      mul\n      0x20\n      add\n      mload(0x40)\n      swap1\n      dup2\n      add\n      0x40\n      mstore\n      dup1\n      swap3\n      swap2\n      swap1\n      dup2\n      dup2\n      mstore\n      0x20\n      add\n      dup3\n      dup1\n      sload\n      tag_191\n      swap1\n      tag_129\n      jump\t// in\n    tag_191:\n      dup1\n      iszero\n      tag_192\n      jumpi\n      dup1\n      0x1f\n      lt\n      tag_193\n      jumpi\n      0x0100\n      dup1\n      dup4\n      sload\n      div\n      mul\n      dup4\n      mstore\n      swap2\n      0x20\n      add\n      swap2\n      jump(tag_192)\n    tag_193:\n      dup3\n      add\n      swap2\n      swap1\n      0x00\n      mstore\n      keccak256(0x00, 0x20)\n      swap1\n    tag_194:\n      dup2\n      sload\n      dup2\n      mstore\n      swap1\n      0x01\n      add\n      swap1\n      0x20\n      add\n      dup1\n      dup4\n      gt\n      tag_194\n      jumpi\n      dup3\n      swap1\n      sub\n      0x1f\n      and\n      dup3\n      add\n      swap2\n    tag_192:\n      pop\n      pop\n      pop\n      pop\n      pop\n      swap1\n      pop\n        /* \"@openzeppelin/contracts/token/ERC20/ERC20.sol\":2276:2369  function symbol() public view virtual returns (string memory) {... */\n      swap1\n      jump\t// out\n        /* \"@openzeppelin/contracts/token/ERC20/ERC20.sol\":3610:3788  function transfer(address to, uint256 value) public virtual returns (bool) {... */\n    tag_97:\n        /* \"@openzeppelin/contracts/token/ERC20/ERC20.sol\":3679:3683  bool */\n      0x00\n        /* \"@openzeppelin/contracts/token/ERC20/ERC20.sol\":3695:3708  address owner */\n      dup1\n        /* \"@openzeppelin/contracts/token/ERC20/ERC20.sol\":3711:3723  _msgSender() */\n      tag_196\n        /* \"@openzeppelin/contracts/token/ERC20/ERC20.sol\":3711:3721  _msgSender */\n      tag_136\n        /* \"@openzeppelin/contracts/token/ERC20/ERC20.sol\":3711:3723  _msgSender() */\n      jump\t// in\n    tag_196:\n        /* \"@openzeppelin/contracts/token/ERC20/ERC20.sol\":3695:3723  address owner = _msgSender() */\n      swap1\n      pop\n        /* \"@openzeppelin/contracts/token/ERC20/ERC20.sol\":3733:3760  _transfer(owner, to, value) */\n      tag_197\n        /* \"@openzeppelin/contracts/token/ERC20/ERC20.sol\":3743:3748  owner */\n      dup2\n        /* \"@openzeppelin/contracts/token/ERC20/ERC20.sol\":3750:3752  to */\n      dup6\n        /* \"@openzeppelin/contracts/token/ERC20/ERC20.sol\":3754:3759  value */\n      dup6\n        /* \"@openzeppelin/contracts/token/ERC20/ERC20.sol\":3733:3742  _transfer */\n      tag_153\n        /* \"@openzeppelin/contracts/token/ERC20/ERC20.sol\":3733:3760  _transfer(owner, to, value) */\n      jump\t// in\n    tag_197:\n        /* \"@openzeppelin/contracts/token/ERC20/ERC20.sol\":3777:3781  true */\n      0x01\n        /* \"@openzeppelin/contracts/token/ERC20/ERC20.sol\":3770:3781  return true */\n      swap2\n      pop\n      pop\n        /* \"@openzeppelin/contracts/token/ERC20/ERC20.sol\":3610:3788  function transfer(address to, uint256 value) public virtual returns (bool) {... */\n      swap3\n      swap2\n      pop\n      pop\n      jump\t// out\n        /* \"contracts/DegenToken.sol\":2979:3374  function purchaseItem(uint8 _itemId) external {... */\n    tag_102:\n        /* \"contracts/DegenToken.sol\":3068:3069  0 */\n      0x00\n        /* \"contracts/DegenToken.sol\":3044:3049  items */\n      0x06\n        /* \"contracts/DegenToken.sol\":3044:3058  items[_itemId] */\n      0x00\n        /* \"contracts/DegenToken.sol\":3050:3057  _itemId */\n      dup4\n        /* \"contracts/DegenToken.sol\":3044:3058  items[_itemId] */\n      0xff\n      and\n      0xff\n      and\n      dup2\n      mstore\n      0x20\n      add\n      swap1\n      dup2\n      mstore\n      0x20\n      add\n      0x00\n      keccak256\n        /* \"contracts/DegenToken.sol\":3044:3064  items[_itemId].price */\n      0x02\n      add\n      sload\n        /* \"contracts/DegenToken.sol\":3044:3069  items[_itemId].price != 0 */\n      sub\n        /* \"contracts/DegenToken.sol\":3036:3088  require(items[_itemId].price != 0, \"Item not found\") */\n      tag_199\n      jumpi\n      mload(0x40)\n      0x08c379a000000000000000000000000000000000000000000000000000000000\n      dup2\n      mstore\n      0x04\n      add\n      tag_200\n      swap1\n      tag_201\n      jump\t// in\n    tag_200:\n      mload(0x40)\n      dup1\n      swap2\n      sub\n      swap1\n      revert\n    tag_199:\n        /* \"contracts/DegenToken.sol\":3132:3137  items */\n      0x06\n        /* \"contracts/DegenToken.sol\":3132:3146  items[_itemId] */\n      0x00\n        /* \"contracts/DegenToken.sol\":3138:3145  _itemId */\n      dup3\n        /* \"contracts/DegenToken.sol\":3132:3146  items[_itemId] */\n      0xff\n      and\n      0xff\n      and\n      dup2\n      mstore\n      0x20\n      add\n      swap1\n      dup2\n      mstore\n      0x20\n      add\n      0x00\n      keccak256\n        /* \"contracts/DegenToken.sol\":3132:3152  items[_itemId].price */\n      0x02\n      add\n      sload\n        /* \"contracts/DegenToken.sol\":3107:3128  balanceOf(msg.sender) */\n      tag_202\n        /* \"contracts/DegenToken.sol\":3117:3127  msg.sender */\n      caller\n        /* \"contracts/DegenToken.sol\":3107:3116  balanceOf */\n      tag_78\n        /* \"contracts/DegenToken.sol\":3107:3128  balanceOf(msg.sender) */\n      jump\t// in\n    tag_202:\n        /* \"contracts/DegenToken.sol\":3107:3152  balanceOf(msg.sender) >= items[_itemId].price */\n      lt\n      iszero\n        /* \"contracts/DegenToken.sol\":3099:3177  require(balanceOf(msg.sender) >= items[_itemId].price, \"Insufficient balance\") */\n      tag_203\n      jumpi\n      mload(0x40)\n      0x08c379a000000000000000000000000000000000000000000000000000000000\n      dup2\n      mstore\n      0x04\n      add\n      tag_204\n      swap1\n      tag_143\n      jump\t// in\n    tag_204:\n      mload(0x40)\n      dup1\n      swap2\n      sub\n      swap1\n      revert\n    tag_203:\n        /* \"contracts/DegenToken.sol\":3190:3216  burn(items[_itemId].price) */\n      tag_205\n        /* \"contracts/DegenToken.sol\":3195:3200  items */\n      0x06\n        /* \"contracts/DegenToken.sol\":3195:3209  items[_itemId] */\n      0x00\n        /* \"contracts/DegenToken.sol\":3201:3208  _itemId */\n      dup4\n        /* \"contracts/DegenToken.sol\":3195:3209  items[_itemId] */\n      0xff\n      and\n      0xff\n      and\n      dup2\n      mstore\n      0x20\n      add\n      swap1\n      dup2\n      mstore\n      0x20\n      add\n      0x00\n      keccak256\n        /* \"contracts/DegenToken.sol\":3195:3215  items[_itemId].price */\n      0x02\n      add\n      sload\n        /* \"contracts/DegenToken.sol\":3190:3194  burn */\n      tag_70\n        /* \"contracts/DegenToken.sol\":3190:3216  burn(items[_itemId].price) */\n      jump\t// in\n    tag_205:\n        /* \"contracts/DegenToken.sol\":3227:3238  playerItems */\n      0x07\n        /* \"contracts/DegenToken.sol\":3227:3250  playerItems[msg.sender] */\n      0x00\n        /* \"contracts/DegenToken.sol\":3239:3249  msg.sender */\n      caller\n        /* \"contracts/DegenToken.sol\":3227:3250  playerItems[msg.sender] */\n      0xffffffffffffffffffffffffffffffffffffffff\n      and\n      0xffffffffffffffffffffffffffffffffffffffff\n      and\n      dup2\n      mstore\n      0x20\n      add\n      swap1\n      dup2\n      mstore\n      0x20\n      add\n      0x00\n      keccak256\n        /* \"contracts/DegenToken.sol\":3256:3261  items */\n      0x06\n        /* \"contracts/DegenToken.sol\":3256:3270  items[_itemId] */\n      0x00\n        /* \"contracts/DegenToken.sol\":3262:3269  _itemId */\n      dup4\n        /* \"contracts/DegenToken.sol\":3256:3270  items[_itemId] */\n      0xff\n      and\n      0xff\n      and\n      dup2\n      mstore\n      0x20\n      add\n      swap1\n      dup2\n      mstore\n      0x20\n      add\n      0x00\n      keccak256\n        /* \"contracts/DegenToken.sol\":3227:3271  playerItems[msg.sender].push(items[_itemId]) */\n      swap1\n      dup1\n      0x01\n      dup2\n      sload\n      add\n      dup1\n      dup3\n      sstore\n      dup1\n      swap2\n      pop\n      pop\n      0x01\n      swap1\n      sub\n      swap1\n      0x00\n      mstore\n      keccak256(0x00, 0x20)\n      swap1\n      0x03\n      mul\n      add\n      0x00\n      swap1\n      swap2\n      swap1\n      swap2\n      swap1\n      swap2\n      pop\n      0x00\n      dup3\n      add\n      dup2\n      0x00\n      add\n      swap1\n      dup2\n      tag_207\n      swap2\n      swap1\n      tag_208\n      jump\t// in\n    tag_207:\n      pop\n      0x01\n      dup3\n      add\n      0x00\n      swap1\n      sload\n      swap1\n      0x0100\n      exp\n      swap1\n      div\n      0xff\n      and\n      dup2\n      0x01\n      add\n      exp(0x0100, 0x00)\n      dup2\n      sload\n      dup2\n      0xff\n      mul\n      not\n      and\n      swap1\n      dup4\n      0xff\n      and\n      mul\n      or\n      swap1\n      sstore\n      pop\n      0x02\n      dup3\n      add\n      sload\n      dup2\n      0x02\n      add\n      sstore\n      pop\n      pop\n        /* \"contracts/DegenToken.sol\":3303:3313  msg.sender */\n      caller\n        /* \"contracts/DegenToken.sol\":3289:3366  ItemPurchased(msg.sender, _itemId, items[_itemId].name, items[_itemId].price) */\n      0xffffffffffffffffffffffffffffffffffffffff\n      and\n      0x8bedd141782c49139782bd92bd7a760a0bcb544ffecfd2b25f00366fae06598e\n        /* \"contracts/DegenToken.sol\":3315:3322  _itemId */\n      dup3\n        /* \"contracts/DegenToken.sol\":3324:3329  items */\n      0x06\n        /* \"contracts/DegenToken.sol\":3324:3338  items[_itemId] */\n      0x00\n        /* \"contracts/DegenToken.sol\":3330:3337  _itemId */\n      dup6\n        /* \"contracts/DegenToken.sol\":3324:3338  items[_itemId] */\n      0xff\n      and\n      0xff\n      and\n      dup2\n      mstore\n      0x20\n      add\n      swap1\n      dup2\n      mstore\n      0x20\n      add\n      0x00\n      keccak256\n        /* \"contracts/DegenToken.sol\":3324:3343  items[_itemId].name */\n      0x00\n      add\n        /* \"contracts/DegenToken.sol\":3345:3350  items */\n      0x06\n        /* \"contracts/DegenToken.sol\":3345:3359  items[_itemId] */\n      0x00\n        /* \"contracts/DegenToken.sol\":3351:3358  _itemId */\n      dup7\n        /* \"contracts/DegenToken.sol\":3345:3359  items[_itemId] */\n      0xff\n      and\n      0xff\n      and\n      dup2\n      mstore\n      0x20\n      add\n      swap1\n      dup2\n      mstore\n      0x20\n      add\n      0x00\n      keccak256\n        /* \"contracts/DegenToken.sol\":3345:3365  items[_itemId].price */\n      0x02\n      add\n      sload\n        /* \"contracts/DegenToken.sol\":3289:3366  ItemPurchased(msg.sender, _itemId, items[_itemId].name, items[_itemId].price) */\n      mload(0x40)\n      tag_209\n      swap4\n      swap3\n      swap2\n      swap1\n      tag_210\n      jump\t// in\n    tag_209:\n      mload(0x40)\n      dup1\n      swap2\n      sub\n      swap1\n      log2\n        /* \"contracts/DegenToken.sol\":2979:3374  function purchaseItem(uint8 _itemId) external {... */\n      pop\n      jump\t// out\n        /* \"contracts/DegenToken.sol\":3382:3497  function getUserItems(address user) external view returns(Item[] memory){... */\n    tag_105:\n        /* \"contracts/DegenToken.sol\":3440:3453  Item[] memory */\n      0x60\n        /* \"contracts/DegenToken.sol\":3472:3483  playerItems */\n      0x07\n        /* \"contracts/DegenToken.sol\":3472:3489  playerItems[user] */\n      0x00\n        /* \"contracts/DegenToken.sol\":3484:3488  user */\n      dup4\n        /* \"contracts/DegenToken.sol\":3472:3489  playerItems[user] */\n      0xffffffffffffffffffffffffffffffffffffffff\n      and\n      0xffffffffffffffffffffffffffffffffffffffff\n      and\n      dup2\n      mstore\n      0x20\n      add\n      swap1\n      dup2\n      mstore\n      0x20\n      add\n      0x00\n      keccak256\n        /* \"contracts/DegenToken.sol\":3465:3489  return playerItems[user] */\n      dup1\n      sload\n      dup1\n      0x20\n      mul\n      0x20\n      add\n      mload(0x40)\n      swap1\n      dup2\n      add\n      0x40\n      mstore\n      dup1\n      swap3\n      swap2\n      swap1\n      dup2\n      dup2\n      mstore\n      0x20\n      add\n      0x00\n      swap1\n    tag_212:\n      dup3\n      dup3\n      lt\n      iszero\n      tag_213\n      jumpi\n      dup4\n      dup3\n      swap1\n      0x00\n      mstore\n      keccak256(0x00, 0x20)\n      swap1\n      0x03\n      mul\n      add\n      mload(0x40)\n      dup1\n      0x60\n      add\n      0x40\n      mstore\n      swap1\n      dup2\n      0x00\n      dup3\n      add\n      dup1\n      sload\n      tag_215\n      swap1\n      tag_129\n      jump\t// in\n    tag_215:\n      dup1\n      0x1f\n      add\n      0x20\n      dup1\n      swap2\n      div\n      mul\n      0x20\n      add\n      mload(0x40)\n      swap1\n      dup2\n      add\n      0x40\n      mstore\n      dup1\n      swap3\n      swap2\n      swap1\n      dup2\n      dup2\n      mstore\n      0x20\n      add\n      dup3\n      dup1\n      sload\n      tag_216\n      swap1\n      tag_129\n      jump\t// in\n    tag_216:\n      dup1\n      iszero\n      tag_217\n      jumpi\n      dup1\n      0x1f\n      lt\n      tag_218\n      jumpi\n      0x0100\n      dup1\n      dup4\n      sload\n      div\n      mul\n      dup4\n      mstore\n      swap2\n      0x20\n      add\n      swap2\n      jump(tag_217)\n    tag_218:\n      dup3\n      add\n      swap2\n      swap1\n      0x00\n      mstore\n      keccak256(0x00, 0x20)\n      swap1\n    tag_219:\n      dup2\n      sload\n      dup2\n      mstore\n      swap1\n      0x01\n      add\n      swap1\n      0x20\n      add\n      dup1\n      dup4\n      gt\n      tag_219\n      jumpi\n      dup3\n      swap1\n      sub\n      0x1f\n      and\n      dup3\n      add\n      swap2\n    tag_217:\n      pop\n      pop\n      pop\n      pop\n      pop\n      dup2\n      mstore\n      0x20\n      add\n      0x01\n      dup3\n      add\n      0x00\n      swap1\n      sload\n      swap1\n      0x0100\n      exp\n      swap1\n      div\n      0xff\n      and\n      0xff\n      and\n      0xff\n      and\n      dup2\n      mstore\n      0x20\n      add\n      0x02\n      dup3\n      add\n      sload\n      dup2\n      mstore\n      pop\n      pop\n      dup2\n      mstore\n      0x20\n      add\n      swap1\n      0x01\n      add\n      swap1\n      jump(tag_212)\n    tag_213:\n      pop\n      pop\n      pop\n      pop\n      swap1\n      pop\n        /* \"contracts/DegenToken.sol\":3382:3497  function getUserItems(address user) external view returns(Item[] memory){... */\n      swap2\n      swap1\n      pop\n      jump\t// out\n        /* \"@openzeppelin/contracts/token/ERC20/ERC20.sol\":3846:3986  function allowance(address owner, address spender) public view virtual returns (uint256) {... */\n    tag_111:\n        /* \"@openzeppelin/contracts/token/ERC20/ERC20.sol\":3926:3933  uint256 */\n      0x00\n        /* \"@openzeppelin/contracts/token/ERC20/ERC20.sol\":3952:3963  _allowances */\n      0x01\n        /* \"@openzeppelin/contracts/token/ERC20/ERC20.sol\":3952:3970  _allowances[owner] */\n      0x00\n        /* \"@openzeppelin/contracts/token/ERC20/ERC20.sol\":3964:3969  owner */\n      dup5\n        /* \"@openzeppelin/contracts/token/ERC20/ERC20.sol\":3952:3970  _allowances[owner] */\n      0xffffffffffffffffffffffffffffffffffffffff\n      and\n      0xffffffffffffffffffffffffffffffffffffffff\n      and\n      dup2\n      mstore\n      0x20\n      add\n      swap1\n      dup2\n      mstore\n      0x20\n      add\n      0x00\n      keccak256\n        /* \"@openzeppelin/contracts/token/ERC20/ERC20.sol\":3952:3979  _allowances[owner][spender] */\n      0x00\n        /* \"@openzeppelin/contracts/token/ERC20/ERC20.sol\":3971:3978  spender */\n      dup4\n        /* \"@openzeppelin/contracts/token/ERC20/ERC20.sol\":3952:3979  _allowances[owner][spender] */\n      0xffffffffffffffffffffffffffffffffffffffff\n      and\n      0xffffffffffffffffffffffffffffffffffffffff\n      and\n      dup2\n      mstore\n      0x20\n      add\n      swap1\n      dup2\n      mstore\n      0x20\n      add\n      0x00\n      keccak256\n      sload\n        /* \"@openzeppelin/contracts/token/ERC20/ERC20.sol\":3945:3979  return _allowances[owner][spender] */\n      swap1\n      pop\n        /* \"@openzeppelin/contracts/token/ERC20/ERC20.sol\":3846:3986  function allowance(address owner, address spender) public view virtual returns (uint256) {... */\n      swap3\n      swap2\n      pop\n      pop\n      jump\t// out\n        /* \"contracts/DegenToken.sol\":2493:2967  function isLessThanFive(bool _prediction, uint256 _betAmount) public {... */\n    tag_116:\n        /* \"contracts/DegenToken.sol\":2573:2590  uint randomNumber */\n      0x00\n        /* \"contracts/DegenToken.sol\":2658:2660  10 */\n      0x0a\n        /* \"contracts/DegenToken.sol\":2625:2640  block.timestamp */\n      timestamp\n        /* \"contracts/DegenToken.sol\":2642:2652  msg.sender */\n      caller\n        /* \"contracts/DegenToken.sol\":2608:2653  abi.encodePacked(block.timestamp, msg.sender) */\n      add(0x20, mload(0x40))\n      tag_222\n      swap3\n      swap2\n      swap1\n      tag_223\n      jump\t// in\n    tag_222:\n      mload(0x40)\n      0x20\n      dup2\n      dup4\n      sub\n      sub\n      dup2\n      mstore\n      swap1\n      0x40\n      mstore\n        /* \"contracts/DegenToken.sol\":2598:2654  keccak256(abi.encodePacked(block.timestamp, msg.sender)) */\n      dup1\n      mload\n      swap1\n      0x20\n      add\n      keccak256\n        /* \"contracts/DegenToken.sol\":2593:2655  uint(keccak256(abi.encodePacked(block.timestamp, msg.sender))) */\n      0x00\n      shr\n        /* \"contracts/DegenToken.sol\":2593:2660  uint(keccak256(abi.encodePacked(block.timestamp, msg.sender))) % 10 */\n      tag_224\n      swap2\n      swap1\n      tag_225\n      jump\t// in\n    tag_224:\n        /* \"contracts/DegenToken.sol\":2573:2660  uint randomNumber = uint(keccak256(abi.encodePacked(block.timestamp, msg.sender))) % 10 */\n      swap1\n      pop\n        /* \"contracts/DegenToken.sol\":2705:2706  5 */\n      0x05\n        /* \"contracts/DegenToken.sol\":2692:2704  randomNumber */\n      dup2\n        /* \"contracts/DegenToken.sol\":2692:2706  randomNumber<5 */\n      lt\n        /* \"contracts/DegenToken.sol\":2677:2707  _prediction ==(randomNumber<5) */\n      iszero\n      iszero\n        /* \"contracts/DegenToken.sol\":2677:2688  _prediction */\n      dup4\n        /* \"contracts/DegenToken.sol\":2677:2707  _prediction ==(randomNumber<5) */\n      iszero\n      iszero\n      sub\n        /* \"contracts/DegenToken.sol\":2673:2960  if (_prediction ==(randomNumber<5)) {... */\n      tag_226\n      jumpi\n        /* \"contracts/DegenToken.sol\":2724:2755  _mint(msg.sender, _betAmount*2) */\n      tag_227\n        /* \"contracts/DegenToken.sol\":2730:2740  msg.sender */\n      caller\n        /* \"contracts/DegenToken.sol\":2753:2754  2 */\n      0x02\n        /* \"contracts/DegenToken.sol\":2742:2752  _betAmount */\n      dup5\n        /* \"contracts/DegenToken.sol\":2742:2754  _betAmount*2 */\n      tag_228\n      swap2\n      swap1\n      tag_229\n      jump\t// in\n    tag_228:\n        /* \"contracts/DegenToken.sol\":2724:2729  _mint */\n      tag_160\n        /* \"contracts/DegenToken.sol\":2724:2755  _mint(msg.sender, _betAmount*2) */\n      jump\t// in\n    tag_227:\n        /* \"contracts/DegenToken.sol\":2787:2797  msg.sender */\n      caller\n        /* \"contracts/DegenToken.sol\":2775:2825  GameOutcome(msg.sender, randomNumber, true, \"won\") */\n      0xffffffffffffffffffffffffffffffffffffffff\n      and\n      0xd04d9689d8e43bc0bacea67661ef472dcf321f34f08af72f651af30c4c866587\n        /* \"contracts/DegenToken.sol\":2799:2811  randomNumber */\n      dup3\n        /* \"contracts/DegenToken.sol\":2813:2817  true */\n      0x01\n        /* \"contracts/DegenToken.sol\":2775:2825  GameOutcome(msg.sender, randomNumber, true, \"won\") */\n      mload(0x40)\n      tag_230\n      swap3\n      swap2\n      swap1\n      tag_231\n      jump\t// in\n    tag_230:\n      mload(0x40)\n      dup1\n      swap2\n      sub\n      swap1\n      log2\n        /* \"contracts/DegenToken.sol\":2673:2960  if (_prediction ==(randomNumber<5)) {... */\n      jump(tag_232)\n    tag_226:\n        /* \"contracts/DegenToken.sol\":2860:2876  burn(_betAmount) */\n      tag_233\n        /* \"contracts/DegenToken.sol\":2865:2875  _betAmount */\n      dup3\n        /* \"contracts/DegenToken.sol\":2860:2864  burn */\n      tag_70\n        /* \"contracts/DegenToken.sol\":2860:2876  burn(_betAmount) */\n      jump\t// in\n    tag_233:\n        /* \"contracts/DegenToken.sol\":2908:2918  msg.sender */\n      caller\n        /* \"contracts/DegenToken.sol\":2896:2948  GameOutcome(msg.sender, randomNumber, false, \"lost\") */\n      0xffffffffffffffffffffffffffffffffffffffff\n      and\n      0xd04d9689d8e43bc0bacea67661ef472dcf321f34f08af72f651af30c4c866587\n        /* \"contracts/DegenToken.sol\":2920:2932  randomNumber */\n      dup3\n        /* \"contracts/DegenToken.sol\":2934:2939  false */\n      0x00\n        /* \"contracts/DegenToken.sol\":2896:2948  GameOutcome(msg.sender, randomNumber, false, \"lost\") */\n      mload(0x40)\n      tag_234\n      swap3\n      swap2\n      swap1\n      tag_235\n      jump\t// in\n    tag_234:\n      mload(0x40)\n      dup1\n      swap2\n      sub\n      swap1\n      log2\n        /* \"contracts/DegenToken.sol\":2673:2960  if (_prediction ==(randomNumber<5)) {... */\n    tag_232:\n        /* \"contracts/DegenToken.sol\":2562:2967  {... */\n      pop\n        /* \"contracts/DegenToken.sol\":2493:2967  function isLessThanFive(bool _prediction, uint256 _betAmount) public {... */\n      pop\n      pop\n      jump\t// out\n        /* \"@openzeppelin/contracts/access/Ownable.sol\":2543:2758  function transferOwnership(address newOwner) public virtual onlyOwner {... */\n    tag_119:\n        /* \"@openzeppelin/contracts/access/Ownable.sol\":1531:1544  _checkOwner() */\n      tag_237\n        /* \"@openzeppelin/contracts/access/Ownable.sol\":1531:1542  _checkOwner */\n      tag_157\n        /* \"@openzeppelin/contracts/access/Ownable.sol\":1531:1544  _checkOwner() */\n      jump\t// in\n    tag_237:\n        /* \"@openzeppelin/contracts/access/Ownable.sol\":2647:2648  0 */\n      0x00\n        /* \"@openzeppelin/contracts/access/Ownable.sol\":2627:2649  newOwner == address(0) */\n      0xffffffffffffffffffffffffffffffffffffffff\n      and\n        /* \"@openzeppelin/contracts/access/Ownable.sol\":2627:2635  newOwner */\n      dup2\n        /* \"@openzeppelin/contracts/access/Ownable.sol\":2627:2649  newOwner == address(0) */\n      0xffffffffffffffffffffffffffffffffffffffff\n      and\n      sub\n        /* \"@openzeppelin/contracts/access/Ownable.sol\":2623:2714  if (newOwner == address(0)) {... */\n      tag_239\n      jumpi\n        /* \"@openzeppelin/contracts/access/Ownable.sol\":2700:2701  0 */\n      0x00\n        /* \"@openzeppelin/contracts/access/Ownable.sol\":2672:2703  OwnableInvalidOwner(address(0)) */\n      mload(0x40)\n      0x1e4fbdf700000000000000000000000000000000000000000000000000000000\n      dup2\n      mstore\n      0x04\n      add\n      tag_240\n      swap2\n      swap1\n      tag_91\n      jump\t// in\n    tag_240:\n      mload(0x40)\n      dup1\n      swap2\n      sub\n      swap1\n      revert\n        /* \"@openzeppelin/contracts/access/Ownable.sol\":2623:2714  if (newOwner == address(0)) {... */\n    tag_239:\n        /* \"@openzeppelin/contracts/access/Ownable.sol\":2723:2751  _transferOwnership(newOwner) */\n      tag_241\n        /* \"@openzeppelin/contracts/access/Ownable.sol\":2742:2750  newOwner */\n      dup2\n        /* \"@openzeppelin/contracts/access/Ownable.sol\":2723:2741  _transferOwnership */\n      tag_177\n        /* \"@openzeppelin/contracts/access/Ownable.sol\":2723:2751  _transferOwnership(newOwner) */\n      jump\t// in\n    tag_241:\n        /* \"@openzeppelin/contracts/access/Ownable.sol\":2543:2758  function transferOwnership(address newOwner) public virtual onlyOwner {... */\n      pop\n      jump\t// out\n        /* \"contracts/DegenToken.sol\":2160:2322  function welcomeBonus() public {... */\n    tag_121:\n        /* \"contracts/DegenToken.sol\":2235:2236  0 */\n      0x00\n        /* \"contracts/DegenToken.sol\":2210:2231  balanceOf(msg.sender) */\n      tag_243\n        /* \"contracts/DegenToken.sol\":2220:2230  msg.sender */\n      caller\n        /* \"contracts/DegenToken.sol\":2210:2219  balanceOf */\n      tag_78\n        /* \"contracts/DegenToken.sol\":2210:2231  balanceOf(msg.sender) */\n      jump\t// in\n    tag_243:\n        /* \"contracts/DegenToken.sol\":2210:2236  balanceOf(msg.sender) == 0 */\n      eq\n        /* \"contracts/DegenToken.sol\":2202:2282  require(balanceOf(msg.sender) == 0, \"You've already claimed your welcome bonus\") */\n      tag_244\n      jumpi\n      mload(0x40)\n      0x08c379a000000000000000000000000000000000000000000000000000000000\n      dup2\n      mstore\n      0x04\n      add\n      tag_245\n      swap1\n      tag_246\n      jump\t// in\n    tag_245:\n      mload(0x40)\n      dup1\n      swap2\n      sub\n      swap1\n      revert\n    tag_244:\n        /* \"contracts/DegenToken.sol\":2293:2314  _mint(msg.sender, 50) */\n      tag_247\n        /* \"contracts/DegenToken.sol\":2299:2309  msg.sender */\n      caller\n        /* \"contracts/DegenToken.sol\":2311:2313  50 */\n      0x32\n        /* \"contracts/DegenToken.sol\":2293:2298  _mint */\n      tag_160\n        /* \"contracts/DegenToken.sol\":2293:2314  _mint(msg.sender, 50) */\n      jump\t// in\n    tag_247:\n        /* \"contracts/DegenToken.sol\":2160:2322  function welcomeBonus() public {... */\n      jump\t// out\n        /* \"contracts/DegenToken.sol\":942:976  mapping (uint8=>Item) public items */\n    tag_124:\n      mstore(0x20, 0x06)\n      dup1\n      0x00\n      mstore\n      keccak256(0x00, 0x40)\n      0x00\n      swap2\n      pop\n      swap1\n      pop\n      dup1\n      0x00\n      add\n      dup1\n      sload\n      tag_248\n      swap1\n      tag_129\n      jump\t// in\n    tag_248:\n      dup1\n      0x1f\n      add\n      0x20\n      dup1\n      swap2\n      div\n      mul\n      0x20\n      add\n      mload(0x40)\n      swap1\n      dup2\n      add\n      0x40\n      mstore\n      dup1\n      swap3\n      swap2\n      swap1\n      dup2\n      dup2\n      mstore\n      0x20\n      add\n      dup3\n      dup1\n      sload\n      tag_249\n      swap1\n      tag_129\n      jump\t// in\n    tag_249:\n      dup1\n      iszero\n      tag_250\n      jumpi\n      dup1\n      0x1f\n      lt\n      tag_251\n      jumpi\n      0x0100\n      dup1\n      dup4\n      sload\n      div\n      mul\n      dup4\n      mstore\n      swap2\n      0x20\n      add\n      swap2\n      jump(tag_250)\n    tag_251:\n      dup3\n      add\n      swap2\n      swap1\n      0x00\n      mstore\n      keccak256(0x00, 0x20)\n      swap1\n    tag_252:\n      dup2\n      sload\n      dup2\n      mstore\n      swap1\n      0x01\n      add\n      swap1\n      0x20\n      add\n      dup1\n      dup4\n      gt\n      tag_252\n      jumpi\n      dup3\n      swap1\n      sub\n      0x1f\n      and\n      dup3\n      add\n      swap2\n    tag_250:\n      pop\n      pop\n      pop\n      pop\n      pop\n      swap1\n      dup1\n      0x01\n      add\n      0x00\n      swap1\n      sload\n      swap1\n      0x0100\n      exp\n      swap1\n      div\n      0xff\n      and\n      swap1\n      dup1\n      0x02\n      add\n      sload\n      swap1\n      pop\n      dup4\n      jump\t// out\n        /* \"@openzeppelin/contracts/utils/Context.sol\":656:752  function _msgSender() internal view virtual returns (address) {... */\n    tag_136:\n        /* \"@openzeppelin/contracts/utils/Context.sol\":709:716  address */\n      0x00\n        /* \"@openzeppelin/contracts/utils/Context.sol\":735:745  msg.sender */\n      caller\n        /* \"@openzeppelin/contracts/utils/Context.sol\":728:745  return msg.sender */\n      swap1\n      pop\n        /* \"@openzeppelin/contracts/utils/Context.sol\":656:752  function _msgSender() internal view virtual returns (address) {... */\n      swap1\n      jump\t// out\n        /* \"@openzeppelin/contracts/token/ERC20/ERC20.sol\":8989:9117  function _approve(address owner, address spender, uint256 value) internal {... */\n    tag_138:\n        /* \"@openzeppelin/contracts/token/ERC20/ERC20.sol\":9073:9110  _approve(owner, spender, value, true) */\n      tag_255\n        /* \"@openzeppelin/contracts/token/ERC20/ERC20.sol\":9082:9087  owner */\n      dup4\n        /* \"@openzeppelin/contracts/token/ERC20/ERC20.sol\":9089:9096  spender */\n      dup4\n        /* \"@openzeppelin/contracts/token/ERC20/ERC20.sol\":9098:9103  value */\n      dup4\n        /* \"@openzeppelin/contracts/token/ERC20/ERC20.sol\":9105:9109  true */\n      0x01\n        /* \"@openzeppelin/contracts/token/ERC20/ERC20.sol\":9073:9081  _approve */\n      tag_256\n        /* \"@openzeppelin/contracts/token/ERC20/ERC20.sol\":9073:9110  _approve(owner, spender, value, true) */\n      jump\t// in\n    tag_255:\n        /* \"@openzeppelin/contracts/token/ERC20/ERC20.sol\":8989:9117  function _approve(address owner, address spender, uint256 value) internal {... */\n      pop\n      pop\n      pop\n      jump\t// out\n        /* \"@openzeppelin/contracts/token/ERC20/ERC20.sol\":10663:11140  function _spendAllowance(address owner, address spender, uint256 value) internal virtual {... */\n    tag_151:\n        /* \"@openzeppelin/contracts/token/ERC20/ERC20.sol\":10762:10786  uint256 currentAllowance */\n      0x00\n        /* \"@openzeppelin/contracts/token/ERC20/ERC20.sol\":10789:10814  allowance(owner, spender) */\n      tag_258\n        /* \"@openzeppelin/contracts/token/ERC20/ERC20.sol\":10799:10804  owner */\n      dup5\n        /* \"@openzeppelin/contracts/token/ERC20/ERC20.sol\":10806:10813  spender */\n      dup5\n        /* \"@openzeppelin/contracts/token/ERC20/ERC20.sol\":10789:10798  allowance */\n      tag_111\n        /* \"@openzeppelin/contracts/token/ERC20/ERC20.sol\":10789:10814  allowance(owner, spender) */\n      jump\t// in\n    tag_258:\n        /* \"@openzeppelin/contracts/token/ERC20/ERC20.sol\":10762:10814  uint256 currentAllowance = allowance(owner, spender) */\n      swap1\n      pop\n        /* \"@openzeppelin/contracts/token/ERC20/ERC20.sol\":10848:10865  type(uint256).max */\n      0xffffffffffffffffffffffffffffffffffffffffffffffffffffffffffffffff\n        /* \"@openzeppelin/contracts/token/ERC20/ERC20.sol\":10828:10844  currentAllowance */\n      dup2\n        /* \"@openzeppelin/contracts/token/ERC20/ERC20.sol\":10828:10865  currentAllowance != type(uint256).max */\n      eq\n        /* \"@openzeppelin/contracts/token/ERC20/ERC20.sol\":10824:11134  if (currentAllowance != type(uint256).max) {... */\n      tag_259\n      jumpi\n        /* \"@openzeppelin/contracts/token/ERC20/ERC20.sol\":10904:10909  value */\n      dup2\n        /* \"@openzeppelin/contracts/token/ERC20/ERC20.sol\":10885:10901  currentAllowance */\n      dup2\n        /* \"@openzeppelin/contracts/token/ERC20/ERC20.sol\":10885:10909  currentAllowance < value */\n      lt\n        /* \"@openzeppelin/contracts/token/ERC20/ERC20.sol\":10881:11011  if (currentAllowance < value) {... */\n      iszero\n      tag_260\n      jumpi\n        /* \"@openzeppelin/contracts/token/ERC20/ERC20.sol\":10963:10970  spender */\n      dup3\n        /* \"@openzeppelin/contracts/token/ERC20/ERC20.sol\":10972:10988  currentAllowance */\n      dup2\n        /* \"@openzeppelin/contracts/token/ERC20/ERC20.sol\":10990:10995  value */\n      dup4\n        /* \"@openzeppelin/contracts/token/ERC20/ERC20.sol\":10936:10996  ERC20InsufficientAllowance(spender, currentAllowance, value) */\n      mload(0x40)\n      0xfb8f41b200000000000000000000000000000000000000000000000000000000\n      dup2\n      mstore\n      0x04\n      add\n      tag_261\n      swap4\n      swap3\n      swap2\n      swap1\n      tag_262\n      jump\t// in\n    tag_261:\n      mload(0x40)\n      dup1\n      swap2\n      sub\n      swap1\n      revert\n        /* \"@openzeppelin/contracts/token/ERC20/ERC20.sol\":10881:11011  if (currentAllowance < value) {... */\n    tag_260:\n        /* \"@openzeppelin/contracts/token/ERC20/ERC20.sol\":11052:11109  _approve(owner, spender, currentAllowance - value, false) */\n      tag_263\n        /* \"@openzeppelin/contracts/token/ERC20/ERC20.sol\":11061:11066  owner */\n      dup5\n        /* \"@openzeppelin/contracts/token/ERC20/ERC20.sol\":11068:11075  spender */\n      dup5\n        /* \"@openzeppelin/contracts/token/ERC20/ERC20.sol\":11096:11101  value */\n      dup5\n        /* \"@openzeppelin/contracts/token/ERC20/ERC20.sol\":11077:11093  currentAllowance */\n      dup5\n        /* \"@openzeppelin/contracts/token/ERC20/ERC20.sol\":11077:11101  currentAllowance - value */\n      sub\n        /* \"@openzeppelin/contracts/token/ERC20/ERC20.sol\":11103:11108  false */\n      0x00\n        /* \"@openzeppelin/contracts/token/ERC20/ERC20.sol\":11052:11060  _approve */\n      tag_256\n        /* \"@openzeppelin/contracts/token/ERC20/ERC20.sol\":11052:11109  _approve(owner, spender, currentAllowance - value, false) */\n      jump\t// in\n    tag_263:\n        /* \"@openzeppelin/contracts/token/ERC20/ERC20.sol\":10824:11134  if (currentAllowance != type(uint256).max) {... */\n    tag_259:\n        /* \"@openzeppelin/contracts/token/ERC20/ERC20.sol\":10752:11140  {... */\n      pop\n        /* \"@openzeppelin/contracts/token/ERC20/ERC20.sol\":10663:11140  function _spendAllowance(address owner, address spender, uint256 value) internal virtual {... */\n      pop\n      pop\n      pop\n      jump\t// out\n        /* \"@openzeppelin/contracts/token/ERC20/ERC20.sol\":5656:5956  function _transfer(address from, address to, uint256 value) internal {... */\n    tag_153:\n        /* \"@openzeppelin/contracts/token/ERC20/ERC20.sol\":5755:5756  0 */\n      0x00\n        /* \"@openzeppelin/contracts/token/ERC20/ERC20.sol\":5739:5757  from == address(0) */\n      0xffffffffffffffffffffffffffffffffffffffff\n      and\n        /* \"@openzeppelin/contracts/token/ERC20/ERC20.sol\":5739:5743  from */\n      dup4\n        /* \"@openzeppelin/contracts/token/ERC20/ERC20.sol\":5739:5757  from == address(0) */\n      0xffffffffffffffffffffffffffffffffffffffff\n      and\n      sub\n        /* \"@openzeppelin/contracts/token/ERC20/ERC20.sol\":5735:5821  if (from == address(0)) {... */\n      tag_265\n      jumpi\n        /* \"@openzeppelin/contracts/token/ERC20/ERC20.sol\":5807:5808  0 */\n      0x00\n        /* \"@openzeppelin/contracts/token/ERC20/ERC20.sol\":5780:5810  ERC20InvalidSender(address(0)) */\n      mload(0x40)\n      0x96c6fd1e00000000000000000000000000000000000000000000000000000000\n      dup2\n      mstore\n      0x04\n      add\n      tag_266\n      swap2\n      swap1\n      tag_91\n      jump\t// in\n    tag_266:\n      mload(0x40)\n      dup1\n      swap2\n      sub\n      swap1\n      revert\n        /* \"@openzeppelin/contracts/token/ERC20/ERC20.sol\":5735:5821  if (from == address(0)) {... */\n    tag_265:\n        /* \"@openzeppelin/contracts/token/ERC20/ERC20.sol\":5848:5849  0 */\n      0x00\n        /* \"@openzeppelin/contracts/token/ERC20/ERC20.sol\":5834:5850  to == address(0) */\n      0xffffffffffffffffffffffffffffffffffffffff\n      and\n        /* \"@openzeppelin/contracts/token/ERC20/ERC20.sol\":5834:5836  to */\n      dup3\n        /* \"@openzeppelin/contracts/token/ERC20/ERC20.sol\":5834:5850  to == address(0) */\n      0xffffffffffffffffffffffffffffffffffffffff\n      and\n      sub\n        /* \"@openzeppelin/contracts/token/ERC20/ERC20.sol\":5830:5916  if (to == address(0)) {... */\n      tag_267\n      jumpi\n        /* \"@openzeppelin/contracts/token/ERC20/ERC20.sol\":5902:5903  0 */\n      0x00\n        /* \"@openzeppelin/contracts/token/ERC20/ERC20.sol\":5873:5905  ERC20InvalidReceiver(address(0)) */\n      mload(0x40)\n      0xec442f0500000000000000000000000000000000000000000000000000000000\n      dup2\n      mstore\n      0x04\n      add\n      tag_268\n      swap2\n      swap1\n      tag_91\n      jump\t// in\n    tag_268:\n      mload(0x40)\n      dup1\n      swap2\n      sub\n      swap1\n      revert\n        /* \"@openzeppelin/contracts/token/ERC20/ERC20.sol\":5830:5916  if (to == address(0)) {... */\n    tag_267:\n        /* \"@openzeppelin/contracts/token/ERC20/ERC20.sol\":5925:5949  _update(from, to, value) */\n      tag_269\n        /* \"@openzeppelin/contracts/token/ERC20/ERC20.sol\":5933:5937  from */\n      dup4\n        /* \"@openzeppelin/contracts/token/ERC20/ERC20.sol\":5939:5941  to */\n      dup4\n        /* \"@openzeppelin/contracts/token/ERC20/ERC20.sol\":5943:5948  value */\n      dup4\n        /* \"@openzeppelin/contracts/token/ERC20/ERC20.sol\":5925:5932  _update */\n      tag_270\n        /* \"@openzeppelin/contracts/token/ERC20/ERC20.sol\":5925:5949  _update(from, to, value) */\n      jump\t// in\n    tag_269:\n        /* \"@openzeppelin/contracts/token/ERC20/ERC20.sol\":5656:5956  function _transfer(address from, address to, uint256 value) internal {... */\n      pop\n      pop\n      pop\n      jump\t// out\n        /* \"@openzeppelin/contracts/access/Ownable.sol\":1796:1958  function _checkOwner() internal view virtual {... */\n    tag_157:\n        /* \"@openzeppelin/contracts/access/Ownable.sol\":1866:1878  _msgSender() */\n      tag_272\n        /* \"@openzeppelin/contracts/access/Ownable.sol\":1866:1876  _msgSender */\n      tag_136\n        /* \"@openzeppelin/contracts/access/Ownable.sol\":1866:1878  _msgSender() */\n      jump\t// in\n    tag_272:\n        /* \"@openzeppelin/contracts/access/Ownable.sol\":1855:1878  owner() != _msgSender() */\n      0xffffffffffffffffffffffffffffffffffffffff\n      and\n        /* \"@openzeppelin/contracts/access/Ownable.sol\":1855:1862  owner() */\n      tag_273\n        /* \"@openzeppelin/contracts/access/Ownable.sol\":1855:1860  owner */\n      tag_89\n        /* \"@openzeppelin/contracts/access/Ownable.sol\":1855:1862  owner() */\n      jump\t// in\n    tag_273:\n        /* \"@openzeppelin/contracts/access/Ownable.sol\":1855:1878  owner() != _msgSender() */\n      0xffffffffffffffffffffffffffffffffffffffff\n      and\n      eq\n        /* \"@openzeppelin/contracts/access/Ownable.sol\":1851:1952  if (owner() != _msgSender()) {... */\n      tag_274\n      jumpi\n        /* \"@openzeppelin/contracts/access/Ownable.sol\":1928:1940  _msgSender() */\n      tag_275\n        /* \"@openzeppelin/contracts/access/Ownable.sol\":1928:1938  _msgSender */\n      tag_136\n        /* \"@openzeppelin/contracts/access/Ownable.sol\":1928:1940  _msgSender() */\n      jump\t// in\n    tag_275:\n        /* \"@openzeppelin/contracts/access/Ownable.sol\":1901:1941  OwnableUnauthorizedAccount(_msgSender()) */\n      mload(0x40)\n      0x118cdaa700000000000000000000000000000000000000000000000000000000\n      dup2\n      mstore\n      0x04\n      add\n      tag_276\n      swap2\n      swap1\n      tag_91\n      jump\t// in\n    tag_276:\n      mload(0x40)\n      dup1\n      swap2\n      sub\n      swap1\n      revert\n        /* \"@openzeppelin/contracts/access/Ownable.sol\":1851:1952  if (owner() != _msgSender()) {... */\n    tag_274:\n        /* \"@openzeppelin/contracts/access/Ownable.sol\":1796:1958  function _checkOwner() internal view virtual {... */\n      jump\t// out\n        /* \"@openzeppelin/contracts/token/ERC20/ERC20.sol\":7721:7929  function _mint(address account, uint256 value) internal {... */\n    tag_160:\n        /* \"@openzeppelin/contracts/token/ERC20/ERC20.sol\":7810:7811  0 */\n      0x00\n        /* \"@openzeppelin/contracts/token/ERC20/ERC20.sol\":7791:7812  account == address(0) */\n      0xffffffffffffffffffffffffffffffffffffffff\n      and\n        /* \"@openzeppelin/contracts/token/ERC20/ERC20.sol\":7791:7798  account */\n      dup3\n        /* \"@openzeppelin/contracts/token/ERC20/ERC20.sol\":7791:7812  account == address(0) */\n      0xffffffffffffffffffffffffffffffffffffffff\n      and\n      sub\n        /* \"@openzeppelin/contracts/token/ERC20/ERC20.sol\":7787:7878  if (account == address(0)) {... */\n      tag_278\n      jumpi\n        /* \"@openzeppelin/contracts/token/ERC20/ERC20.sol\":7864:7865  0 */\n      0x00\n        /* \"@openzeppelin/contracts/token/ERC20/ERC20.sol\":7835:7867  ERC20InvalidReceiver(address(0)) */\n      mload(0x40)\n      0xec442f0500000000000000000000000000000000000000000000000000000000\n      dup2\n      mstore\n      0x04\n      add\n      tag_279\n      swap2\n      swap1\n      tag_91\n      jump\t// in\n    tag_279:\n      mload(0x40)\n      dup1\n      swap2\n      sub\n      swap1\n      revert\n        /* \"@openzeppelin/contracts/token/ERC20/ERC20.sol\":7787:7878  if (account == address(0)) {... */\n    tag_278:\n        /* \"@openzeppelin/contracts/token/ERC20/ERC20.sol\":7887:7922  _update(address(0), account, value) */\n      tag_280\n        /* \"@openzeppelin/contracts/token/ERC20/ERC20.sol\":7903:7904  0 */\n      0x00\n        /* \"@openzeppelin/contracts/token/ERC20/ERC20.sol\":7907:7914  account */\n      dup4\n        /* \"@openzeppelin/contracts/token/ERC20/ERC20.sol\":7916:7921  value */\n      dup4\n        /* \"@openzeppelin/contracts/token/ERC20/ERC20.sol\":7887:7894  _update */\n      tag_270\n        /* \"@openzeppelin/contracts/token/ERC20/ERC20.sol\":7887:7922  _update(address(0), account, value) */\n      jump\t// in\n    tag_280:\n        /* \"@openzeppelin/contracts/token/ERC20/ERC20.sol\":7721:7929  function _mint(address account, uint256 value) internal {... */\n      pop\n      pop\n      jump\t// out\n        /* \"@openzeppelin/contracts/token/ERC20/ERC20.sol\":8247:8453  function _burn(address account, uint256 value) internal {... */\n    tag_164:\n        /* \"@openzeppelin/contracts/token/ERC20/ERC20.sol\":8336:8337  0 */\n      0x00\n        /* \"@openzeppelin/contracts/token/ERC20/ERC20.sol\":8317:8338  account == address(0) */\n      0xffffffffffffffffffffffffffffffffffffffff\n      and\n        /* \"@openzeppelin/contracts/token/ERC20/ERC20.sol\":8317:8324  account */\n      dup3\n        /* \"@openzeppelin/contracts/token/ERC20/ERC20.sol\":8317:8338  account == address(0) */\n      0xffffffffffffffffffffffffffffffffffffffff\n      and\n      sub\n        /* \"@openzeppelin/contracts/token/ERC20/ERC20.sol\":8313:8402  if (account == address(0)) {... */\n      tag_282\n      jumpi\n        /* \"@openzeppelin/contracts/token/ERC20/ERC20.sol\":8388:8389  0 */\n      0x00\n        /* \"@openzeppelin/contracts/token/ERC20/ERC20.sol\":8361:8391  ERC20InvalidSender(address(0)) */\n      mload(0x40)\n      0x96c6fd1e00000000000000000000000000000000000000000000000000000000\n      dup2\n      mstore\n      0x04\n      add\n      tag_283\n      swap2\n      swap1\n      tag_91\n      jump\t// in\n    tag_283:\n      mload(0x40)\n      dup1\n      swap2\n      sub\n      swap1\n      revert\n        /* \"@openzeppelin/contracts/token/ERC20/ERC20.sol\":8313:8402  if (account == address(0)) {... */\n    tag_282:\n        /* \"@openzeppelin/contracts/token/ERC20/ERC20.sol\":8411:8446  _update(account, address(0), value) */\n      tag_284\n        /* \"@openzeppelin/contracts/token/ERC20/ERC20.sol\":8419:8426  account */\n      dup3\n        /* \"@openzeppelin/contracts/token/ERC20/ERC20.sol\":8436:8437  0 */\n      0x00\n        /* \"@openzeppelin/contracts/token/ERC20/ERC20.sol\":8440:8445  value */\n      dup4\n        /* \"@openzeppelin/contracts/token/ERC20/ERC20.sol\":8411:8418  _update */\n      tag_270\n        /* \"@openzeppelin/contracts/token/ERC20/ERC20.sol\":8411:8446  _update(account, address(0), value) */\n      jump\t// in\n    tag_284:\n        /* \"@openzeppelin/contracts/token/ERC20/ERC20.sol\":8247:8453  function _burn(address account, uint256 value) internal {... */\n      pop\n      pop\n      jump\t// out\n        /* \"@openzeppelin/contracts/access/Ownable.sol\":2912:3099  function _transferOwnership(address newOwner) internal virtual {... */\n    tag_177:\n        /* \"@openzeppelin/contracts/access/Ownable.sol\":2985:3001  address oldOwner */\n      0x00\n        /* \"@openzeppelin/contracts/access/Ownable.sol\":3004:3010  _owner */\n      0x05\n      0x00\n      swap1\n      sload\n      swap1\n      0x0100\n      exp\n      swap1\n      div\n      0xffffffffffffffffffffffffffffffffffffffff\n      and\n        /* \"@openzeppelin/contracts/access/Ownable.sol\":2985:3010  address oldOwner = _owner */\n      swap1\n      pop\n        /* \"@openzeppelin/contracts/access/Ownable.sol\":3029:3037  newOwner */\n      dup2\n        /* \"@openzeppelin/contracts/access/Ownable.sol\":3020:3026  _owner */\n      0x05\n      0x00\n        /* \"@openzeppelin/contracts/access/Ownable.sol\":3020:3037  _owner = newOwner */\n      0x0100\n      exp\n      dup2\n      sload\n      dup2\n      0xffffffffffffffffffffffffffffffffffffffff\n      mul\n      not\n      and\n      swap1\n      dup4\n      0xffffffffffffffffffffffffffffffffffffffff\n      and\n      mul\n      or\n      swap1\n      sstore\n      pop\n        /* \"@openzeppelin/contracts/access/Ownable.sol\":3083:3091  newOwner */\n      dup2\n        /* \"@openzeppelin/contracts/access/Ownable.sol\":3052:3092  OwnershipTransferred(oldOwner, newOwner) */\n      0xffffffffffffffffffffffffffffffffffffffff\n      and\n        /* \"@openzeppelin/contracts/access/Ownable.sol\":3073:3081  oldOwner */\n      dup2\n        /* \"@openzeppelin/contracts/access/Ownable.sol\":3052:3092  OwnershipTransferred(oldOwner, newOwner) */\n      0xffffffffffffffffffffffffffffffffffffffff\n      and\n      0x8be0079c531659141344cd1fd0a4f28419497f9722a3daafe3b4186f6b6457e0\n      mload(0x40)\n      mload(0x40)\n      dup1\n      swap2\n      sub\n      swap1\n      log3\n        /* \"@openzeppelin/contracts/access/Ownable.sol\":2975:3099  {... */\n      pop\n        /* \"@openzeppelin/contracts/access/Ownable.sol\":2912:3099  function _transferOwnership(address newOwner) internal virtual {... */\n      pop\n      jump\t// out\n        /* \"@openzeppelin/contracts/token/ERC20/ERC20.sol\":9949:10381  function _approve(address owner, address spender, uint256 value, bool emitEvent) internal virtual {... */\n    tag_256:\n        /* \"@openzeppelin/contracts/token/ERC20/ERC20.sol\":10078:10079  0 */\n      0x00\n        /* \"@openzeppelin/contracts/token/ERC20/ERC20.sol\":10061:10080  owner == address(0) */\n      0xffffffffffffffffffffffffffffffffffffffff\n      and\n        /* \"@openzeppelin/contracts/token/ERC20/ERC20.sol\":10061:10066  owner */\n      dup5\n        /* \"@openzeppelin/contracts/token/ERC20/ERC20.sol\":10061:10080  owner == address(0) */\n      0xffffffffffffffffffffffffffffffffffffffff\n      and\n      sub\n        /* \"@openzeppelin/contracts/token/ERC20/ERC20.sol\":10057:10146  if (owner == address(0)) {... */\n      tag_287\n      jumpi\n        /* \"@openzeppelin/contracts/token/ERC20/ERC20.sol\":10132:10133  0 */\n      0x00\n        /* \"@openzeppelin/contracts/token/ERC20/ERC20.sol\":10103:10135  ERC20InvalidApprover(address(0)) */\n      mload(0x40)\n      0xe602df0500000000000000000000000000000000000000000000000000000000\n      dup2\n      mstore\n      0x04\n      add\n      tag_288\n      swap2\n      swap1\n      tag_91\n      jump\t// in\n    tag_288:\n      mload(0x40)\n      dup1\n      swap2\n      sub\n      swap1\n      revert\n        /* \"@openzeppelin/contracts/token/ERC20/ERC20.sol\":10057:10146  if (owner == address(0)) {... */\n    tag_287:\n        /* \"@openzeppelin/contracts/token/ERC20/ERC20.sol\":10178:10179  0 */\n      0x00\n        /* \"@openzeppelin/contracts/token/ERC20/ERC20.sol\":10159:10180  spender == address(0) */\n      0xffffffffffffffffffffffffffffffffffffffff\n      and\n        /* \"@openzeppelin/contracts/token/ERC20/ERC20.sol\":10159:10166  spender */\n      dup4\n        /* \"@openzeppelin/contracts/token/ERC20/ERC20.sol\":10159:10180  spender == address(0) */\n      0xffffffffffffffffffffffffffffffffffffffff\n      and\n      sub\n        /* \"@openzeppelin/contracts/token/ERC20/ERC20.sol\":10155:10245  if (spender == address(0)) {... */\n      tag_289\n      jumpi\n        /* \"@openzeppelin/contracts/token/ERC20/ERC20.sol\":10231:10232  0 */\n      0x00\n        /* \"@openzeppelin/contracts/token/ERC20/ERC20.sol\":10203:10234  ERC20InvalidSpender(address(0)) */\n      mload(0x40)\n      0x94280d6200000000000000000000000000000000000000000000000000000000\n      dup2\n      mstore\n      0x04\n      add\n      tag_290\n      swap2\n      swap1\n      tag_91\n      jump\t// in\n    tag_290:\n      mload(0x40)\n      dup1\n      swap2\n      sub\n      swap1\n      revert\n        /* \"@openzeppelin/contracts/token/ERC20/ERC20.sol\":10155:10245  if (spender == address(0)) {... */\n    tag_289:\n        /* \"@openzeppelin/contracts/token/ERC20/ERC20.sol\":10284:10289  value */\n      dup2\n        /* \"@openzeppelin/contracts/token/ERC20/ERC20.sol\":10254:10265  _allowances */\n      0x01\n        /* \"@openzeppelin/contracts/token/ERC20/ERC20.sol\":10254:10272  _allowances[owner] */\n      0x00\n        /* \"@openzeppelin/contracts/token/ERC20/ERC20.sol\":10266:10271  owner */\n      dup7\n        /* \"@openzeppelin/contracts/token/ERC20/ERC20.sol\":10254:10272  _allowances[owner] */\n      0xffffffffffffffffffffffffffffffffffffffff\n      and\n      0xffffffffffffffffffffffffffffffffffffffff\n      and\n      dup2\n      mstore\n      0x20\n      add\n      swap1\n      dup2\n      mstore\n      0x20\n      add\n      0x00\n      keccak256\n        /* \"@openzeppelin/contracts/token/ERC20/ERC20.sol\":10254:10281  _allowances[owner][spender] */\n      0x00\n        /* \"@openzeppelin/contracts/token/ERC20/ERC20.sol\":10273:10280  spender */\n      dup6\n        /* \"@openzeppelin/contracts/token/ERC20/ERC20.sol\":10254:10281  _allowances[owner][spender] */\n      0xffffffffffffffffffffffffffffffffffffffff\n      and\n      0xffffffffffffffffffffffffffffffffffffffff\n      and\n      dup2\n      mstore\n      0x20\n      add\n      swap1\n      dup2\n      mstore\n      0x20\n      add\n      0x00\n      keccak256\n        /* \"@openzeppelin/contracts/token/ERC20/ERC20.sol\":10254:10289  _allowances[owner][spender] = value */\n      dup2\n      swap1\n      sstore\n      pop\n        /* \"@openzeppelin/contracts/token/ERC20/ERC20.sol\":10303:10312  emitEvent */\n      dup1\n        /* \"@openzeppelin/contracts/token/ERC20/ERC20.sol\":10299:10375  if (emitEvent) {... */\n      iszero\n      tag_291\n      jumpi\n        /* \"@openzeppelin/contracts/token/ERC20/ERC20.sol\":10349:10356  spender */\n      dup3\n        /* \"@openzeppelin/contracts/token/ERC20/ERC20.sol\":10333:10364  Approval(owner, spender, value) */\n      0xffffffffffffffffffffffffffffffffffffffff\n      and\n        /* \"@openzeppelin/contracts/token/ERC20/ERC20.sol\":10342:10347  owner */\n      dup5\n        /* \"@openzeppelin/contracts/token/ERC20/ERC20.sol\":10333:10364  Approval(owner, spender, value) */\n      0xffffffffffffffffffffffffffffffffffffffff\n      and\n      0x8c5be1e5ebec7d5bd14f71427d1e84f3dd0314c0f7b2291e5b200ac8c7c3b925\n        /* \"@openzeppelin/contracts/token/ERC20/ERC20.sol\":10358:10363  value */\n      dup5\n        /* \"@openzeppelin/contracts/token/ERC20/ERC20.sol\":10333:10364  Approval(owner, spender, value) */\n      mload(0x40)\n      tag_292\n      swap2\n      swap1\n      tag_48\n      jump\t// in\n    tag_292:\n      mload(0x40)\n      dup1\n      swap2\n      sub\n      swap1\n      log3\n        /* \"@openzeppelin/contracts/token/ERC20/ERC20.sol\":10299:10375  if (emitEvent) {... */\n    tag_291:\n        /* \"@openzeppelin/contracts/token/ERC20/ERC20.sol\":9949:10381  function _approve(address owner, address spender, uint256 value, bool emitEvent) internal virtual {... */\n      pop\n      pop\n      pop\n      pop\n      jump\t// out\n        /* \"@openzeppelin/contracts/token/ERC20/ERC20.sol\":6271:7378  function _update(address from, address to, uint256 value) internal virtual {... */\n    tag_270:\n        /* \"@openzeppelin/contracts/token/ERC20/ERC20.sol\":6376:6377  0 */\n      0x00\n        /* \"@openzeppelin/contracts/token/ERC20/ERC20.sol\":6360:6378  from == address(0) */\n      0xffffffffffffffffffffffffffffffffffffffff\n      and\n        /* \"@openzeppelin/contracts/token/ERC20/ERC20.sol\":6360:6364  from */\n      dup4\n        /* \"@openzeppelin/contracts/token/ERC20/ERC20.sol\":6360:6378  from == address(0) */\n      0xffffffffffffffffffffffffffffffffffffffff\n      and\n      sub\n        /* \"@openzeppelin/contracts/token/ERC20/ERC20.sol\":6356:6896  if (from == address(0)) {... */\n      tag_294\n      jumpi\n        /* \"@openzeppelin/contracts/token/ERC20/ERC20.sol\":6512:6517  value */\n      dup1\n        /* \"@openzeppelin/contracts/token/ERC20/ERC20.sol\":6496:6508  _totalSupply */\n      0x02\n      0x00\n        /* \"@openzeppelin/contracts/token/ERC20/ERC20.sol\":6496:6517  _totalSupply += value */\n      dup3\n      dup3\n      sload\n      tag_295\n      swap2\n      swap1\n      tag_296\n      jump\t// in\n    tag_295:\n      swap3\n      pop\n      pop\n      dup2\n      swap1\n      sstore\n      pop\n        /* \"@openzeppelin/contracts/token/ERC20/ERC20.sol\":6356:6896  if (from == address(0)) {... */\n      jump(tag_297)\n    tag_294:\n        /* \"@openzeppelin/contracts/token/ERC20/ERC20.sol\":6548:6567  uint256 fromBalance */\n      0x00\n        /* \"@openzeppelin/contracts/token/ERC20/ERC20.sol\":6570:6579  _balances */\n      dup1\n        /* \"@openzeppelin/contracts/token/ERC20/ERC20.sol\":6570:6585  _balances[from] */\n      0x00\n        /* \"@openzeppelin/contracts/token/ERC20/ERC20.sol\":6580:6584  from */\n      dup6\n        /* \"@openzeppelin/contracts/token/ERC20/ERC20.sol\":6570:6585  _balances[from] */\n      0xffffffffffffffffffffffffffffffffffffffff\n      and\n      0xffffffffffffffffffffffffffffffffffffffff\n      and\n      dup2\n      mstore\n      0x20\n      add\n      swap1\n      dup2\n      mstore\n      0x20\n      add\n      0x00\n      keccak256\n      sload\n        /* \"@openzeppelin/contracts/token/ERC20/ERC20.sol\":6548:6585  uint256 fromBalance = _balances[from] */\n      swap1\n      pop\n        /* \"@openzeppelin/contracts/token/ERC20/ERC20.sol\":6617:6622  value */\n      dup2\n        /* \"@openzeppelin/contracts/token/ERC20/ERC20.sol\":6603:6614  fromBalance */\n      dup2\n        /* \"@openzeppelin/contracts/token/ERC20/ERC20.sol\":6603:6622  fromBalance < value */\n      lt\n        /* \"@openzeppelin/contracts/token/ERC20/ERC20.sol\":6599:6714  if (fromBalance < value) {... */\n      iszero\n      tag_298\n      jumpi\n        /* \"@openzeppelin/contracts/token/ERC20/ERC20.sol\":6674:6678  from */\n      dup4\n        /* \"@openzeppelin/contracts/token/ERC20/ERC20.sol\":6680:6691  fromBalance */\n      dup2\n        /* \"@openzeppelin/contracts/token/ERC20/ERC20.sol\":6693:6698  value */\n      dup4\n        /* \"@openzeppelin/contracts/token/ERC20/ERC20.sol\":6649:6699  ERC20InsufficientBalance(from, fromBalance, value) */\n      mload(0x40)\n      0xe450d38c00000000000000000000000000000000000000000000000000000000\n      dup2\n      mstore\n      0x04\n      add\n      tag_299\n      swap4\n      swap3\n      swap2\n      swap1\n      tag_262\n      jump\t// in\n    tag_299:\n      mload(0x40)\n      dup1\n      swap2\n      sub\n      swap1\n      revert\n        /* \"@openzeppelin/contracts/token/ERC20/ERC20.sol\":6599:6714  if (fromBalance < value) {... */\n    tag_298:\n        /* \"@openzeppelin/contracts/token/ERC20/ERC20.sol\":6866:6871  value */\n      dup2\n        /* \"@openzeppelin/contracts/token/ERC20/ERC20.sol\":6852:6863  fromBalance */\n      dup2\n        /* \"@openzeppelin/contracts/token/ERC20/ERC20.sol\":6852:6871  fromBalance - value */\n      sub\n        /* \"@openzeppelin/contracts/token/ERC20/ERC20.sol\":6834:6843  _balances */\n      0x00\n        /* \"@openzeppelin/contracts/token/ERC20/ERC20.sol\":6834:6849  _balances[from] */\n      dup1\n        /* \"@openzeppelin/contracts/token/ERC20/ERC20.sol\":6844:6848  from */\n      dup7\n        /* \"@openzeppelin/contracts/token/ERC20/ERC20.sol\":6834:6849  _balances[from] */\n      0xffffffffffffffffffffffffffffffffffffffff\n      and\n      0xffffffffffffffffffffffffffffffffffffffff\n      and\n      dup2\n      mstore\n      0x20\n      add\n      swap1\n      dup2\n      mstore\n      0x20\n      add\n      0x00\n      keccak256\n        /* \"@openzeppelin/contracts/token/ERC20/ERC20.sol\":6834:6871  _balances[from] = fromBalance - value */\n      dup2\n      swap1\n      sstore\n      pop\n        /* \"@openzeppelin/contracts/token/ERC20/ERC20.sol\":6534:6896  {... */\n      pop\n        /* \"@openzeppelin/contracts/token/ERC20/ERC20.sol\":6356:6896  if (from == address(0)) {... */\n    tag_297:\n        /* \"@openzeppelin/contracts/token/ERC20/ERC20.sol\":6924:6925  0 */\n      0x00\n        /* \"@openzeppelin/contracts/token/ERC20/ERC20.sol\":6910:6926  to == address(0) */\n      0xffffffffffffffffffffffffffffffffffffffff\n      and\n        /* \"@openzeppelin/contracts/token/ERC20/ERC20.sol\":6910:6912  to */\n      dup3\n        /* \"@openzeppelin/contracts/token/ERC20/ERC20.sol\":6910:6926  to == address(0) */\n      0xffffffffffffffffffffffffffffffffffffffff\n      and\n      sub\n        /* \"@openzeppelin/contracts/token/ERC20/ERC20.sol\":6906:7331  if (to == address(0)) {... */\n      tag_300\n      jumpi\n        /* \"@openzeppelin/contracts/token/ERC20/ERC20.sol\":7089:7094  value */\n      dup1\n        /* \"@openzeppelin/contracts/token/ERC20/ERC20.sol\":7073:7085  _totalSupply */\n      0x02\n      0x00\n        /* \"@openzeppelin/contracts/token/ERC20/ERC20.sol\":7073:7094  _totalSupply -= value */\n      dup3\n      dup3\n      sload\n      sub\n      swap3\n      pop\n      pop\n      dup2\n      swap1\n      sstore\n      pop\n        /* \"@openzeppelin/contracts/token/ERC20/ERC20.sol\":6906:7331  if (to == address(0)) {... */\n      jump(tag_301)\n    tag_300:\n        /* \"@openzeppelin/contracts/token/ERC20/ERC20.sol\":7301:7306  value */\n      dup1\n        /* \"@openzeppelin/contracts/token/ERC20/ERC20.sol\":7284:7293  _balances */\n      0x00\n        /* \"@openzeppelin/contracts/token/ERC20/ERC20.sol\":7284:7297  _balances[to] */\n      dup1\n        /* \"@openzeppelin/contracts/token/ERC20/ERC20.sol\":7294:7296  to */\n      dup5\n        /* \"@openzeppelin/contracts/token/ERC20/ERC20.sol\":7284:7297  _balances[to] */\n      0xffffffffffffffffffffffffffffffffffffffff\n      and\n      0xffffffffffffffffffffffffffffffffffffffff\n      and\n      dup2\n      mstore\n      0x20\n      add\n      swap1\n      dup2\n      mstore\n      0x20\n      add\n      0x00\n      keccak256\n      0x00\n        /* \"@openzeppelin/contracts/token/ERC20/ERC20.sol\":7284:7306  _balances[to] += value */\n      dup3\n      dup3\n      sload\n      add\n      swap3\n      pop\n      pop\n      dup2\n      swap1\n      sstore\n      pop\n        /* \"@openzeppelin/contracts/token/ERC20/ERC20.sol\":6906:7331  if (to == address(0)) {... */\n    tag_301:\n        /* \"@openzeppelin/contracts/token/ERC20/ERC20.sol\":7361:7363  to */\n      dup2\n        /* \"@openzeppelin/contracts/token/ERC20/ERC20.sol\":7346:7371  Transfer(from, to, value) */\n      0xffffffffffffffffffffffffffffffffffffffff\n      and\n        /* \"@openzeppelin/contracts/token/ERC20/ERC20.sol\":7355:7359  from */\n      dup4\n        /* \"@openzeppelin/contracts/token/ERC20/ERC20.sol\":7346:7371  Transfer(from, to, value) */\n      0xffffffffffffffffffffffffffffffffffffffff\n      and\n      0xddf252ad1be2c89b69c2b068fc378daa952ba7f163c4a11628f55a4df523b3ef\n        /* \"@openzeppelin/contracts/token/ERC20/ERC20.sol\":7365:7370  value */\n      dup4\n        /* \"@openzeppelin/contracts/token/ERC20/ERC20.sol\":7346:7371  Transfer(from, to, value) */\n      mload(0x40)\n      tag_302\n      swap2\n      swap1\n      tag_48\n      jump\t// in\n    tag_302:\n      mload(0x40)\n      dup1\n      swap2\n      sub\n      swap1\n      log3\n        /* \"@openzeppelin/contracts/token/ERC20/ERC20.sol\":6271:7378  function _update(address from, address to, uint256 value) internal virtual {... */\n      pop\n      pop\n      pop\n      jump\t// out\n        /* \"#utility.yul\":7:106   */\n    tag_303:\n        /* \"#utility.yul\":59:65   */\n      0x00\n        /* \"#utility.yul\":93:98   */\n      dup2\n        /* \"#utility.yul\":87:99   */\n      mload\n        /* \"#utility.yul\":77:99   */\n      swap1\n      pop\n        /* \"#utility.yul\":7:106   */\n      swap2\n      swap1\n      pop\n      jump\t// out\n        /* \"#utility.yul\":112:281   */\n    tag_304:\n        /* \"#utility.yul\":196:207   */\n      0x00\n        /* \"#utility.yul\":230:236   */\n      dup3\n        /* \"#utility.yul\":225:228   */\n      dup3\n        /* \"#utility.yul\":218:237   */\n      mstore\n        /* \"#utility.yul\":270:274   */\n      0x20\n        /* \"#utility.yul\":265:268   */\n      dup3\n        /* \"#utility.yul\":261:275   */\n      add\n        /* \"#utility.yul\":246:275   */\n      swap1\n      pop\n        /* \"#utility.yul\":112:281   */\n      swap3\n      swap2\n      pop\n      pop\n      jump\t// out\n        /* \"#utility.yul\":287:426   */\n    tag_305:\n        /* \"#utility.yul\":376:382   */\n      dup3\n        /* \"#utility.yul\":371:374   */\n      dup2\n        /* \"#utility.yul\":366:369   */\n      dup4\n        /* \"#utility.yul\":360:383   */\n      mcopy\n        /* \"#utility.yul\":417:418   */\n      0x00\n        /* \"#utility.yul\":408:414   */\n      dup4\n        /* \"#utility.yul\":403:406   */\n      dup4\n        /* \"#utility.yul\":399:415   */\n      add\n        /* \"#utility.yul\":392:419   */\n      mstore\n        /* \"#utility.yul\":287:426   */\n      pop\n      pop\n      pop\n      jump\t// out\n        /* \"#utility.yul\":432:534   */\n    tag_306:\n        /* \"#utility.yul\":473:479   */\n      0x00\n        /* \"#utility.yul\":524:526   */\n      0x1f\n        /* \"#utility.yul\":520:527   */\n      not\n        /* \"#utility.yul\":515:517   */\n      0x1f\n        /* \"#utility.yul\":508:513   */\n      dup4\n        /* \"#utility.yul\":504:518   */\n      add\n        /* \"#utility.yul\":500:528   */\n      and\n        /* \"#utility.yul\":490:528   */\n      swap1\n      pop\n        /* \"#utility.yul\":432:534   */\n      swap2\n      swap1\n      pop\n      jump\t// out\n        /* \"#utility.yul\":540:917   */\n    tag_307:\n        /* \"#utility.yul\":628:631   */\n      0x00\n        /* \"#utility.yul\":656:695   */\n      tag_392\n        /* \"#utility.yul\":689:694   */\n      dup3\n        /* \"#utility.yul\":656:695   */\n      tag_303\n      jump\t// in\n    tag_392:\n        /* \"#utility.yul\":711:782   */\n      tag_393\n        /* \"#utility.yul\":775:781   */\n      dup2\n        /* \"#utility.yul\":770:773   */\n      dup6\n        /* \"#utility.yul\":711:782   */\n      tag_304\n      jump\t// in\n    tag_393:\n        /* \"#utility.yul\":704:782   */\n      swap4\n      pop\n        /* \"#utility.yul\":791:856   */\n      tag_394\n        /* \"#utility.yul\":849:855   */\n      dup2\n        /* \"#utility.yul\":844:847   */\n      dup6\n        /* \"#utility.yul\":837:841   */\n      0x20\n        /* \"#utility.yul\":830:835   */\n      dup7\n        /* \"#utility.yul\":826:842   */\n      add\n        /* \"#utility.yul\":791:856   */\n      tag_305\n      jump\t// in\n    tag_394:\n        /* \"#utility.yul\":881:910   */\n      tag_395\n        /* \"#utility.yul\":903:909   */\n      dup2\n        /* \"#utility.yul\":881:910   */\n      tag_306\n      jump\t// in\n    tag_395:\n        /* \"#utility.yul\":876:879   */\n      dup5\n        /* \"#utility.yul\":872:911   */\n      add\n        /* \"#utility.yul\":865:911   */\n      swap2\n      pop\n        /* \"#utility.yul\":632:917   */\n      pop\n        /* \"#utility.yul\":540:917   */\n      swap3\n      swap2\n      pop\n      pop\n      jump\t// out\n        /* \"#utility.yul\":923:1236   */\n    tag_35:\n        /* \"#utility.yul\":1036:1040   */\n      0x00\n        /* \"#utility.yul\":1074:1076   */\n      0x20\n        /* \"#utility.yul\":1063:1072   */\n      dup3\n        /* \"#utility.yul\":1059:1077   */\n      add\n        /* \"#utility.yul\":1051:1077   */\n      swap1\n      pop\n        /* \"#utility.yul\":1123:1132   */\n      dup2\n        /* \"#utility.yul\":1117:1121   */\n      dup2\n        /* \"#utility.yul\":1113:1133   */\n      sub\n        /* \"#utility.yul\":1109:1110   */\n      0x00\n        /* \"#utility.yul\":1098:1107   */\n      dup4\n        /* \"#utility.yul\":1094:1111   */\n      add\n        /* \"#utility.yul\":1087:1134   */\n      mstore\n        /* \"#utility.yul\":1151:1229   */\n      tag_397\n        /* \"#utility.yul\":1224:1228   */\n      dup2\n        /* \"#utility.yul\":1215:1221   */\n      dup5\n        /* \"#utility.yul\":1151:1229   */\n      tag_307\n      jump\t// in\n    tag_397:\n        /* \"#utility.yul\":1143:1229   */\n      swap1\n      pop\n        /* \"#utility.yul\":923:1236   */\n      swap3\n      swap2\n      pop\n      pop\n      jump\t// out\n        /* \"#utility.yul\":1242:1317   */\n    tag_308:\n        /* \"#utility.yul\":1275:1281   */\n      0x00\n        /* \"#utility.yul\":1308:1310   */\n      0x40\n        /* \"#utility.yul\":1302:1311   */\n      mload\n        /* \"#utility.yul\":1292:1311   */\n      swap1\n      pop\n        /* \"#utility.yul\":1242:1317   */\n      swap1\n      jump\t// out\n        /* \"#utility.yul\":1323:1440   */\n    tag_309:\n        /* \"#utility.yul\":1432:1433   */\n      0x00\n        /* \"#utility.yul\":1429:1430   */\n      dup1\n        /* \"#utility.yul\":1422:1434   */\n      revert\n        /* \"#utility.yul\":1446:1563   */\n    tag_310:\n        /* \"#utility.yul\":1555:1556   */\n      0x00\n        /* \"#utility.yul\":1552:1553   */\n      dup1\n        /* \"#utility.yul\":1545:1557   */\n      revert\n        /* \"#utility.yul\":1569:1695   */\n    tag_311:\n        /* \"#utility.yul\":1606:1613   */\n      0x00\n        /* \"#utility.yul\":1646:1688   */\n      0xffffffffffffffffffffffffffffffffffffffff\n        /* \"#utility.yul\":1639:1644   */\n      dup3\n        /* \"#utility.yul\":1635:1689   */\n      and\n        /* \"#utility.yul\":1624:1689   */\n      swap1\n      pop\n        /* \"#utility.yul\":1569:1695   */\n      swap2\n      swap1\n      pop\n      jump\t// out\n        /* \"#utility.yul\":1701:1797   */\n    tag_312:\n        /* \"#utility.yul\":1738:1745   */\n      0x00\n        /* \"#utility.yul\":1767:1791   */\n      tag_403\n        /* \"#utility.yul\":1785:1790   */\n      dup3\n        /* \"#utility.yul\":1767:1791   */\n      tag_311\n      jump\t// in\n    tag_403:\n        /* \"#utility.yul\":1756:1791   */\n      swap1\n      pop\n        /* \"#utility.yul\":1701:1797   */\n      swap2\n      swap1\n      pop\n      jump\t// out\n        /* \"#utility.yul\":1803:1925   */\n    tag_313:\n        /* \"#utility.yul\":1876:1900   */\n      tag_405\n        /* \"#utility.yul\":1894:1899   */\n      dup2\n        /* \"#utility.yul\":1876:1900   */\n      tag_312\n      jump\t// in\n    tag_405:\n        /* \"#utility.yul\":1869:1874   */\n      dup2\n        /* \"#utility.yul\":1866:1901   */\n      eq\n        /* \"#utility.yul\":1856:1919   */\n      tag_406\n      jumpi\n        /* \"#utility.yul\":1915:1916   */\n      0x00\n        /* \"#utility.yul\":1912:1913   */\n      dup1\n        /* \"#utility.yul\":1905:1917   */\n      revert\n        /* \"#utility.yul\":1856:1919   */\n    tag_406:\n        /* \"#utility.yul\":1803:1925   */\n      pop\n      jump\t// out\n        /* \"#utility.yul\":1931:2070   */\n    tag_314:\n        /* \"#utility.yul\":1977:1982   */\n      0x00\n        /* \"#utility.yul\":2015:2021   */\n      dup2\n        /* \"#utility.yul\":2002:2022   */\n      calldataload\n        /* \"#utility.yul\":1993:2022   */\n      swap1\n      pop\n        /* \"#utility.yul\":2031:2064   */\n      tag_408\n        /* \"#utility.yul\":2058:2063   */\n      dup2\n        /* \"#utility.yul\":2031:2064   */\n      tag_313\n      jump\t// in\n    tag_408:\n        /* \"#utility.yul\":1931:2070   */\n      swap3\n      swap2\n      pop\n      pop\n      jump\t// out\n        /* \"#utility.yul\":2076:2153   */\n    tag_315:\n        /* \"#utility.yul\":2113:2120   */\n      0x00\n        /* \"#utility.yul\":2142:2147   */\n      dup2\n        /* \"#utility.yul\":2131:2147   */\n      swap1\n      pop\n        /* \"#utility.yul\":2076:2153   */\n      swap2\n      swap1\n      pop\n      jump\t// out\n        /* \"#utility.yul\":2159:2281   */\n    tag_316:\n        /* \"#utility.yul\":2232:2256   */\n      tag_411\n        /* \"#utility.yul\":2250:2255   */\n      dup2\n        /* \"#utility.yul\":2232:2256   */\n      tag_315\n      jump\t// in\n    tag_411:\n        /* \"#utility.yul\":2225:2230   */\n      dup2\n        /* \"#utility.yul\":2222:2257   */\n      eq\n        /* \"#utility.yul\":2212:2275   */\n      tag_412\n      jumpi\n        /* \"#utility.yul\":2271:2272   */\n      0x00\n        /* \"#utility.yul\":2268:2269   */\n      dup1\n        /* \"#utility.yul\":2261:2273   */\n      revert\n        /* \"#utility.yul\":2212:2275   */\n    tag_412:\n        /* \"#utility.yul\":2159:2281   */\n      pop\n      jump\t// out\n        /* \"#utility.yul\":2287:2426   */\n    tag_317:\n        /* \"#utility.yul\":2333:2338   */\n      0x00\n        /* \"#utility.yul\":2371:2377   */\n      dup2\n        /* \"#utility.yul\":2358:2378   */\n      calldataload\n        /* \"#utility.yul\":2349:2378   */\n      swap1\n      pop\n        /* \"#utility.yul\":2387:2420   */\n      tag_414\n        /* \"#utility.yul\":2414:2419   */\n      dup2\n        /* \"#utility.yul\":2387:2420   */\n      tag_316\n      jump\t// in\n    tag_414:\n        /* \"#utility.yul\":2287:2426   */\n      swap3\n      swap2\n      pop\n      pop\n      jump\t// out\n        /* \"#utility.yul\":2432:2906   */\n    tag_38:\n        /* \"#utility.yul\":2500:2506   */\n      0x00\n        /* \"#utility.yul\":2508:2514   */\n      dup1\n        /* \"#utility.yul\":2557:2559   */\n      0x40\n        /* \"#utility.yul\":2545:2554   */\n      dup4\n        /* \"#utility.yul\":2536:2543   */\n      dup6\n        /* \"#utility.yul\":2532:2555   */\n      sub\n        /* \"#utility.yul\":2528:2560   */\n      slt\n        /* \"#utility.yul\":2525:2644   */\n      iszero\n      tag_416\n      jumpi\n        /* \"#utility.yul\":2563:2642   */\n      tag_417\n      tag_309\n      jump\t// in\n    tag_417:\n        /* \"#utility.yul\":2525:2644   */\n    tag_416:\n        /* \"#utility.yul\":2683:2684   */\n      0x00\n        /* \"#utility.yul\":2708:2761   */\n      tag_418\n        /* \"#utility.yul\":2753:2760   */\n      dup6\n        /* \"#utility.yul\":2744:2750   */\n      dup3\n        /* \"#utility.yul\":2733:2742   */\n      dup7\n        /* \"#utility.yul\":2729:2751   */\n      add\n        /* \"#utility.yul\":2708:2761   */\n      tag_314\n      jump\t// in\n    tag_418:\n        /* \"#utility.yul\":2698:2761   */\n      swap3\n      pop\n        /* \"#utility.yul\":2654:2771   */\n      pop\n        /* \"#utility.yul\":2810:2812   */\n      0x20\n        /* \"#utility.yul\":2836:2889   */\n      tag_419\n        /* \"#utility.yul\":2881:2888   */\n      dup6\n        /* \"#utility.yul\":2872:2878   */\n      dup3\n        /* \"#utility.yul\":2861:2870   */\n      dup7\n        /* \"#utility.yul\":2857:2879   */\n      add\n        /* \"#utility.yul\":2836:2889   */\n      tag_317\n      jump\t// in\n    tag_419:\n        /* \"#utility.yul\":2826:2889   */\n      swap2\n      pop\n        /* \"#utility.yul\":2781:2899   */\n      pop\n        /* \"#utility.yul\":2432:2906   */\n      swap3\n      pop\n      swap3\n      swap1\n      pop\n      jump\t// out\n        /* \"#utility.yul\":2912:3002   */\n    tag_318:\n        /* \"#utility.yul\":2946:2953   */\n      0x00\n        /* \"#utility.yul\":2989:2994   */\n      dup2\n        /* \"#utility.yul\":2982:2995   */\n      iszero\n        /* \"#utility.yul\":2975:2996   */\n      iszero\n        /* \"#utility.yul\":2964:2996   */\n      swap1\n      pop\n        /* \"#utility.yul\":2912:3002   */\n      swap2\n      swap1\n      pop\n      jump\t// out\n        /* \"#utility.yul\":3008:3117   */\n    tag_319:\n        /* \"#utility.yul\":3089:3110   */\n      tag_422\n        /* \"#utility.yul\":3104:3109   */\n      dup2\n        /* \"#utility.yul\":3089:3110   */\n      tag_318\n      jump\t// in\n    tag_422:\n        /* \"#utility.yul\":3084:3087   */\n      dup3\n        /* \"#utility.yul\":3077:3111   */\n      mstore\n        /* \"#utility.yul\":3008:3117   */\n      pop\n      pop\n      jump\t// out\n        /* \"#utility.yul\":3123:3333   */\n    tag_41:\n        /* \"#utility.yul\":3210:3214   */\n      0x00\n        /* \"#utility.yul\":3248:3250   */\n      0x20\n        /* \"#utility.yul\":3237:3246   */\n      dup3\n        /* \"#utility.yul\":3233:3251   */\n      add\n        /* \"#utility.yul\":3225:3251   */\n      swap1\n      pop\n        /* \"#utility.yul\":3261:3326   */\n      tag_424\n        /* \"#utility.yul\":3323:3324   */\n      0x00\n        /* \"#utility.yul\":3312:3321   */\n      dup4\n        /* \"#utility.yul\":3308:3325   */\n      add\n        /* \"#utility.yul\":3299:3305   */\n      dup5\n        /* \"#utility.yul\":3261:3326   */\n      tag_319\n      jump\t// in\n    tag_424:\n        /* \"#utility.yul\":3123:3333   */\n      swap3\n      swap2\n      pop\n      pop\n      jump\t// out\n        /* \"#utility.yul\":3339:3457   */\n    tag_320:\n        /* \"#utility.yul\":3426:3450   */\n      tag_426\n        /* \"#utility.yul\":3444:3449   */\n      dup2\n        /* \"#utility.yul\":3426:3450   */\n      tag_315\n      jump\t// in\n    tag_426:\n        /* \"#utility.yul\":3421:3424   */\n      dup3\n        /* \"#utility.yul\":3414:3451   */\n      mstore\n        /* \"#utility.yul\":3339:3457   */\n      pop\n      pop\n      jump\t// out\n        /* \"#utility.yul\":3463:3685   */\n    tag_48:\n        /* \"#utility.yul\":3556:3560   */\n      0x00\n        /* \"#utility.yul\":3594:3596   */\n      0x20\n        /* \"#utility.yul\":3583:3592   */\n      dup3\n        /* \"#utility.yul\":3579:3597   */\n      add\n        /* \"#utility.yul\":3571:3597   */\n      swap1\n      pop\n        /* \"#utility.yul\":3607:3678   */\n      tag_428\n        /* \"#utility.yul\":3675:3676   */\n      0x00\n        /* \"#utility.yul\":3664:3673   */\n      dup4\n        /* \"#utility.yul\":3660:3677   */\n      add\n        /* \"#utility.yul\":3651:3657   */\n      dup5\n        /* \"#utility.yul\":3607:3678   */\n      tag_320\n      jump\t// in\n    tag_428:\n        /* \"#utility.yul\":3463:3685   */\n      swap3\n      swap2\n      pop\n      pop\n      jump\t// out\n        /* \"#utility.yul\":3691:3777   */\n    tag_321:\n        /* \"#utility.yul\":3726:3733   */\n      0x00\n        /* \"#utility.yul\":3766:3770   */\n      0xff\n        /* \"#utility.yul\":3759:3764   */\n      dup3\n        /* \"#utility.yul\":3755:3771   */\n      and\n        /* \"#utility.yul\":3744:3771   */\n      swap1\n      pop\n        /* \"#utility.yul\":3691:3777   */\n      swap2\n      swap1\n      pop\n      jump\t// out\n        /* \"#utility.yul\":3783:3895   */\n    tag_322:\n        /* \"#utility.yul\":3866:3888   */\n      tag_431\n        /* \"#utility.yul\":3882:3887   */\n      dup2\n        /* \"#utility.yul\":3866:3888   */\n      tag_321\n      jump\t// in\n    tag_431:\n        /* \"#utility.yul\":3861:3864   */\n      dup3\n        /* \"#utility.yul\":3854:3889   */\n      mstore\n        /* \"#utility.yul\":3783:3895   */\n      pop\n      pop\n      jump\t// out\n        /* \"#utility.yul\":3901:4115   */\n    tag_52:\n        /* \"#utility.yul\":3990:3994   */\n      0x00\n        /* \"#utility.yul\":4028:4030   */\n      0x20\n        /* \"#utility.yul\":4017:4026   */\n      dup3\n        /* \"#utility.yul\":4013:4031   */\n      add\n        /* \"#utility.yul\":4005:4031   */\n      swap1\n      pop\n        /* \"#utility.yul\":4041:4108   */\n      tag_433\n        /* \"#utility.yul\":4105:4106   */\n      0x00\n        /* \"#utility.yul\":4094:4103   */\n      dup4\n        /* \"#utility.yul\":4090:4107   */\n      add\n        /* \"#utility.yul\":4081:4087   */\n      dup5\n        /* \"#utility.yul\":4041:4108   */\n      tag_322\n      jump\t// in\n    tag_433:\n        /* \"#utility.yul\":3901:4115   */\n      swap3\n      swap2\n      pop\n      pop\n      jump\t// out\n        /* \"#utility.yul\":4121:4740   */\n    tag_58:\n        /* \"#utility.yul\":4198:4204   */\n      0x00\n        /* \"#utility.yul\":4206:4212   */\n      dup1\n        /* \"#utility.yul\":4214:4220   */\n      0x00\n        /* \"#utility.yul\":4263:4265   */\n      0x60\n        /* \"#utility.yul\":4251:4260   */\n      dup5\n        /* \"#utility.yul\":4242:4249   */\n      dup7\n        /* \"#utility.yul\":4238:4261   */\n      sub\n        /* \"#utility.yul\":4234:4266   */\n      slt\n        /* \"#utility.yul\":4231:4350   */\n      iszero\n      tag_435\n      jumpi\n        /* \"#utility.yul\":4269:4348   */\n      tag_436\n      tag_309\n      jump\t// in\n    tag_436:\n        /* \"#utility.yul\":4231:4350   */\n    tag_435:\n        /* \"#utility.yul\":4389:4390   */\n      0x00\n        /* \"#utility.yul\":4414:4467   */\n      tag_437\n        /* \"#utility.yul\":4459:4466   */\n      dup7\n        /* \"#utility.yul\":4450:4456   */\n      dup3\n        /* \"#utility.yul\":4439:4448   */\n      dup8\n        /* \"#utility.yul\":4435:4457   */\n      add\n        /* \"#utility.yul\":4414:4467   */\n      tag_314\n      jump\t// in\n    tag_437:\n        /* \"#utility.yul\":4404:4467   */\n      swap4\n      pop\n        /* \"#utility.yul\":4360:4477   */\n      pop\n        /* \"#utility.yul\":4516:4518   */\n      0x20\n        /* \"#utility.yul\":4542:4595   */\n      tag_438\n        /* \"#utility.yul\":4587:4594   */\n      dup7\n        /* \"#utility.yul\":4578:4584   */\n      dup3\n        /* \"#utility.yul\":4567:4576   */\n      dup8\n        /* \"#utility.yul\":4563:4585   */\n      add\n        /* \"#utility.yul\":4542:4595   */\n      tag_314\n      jump\t// in\n    tag_438:\n        /* \"#utility.yul\":4532:4595   */\n      swap3\n      pop\n        /* \"#utility.yul\":4487:4605   */\n      pop\n        /* \"#utility.yul\":4644:4646   */\n      0x40\n        /* \"#utility.yul\":4670:4723   */\n      tag_439\n        /* \"#utility.yul\":4715:4722   */\n      dup7\n        /* \"#utility.yul\":4706:4712   */\n      dup3\n        /* \"#utility.yul\":4695:4704   */\n      dup8\n        /* \"#utility.yul\":4691:4713   */\n      add\n        /* \"#utility.yul\":4670:4723   */\n      tag_317\n      jump\t// in\n    tag_439:\n        /* \"#utility.yul\":4660:4723   */\n      swap2\n      pop\n        /* \"#utility.yul\":4615:4733   */\n      pop\n        /* \"#utility.yul\":4121:4740   */\n      swap3\n      pop\n      swap3\n      pop\n      swap3\n      jump\t// out\n        /* \"#utility.yul\":4746:5075   */\n    tag_69:\n        /* \"#utility.yul\":4805:4811   */\n      0x00\n        /* \"#utility.yul\":4854:4856   */\n      0x20\n        /* \"#utility.yul\":4842:4851   */\n      dup3\n        /* \"#utility.yul\":4833:4840   */\n      dup5\n        /* \"#utility.yul\":4829:4852   */\n      sub\n        /* \"#utility.yul\":4825:4857   */\n      slt\n        /* \"#utility.yul\":4822:4941   */\n      iszero\n      tag_441\n      jumpi\n        /* \"#utility.yul\":4860:4939   */\n      tag_442\n      tag_309\n      jump\t// in\n    tag_442:\n        /* \"#utility.yul\":4822:4941   */\n    tag_441:\n        /* \"#utility.yul\":4980:4981   */\n      0x00\n        /* \"#utility.yul\":5005:5058   */\n      tag_443\n        /* \"#utility.yul\":5050:5057   */\n      dup5\n        /* \"#utility.yul\":5041:5047   */\n      dup3\n        /* \"#utility.yul\":5030:5039   */\n      dup6\n        /* \"#utility.yul\":5026:5048   */\n      add\n        /* \"#utility.yul\":5005:5058   */\n      tag_317\n      jump\t// in\n    tag_443:\n        /* \"#utility.yul\":4995:5058   */\n      swap2\n      pop\n        /* \"#utility.yul\":4951:5068   */\n      pop\n        /* \"#utility.yul\":4746:5075   */\n      swap3\n      swap2\n      pop\n      pop\n      jump\t// out\n        /* \"#utility.yul\":5081:5198   */\n    tag_323:\n        /* \"#utility.yul\":5190:5191   */\n      0x00\n        /* \"#utility.yul\":5187:5188   */\n      dup1\n        /* \"#utility.yul\":5180:5192   */\n      revert\n        /* \"#utility.yul\":5204:5321   */\n    tag_324:\n        /* \"#utility.yul\":5313:5314   */\n      0x00\n        /* \"#utility.yul\":5310:5311   */\n      dup1\n        /* \"#utility.yul\":5303:5315   */\n      revert\n        /* \"#utility.yul\":5327:5507   */\n    tag_325:\n        /* \"#utility.yul\":5375:5452   */\n      0x4e487b7100000000000000000000000000000000000000000000000000000000\n        /* \"#utility.yul\":5372:5373   */\n      0x00\n        /* \"#utility.yul\":5365:5453   */\n      mstore\n        /* \"#utility.yul\":5472:5476   */\n      0x41\n        /* \"#utility.yul\":5469:5470   */\n      0x04\n        /* \"#utility.yul\":5462:5477   */\n      mstore\n        /* \"#utility.yul\":5496:5500   */\n      0x24\n        /* \"#utility.yul\":5493:5494   */\n      0x00\n        /* \"#utility.yul\":5486:5501   */\n      revert\n        /* \"#utility.yul\":5513:5794   */\n    tag_326:\n        /* \"#utility.yul\":5596:5623   */\n      tag_448\n        /* \"#utility.yul\":5618:5622   */\n      dup3\n        /* \"#utility.yul\":5596:5623   */\n      tag_306\n      jump\t// in\n    tag_448:\n        /* \"#utility.yul\":5588:5594   */\n      dup2\n        /* \"#utility.yul\":5584:5624   */\n      add\n        /* \"#utility.yul\":5726:5732   */\n      dup2\n        /* \"#utility.yul\":5714:5724   */\n      dup2\n        /* \"#utility.yul\":5711:5733   */\n      lt\n        /* \"#utility.yul\":5690:5708   */\n      0xffffffffffffffff\n        /* \"#utility.yul\":5678:5688   */\n      dup3\n        /* \"#utility.yul\":5675:5709   */\n      gt\n        /* \"#utility.yul\":5672:5734   */\n      or\n        /* \"#utility.yul\":5669:5757   */\n      iszero\n      tag_449\n      jumpi\n        /* \"#utility.yul\":5737:5755   */\n      tag_450\n      tag_325\n      jump\t// in\n    tag_450:\n        /* \"#utility.yul\":5669:5757   */\n    tag_449:\n        /* \"#utility.yul\":5777:5787   */\n      dup1\n        /* \"#utility.yul\":5773:5775   */\n      0x40\n        /* \"#utility.yul\":5766:5788   */\n      mstore\n        /* \"#utility.yul\":5556:5794   */\n      pop\n        /* \"#utility.yul\":5513:5794   */\n      pop\n      pop\n      jump\t// out\n        /* \"#utility.yul\":5800:5929   */\n    tag_327:\n        /* \"#utility.yul\":5834:5840   */\n      0x00\n        /* \"#utility.yul\":5861:5881   */\n      tag_452\n      tag_308\n      jump\t// in\n    tag_452:\n        /* \"#utility.yul\":5851:5881   */\n      swap1\n      pop\n        /* \"#utility.yul\":5890:5923   */\n      tag_453\n        /* \"#utility.yul\":5918:5922   */\n      dup3\n        /* \"#utility.yul\":5910:5916   */\n      dup3\n        /* \"#utility.yul\":5890:5923   */\n      tag_326\n      jump\t// in\n    tag_453:\n        /* \"#utility.yul\":5800:5929   */\n      swap2\n      swap1\n      pop\n      jump\t// out\n        /* \"#utility.yul\":5935:6243   */\n    tag_328:\n        /* \"#utility.yul\":5997:6001   */\n      0x00\n        /* \"#utility.yul\":6087:6105   */\n      0xffffffffffffffff\n        /* \"#utility.yul\":6079:6085   */\n      dup3\n        /* \"#utility.yul\":6076:6106   */\n      gt\n        /* \"#utility.yul\":6073:6129   */\n      iszero\n      tag_455\n      jumpi\n        /* \"#utility.yul\":6109:6127   */\n      tag_456\n      tag_325\n      jump\t// in\n    tag_456:\n        /* \"#utility.yul\":6073:6129   */\n    tag_455:\n        /* \"#utility.yul\":6147:6176   */\n      tag_457\n        /* \"#utility.yul\":6169:6175   */\n      dup3\n        /* \"#utility.yul\":6147:6176   */\n      tag_306\n      jump\t// in\n    tag_457:\n        /* \"#utility.yul\":6139:6176   */\n      swap1\n      pop\n        /* \"#utility.yul\":6231:6235   */\n      0x20\n        /* \"#utility.yul\":6225:6229   */\n      dup2\n        /* \"#utility.yul\":6221:6236   */\n      add\n        /* \"#utility.yul\":6213:6236   */\n      swap1\n      pop\n        /* \"#utility.yul\":5935:6243   */\n      swap2\n      swap1\n      pop\n      jump\t// out\n        /* \"#utility.yul\":6249:6397   */\n    tag_329:\n        /* \"#utility.yul\":6347:6353   */\n      dup3\n        /* \"#utility.yul\":6342:6345   */\n      dup2\n        /* \"#utility.yul\":6337:6340   */\n      dup4\n        /* \"#utility.yul\":6324:6354   */\n      calldatacopy\n        /* \"#utility.yul\":6388:6389   */\n      0x00\n        /* \"#utility.yul\":6379:6385   */\n      dup4\n        /* \"#utility.yul\":6374:6377   */\n      dup4\n        /* \"#utility.yul\":6370:6386   */\n      add\n        /* \"#utility.yul\":6363:6390   */\n      mstore\n        /* \"#utility.yul\":6249:6397   */\n      pop\n      pop\n      pop\n      jump\t// out\n        /* \"#utility.yul\":6403:6828   */\n    tag_330:\n        /* \"#utility.yul\":6481:6486   */\n      0x00\n        /* \"#utility.yul\":6506:6572   */\n      tag_460\n        /* \"#utility.yul\":6522:6571   */\n      tag_461\n        /* \"#utility.yul\":6564:6570   */\n      dup5\n        /* \"#utility.yul\":6522:6571   */\n      tag_328\n      jump\t// in\n    tag_461:\n        /* \"#utility.yul\":6506:6572   */\n      tag_327\n      jump\t// in\n    tag_460:\n        /* \"#utility.yul\":6497:6572   */\n      swap1\n      pop\n        /* \"#utility.yul\":6595:6601   */\n      dup3\n        /* \"#utility.yul\":6588:6593   */\n      dup2\n        /* \"#utility.yul\":6581:6602   */\n      mstore\n        /* \"#utility.yul\":6633:6637   */\n      0x20\n        /* \"#utility.yul\":6626:6631   */\n      dup2\n        /* \"#utility.yul\":6622:6638   */\n      add\n        /* \"#utility.yul\":6671:6674   */\n      dup5\n        /* \"#utility.yul\":6662:6668   */\n      dup5\n        /* \"#utility.yul\":6657:6660   */\n      dup5\n        /* \"#utility.yul\":6653:6669   */\n      add\n        /* \"#utility.yul\":6650:6675   */\n      gt\n        /* \"#utility.yul\":6647:6759   */\n      iszero\n      tag_462\n      jumpi\n        /* \"#utility.yul\":6678:6757   */\n      tag_463\n      tag_324\n      jump\t// in\n    tag_463:\n        /* \"#utility.yul\":6647:6759   */\n    tag_462:\n        /* \"#utility.yul\":6768:6822   */\n      tag_464\n        /* \"#utility.yul\":6815:6821   */\n      dup5\n        /* \"#utility.yul\":6810:6813   */\n      dup3\n        /* \"#utility.yul\":6805:6808   */\n      dup6\n        /* \"#utility.yul\":6768:6822   */\n      tag_329\n      jump\t// in\n    tag_464:\n        /* \"#utility.yul\":6487:6828   */\n      pop\n        /* \"#utility.yul\":6403:6828   */\n      swap4\n      swap3\n      pop\n      pop\n      pop\n      jump\t// out\n        /* \"#utility.yul\":6848:7188   */\n    tag_331:\n        /* \"#utility.yul\":6904:6909   */\n      0x00\n        /* \"#utility.yul\":6953:6956   */\n      dup3\n        /* \"#utility.yul\":6946:6950   */\n      0x1f\n        /* \"#utility.yul\":6938:6944   */\n      dup4\n        /* \"#utility.yul\":6934:6951   */\n      add\n        /* \"#utility.yul\":6930:6957   */\n      slt\n        /* \"#utility.yul\":6920:7042   */\n      tag_466\n      jumpi\n        /* \"#utility.yul\":6961:7040   */\n      tag_467\n      tag_323\n      jump\t// in\n    tag_467:\n        /* \"#utility.yul\":6920:7042   */\n    tag_466:\n        /* \"#utility.yul\":7078:7084   */\n      dup2\n        /* \"#utility.yul\":7065:7085   */\n      calldataload\n        /* \"#utility.yul\":7103:7182   */\n      tag_468\n        /* \"#utility.yul\":7178:7181   */\n      dup5\n        /* \"#utility.yul\":7170:7176   */\n      dup3\n        /* \"#utility.yul\":7163:7167   */\n      0x20\n        /* \"#utility.yul\":7155:7161   */\n      dup7\n        /* \"#utility.yul\":7151:7168   */\n      add\n        /* \"#utility.yul\":7103:7182   */\n      tag_330\n      jump\t// in\n    tag_468:\n        /* \"#utility.yul\":7094:7182   */\n      swap2\n      pop\n        /* \"#utility.yul\":6910:7188   */\n      pop\n        /* \"#utility.yul\":6848:7188   */\n      swap3\n      swap2\n      pop\n      pop\n      jump\t// out\n        /* \"#utility.yul\":7194:7848   */\n    tag_73:\n        /* \"#utility.yul\":7272:7278   */\n      0x00\n        /* \"#utility.yul\":7280:7286   */\n      dup1\n        /* \"#utility.yul\":7329:7331   */\n      0x40\n        /* \"#utility.yul\":7317:7326   */\n      dup4\n        /* \"#utility.yul\":7308:7315   */\n      dup6\n        /* \"#utility.yul\":7304:7327   */\n      sub\n        /* \"#utility.yul\":7300:7332   */\n      slt\n        /* \"#utility.yul\":7297:7416   */\n      iszero\n      tag_470\n      jumpi\n        /* \"#utility.yul\":7335:7414   */\n      tag_471\n      tag_309\n      jump\t// in\n    tag_471:\n        /* \"#utility.yul\":7297:7416   */\n    tag_470:\n        /* \"#utility.yul\":7483:7484   */\n      0x00\n        /* \"#utility.yul\":7472:7481   */\n      dup4\n        /* \"#utility.yul\":7468:7485   */\n      add\n        /* \"#utility.yul\":7455:7486   */\n      calldataload\n        /* \"#utility.yul\":7513:7531   */\n      0xffffffffffffffff\n        /* \"#utility.yul\":7505:7511   */\n      dup2\n        /* \"#utility.yul\":7502:7532   */\n      gt\n        /* \"#utility.yul\":7499:7616   */\n      iszero\n      tag_472\n      jumpi\n        /* \"#utility.yul\":7535:7614   */\n      tag_473\n      tag_310\n      jump\t// in\n    tag_473:\n        /* \"#utility.yul\":7499:7616   */\n    tag_472:\n        /* \"#utility.yul\":7640:7703   */\n      tag_474\n        /* \"#utility.yul\":7695:7702   */\n      dup6\n        /* \"#utility.yul\":7686:7692   */\n      dup3\n        /* \"#utility.yul\":7675:7684   */\n      dup7\n        /* \"#utility.yul\":7671:7693   */\n      add\n        /* \"#utility.yul\":7640:7703   */\n      tag_331\n      jump\t// in\n    tag_474:\n        /* \"#utility.yul\":7630:7703   */\n      swap3\n      pop\n        /* \"#utility.yul\":7426:7713   */\n      pop\n        /* \"#utility.yul\":7752:7754   */\n      0x20\n        /* \"#utility.yul\":7778:7831   */\n      tag_475\n        /* \"#utility.yul\":7823:7830   */\n      dup6\n        /* \"#utility.yul\":7814:7820   */\n      dup3\n        /* \"#utility.yul\":7803:7812   */\n      dup7\n        /* \"#utility.yul\":7799:7821   */\n      add\n        /* \"#utility.yul\":7778:7831   */\n      tag_317\n      jump\t// in\n    tag_475:\n        /* \"#utility.yul\":7768:7831   */\n      swap2\n      pop\n        /* \"#utility.yul\":7723:7841   */\n      pop\n        /* \"#utility.yul\":7194:7848   */\n      swap3\n      pop\n      swap3\n      swap1\n      pop\n      jump\t// out\n        /* \"#utility.yul\":7854:8183   */\n    tag_77:\n        /* \"#utility.yul\":7913:7919   */\n      0x00\n        /* \"#utility.yul\":7962:7964   */\n      0x20\n        /* \"#utility.yul\":7950:7959   */\n      dup3\n        /* \"#utility.yul\":7941:7948   */\n      dup5\n        /* \"#utility.yul\":7937:7960   */\n      sub\n        /* \"#utility.yul\":7933:7965   */\n      slt\n        /* \"#utility.yul\":7930:8049   */\n      iszero\n      tag_477\n      jumpi\n        /* \"#utility.yul\":7968:8047   */\n      tag_478\n      tag_309\n      jump\t// in\n    tag_478:\n        /* \"#utility.yul\":7930:8049   */\n    tag_477:\n        /* \"#utility.yul\":8088:8089   */\n      0x00\n        /* \"#utility.yul\":8113:8166   */\n      tag_479\n        /* \"#utility.yul\":8158:8165   */\n      dup5\n        /* \"#utility.yul\":8149:8155   */\n      dup3\n        /* \"#utility.yul\":8138:8147   */\n      dup6\n        /* \"#utility.yul\":8134:8156   */\n      add\n        /* \"#utility.yul\":8113:8166   */\n      tag_314\n      jump\t// in\n    tag_479:\n        /* \"#utility.yul\":8103:8166   */\n      swap2\n      pop\n        /* \"#utility.yul\":8059:8176   */\n      pop\n        /* \"#utility.yul\":7854:8183   */\n      swap3\n      swap2\n      pop\n      pop\n      jump\t// out\n        /* \"#utility.yul\":8189:8307   */\n    tag_332:\n        /* \"#utility.yul\":8276:8300   */\n      tag_481\n        /* \"#utility.yul\":8294:8299   */\n      dup2\n        /* \"#utility.yul\":8276:8300   */\n      tag_312\n      jump\t// in\n    tag_481:\n        /* \"#utility.yul\":8271:8274   */\n      dup3\n        /* \"#utility.yul\":8264:8301   */\n      mstore\n        /* \"#utility.yul\":8189:8307   */\n      pop\n      pop\n      jump\t// out\n        /* \"#utility.yul\":8313:8535   */\n    tag_91:\n        /* \"#utility.yul\":8406:8410   */\n      0x00\n        /* \"#utility.yul\":8444:8446   */\n      0x20\n        /* \"#utility.yul\":8433:8442   */\n      dup3\n        /* \"#utility.yul\":8429:8447   */\n      add\n        /* \"#utility.yul\":8421:8447   */\n      swap1\n      pop\n        /* \"#utility.yul\":8457:8528   */\n      tag_483\n        /* \"#utility.yul\":8525:8526   */\n      0x00\n        /* \"#utility.yul\":8514:8523   */\n      dup4\n        /* \"#utility.yul\":8510:8527   */\n      add\n        /* \"#utility.yul\":8501:8507   */\n      dup5\n        /* \"#utility.yul\":8457:8528   */\n      tag_332\n      jump\t// in\n    tag_483:\n        /* \"#utility.yul\":8313:8535   */\n      swap3\n      swap2\n      pop\n      pop\n      jump\t// out\n        /* \"#utility.yul\":8541:8659   */\n    tag_333:\n        /* \"#utility.yul\":8612:8634   */\n      tag_485\n        /* \"#utility.yul\":8628:8633   */\n      dup2\n        /* \"#utility.yul\":8612:8634   */\n      tag_321\n      jump\t// in\n    tag_485:\n        /* \"#utility.yul\":8605:8610   */\n      dup2\n        /* \"#utility.yul\":8602:8635   */\n      eq\n        /* \"#utility.yul\":8592:8653   */\n      tag_486\n      jumpi\n        /* \"#utility.yul\":8649:8650   */\n      0x00\n        /* \"#utility.yul\":8646:8647   */\n      dup1\n        /* \"#utility.yul\":8639:8651   */\n      revert\n        /* \"#utility.yul\":8592:8653   */\n    tag_486:\n        /* \"#utility.yul\":8541:8659   */\n      pop\n      jump\t// out\n        /* \"#utility.yul\":8665:8800   */\n    tag_334:\n        /* \"#utility.yul\":8709:8714   */\n      0x00\n        /* \"#utility.yul\":8747:8753   */\n      dup2\n        /* \"#utility.yul\":8734:8754   */\n      calldataload\n        /* \"#utility.yul\":8725:8754   */\n      swap1\n      pop\n        /* \"#utility.yul\":8763:8794   */\n      tag_488\n        /* \"#utility.yul\":8788:8793   */\n      dup2\n        /* \"#utility.yul\":8763:8794   */\n      tag_333\n      jump\t// in\n    tag_488:\n        /* \"#utility.yul\":8665:8800   */\n      swap3\n      swap2\n      pop\n      pop\n      jump\t// out\n        /* \"#utility.yul\":8806:9131   */\n    tag_101:\n        /* \"#utility.yul\":8863:8869   */\n      0x00\n        /* \"#utility.yul\":8912:8914   */\n      0x20\n        /* \"#utility.yul\":8900:8909   */\n      dup3\n        /* \"#utility.yul\":8891:8898   */\n      dup5\n        /* \"#utility.yul\":8887:8910   */\n      sub\n        /* \"#utility.yul\":8883:8915   */\n      slt\n        /* \"#utility.yul\":8880:8999   */\n      iszero\n      tag_490\n      jumpi\n        /* \"#utility.yul\":8918:8997   */\n      tag_491\n      tag_309\n      jump\t// in\n    tag_491:\n        /* \"#utility.yul\":8880:8999   */\n    tag_490:\n        /* \"#utility.yul\":9038:9039   */\n      0x00\n        /* \"#utility.yul\":9063:9114   */\n      tag_492\n        /* \"#utility.yul\":9106:9113   */\n      dup5\n        /* \"#utility.yul\":9097:9103   */\n      dup3\n        /* \"#utility.yul\":9086:9095   */\n      dup6\n        /* \"#utility.yul\":9082:9104   */\n      add\n        /* \"#utility.yul\":9063:9114   */\n      tag_334\n      jump\t// in\n    tag_492:\n        /* \"#utility.yul\":9053:9114   */\n      swap2\n      pop\n        /* \"#utility.yul\":9009:9124   */\n      pop\n        /* \"#utility.yul\":8806:9131   */\n      swap3\n      swap2\n      pop\n      pop\n      jump\t// out\n        /* \"#utility.yul\":9137:9272   */\n    tag_335:\n        /* \"#utility.yul\":9225:9231   */\n      0x00\n        /* \"#utility.yul\":9259:9264   */\n      dup2\n        /* \"#utility.yul\":9253:9265   */\n      mload\n        /* \"#utility.yul\":9243:9265   */\n      swap1\n      pop\n        /* \"#utility.yul\":9137:9272   */\n      swap2\n      swap1\n      pop\n      jump\t// out\n        /* \"#utility.yul\":9278:9483   */\n    tag_336:\n        /* \"#utility.yul\":9398:9409   */\n      0x00\n        /* \"#utility.yul\":9432:9438   */\n      dup3\n        /* \"#utility.yul\":9427:9430   */\n      dup3\n        /* \"#utility.yul\":9420:9439   */\n      mstore\n        /* \"#utility.yul\":9472:9476   */\n      0x20\n        /* \"#utility.yul\":9467:9470   */\n      dup3\n        /* \"#utility.yul\":9463:9477   */\n      add\n        /* \"#utility.yul\":9448:9477   */\n      swap1\n      pop\n        /* \"#utility.yul\":9278:9483   */\n      swap3\n      swap2\n      pop\n      pop\n      jump\t// out\n        /* \"#utility.yul\":9489:9642   */\n    tag_337:\n        /* \"#utility.yul\":9577:9581   */\n      0x00\n        /* \"#utility.yul\":9600:9603   */\n      dup2\n        /* \"#utility.yul\":9592:9603   */\n      swap1\n      pop\n        /* \"#utility.yul\":9630:9634   */\n      0x20\n        /* \"#utility.yul\":9625:9628   */\n      dup3\n        /* \"#utility.yul\":9621:9635   */\n      add\n        /* \"#utility.yul\":9613:9635   */\n      swap1\n      pop\n        /* \"#utility.yul\":9489:9642   */\n      swap2\n      swap1\n      pop\n      jump\t// out\n        /* \"#utility.yul\":9648:9807   */\n    tag_338:\n        /* \"#utility.yul\":9722:9733   */\n      0x00\n        /* \"#utility.yul\":9756:9762   */\n      dup3\n        /* \"#utility.yul\":9751:9754   */\n      dup3\n        /* \"#utility.yul\":9744:9763   */\n      mstore\n        /* \"#utility.yul\":9796:9800   */\n      0x20\n        /* \"#utility.yul\":9791:9794   */\n      dup3\n        /* \"#utility.yul\":9787:9801   */\n      add\n        /* \"#utility.yul\":9772:9801   */\n      swap1\n      pop\n        /* \"#utility.yul\":9648:9807   */\n      swap3\n      swap2\n      pop\n      pop\n      jump\t// out\n        /* \"#utility.yul\":9813:10170   */\n    tag_339:\n        /* \"#utility.yul\":9891:9894   */\n      0x00\n        /* \"#utility.yul\":9919:9958   */\n      tag_498\n        /* \"#utility.yul\":9952:9957   */\n      dup3\n        /* \"#utility.yul\":9919:9958   */\n      tag_303\n      jump\t// in\n    tag_498:\n        /* \"#utility.yul\":9974:10035   */\n      tag_499\n        /* \"#utility.yul\":10028:10034   */\n      dup2\n        /* \"#utility.yul\":10023:10026   */\n      dup6\n        /* \"#utility.yul\":9974:10035   */\n      tag_338\n      jump\t// in\n    tag_499:\n        /* \"#utility.yul\":9967:10035   */\n      swap4\n      pop\n        /* \"#utility.yul\":10044:10109   */\n      tag_500\n        /* \"#utility.yul\":10102:10108   */\n      dup2\n        /* \"#utility.yul\":10097:10100   */\n      dup6\n        /* \"#utility.yul\":10090:10094   */\n      0x20\n        /* \"#utility.yul\":10083:10088   */\n      dup7\n        /* \"#utility.yul\":10079:10095   */\n      add\n        /* \"#utility.yul\":10044:10109   */\n      tag_305\n      jump\t// in\n    tag_500:\n        /* \"#utility.yul\":10134:10163   */\n      tag_501\n        /* \"#utility.yul\":10156:10162   */\n      dup2\n        /* \"#utility.yul\":10134:10163   */\n      tag_306\n      jump\t// in\n    tag_501:\n        /* \"#utility.yul\":10129:10132   */\n      dup5\n        /* \"#utility.yul\":10125:10164   */\n      add\n        /* \"#utility.yul\":10118:10164   */\n      swap2\n      pop\n        /* \"#utility.yul\":9895:10170   */\n      pop\n        /* \"#utility.yul\":9813:10170   */\n      swap3\n      swap2\n      pop\n      pop\n      jump\t// out\n        /* \"#utility.yul\":10176:10278   */\n    tag_340:\n        /* \"#utility.yul\":10249:10271   */\n      tag_503\n        /* \"#utility.yul\":10265:10270   */\n      dup2\n        /* \"#utility.yul\":10249:10271   */\n      tag_321\n      jump\t// in\n    tag_503:\n        /* \"#utility.yul\":10244:10247   */\n      dup3\n        /* \"#utility.yul\":10237:10272   */\n      mstore\n        /* \"#utility.yul\":10176:10278   */\n      pop\n      pop\n      jump\t// out\n        /* \"#utility.yul\":10284:10392   */\n    tag_341:\n        /* \"#utility.yul\":10361:10385   */\n      tag_505\n        /* \"#utility.yul\":10379:10384   */\n      dup2\n        /* \"#utility.yul\":10361:10385   */\n      tag_315\n      jump\t// in\n    tag_505:\n        /* \"#utility.yul\":10356:10359   */\n      dup3\n        /* \"#utility.yul\":10349:10386   */\n      mstore\n        /* \"#utility.yul\":10284:10392   */\n      pop\n      pop\n      jump\t// out\n        /* \"#utility.yul\":10454:11215   */\n    tag_342:\n        /* \"#utility.yul\":10555:10558   */\n      0x00\n        /* \"#utility.yul\":10591:10595   */\n      0x60\n        /* \"#utility.yul\":10586:10589   */\n      dup4\n        /* \"#utility.yul\":10582:10596   */\n      add\n        /* \"#utility.yul\":10678:10682   */\n      0x00\n        /* \"#utility.yul\":10671:10676   */\n      dup4\n        /* \"#utility.yul\":10667:10683   */\n      add\n        /* \"#utility.yul\":10661:10684   */\n      mload\n        /* \"#utility.yul\":10731:10734   */\n      dup5\n        /* \"#utility.yul\":10725:10729   */\n      dup3\n        /* \"#utility.yul\":10721:10735   */\n      sub\n        /* \"#utility.yul\":10714:10718   */\n      0x00\n        /* \"#utility.yul\":10709:10712   */\n      dup7\n        /* \"#utility.yul\":10705:10719   */\n      add\n        /* \"#utility.yul\":10698:10736   */\n      mstore\n        /* \"#utility.yul\":10757:10830   */\n      tag_507\n        /* \"#utility.yul\":10825:10829   */\n      dup3\n        /* \"#utility.yul\":10811:10823   */\n      dup3\n        /* \"#utility.yul\":10757:10830   */\n      tag_339\n      jump\t// in\n    tag_507:\n        /* \"#utility.yul\":10749:10830   */\n      swap2\n      pop\n        /* \"#utility.yul\":10606:10841   */\n      pop\n        /* \"#utility.yul\":10925:10929   */\n      0x20\n        /* \"#utility.yul\":10918:10923   */\n      dup4\n        /* \"#utility.yul\":10914:10930   */\n      add\n        /* \"#utility.yul\":10908:10931   */\n      mload\n        /* \"#utility.yul\":10944:11003   */\n      tag_508\n        /* \"#utility.yul\":10997:11001   */\n      0x20\n        /* \"#utility.yul\":10992:10995   */\n      dup7\n        /* \"#utility.yul\":10988:11002   */\n      add\n        /* \"#utility.yul\":10974:10986   */\n      dup3\n        /* \"#utility.yul\":10944:11003   */\n      tag_340\n      jump\t// in\n    tag_508:\n        /* \"#utility.yul\":10851:11013   */\n      pop\n        /* \"#utility.yul\":11096:11100   */\n      0x40\n        /* \"#utility.yul\":11089:11094   */\n      dup4\n        /* \"#utility.yul\":11085:11101   */\n      add\n        /* \"#utility.yul\":11079:11102   */\n      mload\n        /* \"#utility.yul\":11115:11178   */\n      tag_509\n        /* \"#utility.yul\":11172:11176   */\n      0x40\n        /* \"#utility.yul\":11167:11170   */\n      dup7\n        /* \"#utility.yul\":11163:11177   */\n      add\n        /* \"#utility.yul\":11149:11161   */\n      dup3\n        /* \"#utility.yul\":11115:11178   */\n      tag_341\n      jump\t// in\n    tag_509:\n        /* \"#utility.yul\":11023:11188   */\n      pop\n        /* \"#utility.yul\":11205:11209   */\n      dup1\n        /* \"#utility.yul\":11198:11209   */\n      swap2\n      pop\n        /* \"#utility.yul\":10560:11215   */\n      pop\n        /* \"#utility.yul\":10454:11215   */\n      swap3\n      swap2\n      pop\n      pop\n      jump\t// out\n        /* \"#utility.yul\":11221:11461   */\n    tag_343:\n        /* \"#utility.yul\":11332:11342   */\n      0x00\n        /* \"#utility.yul\":11367:11455   */\n      tag_511\n        /* \"#utility.yul\":11451:11454   */\n      dup4\n        /* \"#utility.yul\":11443:11449   */\n      dup4\n        /* \"#utility.yul\":11367:11455   */\n      tag_342\n      jump\t// in\n    tag_511:\n        /* \"#utility.yul\":11353:11455   */\n      swap1\n      pop\n        /* \"#utility.yul\":11221:11461   */\n      swap3\n      swap2\n      pop\n      pop\n      jump\t// out\n        /* \"#utility.yul\":11467:11601   */\n    tag_344:\n        /* \"#utility.yul\":11558:11562   */\n      0x00\n        /* \"#utility.yul\":11590:11594   */\n      0x20\n        /* \"#utility.yul\":11585:11588   */\n      dup3\n        /* \"#utility.yul\":11581:11595   */\n      add\n        /* \"#utility.yul\":11573:11595   */\n      swap1\n      pop\n        /* \"#utility.yul\":11467:11601   */\n      swap2\n      swap1\n      pop\n      jump\t// out\n        /* \"#utility.yul\":11667:12746   */\n    tag_345:\n        /* \"#utility.yul\":11828:11831   */\n      0x00\n        /* \"#utility.yul\":11857:11932   */\n      tag_514\n        /* \"#utility.yul\":11926:11931   */\n      dup3\n        /* \"#utility.yul\":11857:11932   */\n      tag_335\n      jump\t// in\n    tag_514:\n        /* \"#utility.yul\":11948:12055   */\n      tag_515\n        /* \"#utility.yul\":12048:12054   */\n      dup2\n        /* \"#utility.yul\":12043:12046   */\n      dup6\n        /* \"#utility.yul\":11948:12055   */\n      tag_336\n      jump\t// in\n    tag_515:\n        /* \"#utility.yul\":11941:12055   */\n      swap4\n      pop\n        /* \"#utility.yul\":12081:12084   */\n      dup4\n        /* \"#utility.yul\":12126:12130   */\n      0x20\n        /* \"#utility.yul\":12118:12124   */\n      dup3\n        /* \"#utility.yul\":12114:12131   */\n      mul\n        /* \"#utility.yul\":12109:12112   */\n      dup6\n        /* \"#utility.yul\":12105:12132   */\n      add\n        /* \"#utility.yul\":12156:12233   */\n      tag_516\n        /* \"#utility.yul\":12227:12232   */\n      dup6\n        /* \"#utility.yul\":12156:12233   */\n      tag_337\n      jump\t// in\n    tag_516:\n        /* \"#utility.yul\":12256:12263   */\n      dup1\n        /* \"#utility.yul\":12287:12288   */\n      0x00\n        /* \"#utility.yul\":12272:12701   */\n    tag_517:\n        /* \"#utility.yul\":12297:12303   */\n      dup6\n        /* \"#utility.yul\":12294:12295   */\n      dup2\n        /* \"#utility.yul\":12291:12304   */\n      lt\n        /* \"#utility.yul\":12272:12701   */\n      iszero\n      tag_519\n      jumpi\n        /* \"#utility.yul\":12368:12377   */\n      dup5\n        /* \"#utility.yul\":12362:12366   */\n      dup5\n        /* \"#utility.yul\":12358:12378   */\n      sub\n        /* \"#utility.yul\":12353:12356   */\n      dup10\n        /* \"#utility.yul\":12346:12379   */\n      mstore\n        /* \"#utility.yul\":12419:12425   */\n      dup2\n        /* \"#utility.yul\":12413:12426   */\n      mload\n        /* \"#utility.yul\":12447:12553   */\n      tag_520\n        /* \"#utility.yul\":12548:12552   */\n      dup6\n        /* \"#utility.yul\":12533:12546   */\n      dup3\n        /* \"#utility.yul\":12447:12553   */\n      tag_343\n      jump\t// in\n    tag_520:\n        /* \"#utility.yul\":12439:12553   */\n      swap5\n      pop\n        /* \"#utility.yul\":12576:12657   */\n      tag_521\n        /* \"#utility.yul\":12650:12656   */\n      dup4\n        /* \"#utility.yul\":12576:12657   */\n      tag_344\n      jump\t// in\n    tag_521:\n        /* \"#utility.yul\":12566:12657   */\n      swap3\n      pop\n        /* \"#utility.yul\":12686:12690   */\n      0x20\n        /* \"#utility.yul\":12681:12684   */\n      dup11\n        /* \"#utility.yul\":12677:12691   */\n      add\n        /* \"#utility.yul\":12670:12691   */\n      swap10\n      pop\n        /* \"#utility.yul\":12332:12701   */\n      pop\n        /* \"#utility.yul\":12319:12320   */\n      0x01\n        /* \"#utility.yul\":12316:12317   */\n      dup2\n        /* \"#utility.yul\":12312:12321   */\n      add\n        /* \"#utility.yul\":12307:12321   */\n      swap1\n      pop\n        /* \"#utility.yul\":12272:12701   */\n      jump(tag_517)\n    tag_519:\n        /* \"#utility.yul\":12276:12290   */\n      pop\n        /* \"#utility.yul\":12717:12721   */\n      dup3\n        /* \"#utility.yul\":12710:12721   */\n      swap8\n      pop\n        /* \"#utility.yul\":12737:12740   */\n      dup8\n        /* \"#utility.yul\":12730:12740   */\n      swap6\n      pop\n        /* \"#utility.yul\":11833:12746   */\n      pop\n      pop\n      pop\n      pop\n      pop\n        /* \"#utility.yul\":11667:12746   */\n      swap3\n      swap2\n      pop\n      pop\n      jump\t// out\n        /* \"#utility.yul\":12752:13209   */\n    tag_107:\n        /* \"#utility.yul\":12937:12941   */\n      0x00\n        /* \"#utility.yul\":12975:12977   */\n      0x20\n        /* \"#utility.yul\":12964:12973   */\n      dup3\n        /* \"#utility.yul\":12960:12978   */\n      add\n        /* \"#utility.yul\":12952:12978   */\n      swap1\n      pop\n        /* \"#utility.yul\":13024:13033   */\n      dup2\n        /* \"#utility.yul\":13018:13022   */\n      dup2\n        /* \"#utility.yul\":13014:13034   */\n      sub\n        /* \"#utility.yul\":13010:13011   */\n      0x00\n        /* \"#utility.yul\":12999:13008   */\n      dup4\n        /* \"#utility.yul\":12995:13012   */\n      add\n        /* \"#utility.yul\":12988:13035   */\n      mstore\n        /* \"#utility.yul\":13052:13202   */\n      tag_523\n        /* \"#utility.yul\":13197:13201   */\n      dup2\n        /* \"#utility.yul\":13188:13194   */\n      dup5\n        /* \"#utility.yul\":13052:13202   */\n      tag_345\n      jump\t// in\n    tag_523:\n        /* \"#utility.yul\":13044:13202   */\n      swap1\n      pop\n        /* \"#utility.yul\":12752:13209   */\n      swap3\n      swap2\n      pop\n      pop\n      jump\t// out\n        /* \"#utility.yul\":13215:13689   */\n    tag_110:\n        /* \"#utility.yul\":13283:13289   */\n      0x00\n        /* \"#utility.yul\":13291:13297   */\n      dup1\n        /* \"#utility.yul\":13340:13342   */\n      0x40\n        /* \"#utility.yul\":13328:13337   */\n      dup4\n        /* \"#utility.yul\":13319:13326   */\n      dup6\n        /* \"#utility.yul\":13315:13338   */\n      sub\n        /* \"#utility.yul\":13311:13343   */\n      slt\n        /* \"#utility.yul\":13308:13427   */\n      iszero\n      tag_525\n      jumpi\n        /* \"#utility.yul\":13346:13425   */\n      tag_526\n      tag_309\n      jump\t// in\n    tag_526:\n        /* \"#utility.yul\":13308:13427   */\n    tag_525:\n        /* \"#utility.yul\":13466:13467   */\n      0x00\n        /* \"#utility.yul\":13491:13544   */\n      tag_527\n        /* \"#utility.yul\":13536:13543   */\n      dup6\n        /* \"#utility.yul\":13527:13533   */\n      dup3\n        /* \"#utility.yul\":13516:13525   */\n      dup7\n        /* \"#utility.yul\":13512:13534   */\n      add\n        /* \"#utility.yul\":13491:13544   */\n      tag_314\n      jump\t// in\n    tag_527:\n        /* \"#utility.yul\":13481:13544   */\n      swap3\n      pop\n        /* \"#utility.yul\":13437:13554   */\n      pop\n        /* \"#utility.yul\":13593:13595   */\n      0x20\n        /* \"#utility.yul\":13619:13672   */\n      tag_528\n        /* \"#utility.yul\":13664:13671   */\n      dup6\n        /* \"#utility.yul\":13655:13661   */\n      dup3\n        /* \"#utility.yul\":13644:13653   */\n      dup7\n        /* \"#utility.yul\":13640:13662   */\n      add\n        /* \"#utility.yul\":13619:13672   */\n      tag_314\n      jump\t// in\n    tag_528:\n        /* \"#utility.yul\":13609:13672   */\n      swap2\n      pop\n        /* \"#utility.yul\":13564:13682   */\n      pop\n        /* \"#utility.yul\":13215:13689   */\n      swap3\n      pop\n      swap3\n      swap1\n      pop\n      jump\t// out\n        /* \"#utility.yul\":13695:13811   */\n    tag_346:\n        /* \"#utility.yul\":13765:13786   */\n      tag_530\n        /* \"#utility.yul\":13780:13785   */\n      dup2\n        /* \"#utility.yul\":13765:13786   */\n      tag_318\n      jump\t// in\n    tag_530:\n        /* \"#utility.yul\":13758:13763   */\n      dup2\n        /* \"#utility.yul\":13755:13787   */\n      eq\n        /* \"#utility.yul\":13745:13805   */\n      tag_531\n      jumpi\n        /* \"#utility.yul\":13801:13802   */\n      0x00\n        /* \"#utility.yul\":13798:13799   */\n      dup1\n        /* \"#utility.yul\":13791:13803   */\n      revert\n        /* \"#utility.yul\":13745:13805   */\n    tag_531:\n        /* \"#utility.yul\":13695:13811   */\n      pop\n      jump\t// out\n        /* \"#utility.yul\":13817:13950   */\n    tag_347:\n        /* \"#utility.yul\":13860:13865   */\n      0x00\n        /* \"#utility.yul\":13898:13904   */\n      dup2\n        /* \"#utility.yul\":13885:13905   */\n      calldataload\n        /* \"#utility.yul\":13876:13905   */\n      swap1\n      pop\n        /* \"#utility.yul\":13914:13944   */\n      tag_533\n        /* \"#utility.yul\":13938:13943   */\n      dup2\n        /* \"#utility.yul\":13914:13944   */\n      tag_346\n      jump\t// in\n    tag_533:\n        /* \"#utility.yul\":13817:13950   */\n      swap3\n      swap2\n      pop\n      pop\n      jump\t// out\n        /* \"#utility.yul\":13956:14424   */\n    tag_115:\n        /* \"#utility.yul\":14021:14027   */\n      0x00\n        /* \"#utility.yul\":14029:14035   */\n      dup1\n        /* \"#utility.yul\":14078:14080   */\n      0x40\n        /* \"#utility.yul\":14066:14075   */\n      dup4\n        /* \"#utility.yul\":14057:14064   */\n      dup6\n        /* \"#utility.yul\":14053:14076   */\n      sub\n        /* \"#utility.yul\":14049:14081   */\n      slt\n        /* \"#utility.yul\":14046:14165   */\n      iszero\n      tag_535\n      jumpi\n        /* \"#utility.yul\":14084:14163   */\n      tag_536\n      tag_309\n      jump\t// in\n    tag_536:\n        /* \"#utility.yul\":14046:14165   */\n    tag_535:\n        /* \"#utility.yul\":14204:14205   */\n      0x00\n        /* \"#utility.yul\":14229:14279   */\n      tag_537\n        /* \"#utility.yul\":14271:14278   */\n      dup6\n        /* \"#utility.yul\":14262:14268   */\n      dup3\n        /* \"#utility.yul\":14251:14260   */\n      dup7\n        /* \"#utility.yul\":14247:14269   */\n      add\n        /* \"#utility.yul\":14229:14279   */\n      tag_347\n      jump\t// in\n    tag_537:\n        /* \"#utility.yul\":14219:14279   */\n      swap3\n      pop\n        /* \"#utility.yul\":14175:14289   */\n      pop\n        /* \"#utility.yul\":14328:14330   */\n      0x20\n        /* \"#utility.yul\":14354:14407   */\n      tag_538\n        /* \"#utility.yul\":14399:14406   */\n      dup6\n        /* \"#utility.yul\":14390:14396   */\n      dup3\n        /* \"#utility.yul\":14379:14388   */\n      dup7\n        /* \"#utility.yul\":14375:14397   */\n      add\n        /* \"#utility.yul\":14354:14407   */\n      tag_317\n      jump\t// in\n    tag_538:\n        /* \"#utility.yul\":14344:14407   */\n      swap2\n      pop\n        /* \"#utility.yul\":14299:14417   */\n      pop\n        /* \"#utility.yul\":13956:14424   */\n      swap3\n      pop\n      swap3\n      swap1\n      pop\n      jump\t// out\n        /* \"#utility.yul\":14430:14955   */\n    tag_126:\n        /* \"#utility.yul\":14595:14599   */\n      0x00\n        /* \"#utility.yul\":14633:14635   */\n      0x60\n        /* \"#utility.yul\":14622:14631   */\n      dup3\n        /* \"#utility.yul\":14618:14636   */\n      add\n        /* \"#utility.yul\":14610:14636   */\n      swap1\n      pop\n        /* \"#utility.yul\":14682:14691   */\n      dup2\n        /* \"#utility.yul\":14676:14680   */\n      dup2\n        /* \"#utility.yul\":14672:14692   */\n      sub\n        /* \"#utility.yul\":14668:14669   */\n      0x00\n        /* \"#utility.yul\":14657:14666   */\n      dup4\n        /* \"#utility.yul\":14653:14670   */\n      add\n        /* \"#utility.yul\":14646:14693   */\n      mstore\n        /* \"#utility.yul\":14710:14788   */\n      tag_540\n        /* \"#utility.yul\":14783:14787   */\n      dup2\n        /* \"#utility.yul\":14774:14780   */\n      dup7\n        /* \"#utility.yul\":14710:14788   */\n      tag_307\n      jump\t// in\n    tag_540:\n        /* \"#utility.yul\":14702:14788   */\n      swap1\n      pop\n        /* \"#utility.yul\":14798:14866   */\n      tag_541\n        /* \"#utility.yul\":14862:14864   */\n      0x20\n        /* \"#utility.yul\":14851:14860   */\n      dup4\n        /* \"#utility.yul\":14847:14865   */\n      add\n        /* \"#utility.yul\":14838:14844   */\n      dup6\n        /* \"#utility.yul\":14798:14866   */\n      tag_322\n      jump\t// in\n    tag_541:\n        /* \"#utility.yul\":14876:14948   */\n      tag_542\n        /* \"#utility.yul\":14944:14946   */\n      0x40\n        /* \"#utility.yul\":14933:14942   */\n      dup4\n        /* \"#utility.yul\":14929:14947   */\n      add\n        /* \"#utility.yul\":14920:14926   */\n      dup5\n        /* \"#utility.yul\":14876:14948   */\n      tag_320\n      jump\t// in\n    tag_542:\n        /* \"#utility.yul\":14430:14955   */\n      swap5\n      swap4\n      pop\n      pop\n      pop\n      pop\n      jump\t// out\n        /* \"#utility.yul\":14961:15141   */\n    tag_348:\n        /* \"#utility.yul\":15009:15086   */\n      0x4e487b7100000000000000000000000000000000000000000000000000000000\n        /* \"#utility.yul\":15006:15007   */\n      0x00\n        /* \"#utility.yul\":14999:15087   */\n      mstore\n        /* \"#utility.yul\":15106:15110   */\n      0x22\n        /* \"#utility.yul\":15103:15104   */\n      0x04\n        /* \"#utility.yul\":15096:15111   */\n      mstore\n        /* \"#utility.yul\":15130:15134   */\n      0x24\n        /* \"#utility.yul\":15127:15128   */\n      0x00\n        /* \"#utility.yul\":15120:15135   */\n      revert\n        /* \"#utility.yul\":15147:15467   */\n    tag_129:\n        /* \"#utility.yul\":15191:15197   */\n      0x00\n        /* \"#utility.yul\":15228:15229   */\n      0x02\n        /* \"#utility.yul\":15222:15226   */\n      dup3\n        /* \"#utility.yul\":15218:15230   */\n      div\n        /* \"#utility.yul\":15208:15230   */\n      swap1\n      pop\n        /* \"#utility.yul\":15275:15276   */\n      0x01\n        /* \"#utility.yul\":15269:15273   */\n      dup3\n        /* \"#utility.yul\":15265:15277   */\n      and\n        /* \"#utility.yul\":15296:15314   */\n      dup1\n        /* \"#utility.yul\":15286:15367   */\n      tag_545\n      jumpi\n        /* \"#utility.yul\":15352:15356   */\n      0x7f\n        /* \"#utility.yul\":15344:15350   */\n      dup3\n        /* \"#utility.yul\":15340:15357   */\n      and\n        /* \"#utility.yul\":15330:15357   */\n      swap2\n      pop\n        /* \"#utility.yul\":15286:15367   */\n    tag_545:\n        /* \"#utility.yul\":15414:15416   */\n      0x20\n        /* \"#utility.yul\":15406:15412   */\n      dup3\n        /* \"#utility.yul\":15403:15417   */\n      lt\n        /* \"#utility.yul\":15383:15401   */\n      dup2\n        /* \"#utility.yul\":15380:15418   */\n      sub\n        /* \"#utility.yul\":15377:15461   */\n      tag_546\n      jumpi\n        /* \"#utility.yul\":15433:15451   */\n      tag_547\n      tag_348\n      jump\t// in\n    tag_547:\n        /* \"#utility.yul\":15377:15461   */\n    tag_546:\n        /* \"#utility.yul\":15198:15467   */\n      pop\n        /* \"#utility.yul\":15147:15467   */\n      swap2\n      swap1\n      pop\n      jump\t// out\n        /* \"#utility.yul\":15473:15643   */\n    tag_349:\n        /* \"#utility.yul\":15613:15635   */\n      0x496e73756666696369656e742062616c616e6365000000000000000000000000\n        /* \"#utility.yul\":15609:15610   */\n      0x00\n        /* \"#utility.yul\":15601:15607   */\n      dup3\n        /* \"#utility.yul\":15597:15611   */\n      add\n        /* \"#utility.yul\":15590:15636   */\n      mstore\n        /* \"#utility.yul\":15473:15643   */\n      pop\n      jump\t// out\n        /* \"#utility.yul\":15649:16015   */\n    tag_350:\n        /* \"#utility.yul\":15791:15794   */\n      0x00\n        /* \"#utility.yul\":15812:15879   */\n      tag_550\n        /* \"#utility.yul\":15876:15878   */\n      0x14\n        /* \"#utility.yul\":15871:15874   */\n      dup4\n        /* \"#utility.yul\":15812:15879   */\n      tag_304\n      jump\t// in\n    tag_550:\n        /* \"#utility.yul\":15805:15879   */\n      swap2\n      pop\n        /* \"#utility.yul\":15888:15981   */\n      tag_551\n        /* \"#utility.yul\":15977:15980   */\n      dup3\n        /* \"#utility.yul\":15888:15981   */\n      tag_349\n      jump\t// in\n    tag_551:\n        /* \"#utility.yul\":16006:16008   */\n      0x20\n        /* \"#utility.yul\":16001:16004   */\n      dup3\n        /* \"#utility.yul\":15997:16009   */\n      add\n        /* \"#utility.yul\":15990:16009   */\n      swap1\n      pop\n        /* \"#utility.yul\":15649:16015   */\n      swap2\n      swap1\n      pop\n      jump\t// out\n        /* \"#utility.yul\":16021:16440   */\n    tag_143:\n        /* \"#utility.yul\":16187:16191   */\n      0x00\n        /* \"#utility.yul\":16225:16227   */\n      0x20\n        /* \"#utility.yul\":16214:16223   */\n      dup3\n        /* \"#utility.yul\":16210:16228   */\n      add\n        /* \"#utility.yul\":16202:16228   */\n      swap1\n      pop\n        /* \"#utility.yul\":16274:16283   */\n      dup2\n        /* \"#utility.yul\":16268:16272   */\n      dup2\n        /* \"#utility.yul\":16264:16284   */\n      sub\n        /* \"#utility.yul\":16260:16261   */\n      0x00\n        /* \"#utility.yul\":16249:16258   */\n      dup4\n        /* \"#utility.yul\":16245:16262   */\n      add\n        /* \"#utility.yul\":16238:16285   */\n      mstore\n        /* \"#utility.yul\":16302:16433   */\n      tag_553\n        /* \"#utility.yul\":16428:16432   */\n      dup2\n        /* \"#utility.yul\":16302:16433   */\n      tag_350\n      jump\t// in\n    tag_553:\n        /* \"#utility.yul\":16294:16433   */\n      swap1\n      pop\n        /* \"#utility.yul\":16021:16440   */\n      swap2\n      swap1\n      pop\n      jump\t// out\n        /* \"#utility.yul\":16446:16587   */\n    tag_351:\n        /* \"#utility.yul\":16495:16499   */\n      0x00\n        /* \"#utility.yul\":16518:16521   */\n      dup2\n        /* \"#utility.yul\":16510:16521   */\n      swap1\n      pop\n        /* \"#utility.yul\":16541:16544   */\n      dup2\n        /* \"#utility.yul\":16538:16539   */\n      0x00\n        /* \"#utility.yul\":16531:16545   */\n      mstore\n        /* \"#utility.yul\":16575:16579   */\n      0x20\n        /* \"#utility.yul\":16572:16573   */\n      0x00\n        /* \"#utility.yul\":16562:16580   */\n      keccak256\n        /* \"#utility.yul\":16554:16580   */\n      swap1\n      pop\n        /* \"#utility.yul\":16446:16587   */\n      swap2\n      swap1\n      pop\n      jump\t// out\n        /* \"#utility.yul\":16593:16686   */\n    tag_352:\n        /* \"#utility.yul\":16630:16636   */\n      0x00\n        /* \"#utility.yul\":16677:16679   */\n      0x20\n        /* \"#utility.yul\":16672:16674   */\n      0x1f\n        /* \"#utility.yul\":16665:16670   */\n      dup4\n        /* \"#utility.yul\":16661:16675   */\n      add\n        /* \"#utility.yul\":16657:16680   */\n      div\n        /* \"#utility.yul\":16647:16680   */\n      swap1\n      pop\n        /* \"#utility.yul\":16593:16686   */\n      swap2\n      swap1\n      pop\n      jump\t// out\n        /* \"#utility.yul\":16692:16799   */\n    tag_353:\n        /* \"#utility.yul\":16736:16744   */\n      0x00\n        /* \"#utility.yul\":16786:16791   */\n      dup3\n        /* \"#utility.yul\":16780:16784   */\n      dup3\n        /* \"#utility.yul\":16776:16792   */\n      shl\n        /* \"#utility.yul\":16755:16792   */\n      swap1\n      pop\n        /* \"#utility.yul\":16692:16799   */\n      swap3\n      swap2\n      pop\n      pop\n      jump\t// out\n        /* \"#utility.yul\":16805:17198   */\n    tag_354:\n        /* \"#utility.yul\":16874:16880   */\n      0x00\n        /* \"#utility.yul\":16924:16925   */\n      0x08\n        /* \"#utility.yul\":16912:16922   */\n      dup4\n        /* \"#utility.yul\":16908:16926   */\n      mul\n        /* \"#utility.yul\":16947:17044   */\n      tag_558\n        /* \"#utility.yul\":16977:17043   */\n      0xffffffffffffffffffffffffffffffffffffffffffffffffffffffffffffffff\n        /* \"#utility.yul\":16966:16975   */\n      dup3\n        /* \"#utility.yul\":16947:17044   */\n      tag_353\n      jump\t// in\n    tag_558:\n        /* \"#utility.yul\":17065:17104   */\n      tag_559\n        /* \"#utility.yul\":17095:17103   */\n      dup7\n        /* \"#utility.yul\":17084:17093   */\n      dup4\n        /* \"#utility.yul\":17065:17104   */\n      tag_353\n      jump\t// in\n    tag_559:\n        /* \"#utility.yul\":17053:17104   */\n      swap6\n      pop\n        /* \"#utility.yul\":17137:17141   */\n      dup1\n        /* \"#utility.yul\":17133:17142   */\n      not\n        /* \"#utility.yul\":17126:17131   */\n      dup5\n        /* \"#utility.yul\":17122:17143   */\n      and\n        /* \"#utility.yul\":17113:17143   */\n      swap4\n      pop\n        /* \"#utility.yul\":17186:17190   */\n      dup1\n        /* \"#utility.yul\":17176:17184   */\n      dup7\n        /* \"#utility.yul\":17172:17191   */\n      and\n        /* \"#utility.yul\":17165:17170   */\n      dup5\n        /* \"#utility.yul\":17162:17192   */\n      or\n        /* \"#utility.yul\":17152:17192   */\n      swap3\n      pop\n        /* \"#utility.yul\":16881:17198   */\n      pop\n      pop\n        /* \"#utility.yul\":16805:17198   */\n      swap4\n      swap3\n      pop\n      pop\n      pop\n      jump\t// out\n        /* \"#utility.yul\":17204:17264   */\n    tag_355:\n        /* \"#utility.yul\":17232:17235   */\n      0x00\n        /* \"#utility.yul\":17253:17258   */\n      dup2\n        /* \"#utility.yul\":17246:17258   */\n      swap1\n      pop\n        /* \"#utility.yul\":17204:17264   */\n      swap2\n      swap1\n      pop\n      jump\t// out\n        /* \"#utility.yul\":17270:17412   */\n    tag_356:\n        /* \"#utility.yul\":17320:17329   */\n      0x00\n        /* \"#utility.yul\":17353:17406   */\n      tag_562\n        /* \"#utility.yul\":17371:17405   */\n      tag_563\n        /* \"#utility.yul\":17380:17404   */\n      tag_564\n        /* \"#utility.yul\":17398:17403   */\n      dup5\n        /* \"#utility.yul\":17380:17404   */\n      tag_315\n      jump\t// in\n    tag_564:\n        /* \"#utility.yul\":17371:17405   */\n      tag_355\n      jump\t// in\n    tag_563:\n        /* \"#utility.yul\":17353:17406   */\n      tag_315\n      jump\t// in\n    tag_562:\n        /* \"#utility.yul\":17340:17406   */\n      swap1\n      pop\n        /* \"#utility.yul\":17270:17412   */\n      swap2\n      swap1\n      pop\n      jump\t// out\n        /* \"#utility.yul\":17418:17493   */\n    tag_357:\n        /* \"#utility.yul\":17461:17464   */\n      0x00\n        /* \"#utility.yul\":17482:17487   */\n      dup2\n        /* \"#utility.yul\":17475:17487   */\n      swap1\n      pop\n        /* \"#utility.yul\":17418:17493   */\n      swap2\n      swap1\n      pop\n      jump\t// out\n        /* \"#utility.yul\":17499:17768   */\n    tag_358:\n        /* \"#utility.yul\":17609:17648   */\n      tag_567\n        /* \"#utility.yul\":17640:17647   */\n      dup4\n        /* \"#utility.yul\":17609:17648   */\n      tag_356\n      jump\t// in\n    tag_567:\n        /* \"#utility.yul\":17670:17761   */\n      tag_568\n        /* \"#utility.yul\":17719:17760   */\n      tag_569\n        /* \"#utility.yul\":17743:17759   */\n      dup3\n        /* \"#utility.yul\":17719:17760   */\n      tag_357\n      jump\t// in\n    tag_569:\n        /* \"#utility.yul\":17711:17717   */\n      dup5\n        /* \"#utility.yul\":17704:17708   */\n      dup5\n        /* \"#utility.yul\":17698:17709   */\n      sload\n        /* \"#utility.yul\":17670:17761   */\n      tag_354\n      jump\t// in\n    tag_568:\n        /* \"#utility.yul\":17664:17668   */\n      dup3\n        /* \"#utility.yul\":17657:17762   */\n      sstore\n        /* \"#utility.yul\":17575:17768   */\n      pop\n        /* \"#utility.yul\":17499:17768   */\n      pop\n      pop\n      pop\n      jump\t// out\n        /* \"#utility.yul\":17774:17847   */\n    tag_359:\n        /* \"#utility.yul\":17819:17822   */\n      0x00\n        /* \"#utility.yul\":17774:17847   */\n      swap1\n      jump\t// out\n        /* \"#utility.yul\":17853:18042   */\n    tag_360:\n        /* \"#utility.yul\":17930:17962   */\n      tag_572\n      tag_359\n      jump\t// in\n    tag_572:\n        /* \"#utility.yul\":17971:18036   */\n      tag_573\n        /* \"#utility.yul\":18029:18035   */\n      dup2\n        /* \"#utility.yul\":18021:18027   */\n      dup5\n        /* \"#utility.yul\":18015:18019   */\n      dup5\n        /* \"#utility.yul\":17971:18036   */\n      tag_358\n      jump\t// in\n    tag_573:\n        /* \"#utility.yul\":17906:18042   */\n      pop\n        /* \"#utility.yul\":17853:18042   */\n      pop\n      pop\n      jump\t// out\n        /* \"#utility.yul\":18048:18234   */\n    tag_361:\n        /* \"#utility.yul\":18108:18228   */\n    tag_575:\n        /* \"#utility.yul\":18125:18128   */\n      dup2\n        /* \"#utility.yul\":18118:18123   */\n      dup2\n        /* \"#utility.yul\":18115:18129   */\n      lt\n        /* \"#utility.yul\":18108:18228   */\n      iszero\n      tag_577\n      jumpi\n        /* \"#utility.yul\":18179:18218   */\n      tag_578\n        /* \"#utility.yul\":18216:18217   */\n      0x00\n        /* \"#utility.yul\":18209:18214   */\n      dup3\n        /* \"#utility.yul\":18179:18218   */\n      tag_360\n      jump\t// in\n    tag_578:\n        /* \"#utility.yul\":18152:18153   */\n      0x01\n        /* \"#utility.yul\":18145:18150   */\n      dup2\n        /* \"#utility.yul\":18141:18154   */\n      add\n        /* \"#utility.yul\":18132:18154   */\n      swap1\n      pop\n        /* \"#utility.yul\":18108:18228   */\n      jump(tag_575)\n    tag_577:\n        /* \"#utility.yul\":18048:18234   */\n      pop\n      pop\n      jump\t// out\n        /* \"#utility.yul\":18240:18783   */\n    tag_362:\n        /* \"#utility.yul\":18341:18343   */\n      0x1f\n        /* \"#utility.yul\":18336:18339   */\n      dup3\n        /* \"#utility.yul\":18333:18344   */\n      gt\n        /* \"#utility.yul\":18330:18776   */\n      iszero\n      tag_580\n      jumpi\n        /* \"#utility.yul\":18375:18413   */\n      tag_581\n        /* \"#utility.yul\":18407:18412   */\n      dup2\n        /* \"#utility.yul\":18375:18413   */\n      tag_351\n      jump\t// in\n    tag_581:\n        /* \"#utility.yul\":18459:18488   */\n      tag_582\n        /* \"#utility.yul\":18477:18487   */\n      dup5\n        /* \"#utility.yul\":18459:18488   */\n      tag_352\n      jump\t// in\n    tag_582:\n        /* \"#utility.yul\":18449:18457   */\n      dup2\n        /* \"#utility.yul\":18445:18489   */\n      add\n        /* \"#utility.yul\":18642:18644   */\n      0x20\n        /* \"#utility.yul\":18630:18640   */\n      dup6\n        /* \"#utility.yul\":18627:18645   */\n      lt\n        /* \"#utility.yul\":18624:18673   */\n      iszero\n      tag_583\n      jumpi\n        /* \"#utility.yul\":18663:18671   */\n      dup2\n        /* \"#utility.yul\":18648:18671   */\n      swap1\n      pop\n        /* \"#utility.yul\":18624:18673   */\n    tag_583:\n        /* \"#utility.yul\":18686:18766   */\n      tag_584\n        /* \"#utility.yul\":18742:18764   */\n      tag_585\n        /* \"#utility.yul\":18760:18763   */\n      dup6\n        /* \"#utility.yul\":18742:18764   */\n      tag_352\n      jump\t// in\n    tag_585:\n        /* \"#utility.yul\":18732:18740   */\n      dup4\n        /* \"#utility.yul\":18728:18765   */\n      add\n        /* \"#utility.yul\":18715:18726   */\n      dup3\n        /* \"#utility.yul\":18686:18766   */\n      tag_361\n      jump\t// in\n    tag_584:\n        /* \"#utility.yul\":18345:18776   */\n      pop\n      pop\n        /* \"#utility.yul\":18330:18776   */\n    tag_580:\n        /* \"#utility.yul\":18240:18783   */\n      pop\n      pop\n      pop\n      jump\t// out\n        /* \"#utility.yul\":18789:18906   */\n    tag_363:\n        /* \"#utility.yul\":18843:18851   */\n      0x00\n        /* \"#utility.yul\":18893:18898   */\n      dup3\n        /* \"#utility.yul\":18887:18891   */\n      dup3\n        /* \"#utility.yul\":18883:18899   */\n      shr\n        /* \"#utility.yul\":18862:18899   */\n      swap1\n      pop\n        /* \"#utility.yul\":18789:18906   */\n      swap3\n      swap2\n      pop\n      pop\n      jump\t// out\n        /* \"#utility.yul\":18912:19081   */\n    tag_364:\n        /* \"#utility.yul\":18956:18962   */\n      0x00\n        /* \"#utility.yul\":18989:19040   */\n      tag_588\n        /* \"#utility.yul\":19037:19038   */\n      0x00\n        /* \"#utility.yul\":19033:19039   */\n      not\n        /* \"#utility.yul\":19025:19030   */\n      dup5\n        /* \"#utility.yul\":19022:19023   */\n      0x08\n        /* \"#utility.yul\":19018:19031   */\n      mul\n        /* \"#utility.yul\":18989:19040   */\n      tag_363\n      jump\t// in\n    tag_588:\n        /* \"#utility.yul\":18985:19041   */\n      not\n        /* \"#utility.yul\":19070:19074   */\n      dup1\n        /* \"#utility.yul\":19064:19068   */\n      dup4\n        /* \"#utility.yul\":19060:19075   */\n      and\n        /* \"#utility.yul\":19050:19075   */\n      swap2\n      pop\n        /* \"#utility.yul\":18963:19081   */\n      pop\n        /* \"#utility.yul\":18912:19081   */\n      swap3\n      swap2\n      pop\n      pop\n      jump\t// out\n        /* \"#utility.yul\":19086:19381   */\n    tag_365:\n        /* \"#utility.yul\":19162:19166   */\n      0x00\n        /* \"#utility.yul\":19308:19337   */\n      tag_590\n        /* \"#utility.yul\":19333:19336   */\n      dup4\n        /* \"#utility.yul\":19327:19331   */\n      dup4\n        /* \"#utility.yul\":19308:19337   */\n      tag_364\n      jump\t// in\n    tag_590:\n        /* \"#utility.yul\":19300:19337   */\n      swap2\n      pop\n        /* \"#utility.yul\":19370:19373   */\n      dup3\n        /* \"#utility.yul\":19367:19368   */\n      0x02\n        /* \"#utility.yul\":19363:19374   */\n      mul\n        /* \"#utility.yul\":19357:19361   */\n      dup3\n        /* \"#utility.yul\":19354:19375   */\n      or\n        /* \"#utility.yul\":19346:19375   */\n      swap1\n      pop\n        /* \"#utility.yul\":19086:19381   */\n      swap3\n      swap2\n      pop\n      pop\n      jump\t// out\n        /* \"#utility.yul\":19386:20781   */\n    tag_169:\n        /* \"#utility.yul\":19503:19540   */\n      tag_592\n        /* \"#utility.yul\":19536:19539   */\n      dup3\n        /* \"#utility.yul\":19503:19540   */\n      tag_303\n      jump\t// in\n    tag_592:\n        /* \"#utility.yul\":19605:19623   */\n      0xffffffffffffffff\n        /* \"#utility.yul\":19597:19603   */\n      dup2\n        /* \"#utility.yul\":19594:19624   */\n      gt\n        /* \"#utility.yul\":19591:19647   */\n      iszero\n      tag_593\n      jumpi\n        /* \"#utility.yul\":19627:19645   */\n      tag_594\n      tag_325\n      jump\t// in\n    tag_594:\n        /* \"#utility.yul\":19591:19647   */\n    tag_593:\n        /* \"#utility.yul\":19671:19709   */\n      tag_595\n        /* \"#utility.yul\":19703:19707   */\n      dup3\n        /* \"#utility.yul\":19697:19708   */\n      sload\n        /* \"#utility.yul\":19671:19709   */\n      tag_129\n      jump\t// in\n    tag_595:\n        /* \"#utility.yul\":19756:19823   */\n      tag_596\n        /* \"#utility.yul\":19816:19822   */\n      dup3\n        /* \"#utility.yul\":19808:19814   */\n      dup3\n        /* \"#utility.yul\":19802:19806   */\n      dup6\n        /* \"#utility.yul\":19756:19823   */\n      tag_362\n      jump\t// in\n    tag_596:\n        /* \"#utility.yul\":19850:19851   */\n      0x00\n        /* \"#utility.yul\":19874:19878   */\n      0x20\n        /* \"#utility.yul\":19861:19878   */\n      swap1\n      pop\n        /* \"#utility.yul\":19906:19908   */\n      0x1f\n        /* \"#utility.yul\":19898:19904   */\n      dup4\n        /* \"#utility.yul\":19895:19909   */\n      gt\n        /* \"#utility.yul\":19923:19924   */\n      0x01\n        /* \"#utility.yul\":19918:20536   */\n      dup2\n      eq\n      tag_598\n      jumpi\n        /* \"#utility.yul\":20580:20581   */\n      0x00\n        /* \"#utility.yul\":20597:20603   */\n      dup5\n        /* \"#utility.yul\":20594:20671   */\n      iszero\n      tag_599\n      jumpi\n        /* \"#utility.yul\":20646:20655   */\n      dup3\n        /* \"#utility.yul\":20641:20644   */\n      dup8\n        /* \"#utility.yul\":20637:20656   */\n      add\n        /* \"#utility.yul\":20631:20657   */\n      mload\n        /* \"#utility.yul\":20622:20657   */\n      swap1\n      pop\n        /* \"#utility.yul\":20594:20671   */\n    tag_599:\n        /* \"#utility.yul\":20697:20764   */\n      tag_600\n        /* \"#utility.yul\":20757:20763   */\n      dup6\n        /* \"#utility.yul\":20750:20755   */\n      dup3\n        /* \"#utility.yul\":20697:20764   */\n      tag_365\n      jump\t// in\n    tag_600:\n        /* \"#utility.yul\":20691:20695   */\n      dup7\n        /* \"#utility.yul\":20684:20765   */\n      sstore\n        /* \"#utility.yul\":20553:20775   */\n      pop\n        /* \"#utility.yul\":19888:20775   */\n      jump(tag_597)\n        /* \"#utility.yul\":19918:20536   */\n    tag_598:\n        /* \"#utility.yul\":19970:19974   */\n      0x1f\n        /* \"#utility.yul\":19966:19975   */\n      not\n        /* \"#utility.yul\":19958:19964   */\n      dup5\n        /* \"#utility.yul\":19954:19976   */\n      and\n        /* \"#utility.yul\":20004:20041   */\n      tag_601\n        /* \"#utility.yul\":20036:20040   */\n      dup7\n        /* \"#utility.yul\":20004:20041   */\n      tag_351\n      jump\t// in\n    tag_601:\n        /* \"#utility.yul\":20063:20064   */\n      0x00\n        /* \"#utility.yul\":20077:20285   */\n    tag_602:\n        /* \"#utility.yul\":20091:20098   */\n      dup3\n        /* \"#utility.yul\":20088:20089   */\n      dup2\n        /* \"#utility.yul\":20085:20099   */\n      lt\n        /* \"#utility.yul\":20077:20285   */\n      iszero\n      tag_604\n      jumpi\n        /* \"#utility.yul\":20170:20179   */\n      dup5\n        /* \"#utility.yul\":20165:20168   */\n      dup10\n        /* \"#utility.yul\":20161:20180   */\n      add\n        /* \"#utility.yul\":20155:20181   */\n      mload\n        /* \"#utility.yul\":20147:20153   */\n      dup3\n        /* \"#utility.yul\":20140:20182   */\n      sstore\n        /* \"#utility.yul\":20221:20222   */\n      0x01\n        /* \"#utility.yul\":20213:20219   */\n      dup3\n        /* \"#utility.yul\":20209:20223   */\n      add\n        /* \"#utility.yul\":20199:20223   */\n      swap2\n      pop\n        /* \"#utility.yul\":20268:20270   */\n      0x20\n        /* \"#utility.yul\":20257:20266   */\n      dup6\n        /* \"#utility.yul\":20253:20271   */\n      add\n        /* \"#utility.yul\":20240:20271   */\n      swap5\n      pop\n        /* \"#utility.yul\":20114:20118   */\n      0x20\n        /* \"#utility.yul\":20111:20112   */\n      dup2\n        /* \"#utility.yul\":20107:20119   */\n      add\n        /* \"#utility.yul\":20102:20119   */\n      swap1\n      pop\n        /* \"#utility.yul\":20077:20285   */\n      jump(tag_602)\n    tag_604:\n        /* \"#utility.yul\":20313:20319   */\n      dup7\n        /* \"#utility.yul\":20304:20311   */\n      dup4\n        /* \"#utility.yul\":20301:20320   */\n      lt\n        /* \"#utility.yul\":20298:20477   */\n      iszero\n      tag_605\n      jumpi\n        /* \"#utility.yul\":20371:20380   */\n      dup5\n        /* \"#utility.yul\":20366:20369   */\n      dup10\n        /* \"#utility.yul\":20362:20381   */\n      add\n        /* \"#utility.yul\":20356:20382   */\n      mload\n        /* \"#utility.yul\":20414:20462   */\n      tag_606\n        /* \"#utility.yul\":20456:20460   */\n      0x1f\n        /* \"#utility.yul\":20448:20454   */\n      dup10\n        /* \"#utility.yul\":20444:20461   */\n      and\n        /* \"#utility.yul\":20433:20442   */\n      dup3\n        /* \"#utility.yul\":20414:20462   */\n      tag_364\n      jump\t// in\n    tag_606:\n        /* \"#utility.yul\":20406:20412   */\n      dup4\n        /* \"#utility.yul\":20399:20463   */\n      sstore\n        /* \"#utility.yul\":20321:20477   */\n      pop\n        /* \"#utility.yul\":20298:20477   */\n    tag_605:\n        /* \"#utility.yul\":20523:20524   */\n      0x01\n        /* \"#utility.yul\":20519:20520   */\n      0x02\n        /* \"#utility.yul\":20511:20517   */\n      dup9\n        /* \"#utility.yul\":20507:20521   */\n      mul\n        /* \"#utility.yul\":20503:20525   */\n      add\n        /* \"#utility.yul\":20497:20501   */\n      dup9\n        /* \"#utility.yul\":20490:20526   */\n      sstore\n        /* \"#utility.yul\":19925:20536   */\n      pop\n      pop\n      pop\n        /* \"#utility.yul\":19888:20775   */\n    tag_597:\n      pop\n        /* \"#utility.yul\":19478:20781   */\n      pop\n      pop\n      pop\n        /* \"#utility.yul\":19386:20781   */\n      pop\n      pop\n      jump\t// out\n        /* \"#utility.yul\":20787:20967   */\n    tag_366:\n        /* \"#utility.yul\":20835:20912   */\n      0x4e487b7100000000000000000000000000000000000000000000000000000000\n        /* \"#utility.yul\":20832:20833   */\n      0x00\n        /* \"#utility.yul\":20825:20913   */\n      mstore\n        /* \"#utility.yul\":20932:20936   */\n      0x11\n        /* \"#utility.yul\":20929:20930   */\n      0x04\n        /* \"#utility.yul\":20922:20937   */\n      mstore\n        /* \"#utility.yul\":20956:20960   */\n      0x24\n        /* \"#utility.yul\":20953:20954   */\n      0x00\n        /* \"#utility.yul\":20946:20961   */\n      revert\n        /* \"#utility.yul\":20973:21140   */\n    tag_171:\n        /* \"#utility.yul\":21010:21013   */\n      0x00\n        /* \"#utility.yul\":21033:21055   */\n      tag_609\n        /* \"#utility.yul\":21049:21054   */\n      dup3\n        /* \"#utility.yul\":21033:21055   */\n      tag_321\n      jump\t// in\n    tag_609:\n        /* \"#utility.yul\":21024:21055   */\n      swap2\n      pop\n        /* \"#utility.yul\":21077:21081   */\n      0xff\n        /* \"#utility.yul\":21070:21075   */\n      dup3\n        /* \"#utility.yul\":21067:21082   */\n      sub\n        /* \"#utility.yul\":21064:21105   */\n      tag_610\n      jumpi\n        /* \"#utility.yul\":21085:21103   */\n      tag_611\n      tag_366\n      jump\t// in\n    tag_611:\n        /* \"#utility.yul\":21064:21105   */\n    tag_610:\n        /* \"#utility.yul\":21132:21133   */\n      0x01\n        /* \"#utility.yul\":21125:21130   */\n      dup3\n        /* \"#utility.yul\":21121:21134   */\n      add\n        /* \"#utility.yul\":21114:21134   */\n      swap1\n      pop\n        /* \"#utility.yul\":20973:21140   */\n      swap2\n      swap1\n      pop\n      jump\t// out\n        /* \"#utility.yul\":21146:21315   */\n    tag_367:\n        /* \"#utility.yul\":21286:21307   */\n      0x496e73756666696369656e7420616d6f756e7400000000000000000000000000\n        /* \"#utility.yul\":21282:21283   */\n      0x00\n        /* \"#utility.yul\":21274:21280   */\n      dup3\n        /* \"#utility.yul\":21270:21284   */\n      add\n        /* \"#utility.yul\":21263:21308   */\n      mstore\n        /* \"#utility.yul\":21146:21315   */\n      pop\n      jump\t// out\n        /* \"#utility.yul\":21321:21687   */\n    tag_368:\n        /* \"#utility.yul\":21463:21466   */\n      0x00\n        /* \"#utility.yul\":21484:21551   */\n      tag_614\n        /* \"#utility.yul\":21548:21550   */\n      0x13\n        /* \"#utility.yul\":21543:21546   */\n      dup4\n        /* \"#utility.yul\":21484:21551   */\n      tag_304\n      jump\t// in\n    tag_614:\n        /* \"#utility.yul\":21477:21551   */\n      swap2\n      pop\n        /* \"#utility.yul\":21560:21653   */\n      tag_615\n        /* \"#utility.yul\":21649:21652   */\n      dup3\n        /* \"#utility.yul\":21560:21653   */\n      tag_367\n      jump\t// in\n    tag_615:\n        /* \"#utility.yul\":21678:21680   */\n      0x20\n        /* \"#utility.yul\":21673:21676   */\n      dup3\n        /* \"#utility.yul\":21669:21681   */\n      add\n        /* \"#utility.yul\":21662:21681   */\n      swap1\n      pop\n        /* \"#utility.yul\":21321:21687   */\n      swap2\n      swap1\n      pop\n      jump\t// out\n        /* \"#utility.yul\":21693:22112   */\n    tag_186:\n        /* \"#utility.yul\":21859:21863   */\n      0x00\n        /* \"#utility.yul\":21897:21899   */\n      0x20\n        /* \"#utility.yul\":21886:21895   */\n      dup3\n        /* \"#utility.yul\":21882:21900   */\n      add\n        /* \"#utility.yul\":21874:21900   */\n      swap1\n      pop\n        /* \"#utility.yul\":21946:21955   */\n      dup2\n        /* \"#utility.yul\":21940:21944   */\n      dup2\n        /* \"#utility.yul\":21936:21956   */\n      sub\n        /* \"#utility.yul\":21932:21933   */\n      0x00\n        /* \"#utility.yul\":21921:21930   */\n      dup4\n        /* \"#utility.yul\":21917:21934   */\n      add\n        /* \"#utility.yul\":21910:21957   */\n      mstore\n        /* \"#utility.yul\":21974:22105   */\n      tag_617\n        /* \"#utility.yul\":22100:22104   */\n      dup2\n        /* \"#utility.yul\":21974:22105   */\n      tag_368\n      jump\t// in\n    tag_617:\n        /* \"#utility.yul\":21966:22105   */\n      swap1\n      pop\n        /* \"#utility.yul\":21693:22112   */\n      swap2\n      swap1\n      pop\n      jump\t// out\n        /* \"#utility.yul\":22118:22282   */\n    tag_369:\n        /* \"#utility.yul\":22258:22274   */\n      0x4974656d206e6f7420666f756e64000000000000000000000000000000000000\n        /* \"#utility.yul\":22254:22255   */\n      0x00\n        /* \"#utility.yul\":22246:22252   */\n      dup3\n        /* \"#utility.yul\":22242:22256   */\n      add\n        /* \"#utility.yul\":22235:22275   */\n      mstore\n        /* \"#utility.yul\":22118:22282   */\n      pop\n      jump\t// out\n        /* \"#utility.yul\":22288:22654   */\n    tag_370:\n        /* \"#utility.yul\":22430:22433   */\n      0x00\n        /* \"#utility.yul\":22451:22518   */\n      tag_620\n        /* \"#utility.yul\":22515:22517   */\n      0x0e\n        /* \"#utility.yul\":22510:22513   */\n      dup4\n        /* \"#utility.yul\":22451:22518   */\n      tag_304\n      jump\t// in\n    tag_620:\n        /* \"#utility.yul\":22444:22518   */\n      swap2\n      pop\n        /* \"#utility.yul\":22527:22620   */\n      tag_621\n        /* \"#utility.yul\":22616:22619   */\n      dup3\n        /* \"#utility.yul\":22527:22620   */\n      tag_369\n      jump\t// in\n    tag_621:\n        /* \"#utility.yul\":22645:22647   */\n      0x20\n        /* \"#utility.yul\":22640:22643   */\n      dup3\n        /* \"#utility.yul\":22636:22648   */\n      add\n        /* \"#utility.yul\":22629:22648   */\n      swap1\n      pop\n        /* \"#utility.yul\":22288:22654   */\n      swap2\n      swap1\n      pop\n      jump\t// out\n        /* \"#utility.yul\":22660:23079   */\n    tag_201:\n        /* \"#utility.yul\":22826:22830   */\n      0x00\n        /* \"#utility.yul\":22864:22866   */\n      0x20\n        /* \"#utility.yul\":22853:22862   */\n      dup3\n        /* \"#utility.yul\":22849:22867   */\n      add\n        /* \"#utility.yul\":22841:22867   */\n      swap1\n      pop\n        /* \"#utility.yul\":22913:22922   */\n      dup2\n        /* \"#utility.yul\":22907:22911   */\n      dup2\n        /* \"#utility.yul\":22903:22923   */\n      sub\n        /* \"#utility.yul\":22899:22900   */\n      0x00\n        /* \"#utility.yul\":22888:22897   */\n      dup4\n        /* \"#utility.yul\":22884:22901   */\n      add\n        /* \"#utility.yul\":22877:22924   */\n      mstore\n        /* \"#utility.yul\":22941:23072   */\n      tag_623\n        /* \"#utility.yul\":23067:23071   */\n      dup2\n        /* \"#utility.yul\":22941:23072   */\n      tag_370\n      jump\t// in\n    tag_623:\n        /* \"#utility.yul\":22933:23072   */\n      swap1\n      pop\n        /* \"#utility.yul\":22660:23079   */\n      swap2\n      swap1\n      pop\n      jump\t// out\n        /* \"#utility.yul\":23085:23234   */\n    tag_371:\n        /* \"#utility.yul\":23134:23140   */\n      0x00\n        /* \"#utility.yul\":23168:23173   */\n      dup2\n        /* \"#utility.yul\":23162:23174   */\n      sload\n        /* \"#utility.yul\":23152:23174   */\n      swap1\n      pop\n        /* \"#utility.yul\":23194:23227   */\n      tag_625\n        /* \"#utility.yul\":23220:23226   */\n      dup2\n        /* \"#utility.yul\":23194:23227   */\n      tag_129\n      jump\t// in\n    tag_625:\n        /* \"#utility.yul\":23184:23227   */\n      swap1\n      pop\n        /* \"#utility.yul\":23085:23234   */\n      swap2\n      swap1\n      pop\n      jump\t// out\n        /* \"#utility.yul\":23240:24691   */\n    tag_208:\n        /* \"#utility.yul\":23351:23354   */\n      dup2\n        /* \"#utility.yul\":23345:23349   */\n      dup2\n        /* \"#utility.yul\":23342:23355   */\n      sub\n        /* \"#utility.yul\":23339:23365   */\n      tag_627\n      jumpi\n        /* \"#utility.yul\":23358:23363   */\n      pop\n      pop\n      jump(tag_626)\n        /* \"#utility.yul\":23339:23365   */\n    tag_627:\n        /* \"#utility.yul\":23389:23423   */\n      tag_628\n        /* \"#utility.yul\":23419:23422   */\n      dup3\n        /* \"#utility.yul\":23389:23423   */\n      tag_371\n      jump\t// in\n    tag_628:\n        /* \"#utility.yul\":23488:23506   */\n      0xffffffffffffffff\n        /* \"#utility.yul\":23480:23486   */\n      dup2\n        /* \"#utility.yul\":23477:23507   */\n      gt\n        /* \"#utility.yul\":23474:23530   */\n      iszero\n      tag_629\n      jumpi\n        /* \"#utility.yul\":23510:23528   */\n      tag_630\n      tag_325\n      jump\t// in\n    tag_630:\n        /* \"#utility.yul\":23474:23530   */\n    tag_629:\n        /* \"#utility.yul\":23554:23592   */\n      tag_631\n        /* \"#utility.yul\":23586:23590   */\n      dup3\n        /* \"#utility.yul\":23580:23591   */\n      sload\n        /* \"#utility.yul\":23554:23592   */\n      tag_129\n      jump\t// in\n    tag_631:\n        /* \"#utility.yul\":23639:23706   */\n      tag_632\n        /* \"#utility.yul\":23699:23705   */\n      dup3\n        /* \"#utility.yul\":23691:23697   */\n      dup3\n        /* \"#utility.yul\":23685:23689   */\n      dup6\n        /* \"#utility.yul\":23639:23706   */\n      tag_362\n      jump\t// in\n    tag_632:\n        /* \"#utility.yul\":23733:23734   */\n      0x00\n        /* \"#utility.yul\":23762:23764   */\n      0x1f\n        /* \"#utility.yul\":23754:23760   */\n      dup4\n        /* \"#utility.yul\":23751:23765   */\n      gt\n        /* \"#utility.yul\":23779:23780   */\n      0x01\n        /* \"#utility.yul\":23774:24446   */\n      dup2\n      eq\n      tag_634\n      jumpi\n        /* \"#utility.yul\":24490:24491   */\n      0x00\n        /* \"#utility.yul\":24507:24513   */\n      dup5\n        /* \"#utility.yul\":24504:24581   */\n      iszero\n      tag_635\n      jumpi\n        /* \"#utility.yul\":24556:24565   */\n      dup3\n        /* \"#utility.yul\":24551:24554   */\n      dup8\n        /* \"#utility.yul\":24547:24566   */\n      add\n        /* \"#utility.yul\":24541:24567   */\n      sload\n        /* \"#utility.yul\":24532:24567   */\n      swap1\n      pop\n        /* \"#utility.yul\":24504:24581   */\n    tag_635:\n        /* \"#utility.yul\":24607:24674   */\n      tag_636\n        /* \"#utility.yul\":24667:24673   */\n      dup6\n        /* \"#utility.yul\":24660:24665   */\n      dup3\n        /* \"#utility.yul\":24607:24674   */\n      tag_365\n      jump\t// in\n    tag_636:\n        /* \"#utility.yul\":24601:24605   */\n      dup7\n        /* \"#utility.yul\":24594:24675   */\n      sstore\n        /* \"#utility.yul\":24463:24685   */\n      pop\n        /* \"#utility.yul\":23744:24685   */\n      jump(tag_633)\n        /* \"#utility.yul\":23774:24446   */\n    tag_634:\n        /* \"#utility.yul\":23826:23830   */\n      0x1f\n        /* \"#utility.yul\":23822:23831   */\n      not\n        /* \"#utility.yul\":23814:23820   */\n      dup5\n        /* \"#utility.yul\":23810:23832   */\n      and\n        /* \"#utility.yul\":23852:23888   */\n      tag_637\n        /* \"#utility.yul\":23884:23887   */\n      dup8\n        /* \"#utility.yul\":23852:23888   */\n      tag_351\n      jump\t// in\n    tag_637:\n        /* \"#utility.yul\":23845:23888   */\n      swap7\n      pop\n        /* \"#utility.yul\":23915:23952   */\n      tag_638\n        /* \"#utility.yul\":23947:23951   */\n      dup7\n        /* \"#utility.yul\":23915:23952   */\n      tag_351\n      jump\t// in\n    tag_638:\n        /* \"#utility.yul\":23974:23975   */\n      0x00\n        /* \"#utility.yul\":23988:24195   */\n    tag_639:\n        /* \"#utility.yul\":24002:24009   */\n      dup3\n        /* \"#utility.yul\":23999:24000   */\n      dup2\n        /* \"#utility.yul\":23996:24010   */\n      lt\n        /* \"#utility.yul\":23988:24195   */\n      iszero\n      tag_641\n      jumpi\n        /* \"#utility.yul\":24081:24090   */\n      dup5\n        /* \"#utility.yul\":24076:24079   */\n      dup10\n        /* \"#utility.yul\":24072:24091   */\n      add\n        /* \"#utility.yul\":24066:24092   */\n      sload\n        /* \"#utility.yul\":24058:24064   */\n      dup3\n        /* \"#utility.yul\":24051:24093   */\n      sstore\n        /* \"#utility.yul\":24132:24133   */\n      0x01\n        /* \"#utility.yul\":24124:24130   */\n      dup3\n        /* \"#utility.yul\":24120:24134   */\n      add\n        /* \"#utility.yul\":24110:24134   */\n      swap2\n      pop\n        /* \"#utility.yul\":24179:24180   */\n      0x01\n        /* \"#utility.yul\":24168:24177   */\n      dup6\n        /* \"#utility.yul\":24164:24181   */\n      add\n        /* \"#utility.yul\":24151:24181   */\n      swap5\n      pop\n        /* \"#utility.yul\":24025:24029   */\n      0x20\n        /* \"#utility.yul\":24022:24023   */\n      dup2\n        /* \"#utility.yul\":24018:24030   */\n      add\n        /* \"#utility.yul\":24013:24030   */\n      swap1\n      pop\n        /* \"#utility.yul\":23988:24195   */\n      jump(tag_639)\n    tag_641:\n        /* \"#utility.yul\":24223:24229   */\n      dup7\n        /* \"#utility.yul\":24214:24221   */\n      dup4\n        /* \"#utility.yul\":24211:24230   */\n      lt\n        /* \"#utility.yul\":24208:24387   */\n      iszero\n      tag_642\n      jumpi\n        /* \"#utility.yul\":24281:24290   */\n      dup5\n        /* \"#utility.yul\":24276:24279   */\n      dup10\n        /* \"#utility.yul\":24272:24291   */\n      add\n        /* \"#utility.yul\":24266:24292   */\n      sload\n        /* \"#utility.yul\":24324:24372   */\n      tag_643\n        /* \"#utility.yul\":24366:24370   */\n      0x1f\n        /* \"#utility.yul\":24358:24364   */\n      dup10\n        /* \"#utility.yul\":24354:24371   */\n      and\n        /* \"#utility.yul\":24343:24352   */\n      dup3\n        /* \"#utility.yul\":24324:24372   */\n      tag_364\n      jump\t// in\n    tag_643:\n        /* \"#utility.yul\":24316:24322   */\n      dup4\n        /* \"#utility.yul\":24309:24373   */\n      sstore\n        /* \"#utility.yul\":24231:24387   */\n      pop\n        /* \"#utility.yul\":24208:24387   */\n    tag_642:\n        /* \"#utility.yul\":24433:24434   */\n      0x01\n        /* \"#utility.yul\":24429:24430   */\n      0x02\n        /* \"#utility.yul\":24421:24427   */\n      dup9\n        /* \"#utility.yul\":24417:24431   */\n      mul\n        /* \"#utility.yul\":24413:24435   */\n      add\n        /* \"#utility.yul\":24407:24411   */\n      dup9\n        /* \"#utility.yul\":24400:24436   */\n      sstore\n        /* \"#utility.yul\":23781:24446   */\n      pop\n      pop\n      pop\n        /* \"#utility.yul\":23744:24685   */\n    tag_633:\n      pop\n        /* \"#utility.yul\":23329:24691   */\n      pop\n      pop\n      pop\n        /* \"#utility.yul\":23240:24691   */\n      pop\n      pop\n    tag_626:\n      jump\t// out\n        /* \"#utility.yul\":24721:25552   */\n    tag_372:\n        /* \"#utility.yul\":24806:24809   */\n      0x00\n        /* \"#utility.yul\":24843:24848   */\n      dup2\n        /* \"#utility.yul\":24837:24849   */\n      sload\n        /* \"#utility.yul\":24872:24908   */\n      tag_645\n        /* \"#utility.yul\":24898:24907   */\n      dup2\n        /* \"#utility.yul\":24872:24908   */\n      tag_129\n      jump\t// in\n    tag_645:\n        /* \"#utility.yul\":24924:24995   */\n      tag_646\n        /* \"#utility.yul\":24988:24994   */\n      dup2\n        /* \"#utility.yul\":24983:24986   */\n      dup7\n        /* \"#utility.yul\":24924:24995   */\n      tag_304\n      jump\t// in\n    tag_646:\n        /* \"#utility.yul\":24917:24995   */\n      swap5\n      pop\n        /* \"#utility.yul\":25026:25027   */\n      0x01\n        /* \"#utility.yul\":25015:25024   */\n      dup3\n        /* \"#utility.yul\":25011:25028   */\n      and\n        /* \"#utility.yul\":25042:25043   */\n      0x00\n        /* \"#utility.yul\":25037:25201   */\n      dup2\n      eq\n      tag_648\n      jumpi\n        /* \"#utility.yul\":25215:25216   */\n      0x01\n        /* \"#utility.yul\":25210:25546   */\n      dup2\n      eq\n      tag_649\n      jumpi\n        /* \"#utility.yul\":25004:25546   */\n      jump(tag_647)\n        /* \"#utility.yul\":25037:25201   */\n    tag_648:\n        /* \"#utility.yul\":25121:25125   */\n      0xff\n        /* \"#utility.yul\":25117:25126   */\n      not\n        /* \"#utility.yul\":25106:25115   */\n      dup4\n        /* \"#utility.yul\":25102:25127   */\n      and\n        /* \"#utility.yul\":25097:25100   */\n      dup7\n        /* \"#utility.yul\":25090:25128   */\n      mstore\n        /* \"#utility.yul\":25181:25187   */\n      dup2\n        /* \"#utility.yul\":25174:25188   */\n      iszero\n        /* \"#utility.yul\":25167:25189   */\n      iszero\n        /* \"#utility.yul\":25161:25165   */\n      0x20\n        /* \"#utility.yul\":25157:25190   */\n      mul\n        /* \"#utility.yul\":25152:25155   */\n      dup7\n        /* \"#utility.yul\":25148:25191   */\n      add\n        /* \"#utility.yul\":25141:25191   */\n      swap4\n      pop\n        /* \"#utility.yul\":25037:25201   */\n      jump(tag_647)\n        /* \"#utility.yul\":25210:25546   */\n    tag_649:\n        /* \"#utility.yul\":25277:25315   */\n      tag_650\n        /* \"#utility.yul\":25309:25314   */\n      dup6\n        /* \"#utility.yul\":25277:25315   */\n      tag_351\n      jump\t// in\n    tag_650:\n        /* \"#utility.yul\":25337:25338   */\n      0x00\n        /* \"#utility.yul\":25351:25505   */\n    tag_651:\n        /* \"#utility.yul\":25365:25371   */\n      dup4\n        /* \"#utility.yul\":25362:25363   */\n      dup2\n        /* \"#utility.yul\":25359:25372   */\n      lt\n        /* \"#utility.yul\":25351:25505   */\n      iszero\n      tag_653\n      jumpi\n        /* \"#utility.yul\":25439:25446   */\n      dup2\n        /* \"#utility.yul\":25433:25447   */\n      sload\n        /* \"#utility.yul\":25429:25430   */\n      dup2\n        /* \"#utility.yul\":25424:25427   */\n      dup10\n        /* \"#utility.yul\":25420:25431   */\n      add\n        /* \"#utility.yul\":25413:25448   */\n      mstore\n        /* \"#utility.yul\":25489:25490   */\n      0x01\n        /* \"#utility.yul\":25480:25487   */\n      dup3\n        /* \"#utility.yul\":25476:25491   */\n      add\n        /* \"#utility.yul\":25465:25491   */\n      swap2\n      pop\n        /* \"#utility.yul\":25387:25391   */\n      0x20\n        /* \"#utility.yul\":25384:25385   */\n      dup2\n        /* \"#utility.yul\":25380:25392   */\n      add\n        /* \"#utility.yul\":25375:25392   */\n      swap1\n      pop\n        /* \"#utility.yul\":25351:25505   */\n      jump(tag_651)\n    tag_653:\n        /* \"#utility.yul\":25534:25535   */\n      dup1\n        /* \"#utility.yul\":25529:25532   */\n      dup9\n        /* \"#utility.yul\":25525:25536   */\n      add\n        /* \"#utility.yul\":25518:25536   */\n      swap6\n      pop\n        /* \"#utility.yul\":25217:25546   */\n      pop\n      pop\n        /* \"#utility.yul\":25004:25546   */\n    tag_647:\n      pop\n        /* \"#utility.yul\":24810:25552   */\n      pop\n      pop\n        /* \"#utility.yul\":24721:25552   */\n      swap3\n      swap2\n      pop\n      pop\n      jump\t// out\n        /* \"#utility.yul\":25558:26077   */\n    tag_210:\n        /* \"#utility.yul\":25720:25724   */\n      0x00\n        /* \"#utility.yul\":25758:25760   */\n      0x60\n        /* \"#utility.yul\":25747:25756   */\n      dup3\n        /* \"#utility.yul\":25743:25761   */\n      add\n        /* \"#utility.yul\":25735:25761   */\n      swap1\n      pop\n        /* \"#utility.yul\":25771:25838   */\n      tag_655\n        /* \"#utility.yul\":25835:25836   */\n      0x00\n        /* \"#utility.yul\":25824:25833   */\n      dup4\n        /* \"#utility.yul\":25820:25837   */\n      add\n        /* \"#utility.yul\":25811:25817   */\n      dup7\n        /* \"#utility.yul\":25771:25838   */\n      tag_322\n      jump\t// in\n    tag_655:\n        /* \"#utility.yul\":25885:25894   */\n      dup2\n        /* \"#utility.yul\":25879:25883   */\n      dup2\n        /* \"#utility.yul\":25875:25895   */\n      sub\n        /* \"#utility.yul\":25870:25872   */\n      0x20\n        /* \"#utility.yul\":25859:25868   */\n      dup4\n        /* \"#utility.yul\":25855:25873   */\n      add\n        /* \"#utility.yul\":25848:25896   */\n      mstore\n        /* \"#utility.yul\":25913:25988   */\n      tag_656\n        /* \"#utility.yul\":25983:25987   */\n      dup2\n        /* \"#utility.yul\":25974:25980   */\n      dup6\n        /* \"#utility.yul\":25913:25988   */\n      tag_372\n      jump\t// in\n    tag_656:\n        /* \"#utility.yul\":25905:25988   */\n      swap1\n      pop\n        /* \"#utility.yul\":25998:26070   */\n      tag_657\n        /* \"#utility.yul\":26066:26068   */\n      0x40\n        /* \"#utility.yul\":26055:26064   */\n      dup4\n        /* \"#utility.yul\":26051:26069   */\n      add\n        /* \"#utility.yul\":26042:26048   */\n      dup5\n        /* \"#utility.yul\":25998:26070   */\n      tag_320\n      jump\t// in\n    tag_657:\n        /* \"#utility.yul\":25558:26077   */\n      swap5\n      swap4\n      pop\n      pop\n      pop\n      pop\n      jump\t// out\n        /* \"#utility.yul\":26083:26162   */\n    tag_373:\n        /* \"#utility.yul\":26122:26129   */\n      0x00\n        /* \"#utility.yul\":26151:26156   */\n      dup2\n        /* \"#utility.yul\":26140:26156   */\n      swap1\n      pop\n        /* \"#utility.yul\":26083:26162   */\n      swap2\n      swap1\n      pop\n      jump\t// out\n        /* \"#utility.yul\":26168:26325   */\n    tag_374:\n        /* \"#utility.yul\":26273:26318   */\n      tag_660\n        /* \"#utility.yul\":26293:26317   */\n      tag_661\n        /* \"#utility.yul\":26311:26316   */\n      dup3\n        /* \"#utility.yul\":26293:26317   */\n      tag_315\n      jump\t// in\n    tag_661:\n        /* \"#utility.yul\":26273:26318   */\n      tag_373\n      jump\t// in\n    tag_660:\n        /* \"#utility.yul\":26268:26271   */\n      dup3\n        /* \"#utility.yul\":26261:26319   */\n      mstore\n        /* \"#utility.yul\":26168:26325   */\n      pop\n      pop\n      jump\t// out\n        /* \"#utility.yul\":26331:26425   */\n    tag_375:\n        /* \"#utility.yul\":26364:26372   */\n      0x00\n        /* \"#utility.yul\":26412:26417   */\n      dup2\n        /* \"#utility.yul\":26408:26410   */\n      0x60\n        /* \"#utility.yul\":26404:26418   */\n      shl\n        /* \"#utility.yul\":26383:26418   */\n      swap1\n      pop\n        /* \"#utility.yul\":26331:26425   */\n      swap2\n      swap1\n      pop\n      jump\t// out\n        /* \"#utility.yul\":26431:26525   */\n    tag_376:\n        /* \"#utility.yul\":26470:26477   */\n      0x00\n        /* \"#utility.yul\":26499:26519   */\n      tag_664\n        /* \"#utility.yul\":26513:26518   */\n      dup3\n        /* \"#utility.yul\":26499:26519   */\n      tag_375\n      jump\t// in\n    tag_664:\n        /* \"#utility.yul\":26488:26519   */\n      swap1\n      pop\n        /* \"#utility.yul\":26431:26525   */\n      swap2\n      swap1\n      pop\n      jump\t// out\n        /* \"#utility.yul\":26531:26631   */\n    tag_377:\n        /* \"#utility.yul\":26570:26577   */\n      0x00\n        /* \"#utility.yul\":26599:26625   */\n      tag_666\n        /* \"#utility.yul\":26619:26624   */\n      dup3\n        /* \"#utility.yul\":26599:26625   */\n      tag_376\n      jump\t// in\n    tag_666:\n        /* \"#utility.yul\":26588:26625   */\n      swap1\n      pop\n        /* \"#utility.yul\":26531:26631   */\n      swap2\n      swap1\n      pop\n      jump\t// out\n        /* \"#utility.yul\":26637:26794   */\n    tag_378:\n        /* \"#utility.yul\":26742:26787   */\n      tag_668\n        /* \"#utility.yul\":26762:26786   */\n      tag_669\n        /* \"#utility.yul\":26780:26785   */\n      dup3\n        /* \"#utility.yul\":26762:26786   */\n      tag_312\n      jump\t// in\n    tag_669:\n        /* \"#utility.yul\":26742:26787   */\n      tag_377\n      jump\t// in\n    tag_668:\n        /* \"#utility.yul\":26737:26740   */\n      dup3\n        /* \"#utility.yul\":26730:26788   */\n      mstore\n        /* \"#utility.yul\":26637:26794   */\n      pop\n      pop\n      jump\t// out\n        /* \"#utility.yul\":26800:27197   */\n    tag_223:\n        /* \"#utility.yul\":26940:26943   */\n      0x00\n        /* \"#utility.yul\":26955:27030   */\n      tag_671\n        /* \"#utility.yul\":27026:27029   */\n      dup3\n        /* \"#utility.yul\":27017:27023   */\n      dup6\n        /* \"#utility.yul\":26955:27030   */\n      tag_374\n      jump\t// in\n    tag_671:\n        /* \"#utility.yul\":27055:27057   */\n      0x20\n        /* \"#utility.yul\":27050:27053   */\n      dup3\n        /* \"#utility.yul\":27046:27058   */\n      add\n        /* \"#utility.yul\":27039:27058   */\n      swap2\n      pop\n        /* \"#utility.yul\":27068:27143   */\n      tag_672\n        /* \"#utility.yul\":27139:27142   */\n      dup3\n        /* \"#utility.yul\":27130:27136   */\n      dup5\n        /* \"#utility.yul\":27068:27143   */\n      tag_378\n      jump\t// in\n    tag_672:\n        /* \"#utility.yul\":27168:27170   */\n      0x14\n        /* \"#utility.yul\":27163:27166   */\n      dup3\n        /* \"#utility.yul\":27159:27171   */\n      add\n        /* \"#utility.yul\":27152:27171   */\n      swap2\n      pop\n        /* \"#utility.yul\":27188:27191   */\n      dup2\n        /* \"#utility.yul\":27181:27191   */\n      swap1\n      pop\n        /* \"#utility.yul\":26800:27197   */\n      swap4\n      swap3\n      pop\n      pop\n      pop\n      jump\t// out\n        /* \"#utility.yul\":27203:27383   */\n    tag_379:\n        /* \"#utility.yul\":27251:27328   */\n      0x4e487b7100000000000000000000000000000000000000000000000000000000\n        /* \"#utility.yul\":27248:27249   */\n      0x00\n        /* \"#utility.yul\":27241:27329   */\n      mstore\n        /* \"#utility.yul\":27348:27352   */\n      0x12\n        /* \"#utility.yul\":27345:27346   */\n      0x04\n        /* \"#utility.yul\":27338:27353   */\n      mstore\n        /* \"#utility.yul\":27372:27376   */\n      0x24\n        /* \"#utility.yul\":27369:27370   */\n      0x00\n        /* \"#utility.yul\":27362:27377   */\n      revert\n        /* \"#utility.yul\":27389:27565   */\n    tag_225:\n        /* \"#utility.yul\":27421:27422   */\n      0x00\n        /* \"#utility.yul\":27438:27458   */\n      tag_675\n        /* \"#utility.yul\":27456:27457   */\n      dup3\n        /* \"#utility.yul\":27438:27458   */\n      tag_315\n      jump\t// in\n    tag_675:\n        /* \"#utility.yul\":27433:27458   */\n      swap2\n      pop\n        /* \"#utility.yul\":27472:27492   */\n      tag_676\n        /* \"#utility.yul\":27490:27491   */\n      dup4\n        /* \"#utility.yul\":27472:27492   */\n      tag_315\n      jump\t// in\n    tag_676:\n        /* \"#utility.yul\":27467:27492   */\n      swap3\n      pop\n        /* \"#utility.yul\":27511:27512   */\n      dup3\n        /* \"#utility.yul\":27501:27536   */\n      tag_677\n      jumpi\n        /* \"#utility.yul\":27516:27534   */\n      tag_678\n      tag_379\n      jump\t// in\n    tag_678:\n        /* \"#utility.yul\":27501:27536   */\n    tag_677:\n        /* \"#utility.yul\":27557:27558   */\n      dup3\n        /* \"#utility.yul\":27554:27555   */\n      dup3\n        /* \"#utility.yul\":27550:27559   */\n      mod\n        /* \"#utility.yul\":27545:27559   */\n      swap1\n      pop\n        /* \"#utility.yul\":27389:27565   */\n      swap3\n      swap2\n      pop\n      pop\n      jump\t// out\n        /* \"#utility.yul\":27571:27981   */\n    tag_229:\n        /* \"#utility.yul\":27611:27618   */\n      0x00\n        /* \"#utility.yul\":27634:27654   */\n      tag_680\n        /* \"#utility.yul\":27652:27653   */\n      dup3\n        /* \"#utility.yul\":27634:27654   */\n      tag_315\n      jump\t// in\n    tag_680:\n        /* \"#utility.yul\":27629:27654   */\n      swap2\n      pop\n        /* \"#utility.yul\":27668:27688   */\n      tag_681\n        /* \"#utility.yul\":27686:27687   */\n      dup4\n        /* \"#utility.yul\":27668:27688   */\n      tag_315\n      jump\t// in\n    tag_681:\n        /* \"#utility.yul\":27663:27688   */\n      swap3\n      pop\n        /* \"#utility.yul\":27723:27724   */\n      dup3\n        /* \"#utility.yul\":27720:27721   */\n      dup3\n        /* \"#utility.yul\":27716:27725   */\n      mul\n        /* \"#utility.yul\":27745:27775   */\n      tag_682\n        /* \"#utility.yul\":27763:27774   */\n      dup2\n        /* \"#utility.yul\":27745:27775   */\n      tag_315\n      jump\t// in\n    tag_682:\n        /* \"#utility.yul\":27734:27775   */\n      swap2\n      pop\n        /* \"#utility.yul\":27924:27925   */\n      dup3\n        /* \"#utility.yul\":27915:27922   */\n      dup3\n        /* \"#utility.yul\":27911:27926   */\n      div\n        /* \"#utility.yul\":27908:27909   */\n      dup5\n        /* \"#utility.yul\":27905:27927   */\n      eq\n        /* \"#utility.yul\":27885:27886   */\n      dup4\n        /* \"#utility.yul\":27878:27887   */\n      iszero\n        /* \"#utility.yul\":27858:27941   */\n      or\n        /* \"#utility.yul\":27835:27974   */\n      tag_683\n      jumpi\n        /* \"#utility.yul\":27954:27972   */\n      tag_684\n      tag_366\n      jump\t// in\n    tag_684:\n        /* \"#utility.yul\":27835:27974   */\n    tag_683:\n        /* \"#utility.yul\":27619:27981   */\n      pop\n        /* \"#utility.yul\":27571:27981   */\n      swap3\n      swap2\n      pop\n      pop\n      jump\t// out\n        /* \"#utility.yul\":27987:28140   */\n    tag_380:\n        /* \"#utility.yul\":28127:28132   */\n      0x776f6e0000000000000000000000000000000000000000000000000000000000\n        /* \"#utility.yul\":28123:28124   */\n      0x00\n        /* \"#utility.yul\":28115:28121   */\n      dup3\n        /* \"#utility.yul\":28111:28125   */\n      add\n        /* \"#utility.yul\":28104:28133   */\n      mstore\n        /* \"#utility.yul\":27987:28140   */\n      pop\n      jump\t// out\n        /* \"#utility.yul\":28146:28511   */\n    tag_381:\n        /* \"#utility.yul\":28288:28291   */\n      0x00\n        /* \"#utility.yul\":28309:28375   */\n      tag_687\n        /* \"#utility.yul\":28373:28374   */\n      0x03\n        /* \"#utility.yul\":28368:28371   */\n      dup4\n        /* \"#utility.yul\":28309:28375   */\n      tag_304\n      jump\t// in\n    tag_687:\n        /* \"#utility.yul\":28302:28375   */\n      swap2\n      pop\n        /* \"#utility.yul\":28384:28477   */\n      tag_688\n        /* \"#utility.yul\":28473:28476   */\n      dup3\n        /* \"#utility.yul\":28384:28477   */\n      tag_380\n      jump\t// in\n    tag_688:\n        /* \"#utility.yul\":28502:28504   */\n      0x20\n        /* \"#utility.yul\":28497:28500   */\n      dup3\n        /* \"#utility.yul\":28493:28505   */\n      add\n        /* \"#utility.yul\":28486:28505   */\n      swap1\n      pop\n        /* \"#utility.yul\":28146:28511   */\n      swap2\n      swap1\n      pop\n      jump\t// out\n        /* \"#utility.yul\":28517:29144   */\n    tag_231:\n        /* \"#utility.yul\":28733:28737   */\n      0x00\n        /* \"#utility.yul\":28771:28773   */\n      0x60\n        /* \"#utility.yul\":28760:28769   */\n      dup3\n        /* \"#utility.yul\":28756:28774   */\n      add\n        /* \"#utility.yul\":28748:28774   */\n      swap1\n      pop\n        /* \"#utility.yul\":28784:28855   */\n      tag_690\n        /* \"#utility.yul\":28852:28853   */\n      0x00\n        /* \"#utility.yul\":28841:28850   */\n      dup4\n        /* \"#utility.yul\":28837:28854   */\n      add\n        /* \"#utility.yul\":28828:28834   */\n      dup6\n        /* \"#utility.yul\":28784:28855   */\n      tag_320\n      jump\t// in\n    tag_690:\n        /* \"#utility.yul\":28865:28931   */\n      tag_691\n        /* \"#utility.yul\":28927:28929   */\n      0x20\n        /* \"#utility.yul\":28916:28925   */\n      dup4\n        /* \"#utility.yul\":28912:28930   */\n      add\n        /* \"#utility.yul\":28903:28909   */\n      dup5\n        /* \"#utility.yul\":28865:28931   */\n      tag_319\n      jump\t// in\n    tag_691:\n        /* \"#utility.yul\":28978:28987   */\n      dup2\n        /* \"#utility.yul\":28972:28976   */\n      dup2\n        /* \"#utility.yul\":28968:28988   */\n      sub\n        /* \"#utility.yul\":28963:28965   */\n      0x40\n        /* \"#utility.yul\":28952:28961   */\n      dup4\n        /* \"#utility.yul\":28948:28966   */\n      add\n        /* \"#utility.yul\":28941:28989   */\n      mstore\n        /* \"#utility.yul\":29006:29137   */\n      tag_692\n        /* \"#utility.yul\":29132:29136   */\n      dup2\n        /* \"#utility.yul\":29006:29137   */\n      tag_381\n      jump\t// in\n    tag_692:\n        /* \"#utility.yul\":28998:29137   */\n      swap1\n      pop\n        /* \"#utility.yul\":28517:29144   */\n      swap4\n      swap3\n      pop\n      pop\n      pop\n      jump\t// out\n        /* \"#utility.yul\":29150:29304   */\n    tag_382:\n        /* \"#utility.yul\":29290:29296   */\n      0x6c6f737400000000000000000000000000000000000000000000000000000000\n        /* \"#utility.yul\":29286:29287   */\n      0x00\n        /* \"#utility.yul\":29278:29284   */\n      dup3\n        /* \"#utility.yul\":29274:29288   */\n      add\n        /* \"#utility.yul\":29267:29297   */\n      mstore\n        /* \"#utility.yul\":29150:29304   */\n      pop\n      jump\t// out\n        /* \"#utility.yul\":29310:29675   */\n    tag_383:\n        /* \"#utility.yul\":29452:29455   */\n      0x00\n        /* \"#utility.yul\":29473:29539   */\n      tag_695\n        /* \"#utility.yul\":29537:29538   */\n      0x04\n        /* \"#utility.yul\":29532:29535   */\n      dup4\n        /* \"#utility.yul\":29473:29539   */\n      tag_304\n      jump\t// in\n    tag_695:\n        /* \"#utility.yul\":29466:29539   */\n      swap2\n      pop\n        /* \"#utility.yul\":29548:29641   */\n      tag_696\n        /* \"#utility.yul\":29637:29640   */\n      dup3\n        /* \"#utility.yul\":29548:29641   */\n      tag_382\n      jump\t// in\n    tag_696:\n        /* \"#utility.yul\":29666:29668   */\n      0x20\n        /* \"#utility.yul\":29661:29664   */\n      dup3\n        /* \"#utility.yul\":29657:29669   */\n      add\n        /* \"#utility.yul\":29650:29669   */\n      swap1\n      pop\n        /* \"#utility.yul\":29310:29675   */\n      swap2\n      swap1\n      pop\n      jump\t// out\n        /* \"#utility.yul\":29681:30308   */\n    tag_235:\n        /* \"#utility.yul\":29897:29901   */\n      0x00\n        /* \"#utility.yul\":29935:29937   */\n      0x60\n        /* \"#utility.yul\":29924:29933   */\n      dup3\n        /* \"#utility.yul\":29920:29938   */\n      add\n        /* \"#utility.yul\":29912:29938   */\n      swap1\n      pop\n        /* \"#utility.yul\":29948:30019   */\n      tag_698\n        /* \"#utility.yul\":30016:30017   */\n      0x00\n        /* \"#utility.yul\":30005:30014   */\n      dup4\n        /* \"#utility.yul\":30001:30018   */\n      add\n        /* \"#utility.yul\":29992:29998   */\n      dup6\n        /* \"#utility.yul\":29948:30019   */\n      tag_320\n      jump\t// in\n    tag_698:\n        /* \"#utility.yul\":30029:30095   */\n      tag_699\n        /* \"#utility.yul\":30091:30093   */\n      0x20\n        /* \"#utility.yul\":30080:30089   */\n      dup4\n        /* \"#utility.yul\":30076:30094   */\n      add\n        /* \"#utility.yul\":30067:30073   */\n      dup5\n        /* \"#utility.yul\":30029:30095   */\n      tag_319\n      jump\t// in\n    tag_699:\n        /* \"#utility.yul\":30142:30151   */\n      dup2\n        /* \"#utility.yul\":30136:30140   */\n      dup2\n        /* \"#utility.yul\":30132:30152   */\n      sub\n        /* \"#utility.yul\":30127:30129   */\n      0x40\n        /* \"#utility.yul\":30116:30125   */\n      dup4\n        /* \"#utility.yul\":30112:30130   */\n      add\n        /* \"#utility.yul\":30105:30153   */\n      mstore\n        /* \"#utility.yul\":30170:30301   */\n      tag_700\n        /* \"#utility.yul\":30296:30300   */\n      dup2\n        /* \"#utility.yul\":30170:30301   */\n      tag_383\n      jump\t// in\n    tag_700:\n        /* \"#utility.yul\":30162:30301   */\n      swap1\n      pop\n        /* \"#utility.yul\":29681:30308   */\n      swap4\n      swap3\n      pop\n      pop\n      pop\n      jump\t// out\n        /* \"#utility.yul\":30314:30542   */\n    tag_384:\n        /* \"#utility.yul\":30454:30488   */\n      0x596f7527766520616c726561647920636c61696d656420796f75722077656c63\n        /* \"#utility.yul\":30450:30451   */\n      0x00\n        /* \"#utility.yul\":30442:30448   */\n      dup3\n        /* \"#utility.yul\":30438:30452   */\n      add\n        /* \"#utility.yul\":30431:30489   */\n      mstore\n        /* \"#utility.yul\":30523:30534   */\n      0x6f6d6520626f6e75730000000000000000000000000000000000000000000000\n        /* \"#utility.yul\":30518:30520   */\n      0x20\n        /* \"#utility.yul\":30510:30516   */\n      dup3\n        /* \"#utility.yul\":30506:30521   */\n      add\n        /* \"#utility.yul\":30499:30535   */\n      mstore\n        /* \"#utility.yul\":30314:30542   */\n      pop\n      jump\t// out\n        /* \"#utility.yul\":30548:30914   */\n    tag_385:\n        /* \"#utility.yul\":30690:30693   */\n      0x00\n        /* \"#utility.yul\":30711:30778   */\n      tag_703\n        /* \"#utility.yul\":30775:30777   */\n      0x29\n        /* \"#utility.yul\":30770:30773   */\n      dup4\n        /* \"#utility.yul\":30711:30778   */\n      tag_304\n      jump\t// in\n    tag_703:\n        /* \"#utility.yul\":30704:30778   */\n      swap2\n      pop\n        /* \"#utility.yul\":30787:30880   */\n      tag_704\n        /* \"#utility.yul\":30876:30879   */\n      dup3\n        /* \"#utility.yul\":30787:30880   */\n      tag_384\n      jump\t// in\n    tag_704:\n        /* \"#utility.yul\":30905:30907   */\n      0x40\n        /* \"#utility.yul\":30900:30903   */\n      dup3\n        /* \"#utility.yul\":30896:30908   */\n      add\n        /* \"#utility.yul\":30889:30908   */\n      swap1\n      pop\n        /* \"#utility.yul\":30548:30914   */\n      swap2\n      swap1\n      pop\n      jump\t// out\n        /* \"#utility.yul\":30920:31339   */\n    tag_246:\n        /* \"#utility.yul\":31086:31090   */\n      0x00\n        /* \"#utility.yul\":31124:31126   */\n      0x20\n        /* \"#utility.yul\":31113:31122   */\n      dup3\n        /* \"#utility.yul\":31109:31127   */\n      add\n        /* \"#utility.yul\":31101:31127   */\n      swap1\n      pop\n        /* \"#utility.yul\":31173:31182   */\n      dup2\n        /* \"#utility.yul\":31167:31171   */\n      dup2\n        /* \"#utility.yul\":31163:31183   */\n      sub\n        /* \"#utility.yul\":31159:31160   */\n      0x00\n        /* \"#utility.yul\":31148:31157   */\n      dup4\n        /* \"#utility.yul\":31144:31161   */\n      add\n        /* \"#utility.yul\":31137:31184   */\n      mstore\n        /* \"#utility.yul\":31201:31332   */\n      tag_706\n        /* \"#utility.yul\":31327:31331   */\n      dup2\n        /* \"#utility.yul\":31201:31332   */\n      tag_385\n      jump\t// in\n    tag_706:\n        /* \"#utility.yul\":31193:31332   */\n      swap1\n      pop\n        /* \"#utility.yul\":30920:31339   */\n      swap2\n      swap1\n      pop\n      jump\t// out\n        /* \"#utility.yul\":31345:31787   */\n    tag_262:\n        /* \"#utility.yul\":31494:31498   */\n      0x00\n        /* \"#utility.yul\":31532:31534   */\n      0x60\n        /* \"#utility.yul\":31521:31530   */\n      dup3\n        /* \"#utility.yul\":31517:31535   */\n      add\n        /* \"#utility.yul\":31509:31535   */\n      swap1\n      pop\n        /* \"#utility.yul\":31545:31616   */\n      tag_708\n        /* \"#utility.yul\":31613:31614   */\n      0x00\n        /* \"#utility.yul\":31602:31611   */\n      dup4\n        /* \"#utility.yul\":31598:31615   */\n      add\n        /* \"#utility.yul\":31589:31595   */\n      dup7\n        /* \"#utility.yul\":31545:31616   */\n      tag_332\n      jump\t// in\n    tag_708:\n        /* \"#utility.yul\":31626:31698   */\n      tag_709\n        /* \"#utility.yul\":31694:31696   */\n      0x20\n        /* \"#utility.yul\":31683:31692   */\n      dup4\n        /* \"#utility.yul\":31679:31697   */\n      add\n        /* \"#utility.yul\":31670:31676   */\n      dup6\n        /* \"#utility.yul\":31626:31698   */\n      tag_320\n      jump\t// in\n    tag_709:\n        /* \"#utility.yul\":31708:31780   */\n      tag_710\n        /* \"#utility.yul\":31776:31778   */\n      0x40\n        /* \"#utility.yul\":31765:31774   */\n      dup4\n        /* \"#utility.yul\":31761:31779   */\n      add\n        /* \"#utility.yul\":31752:31758   */\n      dup5\n        /* \"#utility.yul\":31708:31780   */\n      tag_320\n      jump\t// in\n    tag_710:\n        /* \"#utility.yul\":31345:31787   */\n      swap5\n      swap4\n      pop\n      pop\n      pop\n      pop\n      jump\t// out\n        /* \"#utility.yul\":31793:31984   */\n    tag_296:\n        /* \"#utility.yul\":31833:31836   */\n      0x00\n        /* \"#utility.yul\":31852:31872   */\n      tag_712\n        /* \"#utility.yul\":31870:31871   */\n      dup3\n        /* \"#utility.yul\":31852:31872   */\n      tag_315\n      jump\t// in\n    tag_712:\n        /* \"#utility.yul\":31847:31872   */\n      swap2\n      pop\n        /* \"#utility.yul\":31886:31906   */\n      tag_713\n        /* \"#utility.yul\":31904:31905   */\n      dup4\n        /* \"#utility.yul\":31886:31906   */\n      tag_315\n      jump\t// in\n    tag_713:\n        /* \"#utility.yul\":31881:31906   */\n      swap3\n      pop\n        /* \"#utility.yul\":31929:31930   */\n      dup3\n        /* \"#utility.yul\":31926:31927   */\n      dup3\n        /* \"#utility.yul\":31922:31931   */\n      add\n        /* \"#utility.yul\":31915:31931   */\n      swap1\n      pop\n        /* \"#utility.yul\":31950:31953   */\n      dup1\n        /* \"#utility.yul\":31947:31948   */\n      dup3\n        /* \"#utility.yul\":31944:31954   */\n      gt\n        /* \"#utility.yul\":31941:31977   */\n      iszero\n      tag_714\n      jumpi\n        /* \"#utility.yul\":31957:31975   */\n      tag_715\n      tag_366\n      jump\t// in\n    tag_715:\n        /* \"#utility.yul\":31941:31977   */\n    tag_714:\n        /* \"#utility.yul\":31793:31984   */\n      swap3\n      swap2\n      pop\n      pop\n      jump\t// out\n\n    auxdata: 0xa2646970667358221220fe4e2975c141cb4f61c7ffe8ddd28321463c1cc8f1fdc0f14ca8d9d9e900b16464736f6c634300081a0033\n}\n",
				"bytecode": {
					"linkReferences": {},
					"object": "608060405234801561000f575f80fd5b50604051613586380380613586833981810160405281019061003191906109a9565b816040518060400160405280600581526020017f446567656e0000000000000000000000000000000000000000000000000000008152506040518060400160405280600381526020017f44474e000000000000000000000000000000000000000000000000000000000081525081600390816100ad9190610c18565b5080600490816100bd9190610c18565b5050505f73ffffffffffffffffffffffffffffffffffffffff168173ffffffffffffffffffffffffffffffffffffffff1603610130575f6040517f1e4fbdf70000000000000000000000000000000000000000000000000000000081526004016101279190610cf6565b60405180910390fd5b61013f816104cd60201b60201c565b50610150828261059060201b60201c565b60405180606001604052806040518060400160405280601081526020017f4e6f76696365204e6176696761746f72000000000000000000000000000000008152508152602001600160ff168152602001606481525060065f600160ff1681526020019081526020015f205f820151815f0190816101cd9190610c18565b506020820151816001015f6101000a81548160ff021916908360ff1602179055506040820151816002015590505060405180606001604052806040518060400160405280600f81526020017f4d7974686963204d6176657269636b00000000000000000000000000000000008152508152602001600260ff1681526020016102bc81525060065f600260ff1681526020019081526020015f205f820151815f0190816102799190610c18565b506020820151816001015f6101000a81548160ff021916908360ff1602179055506040820151816002015590505060405180606001604052806040518060400160405280601181526020017f43656c65737469616c20437275736865720000000000000000000000000000008152508152602001600360ff1681526020016104b081525060065f600360ff1681526020019081526020015f205f820151815f0190816103259190610c18565b506020820151816001015f6101000a81548160ff021916908360ff1602179055506040820151816002015590505060405180606001604052806040518060400160405280600a81526020017f41737472616c20416365000000000000000000000000000000000000000000008152508152602001600460ff16815260200161089881525060065f600460ff1681526020019081526020015f205f820151815f0190816103d19190610c18565b506020820151816001015f6101000a81548160ff021916908360ff1602179055506040820151816002015590505060405180606001604052806040518060400160405280601081526020017f446976696e6520446f6d696e61746f72000000000000000000000000000000008152508152602001600560ff16815260200161096081525060065f600560ff1681526020019081526020015f205f820151815f01908161047d9190610c18565b506020820151816001015f6101000a81548160ff021916908360ff16021790555060408201518160020155905050600660085f6101000a81548160ff021916908360ff1602179055505050610dcc565b5f60055f9054906101000a900473ffffffffffffffffffffffffffffffffffffffff1690508160055f6101000a81548173ffffffffffffffffffffffffffffffffffffffff021916908373ffffffffffffffffffffffffffffffffffffffff1602179055508173ffffffffffffffffffffffffffffffffffffffff168173ffffffffffffffffffffffffffffffffffffffff167f8be0079c531659141344cd1fd0a4f28419497f9722a3daafe3b4186f6b6457e060405160405180910390a35050565b61059e6105b260201b60201c565b6105ae828261064b60201b60201c565b5050565b6105c06106d060201b60201c565b73ffffffffffffffffffffffffffffffffffffffff166105e46106d760201b60201c565b73ffffffffffffffffffffffffffffffffffffffff16146106495761060d6106d060201b60201c565b6040517f118cdaa70000000000000000000000000000000000000000000000000000000081526004016106409190610cf6565b60405180910390fd5b565b5f73ffffffffffffffffffffffffffffffffffffffff168273ffffffffffffffffffffffffffffffffffffffff16036106bb575f6040517fec442f050000000000000000000000000000000000000000000000000000000081526004016106b29190610cf6565b60405180910390fd5b6106cc5f83836106ff60201b60201c565b5050565b5f33905090565b5f60055f9054906101000a900473ffffffffffffffffffffffffffffffffffffffff16905090565b5f73ffffffffffffffffffffffffffffffffffffffff168373ffffffffffffffffffffffffffffffffffffffff160361074f578060025f8282546107439190610d3c565b9250508190555061081d565b5f805f8573ffffffffffffffffffffffffffffffffffffffff1673ffffffffffffffffffffffffffffffffffffffff1681526020019081526020015f20549050818110156107d8578381836040517fe450d38c0000000000000000000000000000000000000000000000000000000081526004016107cf93929190610d7e565b60405180910390fd5b8181035f808673ffffffffffffffffffffffffffffffffffffffff1673ffffffffffffffffffffffffffffffffffffffff1681526020019081526020015f2081905550505b5f73ffffffffffffffffffffffffffffffffffffffff168273ffffffffffffffffffffffffffffffffffffffff1603610864578060025f82825403925050819055506108ae565b805f808473ffffffffffffffffffffffffffffffffffffffff1673ffffffffffffffffffffffffffffffffffffffff1681526020019081526020015f205f82825401925050819055505b8173ffffffffffffffffffffffffffffffffffffffff168373ffffffffffffffffffffffffffffffffffffffff167fddf252ad1be2c89b69c2b068fc378daa952ba7f163c4a11628f55a4df523b3ef8360405161090b9190610db3565b60405180910390a3505050565b5f80fd5b5f73ffffffffffffffffffffffffffffffffffffffff82169050919050565b5f6109458261091c565b9050919050565b6109558161093b565b811461095f575f80fd5b50565b5f815190506109708161094c565b92915050565b5f819050919050565b61098881610976565b8114610992575f80fd5b50565b5f815190506109a38161097f565b92915050565b5f80604083850312156109bf576109be610918565b5b5f6109cc85828601610962565b92505060206109dd85828601610995565b9150509250929050565b5f81519050919050565b7f4e487b71000000000000000000000000000000000000000000000000000000005f52604160045260245ffd5b7f4e487b71000000000000000000000000000000000000000000000000000000005f52602260045260245ffd5b5f6002820490506001821680610a6257607f821691505b602082108103610a7557610a74610a1e565b5b50919050565b5f819050815f5260205f209050919050565b5f6020601f8301049050919050565b5f82821b905092915050565b5f60088302610ad77fffffffffffffffffffffffffffffffffffffffffffffffffffffffffffffffff82610a9c565b610ae18683610a9c565b95508019841693508086168417925050509392505050565b5f819050919050565b5f610b1c610b17610b1284610976565b610af9565b610976565b9050919050565b5f819050919050565b610b3583610b02565b610b49610b4182610b23565b848454610aa8565b825550505050565b5f90565b610b5d610b51565b610b68818484610b2c565b505050565b5b81811015610b8b57610b805f82610b55565b600181019050610b6e565b5050565b601f821115610bd057610ba181610a7b565b610baa84610a8d565b81016020851015610bb9578190505b610bcd610bc585610a8d565b830182610b6d565b50505b505050565b5f82821c905092915050565b5f610bf05f1984600802610bd5565b1980831691505092915050565b5f610c088383610be1565b9150826002028217905092915050565b610c21826109e7565b67ffffffffffffffff811115610c3a57610c396109f1565b5b610c448254610a4b565b610c4f828285610b8f565b5f60209050601f831160018114610c80575f8415610c6e578287015190505b610c788582610bfd565b865550610cdf565b601f198416610c8e86610a7b565b5f5b82811015610cb557848901518255600182019150602085019450602081019050610c90565b86831015610cd25784890151610cce601f891682610be1565b8355505b6001600288020188555050505b505050505050565b610cf08161093b565b82525050565b5f602082019050610d095f830184610ce7565b92915050565b7f4e487b71000000000000000000000000000000000000000000000000000000005f52601160045260245ffd5b5f610d4682610976565b9150610d5183610976565b9250828201905080821115610d6957610d68610d0f565b5b92915050565b610d7881610976565b82525050565b5f606082019050610d915f830186610ce7565b610d9e6020830185610d6f565b610dab6040830184610d6f565b949350505050565b5f602082019050610dc65f830184610d6f565b92915050565b6127ad80610dd95f395ff3fe608060405234801561000f575f80fd5b5060043610610171575f3560e01c8063715018a6116100dc578063af3bcb7d11610095578063ea5e65e01161006f578063ea5e65e014610435578063f2fde38b14610451578063f5112f871461046d578063fbd1a97b1461047757610171565b8063af3bcb7d146103b9578063ce6019b4146103d5578063dd62ed3e1461040557610171565b8063715018a61461030b57806379cc6790146103155780637b47ec1a146103315780638da5cb5b1461034d57806395d89b411461036b578063a9059cbb1461038957610171565b806323b872dd1161012e57806323b872dd14610239578063313ce5671461026957806340c10f191461028757806342966c68146102a357806362d6bbdf146102bf57806370a08231146102db57610171565b806306fdde0314610175578063095ea7b3146101935780631072cbea146101c357806312065fe0146101df57806317d70f7c146101fd57806318160ddd1461021b575b5f80fd5b61017d6104a9565b60405161018a919061179a565b60405180910390f35b6101ad60048036038101906101a89190611858565b610539565b6040516101ba91906118b0565b60405180910390f35b6101dd60048036038101906101d89190611858565b61055b565b005b6101e76105b5565b6040516101f491906118d8565b60405180910390f35b6102056105c4565b604051610212919061190c565b60405180910390f35b6102236105d6565b60405161023091906118d8565b60405180910390f35b610253600480360381019061024e9190611925565b6105df565b60405161026091906118b0565b60405180910390f35b61027161060d565b60405161027e919061190c565b60405180910390f35b6102a1600480360381019061029c9190611858565b610611565b005b6102bd60048036038101906102b89190611975565b610627565b005b6102d960048036038101906102d49190611acc565b61063b565b005b6102f560048036038101906102f09190611b26565b610710565b60405161030291906118d8565b60405180910390f35b610313610755565b005b61032f600480360381019061032a9190611858565b610768565b005b61034b60048036038101906103469190611975565b610788565b005b6103556107df565b6040516103629190611b60565b60405180910390f35b610373610807565b604051610380919061179a565b60405180910390f35b6103a3600480360381019061039e9190611858565b610897565b6040516103b091906118b0565b60405180910390f35b6103d360048036038101906103ce9190611ba3565b6108b9565b005b6103ef60048036038101906103ea9190611b26565b610ae9565b6040516103fc9190611d3c565b60405180910390f35b61041f600480360381019061041a9190611d5c565b610c37565b60405161042c91906118d8565b60405180910390f35b61044f600480360381019061044a9190611dc4565b610cb9565b005b61046b60048036038101906104669190611b26565b610dcc565b005b610475610e50565b005b610491600480360381019061048c9190611ba3565b610ea7565b6040516104a093929190611e02565b60405180910390f35b6060600380546104b890611e6b565b80601f01602080910402602001604051908101604052809291908181526020018280546104e490611e6b565b801561052f5780601f106105065761010080835404028352916020019161052f565b820191905f5260205f20905b81548152906001019060200180831161051257829003601f168201915b5050505050905090565b5f80610543610f5f565b9050610550818585610f66565b600191505092915050565b8061056533610710565b10156105a6576040517f08c379a000000000000000000000000000000000000000000000000000000000815260040161059d90611ee5565b60405180910390fd5b6105b08282610897565b505050565b5f6105bf33610710565b905090565b60085f9054906101000a900460ff1681565b5f600254905090565b5f806105e9610f5f565b90506105f6858285610f78565b61060185858561100a565b60019150509392505050565b5f90565b6106196110fa565b6106238282611181565b5050565b610638610632610f5f565b82611200565b50565b6106436110fa565b604051806060016040528083815260200160085f9054906101000a900460ff1660ff1681526020018281525060065f60085f9054906101000a900460ff1660ff1660ff1681526020019081526020015f205f820151815f0190816106a791906120a0565b506020820151816001015f6101000a81548160ff021916908360ff1602179055506040820151816002015590505060085f81819054906101000a900460ff16809291906106f39061219c565b91906101000a81548160ff021916908360ff160217905550505050565b5f805f8373ffffffffffffffffffffffffffffffffffffffff1673ffffffffffffffffffffffffffffffffffffffff1681526020019081526020015f20549050919050565b61075d6110fa565b6107665f61127f565b565b61077a82610774610f5f565b83610f78565b6107848282611200565b5050565b8061079233610710565b10156107d3576040517f08c379a00000000000000000000000000000000000000000000000000000000081526004016107ca9061220e565b60405180910390fd5b6107dc81610627565b50565b5f60055f9054906101000a900473ffffffffffffffffffffffffffffffffffffffff16905090565b60606004805461081690611e6b565b80601f016020809104026020016040519081016040528092919081815260200182805461084290611e6b565b801561088d5780601f106108645761010080835404028352916020019161088d565b820191905f5260205f20905b81548152906001019060200180831161087057829003601f168201915b5050505050905090565b5f806108a1610f5f565b90506108ae81858561100a565b600191505092915050565b5f60065f8360ff1660ff1681526020019081526020015f206002015403610915576040517f08c379a000000000000000000000000000000000000000000000000000000000815260040161090c90612276565b60405180910390fd5b60065f8260ff1660ff1681526020019081526020015f206002015461093933610710565b101561097a576040517f08c379a000000000000000000000000000000000000000000000000000000000815260040161097190611ee5565b60405180910390fd5b61099d60065f8360ff1660ff1681526020019081526020015f2060020154610627565b60075f3373ffffffffffffffffffffffffffffffffffffffff1673ffffffffffffffffffffffffffffffffffffffff1681526020019081526020015f2060065f8360ff1660ff1681526020019081526020015f20908060018154018082558091505060019003905f5260205f2090600302015f909190919091505f8201815f019081610a2991906122a9565b50600182015f9054906101000a900460ff16816001015f6101000a81548160ff021916908360ff1602179055506002820154816002015550503373ffffffffffffffffffffffffffffffffffffffff167f8bedd141782c49139782bd92bd7a760a0bcb544ffecfd2b25f00366fae06598e8260065f8560ff1660ff1681526020019081526020015f205f0160065f8660ff1660ff1681526020019081526020015f2060020154604051610ade9392919061240f565b60405180910390a250565b606060075f8373ffffffffffffffffffffffffffffffffffffffff1673ffffffffffffffffffffffffffffffffffffffff1681526020019081526020015f20805480602002602001604051908101604052809291908181526020015f905b82821015610c2c578382905f5260205f2090600302016040518060600160405290815f82018054610b7790611e6b565b80601f0160208091040260200160405190810160405280929190818152602001828054610ba390611e6b565b8015610bee5780601f10610bc557610100808354040283529160200191610bee565b820191905f5260205f20905b815481529060010190602001808311610bd157829003601f168201915b50505050508152602001600182015f9054906101000a900460ff1660ff1660ff16815260200160028201548152505081526020019060010190610b47565b505050509050919050565b5f60015f8473ffffffffffffffffffffffffffffffffffffffff1673ffffffffffffffffffffffffffffffffffffffff1681526020019081526020015f205f8373ffffffffffffffffffffffffffffffffffffffff1673ffffffffffffffffffffffffffffffffffffffff1681526020019081526020015f2054905092915050565b5f600a4233604051602001610ccf9291906124b0565b604051602081830303815290604052805190602001205f1c610cf19190612508565b905060058110151583151503610d6d57610d1733600284610d129190612538565b611181565b3373ffffffffffffffffffffffffffffffffffffffff167fd04d9689d8e43bc0bacea67661ef472dcf321f34f08af72f651af30c4c866587826001604051610d609291906125c3565b60405180910390a2610dc7565b610d7682610627565b3373ffffffffffffffffffffffffffffffffffffffff167fd04d9689d8e43bc0bacea67661ef472dcf321f34f08af72f651af30c4c866587825f604051610dbe929190612647565b60405180910390a25b505050565b610dd46110fa565b5f73ffffffffffffffffffffffffffffffffffffffff168173ffffffffffffffffffffffffffffffffffffffff1603610e44575f6040517f1e4fbdf7000000000000000000000000000000000000000000000000000000008152600401610e3b9190611b60565b60405180910390fd5b610e4d8161127f565b50565b5f610e5a33610710565b14610e9a576040517f08c379a0000000000000000000000000000000000000000000000000000000008152600401610e91906126f1565b60405180910390fd5b610ea5336032611181565b565b6006602052805f5260405f205f91509050805f018054610ec690611e6b565b80601f0160208091040260200160405190810160405280929190818152602001828054610ef290611e6b565b8015610f3d5780601f10610f1457610100808354040283529160200191610f3d565b820191905f5260205f20905b815481529060010190602001808311610f2057829003601f168201915b505050505090806001015f9054906101000a900460ff16908060020154905083565b5f33905090565b610f738383836001611342565b505050565b5f610f838484610c37565b90507fffffffffffffffffffffffffffffffffffffffffffffffffffffffffffffffff81146110045781811015610ff5578281836040517ffb8f41b2000000000000000000000000000000000000000000000000000000008152600401610fec9392919061270f565b60405180910390fd5b61100384848484035f611342565b5b50505050565b5f73ffffffffffffffffffffffffffffffffffffffff168373ffffffffffffffffffffffffffffffffffffffff160361107a575f6040517f96c6fd1e0000000000000000000000000000000000000000000000000000000081526004016110719190611b60565b60405180910390fd5b5f73ffffffffffffffffffffffffffffffffffffffff168273ffffffffffffffffffffffffffffffffffffffff16036110ea575f6040517fec442f050000000000000000000000000000000000000000000000000000000081526004016110e19190611b60565b60405180910390fd5b6110f5838383611511565b505050565b611102610f5f565b73ffffffffffffffffffffffffffffffffffffffff166111206107df565b73ffffffffffffffffffffffffffffffffffffffff161461117f57611143610f5f565b6040517f118cdaa70000000000000000000000000000000000000000000000000000000081526004016111769190611b60565b60405180910390fd5b565b5f73ffffffffffffffffffffffffffffffffffffffff168273ffffffffffffffffffffffffffffffffffffffff16036111f1575f6040517fec442f050000000000000000000000000000000000000000000000000000000081526004016111e89190611b60565b60405180910390fd5b6111fc5f8383611511565b5050565b5f73ffffffffffffffffffffffffffffffffffffffff168273ffffffffffffffffffffffffffffffffffffffff1603611270575f6040517f96c6fd1e0000000000000000000000000000000000000000000000000000000081526004016112679190611b60565b60405180910390fd5b61127b825f83611511565b5050565b5f60055f9054906101000a900473ffffffffffffffffffffffffffffffffffffffff1690508160055f6101000a81548173ffffffffffffffffffffffffffffffffffffffff021916908373ffffffffffffffffffffffffffffffffffffffff1602179055508173ffffffffffffffffffffffffffffffffffffffff168173ffffffffffffffffffffffffffffffffffffffff167f8be0079c531659141344cd1fd0a4f28419497f9722a3daafe3b4186f6b6457e060405160405180910390a35050565b5f73ffffffffffffffffffffffffffffffffffffffff168473ffffffffffffffffffffffffffffffffffffffff16036113b2575f6040517fe602df050000000000000000000000000000000000000000000000000000000081526004016113a99190611b60565b60405180910390fd5b5f73ffffffffffffffffffffffffffffffffffffffff168373ffffffffffffffffffffffffffffffffffffffff1603611422575f6040517f94280d620000000000000000000000000000000000000000000000000000000081526004016114199190611b60565b60405180910390fd5b8160015f8673ffffffffffffffffffffffffffffffffffffffff1673ffffffffffffffffffffffffffffffffffffffff1681526020019081526020015f205f8573ffffffffffffffffffffffffffffffffffffffff1673ffffffffffffffffffffffffffffffffffffffff1681526020019081526020015f2081905550801561150b578273ffffffffffffffffffffffffffffffffffffffff168473ffffffffffffffffffffffffffffffffffffffff167f8c5be1e5ebec7d5bd14f71427d1e84f3dd0314c0f7b2291e5b200ac8c7c3b9258460405161150291906118d8565b60405180910390a35b50505050565b5f73ffffffffffffffffffffffffffffffffffffffff168373ffffffffffffffffffffffffffffffffffffffff1603611561578060025f8282546115559190612744565b9250508190555061162f565b5f805f8573ffffffffffffffffffffffffffffffffffffffff1673ffffffffffffffffffffffffffffffffffffffff1681526020019081526020015f20549050818110156115ea578381836040517fe450d38c0000000000000000000000000000000000000000000000000000000081526004016115e19392919061270f565b60405180910390fd5b8181035f808673ffffffffffffffffffffffffffffffffffffffff1673ffffffffffffffffffffffffffffffffffffffff1681526020019081526020015f2081905550505b5f73ffffffffffffffffffffffffffffffffffffffff168273ffffffffffffffffffffffffffffffffffffffff1603611676578060025f82825403925050819055506116c0565b805f808473ffffffffffffffffffffffffffffffffffffffff1673ffffffffffffffffffffffffffffffffffffffff1681526020019081526020015f205f82825401925050819055505b8173ffffffffffffffffffffffffffffffffffffffff168373ffffffffffffffffffffffffffffffffffffffff167fddf252ad1be2c89b69c2b068fc378daa952ba7f163c4a11628f55a4df523b3ef8360405161171d91906118d8565b60405180910390a3505050565b5f81519050919050565b5f82825260208201905092915050565b8281835e5f83830152505050565b5f601f19601f8301169050919050565b5f61176c8261172a565b6117768185611734565b9350611786818560208601611744565b61178f81611752565b840191505092915050565b5f6020820190508181035f8301526117b28184611762565b905092915050565b5f604051905090565b5f80fd5b5f80fd5b5f73ffffffffffffffffffffffffffffffffffffffff82169050919050565b5f6117f4826117cb565b9050919050565b611804816117ea565b811461180e575f80fd5b50565b5f8135905061181f816117fb565b92915050565b5f819050919050565b61183781611825565b8114611841575f80fd5b50565b5f813590506118528161182e565b92915050565b5f806040838503121561186e5761186d6117c3565b5b5f61187b85828601611811565b925050602061188c85828601611844565b9150509250929050565b5f8115159050919050565b6118aa81611896565b82525050565b5f6020820190506118c35f8301846118a1565b92915050565b6118d281611825565b82525050565b5f6020820190506118eb5f8301846118c9565b92915050565b5f60ff82169050919050565b611906816118f1565b82525050565b5f60208201905061191f5f8301846118fd565b92915050565b5f805f6060848603121561193c5761193b6117c3565b5b5f61194986828701611811565b935050602061195a86828701611811565b925050604061196b86828701611844565b9150509250925092565b5f6020828403121561198a576119896117c3565b5b5f61199784828501611844565b91505092915050565b5f80fd5b5f80fd5b7f4e487b71000000000000000000000000000000000000000000000000000000005f52604160045260245ffd5b6119de82611752565b810181811067ffffffffffffffff821117156119fd576119fc6119a8565b5b80604052505050565b5f611a0f6117ba565b9050611a1b82826119d5565b919050565b5f67ffffffffffffffff821115611a3a57611a396119a8565b5b611a4382611752565b9050602081019050919050565b828183375f83830152505050565b5f611a70611a6b84611a20565b611a06565b905082815260208101848484011115611a8c57611a8b6119a4565b5b611a97848285611a50565b509392505050565b5f82601f830112611ab357611ab26119a0565b5b8135611ac3848260208601611a5e565b91505092915050565b5f8060408385031215611ae257611ae16117c3565b5b5f83013567ffffffffffffffff811115611aff57611afe6117c7565b5b611b0b85828601611a9f565b9250506020611b1c85828601611844565b9150509250929050565b5f60208284031215611b3b57611b3a6117c3565b5b5f611b4884828501611811565b91505092915050565b611b5a816117ea565b82525050565b5f602082019050611b735f830184611b51565b92915050565b611b82816118f1565b8114611b8c575f80fd5b50565b5f81359050611b9d81611b79565b92915050565b5f60208284031215611bb857611bb76117c3565b5b5f611bc584828501611b8f565b91505092915050565b5f81519050919050565b5f82825260208201905092915050565b5f819050602082019050919050565b5f82825260208201905092915050565b5f611c118261172a565b611c1b8185611bf7565b9350611c2b818560208601611744565b611c3481611752565b840191505092915050565b611c48816118f1565b82525050565b611c5781611825565b82525050565b5f606083015f8301518482035f860152611c778282611c07565b9150506020830151611c8c6020860182611c3f565b506040830151611c9f6040860182611c4e565b508091505092915050565b5f611cb58383611c5d565b905092915050565b5f602082019050919050565b5f611cd382611bce565b611cdd8185611bd8565b935083602082028501611cef85611be8565b805f5b85811015611d2a5784840389528151611d0b8582611caa565b9450611d1683611cbd565b925060208a01995050600181019050611cf2565b50829750879550505050505092915050565b5f6020820190508181035f830152611d548184611cc9565b905092915050565b5f8060408385031215611d7257611d716117c3565b5b5f611d7f85828601611811565b9250506020611d9085828601611811565b9150509250929050565b611da381611896565b8114611dad575f80fd5b50565b5f81359050611dbe81611d9a565b92915050565b5f8060408385031215611dda57611dd96117c3565b5b5f611de785828601611db0565b9250506020611df885828601611844565b9150509250929050565b5f6060820190508181035f830152611e1a8186611762565b9050611e2960208301856118fd565b611e3660408301846118c9565b949350505050565b7f4e487b71000000000000000000000000000000000000000000000000000000005f52602260045260245ffd5b5f6002820490506001821680611e8257607f821691505b602082108103611e9557611e94611e3e565b5b50919050565b7f496e73756666696369656e742062616c616e63650000000000000000000000005f82015250565b5f611ecf601483611734565b9150611eda82611e9b565b602082019050919050565b5f6020820190508181035f830152611efc81611ec3565b9050919050565b5f819050815f5260205f209050919050565b5f6020601f8301049050919050565b5f82821b905092915050565b5f60088302611f5f7fffffffffffffffffffffffffffffffffffffffffffffffffffffffffffffffff82611f24565b611f698683611f24565b95508019841693508086168417925050509392505050565b5f819050919050565b5f611fa4611f9f611f9a84611825565b611f81565b611825565b9050919050565b5f819050919050565b611fbd83611f8a565b611fd1611fc982611fab565b848454611f30565b825550505050565b5f90565b611fe5611fd9565b611ff0818484611fb4565b505050565b5b81811015612013576120085f82611fdd565b600181019050611ff6565b5050565b601f8211156120585761202981611f03565b61203284611f15565b81016020851015612041578190505b61205561204d85611f15565b830182611ff5565b50505b505050565b5f82821c905092915050565b5f6120785f198460080261205d565b1980831691505092915050565b5f6120908383612069565b9150826002028217905092915050565b6120a98261172a565b67ffffffffffffffff8111156120c2576120c16119a8565b5b6120cc8254611e6b565b6120d7828285612017565b5f60209050601f831160018114612108575f84156120f6578287015190505b6121008582612085565b865550612167565b601f19841661211686611f03565b5f5b8281101561213d57848901518255600182019150602085019450602081019050612118565b8683101561215a5784890151612156601f891682612069565b8355505b6001600288020188555050505b505050505050565b7f4e487b71000000000000000000000000000000000000000000000000000000005f52601160045260245ffd5b5f6121a6826118f1565b915060ff82036121b9576121b861216f565b5b600182019050919050565b7f496e73756666696369656e7420616d6f756e74000000000000000000000000005f82015250565b5f6121f8601383611734565b9150612203826121c4565b602082019050919050565b5f6020820190508181035f830152612225816121ec565b9050919050565b7f4974656d206e6f7420666f756e640000000000000000000000000000000000005f82015250565b5f612260600e83611734565b915061226b8261222c565b602082019050919050565b5f6020820190508181035f83015261228d81612254565b9050919050565b5f815490506122a281611e6b565b9050919050565b8181036122b757505061238c565b6122c082612294565b67ffffffffffffffff8111156122d9576122d86119a8565b5b6122e38254611e6b565b6122ee828285612017565b5f601f83116001811461231b575f8415612309578287015490505b6123138582612085565b865550612385565b601f19841661232987611f03565b965061233486611f03565b5f5b8281101561235b57848901548255600182019150600185019450602081019050612336565b868310156123785784890154612374601f891682612069565b8355505b6001600288020188555050505b5050505050505b565b5f815461239a81611e6b565b6123a48186611734565b9450600182165f81146123be57600181146123d457612406565b60ff198316865281151560200286019350612406565b6123dd85611f03565b5f5b838110156123fe578154818901526001820191506020810190506123df565b808801955050505b50505092915050565b5f6060820190506124225f8301866118fd565b8181036020830152612434818561238e565b905061244360408301846118c9565b949350505050565b5f819050919050565b61246561246082611825565b61244b565b82525050565b5f8160601b9050919050565b5f6124818261246b565b9050919050565b5f61249282612477565b9050919050565b6124aa6124a5826117ea565b612488565b82525050565b5f6124bb8285612454565b6020820191506124cb8284612499565b6014820191508190509392505050565b7f4e487b71000000000000000000000000000000000000000000000000000000005f52601260045260245ffd5b5f61251282611825565b915061251d83611825565b92508261252d5761252c6124db565b5b828206905092915050565b5f61254282611825565b915061254d83611825565b925082820261255b81611825565b915082820484148315176125725761257161216f565b5b5092915050565b7f776f6e00000000000000000000000000000000000000000000000000000000005f82015250565b5f6125ad600383611734565b91506125b882612579565b602082019050919050565b5f6060820190506125d65f8301856118c9565b6125e360208301846118a1565b81810360408301526125f4816125a1565b90509392505050565b7f6c6f7374000000000000000000000000000000000000000000000000000000005f82015250565b5f612631600483611734565b915061263c826125fd565b602082019050919050565b5f60608201905061265a5f8301856118c9565b61266760208301846118a1565b818103604083015261267881612625565b90509392505050565b7f596f7527766520616c726561647920636c61696d656420796f75722077656c635f8201527f6f6d6520626f6e75730000000000000000000000000000000000000000000000602082015250565b5f6126db602983611734565b91506126e682612681565b604082019050919050565b5f6020820190508181035f830152612708816126cf565b9050919050565b5f6060820190506127225f830186611b51565b61272f60208301856118c9565b61273c60408301846118c9565b949350505050565b5f61274e82611825565b915061275983611825565b92508282019050808211156127715761277061216f565b5b9291505056fea2646970667358221220fe4e2975c141cb4f61c7ffe8ddd28321463c1cc8f1fdc0f14ca8d9d9e900b16464736f6c634300081a0033",
					"opcodes": "PUSH1 0x80 PUSH1 0x40 MSTORE CALLVALUE DUP1 ISZERO PUSH2 0xF JUMPI PUSH0 DUP1 REVERT JUMPDEST POP PUSH1 0x40 MLOAD PUSH2 0x3586 CODESIZE SUB DUP1 PUSH2 0x3586 DUP4 CODECOPY DUP2 DUP2 ADD PUSH1 0x40 MSTORE DUP2 ADD SWAP1 PUSH2 0x31 SWAP2 SWAP1 PUSH2 0x9A9 JUMP JUMPDEST DUP2 PUSH1 0x40 MLOAD DUP1 PUSH1 0x40 ADD PUSH1 0x40 MSTORE DUP1 PUSH1 0x5 DUP2 MSTORE PUSH1 0x20 ADD PUSH32 0x446567656E000000000000000000000000000000000000000000000000000000 DUP2 MSTORE POP PUSH1 0x40 MLOAD DUP1 PUSH1 0x40 ADD PUSH1 0x40 MSTORE DUP1 PUSH1 0x3 DUP2 MSTORE PUSH1 0x20 ADD PUSH32 0x44474E0000000000000000000000000000000000000000000000000000000000 DUP2 MSTORE POP DUP2 PUSH1 0x3 SWAP1 DUP2 PUSH2 0xAD SWAP2 SWAP1 PUSH2 0xC18 JUMP JUMPDEST POP DUP1 PUSH1 0x4 SWAP1 DUP2 PUSH2 0xBD SWAP2 SWAP1 PUSH2 0xC18 JUMP JUMPDEST POP POP POP PUSH0 PUSH20 0xFFFFFFFFFFFFFFFFFFFFFFFFFFFFFFFFFFFFFFFF AND DUP2 PUSH20 0xFFFFFFFFFFFFFFFFFFFFFFFFFFFFFFFFFFFFFFFF AND SUB PUSH2 0x130 JUMPI PUSH0 PUSH1 0x40 MLOAD PUSH32 0x1E4FBDF700000000000000000000000000000000000000000000000000000000 DUP2 MSTORE PUSH1 0x4 ADD PUSH2 0x127 SWAP2 SWAP1 PUSH2 0xCF6 JUMP JUMPDEST PUSH1 0x40 MLOAD DUP1 SWAP2 SUB SWAP1 REVERT JUMPDEST PUSH2 0x13F DUP2 PUSH2 0x4CD PUSH1 0x20 SHL PUSH1 0x20 SHR JUMP JUMPDEST POP PUSH2 0x150 DUP3 DUP3 PUSH2 0x590 PUSH1 0x20 SHL PUSH1 0x20 SHR JUMP JUMPDEST PUSH1 0x40 MLOAD DUP1 PUSH1 0x60 ADD PUSH1 0x40 MSTORE DUP1 PUSH1 0x40 MLOAD DUP1 PUSH1 0x40 ADD PUSH1 0x40 MSTORE DUP1 PUSH1 0x10 DUP2 MSTORE PUSH1 0x20 ADD PUSH32 0x4E6F76696365204E6176696761746F7200000000000000000000000000000000 DUP2 MSTORE POP DUP2 MSTORE PUSH1 0x20 ADD PUSH1 0x1 PUSH1 0xFF AND DUP2 MSTORE PUSH1 0x20 ADD PUSH1 0x64 DUP2 MSTORE POP PUSH1 0x6 PUSH0 PUSH1 0x1 PUSH1 0xFF AND DUP2 MSTORE PUSH1 0x20 ADD SWAP1 DUP2 MSTORE PUSH1 0x20 ADD PUSH0 KECCAK256 PUSH0 DUP3 ADD MLOAD DUP2 PUSH0 ADD SWAP1 DUP2 PUSH2 0x1CD SWAP2 SWAP1 PUSH2 0xC18 JUMP JUMPDEST POP PUSH1 0x20 DUP3 ADD MLOAD DUP2 PUSH1 0x1 ADD PUSH0 PUSH2 0x100 EXP DUP2 SLOAD DUP2 PUSH1 0xFF MUL NOT AND SWAP1 DUP4 PUSH1 0xFF AND MUL OR SWAP1 SSTORE POP PUSH1 0x40 DUP3 ADD MLOAD DUP2 PUSH1 0x2 ADD SSTORE SWAP1 POP POP PUSH1 0x40 MLOAD DUP1 PUSH1 0x60 ADD PUSH1 0x40 MSTORE DUP1 PUSH1 0x40 MLOAD DUP1 PUSH1 0x40 ADD PUSH1 0x40 MSTORE DUP1 PUSH1 0xF DUP2 MSTORE PUSH1 0x20 ADD PUSH32 0x4D7974686963204D6176657269636B0000000000000000000000000000000000 DUP2 MSTORE POP DUP2 MSTORE PUSH1 0x20 ADD PUSH1 0x2 PUSH1 0xFF AND DUP2 MSTORE PUSH1 0x20 ADD PUSH2 0x2BC DUP2 MSTORE POP PUSH1 0x6 PUSH0 PUSH1 0x2 PUSH1 0xFF AND DUP2 MSTORE PUSH1 0x20 ADD SWAP1 DUP2 MSTORE PUSH1 0x20 ADD PUSH0 KECCAK256 PUSH0 DUP3 ADD MLOAD DUP2 PUSH0 ADD SWAP1 DUP2 PUSH2 0x279 SWAP2 SWAP1 PUSH2 0xC18 JUMP JUMPDEST POP PUSH1 0x20 DUP3 ADD MLOAD DUP2 PUSH1 0x1 ADD PUSH0 PUSH2 0x100 EXP DUP2 SLOAD DUP2 PUSH1 0xFF MUL NOT AND SWAP1 DUP4 PUSH1 0xFF AND MUL OR SWAP1 SSTORE POP PUSH1 0x40 DUP3 ADD MLOAD DUP2 PUSH1 0x2 ADD SSTORE SWAP1 POP POP PUSH1 0x40 MLOAD DUP1 PUSH1 0x60 ADD PUSH1 0x40 MSTORE DUP1 PUSH1 0x40 MLOAD DUP1 PUSH1 0x40 ADD PUSH1 0x40 MSTORE DUP1 PUSH1 0x11 DUP2 MSTORE PUSH1 0x20 ADD PUSH32 0x43656C65737469616C2043727573686572000000000000000000000000000000 DUP2 MSTORE POP DUP2 MSTORE PUSH1 0x20 ADD PUSH1 0x3 PUSH1 0xFF AND DUP2 MSTORE PUSH1 0x20 ADD PUSH2 0x4B0 DUP2 MSTORE POP PUSH1 0x6 PUSH0 PUSH1 0x3 PUSH1 0xFF AND DUP2 MSTORE PUSH1 0x20 ADD SWAP1 DUP2 MSTORE PUSH1 0x20 ADD PUSH0 KECCAK256 PUSH0 DUP3 ADD MLOAD DUP2 PUSH0 ADD SWAP1 DUP2 PUSH2 0x325 SWAP2 SWAP1 PUSH2 0xC18 JUMP JUMPDEST POP PUSH1 0x20 DUP3 ADD MLOAD DUP2 PUSH1 0x1 ADD PUSH0 PUSH2 0x100 EXP DUP2 SLOAD DUP2 PUSH1 0xFF MUL NOT AND SWAP1 DUP4 PUSH1 0xFF AND MUL OR SWAP1 SSTORE POP PUSH1 0x40 DUP3 ADD MLOAD DUP2 PUSH1 0x2 ADD SSTORE SWAP1 POP POP PUSH1 0x40 MLOAD DUP1 PUSH1 0x60 ADD PUSH1 0x40 MSTORE DUP1 PUSH1 0x40 MLOAD DUP1 PUSH1 0x40 ADD PUSH1 0x40 MSTORE DUP1 PUSH1 0xA DUP2 MSTORE PUSH1 0x20 ADD PUSH32 0x41737472616C2041636500000000000000000000000000000000000000000000 DUP2 MSTORE POP DUP2 MSTORE PUSH1 0x20 ADD PUSH1 0x4 PUSH1 0xFF AND DUP2 MSTORE PUSH1 0x20 ADD PUSH2 0x898 DUP2 MSTORE POP PUSH1 0x6 PUSH0 PUSH1 0x4 PUSH1 0xFF AND DUP2 MSTORE PUSH1 0x20 ADD SWAP1 DUP2 MSTORE PUSH1 0x20 ADD PUSH0 KECCAK256 PUSH0 DUP3 ADD MLOAD DUP2 PUSH0 ADD SWAP1 DUP2 PUSH2 0x3D1 SWAP2 SWAP1 PUSH2 0xC18 JUMP JUMPDEST POP PUSH1 0x20 DUP3 ADD MLOAD DUP2 PUSH1 0x1 ADD PUSH0 PUSH2 0x100 EXP DUP2 SLOAD DUP2 PUSH1 0xFF MUL NOT AND SWAP1 DUP4 PUSH1 0xFF AND MUL OR SWAP1 SSTORE POP PUSH1 0x40 DUP3 ADD MLOAD DUP2 PUSH1 0x2 ADD SSTORE SWAP1 POP POP PUSH1 0x40 MLOAD DUP1 PUSH1 0x60 ADD PUSH1 0x40 MSTORE DUP1 PUSH1 0x40 MLOAD DUP1 PUSH1 0x40 ADD PUSH1 0x40 MSTORE DUP1 PUSH1 0x10 DUP2 MSTORE PUSH1 0x20 ADD PUSH32 0x446976696E6520446F6D696E61746F7200000000000000000000000000000000 DUP2 MSTORE POP DUP2 MSTORE PUSH1 0x20 ADD PUSH1 0x5 PUSH1 0xFF AND DUP2 MSTORE PUSH1 0x20 ADD PUSH2 0x960 DUP2 MSTORE POP PUSH1 0x6 PUSH0 PUSH1 0x5 PUSH1 0xFF AND DUP2 MSTORE PUSH1 0x20 ADD SWAP1 DUP2 MSTORE PUSH1 0x20 ADD PUSH0 KECCAK256 PUSH0 DUP3 ADD MLOAD DUP2 PUSH0 ADD SWAP1 DUP2 PUSH2 0x47D SWAP2 SWAP1 PUSH2 0xC18 JUMP JUMPDEST POP PUSH1 0x20 DUP3 ADD MLOAD DUP2 PUSH1 0x1 ADD PUSH0 PUSH2 0x100 EXP DUP2 SLOAD DUP2 PUSH1 0xFF MUL NOT AND SWAP1 DUP4 PUSH1 0xFF AND MUL OR SWAP1 SSTORE POP PUSH1 0x40 DUP3 ADD MLOAD DUP2 PUSH1 0x2 ADD SSTORE SWAP1 POP POP PUSH1 0x6 PUSH1 0x8 PUSH0 PUSH2 0x100 EXP DUP2 SLOAD DUP2 PUSH1 0xFF MUL NOT AND SWAP1 DUP4 PUSH1 0xFF AND MUL OR SWAP1 SSTORE POP POP POP PUSH2 0xDCC JUMP JUMPDEST PUSH0 PUSH1 0x5 PUSH0 SWAP1 SLOAD SWAP1 PUSH2 0x100 EXP SWAP1 DIV PUSH20 0xFFFFFFFFFFFFFFFFFFFFFFFFFFFFFFFFFFFFFFFF AND SWAP1 POP DUP2 PUSH1 0x5 PUSH0 PUSH2 0x100 EXP DUP2 SLOAD DUP2 PUSH20 0xFFFFFFFFFFFFFFFFFFFFFFFFFFFFFFFFFFFFFFFF MUL NOT AND SWAP1 DUP4 PUSH20 0xFFFFFFFFFFFFFFFFFFFFFFFFFFFFFFFFFFFFFFFF AND MUL OR SWAP1 SSTORE POP DUP2 PUSH20 0xFFFFFFFFFFFFFFFFFFFFFFFFFFFFFFFFFFFFFFFF AND DUP2 PUSH20 0xFFFFFFFFFFFFFFFFFFFFFFFFFFFFFFFFFFFFFFFF AND PUSH32 0x8BE0079C531659141344CD1FD0A4F28419497F9722A3DAAFE3B4186F6B6457E0 PUSH1 0x40 MLOAD PUSH1 0x40 MLOAD DUP1 SWAP2 SUB SWAP1 LOG3 POP POP JUMP JUMPDEST PUSH2 0x59E PUSH2 0x5B2 PUSH1 0x20 SHL PUSH1 0x20 SHR JUMP JUMPDEST PUSH2 0x5AE DUP3 DUP3 PUSH2 0x64B PUSH1 0x20 SHL PUSH1 0x20 SHR JUMP JUMPDEST POP POP JUMP JUMPDEST PUSH2 0x5C0 PUSH2 0x6D0 PUSH1 0x20 SHL PUSH1 0x20 SHR JUMP JUMPDEST PUSH20 0xFFFFFFFFFFFFFFFFFFFFFFFFFFFFFFFFFFFFFFFF AND PUSH2 0x5E4 PUSH2 0x6D7 PUSH1 0x20 SHL PUSH1 0x20 SHR JUMP JUMPDEST PUSH20 0xFFFFFFFFFFFFFFFFFFFFFFFFFFFFFFFFFFFFFFFF AND EQ PUSH2 0x649 JUMPI PUSH2 0x60D PUSH2 0x6D0 PUSH1 0x20 SHL PUSH1 0x20 SHR JUMP JUMPDEST PUSH1 0x40 MLOAD PUSH32 0x118CDAA700000000000000000000000000000000000000000000000000000000 DUP2 MSTORE PUSH1 0x4 ADD PUSH2 0x640 SWAP2 SWAP1 PUSH2 0xCF6 JUMP JUMPDEST PUSH1 0x40 MLOAD DUP1 SWAP2 SUB SWAP1 REVERT JUMPDEST JUMP JUMPDEST PUSH0 PUSH20 0xFFFFFFFFFFFFFFFFFFFFFFFFFFFFFFFFFFFFFFFF AND DUP3 PUSH20 0xFFFFFFFFFFFFFFFFFFFFFFFFFFFFFFFFFFFFFFFF AND SUB PUSH2 0x6BB JUMPI PUSH0 PUSH1 0x40 MLOAD PUSH32 0xEC442F0500000000000000000000000000000000000000000000000000000000 DUP2 MSTORE PUSH1 0x4 ADD PUSH2 0x6B2 SWAP2 SWAP1 PUSH2 0xCF6 JUMP JUMPDEST PUSH1 0x40 MLOAD DUP1 SWAP2 SUB SWAP1 REVERT JUMPDEST PUSH2 0x6CC PUSH0 DUP4 DUP4 PUSH2 0x6FF PUSH1 0x20 SHL PUSH1 0x20 SHR JUMP JUMPDEST POP POP JUMP JUMPDEST PUSH0 CALLER SWAP1 POP SWAP1 JUMP JUMPDEST PUSH0 PUSH1 0x5 PUSH0 SWAP1 SLOAD SWAP1 PUSH2 0x100 EXP SWAP1 DIV PUSH20 0xFFFFFFFFFFFFFFFFFFFFFFFFFFFFFFFFFFFFFFFF AND SWAP1 POP SWAP1 JUMP JUMPDEST PUSH0 PUSH20 0xFFFFFFFFFFFFFFFFFFFFFFFFFFFFFFFFFFFFFFFF AND DUP4 PUSH20 0xFFFFFFFFFFFFFFFFFFFFFFFFFFFFFFFFFFFFFFFF AND SUB PUSH2 0x74F JUMPI DUP1 PUSH1 0x2 PUSH0 DUP3 DUP3 SLOAD PUSH2 0x743 SWAP2 SWAP1 PUSH2 0xD3C JUMP JUMPDEST SWAP3 POP POP DUP2 SWAP1 SSTORE POP PUSH2 0x81D JUMP JUMPDEST PUSH0 DUP1 PUSH0 DUP6 PUSH20 0xFFFFFFFFFFFFFFFFFFFFFFFFFFFFFFFFFFFFFFFF AND PUSH20 0xFFFFFFFFFFFFFFFFFFFFFFFFFFFFFFFFFFFFFFFF AND DUP2 MSTORE PUSH1 0x20 ADD SWAP1 DUP2 MSTORE PUSH1 0x20 ADD PUSH0 KECCAK256 SLOAD SWAP1 POP DUP2 DUP2 LT ISZERO PUSH2 0x7D8 JUMPI DUP4 DUP2 DUP4 PUSH1 0x40 MLOAD PUSH32 0xE450D38C00000000000000000000000000000000000000000000000000000000 DUP2 MSTORE PUSH1 0x4 ADD PUSH2 0x7CF SWAP4 SWAP3 SWAP2 SWAP1 PUSH2 0xD7E JUMP JUMPDEST PUSH1 0x40 MLOAD DUP1 SWAP2 SUB SWAP1 REVERT JUMPDEST DUP2 DUP2 SUB PUSH0 DUP1 DUP7 PUSH20 0xFFFFFFFFFFFFFFFFFFFFFFFFFFFFFFFFFFFFFFFF AND PUSH20 0xFFFFFFFFFFFFFFFFFFFFFFFFFFFFFFFFFFFFFFFF AND DUP2 MSTORE PUSH1 0x20 ADD SWAP1 DUP2 MSTORE PUSH1 0x20 ADD PUSH0 KECCAK256 DUP2 SWAP1 SSTORE POP POP JUMPDEST PUSH0 PUSH20 0xFFFFFFFFFFFFFFFFFFFFFFFFFFFFFFFFFFFFFFFF AND DUP3 PUSH20 0xFFFFFFFFFFFFFFFFFFFFFFFFFFFFFFFFFFFFFFFF AND SUB PUSH2 0x864 JUMPI DUP1 PUSH1 0x2 PUSH0 DUP3 DUP3 SLOAD SUB SWAP3 POP POP DUP2 SWAP1 SSTORE POP PUSH2 0x8AE JUMP JUMPDEST DUP1 PUSH0 DUP1 DUP5 PUSH20 0xFFFFFFFFFFFFFFFFFFFFFFFFFFFFFFFFFFFFFFFF AND PUSH20 0xFFFFFFFFFFFFFFFFFFFFFFFFFFFFFFFFFFFFFFFF AND DUP2 MSTORE PUSH1 0x20 ADD SWAP1 DUP2 MSTORE PUSH1 0x20 ADD PUSH0 KECCAK256 PUSH0 DUP3 DUP3 SLOAD ADD SWAP3 POP POP DUP2 SWAP1 SSTORE POP JUMPDEST DUP2 PUSH20 0xFFFFFFFFFFFFFFFFFFFFFFFFFFFFFFFFFFFFFFFF AND DUP4 PUSH20 0xFFFFFFFFFFFFFFFFFFFFFFFFFFFFFFFFFFFFFFFF AND PUSH32 0xDDF252AD1BE2C89B69C2B068FC378DAA952BA7F163C4A11628F55A4DF523B3EF DUP4 PUSH1 0x40 MLOAD PUSH2 0x90B SWAP2 SWAP1 PUSH2 0xDB3 JUMP JUMPDEST PUSH1 0x40 MLOAD DUP1 SWAP2 SUB SWAP1 LOG3 POP POP POP JUMP JUMPDEST PUSH0 DUP1 REVERT JUMPDEST PUSH0 PUSH20 0xFFFFFFFFFFFFFFFFFFFFFFFFFFFFFFFFFFFFFFFF DUP3 AND SWAP1 POP SWAP2 SWAP1 POP JUMP JUMPDEST PUSH0 PUSH2 0x945 DUP3 PUSH2 0x91C JUMP JUMPDEST SWAP1 POP SWAP2 SWAP1 POP JUMP JUMPDEST PUSH2 0x955 DUP2 PUSH2 0x93B JUMP JUMPDEST DUP2 EQ PUSH2 0x95F JUMPI PUSH0 DUP1 REVERT JUMPDEST POP JUMP JUMPDEST PUSH0 DUP2 MLOAD SWAP1 POP PUSH2 0x970 DUP2 PUSH2 0x94C JUMP JUMPDEST SWAP3 SWAP2 POP POP JUMP JUMPDEST PUSH0 DUP2 SWAP1 POP SWAP2 SWAP1 POP JUMP JUMPDEST PUSH2 0x988 DUP2 PUSH2 0x976 JUMP JUMPDEST DUP2 EQ PUSH2 0x992 JUMPI PUSH0 DUP1 REVERT JUMPDEST POP JUMP JUMPDEST PUSH0 DUP2 MLOAD SWAP1 POP PUSH2 0x9A3 DUP2 PUSH2 0x97F JUMP JUMPDEST SWAP3 SWAP2 POP POP JUMP JUMPDEST PUSH0 DUP1 PUSH1 0x40 DUP4 DUP6 SUB SLT ISZERO PUSH2 0x9BF JUMPI PUSH2 0x9BE PUSH2 0x918 JUMP JUMPDEST JUMPDEST PUSH0 PUSH2 0x9CC DUP6 DUP3 DUP7 ADD PUSH2 0x962 JUMP JUMPDEST SWAP3 POP POP PUSH1 0x20 PUSH2 0x9DD DUP6 DUP3 DUP7 ADD PUSH2 0x995 JUMP JUMPDEST SWAP2 POP POP SWAP3 POP SWAP3 SWAP1 POP JUMP JUMPDEST PUSH0 DUP2 MLOAD SWAP1 POP SWAP2 SWAP1 POP JUMP JUMPDEST PUSH32 0x4E487B7100000000000000000000000000000000000000000000000000000000 PUSH0 MSTORE PUSH1 0x41 PUSH1 0x4 MSTORE PUSH1 0x24 PUSH0 REVERT JUMPDEST PUSH32 0x4E487B7100000000000000000000000000000000000000000000000000000000 PUSH0 MSTORE PUSH1 0x22 PUSH1 0x4 MSTORE PUSH1 0x24 PUSH0 REVERT JUMPDEST PUSH0 PUSH1 0x2 DUP3 DIV SWAP1 POP PUSH1 0x1 DUP3 AND DUP1 PUSH2 0xA62 JUMPI PUSH1 0x7F DUP3 AND SWAP2 POP JUMPDEST PUSH1 0x20 DUP3 LT DUP2 SUB PUSH2 0xA75 JUMPI PUSH2 0xA74 PUSH2 0xA1E JUMP JUMPDEST JUMPDEST POP SWAP2 SWAP1 POP JUMP JUMPDEST PUSH0 DUP2 SWAP1 POP DUP2 PUSH0 MSTORE PUSH1 0x20 PUSH0 KECCAK256 SWAP1 POP SWAP2 SWAP1 POP JUMP JUMPDEST PUSH0 PUSH1 0x20 PUSH1 0x1F DUP4 ADD DIV SWAP1 POP SWAP2 SWAP1 POP JUMP JUMPDEST PUSH0 DUP3 DUP3 SHL SWAP1 POP SWAP3 SWAP2 POP POP JUMP JUMPDEST PUSH0 PUSH1 0x8 DUP4 MUL PUSH2 0xAD7 PUSH32 0xFFFFFFFFFFFFFFFFFFFFFFFFFFFFFFFFFFFFFFFFFFFFFFFFFFFFFFFFFFFFFFFF DUP3 PUSH2 0xA9C JUMP JUMPDEST PUSH2 0xAE1 DUP7 DUP4 PUSH2 0xA9C JUMP JUMPDEST SWAP6 POP DUP1 NOT DUP5 AND SWAP4 POP DUP1 DUP7 AND DUP5 OR SWAP3 POP POP POP SWAP4 SWAP3 POP POP POP JUMP JUMPDEST PUSH0 DUP2 SWAP1 POP SWAP2 SWAP1 POP JUMP JUMPDEST PUSH0 PUSH2 0xB1C PUSH2 0xB17 PUSH2 0xB12 DUP5 PUSH2 0x976 JUMP JUMPDEST PUSH2 0xAF9 JUMP JUMPDEST PUSH2 0x976 JUMP JUMPDEST SWAP1 POP SWAP2 SWAP1 POP JUMP JUMPDEST PUSH0 DUP2 SWAP1 POP SWAP2 SWAP1 POP JUMP JUMPDEST PUSH2 0xB35 DUP4 PUSH2 0xB02 JUMP JUMPDEST PUSH2 0xB49 PUSH2 0xB41 DUP3 PUSH2 0xB23 JUMP JUMPDEST DUP5 DUP5 SLOAD PUSH2 0xAA8 JUMP JUMPDEST DUP3 SSTORE POP POP POP POP JUMP JUMPDEST PUSH0 SWAP1 JUMP JUMPDEST PUSH2 0xB5D PUSH2 0xB51 JUMP JUMPDEST PUSH2 0xB68 DUP2 DUP5 DUP5 PUSH2 0xB2C JUMP JUMPDEST POP POP POP JUMP JUMPDEST JUMPDEST DUP2 DUP2 LT ISZERO PUSH2 0xB8B JUMPI PUSH2 0xB80 PUSH0 DUP3 PUSH2 0xB55 JUMP JUMPDEST PUSH1 0x1 DUP2 ADD SWAP1 POP PUSH2 0xB6E JUMP JUMPDEST POP POP JUMP JUMPDEST PUSH1 0x1F DUP3 GT ISZERO PUSH2 0xBD0 JUMPI PUSH2 0xBA1 DUP2 PUSH2 0xA7B JUMP JUMPDEST PUSH2 0xBAA DUP5 PUSH2 0xA8D JUMP JUMPDEST DUP2 ADD PUSH1 0x20 DUP6 LT ISZERO PUSH2 0xBB9 JUMPI DUP2 SWAP1 POP JUMPDEST PUSH2 0xBCD PUSH2 0xBC5 DUP6 PUSH2 0xA8D JUMP JUMPDEST DUP4 ADD DUP3 PUSH2 0xB6D JUMP JUMPDEST POP POP JUMPDEST POP POP POP JUMP JUMPDEST PUSH0 DUP3 DUP3 SHR SWAP1 POP SWAP3 SWAP2 POP POP JUMP JUMPDEST PUSH0 PUSH2 0xBF0 PUSH0 NOT DUP5 PUSH1 0x8 MUL PUSH2 0xBD5 JUMP JUMPDEST NOT DUP1 DUP4 AND SWAP2 POP POP SWAP3 SWAP2 POP POP JUMP JUMPDEST PUSH0 PUSH2 0xC08 DUP4 DUP4 PUSH2 0xBE1 JUMP JUMPDEST SWAP2 POP DUP3 PUSH1 0x2 MUL DUP3 OR SWAP1 POP SWAP3 SWAP2 POP POP JUMP JUMPDEST PUSH2 0xC21 DUP3 PUSH2 0x9E7 JUMP JUMPDEST PUSH8 0xFFFFFFFFFFFFFFFF DUP2 GT ISZERO PUSH2 0xC3A JUMPI PUSH2 0xC39 PUSH2 0x9F1 JUMP JUMPDEST JUMPDEST PUSH2 0xC44 DUP3 SLOAD PUSH2 0xA4B JUMP JUMPDEST PUSH2 0xC4F DUP3 DUP3 DUP6 PUSH2 0xB8F JUMP JUMPDEST PUSH0 PUSH1 0x20 SWAP1 POP PUSH1 0x1F DUP4 GT PUSH1 0x1 DUP2 EQ PUSH2 0xC80 JUMPI PUSH0 DUP5 ISZERO PUSH2 0xC6E JUMPI DUP3 DUP8 ADD MLOAD SWAP1 POP JUMPDEST PUSH2 0xC78 DUP6 DUP3 PUSH2 0xBFD JUMP JUMPDEST DUP7 SSTORE POP PUSH2 0xCDF JUMP JUMPDEST PUSH1 0x1F NOT DUP5 AND PUSH2 0xC8E DUP7 PUSH2 0xA7B JUMP JUMPDEST PUSH0 JUMPDEST DUP3 DUP2 LT ISZERO PUSH2 0xCB5 JUMPI DUP5 DUP10 ADD MLOAD DUP3 SSTORE PUSH1 0x1 DUP3 ADD SWAP2 POP PUSH1 0x20 DUP6 ADD SWAP5 POP PUSH1 0x20 DUP2 ADD SWAP1 POP PUSH2 0xC90 JUMP JUMPDEST DUP7 DUP4 LT ISZERO PUSH2 0xCD2 JUMPI DUP5 DUP10 ADD MLOAD PUSH2 0xCCE PUSH1 0x1F DUP10 AND DUP3 PUSH2 0xBE1 JUMP JUMPDEST DUP4 SSTORE POP JUMPDEST PUSH1 0x1 PUSH1 0x2 DUP9 MUL ADD DUP9 SSTORE POP POP POP JUMPDEST POP POP POP POP POP POP JUMP JUMPDEST PUSH2 0xCF0 DUP2 PUSH2 0x93B JUMP JUMPDEST DUP3 MSTORE POP POP JUMP JUMPDEST PUSH0 PUSH1 0x20 DUP3 ADD SWAP1 POP PUSH2 0xD09 PUSH0 DUP4 ADD DUP5 PUSH2 0xCE7 JUMP JUMPDEST SWAP3 SWAP2 POP POP JUMP JUMPDEST PUSH32 0x4E487B7100000000000000000000000000000000000000000000000000000000 PUSH0 MSTORE PUSH1 0x11 PUSH1 0x4 MSTORE PUSH1 0x24 PUSH0 REVERT JUMPDEST PUSH0 PUSH2 0xD46 DUP3 PUSH2 0x976 JUMP JUMPDEST SWAP2 POP PUSH2 0xD51 DUP4 PUSH2 0x976 JUMP JUMPDEST SWAP3 POP DUP3 DUP3 ADD SWAP1 POP DUP1 DUP3 GT ISZERO PUSH2 0xD69 JUMPI PUSH2 0xD68 PUSH2 0xD0F JUMP JUMPDEST JUMPDEST SWAP3 SWAP2 POP POP JUMP JUMPDEST PUSH2 0xD78 DUP2 PUSH2 0x976 JUMP JUMPDEST DUP3 MSTORE POP POP JUMP JUMPDEST PUSH0 PUSH1 0x60 DUP3 ADD SWAP1 POP PUSH2 0xD91 PUSH0 DUP4 ADD DUP7 PUSH2 0xCE7 JUMP JUMPDEST PUSH2 0xD9E PUSH1 0x20 DUP4 ADD DUP6 PUSH2 0xD6F JUMP JUMPDEST PUSH2 0xDAB PUSH1 0x40 DUP4 ADD DUP5 PUSH2 0xD6F JUMP JUMPDEST SWAP5 SWAP4 POP POP POP POP JUMP JUMPDEST PUSH0 PUSH1 0x20 DUP3 ADD SWAP1 POP PUSH2 0xDC6 PUSH0 DUP4 ADD DUP5 PUSH2 0xD6F JUMP JUMPDEST SWAP3 SWAP2 POP POP JUMP JUMPDEST PUSH2 0x27AD DUP1 PUSH2 0xDD9 PUSH0 CODECOPY PUSH0 RETURN INVALID PUSH1 0x80 PUSH1 0x40 MSTORE CALLVALUE DUP1 ISZERO PUSH2 0xF JUMPI PUSH0 DUP1 REVERT JUMPDEST POP PUSH1 0x4 CALLDATASIZE LT PUSH2 0x171 JUMPI PUSH0 CALLDATALOAD PUSH1 0xE0 SHR DUP1 PUSH4 0x715018A6 GT PUSH2 0xDC JUMPI DUP1 PUSH4 0xAF3BCB7D GT PUSH2 0x95 JUMPI DUP1 PUSH4 0xEA5E65E0 GT PUSH2 0x6F JUMPI DUP1 PUSH4 0xEA5E65E0 EQ PUSH2 0x435 JUMPI DUP1 PUSH4 0xF2FDE38B EQ PUSH2 0x451 JUMPI DUP1 PUSH4 0xF5112F87 EQ PUSH2 0x46D JUMPI DUP1 PUSH4 0xFBD1A97B EQ PUSH2 0x477 JUMPI PUSH2 0x171 JUMP JUMPDEST DUP1 PUSH4 0xAF3BCB7D EQ PUSH2 0x3B9 JUMPI DUP1 PUSH4 0xCE6019B4 EQ PUSH2 0x3D5 JUMPI DUP1 PUSH4 0xDD62ED3E EQ PUSH2 0x405 JUMPI PUSH2 0x171 JUMP JUMPDEST DUP1 PUSH4 0x715018A6 EQ PUSH2 0x30B JUMPI DUP1 PUSH4 0x79CC6790 EQ PUSH2 0x315 JUMPI DUP1 PUSH4 0x7B47EC1A EQ PUSH2 0x331 JUMPI DUP1 PUSH4 0x8DA5CB5B EQ PUSH2 0x34D JUMPI DUP1 PUSH4 0x95D89B41 EQ PUSH2 0x36B JUMPI DUP1 PUSH4 0xA9059CBB EQ PUSH2 0x389 JUMPI PUSH2 0x171 JUMP JUMPDEST DUP1 PUSH4 0x23B872DD GT PUSH2 0x12E JUMPI DUP1 PUSH4 0x23B872DD EQ PUSH2 0x239 JUMPI DUP1 PUSH4 0x313CE567 EQ PUSH2 0x269 JUMPI DUP1 PUSH4 0x40C10F19 EQ PUSH2 0x287 JUMPI DUP1 PUSH4 0x42966C68 EQ PUSH2 0x2A3 JUMPI DUP1 PUSH4 0x62D6BBDF EQ PUSH2 0x2BF JUMPI DUP1 PUSH4 0x70A08231 EQ PUSH2 0x2DB JUMPI PUSH2 0x171 JUMP JUMPDEST DUP1 PUSH4 0x6FDDE03 EQ PUSH2 0x175 JUMPI DUP1 PUSH4 0x95EA7B3 EQ PUSH2 0x193 JUMPI DUP1 PUSH4 0x1072CBEA EQ PUSH2 0x1C3 JUMPI DUP1 PUSH4 0x12065FE0 EQ PUSH2 0x1DF JUMPI DUP1 PUSH4 0x17D70F7C EQ PUSH2 0x1FD JUMPI DUP1 PUSH4 0x18160DDD EQ PUSH2 0x21B JUMPI JUMPDEST PUSH0 DUP1 REVERT JUMPDEST PUSH2 0x17D PUSH2 0x4A9 JUMP JUMPDEST PUSH1 0x40 MLOAD PUSH2 0x18A SWAP2 SWAP1 PUSH2 0x179A JUMP JUMPDEST PUSH1 0x40 MLOAD DUP1 SWAP2 SUB SWAP1 RETURN JUMPDEST PUSH2 0x1AD PUSH1 0x4 DUP1 CALLDATASIZE SUB DUP2 ADD SWAP1 PUSH2 0x1A8 SWAP2 SWAP1 PUSH2 0x1858 JUMP JUMPDEST PUSH2 0x539 JUMP JUMPDEST PUSH1 0x40 MLOAD PUSH2 0x1BA SWAP2 SWAP1 PUSH2 0x18B0 JUMP JUMPDEST PUSH1 0x40 MLOAD DUP1 SWAP2 SUB SWAP1 RETURN JUMPDEST PUSH2 0x1DD PUSH1 0x4 DUP1 CALLDATASIZE SUB DUP2 ADD SWAP1 PUSH2 0x1D8 SWAP2 SWAP1 PUSH2 0x1858 JUMP JUMPDEST PUSH2 0x55B JUMP JUMPDEST STOP JUMPDEST PUSH2 0x1E7 PUSH2 0x5B5 JUMP JUMPDEST PUSH1 0x40 MLOAD PUSH2 0x1F4 SWAP2 SWAP1 PUSH2 0x18D8 JUMP JUMPDEST PUSH1 0x40 MLOAD DUP1 SWAP2 SUB SWAP1 RETURN JUMPDEST PUSH2 0x205 PUSH2 0x5C4 JUMP JUMPDEST PUSH1 0x40 MLOAD PUSH2 0x212 SWAP2 SWAP1 PUSH2 0x190C JUMP JUMPDEST PUSH1 0x40 MLOAD DUP1 SWAP2 SUB SWAP1 RETURN JUMPDEST PUSH2 0x223 PUSH2 0x5D6 JUMP JUMPDEST PUSH1 0x40 MLOAD PUSH2 0x230 SWAP2 SWAP1 PUSH2 0x18D8 JUMP JUMPDEST PUSH1 0x40 MLOAD DUP1 SWAP2 SUB SWAP1 RETURN JUMPDEST PUSH2 0x253 PUSH1 0x4 DUP1 CALLDATASIZE SUB DUP2 ADD SWAP1 PUSH2 0x24E SWAP2 SWAP1 PUSH2 0x1925 JUMP JUMPDEST PUSH2 0x5DF JUMP JUMPDEST PUSH1 0x40 MLOAD PUSH2 0x260 SWAP2 SWAP1 PUSH2 0x18B0 JUMP JUMPDEST PUSH1 0x40 MLOAD DUP1 SWAP2 SUB SWAP1 RETURN JUMPDEST PUSH2 0x271 PUSH2 0x60D JUMP JUMPDEST PUSH1 0x40 MLOAD PUSH2 0x27E SWAP2 SWAP1 PUSH2 0x190C JUMP JUMPDEST PUSH1 0x40 MLOAD DUP1 SWAP2 SUB SWAP1 RETURN JUMPDEST PUSH2 0x2A1 PUSH1 0x4 DUP1 CALLDATASIZE SUB DUP2 ADD SWAP1 PUSH2 0x29C SWAP2 SWAP1 PUSH2 0x1858 JUMP JUMPDEST PUSH2 0x611 JUMP JUMPDEST STOP JUMPDEST PUSH2 0x2BD PUSH1 0x4 DUP1 CALLDATASIZE SUB DUP2 ADD SWAP1 PUSH2 0x2B8 SWAP2 SWAP1 PUSH2 0x1975 JUMP JUMPDEST PUSH2 0x627 JUMP JUMPDEST STOP JUMPDEST PUSH2 0x2D9 PUSH1 0x4 DUP1 CALLDATASIZE SUB DUP2 ADD SWAP1 PUSH2 0x2D4 SWAP2 SWAP1 PUSH2 0x1ACC JUMP JUMPDEST PUSH2 0x63B JUMP JUMPDEST STOP JUMPDEST PUSH2 0x2F5 PUSH1 0x4 DUP1 CALLDATASIZE SUB DUP2 ADD SWAP1 PUSH2 0x2F0 SWAP2 SWAP1 PUSH2 0x1B26 JUMP JUMPDEST PUSH2 0x710 JUMP JUMPDEST PUSH1 0x40 MLOAD PUSH2 0x302 SWAP2 SWAP1 PUSH2 0x18D8 JUMP JUMPDEST PUSH1 0x40 MLOAD DUP1 SWAP2 SUB SWAP1 RETURN JUMPDEST PUSH2 0x313 PUSH2 0x755 JUMP JUMPDEST STOP JUMPDEST PUSH2 0x32F PUSH1 0x4 DUP1 CALLDATASIZE SUB DUP2 ADD SWAP1 PUSH2 0x32A SWAP2 SWAP1 PUSH2 0x1858 JUMP JUMPDEST PUSH2 0x768 JUMP JUMPDEST STOP JUMPDEST PUSH2 0x34B PUSH1 0x4 DUP1 CALLDATASIZE SUB DUP2 ADD SWAP1 PUSH2 0x346 SWAP2 SWAP1 PUSH2 0x1975 JUMP JUMPDEST PUSH2 0x788 JUMP JUMPDEST STOP JUMPDEST PUSH2 0x355 PUSH2 0x7DF JUMP JUMPDEST PUSH1 0x40 MLOAD PUSH2 0x362 SWAP2 SWAP1 PUSH2 0x1B60 JUMP JUMPDEST PUSH1 0x40 MLOAD DUP1 SWAP2 SUB SWAP1 RETURN JUMPDEST PUSH2 0x373 PUSH2 0x807 JUMP JUMPDEST PUSH1 0x40 MLOAD PUSH2 0x380 SWAP2 SWAP1 PUSH2 0x179A JUMP JUMPDEST PUSH1 0x40 MLOAD DUP1 SWAP2 SUB SWAP1 RETURN JUMPDEST PUSH2 0x3A3 PUSH1 0x4 DUP1 CALLDATASIZE SUB DUP2 ADD SWAP1 PUSH2 0x39E SWAP2 SWAP1 PUSH2 0x1858 JUMP JUMPDEST PUSH2 0x897 JUMP JUMPDEST PUSH1 0x40 MLOAD PUSH2 0x3B0 SWAP2 SWAP1 PUSH2 0x18B0 JUMP JUMPDEST PUSH1 0x40 MLOAD DUP1 SWAP2 SUB SWAP1 RETURN JUMPDEST PUSH2 0x3D3 PUSH1 0x4 DUP1 CALLDATASIZE SUB DUP2 ADD SWAP1 PUSH2 0x3CE SWAP2 SWAP1 PUSH2 0x1BA3 JUMP JUMPDEST PUSH2 0x8B9 JUMP JUMPDEST STOP JUMPDEST PUSH2 0x3EF PUSH1 0x4 DUP1 CALLDATASIZE SUB DUP2 ADD SWAP1 PUSH2 0x3EA SWAP2 SWAP1 PUSH2 0x1B26 JUMP JUMPDEST PUSH2 0xAE9 JUMP JUMPDEST PUSH1 0x40 MLOAD PUSH2 0x3FC SWAP2 SWAP1 PUSH2 0x1D3C JUMP JUMPDEST PUSH1 0x40 MLOAD DUP1 SWAP2 SUB SWAP1 RETURN JUMPDEST PUSH2 0x41F PUSH1 0x4 DUP1 CALLDATASIZE SUB DUP2 ADD SWAP1 PUSH2 0x41A SWAP2 SWAP1 PUSH2 0x1D5C JUMP JUMPDEST PUSH2 0xC37 JUMP JUMPDEST PUSH1 0x40 MLOAD PUSH2 0x42C SWAP2 SWAP1 PUSH2 0x18D8 JUMP JUMPDEST PUSH1 0x40 MLOAD DUP1 SWAP2 SUB SWAP1 RETURN JUMPDEST PUSH2 0x44F PUSH1 0x4 DUP1 CALLDATASIZE SUB DUP2 ADD SWAP1 PUSH2 0x44A SWAP2 SWAP1 PUSH2 0x1DC4 JUMP JUMPDEST PUSH2 0xCB9 JUMP JUMPDEST STOP JUMPDEST PUSH2 0x46B PUSH1 0x4 DUP1 CALLDATASIZE SUB DUP2 ADD SWAP1 PUSH2 0x466 SWAP2 SWAP1 PUSH2 0x1B26 JUMP JUMPDEST PUSH2 0xDCC JUMP JUMPDEST STOP JUMPDEST PUSH2 0x475 PUSH2 0xE50 JUMP JUMPDEST STOP JUMPDEST PUSH2 0x491 PUSH1 0x4 DUP1 CALLDATASIZE SUB DUP2 ADD SWAP1 PUSH2 0x48C SWAP2 SWAP1 PUSH2 0x1BA3 JUMP JUMPDEST PUSH2 0xEA7 JUMP JUMPDEST PUSH1 0x40 MLOAD PUSH2 0x4A0 SWAP4 SWAP3 SWAP2 SWAP1 PUSH2 0x1E02 JUMP JUMPDEST PUSH1 0x40 MLOAD DUP1 SWAP2 SUB SWAP1 RETURN JUMPDEST PUSH1 0x60 PUSH1 0x3 DUP1 SLOAD PUSH2 0x4B8 SWAP1 PUSH2 0x1E6B JUMP JUMPDEST DUP1 PUSH1 0x1F ADD PUSH1 0x20 DUP1 SWAP2 DIV MUL PUSH1 0x20 ADD PUSH1 0x40 MLOAD SWAP1 DUP2 ADD PUSH1 0x40 MSTORE DUP1 SWAP3 SWAP2 SWAP1 DUP2 DUP2 MSTORE PUSH1 0x20 ADD DUP3 DUP1 SLOAD PUSH2 0x4E4 SWAP1 PUSH2 0x1E6B JUMP JUMPDEST DUP1 ISZERO PUSH2 0x52F JUMPI DUP1 PUSH1 0x1F LT PUSH2 0x506 JUMPI PUSH2 0x100 DUP1 DUP4 SLOAD DIV MUL DUP4 MSTORE SWAP2 PUSH1 0x20 ADD SWAP2 PUSH2 0x52F JUMP JUMPDEST DUP3 ADD SWAP2 SWAP1 PUSH0 MSTORE PUSH1 0x20 PUSH0 KECCAK256 SWAP1 JUMPDEST DUP2 SLOAD DUP2 MSTORE SWAP1 PUSH1 0x1 ADD SWAP1 PUSH1 0x20 ADD DUP1 DUP4 GT PUSH2 0x512 JUMPI DUP3 SWAP1 SUB PUSH1 0x1F AND DUP3 ADD SWAP2 JUMPDEST POP POP POP POP POP SWAP1 POP SWAP1 JUMP JUMPDEST PUSH0 DUP1 PUSH2 0x543 PUSH2 0xF5F JUMP JUMPDEST SWAP1 POP PUSH2 0x550 DUP2 DUP6 DUP6 PUSH2 0xF66 JUMP JUMPDEST PUSH1 0x1 SWAP2 POP POP SWAP3 SWAP2 POP POP JUMP JUMPDEST DUP1 PUSH2 0x565 CALLER PUSH2 0x710 JUMP JUMPDEST LT ISZERO PUSH2 0x5A6 JUMPI PUSH1 0x40 MLOAD PUSH32 0x8C379A000000000000000000000000000000000000000000000000000000000 DUP2 MSTORE PUSH1 0x4 ADD PUSH2 0x59D SWAP1 PUSH2 0x1EE5 JUMP JUMPDEST PUSH1 0x40 MLOAD DUP1 SWAP2 SUB SWAP1 REVERT JUMPDEST PUSH2 0x5B0 DUP3 DUP3 PUSH2 0x897 JUMP JUMPDEST POP POP POP JUMP JUMPDEST PUSH0 PUSH2 0x5BF CALLER PUSH2 0x710 JUMP JUMPDEST SWAP1 POP SWAP1 JUMP JUMPDEST PUSH1 0x8 PUSH0 SWAP1 SLOAD SWAP1 PUSH2 0x100 EXP SWAP1 DIV PUSH1 0xFF AND DUP2 JUMP JUMPDEST PUSH0 PUSH1 0x2 SLOAD SWAP1 POP SWAP1 JUMP JUMPDEST PUSH0 DUP1 PUSH2 0x5E9 PUSH2 0xF5F JUMP JUMPDEST SWAP1 POP PUSH2 0x5F6 DUP6 DUP3 DUP6 PUSH2 0xF78 JUMP JUMPDEST PUSH2 0x601 DUP6 DUP6 DUP6 PUSH2 0x100A JUMP JUMPDEST PUSH1 0x1 SWAP2 POP POP SWAP4 SWAP3 POP POP POP JUMP JUMPDEST PUSH0 SWAP1 JUMP JUMPDEST PUSH2 0x619 PUSH2 0x10FA JUMP JUMPDEST PUSH2 0x623 DUP3 DUP3 PUSH2 0x1181 JUMP JUMPDEST POP POP JUMP JUMPDEST PUSH2 0x638 PUSH2 0x632 PUSH2 0xF5F JUMP JUMPDEST DUP3 PUSH2 0x1200 JUMP JUMPDEST POP JUMP JUMPDEST PUSH2 0x643 PUSH2 0x10FA JUMP JUMPDEST PUSH1 0x40 MLOAD DUP1 PUSH1 0x60 ADD PUSH1 0x40 MSTORE DUP1 DUP4 DUP2 MSTORE PUSH1 0x20 ADD PUSH1 0x8 PUSH0 SWAP1 SLOAD SWAP1 PUSH2 0x100 EXP SWAP1 DIV PUSH1 0xFF AND PUSH1 0xFF AND DUP2 MSTORE PUSH1 0x20 ADD DUP3 DUP2 MSTORE POP PUSH1 0x6 PUSH0 PUSH1 0x8 PUSH0 SWAP1 SLOAD SWAP1 PUSH2 0x100 EXP SWAP1 DIV PUSH1 0xFF AND PUSH1 0xFF AND PUSH1 0xFF AND DUP2 MSTORE PUSH1 0x20 ADD SWAP1 DUP2 MSTORE PUSH1 0x20 ADD PUSH0 KECCAK256 PUSH0 DUP3 ADD MLOAD DUP2 PUSH0 ADD SWAP1 DUP2 PUSH2 0x6A7 SWAP2 SWAP1 PUSH2 0x20A0 JUMP JUMPDEST POP PUSH1 0x20 DUP3 ADD MLOAD DUP2 PUSH1 0x1 ADD PUSH0 PUSH2 0x100 EXP DUP2 SLOAD DUP2 PUSH1 0xFF MUL NOT AND SWAP1 DUP4 PUSH1 0xFF AND MUL OR SWAP1 SSTORE POP PUSH1 0x40 DUP3 ADD MLOAD DUP2 PUSH1 0x2 ADD SSTORE SWAP1 POP POP PUSH1 0x8 PUSH0 DUP2 DUP2 SWAP1 SLOAD SWAP1 PUSH2 0x100 EXP SWAP1 DIV PUSH1 0xFF AND DUP1 SWAP3 SWAP2 SWAP1 PUSH2 0x6F3 SWAP1 PUSH2 0x219C JUMP JUMPDEST SWAP2 SWAP1 PUSH2 0x100 EXP DUP2 SLOAD DUP2 PUSH1 0xFF MUL NOT AND SWAP1 DUP4 PUSH1 0xFF AND MUL OR SWAP1 SSTORE POP POP POP POP JUMP JUMPDEST PUSH0 DUP1 PUSH0 DUP4 PUSH20 0xFFFFFFFFFFFFFFFFFFFFFFFFFFFFFFFFFFFFFFFF AND PUSH20 0xFFFFFFFFFFFFFFFFFFFFFFFFFFFFFFFFFFFFFFFF AND DUP2 MSTORE PUSH1 0x20 ADD SWAP1 DUP2 MSTORE PUSH1 0x20 ADD PUSH0 KECCAK256 SLOAD SWAP1 POP SWAP2 SWAP1 POP JUMP JUMPDEST PUSH2 0x75D PUSH2 0x10FA JUMP JUMPDEST PUSH2 0x766 PUSH0 PUSH2 0x127F JUMP JUMPDEST JUMP JUMPDEST PUSH2 0x77A DUP3 PUSH2 0x774 PUSH2 0xF5F JUMP JUMPDEST DUP4 PUSH2 0xF78 JUMP JUMPDEST PUSH2 0x784 DUP3 DUP3 PUSH2 0x1200 JUMP JUMPDEST POP POP JUMP JUMPDEST DUP1 PUSH2 0x792 CALLER PUSH2 0x710 JUMP JUMPDEST LT ISZERO PUSH2 0x7D3 JUMPI PUSH1 0x40 MLOAD PUSH32 0x8C379A000000000000000000000000000000000000000000000000000000000 DUP2 MSTORE PUSH1 0x4 ADD PUSH2 0x7CA SWAP1 PUSH2 0x220E JUMP JUMPDEST PUSH1 0x40 MLOAD DUP1 SWAP2 SUB SWAP1 REVERT JUMPDEST PUSH2 0x7DC DUP2 PUSH2 0x627 JUMP JUMPDEST POP JUMP JUMPDEST PUSH0 PUSH1 0x5 PUSH0 SWAP1 SLOAD SWAP1 PUSH2 0x100 EXP SWAP1 DIV PUSH20 0xFFFFFFFFFFFFFFFFFFFFFFFFFFFFFFFFFFFFFFFF AND SWAP1 POP SWAP1 JUMP JUMPDEST PUSH1 0x60 PUSH1 0x4 DUP1 SLOAD PUSH2 0x816 SWAP1 PUSH2 0x1E6B JUMP JUMPDEST DUP1 PUSH1 0x1F ADD PUSH1 0x20 DUP1 SWAP2 DIV MUL PUSH1 0x20 ADD PUSH1 0x40 MLOAD SWAP1 DUP2 ADD PUSH1 0x40 MSTORE DUP1 SWAP3 SWAP2 SWAP1 DUP2 DUP2 MSTORE PUSH1 0x20 ADD DUP3 DUP1 SLOAD PUSH2 0x842 SWAP1 PUSH2 0x1E6B JUMP JUMPDEST DUP1 ISZERO PUSH2 0x88D JUMPI DUP1 PUSH1 0x1F LT PUSH2 0x864 JUMPI PUSH2 0x100 DUP1 DUP4 SLOAD DIV MUL DUP4 MSTORE SWAP2 PUSH1 0x20 ADD SWAP2 PUSH2 0x88D JUMP JUMPDEST DUP3 ADD SWAP2 SWAP1 PUSH0 MSTORE PUSH1 0x20 PUSH0 KECCAK256 SWAP1 JUMPDEST DUP2 SLOAD DUP2 MSTORE SWAP1 PUSH1 0x1 ADD SWAP1 PUSH1 0x20 ADD DUP1 DUP4 GT PUSH2 0x870 JUMPI DUP3 SWAP1 SUB PUSH1 0x1F AND DUP3 ADD SWAP2 JUMPDEST POP POP POP POP POP SWAP1 POP SWAP1 JUMP JUMPDEST PUSH0 DUP1 PUSH2 0x8A1 PUSH2 0xF5F JUMP JUMPDEST SWAP1 POP PUSH2 0x8AE DUP2 DUP6 DUP6 PUSH2 0x100A JUMP JUMPDEST PUSH1 0x1 SWAP2 POP POP SWAP3 SWAP2 POP POP JUMP JUMPDEST PUSH0 PUSH1 0x6 PUSH0 DUP4 PUSH1 0xFF AND PUSH1 0xFF AND DUP2 MSTORE PUSH1 0x20 ADD SWAP1 DUP2 MSTORE PUSH1 0x20 ADD PUSH0 KECCAK256 PUSH1 0x2 ADD SLOAD SUB PUSH2 0x915 JUMPI PUSH1 0x40 MLOAD PUSH32 0x8C379A000000000000000000000000000000000000000000000000000000000 DUP2 MSTORE PUSH1 0x4 ADD PUSH2 0x90C SWAP1 PUSH2 0x2276 JUMP JUMPDEST PUSH1 0x40 MLOAD DUP1 SWAP2 SUB SWAP1 REVERT JUMPDEST PUSH1 0x6 PUSH0 DUP3 PUSH1 0xFF AND PUSH1 0xFF AND DUP2 MSTORE PUSH1 0x20 ADD SWAP1 DUP2 MSTORE PUSH1 0x20 ADD PUSH0 KECCAK256 PUSH1 0x2 ADD SLOAD PUSH2 0x939 CALLER PUSH2 0x710 JUMP JUMPDEST LT ISZERO PUSH2 0x97A JUMPI PUSH1 0x40 MLOAD PUSH32 0x8C379A000000000000000000000000000000000000000000000000000000000 DUP2 MSTORE PUSH1 0x4 ADD PUSH2 0x971 SWAP1 PUSH2 0x1EE5 JUMP JUMPDEST PUSH1 0x40 MLOAD DUP1 SWAP2 SUB SWAP1 REVERT JUMPDEST PUSH2 0x99D PUSH1 0x6 PUSH0 DUP4 PUSH1 0xFF AND PUSH1 0xFF AND DUP2 MSTORE PUSH1 0x20 ADD SWAP1 DUP2 MSTORE PUSH1 0x20 ADD PUSH0 KECCAK256 PUSH1 0x2 ADD SLOAD PUSH2 0x627 JUMP JUMPDEST PUSH1 0x7 PUSH0 CALLER PUSH20 0xFFFFFFFFFFFFFFFFFFFFFFFFFFFFFFFFFFFFFFFF AND PUSH20 0xFFFFFFFFFFFFFFFFFFFFFFFFFFFFFFFFFFFFFFFF AND DUP2 MSTORE PUSH1 0x20 ADD SWAP1 DUP2 MSTORE PUSH1 0x20 ADD PUSH0 KECCAK256 PUSH1 0x6 PUSH0 DUP4 PUSH1 0xFF AND PUSH1 0xFF AND DUP2 MSTORE PUSH1 0x20 ADD SWAP1 DUP2 MSTORE PUSH1 0x20 ADD PUSH0 KECCAK256 SWAP1 DUP1 PUSH1 0x1 DUP2 SLOAD ADD DUP1 DUP3 SSTORE DUP1 SWAP2 POP POP PUSH1 0x1 SWAP1 SUB SWAP1 PUSH0 MSTORE PUSH1 0x20 PUSH0 KECCAK256 SWAP1 PUSH1 0x3 MUL ADD PUSH0 SWAP1 SWAP2 SWAP1 SWAP2 SWAP1 SWAP2 POP PUSH0 DUP3 ADD DUP2 PUSH0 ADD SWAP1 DUP2 PUSH2 0xA29 SWAP2 SWAP1 PUSH2 0x22A9 JUMP JUMPDEST POP PUSH1 0x1 DUP3 ADD PUSH0 SWAP1 SLOAD SWAP1 PUSH2 0x100 EXP SWAP1 DIV PUSH1 0xFF AND DUP2 PUSH1 0x1 ADD PUSH0 PUSH2 0x100 EXP DUP2 SLOAD DUP2 PUSH1 0xFF MUL NOT AND SWAP1 DUP4 PUSH1 0xFF AND MUL OR SWAP1 SSTORE POP PUSH1 0x2 DUP3 ADD SLOAD DUP2 PUSH1 0x2 ADD SSTORE POP POP CALLER PUSH20 0xFFFFFFFFFFFFFFFFFFFFFFFFFFFFFFFFFFFFFFFF AND PUSH32 0x8BEDD141782C49139782BD92BD7A760A0BCB544FFECFD2B25F00366FAE06598E DUP3 PUSH1 0x6 PUSH0 DUP6 PUSH1 0xFF AND PUSH1 0xFF AND DUP2 MSTORE PUSH1 0x20 ADD SWAP1 DUP2 MSTORE PUSH1 0x20 ADD PUSH0 KECCAK256 PUSH0 ADD PUSH1 0x6 PUSH0 DUP7 PUSH1 0xFF AND PUSH1 0xFF AND DUP2 MSTORE PUSH1 0x20 ADD SWAP1 DUP2 MSTORE PUSH1 0x20 ADD PUSH0 KECCAK256 PUSH1 0x2 ADD SLOAD PUSH1 0x40 MLOAD PUSH2 0xADE SWAP4 SWAP3 SWAP2 SWAP1 PUSH2 0x240F JUMP JUMPDEST PUSH1 0x40 MLOAD DUP1 SWAP2 SUB SWAP1 LOG2 POP JUMP JUMPDEST PUSH1 0x60 PUSH1 0x7 PUSH0 DUP4 PUSH20 0xFFFFFFFFFFFFFFFFFFFFFFFFFFFFFFFFFFFFFFFF AND PUSH20 0xFFFFFFFFFFFFFFFFFFFFFFFFFFFFFFFFFFFFFFFF AND DUP2 MSTORE PUSH1 0x20 ADD SWAP1 DUP2 MSTORE PUSH1 0x20 ADD PUSH0 KECCAK256 DUP1 SLOAD DUP1 PUSH1 0x20 MUL PUSH1 0x20 ADD PUSH1 0x40 MLOAD SWAP1 DUP2 ADD PUSH1 0x40 MSTORE DUP1 SWAP3 SWAP2 SWAP1 DUP2 DUP2 MSTORE PUSH1 0x20 ADD PUSH0 SWAP1 JUMPDEST DUP3 DUP3 LT ISZERO PUSH2 0xC2C JUMPI DUP4 DUP3 SWAP1 PUSH0 MSTORE PUSH1 0x20 PUSH0 KECCAK256 SWAP1 PUSH1 0x3 MUL ADD PUSH1 0x40 MLOAD DUP1 PUSH1 0x60 ADD PUSH1 0x40 MSTORE SWAP1 DUP2 PUSH0 DUP3 ADD DUP1 SLOAD PUSH2 0xB77 SWAP1 PUSH2 0x1E6B JUMP JUMPDEST DUP1 PUSH1 0x1F ADD PUSH1 0x20 DUP1 SWAP2 DIV MUL PUSH1 0x20 ADD PUSH1 0x40 MLOAD SWAP1 DUP2 ADD PUSH1 0x40 MSTORE DUP1 SWAP3 SWAP2 SWAP1 DUP2 DUP2 MSTORE PUSH1 0x20 ADD DUP3 DUP1 SLOAD PUSH2 0xBA3 SWAP1 PUSH2 0x1E6B JUMP JUMPDEST DUP1 ISZERO PUSH2 0xBEE JUMPI DUP1 PUSH1 0x1F LT PUSH2 0xBC5 JUMPI PUSH2 0x100 DUP1 DUP4 SLOAD DIV MUL DUP4 MSTORE SWAP2 PUSH1 0x20 ADD SWAP2 PUSH2 0xBEE JUMP JUMPDEST DUP3 ADD SWAP2 SWAP1 PUSH0 MSTORE PUSH1 0x20 PUSH0 KECCAK256 SWAP1 JUMPDEST DUP2 SLOAD DUP2 MSTORE SWAP1 PUSH1 0x1 ADD SWAP1 PUSH1 0x20 ADD DUP1 DUP4 GT PUSH2 0xBD1 JUMPI DUP3 SWAP1 SUB PUSH1 0x1F AND DUP3 ADD SWAP2 JUMPDEST POP POP POP POP POP DUP2 MSTORE PUSH1 0x20 ADD PUSH1 0x1 DUP3 ADD PUSH0 SWAP1 SLOAD SWAP1 PUSH2 0x100 EXP SWAP1 DIV PUSH1 0xFF AND PUSH1 0xFF AND PUSH1 0xFF AND DUP2 MSTORE PUSH1 0x20 ADD PUSH1 0x2 DUP3 ADD SLOAD DUP2 MSTORE POP POP DUP2 MSTORE PUSH1 0x20 ADD SWAP1 PUSH1 0x1 ADD SWAP1 PUSH2 0xB47 JUMP JUMPDEST POP POP POP POP SWAP1 POP SWAP2 SWAP1 POP JUMP JUMPDEST PUSH0 PUSH1 0x1 PUSH0 DUP5 PUSH20 0xFFFFFFFFFFFFFFFFFFFFFFFFFFFFFFFFFFFFFFFF AND PUSH20 0xFFFFFFFFFFFFFFFFFFFFFFFFFFFFFFFFFFFFFFFF AND DUP2 MSTORE PUSH1 0x20 ADD SWAP1 DUP2 MSTORE PUSH1 0x20 ADD PUSH0 KECCAK256 PUSH0 DUP4 PUSH20 0xFFFFFFFFFFFFFFFFFFFFFFFFFFFFFFFFFFFFFFFF AND PUSH20 0xFFFFFFFFFFFFFFFFFFFFFFFFFFFFFFFFFFFFFFFF AND DUP2 MSTORE PUSH1 0x20 ADD SWAP1 DUP2 MSTORE PUSH1 0x20 ADD PUSH0 KECCAK256 SLOAD SWAP1 POP SWAP3 SWAP2 POP POP JUMP JUMPDEST PUSH0 PUSH1 0xA TIMESTAMP CALLER PUSH1 0x40 MLOAD PUSH1 0x20 ADD PUSH2 0xCCF SWAP3 SWAP2 SWAP1 PUSH2 0x24B0 JUMP JUMPDEST PUSH1 0x40 MLOAD PUSH1 0x20 DUP2 DUP4 SUB SUB DUP2 MSTORE SWAP1 PUSH1 0x40 MSTORE DUP1 MLOAD SWAP1 PUSH1 0x20 ADD KECCAK256 PUSH0 SHR PUSH2 0xCF1 SWAP2 SWAP1 PUSH2 0x2508 JUMP JUMPDEST SWAP1 POP PUSH1 0x5 DUP2 LT ISZERO ISZERO DUP4 ISZERO ISZERO SUB PUSH2 0xD6D JUMPI PUSH2 0xD17 CALLER PUSH1 0x2 DUP5 PUSH2 0xD12 SWAP2 SWAP1 PUSH2 0x2538 JUMP JUMPDEST PUSH2 0x1181 JUMP JUMPDEST CALLER PUSH20 0xFFFFFFFFFFFFFFFFFFFFFFFFFFFFFFFFFFFFFFFF AND PUSH32 0xD04D9689D8E43BC0BACEA67661EF472DCF321F34F08AF72F651AF30C4C866587 DUP3 PUSH1 0x1 PUSH1 0x40 MLOAD PUSH2 0xD60 SWAP3 SWAP2 SWAP1 PUSH2 0x25C3 JUMP JUMPDEST PUSH1 0x40 MLOAD DUP1 SWAP2 SUB SWAP1 LOG2 PUSH2 0xDC7 JUMP JUMPDEST PUSH2 0xD76 DUP3 PUSH2 0x627 JUMP JUMPDEST CALLER PUSH20 0xFFFFFFFFFFFFFFFFFFFFFFFFFFFFFFFFFFFFFFFF AND PUSH32 0xD04D9689D8E43BC0BACEA67661EF472DCF321F34F08AF72F651AF30C4C866587 DUP3 PUSH0 PUSH1 0x40 MLOAD PUSH2 0xDBE SWAP3 SWAP2 SWAP1 PUSH2 0x2647 JUMP JUMPDEST PUSH1 0x40 MLOAD DUP1 SWAP2 SUB SWAP1 LOG2 JUMPDEST POP POP POP JUMP JUMPDEST PUSH2 0xDD4 PUSH2 0x10FA JUMP JUMPDEST PUSH0 PUSH20 0xFFFFFFFFFFFFFFFFFFFFFFFFFFFFFFFFFFFFFFFF AND DUP2 PUSH20 0xFFFFFFFFFFFFFFFFFFFFFFFFFFFFFFFFFFFFFFFF AND SUB PUSH2 0xE44 JUMPI PUSH0 PUSH1 0x40 MLOAD PUSH32 0x1E4FBDF700000000000000000000000000000000000000000000000000000000 DUP2 MSTORE PUSH1 0x4 ADD PUSH2 0xE3B SWAP2 SWAP1 PUSH2 0x1B60 JUMP JUMPDEST PUSH1 0x40 MLOAD DUP1 SWAP2 SUB SWAP1 REVERT JUMPDEST PUSH2 0xE4D DUP2 PUSH2 0x127F JUMP JUMPDEST POP JUMP JUMPDEST PUSH0 PUSH2 0xE5A CALLER PUSH2 0x710 JUMP JUMPDEST EQ PUSH2 0xE9A JUMPI PUSH1 0x40 MLOAD PUSH32 0x8C379A000000000000000000000000000000000000000000000000000000000 DUP2 MSTORE PUSH1 0x4 ADD PUSH2 0xE91 SWAP1 PUSH2 0x26F1 JUMP JUMPDEST PUSH1 0x40 MLOAD DUP1 SWAP2 SUB SWAP1 REVERT JUMPDEST PUSH2 0xEA5 CALLER PUSH1 0x32 PUSH2 0x1181 JUMP JUMPDEST JUMP JUMPDEST PUSH1 0x6 PUSH1 0x20 MSTORE DUP1 PUSH0 MSTORE PUSH1 0x40 PUSH0 KECCAK256 PUSH0 SWAP2 POP SWAP1 POP DUP1 PUSH0 ADD DUP1 SLOAD PUSH2 0xEC6 SWAP1 PUSH2 0x1E6B JUMP JUMPDEST DUP1 PUSH1 0x1F ADD PUSH1 0x20 DUP1 SWAP2 DIV MUL PUSH1 0x20 ADD PUSH1 0x40 MLOAD SWAP1 DUP2 ADD PUSH1 0x40 MSTORE DUP1 SWAP3 SWAP2 SWAP1 DUP2 DUP2 MSTORE PUSH1 0x20 ADD DUP3 DUP1 SLOAD PUSH2 0xEF2 SWAP1 PUSH2 0x1E6B JUMP JUMPDEST DUP1 ISZERO PUSH2 0xF3D JUMPI DUP1 PUSH1 0x1F LT PUSH2 0xF14 JUMPI PUSH2 0x100 DUP1 DUP4 SLOAD DIV MUL DUP4 MSTORE SWAP2 PUSH1 0x20 ADD SWAP2 PUSH2 0xF3D JUMP JUMPDEST DUP3 ADD SWAP2 SWAP1 PUSH0 MSTORE PUSH1 0x20 PUSH0 KECCAK256 SWAP1 JUMPDEST DUP2 SLOAD DUP2 MSTORE SWAP1 PUSH1 0x1 ADD SWAP1 PUSH1 0x20 ADD DUP1 DUP4 GT PUSH2 0xF20 JUMPI DUP3 SWAP1 SUB PUSH1 0x1F AND DUP3 ADD SWAP2 JUMPDEST POP POP POP POP POP SWAP1 DUP1 PUSH1 0x1 ADD PUSH0 SWAP1 SLOAD SWAP1 PUSH2 0x100 EXP SWAP1 DIV PUSH1 0xFF AND SWAP1 DUP1 PUSH1 0x2 ADD SLOAD SWAP1 POP DUP4 JUMP JUMPDEST PUSH0 CALLER SWAP1 POP SWAP1 JUMP JUMPDEST PUSH2 0xF73 DUP4 DUP4 DUP4 PUSH1 0x1 PUSH2 0x1342 JUMP JUMPDEST POP POP POP JUMP JUMPDEST PUSH0 PUSH2 0xF83 DUP5 DUP5 PUSH2 0xC37 JUMP JUMPDEST SWAP1 POP PUSH32 0xFFFFFFFFFFFFFFFFFFFFFFFFFFFFFFFFFFFFFFFFFFFFFFFFFFFFFFFFFFFFFFFF DUP2 EQ PUSH2 0x1004 JUMPI DUP2 DUP2 LT ISZERO PUSH2 0xFF5 JUMPI DUP3 DUP2 DUP4 PUSH1 0x40 MLOAD PUSH32 0xFB8F41B200000000000000000000000000000000000000000000000000000000 DUP2 MSTORE PUSH1 0x4 ADD PUSH2 0xFEC SWAP4 SWAP3 SWAP2 SWAP1 PUSH2 0x270F JUMP JUMPDEST PUSH1 0x40 MLOAD DUP1 SWAP2 SUB SWAP1 REVERT JUMPDEST PUSH2 0x1003 DUP5 DUP5 DUP5 DUP5 SUB PUSH0 PUSH2 0x1342 JUMP JUMPDEST JUMPDEST POP POP POP POP JUMP JUMPDEST PUSH0 PUSH20 0xFFFFFFFFFFFFFFFFFFFFFFFFFFFFFFFFFFFFFFFF AND DUP4 PUSH20 0xFFFFFFFFFFFFFFFFFFFFFFFFFFFFFFFFFFFFFFFF AND SUB PUSH2 0x107A JUMPI PUSH0 PUSH1 0x40 MLOAD PUSH32 0x96C6FD1E00000000000000000000000000000000000000000000000000000000 DUP2 MSTORE PUSH1 0x4 ADD PUSH2 0x1071 SWAP2 SWAP1 PUSH2 0x1B60 JUMP JUMPDEST PUSH1 0x40 MLOAD DUP1 SWAP2 SUB SWAP1 REVERT JUMPDEST PUSH0 PUSH20 0xFFFFFFFFFFFFFFFFFFFFFFFFFFFFFFFFFFFFFFFF AND DUP3 PUSH20 0xFFFFFFFFFFFFFFFFFFFFFFFFFFFFFFFFFFFFFFFF AND SUB PUSH2 0x10EA JUMPI PUSH0 PUSH1 0x40 MLOAD PUSH32 0xEC442F0500000000000000000000000000000000000000000000000000000000 DUP2 MSTORE PUSH1 0x4 ADD PUSH2 0x10E1 SWAP2 SWAP1 PUSH2 0x1B60 JUMP JUMPDEST PUSH1 0x40 MLOAD DUP1 SWAP2 SUB SWAP1 REVERT JUMPDEST PUSH2 0x10F5 DUP4 DUP4 DUP4 PUSH2 0x1511 JUMP JUMPDEST POP POP POP JUMP JUMPDEST PUSH2 0x1102 PUSH2 0xF5F JUMP JUMPDEST PUSH20 0xFFFFFFFFFFFFFFFFFFFFFFFFFFFFFFFFFFFFFFFF AND PUSH2 0x1120 PUSH2 0x7DF JUMP JUMPDEST PUSH20 0xFFFFFFFFFFFFFFFFFFFFFFFFFFFFFFFFFFFFFFFF AND EQ PUSH2 0x117F JUMPI PUSH2 0x1143 PUSH2 0xF5F JUMP JUMPDEST PUSH1 0x40 MLOAD PUSH32 0x118CDAA700000000000000000000000000000000000000000000000000000000 DUP2 MSTORE PUSH1 0x4 ADD PUSH2 0x1176 SWAP2 SWAP1 PUSH2 0x1B60 JUMP JUMPDEST PUSH1 0x40 MLOAD DUP1 SWAP2 SUB SWAP1 REVERT JUMPDEST JUMP JUMPDEST PUSH0 PUSH20 0xFFFFFFFFFFFFFFFFFFFFFFFFFFFFFFFFFFFFFFFF AND DUP3 PUSH20 0xFFFFFFFFFFFFFFFFFFFFFFFFFFFFFFFFFFFFFFFF AND SUB PUSH2 0x11F1 JUMPI PUSH0 PUSH1 0x40 MLOAD PUSH32 0xEC442F0500000000000000000000000000000000000000000000000000000000 DUP2 MSTORE PUSH1 0x4 ADD PUSH2 0x11E8 SWAP2 SWAP1 PUSH2 0x1B60 JUMP JUMPDEST PUSH1 0x40 MLOAD DUP1 SWAP2 SUB SWAP1 REVERT JUMPDEST PUSH2 0x11FC PUSH0 DUP4 DUP4 PUSH2 0x1511 JUMP JUMPDEST POP POP JUMP JUMPDEST PUSH0 PUSH20 0xFFFFFFFFFFFFFFFFFFFFFFFFFFFFFFFFFFFFFFFF AND DUP3 PUSH20 0xFFFFFFFFFFFFFFFFFFFFFFFFFFFFFFFFFFFFFFFF AND SUB PUSH2 0x1270 JUMPI PUSH0 PUSH1 0x40 MLOAD PUSH32 0x96C6FD1E00000000000000000000000000000000000000000000000000000000 DUP2 MSTORE PUSH1 0x4 ADD PUSH2 0x1267 SWAP2 SWAP1 PUSH2 0x1B60 JUMP JUMPDEST PUSH1 0x40 MLOAD DUP1 SWAP2 SUB SWAP1 REVERT JUMPDEST PUSH2 0x127B DUP3 PUSH0 DUP4 PUSH2 0x1511 JUMP JUMPDEST POP POP JUMP JUMPDEST PUSH0 PUSH1 0x5 PUSH0 SWAP1 SLOAD SWAP1 PUSH2 0x100 EXP SWAP1 DIV PUSH20 0xFFFFFFFFFFFFFFFFFFFFFFFFFFFFFFFFFFFFFFFF AND SWAP1 POP DUP2 PUSH1 0x5 PUSH0 PUSH2 0x100 EXP DUP2 SLOAD DUP2 PUSH20 0xFFFFFFFFFFFFFFFFFFFFFFFFFFFFFFFFFFFFFFFF MUL NOT AND SWAP1 DUP4 PUSH20 0xFFFFFFFFFFFFFFFFFFFFFFFFFFFFFFFFFFFFFFFF AND MUL OR SWAP1 SSTORE POP DUP2 PUSH20 0xFFFFFFFFFFFFFFFFFFFFFFFFFFFFFFFFFFFFFFFF AND DUP2 PUSH20 0xFFFFFFFFFFFFFFFFFFFFFFFFFFFFFFFFFFFFFFFF AND PUSH32 0x8BE0079C531659141344CD1FD0A4F28419497F9722A3DAAFE3B4186F6B6457E0 PUSH1 0x40 MLOAD PUSH1 0x40 MLOAD DUP1 SWAP2 SUB SWAP1 LOG3 POP POP JUMP JUMPDEST PUSH0 PUSH20 0xFFFFFFFFFFFFFFFFFFFFFFFFFFFFFFFFFFFFFFFF AND DUP5 PUSH20 0xFFFFFFFFFFFFFFFFFFFFFFFFFFFFFFFFFFFFFFFF AND SUB PUSH2 0x13B2 JUMPI PUSH0 PUSH1 0x40 MLOAD PUSH32 0xE602DF0500000000000000000000000000000000000000000000000000000000 DUP2 MSTORE PUSH1 0x4 ADD PUSH2 0x13A9 SWAP2 SWAP1 PUSH2 0x1B60 JUMP JUMPDEST PUSH1 0x40 MLOAD DUP1 SWAP2 SUB SWAP1 REVERT JUMPDEST PUSH0 PUSH20 0xFFFFFFFFFFFFFFFFFFFFFFFFFFFFFFFFFFFFFFFF AND DUP4 PUSH20 0xFFFFFFFFFFFFFFFFFFFFFFFFFFFFFFFFFFFFFFFF AND SUB PUSH2 0x1422 JUMPI PUSH0 PUSH1 0x40 MLOAD PUSH32 0x94280D6200000000000000000000000000000000000000000000000000000000 DUP2 MSTORE PUSH1 0x4 ADD PUSH2 0x1419 SWAP2 SWAP1 PUSH2 0x1B60 JUMP JUMPDEST PUSH1 0x40 MLOAD DUP1 SWAP2 SUB SWAP1 REVERT JUMPDEST DUP2 PUSH1 0x1 PUSH0 DUP7 PUSH20 0xFFFFFFFFFFFFFFFFFFFFFFFFFFFFFFFFFFFFFFFF AND PUSH20 0xFFFFFFFFFFFFFFFFFFFFFFFFFFFFFFFFFFFFFFFF AND DUP2 MSTORE PUSH1 0x20 ADD SWAP1 DUP2 MSTORE PUSH1 0x20 ADD PUSH0 KECCAK256 PUSH0 DUP6 PUSH20 0xFFFFFFFFFFFFFFFFFFFFFFFFFFFFFFFFFFFFFFFF AND PUSH20 0xFFFFFFFFFFFFFFFFFFFFFFFFFFFFFFFFFFFFFFFF AND DUP2 MSTORE PUSH1 0x20 ADD SWAP1 DUP2 MSTORE PUSH1 0x20 ADD PUSH0 KECCAK256 DUP2 SWAP1 SSTORE POP DUP1 ISZERO PUSH2 0x150B JUMPI DUP3 PUSH20 0xFFFFFFFFFFFFFFFFFFFFFFFFFFFFFFFFFFFFFFFF AND DUP5 PUSH20 0xFFFFFFFFFFFFFFFFFFFFFFFFFFFFFFFFFFFFFFFF AND PUSH32 0x8C5BE1E5EBEC7D5BD14F71427D1E84F3DD0314C0F7B2291E5B200AC8C7C3B925 DUP5 PUSH1 0x40 MLOAD PUSH2 0x1502 SWAP2 SWAP1 PUSH2 0x18D8 JUMP JUMPDEST PUSH1 0x40 MLOAD DUP1 SWAP2 SUB SWAP1 LOG3 JUMPDEST POP POP POP POP JUMP JUMPDEST PUSH0 PUSH20 0xFFFFFFFFFFFFFFFFFFFFFFFFFFFFFFFFFFFFFFFF AND DUP4 PUSH20 0xFFFFFFFFFFFFFFFFFFFFFFFFFFFFFFFFFFFFFFFF AND SUB PUSH2 0x1561 JUMPI DUP1 PUSH1 0x2 PUSH0 DUP3 DUP3 SLOAD PUSH2 0x1555 SWAP2 SWAP1 PUSH2 0x2744 JUMP JUMPDEST SWAP3 POP POP DUP2 SWAP1 SSTORE POP PUSH2 0x162F JUMP JUMPDEST PUSH0 DUP1 PUSH0 DUP6 PUSH20 0xFFFFFFFFFFFFFFFFFFFFFFFFFFFFFFFFFFFFFFFF AND PUSH20 0xFFFFFFFFFFFFFFFFFFFFFFFFFFFFFFFFFFFFFFFF AND DUP2 MSTORE PUSH1 0x20 ADD SWAP1 DUP2 MSTORE PUSH1 0x20 ADD PUSH0 KECCAK256 SLOAD SWAP1 POP DUP2 DUP2 LT ISZERO PUSH2 0x15EA JUMPI DUP4 DUP2 DUP4 PUSH1 0x40 MLOAD PUSH32 0xE450D38C00000000000000000000000000000000000000000000000000000000 DUP2 MSTORE PUSH1 0x4 ADD PUSH2 0x15E1 SWAP4 SWAP3 SWAP2 SWAP1 PUSH2 0x270F JUMP JUMPDEST PUSH1 0x40 MLOAD DUP1 SWAP2 SUB SWAP1 REVERT JUMPDEST DUP2 DUP2 SUB PUSH0 DUP1 DUP7 PUSH20 0xFFFFFFFFFFFFFFFFFFFFFFFFFFFFFFFFFFFFFFFF AND PUSH20 0xFFFFFFFFFFFFFFFFFFFFFFFFFFFFFFFFFFFFFFFF AND DUP2 MSTORE PUSH1 0x20 ADD SWAP1 DUP2 MSTORE PUSH1 0x20 ADD PUSH0 KECCAK256 DUP2 SWAP1 SSTORE POP POP JUMPDEST PUSH0 PUSH20 0xFFFFFFFFFFFFFFFFFFFFFFFFFFFFFFFFFFFFFFFF AND DUP3 PUSH20 0xFFFFFFFFFFFFFFFFFFFFFFFFFFFFFFFFFFFFFFFF AND SUB PUSH2 0x1676 JUMPI DUP1 PUSH1 0x2 PUSH0 DUP3 DUP3 SLOAD SUB SWAP3 POP POP DUP2 SWAP1 SSTORE POP PUSH2 0x16C0 JUMP JUMPDEST DUP1 PUSH0 DUP1 DUP5 PUSH20 0xFFFFFFFFFFFFFFFFFFFFFFFFFFFFFFFFFFFFFFFF AND PUSH20 0xFFFFFFFFFFFFFFFFFFFFFFFFFFFFFFFFFFFFFFFF AND DUP2 MSTORE PUSH1 0x20 ADD SWAP1 DUP2 MSTORE PUSH1 0x20 ADD PUSH0 KECCAK256 PUSH0 DUP3 DUP3 SLOAD ADD SWAP3 POP POP DUP2 SWAP1 SSTORE POP JUMPDEST DUP2 PUSH20 0xFFFFFFFFFFFFFFFFFFFFFFFFFFFFFFFFFFFFFFFF AND DUP4 PUSH20 0xFFFFFFFFFFFFFFFFFFFFFFFFFFFFFFFFFFFFFFFF AND PUSH32 0xDDF252AD1BE2C89B69C2B068FC378DAA952BA7F163C4A11628F55A4DF523B3EF DUP4 PUSH1 0x40 MLOAD PUSH2 0x171D SWAP2 SWAP1 PUSH2 0x18D8 JUMP JUMPDEST PUSH1 0x40 MLOAD DUP1 SWAP2 SUB SWAP1 LOG3 POP POP POP JUMP JUMPDEST PUSH0 DUP2 MLOAD SWAP1 POP SWAP2 SWAP1 POP JUMP JUMPDEST PUSH0 DUP3 DUP3 MSTORE PUSH1 0x20 DUP3 ADD SWAP1 POP SWAP3 SWAP2 POP POP JUMP JUMPDEST DUP3 DUP2 DUP4 MCOPY PUSH0 DUP4 DUP4 ADD MSTORE POP POP POP JUMP JUMPDEST PUSH0 PUSH1 0x1F NOT PUSH1 0x1F DUP4 ADD AND SWAP1 POP SWAP2 SWAP1 POP JUMP JUMPDEST PUSH0 PUSH2 0x176C DUP3 PUSH2 0x172A JUMP JUMPDEST PUSH2 0x1776 DUP2 DUP6 PUSH2 0x1734 JUMP JUMPDEST SWAP4 POP PUSH2 0x1786 DUP2 DUP6 PUSH1 0x20 DUP7 ADD PUSH2 0x1744 JUMP JUMPDEST PUSH2 0x178F DUP2 PUSH2 0x1752 JUMP JUMPDEST DUP5 ADD SWAP2 POP POP SWAP3 SWAP2 POP POP JUMP JUMPDEST PUSH0 PUSH1 0x20 DUP3 ADD SWAP1 POP DUP2 DUP2 SUB PUSH0 DUP4 ADD MSTORE PUSH2 0x17B2 DUP2 DUP5 PUSH2 0x1762 JUMP JUMPDEST SWAP1 POP SWAP3 SWAP2 POP POP JUMP JUMPDEST PUSH0 PUSH1 0x40 MLOAD SWAP1 POP SWAP1 JUMP JUMPDEST PUSH0 DUP1 REVERT JUMPDEST PUSH0 DUP1 REVERT JUMPDEST PUSH0 PUSH20 0xFFFFFFFFFFFFFFFFFFFFFFFFFFFFFFFFFFFFFFFF DUP3 AND SWAP1 POP SWAP2 SWAP1 POP JUMP JUMPDEST PUSH0 PUSH2 0x17F4 DUP3 PUSH2 0x17CB JUMP JUMPDEST SWAP1 POP SWAP2 SWAP1 POP JUMP JUMPDEST PUSH2 0x1804 DUP2 PUSH2 0x17EA JUMP JUMPDEST DUP2 EQ PUSH2 0x180E JUMPI PUSH0 DUP1 REVERT JUMPDEST POP JUMP JUMPDEST PUSH0 DUP2 CALLDATALOAD SWAP1 POP PUSH2 0x181F DUP2 PUSH2 0x17FB JUMP JUMPDEST SWAP3 SWAP2 POP POP JUMP JUMPDEST PUSH0 DUP2 SWAP1 POP SWAP2 SWAP1 POP JUMP JUMPDEST PUSH2 0x1837 DUP2 PUSH2 0x1825 JUMP JUMPDEST DUP2 EQ PUSH2 0x1841 JUMPI PUSH0 DUP1 REVERT JUMPDEST POP JUMP JUMPDEST PUSH0 DUP2 CALLDATALOAD SWAP1 POP PUSH2 0x1852 DUP2 PUSH2 0x182E JUMP JUMPDEST SWAP3 SWAP2 POP POP JUMP JUMPDEST PUSH0 DUP1 PUSH1 0x40 DUP4 DUP6 SUB SLT ISZERO PUSH2 0x186E JUMPI PUSH2 0x186D PUSH2 0x17C3 JUMP JUMPDEST JUMPDEST PUSH0 PUSH2 0x187B DUP6 DUP3 DUP7 ADD PUSH2 0x1811 JUMP JUMPDEST SWAP3 POP POP PUSH1 0x20 PUSH2 0x188C DUP6 DUP3 DUP7 ADD PUSH2 0x1844 JUMP JUMPDEST SWAP2 POP POP SWAP3 POP SWAP3 SWAP1 POP JUMP JUMPDEST PUSH0 DUP2 ISZERO ISZERO SWAP1 POP SWAP2 SWAP1 POP JUMP JUMPDEST PUSH2 0x18AA DUP2 PUSH2 0x1896 JUMP JUMPDEST DUP3 MSTORE POP POP JUMP JUMPDEST PUSH0 PUSH1 0x20 DUP3 ADD SWAP1 POP PUSH2 0x18C3 PUSH0 DUP4 ADD DUP5 PUSH2 0x18A1 JUMP JUMPDEST SWAP3 SWAP2 POP POP JUMP JUMPDEST PUSH2 0x18D2 DUP2 PUSH2 0x1825 JUMP JUMPDEST DUP3 MSTORE POP POP JUMP JUMPDEST PUSH0 PUSH1 0x20 DUP3 ADD SWAP1 POP PUSH2 0x18EB PUSH0 DUP4 ADD DUP5 PUSH2 0x18C9 JUMP JUMPDEST SWAP3 SWAP2 POP POP JUMP JUMPDEST PUSH0 PUSH1 0xFF DUP3 AND SWAP1 POP SWAP2 SWAP1 POP JUMP JUMPDEST PUSH2 0x1906 DUP2 PUSH2 0x18F1 JUMP JUMPDEST DUP3 MSTORE POP POP JUMP JUMPDEST PUSH0 PUSH1 0x20 DUP3 ADD SWAP1 POP PUSH2 0x191F PUSH0 DUP4 ADD DUP5 PUSH2 0x18FD JUMP JUMPDEST SWAP3 SWAP2 POP POP JUMP JUMPDEST PUSH0 DUP1 PUSH0 PUSH1 0x60 DUP5 DUP7 SUB SLT ISZERO PUSH2 0x193C JUMPI PUSH2 0x193B PUSH2 0x17C3 JUMP JUMPDEST JUMPDEST PUSH0 PUSH2 0x1949 DUP7 DUP3 DUP8 ADD PUSH2 0x1811 JUMP JUMPDEST SWAP4 POP POP PUSH1 0x20 PUSH2 0x195A DUP7 DUP3 DUP8 ADD PUSH2 0x1811 JUMP JUMPDEST SWAP3 POP POP PUSH1 0x40 PUSH2 0x196B DUP7 DUP3 DUP8 ADD PUSH2 0x1844 JUMP JUMPDEST SWAP2 POP POP SWAP3 POP SWAP3 POP SWAP3 JUMP JUMPDEST PUSH0 PUSH1 0x20 DUP3 DUP5 SUB SLT ISZERO PUSH2 0x198A JUMPI PUSH2 0x1989 PUSH2 0x17C3 JUMP JUMPDEST JUMPDEST PUSH0 PUSH2 0x1997 DUP5 DUP3 DUP6 ADD PUSH2 0x1844 JUMP JUMPDEST SWAP2 POP POP SWAP3 SWAP2 POP POP JUMP JUMPDEST PUSH0 DUP1 REVERT JUMPDEST PUSH0 DUP1 REVERT JUMPDEST PUSH32 0x4E487B7100000000000000000000000000000000000000000000000000000000 PUSH0 MSTORE PUSH1 0x41 PUSH1 0x4 MSTORE PUSH1 0x24 PUSH0 REVERT JUMPDEST PUSH2 0x19DE DUP3 PUSH2 0x1752 JUMP JUMPDEST DUP2 ADD DUP2 DUP2 LT PUSH8 0xFFFFFFFFFFFFFFFF DUP3 GT OR ISZERO PUSH2 0x19FD JUMPI PUSH2 0x19FC PUSH2 0x19A8 JUMP JUMPDEST JUMPDEST DUP1 PUSH1 0x40 MSTORE POP POP POP JUMP JUMPDEST PUSH0 PUSH2 0x1A0F PUSH2 0x17BA JUMP JUMPDEST SWAP1 POP PUSH2 0x1A1B DUP3 DUP3 PUSH2 0x19D5 JUMP JUMPDEST SWAP2 SWAP1 POP JUMP JUMPDEST PUSH0 PUSH8 0xFFFFFFFFFFFFFFFF DUP3 GT ISZERO PUSH2 0x1A3A JUMPI PUSH2 0x1A39 PUSH2 0x19A8 JUMP JUMPDEST JUMPDEST PUSH2 0x1A43 DUP3 PUSH2 0x1752 JUMP JUMPDEST SWAP1 POP PUSH1 0x20 DUP2 ADD SWAP1 POP SWAP2 SWAP1 POP JUMP JUMPDEST DUP3 DUP2 DUP4 CALLDATACOPY PUSH0 DUP4 DUP4 ADD MSTORE POP POP POP JUMP JUMPDEST PUSH0 PUSH2 0x1A70 PUSH2 0x1A6B DUP5 PUSH2 0x1A20 JUMP JUMPDEST PUSH2 0x1A06 JUMP JUMPDEST SWAP1 POP DUP3 DUP2 MSTORE PUSH1 0x20 DUP2 ADD DUP5 DUP5 DUP5 ADD GT ISZERO PUSH2 0x1A8C JUMPI PUSH2 0x1A8B PUSH2 0x19A4 JUMP JUMPDEST JUMPDEST PUSH2 0x1A97 DUP5 DUP3 DUP6 PUSH2 0x1A50 JUMP JUMPDEST POP SWAP4 SWAP3 POP POP POP JUMP JUMPDEST PUSH0 DUP3 PUSH1 0x1F DUP4 ADD SLT PUSH2 0x1AB3 JUMPI PUSH2 0x1AB2 PUSH2 0x19A0 JUMP JUMPDEST JUMPDEST DUP2 CALLDATALOAD PUSH2 0x1AC3 DUP5 DUP3 PUSH1 0x20 DUP7 ADD PUSH2 0x1A5E JUMP JUMPDEST SWAP2 POP POP SWAP3 SWAP2 POP POP JUMP JUMPDEST PUSH0 DUP1 PUSH1 0x40 DUP4 DUP6 SUB SLT ISZERO PUSH2 0x1AE2 JUMPI PUSH2 0x1AE1 PUSH2 0x17C3 JUMP JUMPDEST JUMPDEST PUSH0 DUP4 ADD CALLDATALOAD PUSH8 0xFFFFFFFFFFFFFFFF DUP2 GT ISZERO PUSH2 0x1AFF JUMPI PUSH2 0x1AFE PUSH2 0x17C7 JUMP JUMPDEST JUMPDEST PUSH2 0x1B0B DUP6 DUP3 DUP7 ADD PUSH2 0x1A9F JUMP JUMPDEST SWAP3 POP POP PUSH1 0x20 PUSH2 0x1B1C DUP6 DUP3 DUP7 ADD PUSH2 0x1844 JUMP JUMPDEST SWAP2 POP POP SWAP3 POP SWAP3 SWAP1 POP JUMP JUMPDEST PUSH0 PUSH1 0x20 DUP3 DUP5 SUB SLT ISZERO PUSH2 0x1B3B JUMPI PUSH2 0x1B3A PUSH2 0x17C3 JUMP JUMPDEST JUMPDEST PUSH0 PUSH2 0x1B48 DUP5 DUP3 DUP6 ADD PUSH2 0x1811 JUMP JUMPDEST SWAP2 POP POP SWAP3 SWAP2 POP POP JUMP JUMPDEST PUSH2 0x1B5A DUP2 PUSH2 0x17EA JUMP JUMPDEST DUP3 MSTORE POP POP JUMP JUMPDEST PUSH0 PUSH1 0x20 DUP3 ADD SWAP1 POP PUSH2 0x1B73 PUSH0 DUP4 ADD DUP5 PUSH2 0x1B51 JUMP JUMPDEST SWAP3 SWAP2 POP POP JUMP JUMPDEST PUSH2 0x1B82 DUP2 PUSH2 0x18F1 JUMP JUMPDEST DUP2 EQ PUSH2 0x1B8C JUMPI PUSH0 DUP1 REVERT JUMPDEST POP JUMP JUMPDEST PUSH0 DUP2 CALLDATALOAD SWAP1 POP PUSH2 0x1B9D DUP2 PUSH2 0x1B79 JUMP JUMPDEST SWAP3 SWAP2 POP POP JUMP JUMPDEST PUSH0 PUSH1 0x20 DUP3 DUP5 SUB SLT ISZERO PUSH2 0x1BB8 JUMPI PUSH2 0x1BB7 PUSH2 0x17C3 JUMP JUMPDEST JUMPDEST PUSH0 PUSH2 0x1BC5 DUP5 DUP3 DUP6 ADD PUSH2 0x1B8F JUMP JUMPDEST SWAP2 POP POP SWAP3 SWAP2 POP POP JUMP JUMPDEST PUSH0 DUP2 MLOAD SWAP1 POP SWAP2 SWAP1 POP JUMP JUMPDEST PUSH0 DUP3 DUP3 MSTORE PUSH1 0x20 DUP3 ADD SWAP1 POP SWAP3 SWAP2 POP POP JUMP JUMPDEST PUSH0 DUP2 SWAP1 POP PUSH1 0x20 DUP3 ADD SWAP1 POP SWAP2 SWAP1 POP JUMP JUMPDEST PUSH0 DUP3 DUP3 MSTORE PUSH1 0x20 DUP3 ADD SWAP1 POP SWAP3 SWAP2 POP POP JUMP JUMPDEST PUSH0 PUSH2 0x1C11 DUP3 PUSH2 0x172A JUMP JUMPDEST PUSH2 0x1C1B DUP2 DUP6 PUSH2 0x1BF7 JUMP JUMPDEST SWAP4 POP PUSH2 0x1C2B DUP2 DUP6 PUSH1 0x20 DUP7 ADD PUSH2 0x1744 JUMP JUMPDEST PUSH2 0x1C34 DUP2 PUSH2 0x1752 JUMP JUMPDEST DUP5 ADD SWAP2 POP POP SWAP3 SWAP2 POP POP JUMP JUMPDEST PUSH2 0x1C48 DUP2 PUSH2 0x18F1 JUMP JUMPDEST DUP3 MSTORE POP POP JUMP JUMPDEST PUSH2 0x1C57 DUP2 PUSH2 0x1825 JUMP JUMPDEST DUP3 MSTORE POP POP JUMP JUMPDEST PUSH0 PUSH1 0x60 DUP4 ADD PUSH0 DUP4 ADD MLOAD DUP5 DUP3 SUB PUSH0 DUP7 ADD MSTORE PUSH2 0x1C77 DUP3 DUP3 PUSH2 0x1C07 JUMP JUMPDEST SWAP2 POP POP PUSH1 0x20 DUP4 ADD MLOAD PUSH2 0x1C8C PUSH1 0x20 DUP7 ADD DUP3 PUSH2 0x1C3F JUMP JUMPDEST POP PUSH1 0x40 DUP4 ADD MLOAD PUSH2 0x1C9F PUSH1 0x40 DUP7 ADD DUP3 PUSH2 0x1C4E JUMP JUMPDEST POP DUP1 SWAP2 POP POP SWAP3 SWAP2 POP POP JUMP JUMPDEST PUSH0 PUSH2 0x1CB5 DUP4 DUP4 PUSH2 0x1C5D JUMP JUMPDEST SWAP1 POP SWAP3 SWAP2 POP POP JUMP JUMPDEST PUSH0 PUSH1 0x20 DUP3 ADD SWAP1 POP SWAP2 SWAP1 POP JUMP JUMPDEST PUSH0 PUSH2 0x1CD3 DUP3 PUSH2 0x1BCE JUMP JUMPDEST PUSH2 0x1CDD DUP2 DUP6 PUSH2 0x1BD8 JUMP JUMPDEST SWAP4 POP DUP4 PUSH1 0x20 DUP3 MUL DUP6 ADD PUSH2 0x1CEF DUP6 PUSH2 0x1BE8 JUMP JUMPDEST DUP1 PUSH0 JUMPDEST DUP6 DUP2 LT ISZERO PUSH2 0x1D2A JUMPI DUP5 DUP5 SUB DUP10 MSTORE DUP2 MLOAD PUSH2 0x1D0B DUP6 DUP3 PUSH2 0x1CAA JUMP JUMPDEST SWAP5 POP PUSH2 0x1D16 DUP4 PUSH2 0x1CBD JUMP JUMPDEST SWAP3 POP PUSH1 0x20 DUP11 ADD SWAP10 POP POP PUSH1 0x1 DUP2 ADD SWAP1 POP PUSH2 0x1CF2 JUMP JUMPDEST POP DUP3 SWAP8 POP DUP8 SWAP6 POP POP POP POP POP POP SWAP3 SWAP2 POP POP JUMP JUMPDEST PUSH0 PUSH1 0x20 DUP3 ADD SWAP1 POP DUP2 DUP2 SUB PUSH0 DUP4 ADD MSTORE PUSH2 0x1D54 DUP2 DUP5 PUSH2 0x1CC9 JUMP JUMPDEST SWAP1 POP SWAP3 SWAP2 POP POP JUMP JUMPDEST PUSH0 DUP1 PUSH1 0x40 DUP4 DUP6 SUB SLT ISZERO PUSH2 0x1D72 JUMPI PUSH2 0x1D71 PUSH2 0x17C3 JUMP JUMPDEST JUMPDEST PUSH0 PUSH2 0x1D7F DUP6 DUP3 DUP7 ADD PUSH2 0x1811 JUMP JUMPDEST SWAP3 POP POP PUSH1 0x20 PUSH2 0x1D90 DUP6 DUP3 DUP7 ADD PUSH2 0x1811 JUMP JUMPDEST SWAP2 POP POP SWAP3 POP SWAP3 SWAP1 POP JUMP JUMPDEST PUSH2 0x1DA3 DUP2 PUSH2 0x1896 JUMP JUMPDEST DUP2 EQ PUSH2 0x1DAD JUMPI PUSH0 DUP1 REVERT JUMPDEST POP JUMP JUMPDEST PUSH0 DUP2 CALLDATALOAD SWAP1 POP PUSH2 0x1DBE DUP2 PUSH2 0x1D9A JUMP JUMPDEST SWAP3 SWAP2 POP POP JUMP JUMPDEST PUSH0 DUP1 PUSH1 0x40 DUP4 DUP6 SUB SLT ISZERO PUSH2 0x1DDA JUMPI PUSH2 0x1DD9 PUSH2 0x17C3 JUMP JUMPDEST JUMPDEST PUSH0 PUSH2 0x1DE7 DUP6 DUP3 DUP7 ADD PUSH2 0x1DB0 JUMP JUMPDEST SWAP3 POP POP PUSH1 0x20 PUSH2 0x1DF8 DUP6 DUP3 DUP7 ADD PUSH2 0x1844 JUMP JUMPDEST SWAP2 POP POP SWAP3 POP SWAP3 SWAP1 POP JUMP JUMPDEST PUSH0 PUSH1 0x60 DUP3 ADD SWAP1 POP DUP2 DUP2 SUB PUSH0 DUP4 ADD MSTORE PUSH2 0x1E1A DUP2 DUP7 PUSH2 0x1762 JUMP JUMPDEST SWAP1 POP PUSH2 0x1E29 PUSH1 0x20 DUP4 ADD DUP6 PUSH2 0x18FD JUMP JUMPDEST PUSH2 0x1E36 PUSH1 0x40 DUP4 ADD DUP5 PUSH2 0x18C9 JUMP JUMPDEST SWAP5 SWAP4 POP POP POP POP JUMP JUMPDEST PUSH32 0x4E487B7100000000000000000000000000000000000000000000000000000000 PUSH0 MSTORE PUSH1 0x22 PUSH1 0x4 MSTORE PUSH1 0x24 PUSH0 REVERT JUMPDEST PUSH0 PUSH1 0x2 DUP3 DIV SWAP1 POP PUSH1 0x1 DUP3 AND DUP1 PUSH2 0x1E82 JUMPI PUSH1 0x7F DUP3 AND SWAP2 POP JUMPDEST PUSH1 0x20 DUP3 LT DUP2 SUB PUSH2 0x1E95 JUMPI PUSH2 0x1E94 PUSH2 0x1E3E JUMP JUMPDEST JUMPDEST POP SWAP2 SWAP1 POP JUMP JUMPDEST PUSH32 0x496E73756666696369656E742062616C616E6365000000000000000000000000 PUSH0 DUP3 ADD MSTORE POP JUMP JUMPDEST PUSH0 PUSH2 0x1ECF PUSH1 0x14 DUP4 PUSH2 0x1734 JUMP JUMPDEST SWAP2 POP PUSH2 0x1EDA DUP3 PUSH2 0x1E9B JUMP JUMPDEST PUSH1 0x20 DUP3 ADD SWAP1 POP SWAP2 SWAP1 POP JUMP JUMPDEST PUSH0 PUSH1 0x20 DUP3 ADD SWAP1 POP DUP2 DUP2 SUB PUSH0 DUP4 ADD MSTORE PUSH2 0x1EFC DUP2 PUSH2 0x1EC3 JUMP JUMPDEST SWAP1 POP SWAP2 SWAP1 POP JUMP JUMPDEST PUSH0 DUP2 SWAP1 POP DUP2 PUSH0 MSTORE PUSH1 0x20 PUSH0 KECCAK256 SWAP1 POP SWAP2 SWAP1 POP JUMP JUMPDEST PUSH0 PUSH1 0x20 PUSH1 0x1F DUP4 ADD DIV SWAP1 POP SWAP2 SWAP1 POP JUMP JUMPDEST PUSH0 DUP3 DUP3 SHL SWAP1 POP SWAP3 SWAP2 POP POP JUMP JUMPDEST PUSH0 PUSH1 0x8 DUP4 MUL PUSH2 0x1F5F PUSH32 0xFFFFFFFFFFFFFFFFFFFFFFFFFFFFFFFFFFFFFFFFFFFFFFFFFFFFFFFFFFFFFFFF DUP3 PUSH2 0x1F24 JUMP JUMPDEST PUSH2 0x1F69 DUP7 DUP4 PUSH2 0x1F24 JUMP JUMPDEST SWAP6 POP DUP1 NOT DUP5 AND SWAP4 POP DUP1 DUP7 AND DUP5 OR SWAP3 POP POP POP SWAP4 SWAP3 POP POP POP JUMP JUMPDEST PUSH0 DUP2 SWAP1 POP SWAP2 SWAP1 POP JUMP JUMPDEST PUSH0 PUSH2 0x1FA4 PUSH2 0x1F9F PUSH2 0x1F9A DUP5 PUSH2 0x1825 JUMP JUMPDEST PUSH2 0x1F81 JUMP JUMPDEST PUSH2 0x1825 JUMP JUMPDEST SWAP1 POP SWAP2 SWAP1 POP JUMP JUMPDEST PUSH0 DUP2 SWAP1 POP SWAP2 SWAP1 POP JUMP JUMPDEST PUSH2 0x1FBD DUP4 PUSH2 0x1F8A JUMP JUMPDEST PUSH2 0x1FD1 PUSH2 0x1FC9 DUP3 PUSH2 0x1FAB JUMP JUMPDEST DUP5 DUP5 SLOAD PUSH2 0x1F30 JUMP JUMPDEST DUP3 SSTORE POP POP POP POP JUMP JUMPDEST PUSH0 SWAP1 JUMP JUMPDEST PUSH2 0x1FE5 PUSH2 0x1FD9 JUMP JUMPDEST PUSH2 0x1FF0 DUP2 DUP5 DUP5 PUSH2 0x1FB4 JUMP JUMPDEST POP POP POP JUMP JUMPDEST JUMPDEST DUP2 DUP2 LT ISZERO PUSH2 0x2013 JUMPI PUSH2 0x2008 PUSH0 DUP3 PUSH2 0x1FDD JUMP JUMPDEST PUSH1 0x1 DUP2 ADD SWAP1 POP PUSH2 0x1FF6 JUMP JUMPDEST POP POP JUMP JUMPDEST PUSH1 0x1F DUP3 GT ISZERO PUSH2 0x2058 JUMPI PUSH2 0x2029 DUP2 PUSH2 0x1F03 JUMP JUMPDEST PUSH2 0x2032 DUP5 PUSH2 0x1F15 JUMP JUMPDEST DUP2 ADD PUSH1 0x20 DUP6 LT ISZERO PUSH2 0x2041 JUMPI DUP2 SWAP1 POP JUMPDEST PUSH2 0x2055 PUSH2 0x204D DUP6 PUSH2 0x1F15 JUMP JUMPDEST DUP4 ADD DUP3 PUSH2 0x1FF5 JUMP JUMPDEST POP POP JUMPDEST POP POP POP JUMP JUMPDEST PUSH0 DUP3 DUP3 SHR SWAP1 POP SWAP3 SWAP2 POP POP JUMP JUMPDEST PUSH0 PUSH2 0x2078 PUSH0 NOT DUP5 PUSH1 0x8 MUL PUSH2 0x205D JUMP JUMPDEST NOT DUP1 DUP4 AND SWAP2 POP POP SWAP3 SWAP2 POP POP JUMP JUMPDEST PUSH0 PUSH2 0x2090 DUP4 DUP4 PUSH2 0x2069 JUMP JUMPDEST SWAP2 POP DUP3 PUSH1 0x2 MUL DUP3 OR SWAP1 POP SWAP3 SWAP2 POP POP JUMP JUMPDEST PUSH2 0x20A9 DUP3 PUSH2 0x172A JUMP JUMPDEST PUSH8 0xFFFFFFFFFFFFFFFF DUP2 GT ISZERO PUSH2 0x20C2 JUMPI PUSH2 0x20C1 PUSH2 0x19A8 JUMP JUMPDEST JUMPDEST PUSH2 0x20CC DUP3 SLOAD PUSH2 0x1E6B JUMP JUMPDEST PUSH2 0x20D7 DUP3 DUP3 DUP6 PUSH2 0x2017 JUMP JUMPDEST PUSH0 PUSH1 0x20 SWAP1 POP PUSH1 0x1F DUP4 GT PUSH1 0x1 DUP2 EQ PUSH2 0x2108 JUMPI PUSH0 DUP5 ISZERO PUSH2 0x20F6 JUMPI DUP3 DUP8 ADD MLOAD SWAP1 POP JUMPDEST PUSH2 0x2100 DUP6 DUP3 PUSH2 0x2085 JUMP JUMPDEST DUP7 SSTORE POP PUSH2 0x2167 JUMP JUMPDEST PUSH1 0x1F NOT DUP5 AND PUSH2 0x2116 DUP7 PUSH2 0x1F03 JUMP JUMPDEST PUSH0 JUMPDEST DUP3 DUP2 LT ISZERO PUSH2 0x213D JUMPI DUP5 DUP10 ADD MLOAD DUP3 SSTORE PUSH1 0x1 DUP3 ADD SWAP2 POP PUSH1 0x20 DUP6 ADD SWAP5 POP PUSH1 0x20 DUP2 ADD SWAP1 POP PUSH2 0x2118 JUMP JUMPDEST DUP7 DUP4 LT ISZERO PUSH2 0x215A JUMPI DUP5 DUP10 ADD MLOAD PUSH2 0x2156 PUSH1 0x1F DUP10 AND DUP3 PUSH2 0x2069 JUMP JUMPDEST DUP4 SSTORE POP JUMPDEST PUSH1 0x1 PUSH1 0x2 DUP9 MUL ADD DUP9 SSTORE POP POP POP JUMPDEST POP POP POP POP POP POP JUMP JUMPDEST PUSH32 0x4E487B7100000000000000000000000000000000000000000000000000000000 PUSH0 MSTORE PUSH1 0x11 PUSH1 0x4 MSTORE PUSH1 0x24 PUSH0 REVERT JUMPDEST PUSH0 PUSH2 0x21A6 DUP3 PUSH2 0x18F1 JUMP JUMPDEST SWAP2 POP PUSH1 0xFF DUP3 SUB PUSH2 0x21B9 JUMPI PUSH2 0x21B8 PUSH2 0x216F JUMP JUMPDEST JUMPDEST PUSH1 0x1 DUP3 ADD SWAP1 POP SWAP2 SWAP1 POP JUMP JUMPDEST PUSH32 0x496E73756666696369656E7420616D6F756E7400000000000000000000000000 PUSH0 DUP3 ADD MSTORE POP JUMP JUMPDEST PUSH0 PUSH2 0x21F8 PUSH1 0x13 DUP4 PUSH2 0x1734 JUMP JUMPDEST SWAP2 POP PUSH2 0x2203 DUP3 PUSH2 0x21C4 JUMP JUMPDEST PUSH1 0x20 DUP3 ADD SWAP1 POP SWAP2 SWAP1 POP JUMP JUMPDEST PUSH0 PUSH1 0x20 DUP3 ADD SWAP1 POP DUP2 DUP2 SUB PUSH0 DUP4 ADD MSTORE PUSH2 0x2225 DUP2 PUSH2 0x21EC JUMP JUMPDEST SWAP1 POP SWAP2 SWAP1 POP JUMP JUMPDEST PUSH32 0x4974656D206E6F7420666F756E64000000000000000000000000000000000000 PUSH0 DUP3 ADD MSTORE POP JUMP JUMPDEST PUSH0 PUSH2 0x2260 PUSH1 0xE DUP4 PUSH2 0x1734 JUMP JUMPDEST SWAP2 POP PUSH2 0x226B DUP3 PUSH2 0x222C JUMP JUMPDEST PUSH1 0x20 DUP3 ADD SWAP1 POP SWAP2 SWAP1 POP JUMP JUMPDEST PUSH0 PUSH1 0x20 DUP3 ADD SWAP1 POP DUP2 DUP2 SUB PUSH0 DUP4 ADD MSTORE PUSH2 0x228D DUP2 PUSH2 0x2254 JUMP JUMPDEST SWAP1 POP SWAP2 SWAP1 POP JUMP JUMPDEST PUSH0 DUP2 SLOAD SWAP1 POP PUSH2 0x22A2 DUP2 PUSH2 0x1E6B JUMP JUMPDEST SWAP1 POP SWAP2 SWAP1 POP JUMP JUMPDEST DUP2 DUP2 SUB PUSH2 0x22B7 JUMPI POP POP PUSH2 0x238C JUMP JUMPDEST PUSH2 0x22C0 DUP3 PUSH2 0x2294 JUMP JUMPDEST PUSH8 0xFFFFFFFFFFFFFFFF DUP2 GT ISZERO PUSH2 0x22D9 JUMPI PUSH2 0x22D8 PUSH2 0x19A8 JUMP JUMPDEST JUMPDEST PUSH2 0x22E3 DUP3 SLOAD PUSH2 0x1E6B JUMP JUMPDEST PUSH2 0x22EE DUP3 DUP3 DUP6 PUSH2 0x2017 JUMP JUMPDEST PUSH0 PUSH1 0x1F DUP4 GT PUSH1 0x1 DUP2 EQ PUSH2 0x231B JUMPI PUSH0 DUP5 ISZERO PUSH2 0x2309 JUMPI DUP3 DUP8 ADD SLOAD SWAP1 POP JUMPDEST PUSH2 0x2313 DUP6 DUP3 PUSH2 0x2085 JUMP JUMPDEST DUP7 SSTORE POP PUSH2 0x2385 JUMP JUMPDEST PUSH1 0x1F NOT DUP5 AND PUSH2 0x2329 DUP8 PUSH2 0x1F03 JUMP JUMPDEST SWAP7 POP PUSH2 0x2334 DUP7 PUSH2 0x1F03 JUMP JUMPDEST PUSH0 JUMPDEST DUP3 DUP2 LT ISZERO PUSH2 0x235B JUMPI DUP5 DUP10 ADD SLOAD DUP3 SSTORE PUSH1 0x1 DUP3 ADD SWAP2 POP PUSH1 0x1 DUP6 ADD SWAP5 POP PUSH1 0x20 DUP2 ADD SWAP1 POP PUSH2 0x2336 JUMP JUMPDEST DUP7 DUP4 LT ISZERO PUSH2 0x2378 JUMPI DUP5 DUP10 ADD SLOAD PUSH2 0x2374 PUSH1 0x1F DUP10 AND DUP3 PUSH2 0x2069 JUMP JUMPDEST DUP4 SSTORE POP JUMPDEST PUSH1 0x1 PUSH1 0x2 DUP9 MUL ADD DUP9 SSTORE POP POP POP JUMPDEST POP POP POP POP POP POP JUMPDEST JUMP JUMPDEST PUSH0 DUP2 SLOAD PUSH2 0x239A DUP2 PUSH2 0x1E6B JUMP JUMPDEST PUSH2 0x23A4 DUP2 DUP7 PUSH2 0x1734 JUMP JUMPDEST SWAP5 POP PUSH1 0x1 DUP3 AND PUSH0 DUP2 EQ PUSH2 0x23BE JUMPI PUSH1 0x1 DUP2 EQ PUSH2 0x23D4 JUMPI PUSH2 0x2406 JUMP JUMPDEST PUSH1 0xFF NOT DUP4 AND DUP7 MSTORE DUP2 ISZERO ISZERO PUSH1 0x20 MUL DUP7 ADD SWAP4 POP PUSH2 0x2406 JUMP JUMPDEST PUSH2 0x23DD DUP6 PUSH2 0x1F03 JUMP JUMPDEST PUSH0 JUMPDEST DUP4 DUP2 LT ISZERO PUSH2 0x23FE JUMPI DUP2 SLOAD DUP2 DUP10 ADD MSTORE PUSH1 0x1 DUP3 ADD SWAP2 POP PUSH1 0x20 DUP2 ADD SWAP1 POP PUSH2 0x23DF JUMP JUMPDEST DUP1 DUP9 ADD SWAP6 POP POP POP JUMPDEST POP POP POP SWAP3 SWAP2 POP POP JUMP JUMPDEST PUSH0 PUSH1 0x60 DUP3 ADD SWAP1 POP PUSH2 0x2422 PUSH0 DUP4 ADD DUP7 PUSH2 0x18FD JUMP JUMPDEST DUP2 DUP2 SUB PUSH1 0x20 DUP4 ADD MSTORE PUSH2 0x2434 DUP2 DUP6 PUSH2 0x238E JUMP JUMPDEST SWAP1 POP PUSH2 0x2443 PUSH1 0x40 DUP4 ADD DUP5 PUSH2 0x18C9 JUMP JUMPDEST SWAP5 SWAP4 POP POP POP POP JUMP JUMPDEST PUSH0 DUP2 SWAP1 POP SWAP2 SWAP1 POP JUMP JUMPDEST PUSH2 0x2465 PUSH2 0x2460 DUP3 PUSH2 0x1825 JUMP JUMPDEST PUSH2 0x244B JUMP JUMPDEST DUP3 MSTORE POP POP JUMP JUMPDEST PUSH0 DUP2 PUSH1 0x60 SHL SWAP1 POP SWAP2 SWAP1 POP JUMP JUMPDEST PUSH0 PUSH2 0x2481 DUP3 PUSH2 0x246B JUMP JUMPDEST SWAP1 POP SWAP2 SWAP1 POP JUMP JUMPDEST PUSH0 PUSH2 0x2492 DUP3 PUSH2 0x2477 JUMP JUMPDEST SWAP1 POP SWAP2 SWAP1 POP JUMP JUMPDEST PUSH2 0x24AA PUSH2 0x24A5 DUP3 PUSH2 0x17EA JUMP JUMPDEST PUSH2 0x2488 JUMP JUMPDEST DUP3 MSTORE POP POP JUMP JUMPDEST PUSH0 PUSH2 0x24BB DUP3 DUP6 PUSH2 0x2454 JUMP JUMPDEST PUSH1 0x20 DUP3 ADD SWAP2 POP PUSH2 0x24CB DUP3 DUP5 PUSH2 0x2499 JUMP JUMPDEST PUSH1 0x14 DUP3 ADD SWAP2 POP DUP2 SWAP1 POP SWAP4 SWAP3 POP POP POP JUMP JUMPDEST PUSH32 0x4E487B7100000000000000000000000000000000000000000000000000000000 PUSH0 MSTORE PUSH1 0x12 PUSH1 0x4 MSTORE PUSH1 0x24 PUSH0 REVERT JUMPDEST PUSH0 PUSH2 0x2512 DUP3 PUSH2 0x1825 JUMP JUMPDEST SWAP2 POP PUSH2 0x251D DUP4 PUSH2 0x1825 JUMP JUMPDEST SWAP3 POP DUP3 PUSH2 0x252D JUMPI PUSH2 0x252C PUSH2 0x24DB JUMP JUMPDEST JUMPDEST DUP3 DUP3 MOD SWAP1 POP SWAP3 SWAP2 POP POP JUMP JUMPDEST PUSH0 PUSH2 0x2542 DUP3 PUSH2 0x1825 JUMP JUMPDEST SWAP2 POP PUSH2 0x254D DUP4 PUSH2 0x1825 JUMP JUMPDEST SWAP3 POP DUP3 DUP3 MUL PUSH2 0x255B DUP2 PUSH2 0x1825 JUMP JUMPDEST SWAP2 POP DUP3 DUP3 DIV DUP5 EQ DUP4 ISZERO OR PUSH2 0x2572 JUMPI PUSH2 0x2571 PUSH2 0x216F JUMP JUMPDEST JUMPDEST POP SWAP3 SWAP2 POP POP JUMP JUMPDEST PUSH32 0x776F6E0000000000000000000000000000000000000000000000000000000000 PUSH0 DUP3 ADD MSTORE POP JUMP JUMPDEST PUSH0 PUSH2 0x25AD PUSH1 0x3 DUP4 PUSH2 0x1734 JUMP JUMPDEST SWAP2 POP PUSH2 0x25B8 DUP3 PUSH2 0x2579 JUMP JUMPDEST PUSH1 0x20 DUP3 ADD SWAP1 POP SWAP2 SWAP1 POP JUMP JUMPDEST PUSH0 PUSH1 0x60 DUP3 ADD SWAP1 POP PUSH2 0x25D6 PUSH0 DUP4 ADD DUP6 PUSH2 0x18C9 JUMP JUMPDEST PUSH2 0x25E3 PUSH1 0x20 DUP4 ADD DUP5 PUSH2 0x18A1 JUMP JUMPDEST DUP2 DUP2 SUB PUSH1 0x40 DUP4 ADD MSTORE PUSH2 0x25F4 DUP2 PUSH2 0x25A1 JUMP JUMPDEST SWAP1 POP SWAP4 SWAP3 POP POP POP JUMP JUMPDEST PUSH32 0x6C6F737400000000000000000000000000000000000000000000000000000000 PUSH0 DUP3 ADD MSTORE POP JUMP JUMPDEST PUSH0 PUSH2 0x2631 PUSH1 0x4 DUP4 PUSH2 0x1734 JUMP JUMPDEST SWAP2 POP PUSH2 0x263C DUP3 PUSH2 0x25FD JUMP JUMPDEST PUSH1 0x20 DUP3 ADD SWAP1 POP SWAP2 SWAP1 POP JUMP JUMPDEST PUSH0 PUSH1 0x60 DUP3 ADD SWAP1 POP PUSH2 0x265A PUSH0 DUP4 ADD DUP6 PUSH2 0x18C9 JUMP JUMPDEST PUSH2 0x2667 PUSH1 0x20 DUP4 ADD DUP5 PUSH2 0x18A1 JUMP JUMPDEST DUP2 DUP2 SUB PUSH1 0x40 DUP4 ADD MSTORE PUSH2 0x2678 DUP2 PUSH2 0x2625 JUMP JUMPDEST SWAP1 POP SWAP4 SWAP3 POP POP POP JUMP JUMPDEST PUSH32 0x596F7527766520616C726561647920636C61696D656420796F75722077656C63 PUSH0 DUP3 ADD MSTORE PUSH32 0x6F6D6520626F6E75730000000000000000000000000000000000000000000000 PUSH1 0x20 DUP3 ADD MSTORE POP JUMP JUMPDEST PUSH0 PUSH2 0x26DB PUSH1 0x29 DUP4 PUSH2 0x1734 JUMP JUMPDEST SWAP2 POP PUSH2 0x26E6 DUP3 PUSH2 0x2681 JUMP JUMPDEST PUSH1 0x40 DUP3 ADD SWAP1 POP SWAP2 SWAP1 POP JUMP JUMPDEST PUSH0 PUSH1 0x20 DUP3 ADD SWAP1 POP DUP2 DUP2 SUB PUSH0 DUP4 ADD MSTORE PUSH2 0x2708 DUP2 PUSH2 0x26CF JUMP JUMPDEST SWAP1 POP SWAP2 SWAP1 POP JUMP JUMPDEST PUSH0 PUSH1 0x60 DUP3 ADD SWAP1 POP PUSH2 0x2722 PUSH0 DUP4 ADD DUP7 PUSH2 0x1B51 JUMP JUMPDEST PUSH2 0x272F PUSH1 0x20 DUP4 ADD DUP6 PUSH2 0x18C9 JUMP JUMPDEST PUSH2 0x273C PUSH1 0x40 DUP4 ADD DUP5 PUSH2 0x18C9 JUMP JUMPDEST SWAP5 SWAP4 POP POP POP POP JUMP JUMPDEST PUSH0 PUSH2 0x274E DUP3 PUSH2 0x1825 JUMP JUMPDEST SWAP2 POP PUSH2 0x2759 DUP4 PUSH2 0x1825 JUMP JUMPDEST SWAP3 POP DUP3 DUP3 ADD SWAP1 POP DUP1 DUP3 GT ISZERO PUSH2 0x2771 JUMPI PUSH2 0x2770 PUSH2 0x216F JUMP JUMPDEST JUMPDEST SWAP3 SWAP2 POP POP JUMP INVALID LOG2 PUSH5 0x6970667358 0x22 SLT KECCAK256 INVALID 0x4E 0x29 PUSH22 0xC141CB4F61C7FFE8DDD28321463C1CC8F1FDC0F14CA8 0xD9 0xD9 0xE9 STOP 0xB1 PUSH5 0x64736F6C63 NUMBER STOP ADDMOD BYTE STOP CALLER "
				},
				"gasEstimates": {
					"creation": {
						"codeDepositCost": "2031400",
						"executionCost": "infinite",
						"totalCost": "infinite"
					},
					"external": {
						"addItem(string,uint256)": "infinite",
						"allowance(address,address)": "infinite",
						"approve(address,uint256)": "infinite",
						"balanceOf(address)": "2962",
						"burn(uint256)": "infinite",
						"burnFrom(address,uint256)": "infinite",
						"burnToken(uint256)": "infinite",
						"decimals()": "375",
						"getBalance()": "2651",
						"getUserItems(address)": "infinite",
						"isLessThanFive(bool,uint256)": "infinite",
						"items(uint8)": "infinite",
						"mint(address,uint256)": "infinite",
						"name()": "infinite",
						"owner()": "2604",
						"purchaseItem(uint8)": "infinite",
						"renounceOwnership()": "infinite",
						"symbol()": "infinite",
						"tokenId()": "2578",
						"totalSupply()": "2566",
						"transfer(address,uint256)": "infinite",
						"transferFrom(address,address,uint256)": "infinite",
						"transferOwnership(address)": "infinite",
						"transferToken(address,uint256)": "infinite",
						"welcomeBonus()": "infinite"
					}
				},
				"methodIdentifiers": {
					"addItem(string,uint256)": "62d6bbdf",
					"allowance(address,address)": "dd62ed3e",
					"approve(address,uint256)": "095ea7b3",
					"balanceOf(address)": "70a08231",
					"burn(uint256)": "42966c68",
					"burnFrom(address,uint256)": "79cc6790",
					"burnToken(uint256)": "7b47ec1a",
					"decimals()": "313ce567",
					"getBalance()": "12065fe0",
					"getUserItems(address)": "ce6019b4",
					"isLessThanFive(bool,uint256)": "ea5e65e0",
					"items(uint8)": "fbd1a97b",
					"mint(address,uint256)": "40c10f19",
					"name()": "06fdde03",
					"owner()": "8da5cb5b",
					"purchaseItem(uint8)": "af3bcb7d",
					"renounceOwnership()": "715018a6",
					"symbol()": "95d89b41",
					"tokenId()": "17d70f7c",
					"totalSupply()": "18160ddd",
					"transfer(address,uint256)": "a9059cbb",
					"transferFrom(address,address,uint256)": "23b872dd",
					"transferOwnership(address)": "f2fde38b",
					"transferToken(address,uint256)": "1072cbea",
					"welcomeBonus()": "f5112f87"
				}
			},
			"storageLayout": {
				"storage": [
					{
						"astId": 307,
						"contract": "contracts/DegenToken.sol:DegenToken",
						"label": "_balances",
						"offset": 0,
						"slot": "0",
						"type": "t_mapping(t_address,t_uint256)"
					},
					{
						"astId": 313,
						"contract": "contracts/DegenToken.sol:DegenToken",
						"label": "_allowances",
						"offset": 0,
						"slot": "1",
						"type": "t_mapping(t_address,t_mapping(t_address,t_uint256))"
					},
					{
						"astId": 315,
						"contract": "contracts/DegenToken.sol:DegenToken",
						"label": "_totalSupply",
						"offset": 0,
						"slot": "2",
						"type": "t_uint256"
					},
					{
						"astId": 317,
						"contract": "contracts/DegenToken.sol:DegenToken",
						"label": "_name",
						"offset": 0,
						"slot": "3",
						"type": "t_string_storage"
					},
					{
						"astId": 319,
						"contract": "contracts/DegenToken.sol:DegenToken",
						"label": "_symbol",
						"offset": 0,
						"slot": "4",
						"type": "t_string_storage"
					},
					{
						"astId": 8,
						"contract": "contracts/DegenToken.sol:DegenToken",
						"label": "_owner",
						"offset": 0,
						"slot": "5",
						"type": "t_address"
					},
					{
						"astId": 1002,
						"contract": "contracts/DegenToken.sol:DegenToken",
						"label": "items",
						"offset": 0,
						"slot": "6",
						"type": "t_mapping(t_uint8,t_struct(Item)997_storage)"
					},
					{
						"astId": 1008,
						"contract": "contracts/DegenToken.sol:DegenToken",
						"label": "playerItems",
						"offset": 0,
						"slot": "7",
						"type": "t_mapping(t_address,t_array(t_struct(Item)997_storage)dyn_storage)"
					},
					{
						"astId": 1010,
						"contract": "contracts/DegenToken.sol:DegenToken",
						"label": "tokenId",
						"offset": 0,
						"slot": "8",
						"type": "t_uint8"
					}
				],
				"types": {
					"t_address": {
						"encoding": "inplace",
						"label": "address",
						"numberOfBytes": "20"
					},
					"t_array(t_struct(Item)997_storage)dyn_storage": {
						"base": "t_struct(Item)997_storage",
						"encoding": "dynamic_array",
						"label": "struct DegenToken.Item[]",
						"numberOfBytes": "32"
					},
					"t_mapping(t_address,t_array(t_struct(Item)997_storage)dyn_storage)": {
						"encoding": "mapping",
						"key": "t_address",
						"label": "mapping(address => struct DegenToken.Item[])",
						"numberOfBytes": "32",
						"value": "t_array(t_struct(Item)997_storage)dyn_storage"
					},
					"t_mapping(t_address,t_mapping(t_address,t_uint256))": {
						"encoding": "mapping",
						"key": "t_address",
						"label": "mapping(address => mapping(address => uint256))",
						"numberOfBytes": "32",
						"value": "t_mapping(t_address,t_uint256)"
					},
					"t_mapping(t_address,t_uint256)": {
						"encoding": "mapping",
						"key": "t_address",
						"label": "mapping(address => uint256)",
						"numberOfBytes": "32",
						"value": "t_uint256"
					},
					"t_mapping(t_uint8,t_struct(Item)997_storage)": {
						"encoding": "mapping",
						"key": "t_uint8",
						"label": "mapping(uint8 => struct DegenToken.Item)",
						"numberOfBytes": "32",
						"value": "t_struct(Item)997_storage"
					},
					"t_string_storage": {
						"encoding": "bytes",
						"label": "string",
						"numberOfBytes": "32"
					},
					"t_struct(Item)997_storage": {
						"encoding": "inplace",
						"label": "struct DegenToken.Item",
						"members": [
							{
								"astId": 992,
								"contract": "contracts/DegenToken.sol:DegenToken",
								"label": "name",
								"offset": 0,
								"slot": "0",
								"type": "t_string_storage"
							},
							{
								"astId": 994,
								"contract": "contracts/DegenToken.sol:DegenToken",
								"label": "itemId",
								"offset": 0,
								"slot": "1",
								"type": "t_uint8"
							},
							{
								"astId": 996,
								"contract": "contracts/DegenToken.sol:DegenToken",
								"label": "price",
								"offset": 0,
								"slot": "2",
								"type": "t_uint256"
							}
						],
						"numberOfBytes": "96"
					},
					"t_uint256": {
						"encoding": "inplace",
						"label": "uint256",
						"numberOfBytes": "32"
					},
					"t_uint8": {
						"encoding": "inplace",
						"label": "uint8",
						"numberOfBytes": "1"
					}
				}
			},
			"userdoc": {
				"kind": "user",
				"methods": {},
				"version": 1
			}
		}
	}
}