{
	"contracts/DegenToken.sol": {
		"DegenToken": {
			"abi": [
				{
					"inputs": [
						{
							"internalType": "address",
							"name": "initialOwner",
							"type": "address"
						},
						{
							"internalType": "uint256",
							"name": "tokenSupply",
							"type": "uint256"
						}
					],
					"stateMutability": "nonpayable",
					"type": "constructor"
				},
				{
					"inputs": [
						{
							"internalType": "address",
							"name": "spender",
							"type": "address"
						},
						{
							"internalType": "uint256",
							"name": "allowance",
							"type": "uint256"
						},
						{
							"internalType": "uint256",
							"name": "needed",
							"type": "uint256"
						}
					],
					"name": "ERC20InsufficientAllowance",
					"type": "error"
				},
				{
					"inputs": [
						{
							"internalType": "address",
							"name": "sender",
							"type": "address"
						},
						{
							"internalType": "uint256",
							"name": "balance",
							"type": "uint256"
						},
						{
							"internalType": "uint256",
							"name": "needed",
							"type": "uint256"
						}
					],
					"name": "ERC20InsufficientBalance",
					"type": "error"
				},
				{
					"inputs": [
						{
							"internalType": "address",
							"name": "approver",
							"type": "address"
						}
					],
					"name": "ERC20InvalidApprover",
					"type": "error"
				},
				{
					"inputs": [
						{
							"internalType": "address",
							"name": "receiver",
							"type": "address"
						}
					],
					"name": "ERC20InvalidReceiver",
					"type": "error"
				},
				{
					"inputs": [
						{
							"internalType": "address",
							"name": "sender",
							"type": "address"
						}
					],
					"name": "ERC20InvalidSender",
					"type": "error"
				},
				{
					"inputs": [
						{
							"internalType": "address",
							"name": "spender",
							"type": "address"
						}
					],
					"name": "ERC20InvalidSpender",
					"type": "error"
				},
				{
					"inputs": [
						{
							"internalType": "address",
							"name": "owner",
							"type": "address"
						}
					],
					"name": "OwnableInvalidOwner",
					"type": "error"
				},
				{
					"inputs": [
						{
							"internalType": "address",
							"name": "account",
							"type": "address"
						}
					],
					"name": "OwnableUnauthorizedAccount",
					"type": "error"
				},
				{
					"anonymous": false,
					"inputs": [
						{
							"indexed": true,
							"internalType": "address",
							"name": "owner",
							"type": "address"
						},
						{
							"indexed": true,
							"internalType": "address",
							"name": "spender",
							"type": "address"
						},
						{
							"indexed": false,
							"internalType": "uint256",
							"name": "value",
							"type": "uint256"
						}
					],
					"name": "Approval",
					"type": "event"
				},
				{
					"anonymous": false,
					"inputs": [
						{
							"indexed": true,
							"internalType": "address",
							"name": "player",
							"type": "address"
						},
						{
							"indexed": false,
							"internalType": "uint256",
							"name": "num",
							"type": "uint256"
						},
						{
							"indexed": false,
							"internalType": "bool",
							"name": "won",
							"type": "bool"
						},
						{
							"indexed": false,
							"internalType": "string",
							"name": "result",
							"type": "string"
						}
					],
					"name": "GameOutcome",
					"type": "event"
				},
				{
					"anonymous": false,
					"inputs": [
						{
							"indexed": true,
							"internalType": "address",
							"name": "buyer",
							"type": "address"
						},
						{
							"indexed": false,
							"internalType": "uint8",
							"name": "itemId",
							"type": "uint8"
						},
						{
							"indexed": false,
							"internalType": "string",
							"name": "itemName",
							"type": "string"
						},
						{
							"indexed": false,
							"internalType": "uint256",
							"name": "price",
							"type": "uint256"
						}
					],
					"name": "ItemPurchased",
					"type": "event"
				},
				{
					"anonymous": false,
					"inputs": [
						{
							"indexed": true,
							"internalType": "address",
							"name": "previousOwner",
							"type": "address"
						},
						{
							"indexed": true,
							"internalType": "address",
							"name": "newOwner",
							"type": "address"
						}
					],
					"name": "OwnershipTransferred",
					"type": "event"
				},
				{
					"anonymous": false,
					"inputs": [
						{
							"indexed": true,
							"internalType": "address",
							"name": "from",
							"type": "address"
						},
						{
							"indexed": true,
							"internalType": "address",
							"name": "to",
							"type": "address"
						},
						{
							"indexed": false,
							"internalType": "uint256",
							"name": "value",
							"type": "uint256"
						}
					],
					"name": "Transfer",
					"type": "event"
				},
				{
					"inputs": [
						{
							"internalType": "string",
							"name": "_name",
							"type": "string"
						},
						{
							"internalType": "uint256",
							"name": "_price",
							"type": "uint256"
						}
					],
					"name": "addItem",
					"outputs": [],
					"stateMutability": "nonpayable",
					"type": "function"
				},
				{
					"inputs": [
						{
							"internalType": "address",
							"name": "owner",
							"type": "address"
						},
						{
							"internalType": "address",
							"name": "spender",
							"type": "address"
						}
					],
					"name": "allowance",
					"outputs": [
						{
							"internalType": "uint256",
							"name": "",
							"type": "uint256"
						}
					],
					"stateMutability": "view",
					"type": "function"
				},
				{
					"inputs": [
						{
							"internalType": "address",
							"name": "spender",
							"type": "address"
						},
						{
							"internalType": "uint256",
							"name": "value",
							"type": "uint256"
						}
					],
					"name": "approve",
					"outputs": [
						{
							"internalType": "bool",
							"name": "",
							"type": "bool"
						}
					],
					"stateMutability": "nonpayable",
					"type": "function"
				},
				{
					"inputs": [
						{
							"internalType": "address",
							"name": "account",
							"type": "address"
						}
					],
					"name": "balanceOf",
					"outputs": [
						{
							"internalType": "uint256",
							"name": "",
							"type": "uint256"
						}
					],
					"stateMutability": "view",
					"type": "function"
				},
				{
					"inputs": [
						{
							"internalType": "uint256",
							"name": "value",
							"type": "uint256"
						}
					],
					"name": "burn",
					"outputs": [],
					"stateMutability": "nonpayable",
					"type": "function"
				},
				{
					"inputs": [
						{
							"internalType": "address",
							"name": "account",
							"type": "address"
						},
						{
							"internalType": "uint256",
							"name": "value",
							"type": "uint256"
						}
					],
					"name": "burnFrom",
					"outputs": [],
					"stateMutability": "nonpayable",
					"type": "function"
				},
				{
					"inputs": [
						{
							"internalType": "uint256",
							"name": "_amount",
							"type": "uint256"
						}
					],
					"name": "burnToken",
					"outputs": [],
					"stateMutability": "nonpayable",
					"type": "function"
				},
				{
					"inputs": [],
					"name": "decimals",
					"outputs": [
						{
							"internalType": "uint8",
							"name": "",
							"type": "uint8"
						}
					],
					"stateMutability": "pure",
					"type": "function"
				},
				{
					"inputs": [],
					"name": "getBalance",
					"outputs": [
						{
							"internalType": "uint256",
							"name": "",
							"type": "uint256"
						}
					],
					"stateMutability": "view",
					"type": "function"
				},
				{
					"inputs": [
						{
							"internalType": "uint8",
							"name": "_id",
							"type": "uint8"
						}
					],
					"name": "getItemName",
					"outputs": [
						{
							"internalType": "string",
							"name": "",
							"type": "string"
						}
					],
					"stateMutability": "view",
					"type": "function"
				},
				{
					"inputs": [
						{
							"internalType": "uint8",
							"name": "_id",
							"type": "uint8"
						}
					],
					"name": "getItemPrice",
					"outputs": [
						{
							"internalType": "uint256",
							"name": "",
							"type": "uint256"
						}
					],
					"stateMutability": "view",
					"type": "function"
				},
				{
					"inputs": [
						{
							"internalType": "address",
							"name": "user",
							"type": "address"
						}
					],
					"name": "getUserItems",
					"outputs": [
						{
							"internalType": "uint8[]",
							"name": "",
							"type": "uint8[]"
						}
					],
					"stateMutability": "view",
					"type": "function"
				},
				{
					"inputs": [
						{
							"internalType": "bool",
							"name": "_prediction",
							"type": "bool"
						},
						{
							"internalType": "uint256",
							"name": "_betAmount",
							"type": "uint256"
						}
					],
					"name": "isLessThanFive",
					"outputs": [],
					"stateMutability": "nonpayable",
					"type": "function"
				},
				{
					"inputs": [
						{
							"internalType": "address",
							"name": "to",
							"type": "address"
						},
						{
							"internalType": "uint256",
							"name": "amount",
							"type": "uint256"
						}
					],
					"name": "mint",
					"outputs": [],
					"stateMutability": "nonpayable",
					"type": "function"
				},
				{
					"inputs": [],
					"name": "name",
					"outputs": [
						{
							"internalType": "string",
							"name": "",
							"type": "string"
						}
					],
					"stateMutability": "view",
					"type": "function"
				},
				{
					"inputs": [],
					"name": "owner",
					"outputs": [
						{
							"internalType": "address",
							"name": "",
							"type": "address"
						}
					],
					"stateMutability": "view",
					"type": "function"
				},
				{
					"inputs": [
						{
							"internalType": "uint8",
							"name": "_itemId",
							"type": "uint8"
						}
					],
					"name": "purchaseItem",
					"outputs": [],
					"stateMutability": "nonpayable",
					"type": "function"
				},
				{
					"inputs": [],
					"name": "renounceOwnership",
					"outputs": [],
					"stateMutability": "nonpayable",
					"type": "function"
				},
				{
					"inputs": [],
					"name": "symbol",
					"outputs": [
						{
							"internalType": "string",
							"name": "",
							"type": "string"
						}
					],
					"stateMutability": "view",
					"type": "function"
				},
				{
					"inputs": [],
					"name": "tokenId",
					"outputs": [
						{
							"internalType": "uint8",
							"name": "",
							"type": "uint8"
						}
					],
					"stateMutability": "view",
					"type": "function"
				},
				{
					"inputs": [],
					"name": "totalSupply",
					"outputs": [
						{
							"internalType": "uint256",
							"name": "",
							"type": "uint256"
						}
					],
					"stateMutability": "view",
					"type": "function"
				},
				{
					"inputs": [
						{
							"internalType": "address",
							"name": "to",
							"type": "address"
						},
						{
							"internalType": "uint256",
							"name": "value",
							"type": "uint256"
						}
					],
					"name": "transfer",
					"outputs": [
						{
							"internalType": "bool",
							"name": "",
							"type": "bool"
						}
					],
					"stateMutability": "nonpayable",
					"type": "function"
				},
				{
					"inputs": [
						{
							"internalType": "address",
							"name": "from",
							"type": "address"
						},
						{
							"internalType": "address",
							"name": "to",
							"type": "address"
						},
						{
							"internalType": "uint256",
							"name": "value",
							"type": "uint256"
						}
					],
					"name": "transferFrom",
					"outputs": [
						{
							"internalType": "bool",
							"name": "",
							"type": "bool"
						}
					],
					"stateMutability": "nonpayable",
					"type": "function"
				},
				{
					"inputs": [
						{
							"internalType": "address",
							"name": "newOwner",
							"type": "address"
						}
					],
					"name": "transferOwnership",
					"outputs": [],
					"stateMutability": "nonpayable",
					"type": "function"
				},
				{
					"inputs": [
						{
							"internalType": "address",
							"name": "_recipient",
							"type": "address"
						},
						{
							"internalType": "uint256",
							"name": "_amount",
							"type": "uint256"
						}
					],
					"name": "transferToken",
					"outputs": [],
					"stateMutability": "nonpayable",
					"type": "function"
				},
				{
					"inputs": [],
					"name": "welcomeBonus",
					"outputs": [],
					"stateMutability": "nonpayable",
					"type": "function"
				}
			],
			"devdoc": {
				"errors": {
					"ERC20InsufficientAllowance(address,uint256,uint256)": [
						{
							"details": "Indicates a failure with the `spender`’s `allowance`. Used in transfers.",
							"params": {
								"allowance": "Amount of tokens a `spender` is allowed to operate with.",
								"needed": "Minimum amount required to perform a transfer.",
								"spender": "Address that may be allowed to operate on tokens without being their owner."
							}
						}
					],
					"ERC20InsufficientBalance(address,uint256,uint256)": [
						{
							"details": "Indicates an error related to the current `balance` of a `sender`. Used in transfers.",
							"params": {
								"balance": "Current balance for the interacting account.",
								"needed": "Minimum amount required to perform a transfer.",
								"sender": "Address whose tokens are being transferred."
							}
						}
					],
					"ERC20InvalidApprover(address)": [
						{
							"details": "Indicates a failure with the `approver` of a token to be approved. Used in approvals.",
							"params": {
								"approver": "Address initiating an approval operation."
							}
						}
					],
					"ERC20InvalidReceiver(address)": [
						{
							"details": "Indicates a failure with the token `receiver`. Used in transfers.",
							"params": {
								"receiver": "Address to which tokens are being transferred."
							}
						}
					],
					"ERC20InvalidSender(address)": [
						{
							"details": "Indicates a failure with the token `sender`. Used in transfers.",
							"params": {
								"sender": "Address whose tokens are being transferred."
							}
						}
					],
					"ERC20InvalidSpender(address)": [
						{
							"details": "Indicates a failure with the `spender` to be approved. Used in approvals.",
							"params": {
								"spender": "Address that may be allowed to operate on tokens without being their owner."
							}
						}
					],
					"OwnableInvalidOwner(address)": [
						{
							"details": "The owner is not a valid owner account. (eg. `address(0)`)"
						}
					],
					"OwnableUnauthorizedAccount(address)": [
						{
							"details": "The caller account is not authorized to perform an operation."
						}
					]
				},
				"events": {
					"Approval(address,address,uint256)": {
						"details": "Emitted when the allowance of a `spender` for an `owner` is set by a call to {approve}. `value` is the new allowance."
					},
					"Transfer(address,address,uint256)": {
						"details": "Emitted when `value` tokens are moved from one account (`from`) to another (`to`). Note that `value` may be zero."
					}
				},
				"kind": "dev",
				"methods": {
					"allowance(address,address)": {
						"details": "See {IERC20-allowance}."
					},
					"approve(address,uint256)": {
						"details": "See {IERC20-approve}. NOTE: If `value` is the maximum `uint256`, the allowance is not updated on `transferFrom`. This is semantically equivalent to an infinite approval. Requirements: - `spender` cannot be the zero address."
					},
					"balanceOf(address)": {
						"details": "See {IERC20-balanceOf}."
					},
					"burn(uint256)": {
						"details": "Destroys a `value` amount of tokens from the caller. See {ERC20-_burn}."
					},
					"burnFrom(address,uint256)": {
						"details": "Destroys a `value` amount of tokens from `account`, deducting from the caller's allowance. See {ERC20-_burn} and {ERC20-allowance}. Requirements: - the caller must have allowance for ``accounts``'s tokens of at least `value`."
					},
					"decimals()": {
						"details": "Returns the number of decimals used to get its user representation. For example, if `decimals` equals `2`, a balance of `505` tokens should be displayed to a user as `5.05` (`505 / 10 ** 2`). Tokens usually opt for a value of 18, imitating the relationship between Ether and Wei. This is the default value returned by this function, unless it's overridden. NOTE: This information is only used for _display_ purposes: it in no way affects any of the arithmetic of the contract, including {IERC20-balanceOf} and {IERC20-transfer}."
					},
					"name()": {
						"details": "Returns the name of the token."
					},
					"owner()": {
						"details": "Returns the address of the current owner."
					},
					"renounceOwnership()": {
						"details": "Leaves the contract without owner. It will not be possible to call `onlyOwner` functions. Can only be called by the current owner. NOTE: Renouncing ownership will leave the contract without an owner, thereby disabling any functionality that is only available to the owner."
					},
					"symbol()": {
						"details": "Returns the symbol of the token, usually a shorter version of the name."
					},
					"totalSupply()": {
						"details": "See {IERC20-totalSupply}."
					},
					"transfer(address,uint256)": {
						"details": "See {IERC20-transfer}. Requirements: - `to` cannot be the zero address. - the caller must have a balance of at least `value`."
					},
					"transferFrom(address,address,uint256)": {
						"details": "See {IERC20-transferFrom}. Emits an {Approval} event indicating the updated allowance. This is not required by the EIP. See the note at the beginning of {ERC20}. NOTE: Does not update the allowance if the current allowance is the maximum `uint256`. Requirements: - `from` and `to` cannot be the zero address. - `from` must have a balance of at least `value`. - the caller must have allowance for ``from``'s tokens of at least `value`."
					},
					"transferOwnership(address)": {
						"details": "Transfers ownership of the contract to a new account (`newOwner`). Can only be called by the current owner."
					}
				},
				"version": 1
			},
			"evm": {
				"assembly": "    /* \"contracts/DegenToken.sol\":785:4287  contract DegenToken is ERC20, Ownable, ERC20Burnable {... */\n  mstore(0x40, 0x80)\n    /* \"contracts/DegenToken.sol\":1236:1673  constructor (address initialOwner, uint tokenSupply) ERC20(\"Degen\", \"DGN\") Ownable(initialOwner) {... */\n  callvalue\n  dup1\n  iszero\n  tag_1\n  jumpi\n  0x00\n  dup1\n  revert\ntag_1:\n  pop\n  mload(0x40)\n  sub(codesize, bytecodeSize)\n  dup1\n  bytecodeSize\n  dup4\n  codecopy\n  dup2\n  dup2\n  add\n  0x40\n  mstore\n  dup2\n  add\n  swap1\n  tag_2\n  swap2\n  swap1\n  tag_3\n  jump\t// in\ntag_2:\n    /* \"contracts/DegenToken.sol\":1319:1331  initialOwner */\n  dup2\n    /* \"@openzeppelin/contracts/token/ERC20/ERC20.sol\":1896:2009  constructor(string memory name_, string memory symbol_) {... */\n  mload(0x40)\n  dup1\n  0x40\n  add\n  0x40\n  mstore\n  dup1\n  0x05\n  dup2\n  mstore\n  0x20\n  add\n  0x446567656e000000000000000000000000000000000000000000000000000000\n  dup2\n  mstore\n  pop\n  mload(0x40)\n  dup1\n  0x40\n  add\n  0x40\n  mstore\n  dup1\n  0x03\n  dup2\n  mstore\n  0x20\n  add\n  0x44474e0000000000000000000000000000000000000000000000000000000000\n  dup2\n  mstore\n  pop\n    /* \"@openzeppelin/contracts/token/ERC20/ERC20.sol\":1970:1975  name_ */\n  dup2\n    /* \"@openzeppelin/contracts/token/ERC20/ERC20.sol\":1962:1967  _name */\n  0x03\n    /* \"@openzeppelin/contracts/token/ERC20/ERC20.sol\":1962:1975  _name = name_ */\n  swap1\n  dup2\n  tag_8\n  swap2\n  swap1\n  tag_9\n  jump\t// in\ntag_8:\n  pop\n    /* \"@openzeppelin/contracts/token/ERC20/ERC20.sol\":1995:2002  symbol_ */\n  dup1\n    /* \"@openzeppelin/contracts/token/ERC20/ERC20.sol\":1985:1992  _symbol */\n  0x04\n    /* \"@openzeppelin/contracts/token/ERC20/ERC20.sol\":1985:2002  _symbol = symbol_ */\n  swap1\n  dup2\n  tag_10\n  swap2\n  swap1\n  tag_9\n  jump\t// in\ntag_10:\n  pop\n    /* \"@openzeppelin/contracts/token/ERC20/ERC20.sol\":1896:2009  constructor(string memory name_, string memory symbol_) {... */\n  pop\n  pop\n    /* \"@openzeppelin/contracts/access/Ownable.sol\":1297:1298  0 */\n  0x00\n    /* \"@openzeppelin/contracts/access/Ownable.sol\":1273:1299  initialOwner == address(0) */\n  0xffffffffffffffffffffffffffffffffffffffff\n  and\n    /* \"@openzeppelin/contracts/access/Ownable.sol\":1273:1285  initialOwner */\n  dup2\n    /* \"@openzeppelin/contracts/access/Ownable.sol\":1273:1299  initialOwner == address(0) */\n  0xffffffffffffffffffffffffffffffffffffffff\n  and\n  sub\n    /* \"@openzeppelin/contracts/access/Ownable.sol\":1269:1364  if (initialOwner == address(0)) {... */\n  tag_12\n  jumpi\n    /* \"@openzeppelin/contracts/access/Ownable.sol\":1350:1351  0 */\n  0x00\n    /* \"@openzeppelin/contracts/access/Ownable.sol\":1322:1353  OwnableInvalidOwner(address(0)) */\n  mload(0x40)\n  0x1e4fbdf700000000000000000000000000000000000000000000000000000000\n  dup2\n  mstore\n  0x04\n  add\n  tag_13\n  swap2\n  swap1\n  tag_14\n  jump\t// in\ntag_13:\n  mload(0x40)\n  dup1\n  swap2\n  sub\n  swap1\n  revert\n    /* \"@openzeppelin/contracts/access/Ownable.sol\":1269:1364  if (initialOwner == address(0)) {... */\ntag_12:\n    /* \"@openzeppelin/contracts/access/Ownable.sol\":1373:1405  _transferOwnership(initialOwner) */\n  tag_15\n    /* \"@openzeppelin/contracts/access/Ownable.sol\":1392:1404  initialOwner */\n  dup2\n    /* \"@openzeppelin/contracts/access/Ownable.sol\":1373:1391  _transferOwnership */\n  shl(0x20, tag_16)\n    /* \"@openzeppelin/contracts/access/Ownable.sol\":1373:1405  _transferOwnership(initialOwner) */\n  0x20\n  shr\n  jump\t// in\ntag_15:\n    /* \"@openzeppelin/contracts/access/Ownable.sol\":1225:1412  constructor(address initialOwner) {... */\n  pop\n    /* \"contracts/DegenToken.sol\":1344:1375  mint(initialOwner, tokenSupply) */\n  tag_18\n    /* \"contracts/DegenToken.sol\":1349:1361  initialOwner */\n  dup3\n    /* \"contracts/DegenToken.sol\":1363:1374  tokenSupply */\n  dup3\n    /* \"contracts/DegenToken.sol\":1344:1348  mint */\n  shl(0x20, tag_19)\n    /* \"contracts/DegenToken.sol\":1344:1375  mint(initialOwner, tokenSupply) */\n  0x20\n  shr\n  jump\t// in\ntag_18:\n    /* \"contracts/DegenToken.sol\":1407:1438  Item(\"Novice Navigator\",1, 100) */\n  mload(0x40)\n  dup1\n  0x60\n  add\n  0x40\n  mstore\n  dup1\n  mload(0x40)\n  dup1\n  0x40\n  add\n  0x40\n  mstore\n  dup1\n  0x10\n  dup2\n  mstore\n  0x20\n  add\n  0x4e6f76696365204e6176696761746f7200000000000000000000000000000000\n  dup2\n  mstore\n  pop\n  dup2\n  mstore\n  0x20\n  add\n    /* \"contracts/DegenToken.sol\":1431:1432  1 */\n  0x01\n    /* \"contracts/DegenToken.sol\":1407:1438  Item(\"Novice Navigator\",1, 100) */\n  0xff\n  and\n  dup2\n  mstore\n  0x20\n  add\n    /* \"contracts/DegenToken.sol\":1434:1437  100 */\n  0x64\n    /* \"contracts/DegenToken.sol\":1407:1438  Item(\"Novice Navigator\",1, 100) */\n  dup2\n  mstore\n  pop\n    /* \"contracts/DegenToken.sol\":1396:1401  items */\n  0x06\n    /* \"contracts/DegenToken.sol\":1396:1404  items[1] */\n  0x00\n    /* \"contracts/DegenToken.sol\":1402:1403  1 */\n  0x01\n    /* \"contracts/DegenToken.sol\":1396:1404  items[1] */\n  0xff\n  and\n  dup2\n  mstore\n  0x20\n  add\n  swap1\n  dup2\n  mstore\n  0x20\n  add\n  0x00\n  keccak256\n    /* \"contracts/DegenToken.sol\":1396:1438  items[1] = Item(\"Novice Navigator\",1, 100) */\n  0x00\n  dup3\n  add\n  mload\n  dup2\n  0x00\n  add\n  swap1\n  dup2\n  tag_20\n  swap2\n  swap1\n  tag_9\n  jump\t// in\ntag_20:\n  pop\n  0x20\n  dup3\n  add\n  mload\n  dup2\n  0x01\n  add\n  exp(0x0100, 0x00)\n  dup2\n  sload\n  dup2\n  0xff\n  mul\n  not\n  and\n  swap1\n  dup4\n  0xff\n  and\n  mul\n  or\n  swap1\n  sstore\n  pop\n  0x40\n  dup3\n  add\n  mload\n  dup2\n  0x02\n  add\n  sstore\n  swap1\n  pop\n  pop\n    /* \"contracts/DegenToken.sol\":1458:1489  Item(\"Mythic Maverick\", 2, 700) */\n  mload(0x40)\n  dup1\n  0x60\n  add\n  0x40\n  mstore\n  dup1\n  mload(0x40)\n  dup1\n  0x40\n  add\n  0x40\n  mstore\n  dup1\n  0x0f\n  dup2\n  mstore\n  0x20\n  add\n  0x4d7974686963204d6176657269636b0000000000000000000000000000000000\n  dup2\n  mstore\n  pop\n  dup2\n  mstore\n  0x20\n  add\n    /* \"contracts/DegenToken.sol\":1482:1483  2 */\n  0x02\n    /* \"contracts/DegenToken.sol\":1458:1489  Item(\"Mythic Maverick\", 2, 700) */\n  0xff\n  and\n  dup2\n  mstore\n  0x20\n  add\n    /* \"contracts/DegenToken.sol\":1485:1488  700 */\n  0x02bc\n    /* \"contracts/DegenToken.sol\":1458:1489  Item(\"Mythic Maverick\", 2, 700) */\n  dup2\n  mstore\n  pop\n    /* \"contracts/DegenToken.sol\":1449:1454  items */\n  0x06\n    /* \"contracts/DegenToken.sol\":1449:1457  items[2] */\n  0x00\n    /* \"contracts/DegenToken.sol\":1455:1456  2 */\n  0x02\n    /* \"contracts/DegenToken.sol\":1449:1457  items[2] */\n  0xff\n  and\n  dup2\n  mstore\n  0x20\n  add\n  swap1\n  dup2\n  mstore\n  0x20\n  add\n  0x00\n  keccak256\n    /* \"contracts/DegenToken.sol\":1449:1489  items[2]=Item(\"Mythic Maverick\", 2, 700) */\n  0x00\n  dup3\n  add\n  mload\n  dup2\n  0x00\n  add\n  swap1\n  dup2\n  tag_21\n  swap2\n  swap1\n  tag_9\n  jump\t// in\ntag_21:\n  pop\n  0x20\n  dup3\n  add\n  mload\n  dup2\n  0x01\n  add\n  exp(0x0100, 0x00)\n  dup2\n  sload\n  dup2\n  0xff\n  mul\n  not\n  and\n  swap1\n  dup4\n  0xff\n  and\n  mul\n  or\n  swap1\n  sstore\n  pop\n  0x40\n  dup3\n  add\n  mload\n  dup2\n  0x02\n  add\n  sstore\n  swap1\n  pop\n  pop\n    /* \"contracts/DegenToken.sol\":1509:1543  Item(\"Celestial Crusher\", 3, 1200) */\n  mload(0x40)\n  dup1\n  0x60\n  add\n  0x40\n  mstore\n  dup1\n  mload(0x40)\n  dup1\n  0x40\n  add\n  0x40\n  mstore\n  dup1\n  0x11\n  dup2\n  mstore\n  0x20\n  add\n  0x43656c65737469616c2043727573686572000000000000000000000000000000\n  dup2\n  mstore\n  pop\n  dup2\n  mstore\n  0x20\n  add\n    /* \"contracts/DegenToken.sol\":1535:1536  3 */\n  0x03\n    /* \"contracts/DegenToken.sol\":1509:1543  Item(\"Celestial Crusher\", 3, 1200) */\n  0xff\n  and\n  dup2\n  mstore\n  0x20\n  add\n    /* \"contracts/DegenToken.sol\":1538:1542  1200 */\n  0x04b0\n    /* \"contracts/DegenToken.sol\":1509:1543  Item(\"Celestial Crusher\", 3, 1200) */\n  dup2\n  mstore\n  pop\n    /* \"contracts/DegenToken.sol\":1500:1505  items */\n  0x06\n    /* \"contracts/DegenToken.sol\":1500:1508  items[3] */\n  0x00\n    /* \"contracts/DegenToken.sol\":1506:1507  3 */\n  0x03\n    /* \"contracts/DegenToken.sol\":1500:1508  items[3] */\n  0xff\n  and\n  dup2\n  mstore\n  0x20\n  add\n  swap1\n  dup2\n  mstore\n  0x20\n  add\n  0x00\n  keccak256\n    /* \"contracts/DegenToken.sol\":1500:1543  items[3]=Item(\"Celestial Crusher\", 3, 1200) */\n  0x00\n  dup3\n  add\n  mload\n  dup2\n  0x00\n  add\n  swap1\n  dup2\n  tag_22\n  swap2\n  swap1\n  tag_9\n  jump\t// in\ntag_22:\n  pop\n  0x20\n  dup3\n  add\n  mload\n  dup2\n  0x01\n  add\n  exp(0x0100, 0x00)\n  dup2\n  sload\n  dup2\n  0xff\n  mul\n  not\n  and\n  swap1\n  dup4\n  0xff\n  and\n  mul\n  or\n  swap1\n  sstore\n  pop\n  0x40\n  dup3\n  add\n  mload\n  dup2\n  0x02\n  add\n  sstore\n  swap1\n  pop\n  pop\n    /* \"contracts/DegenToken.sol\":1563:1590  Item(\"Astral Ace\", 4, 2200) */\n  mload(0x40)\n  dup1\n  0x60\n  add\n  0x40\n  mstore\n  dup1\n  mload(0x40)\n  dup1\n  0x40\n  add\n  0x40\n  mstore\n  dup1\n  0x0a\n  dup2\n  mstore\n  0x20\n  add\n  0x41737472616c2041636500000000000000000000000000000000000000000000\n  dup2\n  mstore\n  pop\n  dup2\n  mstore\n  0x20\n  add\n    /* \"contracts/DegenToken.sol\":1582:1583  4 */\n  0x04\n    /* \"contracts/DegenToken.sol\":1563:1590  Item(\"Astral Ace\", 4, 2200) */\n  0xff\n  and\n  dup2\n  mstore\n  0x20\n  add\n    /* \"contracts/DegenToken.sol\":1585:1589  2200 */\n  0x0898\n    /* \"contracts/DegenToken.sol\":1563:1590  Item(\"Astral Ace\", 4, 2200) */\n  dup2\n  mstore\n  pop\n    /* \"contracts/DegenToken.sol\":1554:1559  items */\n  0x06\n    /* \"contracts/DegenToken.sol\":1554:1562  items[4] */\n  0x00\n    /* \"contracts/DegenToken.sol\":1560:1561  4 */\n  0x04\n    /* \"contracts/DegenToken.sol\":1554:1562  items[4] */\n  0xff\n  and\n  dup2\n  mstore\n  0x20\n  add\n  swap1\n  dup2\n  mstore\n  0x20\n  add\n  0x00\n  keccak256\n    /* \"contracts/DegenToken.sol\":1554:1590  items[4]=Item(\"Astral Ace\", 4, 2200) */\n  0x00\n  dup3\n  add\n  mload\n  dup2\n  0x00\n  add\n  swap1\n  dup2\n  tag_23\n  swap2\n  swap1\n  tag_9\n  jump\t// in\ntag_23:\n  pop\n  0x20\n  dup3\n  add\n  mload\n  dup2\n  0x01\n  add\n  exp(0x0100, 0x00)\n  dup2\n  sload\n  dup2\n  0xff\n  mul\n  not\n  and\n  swap1\n  dup4\n  0xff\n  and\n  mul\n  or\n  swap1\n  sstore\n  pop\n  0x40\n  dup3\n  add\n  mload\n  dup2\n  0x02\n  add\n  sstore\n  swap1\n  pop\n  pop\n    /* \"contracts/DegenToken.sol\":1610:1643  Item(\"Divine Dominator\", 5, 2400) */\n  mload(0x40)\n  dup1\n  0x60\n  add\n  0x40\n  mstore\n  dup1\n  mload(0x40)\n  dup1\n  0x40\n  add\n  0x40\n  mstore\n  dup1\n  0x10\n  dup2\n  mstore\n  0x20\n  add\n  0x446976696e6520446f6d696e61746f7200000000000000000000000000000000\n  dup2\n  mstore\n  pop\n  dup2\n  mstore\n  0x20\n  add\n    /* \"contracts/DegenToken.sol\":1635:1636  5 */\n  0x05\n    /* \"contracts/DegenToken.sol\":1610:1643  Item(\"Divine Dominator\", 5, 2400) */\n  0xff\n  and\n  dup2\n  mstore\n  0x20\n  add\n    /* \"contracts/DegenToken.sol\":1638:1642  2400 */\n  0x0960\n    /* \"contracts/DegenToken.sol\":1610:1643  Item(\"Divine Dominator\", 5, 2400) */\n  dup2\n  mstore\n  pop\n    /* \"contracts/DegenToken.sol\":1601:1606  items */\n  0x06\n    /* \"contracts/DegenToken.sol\":1601:1609  items[5] */\n  0x00\n    /* \"contracts/DegenToken.sol\":1607:1608  5 */\n  0x05\n    /* \"contracts/DegenToken.sol\":1601:1609  items[5] */\n  0xff\n  and\n  dup2\n  mstore\n  0x20\n  add\n  swap1\n  dup2\n  mstore\n  0x20\n  add\n  0x00\n  keccak256\n    /* \"contracts/DegenToken.sol\":1601:1643  items[5]=Item(\"Divine Dominator\", 5, 2400) */\n  0x00\n  dup3\n  add\n  mload\n  dup2\n  0x00\n  add\n  swap1\n  dup2\n  tag_24\n  swap2\n  swap1\n  tag_9\n  jump\t// in\ntag_24:\n  pop\n  0x20\n  dup3\n  add\n  mload\n  dup2\n  0x01\n  add\n  exp(0x0100, 0x00)\n  dup2\n  sload\n  dup2\n  0xff\n  mul\n  not\n  and\n  swap1\n  dup4\n  0xff\n  and\n  mul\n  or\n  swap1\n  sstore\n  pop\n  0x40\n  dup3\n  add\n  mload\n  dup2\n  0x02\n  add\n  sstore\n  swap1\n  pop\n  pop\n    /* \"contracts/DegenToken.sol\":1662:1663  6 */\n  0x06\n    /* \"contracts/DegenToken.sol\":1654:1661  tokenId */\n  0x08\n  0x00\n    /* \"contracts/DegenToken.sol\":1654:1663  tokenId=6 */\n  0x0100\n  exp\n  dup2\n  sload\n  dup2\n  0xff\n  mul\n  not\n  and\n  swap1\n  dup4\n  0xff\n  and\n  mul\n  or\n  swap1\n  sstore\n  pop\n    /* \"contracts/DegenToken.sol\":1236:1673  constructor (address initialOwner, uint tokenSupply) ERC20(\"Degen\", \"DGN\") Ownable(initialOwner) {... */\n  pop\n  pop\n    /* \"contracts/DegenToken.sol\":785:4287  contract DegenToken is ERC20, Ownable, ERC20Burnable {... */\n  jump(tag_25)\n    /* \"@openzeppelin/contracts/access/Ownable.sol\":2912:3099  function _transferOwnership(address newOwner) internal virtual {... */\ntag_16:\n    /* \"@openzeppelin/contracts/access/Ownable.sol\":2985:3001  address oldOwner */\n  0x00\n    /* \"@openzeppelin/contracts/access/Ownable.sol\":3004:3010  _owner */\n  0x05\n  0x00\n  swap1\n  sload\n  swap1\n  0x0100\n  exp\n  swap1\n  div\n  0xffffffffffffffffffffffffffffffffffffffff\n  and\n    /* \"@openzeppelin/contracts/access/Ownable.sol\":2985:3010  address oldOwner = _owner */\n  swap1\n  pop\n    /* \"@openzeppelin/contracts/access/Ownable.sol\":3029:3037  newOwner */\n  dup2\n    /* \"@openzeppelin/contracts/access/Ownable.sol\":3020:3026  _owner */\n  0x05\n  0x00\n    /* \"@openzeppelin/contracts/access/Ownable.sol\":3020:3037  _owner = newOwner */\n  0x0100\n  exp\n  dup2\n  sload\n  dup2\n  0xffffffffffffffffffffffffffffffffffffffff\n  mul\n  not\n  and\n  swap1\n  dup4\n  0xffffffffffffffffffffffffffffffffffffffff\n  and\n  mul\n  or\n  swap1\n  sstore\n  pop\n    /* \"@openzeppelin/contracts/access/Ownable.sol\":3083:3091  newOwner */\n  dup2\n    /* \"@openzeppelin/contracts/access/Ownable.sol\":3052:3092  OwnershipTransferred(oldOwner, newOwner) */\n  0xffffffffffffffffffffffffffffffffffffffff\n  and\n    /* \"@openzeppelin/contracts/access/Ownable.sol\":3073:3081  oldOwner */\n  dup2\n    /* \"@openzeppelin/contracts/access/Ownable.sol\":3052:3092  OwnershipTransferred(oldOwner, newOwner) */\n  0xffffffffffffffffffffffffffffffffffffffff\n  and\n  0x8be0079c531659141344cd1fd0a4f28419497f9722a3daafe3b4186f6b6457e0\n  mload(0x40)\n  mload(0x40)\n  dup1\n  swap2\n  sub\n  swap1\n  log3\n    /* \"@openzeppelin/contracts/access/Ownable.sol\":2975:3099  {... */\n  pop\n    /* \"@openzeppelin/contracts/access/Ownable.sol\":2912:3099  function _transferOwnership(address newOwner) internal virtual {... */\n  pop\n  jump\t// out\n    /* \"contracts/DegenToken.sol\":1797:1892  function mint(address to, uint256 amount) public onlyOwner {... */\ntag_19:\n    /* \"@openzeppelin/contracts/access/Ownable.sol\":1531:1544  _checkOwner() */\n  tag_28\n    /* \"@openzeppelin/contracts/access/Ownable.sol\":1531:1542  _checkOwner */\n  shl(0x20, tag_29)\n    /* \"@openzeppelin/contracts/access/Ownable.sol\":1531:1544  _checkOwner() */\n  0x20\n  shr\n  jump\t// in\ntag_28:\n    /* \"contracts/DegenToken.sol\":1867:1884  _mint(to, amount) */\n  tag_31\n    /* \"contracts/DegenToken.sol\":1873:1875  to */\n  dup3\n    /* \"contracts/DegenToken.sol\":1877:1883  amount */\n  dup3\n    /* \"contracts/DegenToken.sol\":1867:1872  _mint */\n  shl(0x20, tag_32)\n    /* \"contracts/DegenToken.sol\":1867:1884  _mint(to, amount) */\n  0x20\n  shr\n  jump\t// in\ntag_31:\n    /* \"contracts/DegenToken.sol\":1797:1892  function mint(address to, uint256 amount) public onlyOwner {... */\n  pop\n  pop\n  jump\t// out\n    /* \"@openzeppelin/contracts/access/Ownable.sol\":1796:1958  function _checkOwner() internal view virtual {... */\ntag_29:\n    /* \"@openzeppelin/contracts/access/Ownable.sol\":1866:1878  _msgSender() */\n  tag_34\n    /* \"@openzeppelin/contracts/access/Ownable.sol\":1866:1876  _msgSender */\n  shl(0x20, tag_35)\n    /* \"@openzeppelin/contracts/access/Ownable.sol\":1866:1878  _msgSender() */\n  0x20\n  shr\n  jump\t// in\ntag_34:\n    /* \"@openzeppelin/contracts/access/Ownable.sol\":1855:1878  owner() != _msgSender() */\n  0xffffffffffffffffffffffffffffffffffffffff\n  and\n    /* \"@openzeppelin/contracts/access/Ownable.sol\":1855:1862  owner() */\n  tag_36\n    /* \"@openzeppelin/contracts/access/Ownable.sol\":1855:1860  owner */\n  shl(0x20, tag_37)\n    /* \"@openzeppelin/contracts/access/Ownable.sol\":1855:1862  owner() */\n  0x20\n  shr\n  jump\t// in\ntag_36:\n    /* \"@openzeppelin/contracts/access/Ownable.sol\":1855:1878  owner() != _msgSender() */\n  0xffffffffffffffffffffffffffffffffffffffff\n  and\n  eq\n    /* \"@openzeppelin/contracts/access/Ownable.sol\":1851:1952  if (owner() != _msgSender()) {... */\n  tag_38\n  jumpi\n    /* \"@openzeppelin/contracts/access/Ownable.sol\":1928:1940  _msgSender() */\n  tag_39\n    /* \"@openzeppelin/contracts/access/Ownable.sol\":1928:1938  _msgSender */\n  shl(0x20, tag_35)\n    /* \"@openzeppelin/contracts/access/Ownable.sol\":1928:1940  _msgSender() */\n  0x20\n  shr\n  jump\t// in\ntag_39:\n    /* \"@openzeppelin/contracts/access/Ownable.sol\":1901:1941  OwnableUnauthorizedAccount(_msgSender()) */\n  mload(0x40)\n  0x118cdaa700000000000000000000000000000000000000000000000000000000\n  dup2\n  mstore\n  0x04\n  add\n  tag_40\n  swap2\n  swap1\n  tag_14\n  jump\t// in\ntag_40:\n  mload(0x40)\n  dup1\n  swap2\n  sub\n  swap1\n  revert\n    /* \"@openzeppelin/contracts/access/Ownable.sol\":1851:1952  if (owner() != _msgSender()) {... */\ntag_38:\n    /* \"@openzeppelin/contracts/access/Ownable.sol\":1796:1958  function _checkOwner() internal view virtual {... */\n  jump\t// out\n    /* \"@openzeppelin/contracts/token/ERC20/ERC20.sol\":7721:7929  function _mint(address account, uint256 value) internal {... */\ntag_32:\n    /* \"@openzeppelin/contracts/token/ERC20/ERC20.sol\":7810:7811  0 */\n  0x00\n    /* \"@openzeppelin/contracts/token/ERC20/ERC20.sol\":7791:7812  account == address(0) */\n  0xffffffffffffffffffffffffffffffffffffffff\n  and\n    /* \"@openzeppelin/contracts/token/ERC20/ERC20.sol\":7791:7798  account */\n  dup3\n    /* \"@openzeppelin/contracts/token/ERC20/ERC20.sol\":7791:7812  account == address(0) */\n  0xffffffffffffffffffffffffffffffffffffffff\n  and\n  sub\n    /* \"@openzeppelin/contracts/token/ERC20/ERC20.sol\":7787:7878  if (account == address(0)) {... */\n  tag_42\n  jumpi\n    /* \"@openzeppelin/contracts/token/ERC20/ERC20.sol\":7864:7865  0 */\n  0x00\n    /* \"@openzeppelin/contracts/token/ERC20/ERC20.sol\":7835:7867  ERC20InvalidReceiver(address(0)) */\n  mload(0x40)\n  0xec442f0500000000000000000000000000000000000000000000000000000000\n  dup2\n  mstore\n  0x04\n  add\n  tag_43\n  swap2\n  swap1\n  tag_14\n  jump\t// in\ntag_43:\n  mload(0x40)\n  dup1\n  swap2\n  sub\n  swap1\n  revert\n    /* \"@openzeppelin/contracts/token/ERC20/ERC20.sol\":7787:7878  if (account == address(0)) {... */\ntag_42:\n    /* \"@openzeppelin/contracts/token/ERC20/ERC20.sol\":7887:7922  _update(address(0), account, value) */\n  tag_44\n    /* \"@openzeppelin/contracts/token/ERC20/ERC20.sol\":7903:7904  0 */\n  0x00\n    /* \"@openzeppelin/contracts/token/ERC20/ERC20.sol\":7907:7914  account */\n  dup4\n    /* \"@openzeppelin/contracts/token/ERC20/ERC20.sol\":7916:7921  value */\n  dup4\n    /* \"@openzeppelin/contracts/token/ERC20/ERC20.sol\":7887:7894  _update */\n  shl(0x20, tag_45)\n    /* \"@openzeppelin/contracts/token/ERC20/ERC20.sol\":7887:7922  _update(address(0), account, value) */\n  0x20\n  shr\n  jump\t// in\ntag_44:\n    /* \"@openzeppelin/contracts/token/ERC20/ERC20.sol\":7721:7929  function _mint(address account, uint256 value) internal {... */\n  pop\n  pop\n  jump\t// out\n    /* \"@openzeppelin/contracts/utils/Context.sol\":656:752  function _msgSender() internal view virtual returns (address) {... */\ntag_35:\n    /* \"@openzeppelin/contracts/utils/Context.sol\":709:716  address */\n  0x00\n    /* \"@openzeppelin/contracts/utils/Context.sol\":735:745  msg.sender */\n  caller\n    /* \"@openzeppelin/contracts/utils/Context.sol\":728:745  return msg.sender */\n  swap1\n  pop\n    /* \"@openzeppelin/contracts/utils/Context.sol\":656:752  function _msgSender() internal view virtual returns (address) {... */\n  swap1\n  jump\t// out\n    /* \"@openzeppelin/contracts/access/Ownable.sol\":1638:1723  function owner() public view virtual returns (address) {... */\ntag_37:\n    /* \"@openzeppelin/contracts/access/Ownable.sol\":1684:1691  address */\n  0x00\n    /* \"@openzeppelin/contracts/access/Ownable.sol\":1710:1716  _owner */\n  0x05\n  0x00\n  swap1\n  sload\n  swap1\n  0x0100\n  exp\n  swap1\n  div\n  0xffffffffffffffffffffffffffffffffffffffff\n  and\n    /* \"@openzeppelin/contracts/access/Ownable.sol\":1703:1716  return _owner */\n  swap1\n  pop\n    /* \"@openzeppelin/contracts/access/Ownable.sol\":1638:1723  function owner() public view virtual returns (address) {... */\n  swap1\n  jump\t// out\n    /* \"@openzeppelin/contracts/token/ERC20/ERC20.sol\":6271:7378  function _update(address from, address to, uint256 value) internal virtual {... */\ntag_45:\n    /* \"@openzeppelin/contracts/token/ERC20/ERC20.sol\":6376:6377  0 */\n  0x00\n    /* \"@openzeppelin/contracts/token/ERC20/ERC20.sol\":6360:6378  from == address(0) */\n  0xffffffffffffffffffffffffffffffffffffffff\n  and\n    /* \"@openzeppelin/contracts/token/ERC20/ERC20.sol\":6360:6364  from */\n  dup4\n    /* \"@openzeppelin/contracts/token/ERC20/ERC20.sol\":6360:6378  from == address(0) */\n  0xffffffffffffffffffffffffffffffffffffffff\n  and\n  sub\n    /* \"@openzeppelin/contracts/token/ERC20/ERC20.sol\":6356:6896  if (from == address(0)) {... */\n  tag_49\n  jumpi\n    /* \"@openzeppelin/contracts/token/ERC20/ERC20.sol\":6512:6517  value */\n  dup1\n    /* \"@openzeppelin/contracts/token/ERC20/ERC20.sol\":6496:6508  _totalSupply */\n  0x02\n  0x00\n    /* \"@openzeppelin/contracts/token/ERC20/ERC20.sol\":6496:6517  _totalSupply += value */\n  dup3\n  dup3\n  sload\n  tag_50\n  swap2\n  swap1\n  tag_51\n  jump\t// in\ntag_50:\n  swap3\n  pop\n  pop\n  dup2\n  swap1\n  sstore\n  pop\n    /* \"@openzeppelin/contracts/token/ERC20/ERC20.sol\":6356:6896  if (from == address(0)) {... */\n  jump(tag_52)\ntag_49:\n    /* \"@openzeppelin/contracts/token/ERC20/ERC20.sol\":6548:6567  uint256 fromBalance */\n  0x00\n    /* \"@openzeppelin/contracts/token/ERC20/ERC20.sol\":6570:6579  _balances */\n  dup1\n    /* \"@openzeppelin/contracts/token/ERC20/ERC20.sol\":6570:6585  _balances[from] */\n  0x00\n    /* \"@openzeppelin/contracts/token/ERC20/ERC20.sol\":6580:6584  from */\n  dup6\n    /* \"@openzeppelin/contracts/token/ERC20/ERC20.sol\":6570:6585  _balances[from] */\n  0xffffffffffffffffffffffffffffffffffffffff\n  and\n  0xffffffffffffffffffffffffffffffffffffffff\n  and\n  dup2\n  mstore\n  0x20\n  add\n  swap1\n  dup2\n  mstore\n  0x20\n  add\n  0x00\n  keccak256\n  sload\n    /* \"@openzeppelin/contracts/token/ERC20/ERC20.sol\":6548:6585  uint256 fromBalance = _balances[from] */\n  swap1\n  pop\n    /* \"@openzeppelin/contracts/token/ERC20/ERC20.sol\":6617:6622  value */\n  dup2\n    /* \"@openzeppelin/contracts/token/ERC20/ERC20.sol\":6603:6614  fromBalance */\n  dup2\n    /* \"@openzeppelin/contracts/token/ERC20/ERC20.sol\":6603:6622  fromBalance < value */\n  lt\n    /* \"@openzeppelin/contracts/token/ERC20/ERC20.sol\":6599:6714  if (fromBalance < value) {... */\n  iszero\n  tag_53\n  jumpi\n    /* \"@openzeppelin/contracts/token/ERC20/ERC20.sol\":6674:6678  from */\n  dup4\n    /* \"@openzeppelin/contracts/token/ERC20/ERC20.sol\":6680:6691  fromBalance */\n  dup2\n    /* \"@openzeppelin/contracts/token/ERC20/ERC20.sol\":6693:6698  value */\n  dup4\n    /* \"@openzeppelin/contracts/token/ERC20/ERC20.sol\":6649:6699  ERC20InsufficientBalance(from, fromBalance, value) */\n  mload(0x40)\n  0xe450d38c00000000000000000000000000000000000000000000000000000000\n  dup2\n  mstore\n  0x04\n  add\n  tag_54\n  swap4\n  swap3\n  swap2\n  swap1\n  tag_55\n  jump\t// in\ntag_54:\n  mload(0x40)\n  dup1\n  swap2\n  sub\n  swap1\n  revert\n    /* \"@openzeppelin/contracts/token/ERC20/ERC20.sol\":6599:6714  if (fromBalance < value) {... */\ntag_53:\n    /* \"@openzeppelin/contracts/token/ERC20/ERC20.sol\":6866:6871  value */\n  dup2\n    /* \"@openzeppelin/contracts/token/ERC20/ERC20.sol\":6852:6863  fromBalance */\n  dup2\n    /* \"@openzeppelin/contracts/token/ERC20/ERC20.sol\":6852:6871  fromBalance - value */\n  sub\n    /* \"@openzeppelin/contracts/token/ERC20/ERC20.sol\":6834:6843  _balances */\n  0x00\n    /* \"@openzeppelin/contracts/token/ERC20/ERC20.sol\":6834:6849  _balances[from] */\n  dup1\n    /* \"@openzeppelin/contracts/token/ERC20/ERC20.sol\":6844:6848  from */\n  dup7\n    /* \"@openzeppelin/contracts/token/ERC20/ERC20.sol\":6834:6849  _balances[from] */\n  0xffffffffffffffffffffffffffffffffffffffff\n  and\n  0xffffffffffffffffffffffffffffffffffffffff\n  and\n  dup2\n  mstore\n  0x20\n  add\n  swap1\n  dup2\n  mstore\n  0x20\n  add\n  0x00\n  keccak256\n    /* \"@openzeppelin/contracts/token/ERC20/ERC20.sol\":6834:6871  _balances[from] = fromBalance - value */\n  dup2\n  swap1\n  sstore\n  pop\n    /* \"@openzeppelin/contracts/token/ERC20/ERC20.sol\":6534:6896  {... */\n  pop\n    /* \"@openzeppelin/contracts/token/ERC20/ERC20.sol\":6356:6896  if (from == address(0)) {... */\ntag_52:\n    /* \"@openzeppelin/contracts/token/ERC20/ERC20.sol\":6924:6925  0 */\n  0x00\n    /* \"@openzeppelin/contracts/token/ERC20/ERC20.sol\":6910:6926  to == address(0) */\n  0xffffffffffffffffffffffffffffffffffffffff\n  and\n    /* \"@openzeppelin/contracts/token/ERC20/ERC20.sol\":6910:6912  to */\n  dup3\n    /* \"@openzeppelin/contracts/token/ERC20/ERC20.sol\":6910:6926  to == address(0) */\n  0xffffffffffffffffffffffffffffffffffffffff\n  and\n  sub\n    /* \"@openzeppelin/contracts/token/ERC20/ERC20.sol\":6906:7331  if (to == address(0)) {... */\n  tag_56\n  jumpi\n    /* \"@openzeppelin/contracts/token/ERC20/ERC20.sol\":7089:7094  value */\n  dup1\n    /* \"@openzeppelin/contracts/token/ERC20/ERC20.sol\":7073:7085  _totalSupply */\n  0x02\n  0x00\n    /* \"@openzeppelin/contracts/token/ERC20/ERC20.sol\":7073:7094  _totalSupply -= value */\n  dup3\n  dup3\n  sload\n  sub\n  swap3\n  pop\n  pop\n  dup2\n  swap1\n  sstore\n  pop\n    /* \"@openzeppelin/contracts/token/ERC20/ERC20.sol\":6906:7331  if (to == address(0)) {... */\n  jump(tag_57)\ntag_56:\n    /* \"@openzeppelin/contracts/token/ERC20/ERC20.sol\":7301:7306  value */\n  dup1\n    /* \"@openzeppelin/contracts/token/ERC20/ERC20.sol\":7284:7293  _balances */\n  0x00\n    /* \"@openzeppelin/contracts/token/ERC20/ERC20.sol\":7284:7297  _balances[to] */\n  dup1\n    /* \"@openzeppelin/contracts/token/ERC20/ERC20.sol\":7294:7296  to */\n  dup5\n    /* \"@openzeppelin/contracts/token/ERC20/ERC20.sol\":7284:7297  _balances[to] */\n  0xffffffffffffffffffffffffffffffffffffffff\n  and\n  0xffffffffffffffffffffffffffffffffffffffff\n  and\n  dup2\n  mstore\n  0x20\n  add\n  swap1\n  dup2\n  mstore\n  0x20\n  add\n  0x00\n  keccak256\n  0x00\n    /* \"@openzeppelin/contracts/token/ERC20/ERC20.sol\":7284:7306  _balances[to] += value */\n  dup3\n  dup3\n  sload\n  add\n  swap3\n  pop\n  pop\n  dup2\n  swap1\n  sstore\n  pop\n    /* \"@openzeppelin/contracts/token/ERC20/ERC20.sol\":6906:7331  if (to == address(0)) {... */\ntag_57:\n    /* \"@openzeppelin/contracts/token/ERC20/ERC20.sol\":7361:7363  to */\n  dup2\n    /* \"@openzeppelin/contracts/token/ERC20/ERC20.sol\":7346:7371  Transfer(from, to, value) */\n  0xffffffffffffffffffffffffffffffffffffffff\n  and\n    /* \"@openzeppelin/contracts/token/ERC20/ERC20.sol\":7355:7359  from */\n  dup4\n    /* \"@openzeppelin/contracts/token/ERC20/ERC20.sol\":7346:7371  Transfer(from, to, value) */\n  0xffffffffffffffffffffffffffffffffffffffff\n  and\n  0xddf252ad1be2c89b69c2b068fc378daa952ba7f163c4a11628f55a4df523b3ef\n    /* \"@openzeppelin/contracts/token/ERC20/ERC20.sol\":7365:7370  value */\n  dup4\n    /* \"@openzeppelin/contracts/token/ERC20/ERC20.sol\":7346:7371  Transfer(from, to, value) */\n  mload(0x40)\n  tag_58\n  swap2\n  swap1\n  tag_59\n  jump\t// in\ntag_58:\n  mload(0x40)\n  dup1\n  swap2\n  sub\n  swap1\n  log3\n    /* \"@openzeppelin/contracts/token/ERC20/ERC20.sol\":6271:7378  function _update(address from, address to, uint256 value) internal virtual {... */\n  pop\n  pop\n  pop\n  jump\t// out\n    /* \"#utility.yul\":88:205   */\ntag_61:\n    /* \"#utility.yul\":197:198   */\n  0x00\n    /* \"#utility.yul\":194:195   */\n  dup1\n    /* \"#utility.yul\":187:199   */\n  revert\n    /* \"#utility.yul\":334:460   */\ntag_63:\n    /* \"#utility.yul\":371:378   */\n  0x00\n    /* \"#utility.yul\":411:453   */\n  0xffffffffffffffffffffffffffffffffffffffff\n    /* \"#utility.yul\":404:409   */\n  dup3\n    /* \"#utility.yul\":400:454   */\n  and\n    /* \"#utility.yul\":389:454   */\n  swap1\n  pop\n    /* \"#utility.yul\":334:460   */\n  swap2\n  swap1\n  pop\n  jump\t// out\n    /* \"#utility.yul\":466:562   */\ntag_64:\n    /* \"#utility.yul\":503:510   */\n  0x00\n    /* \"#utility.yul\":532:556   */\n  tag_98\n    /* \"#utility.yul\":550:555   */\n  dup3\n    /* \"#utility.yul\":532:556   */\n  tag_63\n  jump\t// in\ntag_98:\n    /* \"#utility.yul\":521:556   */\n  swap1\n  pop\n    /* \"#utility.yul\":466:562   */\n  swap2\n  swap1\n  pop\n  jump\t// out\n    /* \"#utility.yul\":568:690   */\ntag_65:\n    /* \"#utility.yul\":641:665   */\n  tag_100\n    /* \"#utility.yul\":659:664   */\n  dup2\n    /* \"#utility.yul\":641:665   */\n  tag_64\n  jump\t// in\ntag_100:\n    /* \"#utility.yul\":634:639   */\n  dup2\n    /* \"#utility.yul\":631:666   */\n  eq\n    /* \"#utility.yul\":621:684   */\n  tag_101\n  jumpi\n    /* \"#utility.yul\":680:681   */\n  0x00\n    /* \"#utility.yul\":677:678   */\n  dup1\n    /* \"#utility.yul\":670:682   */\n  revert\n    /* \"#utility.yul\":621:684   */\ntag_101:\n    /* \"#utility.yul\":568:690   */\n  pop\n  jump\t// out\n    /* \"#utility.yul\":696:839   */\ntag_66:\n    /* \"#utility.yul\":753:758   */\n  0x00\n    /* \"#utility.yul\":784:790   */\n  dup2\n    /* \"#utility.yul\":778:791   */\n  mload\n    /* \"#utility.yul\":769:791   */\n  swap1\n  pop\n    /* \"#utility.yul\":800:833   */\n  tag_103\n    /* \"#utility.yul\":827:832   */\n  dup2\n    /* \"#utility.yul\":800:833   */\n  tag_65\n  jump\t// in\ntag_103:\n    /* \"#utility.yul\":696:839   */\n  swap3\n  swap2\n  pop\n  pop\n  jump\t// out\n    /* \"#utility.yul\":845:922   */\ntag_67:\n    /* \"#utility.yul\":882:889   */\n  0x00\n    /* \"#utility.yul\":911:916   */\n  dup2\n    /* \"#utility.yul\":900:916   */\n  swap1\n  pop\n    /* \"#utility.yul\":845:922   */\n  swap2\n  swap1\n  pop\n  jump\t// out\n    /* \"#utility.yul\":928:1050   */\ntag_68:\n    /* \"#utility.yul\":1001:1025   */\n  tag_106\n    /* \"#utility.yul\":1019:1024   */\n  dup2\n    /* \"#utility.yul\":1001:1025   */\n  tag_67\n  jump\t// in\ntag_106:\n    /* \"#utility.yul\":994:999   */\n  dup2\n    /* \"#utility.yul\":991:1026   */\n  eq\n    /* \"#utility.yul\":981:1044   */\n  tag_107\n  jumpi\n    /* \"#utility.yul\":1040:1041   */\n  0x00\n    /* \"#utility.yul\":1037:1038   */\n  dup1\n    /* \"#utility.yul\":1030:1042   */\n  revert\n    /* \"#utility.yul\":981:1044   */\ntag_107:\n    /* \"#utility.yul\":928:1050   */\n  pop\n  jump\t// out\n    /* \"#utility.yul\":1056:1199   */\ntag_69:\n    /* \"#utility.yul\":1113:1118   */\n  0x00\n    /* \"#utility.yul\":1144:1150   */\n  dup2\n    /* \"#utility.yul\":1138:1151   */\n  mload\n    /* \"#utility.yul\":1129:1151   */\n  swap1\n  pop\n    /* \"#utility.yul\":1160:1193   */\n  tag_109\n    /* \"#utility.yul\":1187:1192   */\n  dup2\n    /* \"#utility.yul\":1160:1193   */\n  tag_68\n  jump\t// in\ntag_109:\n    /* \"#utility.yul\":1056:1199   */\n  swap3\n  swap2\n  pop\n  pop\n  jump\t// out\n    /* \"#utility.yul\":1205:1712   */\ntag_3:\n    /* \"#utility.yul\":1284:1290   */\n  0x00\n    /* \"#utility.yul\":1292:1298   */\n  dup1\n    /* \"#utility.yul\":1341:1343   */\n  0x40\n    /* \"#utility.yul\":1329:1338   */\n  dup4\n    /* \"#utility.yul\":1320:1327   */\n  dup6\n    /* \"#utility.yul\":1316:1339   */\n  sub\n    /* \"#utility.yul\":1312:1344   */\n  slt\n    /* \"#utility.yul\":1309:1428   */\n  iszero\n  tag_111\n  jumpi\n    /* \"#utility.yul\":1347:1426   */\n  tag_112\n  tag_61\n  jump\t// in\ntag_112:\n    /* \"#utility.yul\":1309:1428   */\ntag_111:\n    /* \"#utility.yul\":1467:1468   */\n  0x00\n    /* \"#utility.yul\":1492:1556   */\n  tag_113\n    /* \"#utility.yul\":1548:1555   */\n  dup6\n    /* \"#utility.yul\":1539:1545   */\n  dup3\n    /* \"#utility.yul\":1528:1537   */\n  dup7\n    /* \"#utility.yul\":1524:1546   */\n  add\n    /* \"#utility.yul\":1492:1556   */\n  tag_66\n  jump\t// in\ntag_113:\n    /* \"#utility.yul\":1482:1556   */\n  swap3\n  pop\n    /* \"#utility.yul\":1438:1566   */\n  pop\n    /* \"#utility.yul\":1605:1607   */\n  0x20\n    /* \"#utility.yul\":1631:1695   */\n  tag_114\n    /* \"#utility.yul\":1687:1694   */\n  dup6\n    /* \"#utility.yul\":1678:1684   */\n  dup3\n    /* \"#utility.yul\":1667:1676   */\n  dup7\n    /* \"#utility.yul\":1663:1685   */\n  add\n    /* \"#utility.yul\":1631:1695   */\n  tag_69\n  jump\t// in\ntag_114:\n    /* \"#utility.yul\":1621:1695   */\n  swap2\n  pop\n    /* \"#utility.yul\":1576:1705   */\n  pop\n    /* \"#utility.yul\":1205:1712   */\n  swap3\n  pop\n  swap3\n  swap1\n  pop\n  jump\t// out\n    /* \"#utility.yul\":1718:1817   */\ntag_70:\n    /* \"#utility.yul\":1770:1776   */\n  0x00\n    /* \"#utility.yul\":1804:1809   */\n  dup2\n    /* \"#utility.yul\":1798:1810   */\n  mload\n    /* \"#utility.yul\":1788:1810   */\n  swap1\n  pop\n    /* \"#utility.yul\":1718:1817   */\n  swap2\n  swap1\n  pop\n  jump\t// out\n    /* \"#utility.yul\":1823:2003   */\ntag_71:\n    /* \"#utility.yul\":1871:1948   */\n  0x4e487b7100000000000000000000000000000000000000000000000000000000\n    /* \"#utility.yul\":1868:1869   */\n  0x00\n    /* \"#utility.yul\":1861:1949   */\n  mstore\n    /* \"#utility.yul\":1968:1972   */\n  0x41\n    /* \"#utility.yul\":1965:1966   */\n  0x04\n    /* \"#utility.yul\":1958:1973   */\n  mstore\n    /* \"#utility.yul\":1992:1996   */\n  0x24\n    /* \"#utility.yul\":1989:1990   */\n  0x00\n    /* \"#utility.yul\":1982:1997   */\n  revert\n    /* \"#utility.yul\":2009:2189   */\ntag_72:\n    /* \"#utility.yul\":2057:2134   */\n  0x4e487b7100000000000000000000000000000000000000000000000000000000\n    /* \"#utility.yul\":2054:2055   */\n  0x00\n    /* \"#utility.yul\":2047:2135   */\n  mstore\n    /* \"#utility.yul\":2154:2158   */\n  0x22\n    /* \"#utility.yul\":2151:2152   */\n  0x04\n    /* \"#utility.yul\":2144:2159   */\n  mstore\n    /* \"#utility.yul\":2178:2182   */\n  0x24\n    /* \"#utility.yul\":2175:2176   */\n  0x00\n    /* \"#utility.yul\":2168:2183   */\n  revert\n    /* \"#utility.yul\":2195:2515   */\ntag_73:\n    /* \"#utility.yul\":2239:2245   */\n  0x00\n    /* \"#utility.yul\":2276:2277   */\n  0x02\n    /* \"#utility.yul\":2270:2274   */\n  dup3\n    /* \"#utility.yul\":2266:2278   */\n  div\n    /* \"#utility.yul\":2256:2278   */\n  swap1\n  pop\n    /* \"#utility.yul\":2323:2324   */\n  0x01\n    /* \"#utility.yul\":2317:2321   */\n  dup3\n    /* \"#utility.yul\":2313:2325   */\n  and\n    /* \"#utility.yul\":2344:2362   */\n  dup1\n    /* \"#utility.yul\":2334:2415   */\n  tag_119\n  jumpi\n    /* \"#utility.yul\":2400:2404   */\n  0x7f\n    /* \"#utility.yul\":2392:2398   */\n  dup3\n    /* \"#utility.yul\":2388:2405   */\n  and\n    /* \"#utility.yul\":2378:2405   */\n  swap2\n  pop\n    /* \"#utility.yul\":2334:2415   */\ntag_119:\n    /* \"#utility.yul\":2462:2464   */\n  0x20\n    /* \"#utility.yul\":2454:2460   */\n  dup3\n    /* \"#utility.yul\":2451:2465   */\n  lt\n    /* \"#utility.yul\":2431:2449   */\n  dup2\n    /* \"#utility.yul\":2428:2466   */\n  sub\n    /* \"#utility.yul\":2425:2509   */\n  tag_120\n  jumpi\n    /* \"#utility.yul\":2481:2499   */\n  tag_121\n  tag_72\n  jump\t// in\ntag_121:\n    /* \"#utility.yul\":2425:2509   */\ntag_120:\n    /* \"#utility.yul\":2246:2515   */\n  pop\n    /* \"#utility.yul\":2195:2515   */\n  swap2\n  swap1\n  pop\n  jump\t// out\n    /* \"#utility.yul\":2521:2662   */\ntag_74:\n    /* \"#utility.yul\":2570:2574   */\n  0x00\n    /* \"#utility.yul\":2593:2596   */\n  dup2\n    /* \"#utility.yul\":2585:2596   */\n  swap1\n  pop\n    /* \"#utility.yul\":2616:2619   */\n  dup2\n    /* \"#utility.yul\":2613:2614   */\n  0x00\n    /* \"#utility.yul\":2606:2620   */\n  mstore\n    /* \"#utility.yul\":2650:2654   */\n  0x20\n    /* \"#utility.yul\":2647:2648   */\n  0x00\n    /* \"#utility.yul\":2637:2655   */\n  keccak256\n    /* \"#utility.yul\":2629:2655   */\n  swap1\n  pop\n    /* \"#utility.yul\":2521:2662   */\n  swap2\n  swap1\n  pop\n  jump\t// out\n    /* \"#utility.yul\":2668:2761   */\ntag_75:\n    /* \"#utility.yul\":2705:2711   */\n  0x00\n    /* \"#utility.yul\":2752:2754   */\n  0x20\n    /* \"#utility.yul\":2747:2749   */\n  0x1f\n    /* \"#utility.yul\":2740:2745   */\n  dup4\n    /* \"#utility.yul\":2736:2750   */\n  add\n    /* \"#utility.yul\":2732:2755   */\n  div\n    /* \"#utility.yul\":2722:2755   */\n  swap1\n  pop\n    /* \"#utility.yul\":2668:2761   */\n  swap2\n  swap1\n  pop\n  jump\t// out\n    /* \"#utility.yul\":2767:2874   */\ntag_76:\n    /* \"#utility.yul\":2811:2819   */\n  0x00\n    /* \"#utility.yul\":2861:2866   */\n  dup3\n    /* \"#utility.yul\":2855:2859   */\n  dup3\n    /* \"#utility.yul\":2851:2867   */\n  shl\n    /* \"#utility.yul\":2830:2867   */\n  swap1\n  pop\n    /* \"#utility.yul\":2767:2874   */\n  swap3\n  swap2\n  pop\n  pop\n  jump\t// out\n    /* \"#utility.yul\":2880:3273   */\ntag_77:\n    /* \"#utility.yul\":2949:2955   */\n  0x00\n    /* \"#utility.yul\":2999:3000   */\n  0x08\n    /* \"#utility.yul\":2987:2997   */\n  dup4\n    /* \"#utility.yul\":2983:3001   */\n  mul\n    /* \"#utility.yul\":3022:3119   */\n  tag_126\n    /* \"#utility.yul\":3052:3118   */\n  0xffffffffffffffffffffffffffffffffffffffffffffffffffffffffffffffff\n    /* \"#utility.yul\":3041:3050   */\n  dup3\n    /* \"#utility.yul\":3022:3119   */\n  tag_76\n  jump\t// in\ntag_126:\n    /* \"#utility.yul\":3140:3179   */\n  tag_127\n    /* \"#utility.yul\":3170:3178   */\n  dup7\n    /* \"#utility.yul\":3159:3168   */\n  dup4\n    /* \"#utility.yul\":3140:3179   */\n  tag_76\n  jump\t// in\ntag_127:\n    /* \"#utility.yul\":3128:3179   */\n  swap6\n  pop\n    /* \"#utility.yul\":3212:3216   */\n  dup1\n    /* \"#utility.yul\":3208:3217   */\n  not\n    /* \"#utility.yul\":3201:3206   */\n  dup5\n    /* \"#utility.yul\":3197:3218   */\n  and\n    /* \"#utility.yul\":3188:3218   */\n  swap4\n  pop\n    /* \"#utility.yul\":3261:3265   */\n  dup1\n    /* \"#utility.yul\":3251:3259   */\n  dup7\n    /* \"#utility.yul\":3247:3266   */\n  and\n    /* \"#utility.yul\":3240:3245   */\n  dup5\n    /* \"#utility.yul\":3237:3267   */\n  or\n    /* \"#utility.yul\":3227:3267   */\n  swap3\n  pop\n    /* \"#utility.yul\":2956:3273   */\n  pop\n  pop\n    /* \"#utility.yul\":2880:3273   */\n  swap4\n  swap3\n  pop\n  pop\n  pop\n  jump\t// out\n    /* \"#utility.yul\":3279:3339   */\ntag_78:\n    /* \"#utility.yul\":3307:3310   */\n  0x00\n    /* \"#utility.yul\":3328:3333   */\n  dup2\n    /* \"#utility.yul\":3321:3333   */\n  swap1\n  pop\n    /* \"#utility.yul\":3279:3339   */\n  swap2\n  swap1\n  pop\n  jump\t// out\n    /* \"#utility.yul\":3345:3487   */\ntag_79:\n    /* \"#utility.yul\":3395:3404   */\n  0x00\n    /* \"#utility.yul\":3428:3481   */\n  tag_130\n    /* \"#utility.yul\":3446:3480   */\n  tag_131\n    /* \"#utility.yul\":3455:3479   */\n  tag_132\n    /* \"#utility.yul\":3473:3478   */\n  dup5\n    /* \"#utility.yul\":3455:3479   */\n  tag_67\n  jump\t// in\ntag_132:\n    /* \"#utility.yul\":3446:3480   */\n  tag_78\n  jump\t// in\ntag_131:\n    /* \"#utility.yul\":3428:3481   */\n  tag_67\n  jump\t// in\ntag_130:\n    /* \"#utility.yul\":3415:3481   */\n  swap1\n  pop\n    /* \"#utility.yul\":3345:3487   */\n  swap2\n  swap1\n  pop\n  jump\t// out\n    /* \"#utility.yul\":3493:3568   */\ntag_80:\n    /* \"#utility.yul\":3536:3539   */\n  0x00\n    /* \"#utility.yul\":3557:3562   */\n  dup2\n    /* \"#utility.yul\":3550:3562   */\n  swap1\n  pop\n    /* \"#utility.yul\":3493:3568   */\n  swap2\n  swap1\n  pop\n  jump\t// out\n    /* \"#utility.yul\":3574:3843   */\ntag_81:\n    /* \"#utility.yul\":3684:3723   */\n  tag_135\n    /* \"#utility.yul\":3715:3722   */\n  dup4\n    /* \"#utility.yul\":3684:3723   */\n  tag_79\n  jump\t// in\ntag_135:\n    /* \"#utility.yul\":3745:3836   */\n  tag_136\n    /* \"#utility.yul\":3794:3835   */\n  tag_137\n    /* \"#utility.yul\":3818:3834   */\n  dup3\n    /* \"#utility.yul\":3794:3835   */\n  tag_80\n  jump\t// in\ntag_137:\n    /* \"#utility.yul\":3786:3792   */\n  dup5\n    /* \"#utility.yul\":3779:3783   */\n  dup5\n    /* \"#utility.yul\":3773:3784   */\n  sload\n    /* \"#utility.yul\":3745:3836   */\n  tag_77\n  jump\t// in\ntag_136:\n    /* \"#utility.yul\":3739:3743   */\n  dup3\n    /* \"#utility.yul\":3732:3837   */\n  sstore\n    /* \"#utility.yul\":3650:3843   */\n  pop\n    /* \"#utility.yul\":3574:3843   */\n  pop\n  pop\n  pop\n  jump\t// out\n    /* \"#utility.yul\":3849:3922   */\ntag_82:\n    /* \"#utility.yul\":3894:3897   */\n  0x00\n    /* \"#utility.yul\":3849:3922   */\n  swap1\n  jump\t// out\n    /* \"#utility.yul\":3928:4117   */\ntag_83:\n    /* \"#utility.yul\":4005:4037   */\n  tag_140\n  tag_82\n  jump\t// in\ntag_140:\n    /* \"#utility.yul\":4046:4111   */\n  tag_141\n    /* \"#utility.yul\":4104:4110   */\n  dup2\n    /* \"#utility.yul\":4096:4102   */\n  dup5\n    /* \"#utility.yul\":4090:4094   */\n  dup5\n    /* \"#utility.yul\":4046:4111   */\n  tag_81\n  jump\t// in\ntag_141:\n    /* \"#utility.yul\":3981:4117   */\n  pop\n    /* \"#utility.yul\":3928:4117   */\n  pop\n  pop\n  jump\t// out\n    /* \"#utility.yul\":4123:4309   */\ntag_84:\n    /* \"#utility.yul\":4183:4303   */\ntag_143:\n    /* \"#utility.yul\":4200:4203   */\n  dup2\n    /* \"#utility.yul\":4193:4198   */\n  dup2\n    /* \"#utility.yul\":4190:4204   */\n  lt\n    /* \"#utility.yul\":4183:4303   */\n  iszero\n  tag_145\n  jumpi\n    /* \"#utility.yul\":4254:4293   */\n  tag_146\n    /* \"#utility.yul\":4291:4292   */\n  0x00\n    /* \"#utility.yul\":4284:4289   */\n  dup3\n    /* \"#utility.yul\":4254:4293   */\n  tag_83\n  jump\t// in\ntag_146:\n    /* \"#utility.yul\":4227:4228   */\n  0x01\n    /* \"#utility.yul\":4220:4225   */\n  dup2\n    /* \"#utility.yul\":4216:4229   */\n  add\n    /* \"#utility.yul\":4207:4229   */\n  swap1\n  pop\n    /* \"#utility.yul\":4183:4303   */\n  jump(tag_143)\ntag_145:\n    /* \"#utility.yul\":4123:4309   */\n  pop\n  pop\n  jump\t// out\n    /* \"#utility.yul\":4315:4858   */\ntag_85:\n    /* \"#utility.yul\":4416:4418   */\n  0x1f\n    /* \"#utility.yul\":4411:4414   */\n  dup3\n    /* \"#utility.yul\":4408:4419   */\n  gt\n    /* \"#utility.yul\":4405:4851   */\n  iszero\n  tag_148\n  jumpi\n    /* \"#utility.yul\":4450:4488   */\n  tag_149\n    /* \"#utility.yul\":4482:4487   */\n  dup2\n    /* \"#utility.yul\":4450:4488   */\n  tag_74\n  jump\t// in\ntag_149:\n    /* \"#utility.yul\":4534:4563   */\n  tag_150\n    /* \"#utility.yul\":4552:4562   */\n  dup5\n    /* \"#utility.yul\":4534:4563   */\n  tag_75\n  jump\t// in\ntag_150:\n    /* \"#utility.yul\":4524:4532   */\n  dup2\n    /* \"#utility.yul\":4520:4564   */\n  add\n    /* \"#utility.yul\":4717:4719   */\n  0x20\n    /* \"#utility.yul\":4705:4715   */\n  dup6\n    /* \"#utility.yul\":4702:4720   */\n  lt\n    /* \"#utility.yul\":4699:4748   */\n  iszero\n  tag_151\n  jumpi\n    /* \"#utility.yul\":4738:4746   */\n  dup2\n    /* \"#utility.yul\":4723:4746   */\n  swap1\n  pop\n    /* \"#utility.yul\":4699:4748   */\ntag_151:\n    /* \"#utility.yul\":4761:4841   */\n  tag_152\n    /* \"#utility.yul\":4817:4839   */\n  tag_153\n    /* \"#utility.yul\":4835:4838   */\n  dup6\n    /* \"#utility.yul\":4817:4839   */\n  tag_75\n  jump\t// in\ntag_153:\n    /* \"#utility.yul\":4807:4815   */\n  dup4\n    /* \"#utility.yul\":4803:4840   */\n  add\n    /* \"#utility.yul\":4790:4801   */\n  dup3\n    /* \"#utility.yul\":4761:4841   */\n  tag_84\n  jump\t// in\ntag_152:\n    /* \"#utility.yul\":4420:4851   */\n  pop\n  pop\n    /* \"#utility.yul\":4405:4851   */\ntag_148:\n    /* \"#utility.yul\":4315:4858   */\n  pop\n  pop\n  pop\n  jump\t// out\n    /* \"#utility.yul\":4864:4981   */\ntag_86:\n    /* \"#utility.yul\":4918:4926   */\n  0x00\n    /* \"#utility.yul\":4968:4973   */\n  dup3\n    /* \"#utility.yul\":4962:4966   */\n  dup3\n    /* \"#utility.yul\":4958:4974   */\n  shr\n    /* \"#utility.yul\":4937:4974   */\n  swap1\n  pop\n    /* \"#utility.yul\":4864:4981   */\n  swap3\n  swap2\n  pop\n  pop\n  jump\t// out\n    /* \"#utility.yul\":4987:5156   */\ntag_87:\n    /* \"#utility.yul\":5031:5037   */\n  0x00\n    /* \"#utility.yul\":5064:5115   */\n  tag_156\n    /* \"#utility.yul\":5112:5113   */\n  0x00\n    /* \"#utility.yul\":5108:5114   */\n  not\n    /* \"#utility.yul\":5100:5105   */\n  dup5\n    /* \"#utility.yul\":5097:5098   */\n  0x08\n    /* \"#utility.yul\":5093:5106   */\n  mul\n    /* \"#utility.yul\":5064:5115   */\n  tag_86\n  jump\t// in\ntag_156:\n    /* \"#utility.yul\":5060:5116   */\n  not\n    /* \"#utility.yul\":5145:5149   */\n  dup1\n    /* \"#utility.yul\":5139:5143   */\n  dup4\n    /* \"#utility.yul\":5135:5150   */\n  and\n    /* \"#utility.yul\":5125:5150   */\n  swap2\n  pop\n    /* \"#utility.yul\":5038:5156   */\n  pop\n    /* \"#utility.yul\":4987:5156   */\n  swap3\n  swap2\n  pop\n  pop\n  jump\t// out\n    /* \"#utility.yul\":5161:5456   */\ntag_88:\n    /* \"#utility.yul\":5237:5241   */\n  0x00\n    /* \"#utility.yul\":5383:5412   */\n  tag_158\n    /* \"#utility.yul\":5408:5411   */\n  dup4\n    /* \"#utility.yul\":5402:5406   */\n  dup4\n    /* \"#utility.yul\":5383:5412   */\n  tag_87\n  jump\t// in\ntag_158:\n    /* \"#utility.yul\":5375:5412   */\n  swap2\n  pop\n    /* \"#utility.yul\":5445:5448   */\n  dup3\n    /* \"#utility.yul\":5442:5443   */\n  0x02\n    /* \"#utility.yul\":5438:5449   */\n  mul\n    /* \"#utility.yul\":5432:5436   */\n  dup3\n    /* \"#utility.yul\":5429:5450   */\n  or\n    /* \"#utility.yul\":5421:5450   */\n  swap1\n  pop\n    /* \"#utility.yul\":5161:5456   */\n  swap3\n  swap2\n  pop\n  pop\n  jump\t// out\n    /* \"#utility.yul\":5461:6856   */\ntag_9:\n    /* \"#utility.yul\":5578:5615   */\n  tag_160\n    /* \"#utility.yul\":5611:5614   */\n  dup3\n    /* \"#utility.yul\":5578:5615   */\n  tag_70\n  jump\t// in\ntag_160:\n    /* \"#utility.yul\":5680:5698   */\n  0xffffffffffffffff\n    /* \"#utility.yul\":5672:5678   */\n  dup2\n    /* \"#utility.yul\":5669:5699   */\n  gt\n    /* \"#utility.yul\":5666:5722   */\n  iszero\n  tag_161\n  jumpi\n    /* \"#utility.yul\":5702:5720   */\n  tag_162\n  tag_71\n  jump\t// in\ntag_162:\n    /* \"#utility.yul\":5666:5722   */\ntag_161:\n    /* \"#utility.yul\":5746:5784   */\n  tag_163\n    /* \"#utility.yul\":5778:5782   */\n  dup3\n    /* \"#utility.yul\":5772:5783   */\n  sload\n    /* \"#utility.yul\":5746:5784   */\n  tag_73\n  jump\t// in\ntag_163:\n    /* \"#utility.yul\":5831:5898   */\n  tag_164\n    /* \"#utility.yul\":5891:5897   */\n  dup3\n    /* \"#utility.yul\":5883:5889   */\n  dup3\n    /* \"#utility.yul\":5877:5881   */\n  dup6\n    /* \"#utility.yul\":5831:5898   */\n  tag_85\n  jump\t// in\ntag_164:\n    /* \"#utility.yul\":5925:5926   */\n  0x00\n    /* \"#utility.yul\":5949:5953   */\n  0x20\n    /* \"#utility.yul\":5936:5953   */\n  swap1\n  pop\n    /* \"#utility.yul\":5981:5983   */\n  0x1f\n    /* \"#utility.yul\":5973:5979   */\n  dup4\n    /* \"#utility.yul\":5970:5984   */\n  gt\n    /* \"#utility.yul\":5998:5999   */\n  0x01\n    /* \"#utility.yul\":5993:6611   */\n  dup2\n  eq\n  tag_166\n  jumpi\n    /* \"#utility.yul\":6655:6656   */\n  0x00\n    /* \"#utility.yul\":6672:6678   */\n  dup5\n    /* \"#utility.yul\":6669:6746   */\n  iszero\n  tag_167\n  jumpi\n    /* \"#utility.yul\":6721:6730   */\n  dup3\n    /* \"#utility.yul\":6716:6719   */\n  dup8\n    /* \"#utility.yul\":6712:6731   */\n  add\n    /* \"#utility.yul\":6706:6732   */\n  mload\n    /* \"#utility.yul\":6697:6732   */\n  swap1\n  pop\n    /* \"#utility.yul\":6669:6746   */\ntag_167:\n    /* \"#utility.yul\":6772:6839   */\n  tag_168\n    /* \"#utility.yul\":6832:6838   */\n  dup6\n    /* \"#utility.yul\":6825:6830   */\n  dup3\n    /* \"#utility.yul\":6772:6839   */\n  tag_88\n  jump\t// in\ntag_168:\n    /* \"#utility.yul\":6766:6770   */\n  dup7\n    /* \"#utility.yul\":6759:6840   */\n  sstore\n    /* \"#utility.yul\":6628:6850   */\n  pop\n    /* \"#utility.yul\":5963:6850   */\n  jump(tag_165)\n    /* \"#utility.yul\":5993:6611   */\ntag_166:\n    /* \"#utility.yul\":6045:6049   */\n  0x1f\n    /* \"#utility.yul\":6041:6050   */\n  not\n    /* \"#utility.yul\":6033:6039   */\n  dup5\n    /* \"#utility.yul\":6029:6051   */\n  and\n    /* \"#utility.yul\":6079:6116   */\n  tag_169\n    /* \"#utility.yul\":6111:6115   */\n  dup7\n    /* \"#utility.yul\":6079:6116   */\n  tag_74\n  jump\t// in\ntag_169:\n    /* \"#utility.yul\":6138:6139   */\n  0x00\n    /* \"#utility.yul\":6152:6360   */\ntag_170:\n    /* \"#utility.yul\":6166:6173   */\n  dup3\n    /* \"#utility.yul\":6163:6164   */\n  dup2\n    /* \"#utility.yul\":6160:6174   */\n  lt\n    /* \"#utility.yul\":6152:6360   */\n  iszero\n  tag_172\n  jumpi\n    /* \"#utility.yul\":6245:6254   */\n  dup5\n    /* \"#utility.yul\":6240:6243   */\n  dup10\n    /* \"#utility.yul\":6236:6255   */\n  add\n    /* \"#utility.yul\":6230:6256   */\n  mload\n    /* \"#utility.yul\":6222:6228   */\n  dup3\n    /* \"#utility.yul\":6215:6257   */\n  sstore\n    /* \"#utility.yul\":6296:6297   */\n  0x01\n    /* \"#utility.yul\":6288:6294   */\n  dup3\n    /* \"#utility.yul\":6284:6298   */\n  add\n    /* \"#utility.yul\":6274:6298   */\n  swap2\n  pop\n    /* \"#utility.yul\":6343:6345   */\n  0x20\n    /* \"#utility.yul\":6332:6341   */\n  dup6\n    /* \"#utility.yul\":6328:6346   */\n  add\n    /* \"#utility.yul\":6315:6346   */\n  swap5\n  pop\n    /* \"#utility.yul\":6189:6193   */\n  0x20\n    /* \"#utility.yul\":6186:6187   */\n  dup2\n    /* \"#utility.yul\":6182:6194   */\n  add\n    /* \"#utility.yul\":6177:6194   */\n  swap1\n  pop\n    /* \"#utility.yul\":6152:6360   */\n  jump(tag_170)\ntag_172:\n    /* \"#utility.yul\":6388:6394   */\n  dup7\n    /* \"#utility.yul\":6379:6386   */\n  dup4\n    /* \"#utility.yul\":6376:6395   */\n  lt\n    /* \"#utility.yul\":6373:6552   */\n  iszero\n  tag_173\n  jumpi\n    /* \"#utility.yul\":6446:6455   */\n  dup5\n    /* \"#utility.yul\":6441:6444   */\n  dup10\n    /* \"#utility.yul\":6437:6456   */\n  add\n    /* \"#utility.yul\":6431:6457   */\n  mload\n    /* \"#utility.yul\":6489:6537   */\n  tag_174\n    /* \"#utility.yul\":6531:6535   */\n  0x1f\n    /* \"#utility.yul\":6523:6529   */\n  dup10\n    /* \"#utility.yul\":6519:6536   */\n  and\n    /* \"#utility.yul\":6508:6517   */\n  dup3\n    /* \"#utility.yul\":6489:6537   */\n  tag_87\n  jump\t// in\ntag_174:\n    /* \"#utility.yul\":6481:6487   */\n  dup4\n    /* \"#utility.yul\":6474:6538   */\n  sstore\n    /* \"#utility.yul\":6396:6552   */\n  pop\n    /* \"#utility.yul\":6373:6552   */\ntag_173:\n    /* \"#utility.yul\":6598:6599   */\n  0x01\n    /* \"#utility.yul\":6594:6595   */\n  0x02\n    /* \"#utility.yul\":6586:6592   */\n  dup9\n    /* \"#utility.yul\":6582:6596   */\n  mul\n    /* \"#utility.yul\":6578:6600   */\n  add\n    /* \"#utility.yul\":6572:6576   */\n  dup9\n    /* \"#utility.yul\":6565:6601   */\n  sstore\n    /* \"#utility.yul\":6000:6611   */\n  pop\n  pop\n  pop\n    /* \"#utility.yul\":5963:6850   */\ntag_165:\n  pop\n    /* \"#utility.yul\":5553:6856   */\n  pop\n  pop\n  pop\n    /* \"#utility.yul\":5461:6856   */\n  pop\n  pop\n  jump\t// out\n    /* \"#utility.yul\":6862:6980   */\ntag_89:\n    /* \"#utility.yul\":6949:6973   */\n  tag_176\n    /* \"#utility.yul\":6967:6972   */\n  dup2\n    /* \"#utility.yul\":6949:6973   */\n  tag_64\n  jump\t// in\ntag_176:\n    /* \"#utility.yul\":6944:6947   */\n  dup3\n    /* \"#utility.yul\":6937:6974   */\n  mstore\n    /* \"#utility.yul\":6862:6980   */\n  pop\n  pop\n  jump\t// out\n    /* \"#utility.yul\":6986:7208   */\ntag_14:\n    /* \"#utility.yul\":7079:7083   */\n  0x00\n    /* \"#utility.yul\":7117:7119   */\n  0x20\n    /* \"#utility.yul\":7106:7115   */\n  dup3\n    /* \"#utility.yul\":7102:7120   */\n  add\n    /* \"#utility.yul\":7094:7120   */\n  swap1\n  pop\n    /* \"#utility.yul\":7130:7201   */\n  tag_178\n    /* \"#utility.yul\":7198:7199   */\n  0x00\n    /* \"#utility.yul\":7187:7196   */\n  dup4\n    /* \"#utility.yul\":7183:7200   */\n  add\n    /* \"#utility.yul\":7174:7180   */\n  dup5\n    /* \"#utility.yul\":7130:7201   */\n  tag_89\n  jump\t// in\ntag_178:\n    /* \"#utility.yul\":6986:7208   */\n  swap3\n  swap2\n  pop\n  pop\n  jump\t// out\n    /* \"#utility.yul\":7214:7394   */\ntag_90:\n    /* \"#utility.yul\":7262:7339   */\n  0x4e487b7100000000000000000000000000000000000000000000000000000000\n    /* \"#utility.yul\":7259:7260   */\n  0x00\n    /* \"#utility.yul\":7252:7340   */\n  mstore\n    /* \"#utility.yul\":7359:7363   */\n  0x11\n    /* \"#utility.yul\":7356:7357   */\n  0x04\n    /* \"#utility.yul\":7349:7364   */\n  mstore\n    /* \"#utility.yul\":7383:7387   */\n  0x24\n    /* \"#utility.yul\":7380:7381   */\n  0x00\n    /* \"#utility.yul\":7373:7388   */\n  revert\n    /* \"#utility.yul\":7400:7591   */\ntag_51:\n    /* \"#utility.yul\":7440:7443   */\n  0x00\n    /* \"#utility.yul\":7459:7479   */\n  tag_181\n    /* \"#utility.yul\":7477:7478   */\n  dup3\n    /* \"#utility.yul\":7459:7479   */\n  tag_67\n  jump\t// in\ntag_181:\n    /* \"#utility.yul\":7454:7479   */\n  swap2\n  pop\n    /* \"#utility.yul\":7493:7513   */\n  tag_182\n    /* \"#utility.yul\":7511:7512   */\n  dup4\n    /* \"#utility.yul\":7493:7513   */\n  tag_67\n  jump\t// in\ntag_182:\n    /* \"#utility.yul\":7488:7513   */\n  swap3\n  pop\n    /* \"#utility.yul\":7536:7537   */\n  dup3\n    /* \"#utility.yul\":7533:7534   */\n  dup3\n    /* \"#utility.yul\":7529:7538   */\n  add\n    /* \"#utility.yul\":7522:7538   */\n  swap1\n  pop\n    /* \"#utility.yul\":7557:7560   */\n  dup1\n    /* \"#utility.yul\":7554:7555   */\n  dup3\n    /* \"#utility.yul\":7551:7561   */\n  gt\n    /* \"#utility.yul\":7548:7584   */\n  iszero\n  tag_183\n  jumpi\n    /* \"#utility.yul\":7564:7582   */\n  tag_184\n  tag_90\n  jump\t// in\ntag_184:\n    /* \"#utility.yul\":7548:7584   */\ntag_183:\n    /* \"#utility.yul\":7400:7591   */\n  swap3\n  swap2\n  pop\n  pop\n  jump\t// out\n    /* \"#utility.yul\":7597:7715   */\ntag_91:\n    /* \"#utility.yul\":7684:7708   */\n  tag_186\n    /* \"#utility.yul\":7702:7707   */\n  dup2\n    /* \"#utility.yul\":7684:7708   */\n  tag_67\n  jump\t// in\ntag_186:\n    /* \"#utility.yul\":7679:7682   */\n  dup3\n    /* \"#utility.yul\":7672:7709   */\n  mstore\n    /* \"#utility.yul\":7597:7715   */\n  pop\n  pop\n  jump\t// out\n    /* \"#utility.yul\":7721:8163   */\ntag_55:\n    /* \"#utility.yul\":7870:7874   */\n  0x00\n    /* \"#utility.yul\":7908:7910   */\n  0x60\n    /* \"#utility.yul\":7897:7906   */\n  dup3\n    /* \"#utility.yul\":7893:7911   */\n  add\n    /* \"#utility.yul\":7885:7911   */\n  swap1\n  pop\n    /* \"#utility.yul\":7921:7992   */\n  tag_188\n    /* \"#utility.yul\":7989:7990   */\n  0x00\n    /* \"#utility.yul\":7978:7987   */\n  dup4\n    /* \"#utility.yul\":7974:7991   */\n  add\n    /* \"#utility.yul\":7965:7971   */\n  dup7\n    /* \"#utility.yul\":7921:7992   */\n  tag_89\n  jump\t// in\ntag_188:\n    /* \"#utility.yul\":8002:8074   */\n  tag_189\n    /* \"#utility.yul\":8070:8072   */\n  0x20\n    /* \"#utility.yul\":8059:8068   */\n  dup4\n    /* \"#utility.yul\":8055:8073   */\n  add\n    /* \"#utility.yul\":8046:8052   */\n  dup6\n    /* \"#utility.yul\":8002:8074   */\n  tag_91\n  jump\t// in\ntag_189:\n    /* \"#utility.yul\":8084:8156   */\n  tag_190\n    /* \"#utility.yul\":8152:8154   */\n  0x40\n    /* \"#utility.yul\":8141:8150   */\n  dup4\n    /* \"#utility.yul\":8137:8155   */\n  add\n    /* \"#utility.yul\":8128:8134   */\n  dup5\n    /* \"#utility.yul\":8084:8156   */\n  tag_91\n  jump\t// in\ntag_190:\n    /* \"#utility.yul\":7721:8163   */\n  swap5\n  swap4\n  pop\n  pop\n  pop\n  pop\n  jump\t// out\n    /* \"#utility.yul\":8169:8391   */\ntag_59:\n    /* \"#utility.yul\":8262:8266   */\n  0x00\n    /* \"#utility.yul\":8300:8302   */\n  0x20\n    /* \"#utility.yul\":8289:8298   */\n  dup3\n    /* \"#utility.yul\":8285:8303   */\n  add\n    /* \"#utility.yul\":8277:8303   */\n  swap1\n  pop\n    /* \"#utility.yul\":8313:8384   */\n  tag_192\n    /* \"#utility.yul\":8381:8382   */\n  0x00\n    /* \"#utility.yul\":8370:8379   */\n  dup4\n    /* \"#utility.yul\":8366:8383   */\n  add\n    /* \"#utility.yul\":8357:8363   */\n  dup5\n    /* \"#utility.yul\":8313:8384   */\n  tag_91\n  jump\t// in\ntag_192:\n    /* \"#utility.yul\":8169:8391   */\n  swap3\n  swap2\n  pop\n  pop\n  jump\t// out\n    /* \"contracts/DegenToken.sol\":785:4287  contract DegenToken is ERC20, Ownable, ERC20Burnable {... */\ntag_25:\n  dataSize(sub_0)\n  dup1\n  dataOffset(sub_0)\n  0x00\n  codecopy\n  0x00\n  return\nstop\n\nsub_0: assembly {\n        /* \"contracts/DegenToken.sol\":785:4287  contract DegenToken is ERC20, Ownable, ERC20Burnable {... */\n      mstore(0x40, 0x80)\n      callvalue\n      dup1\n      iszero\n      tag_1\n      jumpi\n      0x00\n      dup1\n      revert\n    tag_1:\n      pop\n      jumpi(tag_2, lt(calldatasize, 0x04))\n      shr(0xe0, calldataload(0x00))\n      dup1\n      0x715018a6\n      gt\n      tag_29\n      jumpi\n      dup1\n      0xa9059cbb\n      gt\n      tag_30\n      jumpi\n      dup1\n      0xdd62ed3e\n      gt\n      tag_31\n      jumpi\n      dup1\n      0xdd62ed3e\n      eq\n      tag_25\n      jumpi\n      dup1\n      0xea5e65e0\n      eq\n      tag_26\n      jumpi\n      dup1\n      0xf2fde38b\n      eq\n      tag_27\n      jumpi\n      dup1\n      0xf5112f87\n      eq\n      tag_28\n      jumpi\n      jump(tag_2)\n    tag_31:\n      dup1\n      0xa9059cbb\n      eq\n      tag_22\n      jumpi\n      dup1\n      0xaf3bcb7d\n      eq\n      tag_23\n      jumpi\n      dup1\n      0xce6019b4\n      eq\n      tag_24\n      jumpi\n      jump(tag_2)\n    tag_30:\n      dup1\n      0x715018a6\n      eq\n      tag_16\n      jumpi\n      dup1\n      0x79cc6790\n      eq\n      tag_17\n      jumpi\n      dup1\n      0x7b47ec1a\n      eq\n      tag_18\n      jumpi\n      dup1\n      0x8da5cb5b\n      eq\n      tag_19\n      jumpi\n      dup1\n      0x95d89b41\n      eq\n      tag_20\n      jumpi\n      dup1\n      0xa10f956d\n      eq\n      tag_21\n      jumpi\n      jump(tag_2)\n    tag_29:\n      dup1\n      0x23b872dd\n      gt\n      tag_32\n      jumpi\n      dup1\n      0x40c10f19\n      gt\n      tag_33\n      jumpi\n      dup1\n      0x40c10f19\n      eq\n      tag_12\n      jumpi\n      dup1\n      0x42966c68\n      eq\n      tag_13\n      jumpi\n      dup1\n      0x62d6bbdf\n      eq\n      tag_14\n      jumpi\n      dup1\n      0x70a08231\n      eq\n      tag_15\n      jumpi\n      jump(tag_2)\n    tag_33:\n      dup1\n      0x23b872dd\n      eq\n      tag_9\n      jumpi\n      dup1\n      0x30a86006\n      eq\n      tag_10\n      jumpi\n      dup1\n      0x313ce567\n      eq\n      tag_11\n      jumpi\n      jump(tag_2)\n    tag_32:\n      dup1\n      0x06fdde03\n      eq\n      tag_3\n      jumpi\n      dup1\n      0x095ea7b3\n      eq\n      tag_4\n      jumpi\n      dup1\n      0x1072cbea\n      eq\n      tag_5\n      jumpi\n      dup1\n      0x12065fe0\n      eq\n      tag_6\n      jumpi\n      dup1\n      0x17d70f7c\n      eq\n      tag_7\n      jumpi\n      dup1\n      0x18160ddd\n      eq\n      tag_8\n      jumpi\n    tag_2:\n      0x00\n      dup1\n      revert\n        /* \"@openzeppelin/contracts/token/ERC20/ERC20.sol\":2074:2163  function name() public view virtual returns (string memory) {... */\n    tag_3:\n      tag_34\n      tag_35\n      jump\t// in\n    tag_34:\n      mload(0x40)\n      tag_36\n      swap2\n      swap1\n      tag_37\n      jump\t// in\n    tag_36:\n      mload(0x40)\n      dup1\n      swap2\n      sub\n      swap1\n      return\n        /* \"@openzeppelin/contracts/token/ERC20/ERC20.sol\":4293:4479  function approve(address spender, uint256 value) public virtual returns (bool) {... */\n    tag_4:\n      tag_38\n      0x04\n      dup1\n      calldatasize\n      sub\n      dup2\n      add\n      swap1\n      tag_39\n      swap2\n      swap1\n      tag_40\n      jump\t// in\n    tag_39:\n      tag_41\n      jump\t// in\n    tag_38:\n      mload(0x40)\n      tag_42\n      swap2\n      swap1\n      tag_43\n      jump\t// in\n    tag_42:\n      mload(0x40)\n      dup1\n      swap2\n      sub\n      swap1\n      return\n        /* \"contracts/DegenToken.sol\":1930:2118  function transferToken(address _recipient, uint _amount) external {... */\n    tag_5:\n      tag_44\n      0x04\n      dup1\n      calldatasize\n      sub\n      dup2\n      add\n      swap1\n      tag_45\n      swap2\n      swap1\n      tag_40\n      jump\t// in\n    tag_45:\n      tag_46\n      jump\t// in\n    tag_44:\n      stop\n        /* \"contracts/DegenToken.sol\":4003:4102  function getBalance() external view returns(uint256){... */\n    tag_6:\n      tag_47\n      tag_48\n      jump\t// in\n    tag_47:\n      mload(0x40)\n      tag_49\n      swap2\n      swap1\n      tag_50\n      jump\t// in\n    tag_49:\n      mload(0x40)\n      dup1\n      swap2\n      sub\n      swap1\n      return\n        /* \"contracts/DegenToken.sol\":1020:1040  uint8 public tokenId */\n    tag_7:\n      tag_51\n      tag_52\n      jump\t// in\n    tag_51:\n      mload(0x40)\n      tag_53\n      swap2\n      swap1\n      tag_54\n      jump\t// in\n    tag_53:\n      mload(0x40)\n      dup1\n      swap2\n      sub\n      swap1\n      return\n        /* \"@openzeppelin/contracts/token/ERC20/ERC20.sol\":3144:3241  function totalSupply() public view virtual returns (uint256) {... */\n    tag_8:\n      tag_55\n      tag_56\n      jump\t// in\n    tag_55:\n      mload(0x40)\n      tag_57\n      swap2\n      swap1\n      tag_50\n      jump\t// in\n    tag_57:\n      mload(0x40)\n      dup1\n      swap2\n      sub\n      swap1\n      return\n        /* \"@openzeppelin/contracts/token/ERC20/ERC20.sol\":5039:5283  function transferFrom(address from, address to, uint256 value) public virtual returns (bool) {... */\n    tag_9:\n      tag_58\n      0x04\n      dup1\n      calldatasize\n      sub\n      dup2\n      add\n      swap1\n      tag_59\n      swap2\n      swap1\n      tag_60\n      jump\t// in\n    tag_59:\n      tag_61\n      jump\t// in\n    tag_58:\n      mload(0x40)\n      tag_62\n      swap2\n      swap1\n      tag_43\n      jump\t// in\n    tag_62:\n      mload(0x40)\n      dup1\n      swap2\n      sub\n      swap1\n      return\n        /* \"contracts/DegenToken.sol\":3739:3851  function getItemName(uint8 _id) external  view returns (string memory) {... */\n    tag_10:\n      tag_63\n      0x04\n      dup1\n      calldatasize\n      sub\n      dup2\n      add\n      swap1\n      tag_64\n      swap2\n      swap1\n      tag_65\n      jump\t// in\n    tag_64:\n      tag_66\n      jump\t// in\n    tag_63:\n      mload(0x40)\n      tag_67\n      swap2\n      swap1\n      tag_37\n      jump\t// in\n    tag_67:\n      mload(0x40)\n      dup1\n      swap2\n      sub\n      swap1\n      return\n        /* \"contracts/DegenToken.sol\":1681:1764  function decimals() override public pure returns (uint8){... */\n    tag_11:\n      tag_68\n      tag_69\n      jump\t// in\n    tag_68:\n      mload(0x40)\n      tag_70\n      swap2\n      swap1\n      tag_54\n      jump\t// in\n    tag_70:\n      mload(0x40)\n      dup1\n      swap2\n      sub\n      swap1\n      return\n        /* \"contracts/DegenToken.sol\":1797:1892  function mint(address to, uint256 amount) public onlyOwner {... */\n    tag_12:\n      tag_71\n      0x04\n      dup1\n      calldatasize\n      sub\n      dup2\n      add\n      swap1\n      tag_72\n      swap2\n      swap1\n      tag_40\n      jump\t// in\n    tag_72:\n      tag_73\n      jump\t// in\n    tag_71:\n      stop\n        /* \"@openzeppelin/contracts/token/ERC20/extensions/ERC20Burnable.sol\":618:705  function burn(uint256 value) public virtual {... */\n    tag_13:\n      tag_74\n      0x04\n      dup1\n      calldatasize\n      sub\n      dup2\n      add\n      swap1\n      tag_75\n      swap2\n      swap1\n      tag_76\n      jump\t// in\n    tag_75:\n      tag_77\n      jump\t// in\n    tag_74:\n      stop\n        /* \"contracts/DegenToken.sol\":2323:2477  function addItem(string memory _name, uint256 _price) public onlyOwner {... */\n    tag_14:\n      tag_78\n      0x04\n      dup1\n      calldatasize\n      sub\n      dup2\n      add\n      swap1\n      tag_79\n      swap2\n      swap1\n      tag_80\n      jump\t// in\n    tag_79:\n      tag_81\n      jump\t// in\n    tag_78:\n      stop\n        /* \"@openzeppelin/contracts/token/ERC20/ERC20.sol\":3299:3415  function balanceOf(address account) public view virtual returns (uint256) {... */\n    tag_15:\n      tag_82\n      0x04\n      dup1\n      calldatasize\n      sub\n      dup2\n      add\n      swap1\n      tag_83\n      swap2\n      swap1\n      tag_84\n      jump\t// in\n    tag_83:\n      tag_85\n      jump\t// in\n    tag_82:\n      mload(0x40)\n      tag_86\n      swap2\n      swap1\n      tag_50\n      jump\t// in\n    tag_86:\n      mload(0x40)\n      dup1\n      swap2\n      sub\n      swap1\n      return\n        /* \"@openzeppelin/contracts/access/Ownable.sol\":2293:2394  function renounceOwnership() public virtual onlyOwner {... */\n    tag_16:\n      tag_87\n      tag_88\n      jump\t// in\n    tag_87:\n      stop\n        /* \"@openzeppelin/contracts/token/ERC20/extensions/ERC20Burnable.sol\":1021:1179  function burnFrom(address account, uint256 value) public virtual {... */\n    tag_17:\n      tag_89\n      0x04\n      dup1\n      calldatasize\n      sub\n      dup2\n      add\n      swap1\n      tag_90\n      swap2\n      swap1\n      tag_40\n      jump\t// in\n    tag_90:\n      tag_91\n      jump\t// in\n    tag_89:\n      stop\n        /* \"contracts/DegenToken.sol\":4135:4282  function burnToken(uint _amount) external {... */\n    tag_18:\n      tag_92\n      0x04\n      dup1\n      calldatasize\n      sub\n      dup2\n      add\n      swap1\n      tag_93\n      swap2\n      swap1\n      tag_76\n      jump\t// in\n    tag_93:\n      tag_94\n      jump\t// in\n    tag_92:\n      stop\n        /* \"@openzeppelin/contracts/access/Ownable.sol\":1638:1723  function owner() public view virtual returns (address) {... */\n    tag_19:\n      tag_95\n      tag_96\n      jump\t// in\n    tag_95:\n      mload(0x40)\n      tag_97\n      swap2\n      swap1\n      tag_98\n      jump\t// in\n    tag_97:\n      mload(0x40)\n      dup1\n      swap2\n      sub\n      swap1\n      return\n        /* \"@openzeppelin/contracts/token/ERC20/ERC20.sol\":2276:2369  function symbol() public view virtual returns (string memory) {... */\n    tag_20:\n      tag_99\n      tag_100\n      jump\t// in\n    tag_99:\n      mload(0x40)\n      tag_101\n      swap2\n      swap1\n      tag_37\n      jump\t// in\n    tag_101:\n      mload(0x40)\n      dup1\n      swap2\n      sub\n      swap1\n      return\n        /* \"contracts/DegenToken.sol\":3857:3960  function getItemPrice(uint8 _id) external  view returns(uint){... */\n    tag_21:\n      tag_102\n      0x04\n      dup1\n      calldatasize\n      sub\n      dup2\n      add\n      swap1\n      tag_103\n      swap2\n      swap1\n      tag_65\n      jump\t// in\n    tag_103:\n      tag_104\n      jump\t// in\n    tag_102:\n      mload(0x40)\n      tag_105\n      swap2\n      swap1\n      tag_50\n      jump\t// in\n    tag_105:\n      mload(0x40)\n      dup1\n      swap2\n      sub\n      swap1\n      return\n        /* \"@openzeppelin/contracts/token/ERC20/ERC20.sol\":3610:3788  function transfer(address to, uint256 value) public virtual returns (bool) {... */\n    tag_22:\n      tag_106\n      0x04\n      dup1\n      calldatasize\n      sub\n      dup2\n      add\n      swap1\n      tag_107\n      swap2\n      swap1\n      tag_40\n      jump\t// in\n    tag_107:\n      tag_108\n      jump\t// in\n    tag_106:\n      mload(0x40)\n      tag_109\n      swap2\n      swap1\n      tag_43\n      jump\t// in\n    tag_109:\n      mload(0x40)\n      dup1\n      swap2\n      sub\n      swap1\n      return\n        /* \"contracts/DegenToken.sol\":2972:3367  function purchaseItem(uint8 _itemId) external {... */\n    tag_23:\n      tag_110\n      0x04\n      dup1\n      calldatasize\n      sub\n      dup2\n      add\n      swap1\n      tag_111\n      swap2\n      swap1\n      tag_65\n      jump\t// in\n    tag_111:\n      tag_112\n      jump\t// in\n    tag_110:\n      stop\n        /* \"contracts/DegenToken.sol\":3375:3733  function getUserItems(address user) external view returns (uint8[] memory) {... */\n    tag_24:\n      tag_113\n      0x04\n      dup1\n      calldatasize\n      sub\n      dup2\n      add\n      swap1\n      tag_114\n      swap2\n      swap1\n      tag_84\n      jump\t// in\n    tag_114:\n      tag_115\n      jump\t// in\n    tag_113:\n      mload(0x40)\n      tag_116\n      swap2\n      swap1\n      tag_117\n      jump\t// in\n    tag_116:\n      mload(0x40)\n      dup1\n      swap2\n      sub\n      swap1\n      return\n        /* \"@openzeppelin/contracts/token/ERC20/ERC20.sol\":3846:3986  function allowance(address owner, address spender) public view virtual returns (uint256) {... */\n    tag_25:\n      tag_118\n      0x04\n      dup1\n      calldatasize\n      sub\n      dup2\n      add\n      swap1\n      tag_119\n      swap2\n      swap1\n      tag_120\n      jump\t// in\n    tag_119:\n      tag_121\n      jump\t// in\n    tag_118:\n      mload(0x40)\n      tag_122\n      swap2\n      swap1\n      tag_50\n      jump\t// in\n    tag_122:\n      mload(0x40)\n      dup1\n      swap2\n      sub\n      swap1\n      return\n        /* \"contracts/DegenToken.sol\":2486:2960  function isLessThanFive(bool _prediction, uint256 _betAmount) public {... */\n    tag_26:\n      tag_123\n      0x04\n      dup1\n      calldatasize\n      sub\n      dup2\n      add\n      swap1\n      tag_124\n      swap2\n      swap1\n      tag_125\n      jump\t// in\n    tag_124:\n      tag_126\n      jump\t// in\n    tag_123:\n      stop\n        /* \"@openzeppelin/contracts/access/Ownable.sol\":2543:2758  function transferOwnership(address newOwner) public virtual onlyOwner {... */\n    tag_27:\n      tag_127\n      0x04\n      dup1\n      calldatasize\n      sub\n      dup2\n      add\n      swap1\n      tag_128\n      swap2\n      swap1\n      tag_84\n      jump\t// in\n    tag_128:\n      tag_129\n      jump\t// in\n    tag_127:\n      stop\n        /* \"contracts/DegenToken.sol\":2153:2315  function welcomeBonus() public {... */\n    tag_28:\n      tag_130\n      tag_131\n      jump\t// in\n    tag_130:\n      stop\n        /* \"@openzeppelin/contracts/token/ERC20/ERC20.sol\":2074:2163  function name() public view virtual returns (string memory) {... */\n    tag_35:\n        /* \"@openzeppelin/contracts/token/ERC20/ERC20.sol\":2119:2132  string memory */\n      0x60\n        /* \"@openzeppelin/contracts/token/ERC20/ERC20.sol\":2151:2156  _name */\n      0x03\n        /* \"@openzeppelin/contracts/token/ERC20/ERC20.sol\":2144:2156  return _name */\n      dup1\n      sload\n      tag_133\n      swap1\n      tag_134\n      jump\t// in\n    tag_133:\n      dup1\n      0x1f\n      add\n      0x20\n      dup1\n      swap2\n      div\n      mul\n      0x20\n      add\n      mload(0x40)\n      swap1\n      dup2\n      add\n      0x40\n      mstore\n      dup1\n      swap3\n      swap2\n      swap1\n      dup2\n      dup2\n      mstore\n      0x20\n      add\n      dup3\n      dup1\n      sload\n      tag_135\n      swap1\n      tag_134\n      jump\t// in\n    tag_135:\n      dup1\n      iszero\n      tag_136\n      jumpi\n      dup1\n      0x1f\n      lt\n      tag_137\n      jumpi\n      0x0100\n      dup1\n      dup4\n      sload\n      div\n      mul\n      dup4\n      mstore\n      swap2\n      0x20\n      add\n      swap2\n      jump(tag_136)\n    tag_137:\n      dup3\n      add\n      swap2\n      swap1\n      0x00\n      mstore\n      keccak256(0x00, 0x20)\n      swap1\n    tag_138:\n      dup2\n      sload\n      dup2\n      mstore\n      swap1\n      0x01\n      add\n      swap1\n      0x20\n      add\n      dup1\n      dup4\n      gt\n      tag_138\n      jumpi\n      dup3\n      swap1\n      sub\n      0x1f\n      and\n      dup3\n      add\n      swap2\n    tag_136:\n      pop\n      pop\n      pop\n      pop\n      pop\n      swap1\n      pop\n        /* \"@openzeppelin/contracts/token/ERC20/ERC20.sol\":2074:2163  function name() public view virtual returns (string memory) {... */\n      swap1\n      jump\t// out\n        /* \"@openzeppelin/contracts/token/ERC20/ERC20.sol\":4293:4479  function approve(address spender, uint256 value) public virtual returns (bool) {... */\n    tag_41:\n        /* \"@openzeppelin/contracts/token/ERC20/ERC20.sol\":4366:4370  bool */\n      0x00\n        /* \"@openzeppelin/contracts/token/ERC20/ERC20.sol\":4382:4395  address owner */\n      dup1\n        /* \"@openzeppelin/contracts/token/ERC20/ERC20.sol\":4398:4410  _msgSender() */\n      tag_140\n        /* \"@openzeppelin/contracts/token/ERC20/ERC20.sol\":4398:4408  _msgSender */\n      tag_141\n        /* \"@openzeppelin/contracts/token/ERC20/ERC20.sol\":4398:4410  _msgSender() */\n      jump\t// in\n    tag_140:\n        /* \"@openzeppelin/contracts/token/ERC20/ERC20.sol\":4382:4410  address owner = _msgSender() */\n      swap1\n      pop\n        /* \"@openzeppelin/contracts/token/ERC20/ERC20.sol\":4420:4451  _approve(owner, spender, value) */\n      tag_142\n        /* \"@openzeppelin/contracts/token/ERC20/ERC20.sol\":4429:4434  owner */\n      dup2\n        /* \"@openzeppelin/contracts/token/ERC20/ERC20.sol\":4436:4443  spender */\n      dup6\n        /* \"@openzeppelin/contracts/token/ERC20/ERC20.sol\":4445:4450  value */\n      dup6\n        /* \"@openzeppelin/contracts/token/ERC20/ERC20.sol\":4420:4428  _approve */\n      tag_143\n        /* \"@openzeppelin/contracts/token/ERC20/ERC20.sol\":4420:4451  _approve(owner, spender, value) */\n      jump\t// in\n    tag_142:\n        /* \"@openzeppelin/contracts/token/ERC20/ERC20.sol\":4468:4472  true */\n      0x01\n        /* \"@openzeppelin/contracts/token/ERC20/ERC20.sol\":4461:4472  return true */\n      swap2\n      pop\n      pop\n        /* \"@openzeppelin/contracts/token/ERC20/ERC20.sol\":4293:4479  function approve(address spender, uint256 value) public virtual returns (bool) {... */\n      swap3\n      swap2\n      pop\n      pop\n      jump\t// out\n        /* \"contracts/DegenToken.sol\":1930:2118  function transferToken(address _recipient, uint _amount) external {... */\n    tag_46:\n        /* \"contracts/DegenToken.sol\":2038:2045  _amount */\n      dup1\n        /* \"contracts/DegenToken.sol\":2015:2036  balanceOf(msg.sender) */\n      tag_145\n        /* \"contracts/DegenToken.sol\":2025:2035  msg.sender */\n      caller\n        /* \"contracts/DegenToken.sol\":2015:2024  balanceOf */\n      tag_85\n        /* \"contracts/DegenToken.sol\":2015:2036  balanceOf(msg.sender) */\n      jump\t// in\n    tag_145:\n        /* \"contracts/DegenToken.sol\":2015:2045  balanceOf(msg.sender)>=_amount */\n      lt\n      iszero\n        /* \"contracts/DegenToken.sol\":2007:2070  require(balanceOf(msg.sender)>=_amount, \"Insufficient balance\") */\n      tag_146\n      jumpi\n      mload(0x40)\n      0x08c379a000000000000000000000000000000000000000000000000000000000\n      dup2\n      mstore\n      0x04\n      add\n      tag_147\n      swap1\n      tag_148\n      jump\t// in\n    tag_147:\n      mload(0x40)\n      dup1\n      swap2\n      sub\n      swap1\n      revert\n    tag_146:\n        /* \"contracts/DegenToken.sol\":2081:2110  transfer(_recipient, _amount) */\n      tag_149\n        /* \"contracts/DegenToken.sol\":2090:2100  _recipient */\n      dup3\n        /* \"contracts/DegenToken.sol\":2102:2109  _amount */\n      dup3\n        /* \"contracts/DegenToken.sol\":2081:2089  transfer */\n      tag_108\n        /* \"contracts/DegenToken.sol\":2081:2110  transfer(_recipient, _amount) */\n      jump\t// in\n    tag_149:\n      pop\n        /* \"contracts/DegenToken.sol\":1930:2118  function transferToken(address _recipient, uint _amount) external {... */\n      pop\n      pop\n      jump\t// out\n        /* \"contracts/DegenToken.sol\":4003:4102  function getBalance() external view returns(uint256){... */\n    tag_48:\n        /* \"contracts/DegenToken.sol\":4047:4054  uint256 */\n      0x00\n        /* \"contracts/DegenToken.sol\":4073:4094  balanceOf(msg.sender) */\n      tag_151\n        /* \"contracts/DegenToken.sol\":4083:4093  msg.sender */\n      caller\n        /* \"contracts/DegenToken.sol\":4073:4082  balanceOf */\n      tag_85\n        /* \"contracts/DegenToken.sol\":4073:4094  balanceOf(msg.sender) */\n      jump\t// in\n    tag_151:\n        /* \"contracts/DegenToken.sol\":4066:4094  return balanceOf(msg.sender) */\n      swap1\n      pop\n        /* \"contracts/DegenToken.sol\":4003:4102  function getBalance() external view returns(uint256){... */\n      swap1\n      jump\t// out\n        /* \"contracts/DegenToken.sol\":1020:1040  uint8 public tokenId */\n    tag_52:\n      0x08\n      0x00\n      swap1\n      sload\n      swap1\n      0x0100\n      exp\n      swap1\n      div\n      0xff\n      and\n      dup2\n      jump\t// out\n        /* \"@openzeppelin/contracts/token/ERC20/ERC20.sol\":3144:3241  function totalSupply() public view virtual returns (uint256) {... */\n    tag_56:\n        /* \"@openzeppelin/contracts/token/ERC20/ERC20.sol\":3196:3203  uint256 */\n      0x00\n        /* \"@openzeppelin/contracts/token/ERC20/ERC20.sol\":3222:3234  _totalSupply */\n      sload(0x02)\n        /* \"@openzeppelin/contracts/token/ERC20/ERC20.sol\":3215:3234  return _totalSupply */\n      swap1\n      pop\n        /* \"@openzeppelin/contracts/token/ERC20/ERC20.sol\":3144:3241  function totalSupply() public view virtual returns (uint256) {... */\n      swap1\n      jump\t// out\n        /* \"@openzeppelin/contracts/token/ERC20/ERC20.sol\":5039:5283  function transferFrom(address from, address to, uint256 value) public virtual returns (bool) {... */\n    tag_61:\n        /* \"@openzeppelin/contracts/token/ERC20/ERC20.sol\":5126:5130  bool */\n      0x00\n        /* \"@openzeppelin/contracts/token/ERC20/ERC20.sol\":5142:5157  address spender */\n      dup1\n        /* \"@openzeppelin/contracts/token/ERC20/ERC20.sol\":5160:5172  _msgSender() */\n      tag_154\n        /* \"@openzeppelin/contracts/token/ERC20/ERC20.sol\":5160:5170  _msgSender */\n      tag_141\n        /* \"@openzeppelin/contracts/token/ERC20/ERC20.sol\":5160:5172  _msgSender() */\n      jump\t// in\n    tag_154:\n        /* \"@openzeppelin/contracts/token/ERC20/ERC20.sol\":5142:5172  address spender = _msgSender() */\n      swap1\n      pop\n        /* \"@openzeppelin/contracts/token/ERC20/ERC20.sol\":5182:5219  _spendAllowance(from, spender, value) */\n      tag_155\n        /* \"@openzeppelin/contracts/token/ERC20/ERC20.sol\":5198:5202  from */\n      dup6\n        /* \"@openzeppelin/contracts/token/ERC20/ERC20.sol\":5204:5211  spender */\n      dup3\n        /* \"@openzeppelin/contracts/token/ERC20/ERC20.sol\":5213:5218  value */\n      dup6\n        /* \"@openzeppelin/contracts/token/ERC20/ERC20.sol\":5182:5197  _spendAllowance */\n      tag_156\n        /* \"@openzeppelin/contracts/token/ERC20/ERC20.sol\":5182:5219  _spendAllowance(from, spender, value) */\n      jump\t// in\n    tag_155:\n        /* \"@openzeppelin/contracts/token/ERC20/ERC20.sol\":5229:5255  _transfer(from, to, value) */\n      tag_157\n        /* \"@openzeppelin/contracts/token/ERC20/ERC20.sol\":5239:5243  from */\n      dup6\n        /* \"@openzeppelin/contracts/token/ERC20/ERC20.sol\":5245:5247  to */\n      dup6\n        /* \"@openzeppelin/contracts/token/ERC20/ERC20.sol\":5249:5254  value */\n      dup6\n        /* \"@openzeppelin/contracts/token/ERC20/ERC20.sol\":5229:5238  _transfer */\n      tag_158\n        /* \"@openzeppelin/contracts/token/ERC20/ERC20.sol\":5229:5255  _transfer(from, to, value) */\n      jump\t// in\n    tag_157:\n        /* \"@openzeppelin/contracts/token/ERC20/ERC20.sol\":5272:5276  true */\n      0x01\n        /* \"@openzeppelin/contracts/token/ERC20/ERC20.sol\":5265:5276  return true */\n      swap2\n      pop\n      pop\n        /* \"@openzeppelin/contracts/token/ERC20/ERC20.sol\":5039:5283  function transferFrom(address from, address to, uint256 value) public virtual returns (bool) {... */\n      swap4\n      swap3\n      pop\n      pop\n      pop\n      jump\t// out\n        /* \"contracts/DegenToken.sol\":3739:3851  function getItemName(uint8 _id) external  view returns (string memory) {... */\n    tag_66:\n        /* \"contracts/DegenToken.sol\":3795:3808  string memory */\n      0x60\n        /* \"contracts/DegenToken.sol\":3828:3833  items */\n      0x06\n        /* \"contracts/DegenToken.sol\":3828:3838  items[_id] */\n      0x00\n        /* \"contracts/DegenToken.sol\":3834:3837  _id */\n      dup4\n        /* \"contracts/DegenToken.sol\":3828:3838  items[_id] */\n      0xff\n      and\n      0xff\n      and\n      dup2\n      mstore\n      0x20\n      add\n      swap1\n      dup2\n      mstore\n      0x20\n      add\n      0x00\n      keccak256\n        /* \"contracts/DegenToken.sol\":3828:3843  items[_id].name */\n      0x00\n      add\n        /* \"contracts/DegenToken.sol\":3821:3843  return items[_id].name */\n      dup1\n      sload\n      tag_160\n      swap1\n      tag_134\n      jump\t// in\n    tag_160:\n      dup1\n      0x1f\n      add\n      0x20\n      dup1\n      swap2\n      div\n      mul\n      0x20\n      add\n      mload(0x40)\n      swap1\n      dup2\n      add\n      0x40\n      mstore\n      dup1\n      swap3\n      swap2\n      swap1\n      dup2\n      dup2\n      mstore\n      0x20\n      add\n      dup3\n      dup1\n      sload\n      tag_161\n      swap1\n      tag_134\n      jump\t// in\n    tag_161:\n      dup1\n      iszero\n      tag_162\n      jumpi\n      dup1\n      0x1f\n      lt\n      tag_163\n      jumpi\n      0x0100\n      dup1\n      dup4\n      sload\n      div\n      mul\n      dup4\n      mstore\n      swap2\n      0x20\n      add\n      swap2\n      jump(tag_162)\n    tag_163:\n      dup3\n      add\n      swap2\n      swap1\n      0x00\n      mstore\n      keccak256(0x00, 0x20)\n      swap1\n    tag_164:\n      dup2\n      sload\n      dup2\n      mstore\n      swap1\n      0x01\n      add\n      swap1\n      0x20\n      add\n      dup1\n      dup4\n      gt\n      tag_164\n      jumpi\n      dup3\n      swap1\n      sub\n      0x1f\n      and\n      dup3\n      add\n      swap2\n    tag_162:\n      pop\n      pop\n      pop\n      pop\n      pop\n      swap1\n      pop\n        /* \"contracts/DegenToken.sol\":3739:3851  function getItemName(uint8 _id) external  view returns (string memory) {... */\n      swap2\n      swap1\n      pop\n      jump\t// out\n        /* \"contracts/DegenToken.sol\":1681:1764  function decimals() override public pure returns (uint8){... */\n    tag_69:\n        /* \"contracts/DegenToken.sol\":1731:1736  uint8 */\n      0x00\n        /* \"contracts/DegenToken.sol\":1681:1764  function decimals() override public pure returns (uint8){... */\n      swap1\n      jump\t// out\n        /* \"contracts/DegenToken.sol\":1797:1892  function mint(address to, uint256 amount) public onlyOwner {... */\n    tag_73:\n        /* \"@openzeppelin/contracts/access/Ownable.sol\":1531:1544  _checkOwner() */\n      tag_167\n        /* \"@openzeppelin/contracts/access/Ownable.sol\":1531:1542  _checkOwner */\n      tag_168\n        /* \"@openzeppelin/contracts/access/Ownable.sol\":1531:1544  _checkOwner() */\n      jump\t// in\n    tag_167:\n        /* \"contracts/DegenToken.sol\":1867:1884  _mint(to, amount) */\n      tag_170\n        /* \"contracts/DegenToken.sol\":1873:1875  to */\n      dup3\n        /* \"contracts/DegenToken.sol\":1877:1883  amount */\n      dup3\n        /* \"contracts/DegenToken.sol\":1867:1872  _mint */\n      tag_171\n        /* \"contracts/DegenToken.sol\":1867:1884  _mint(to, amount) */\n      jump\t// in\n    tag_170:\n        /* \"contracts/DegenToken.sol\":1797:1892  function mint(address to, uint256 amount) public onlyOwner {... */\n      pop\n      pop\n      jump\t// out\n        /* \"@openzeppelin/contracts/token/ERC20/extensions/ERC20Burnable.sol\":618:705  function burn(uint256 value) public virtual {... */\n    tag_77:\n        /* \"@openzeppelin/contracts/token/ERC20/extensions/ERC20Burnable.sol\":672:698  _burn(_msgSender(), value) */\n      tag_173\n        /* \"@openzeppelin/contracts/token/ERC20/extensions/ERC20Burnable.sol\":678:690  _msgSender() */\n      tag_174\n        /* \"@openzeppelin/contracts/token/ERC20/extensions/ERC20Burnable.sol\":678:688  _msgSender */\n      tag_141\n        /* \"@openzeppelin/contracts/token/ERC20/extensions/ERC20Burnable.sol\":678:690  _msgSender() */\n      jump\t// in\n    tag_174:\n        /* \"@openzeppelin/contracts/token/ERC20/extensions/ERC20Burnable.sol\":692:697  value */\n      dup3\n        /* \"@openzeppelin/contracts/token/ERC20/extensions/ERC20Burnable.sol\":672:677  _burn */\n      tag_175\n        /* \"@openzeppelin/contracts/token/ERC20/extensions/ERC20Burnable.sol\":672:698  _burn(_msgSender(), value) */\n      jump\t// in\n    tag_173:\n        /* \"@openzeppelin/contracts/token/ERC20/extensions/ERC20Burnable.sol\":618:705  function burn(uint256 value) public virtual {... */\n      pop\n      jump\t// out\n        /* \"contracts/DegenToken.sol\":2323:2477  function addItem(string memory _name, uint256 _price) public onlyOwner {... */\n    tag_81:\n        /* \"@openzeppelin/contracts/access/Ownable.sol\":1531:1544  _checkOwner() */\n      tag_177\n        /* \"@openzeppelin/contracts/access/Ownable.sol\":1531:1542  _checkOwner */\n      tag_168\n        /* \"@openzeppelin/contracts/access/Ownable.sol\":1531:1544  _checkOwner() */\n      jump\t// in\n    tag_177:\n        /* \"contracts/DegenToken.sol\":2422:2449  Item(_name, tokenId,_price) */\n      mload(0x40)\n      dup1\n      0x60\n      add\n      0x40\n      mstore\n      dup1\n        /* \"contracts/DegenToken.sol\":2427:2432  _name */\n      dup4\n        /* \"contracts/DegenToken.sol\":2422:2449  Item(_name, tokenId,_price) */\n      dup2\n      mstore\n      0x20\n      add\n        /* \"contracts/DegenToken.sol\":2434:2441  tokenId */\n      0x08\n      0x00\n      swap1\n      sload\n      swap1\n      0x0100\n      exp\n      swap1\n      div\n      0xff\n      and\n        /* \"contracts/DegenToken.sol\":2422:2449  Item(_name, tokenId,_price) */\n      0xff\n      and\n      dup2\n      mstore\n      0x20\n      add\n        /* \"contracts/DegenToken.sol\":2442:2448  _price */\n      dup3\n        /* \"contracts/DegenToken.sol\":2422:2449  Item(_name, tokenId,_price) */\n      dup2\n      mstore\n      pop\n        /* \"contracts/DegenToken.sol\":2405:2410  items */\n      0x06\n        /* \"contracts/DegenToken.sol\":2405:2419  items[tokenId] */\n      0x00\n        /* \"contracts/DegenToken.sol\":2411:2418  tokenId */\n      0x08\n      0x00\n      swap1\n      sload\n      swap1\n      0x0100\n      exp\n      swap1\n      div\n      0xff\n      and\n        /* \"contracts/DegenToken.sol\":2405:2419  items[tokenId] */\n      0xff\n      and\n      0xff\n      and\n      dup2\n      mstore\n      0x20\n      add\n      swap1\n      dup2\n      mstore\n      0x20\n      add\n      0x00\n      keccak256\n        /* \"contracts/DegenToken.sol\":2405:2449  items[tokenId] = Item(_name, tokenId,_price) */\n      0x00\n      dup3\n      add\n      mload\n      dup2\n      0x00\n      add\n      swap1\n      dup2\n      tag_179\n      swap2\n      swap1\n      tag_180\n      jump\t// in\n    tag_179:\n      pop\n      0x20\n      dup3\n      add\n      mload\n      dup2\n      0x01\n      add\n      exp(0x0100, 0x00)\n      dup2\n      sload\n      dup2\n      0xff\n      mul\n      not\n      and\n      swap1\n      dup4\n      0xff\n      and\n      mul\n      or\n      swap1\n      sstore\n      pop\n      0x40\n      dup3\n      add\n      mload\n      dup2\n      0x02\n      add\n      sstore\n      swap1\n      pop\n      pop\n        /* \"contracts/DegenToken.sol\":2460:2467  tokenId */\n      0x08\n      0x00\n        /* \"contracts/DegenToken.sol\":2460:2469  tokenId++ */\n      dup2\n      dup2\n      swap1\n      sload\n      swap1\n      0x0100\n      exp\n      swap1\n      div\n      0xff\n      and\n      dup1\n      swap3\n      swap2\n      swap1\n      tag_181\n      swap1\n      tag_182\n      jump\t// in\n    tag_181:\n      swap2\n      swap1\n      0x0100\n      exp\n      dup2\n      sload\n      dup2\n      0xff\n      mul\n      not\n      and\n      swap1\n      dup4\n      0xff\n      and\n      mul\n      or\n      swap1\n      sstore\n      pop\n      pop\n        /* \"contracts/DegenToken.sol\":2323:2477  function addItem(string memory _name, uint256 _price) public onlyOwner {... */\n      pop\n      pop\n      jump\t// out\n        /* \"@openzeppelin/contracts/token/ERC20/ERC20.sol\":3299:3415  function balanceOf(address account) public view virtual returns (uint256) {... */\n    tag_85:\n        /* \"@openzeppelin/contracts/token/ERC20/ERC20.sol\":3364:3371  uint256 */\n      0x00\n        /* \"@openzeppelin/contracts/token/ERC20/ERC20.sol\":3390:3399  _balances */\n      dup1\n        /* \"@openzeppelin/contracts/token/ERC20/ERC20.sol\":3390:3408  _balances[account] */\n      0x00\n        /* \"@openzeppelin/contracts/token/ERC20/ERC20.sol\":3400:3407  account */\n      dup4\n        /* \"@openzeppelin/contracts/token/ERC20/ERC20.sol\":3390:3408  _balances[account] */\n      0xffffffffffffffffffffffffffffffffffffffff\n      and\n      0xffffffffffffffffffffffffffffffffffffffff\n      and\n      dup2\n      mstore\n      0x20\n      add\n      swap1\n      dup2\n      mstore\n      0x20\n      add\n      0x00\n      keccak256\n      sload\n        /* \"@openzeppelin/contracts/token/ERC20/ERC20.sol\":3383:3408  return _balances[account] */\n      swap1\n      pop\n        /* \"@openzeppelin/contracts/token/ERC20/ERC20.sol\":3299:3415  function balanceOf(address account) public view virtual returns (uint256) {... */\n      swap2\n      swap1\n      pop\n      jump\t// out\n        /* \"@openzeppelin/contracts/access/Ownable.sol\":2293:2394  function renounceOwnership() public virtual onlyOwner {... */\n    tag_88:\n        /* \"@openzeppelin/contracts/access/Ownable.sol\":1531:1544  _checkOwner() */\n      tag_185\n        /* \"@openzeppelin/contracts/access/Ownable.sol\":1531:1542  _checkOwner */\n      tag_168\n        /* \"@openzeppelin/contracts/access/Ownable.sol\":1531:1544  _checkOwner() */\n      jump\t// in\n    tag_185:\n        /* \"@openzeppelin/contracts/access/Ownable.sol\":2357:2387  _transferOwnership(address(0)) */\n      tag_187\n        /* \"@openzeppelin/contracts/access/Ownable.sol\":2384:2385  0 */\n      0x00\n        /* \"@openzeppelin/contracts/access/Ownable.sol\":2357:2375  _transferOwnership */\n      tag_188\n        /* \"@openzeppelin/contracts/access/Ownable.sol\":2357:2387  _transferOwnership(address(0)) */\n      jump\t// in\n    tag_187:\n        /* \"@openzeppelin/contracts/access/Ownable.sol\":2293:2394  function renounceOwnership() public virtual onlyOwner {... */\n      jump\t// out\n        /* \"@openzeppelin/contracts/token/ERC20/extensions/ERC20Burnable.sol\":1021:1179  function burnFrom(address account, uint256 value) public virtual {... */\n    tag_91:\n        /* \"@openzeppelin/contracts/token/ERC20/extensions/ERC20Burnable.sol\":1096:1141  _spendAllowance(account, _msgSender(), value) */\n      tag_190\n        /* \"@openzeppelin/contracts/token/ERC20/extensions/ERC20Burnable.sol\":1112:1119  account */\n      dup3\n        /* \"@openzeppelin/contracts/token/ERC20/extensions/ERC20Burnable.sol\":1121:1133  _msgSender() */\n      tag_191\n        /* \"@openzeppelin/contracts/token/ERC20/extensions/ERC20Burnable.sol\":1121:1131  _msgSender */\n      tag_141\n        /* \"@openzeppelin/contracts/token/ERC20/extensions/ERC20Burnable.sol\":1121:1133  _msgSender() */\n      jump\t// in\n    tag_191:\n        /* \"@openzeppelin/contracts/token/ERC20/extensions/ERC20Burnable.sol\":1135:1140  value */\n      dup4\n        /* \"@openzeppelin/contracts/token/ERC20/extensions/ERC20Burnable.sol\":1096:1111  _spendAllowance */\n      tag_156\n        /* \"@openzeppelin/contracts/token/ERC20/extensions/ERC20Burnable.sol\":1096:1141  _spendAllowance(account, _msgSender(), value) */\n      jump\t// in\n    tag_190:\n        /* \"@openzeppelin/contracts/token/ERC20/extensions/ERC20Burnable.sol\":1151:1172  _burn(account, value) */\n      tag_192\n        /* \"@openzeppelin/contracts/token/ERC20/extensions/ERC20Burnable.sol\":1157:1164  account */\n      dup3\n        /* \"@openzeppelin/contracts/token/ERC20/extensions/ERC20Burnable.sol\":1166:1171  value */\n      dup3\n        /* \"@openzeppelin/contracts/token/ERC20/extensions/ERC20Burnable.sol\":1151:1156  _burn */\n      tag_175\n        /* \"@openzeppelin/contracts/token/ERC20/extensions/ERC20Burnable.sol\":1151:1172  _burn(account, value) */\n      jump\t// in\n    tag_192:\n        /* \"@openzeppelin/contracts/token/ERC20/extensions/ERC20Burnable.sol\":1021:1179  function burnFrom(address account, uint256 value) public virtual {... */\n      pop\n      pop\n      jump\t// out\n        /* \"contracts/DegenToken.sol\":4135:4282  function burnToken(uint _amount) external {... */\n    tag_94:\n        /* \"contracts/DegenToken.sol\":4219:4226  _amount */\n      dup1\n        /* \"contracts/DegenToken.sol\":4196:4217  balanceOf(msg.sender) */\n      tag_194\n        /* \"contracts/DegenToken.sol\":4206:4216  msg.sender */\n      caller\n        /* \"contracts/DegenToken.sol\":4196:4205  balanceOf */\n      tag_85\n        /* \"contracts/DegenToken.sol\":4196:4217  balanceOf(msg.sender) */\n      jump\t// in\n    tag_194:\n        /* \"contracts/DegenToken.sol\":4196:4226  balanceOf(msg.sender)>=_amount */\n      lt\n      iszero\n        /* \"contracts/DegenToken.sol\":4188:4250  require(balanceOf(msg.sender)>=_amount, \"Insufficient amount\") */\n      tag_195\n      jumpi\n      mload(0x40)\n      0x08c379a000000000000000000000000000000000000000000000000000000000\n      dup2\n      mstore\n      0x04\n      add\n      tag_196\n      swap1\n      tag_197\n      jump\t// in\n    tag_196:\n      mload(0x40)\n      dup1\n      swap2\n      sub\n      swap1\n      revert\n    tag_195:\n        /* \"contracts/DegenToken.sol\":4261:4274  burn(_amount) */\n      tag_198\n        /* \"contracts/DegenToken.sol\":4266:4273  _amount */\n      dup2\n        /* \"contracts/DegenToken.sol\":4261:4265  burn */\n      tag_77\n        /* \"contracts/DegenToken.sol\":4261:4274  burn(_amount) */\n      jump\t// in\n    tag_198:\n        /* \"contracts/DegenToken.sol\":4135:4282  function burnToken(uint _amount) external {... */\n      pop\n      jump\t// out\n        /* \"@openzeppelin/contracts/access/Ownable.sol\":1638:1723  function owner() public view virtual returns (address) {... */\n    tag_96:\n        /* \"@openzeppelin/contracts/access/Ownable.sol\":1684:1691  address */\n      0x00\n        /* \"@openzeppelin/contracts/access/Ownable.sol\":1710:1716  _owner */\n      0x05\n      0x00\n      swap1\n      sload\n      swap1\n      0x0100\n      exp\n      swap1\n      div\n      0xffffffffffffffffffffffffffffffffffffffff\n      and\n        /* \"@openzeppelin/contracts/access/Ownable.sol\":1703:1716  return _owner */\n      swap1\n      pop\n        /* \"@openzeppelin/contracts/access/Ownable.sol\":1638:1723  function owner() public view virtual returns (address) {... */\n      swap1\n      jump\t// out\n        /* \"@openzeppelin/contracts/token/ERC20/ERC20.sol\":2276:2369  function symbol() public view virtual returns (string memory) {... */\n    tag_100:\n        /* \"@openzeppelin/contracts/token/ERC20/ERC20.sol\":2323:2336  string memory */\n      0x60\n        /* \"@openzeppelin/contracts/token/ERC20/ERC20.sol\":2355:2362  _symbol */\n      0x04\n        /* \"@openzeppelin/contracts/token/ERC20/ERC20.sol\":2348:2362  return _symbol */\n      dup1\n      sload\n      tag_201\n      swap1\n      tag_134\n      jump\t// in\n    tag_201:\n      dup1\n      0x1f\n      add\n      0x20\n      dup1\n      swap2\n      div\n      mul\n      0x20\n      add\n      mload(0x40)\n      swap1\n      dup2\n      add\n      0x40\n      mstore\n      dup1\n      swap3\n      swap2\n      swap1\n      dup2\n      dup2\n      mstore\n      0x20\n      add\n      dup3\n      dup1\n      sload\n      tag_202\n      swap1\n      tag_134\n      jump\t// in\n    tag_202:\n      dup1\n      iszero\n      tag_203\n      jumpi\n      dup1\n      0x1f\n      lt\n      tag_204\n      jumpi\n      0x0100\n      dup1\n      dup4\n      sload\n      div\n      mul\n      dup4\n      mstore\n      swap2\n      0x20\n      add\n      swap2\n      jump(tag_203)\n    tag_204:\n      dup3\n      add\n      swap2\n      swap1\n      0x00\n      mstore\n      keccak256(0x00, 0x20)\n      swap1\n    tag_205:\n      dup2\n      sload\n      dup2\n      mstore\n      swap1\n      0x01\n      add\n      swap1\n      0x20\n      add\n      dup1\n      dup4\n      gt\n      tag_205\n      jumpi\n      dup3\n      swap1\n      sub\n      0x1f\n      and\n      dup3\n      add\n      swap2\n    tag_203:\n      pop\n      pop\n      pop\n      pop\n      pop\n      swap1\n      pop\n        /* \"@openzeppelin/contracts/token/ERC20/ERC20.sol\":2276:2369  function symbol() public view virtual returns (string memory) {... */\n      swap1\n      jump\t// out\n        /* \"contracts/DegenToken.sol\":3857:3960  function getItemPrice(uint8 _id) external  view returns(uint){... */\n    tag_104:\n        /* \"contracts/DegenToken.sol\":3913:3917  uint */\n      0x00\n        /* \"contracts/DegenToken.sol\":3936:3941  items */\n      0x06\n        /* \"contracts/DegenToken.sol\":3936:3946  items[_id] */\n      0x00\n        /* \"contracts/DegenToken.sol\":3942:3945  _id */\n      dup4\n        /* \"contracts/DegenToken.sol\":3936:3946  items[_id] */\n      0xff\n      and\n      0xff\n      and\n      dup2\n      mstore\n      0x20\n      add\n      swap1\n      dup2\n      mstore\n      0x20\n      add\n      0x00\n      keccak256\n        /* \"contracts/DegenToken.sol\":3936:3952  items[_id].price */\n      0x02\n      add\n      sload\n        /* \"contracts/DegenToken.sol\":3929:3952  return items[_id].price */\n      swap1\n      pop\n        /* \"contracts/DegenToken.sol\":3857:3960  function getItemPrice(uint8 _id) external  view returns(uint){... */\n      swap2\n      swap1\n      pop\n      jump\t// out\n        /* \"@openzeppelin/contracts/token/ERC20/ERC20.sol\":3610:3788  function transfer(address to, uint256 value) public virtual returns (bool) {... */\n    tag_108:\n        /* \"@openzeppelin/contracts/token/ERC20/ERC20.sol\":3679:3683  bool */\n      0x00\n        /* \"@openzeppelin/contracts/token/ERC20/ERC20.sol\":3695:3708  address owner */\n      dup1\n        /* \"@openzeppelin/contracts/token/ERC20/ERC20.sol\":3711:3723  _msgSender() */\n      tag_208\n        /* \"@openzeppelin/contracts/token/ERC20/ERC20.sol\":3711:3721  _msgSender */\n      tag_141\n        /* \"@openzeppelin/contracts/token/ERC20/ERC20.sol\":3711:3723  _msgSender() */\n      jump\t// in\n    tag_208:\n        /* \"@openzeppelin/contracts/token/ERC20/ERC20.sol\":3695:3723  address owner = _msgSender() */\n      swap1\n      pop\n        /* \"@openzeppelin/contracts/token/ERC20/ERC20.sol\":3733:3760  _transfer(owner, to, value) */\n      tag_209\n        /* \"@openzeppelin/contracts/token/ERC20/ERC20.sol\":3743:3748  owner */\n      dup2\n        /* \"@openzeppelin/contracts/token/ERC20/ERC20.sol\":3750:3752  to */\n      dup6\n        /* \"@openzeppelin/contracts/token/ERC20/ERC20.sol\":3754:3759  value */\n      dup6\n        /* \"@openzeppelin/contracts/token/ERC20/ERC20.sol\":3733:3742  _transfer */\n      tag_158\n        /* \"@openzeppelin/contracts/token/ERC20/ERC20.sol\":3733:3760  _transfer(owner, to, value) */\n      jump\t// in\n    tag_209:\n        /* \"@openzeppelin/contracts/token/ERC20/ERC20.sol\":3777:3781  true */\n      0x01\n        /* \"@openzeppelin/contracts/token/ERC20/ERC20.sol\":3770:3781  return true */\n      swap2\n      pop\n      pop\n        /* \"@openzeppelin/contracts/token/ERC20/ERC20.sol\":3610:3788  function transfer(address to, uint256 value) public virtual returns (bool) {... */\n      swap3\n      swap2\n      pop\n      pop\n      jump\t// out\n        /* \"contracts/DegenToken.sol\":2972:3367  function purchaseItem(uint8 _itemId) external {... */\n    tag_112:\n        /* \"contracts/DegenToken.sol\":3061:3062  0 */\n      0x00\n        /* \"contracts/DegenToken.sol\":3037:3042  items */\n      0x06\n        /* \"contracts/DegenToken.sol\":3037:3051  items[_itemId] */\n      0x00\n        /* \"contracts/DegenToken.sol\":3043:3050  _itemId */\n      dup4\n        /* \"contracts/DegenToken.sol\":3037:3051  items[_itemId] */\n      0xff\n      and\n      0xff\n      and\n      dup2\n      mstore\n      0x20\n      add\n      swap1\n      dup2\n      mstore\n      0x20\n      add\n      0x00\n      keccak256\n        /* \"contracts/DegenToken.sol\":3037:3057  items[_itemId].price */\n      0x02\n      add\n      sload\n        /* \"contracts/DegenToken.sol\":3037:3062  items[_itemId].price != 0 */\n      sub\n        /* \"contracts/DegenToken.sol\":3029:3081  require(items[_itemId].price != 0, \"Item not found\") */\n      tag_211\n      jumpi\n      mload(0x40)\n      0x08c379a000000000000000000000000000000000000000000000000000000000\n      dup2\n      mstore\n      0x04\n      add\n      tag_212\n      swap1\n      tag_213\n      jump\t// in\n    tag_212:\n      mload(0x40)\n      dup1\n      swap2\n      sub\n      swap1\n      revert\n    tag_211:\n        /* \"contracts/DegenToken.sol\":3125:3130  items */\n      0x06\n        /* \"contracts/DegenToken.sol\":3125:3139  items[_itemId] */\n      0x00\n        /* \"contracts/DegenToken.sol\":3131:3138  _itemId */\n      dup3\n        /* \"contracts/DegenToken.sol\":3125:3139  items[_itemId] */\n      0xff\n      and\n      0xff\n      and\n      dup2\n      mstore\n      0x20\n      add\n      swap1\n      dup2\n      mstore\n      0x20\n      add\n      0x00\n      keccak256\n        /* \"contracts/DegenToken.sol\":3125:3145  items[_itemId].price */\n      0x02\n      add\n      sload\n        /* \"contracts/DegenToken.sol\":3100:3121  balanceOf(msg.sender) */\n      tag_214\n        /* \"contracts/DegenToken.sol\":3110:3120  msg.sender */\n      caller\n        /* \"contracts/DegenToken.sol\":3100:3109  balanceOf */\n      tag_85\n        /* \"contracts/DegenToken.sol\":3100:3121  balanceOf(msg.sender) */\n      jump\t// in\n    tag_214:\n        /* \"contracts/DegenToken.sol\":3100:3145  balanceOf(msg.sender) >= items[_itemId].price */\n      lt\n      iszero\n        /* \"contracts/DegenToken.sol\":3092:3170  require(balanceOf(msg.sender) >= items[_itemId].price, \"Insufficient balance\") */\n      tag_215\n      jumpi\n      mload(0x40)\n      0x08c379a000000000000000000000000000000000000000000000000000000000\n      dup2\n      mstore\n      0x04\n      add\n      tag_216\n      swap1\n      tag_148\n      jump\t// in\n    tag_216:\n      mload(0x40)\n      dup1\n      swap2\n      sub\n      swap1\n      revert\n    tag_215:\n        /* \"contracts/DegenToken.sol\":3183:3209  burn(items[_itemId].price) */\n      tag_217\n        /* \"contracts/DegenToken.sol\":3188:3193  items */\n      0x06\n        /* \"contracts/DegenToken.sol\":3188:3202  items[_itemId] */\n      0x00\n        /* \"contracts/DegenToken.sol\":3194:3201  _itemId */\n      dup4\n        /* \"contracts/DegenToken.sol\":3188:3202  items[_itemId] */\n      0xff\n      and\n      0xff\n      and\n      dup2\n      mstore\n      0x20\n      add\n      swap1\n      dup2\n      mstore\n      0x20\n      add\n      0x00\n      keccak256\n        /* \"contracts/DegenToken.sol\":3188:3208  items[_itemId].price */\n      0x02\n      add\n      sload\n        /* \"contracts/DegenToken.sol\":3183:3187  burn */\n      tag_77\n        /* \"contracts/DegenToken.sol\":3183:3209  burn(items[_itemId].price) */\n      jump\t// in\n    tag_217:\n        /* \"contracts/DegenToken.sol\":3220:3231  playerItems */\n      0x07\n        /* \"contracts/DegenToken.sol\":3220:3243  playerItems[msg.sender] */\n      0x00\n        /* \"contracts/DegenToken.sol\":3232:3242  msg.sender */\n      caller\n        /* \"contracts/DegenToken.sol\":3220:3243  playerItems[msg.sender] */\n      0xffffffffffffffffffffffffffffffffffffffff\n      and\n      0xffffffffffffffffffffffffffffffffffffffff\n      and\n      dup2\n      mstore\n      0x20\n      add\n      swap1\n      dup2\n      mstore\n      0x20\n      add\n      0x00\n      keccak256\n        /* \"contracts/DegenToken.sol\":3249:3254  items */\n      0x06\n        /* \"contracts/DegenToken.sol\":3249:3263  items[_itemId] */\n      0x00\n        /* \"contracts/DegenToken.sol\":3255:3262  _itemId */\n      dup4\n        /* \"contracts/DegenToken.sol\":3249:3263  items[_itemId] */\n      0xff\n      and\n      0xff\n      and\n      dup2\n      mstore\n      0x20\n      add\n      swap1\n      dup2\n      mstore\n      0x20\n      add\n      0x00\n      keccak256\n        /* \"contracts/DegenToken.sol\":3220:3264  playerItems[msg.sender].push(items[_itemId]) */\n      swap1\n      dup1\n      0x01\n      dup2\n      sload\n      add\n      dup1\n      dup3\n      sstore\n      dup1\n      swap2\n      pop\n      pop\n      0x01\n      swap1\n      sub\n      swap1\n      0x00\n      mstore\n      keccak256(0x00, 0x20)\n      swap1\n      0x03\n      mul\n      add\n      0x00\n      swap1\n      swap2\n      swap1\n      swap2\n      swap1\n      swap2\n      pop\n      0x00\n      dup3\n      add\n      dup2\n      0x00\n      add\n      swap1\n      dup2\n      tag_219\n      swap2\n      swap1\n      tag_220\n      jump\t// in\n    tag_219:\n      pop\n      0x01\n      dup3\n      add\n      0x00\n      swap1\n      sload\n      swap1\n      0x0100\n      exp\n      swap1\n      div\n      0xff\n      and\n      dup2\n      0x01\n      add\n      exp(0x0100, 0x00)\n      dup2\n      sload\n      dup2\n      0xff\n      mul\n      not\n      and\n      swap1\n      dup4\n      0xff\n      and\n      mul\n      or\n      swap1\n      sstore\n      pop\n      0x02\n      dup3\n      add\n      sload\n      dup2\n      0x02\n      add\n      sstore\n      pop\n      pop\n        /* \"contracts/DegenToken.sol\":3296:3306  msg.sender */\n      caller\n        /* \"contracts/DegenToken.sol\":3282:3359  ItemPurchased(msg.sender, _itemId, items[_itemId].name, items[_itemId].price) */\n      0xffffffffffffffffffffffffffffffffffffffff\n      and\n      0x8bedd141782c49139782bd92bd7a760a0bcb544ffecfd2b25f00366fae06598e\n        /* \"contracts/DegenToken.sol\":3308:3315  _itemId */\n      dup3\n        /* \"contracts/DegenToken.sol\":3317:3322  items */\n      0x06\n        /* \"contracts/DegenToken.sol\":3317:3331  items[_itemId] */\n      0x00\n        /* \"contracts/DegenToken.sol\":3323:3330  _itemId */\n      dup6\n        /* \"contracts/DegenToken.sol\":3317:3331  items[_itemId] */\n      0xff\n      and\n      0xff\n      and\n      dup2\n      mstore\n      0x20\n      add\n      swap1\n      dup2\n      mstore\n      0x20\n      add\n      0x00\n      keccak256\n        /* \"contracts/DegenToken.sol\":3317:3336  items[_itemId].name */\n      0x00\n      add\n        /* \"contracts/DegenToken.sol\":3338:3343  items */\n      0x06\n        /* \"contracts/DegenToken.sol\":3338:3352  items[_itemId] */\n      0x00\n        /* \"contracts/DegenToken.sol\":3344:3351  _itemId */\n      dup7\n        /* \"contracts/DegenToken.sol\":3338:3352  items[_itemId] */\n      0xff\n      and\n      0xff\n      and\n      dup2\n      mstore\n      0x20\n      add\n      swap1\n      dup2\n      mstore\n      0x20\n      add\n      0x00\n      keccak256\n        /* \"contracts/DegenToken.sol\":3338:3358  items[_itemId].price */\n      0x02\n      add\n      sload\n        /* \"contracts/DegenToken.sol\":3282:3359  ItemPurchased(msg.sender, _itemId, items[_itemId].name, items[_itemId].price) */\n      mload(0x40)\n      tag_221\n      swap4\n      swap3\n      swap2\n      swap1\n      tag_222\n      jump\t// in\n    tag_221:\n      mload(0x40)\n      dup1\n      swap2\n      sub\n      swap1\n      log2\n        /* \"contracts/DegenToken.sol\":2972:3367  function purchaseItem(uint8 _itemId) external {... */\n      pop\n      jump\t// out\n        /* \"contracts/DegenToken.sol\":3375:3733  function getUserItems(address user) external view returns (uint8[] memory) {... */\n    tag_115:\n        /* \"contracts/DegenToken.sol\":3434:3448  uint8[] memory */\n      0x60\n        /* \"contracts/DegenToken.sol\":3461:3484  Item[] memory itemsList */\n      0x00\n        /* \"contracts/DegenToken.sol\":3487:3498  playerItems */\n      0x07\n        /* \"contracts/DegenToken.sol\":3487:3504  playerItems[user] */\n      0x00\n        /* \"contracts/DegenToken.sol\":3499:3503  user */\n      dup5\n        /* \"contracts/DegenToken.sol\":3487:3504  playerItems[user] */\n      0xffffffffffffffffffffffffffffffffffffffff\n      and\n      0xffffffffffffffffffffffffffffffffffffffff\n      and\n      dup2\n      mstore\n      0x20\n      add\n      swap1\n      dup2\n      mstore\n      0x20\n      add\n      0x00\n      keccak256\n        /* \"contracts/DegenToken.sol\":3461:3504  Item[] memory itemsList = playerItems[user] */\n      dup1\n      sload\n      dup1\n      0x20\n      mul\n      0x20\n      add\n      mload(0x40)\n      swap1\n      dup2\n      add\n      0x40\n      mstore\n      dup1\n      swap3\n      swap2\n      swap1\n      dup2\n      dup2\n      mstore\n      0x20\n      add\n      0x00\n      swap1\n    tag_224:\n      dup3\n      dup3\n      lt\n      iszero\n      tag_225\n      jumpi\n      dup4\n      dup3\n      swap1\n      0x00\n      mstore\n      keccak256(0x00, 0x20)\n      swap1\n      0x03\n      mul\n      add\n      mload(0x40)\n      dup1\n      0x60\n      add\n      0x40\n      mstore\n      swap1\n      dup2\n      0x00\n      dup3\n      add\n      dup1\n      sload\n      tag_227\n      swap1\n      tag_134\n      jump\t// in\n    tag_227:\n      dup1\n      0x1f\n      add\n      0x20\n      dup1\n      swap2\n      div\n      mul\n      0x20\n      add\n      mload(0x40)\n      swap1\n      dup2\n      add\n      0x40\n      mstore\n      dup1\n      swap3\n      swap2\n      swap1\n      dup2\n      dup2\n      mstore\n      0x20\n      add\n      dup3\n      dup1\n      sload\n      tag_228\n      swap1\n      tag_134\n      jump\t// in\n    tag_228:\n      dup1\n      iszero\n      tag_229\n      jumpi\n      dup1\n      0x1f\n      lt\n      tag_230\n      jumpi\n      0x0100\n      dup1\n      dup4\n      sload\n      div\n      mul\n      dup4\n      mstore\n      swap2\n      0x20\n      add\n      swap2\n      jump(tag_229)\n    tag_230:\n      dup3\n      add\n      swap2\n      swap1\n      0x00\n      mstore\n      keccak256(0x00, 0x20)\n      swap1\n    tag_231:\n      dup2\n      sload\n      dup2\n      mstore\n      swap1\n      0x01\n      add\n      swap1\n      0x20\n      add\n      dup1\n      dup4\n      gt\n      tag_231\n      jumpi\n      dup3\n      swap1\n      sub\n      0x1f\n      and\n      dup3\n      add\n      swap2\n    tag_229:\n      pop\n      pop\n      pop\n      pop\n      pop\n      dup2\n      mstore\n      0x20\n      add\n      0x01\n      dup3\n      add\n      0x00\n      swap1\n      sload\n      swap1\n      0x0100\n      exp\n      swap1\n      div\n      0xff\n      and\n      0xff\n      and\n      0xff\n      and\n      dup2\n      mstore\n      0x20\n      add\n      0x02\n      dup3\n      add\n      sload\n      dup2\n      mstore\n      pop\n      pop\n      dup2\n      mstore\n      0x20\n      add\n      swap1\n      0x01\n      add\n      swap1\n      jump(tag_224)\n    tag_225:\n      pop\n      pop\n      pop\n      pop\n      swap1\n      pop\n        /* \"contracts/DegenToken.sol\":3515:3526  uint length */\n      0x00\n        /* \"contracts/DegenToken.sol\":3529:3538  itemsList */\n      dup2\n        /* \"contracts/DegenToken.sol\":3529:3545  itemsList.length */\n      mload\n        /* \"contracts/DegenToken.sol\":3515:3545  uint length = itemsList.length */\n      swap1\n      pop\n        /* \"contracts/DegenToken.sol\":3558:3577  uint8[] memory _ids */\n      0x00\n        /* \"contracts/DegenToken.sol\":3592:3598  length */\n      dup2\n        /* \"contracts/DegenToken.sol\":3580:3599  new uint8[](length) */\n      0xffffffffffffffff\n      dup2\n      gt\n      iszero\n      tag_232\n      jumpi\n      tag_233\n      tag_234\n      jump\t// in\n    tag_233:\n    tag_232:\n      mload(0x40)\n      swap1\n      dup1\n      dup3\n      mstore\n      dup1\n      0x20\n      mul\n      0x20\n      add\n      dup3\n      add\n      0x40\n      mstore\n      dup1\n      iszero\n      tag_235\n      jumpi\n      dup2\n      0x20\n      add\n      0x20\n      dup3\n      mul\n      dup1\n      calldatasize\n      dup4\n      calldatacopy\n      dup1\n      dup3\n      add\n      swap2\n      pop\n      pop\n      swap1\n      pop\n    tag_235:\n      pop\n        /* \"contracts/DegenToken.sol\":3558:3599  uint8[] memory _ids = new uint8[](length) */\n      swap1\n      pop\n        /* \"contracts/DegenToken.sol\":3617:3623  uint i */\n      0x00\n        /* \"contracts/DegenToken.sol\":3612:3702  for (uint i = 0; i < length; i++) {... */\n    tag_236:\n        /* \"contracts/DegenToken.sol\":3633:3639  length */\n      dup3\n        /* \"contracts/DegenToken.sol\":3629:3630  i */\n      dup2\n        /* \"contracts/DegenToken.sol\":3629:3639  i < length */\n      lt\n        /* \"contracts/DegenToken.sol\":3612:3702  for (uint i = 0; i < length; i++) {... */\n      iszero\n      tag_237\n      jumpi\n        /* \"contracts/DegenToken.sol\":3671:3680  itemsList */\n      dup4\n        /* \"contracts/DegenToken.sol\":3681:3682  i */\n      dup2\n        /* \"contracts/DegenToken.sol\":3671:3683  itemsList[i] */\n      dup2\n      mload\n      dup2\n      lt\n      tag_239\n      jumpi\n      tag_240\n      tag_241\n      jump\t// in\n    tag_240:\n    tag_239:\n      0x20\n      mul\n      0x20\n      add\n      add\n      mload\n        /* \"contracts/DegenToken.sol\":3671:3690  itemsList[i].itemId */\n      0x20\n      add\n      mload\n        /* \"contracts/DegenToken.sol\":3661:3665  _ids */\n      dup3\n        /* \"contracts/DegenToken.sol\":3666:3667  i */\n      dup3\n        /* \"contracts/DegenToken.sol\":3661:3668  _ids[i] */\n      dup2\n      mload\n      dup2\n      lt\n      tag_242\n      jumpi\n      tag_243\n      tag_241\n      jump\t// in\n    tag_243:\n    tag_242:\n      0x20\n      mul\n      0x20\n      add\n      add\n        /* \"contracts/DegenToken.sol\":3661:3690  _ids[i] = itemsList[i].itemId */\n      swap1\n      0xff\n      and\n      swap1\n      dup2\n      0xff\n      and\n      dup2\n      mstore\n      pop\n      pop\n        /* \"contracts/DegenToken.sol\":3641:3644  i++ */\n      dup1\n      dup1\n      0x01\n      add\n      swap2\n      pop\n      pop\n        /* \"contracts/DegenToken.sol\":3612:3702  for (uint i = 0; i < length; i++) {... */\n      jump(tag_236)\n    tag_237:\n      pop\n        /* \"contracts/DegenToken.sol\":3721:3725  _ids */\n      dup1\n        /* \"contracts/DegenToken.sol\":3714:3725  return _ids */\n      swap4\n      pop\n      pop\n      pop\n      pop\n        /* \"contracts/DegenToken.sol\":3375:3733  function getUserItems(address user) external view returns (uint8[] memory) {... */\n      swap2\n      swap1\n      pop\n      jump\t// out\n        /* \"@openzeppelin/contracts/token/ERC20/ERC20.sol\":3846:3986  function allowance(address owner, address spender) public view virtual returns (uint256) {... */\n    tag_121:\n        /* \"@openzeppelin/contracts/token/ERC20/ERC20.sol\":3926:3933  uint256 */\n      0x00\n        /* \"@openzeppelin/contracts/token/ERC20/ERC20.sol\":3952:3963  _allowances */\n      0x01\n        /* \"@openzeppelin/contracts/token/ERC20/ERC20.sol\":3952:3970  _allowances[owner] */\n      0x00\n        /* \"@openzeppelin/contracts/token/ERC20/ERC20.sol\":3964:3969  owner */\n      dup5\n        /* \"@openzeppelin/contracts/token/ERC20/ERC20.sol\":3952:3970  _allowances[owner] */\n      0xffffffffffffffffffffffffffffffffffffffff\n      and\n      0xffffffffffffffffffffffffffffffffffffffff\n      and\n      dup2\n      mstore\n      0x20\n      add\n      swap1\n      dup2\n      mstore\n      0x20\n      add\n      0x00\n      keccak256\n        /* \"@openzeppelin/contracts/token/ERC20/ERC20.sol\":3952:3979  _allowances[owner][spender] */\n      0x00\n        /* \"@openzeppelin/contracts/token/ERC20/ERC20.sol\":3971:3978  spender */\n      dup4\n        /* \"@openzeppelin/contracts/token/ERC20/ERC20.sol\":3952:3979  _allowances[owner][spender] */\n      0xffffffffffffffffffffffffffffffffffffffff\n      and\n      0xffffffffffffffffffffffffffffffffffffffff\n      and\n      dup2\n      mstore\n      0x20\n      add\n      swap1\n      dup2\n      mstore\n      0x20\n      add\n      0x00\n      keccak256\n      sload\n        /* \"@openzeppelin/contracts/token/ERC20/ERC20.sol\":3945:3979  return _allowances[owner][spender] */\n      swap1\n      pop\n        /* \"@openzeppelin/contracts/token/ERC20/ERC20.sol\":3846:3986  function allowance(address owner, address spender) public view virtual returns (uint256) {... */\n      swap3\n      swap2\n      pop\n      pop\n      jump\t// out\n        /* \"contracts/DegenToken.sol\":2486:2960  function isLessThanFive(bool _prediction, uint256 _betAmount) public {... */\n    tag_126:\n        /* \"contracts/DegenToken.sol\":2566:2583  uint randomNumber */\n      0x00\n        /* \"contracts/DegenToken.sol\":2651:2653  10 */\n      0x0a\n        /* \"contracts/DegenToken.sol\":2618:2633  block.timestamp */\n      timestamp\n        /* \"contracts/DegenToken.sol\":2635:2645  msg.sender */\n      caller\n        /* \"contracts/DegenToken.sol\":2601:2646  abi.encodePacked(block.timestamp, msg.sender) */\n      add(0x20, mload(0x40))\n      tag_246\n      swap3\n      swap2\n      swap1\n      tag_247\n      jump\t// in\n    tag_246:\n      mload(0x40)\n      0x20\n      dup2\n      dup4\n      sub\n      sub\n      dup2\n      mstore\n      swap1\n      0x40\n      mstore\n        /* \"contracts/DegenToken.sol\":2591:2647  keccak256(abi.encodePacked(block.timestamp, msg.sender)) */\n      dup1\n      mload\n      swap1\n      0x20\n      add\n      keccak256\n        /* \"contracts/DegenToken.sol\":2586:2648  uint(keccak256(abi.encodePacked(block.timestamp, msg.sender))) */\n      0x00\n      shr\n        /* \"contracts/DegenToken.sol\":2586:2653  uint(keccak256(abi.encodePacked(block.timestamp, msg.sender))) % 10 */\n      tag_248\n      swap2\n      swap1\n      tag_249\n      jump\t// in\n    tag_248:\n        /* \"contracts/DegenToken.sol\":2566:2653  uint randomNumber = uint(keccak256(abi.encodePacked(block.timestamp, msg.sender))) % 10 */\n      swap1\n      pop\n        /* \"contracts/DegenToken.sol\":2698:2699  5 */\n      0x05\n        /* \"contracts/DegenToken.sol\":2685:2697  randomNumber */\n      dup2\n        /* \"contracts/DegenToken.sol\":2685:2699  randomNumber<5 */\n      lt\n        /* \"contracts/DegenToken.sol\":2670:2700  _prediction ==(randomNumber<5) */\n      iszero\n      iszero\n        /* \"contracts/DegenToken.sol\":2670:2681  _prediction */\n      dup4\n        /* \"contracts/DegenToken.sol\":2670:2700  _prediction ==(randomNumber<5) */\n      iszero\n      iszero\n      sub\n        /* \"contracts/DegenToken.sol\":2666:2953  if (_prediction ==(randomNumber<5)) {... */\n      tag_250\n      jumpi\n        /* \"contracts/DegenToken.sol\":2717:2748  _mint(msg.sender, _betAmount*2) */\n      tag_251\n        /* \"contracts/DegenToken.sol\":2723:2733  msg.sender */\n      caller\n        /* \"contracts/DegenToken.sol\":2746:2747  2 */\n      0x02\n        /* \"contracts/DegenToken.sol\":2735:2745  _betAmount */\n      dup5\n        /* \"contracts/DegenToken.sol\":2735:2747  _betAmount*2 */\n      tag_252\n      swap2\n      swap1\n      tag_253\n      jump\t// in\n    tag_252:\n        /* \"contracts/DegenToken.sol\":2717:2722  _mint */\n      tag_171\n        /* \"contracts/DegenToken.sol\":2717:2748  _mint(msg.sender, _betAmount*2) */\n      jump\t// in\n    tag_251:\n        /* \"contracts/DegenToken.sol\":2780:2790  msg.sender */\n      caller\n        /* \"contracts/DegenToken.sol\":2768:2818  GameOutcome(msg.sender, randomNumber, true, \"won\") */\n      0xffffffffffffffffffffffffffffffffffffffff\n      and\n      0xd04d9689d8e43bc0bacea67661ef472dcf321f34f08af72f651af30c4c866587\n        /* \"contracts/DegenToken.sol\":2792:2804  randomNumber */\n      dup3\n        /* \"contracts/DegenToken.sol\":2806:2810  true */\n      0x01\n        /* \"contracts/DegenToken.sol\":2768:2818  GameOutcome(msg.sender, randomNumber, true, \"won\") */\n      mload(0x40)\n      tag_254\n      swap3\n      swap2\n      swap1\n      tag_255\n      jump\t// in\n    tag_254:\n      mload(0x40)\n      dup1\n      swap2\n      sub\n      swap1\n      log2\n        /* \"contracts/DegenToken.sol\":2666:2953  if (_prediction ==(randomNumber<5)) {... */\n      jump(tag_256)\n    tag_250:\n        /* \"contracts/DegenToken.sol\":2853:2869  burn(_betAmount) */\n      tag_257\n        /* \"contracts/DegenToken.sol\":2858:2868  _betAmount */\n      dup3\n        /* \"contracts/DegenToken.sol\":2853:2857  burn */\n      tag_77\n        /* \"contracts/DegenToken.sol\":2853:2869  burn(_betAmount) */\n      jump\t// in\n    tag_257:\n        /* \"contracts/DegenToken.sol\":2901:2911  msg.sender */\n      caller\n        /* \"contracts/DegenToken.sol\":2889:2941  GameOutcome(msg.sender, randomNumber, false, \"lost\") */\n      0xffffffffffffffffffffffffffffffffffffffff\n      and\n      0xd04d9689d8e43bc0bacea67661ef472dcf321f34f08af72f651af30c4c866587\n        /* \"contracts/DegenToken.sol\":2913:2925  randomNumber */\n      dup3\n        /* \"contracts/DegenToken.sol\":2927:2932  false */\n      0x00\n        /* \"contracts/DegenToken.sol\":2889:2941  GameOutcome(msg.sender, randomNumber, false, \"lost\") */\n      mload(0x40)\n      tag_258\n      swap3\n      swap2\n      swap1\n      tag_259\n      jump\t// in\n    tag_258:\n      mload(0x40)\n      dup1\n      swap2\n      sub\n      swap1\n      log2\n        /* \"contracts/DegenToken.sol\":2666:2953  if (_prediction ==(randomNumber<5)) {... */\n    tag_256:\n        /* \"contracts/DegenToken.sol\":2555:2960  {... */\n      pop\n        /* \"contracts/DegenToken.sol\":2486:2960  function isLessThanFive(bool _prediction, uint256 _betAmount) public {... */\n      pop\n      pop\n      jump\t// out\n        /* \"@openzeppelin/contracts/access/Ownable.sol\":2543:2758  function transferOwnership(address newOwner) public virtual onlyOwner {... */\n    tag_129:\n        /* \"@openzeppelin/contracts/access/Ownable.sol\":1531:1544  _checkOwner() */\n      tag_261\n        /* \"@openzeppelin/contracts/access/Ownable.sol\":1531:1542  _checkOwner */\n      tag_168\n        /* \"@openzeppelin/contracts/access/Ownable.sol\":1531:1544  _checkOwner() */\n      jump\t// in\n    tag_261:\n        /* \"@openzeppelin/contracts/access/Ownable.sol\":2647:2648  0 */\n      0x00\n        /* \"@openzeppelin/contracts/access/Ownable.sol\":2627:2649  newOwner == address(0) */\n      0xffffffffffffffffffffffffffffffffffffffff\n      and\n        /* \"@openzeppelin/contracts/access/Ownable.sol\":2627:2635  newOwner */\n      dup2\n        /* \"@openzeppelin/contracts/access/Ownable.sol\":2627:2649  newOwner == address(0) */\n      0xffffffffffffffffffffffffffffffffffffffff\n      and\n      sub\n        /* \"@openzeppelin/contracts/access/Ownable.sol\":2623:2714  if (newOwner == address(0)) {... */\n      tag_263\n      jumpi\n        /* \"@openzeppelin/contracts/access/Ownable.sol\":2700:2701  0 */\n      0x00\n        /* \"@openzeppelin/contracts/access/Ownable.sol\":2672:2703  OwnableInvalidOwner(address(0)) */\n      mload(0x40)\n      0x1e4fbdf700000000000000000000000000000000000000000000000000000000\n      dup2\n      mstore\n      0x04\n      add\n      tag_264\n      swap2\n      swap1\n      tag_98\n      jump\t// in\n    tag_264:\n      mload(0x40)\n      dup1\n      swap2\n      sub\n      swap1\n      revert\n        /* \"@openzeppelin/contracts/access/Ownable.sol\":2623:2714  if (newOwner == address(0)) {... */\n    tag_263:\n        /* \"@openzeppelin/contracts/access/Ownable.sol\":2723:2751  _transferOwnership(newOwner) */\n      tag_265\n        /* \"@openzeppelin/contracts/access/Ownable.sol\":2742:2750  newOwner */\n      dup2\n        /* \"@openzeppelin/contracts/access/Ownable.sol\":2723:2741  _transferOwnership */\n      tag_188\n        /* \"@openzeppelin/contracts/access/Ownable.sol\":2723:2751  _transferOwnership(newOwner) */\n      jump\t// in\n    tag_265:\n        /* \"@openzeppelin/contracts/access/Ownable.sol\":2543:2758  function transferOwnership(address newOwner) public virtual onlyOwner {... */\n      pop\n      jump\t// out\n        /* \"contracts/DegenToken.sol\":2153:2315  function welcomeBonus() public {... */\n    tag_131:\n        /* \"contracts/DegenToken.sol\":2228:2229  0 */\n      0x00\n        /* \"contracts/DegenToken.sol\":2203:2224  balanceOf(msg.sender) */\n      tag_267\n        /* \"contracts/DegenToken.sol\":2213:2223  msg.sender */\n      caller\n        /* \"contracts/DegenToken.sol\":2203:2212  balanceOf */\n      tag_85\n        /* \"contracts/DegenToken.sol\":2203:2224  balanceOf(msg.sender) */\n      jump\t// in\n    tag_267:\n        /* \"contracts/DegenToken.sol\":2203:2229  balanceOf(msg.sender) == 0 */\n      eq\n        /* \"contracts/DegenToken.sol\":2195:2275  require(balanceOf(msg.sender) == 0, \"You've already claimed your welcome bonus\") */\n      tag_268\n      jumpi\n      mload(0x40)\n      0x08c379a000000000000000000000000000000000000000000000000000000000\n      dup2\n      mstore\n      0x04\n      add\n      tag_269\n      swap1\n      tag_270\n      jump\t// in\n    tag_269:\n      mload(0x40)\n      dup1\n      swap2\n      sub\n      swap1\n      revert\n    tag_268:\n        /* \"contracts/DegenToken.sol\":2286:2307  _mint(msg.sender, 50) */\n      tag_271\n        /* \"contracts/DegenToken.sol\":2292:2302  msg.sender */\n      caller\n        /* \"contracts/DegenToken.sol\":2304:2306  50 */\n      0x32\n        /* \"contracts/DegenToken.sol\":2286:2291  _mint */\n      tag_171\n        /* \"contracts/DegenToken.sol\":2286:2307  _mint(msg.sender, 50) */\n      jump\t// in\n    tag_271:\n        /* \"contracts/DegenToken.sol\":2153:2315  function welcomeBonus() public {... */\n      jump\t// out\n        /* \"@openzeppelin/contracts/utils/Context.sol\":656:752  function _msgSender() internal view virtual returns (address) {... */\n    tag_141:\n        /* \"@openzeppelin/contracts/utils/Context.sol\":709:716  address */\n      0x00\n        /* \"@openzeppelin/contracts/utils/Context.sol\":735:745  msg.sender */\n      caller\n        /* \"@openzeppelin/contracts/utils/Context.sol\":728:745  return msg.sender */\n      swap1\n      pop\n        /* \"@openzeppelin/contracts/utils/Context.sol\":656:752  function _msgSender() internal view virtual returns (address) {... */\n      swap1\n      jump\t// out\n        /* \"@openzeppelin/contracts/token/ERC20/ERC20.sol\":8989:9117  function _approve(address owner, address spender, uint256 value) internal {... */\n    tag_143:\n        /* \"@openzeppelin/contracts/token/ERC20/ERC20.sol\":9073:9110  _approve(owner, spender, value, true) */\n      tag_274\n        /* \"@openzeppelin/contracts/token/ERC20/ERC20.sol\":9082:9087  owner */\n      dup4\n        /* \"@openzeppelin/contracts/token/ERC20/ERC20.sol\":9089:9096  spender */\n      dup4\n        /* \"@openzeppelin/contracts/token/ERC20/ERC20.sol\":9098:9103  value */\n      dup4\n        /* \"@openzeppelin/contracts/token/ERC20/ERC20.sol\":9105:9109  true */\n      0x01\n        /* \"@openzeppelin/contracts/token/ERC20/ERC20.sol\":9073:9081  _approve */\n      tag_275\n        /* \"@openzeppelin/contracts/token/ERC20/ERC20.sol\":9073:9110  _approve(owner, spender, value, true) */\n      jump\t// in\n    tag_274:\n        /* \"@openzeppelin/contracts/token/ERC20/ERC20.sol\":8989:9117  function _approve(address owner, address spender, uint256 value) internal {... */\n      pop\n      pop\n      pop\n      jump\t// out\n        /* \"@openzeppelin/contracts/token/ERC20/ERC20.sol\":10663:11140  function _spendAllowance(address owner, address spender, uint256 value) internal virtual {... */\n    tag_156:\n        /* \"@openzeppelin/contracts/token/ERC20/ERC20.sol\":10762:10786  uint256 currentAllowance */\n      0x00\n        /* \"@openzeppelin/contracts/token/ERC20/ERC20.sol\":10789:10814  allowance(owner, spender) */\n      tag_277\n        /* \"@openzeppelin/contracts/token/ERC20/ERC20.sol\":10799:10804  owner */\n      dup5\n        /* \"@openzeppelin/contracts/token/ERC20/ERC20.sol\":10806:10813  spender */\n      dup5\n        /* \"@openzeppelin/contracts/token/ERC20/ERC20.sol\":10789:10798  allowance */\n      tag_121\n        /* \"@openzeppelin/contracts/token/ERC20/ERC20.sol\":10789:10814  allowance(owner, spender) */\n      jump\t// in\n    tag_277:\n        /* \"@openzeppelin/contracts/token/ERC20/ERC20.sol\":10762:10814  uint256 currentAllowance = allowance(owner, spender) */\n      swap1\n      pop\n        /* \"@openzeppelin/contracts/token/ERC20/ERC20.sol\":10848:10865  type(uint256).max */\n      0xffffffffffffffffffffffffffffffffffffffffffffffffffffffffffffffff\n        /* \"@openzeppelin/contracts/token/ERC20/ERC20.sol\":10828:10844  currentAllowance */\n      dup2\n        /* \"@openzeppelin/contracts/token/ERC20/ERC20.sol\":10828:10865  currentAllowance != type(uint256).max */\n      eq\n        /* \"@openzeppelin/contracts/token/ERC20/ERC20.sol\":10824:11134  if (currentAllowance != type(uint256).max) {... */\n      tag_278\n      jumpi\n        /* \"@openzeppelin/contracts/token/ERC20/ERC20.sol\":10904:10909  value */\n      dup2\n        /* \"@openzeppelin/contracts/token/ERC20/ERC20.sol\":10885:10901  currentAllowance */\n      dup2\n        /* \"@openzeppelin/contracts/token/ERC20/ERC20.sol\":10885:10909  currentAllowance < value */\n      lt\n        /* \"@openzeppelin/contracts/token/ERC20/ERC20.sol\":10881:11011  if (currentAllowance < value) {... */\n      iszero\n      tag_279\n      jumpi\n        /* \"@openzeppelin/contracts/token/ERC20/ERC20.sol\":10963:10970  spender */\n      dup3\n        /* \"@openzeppelin/contracts/token/ERC20/ERC20.sol\":10972:10988  currentAllowance */\n      dup2\n        /* \"@openzeppelin/contracts/token/ERC20/ERC20.sol\":10990:10995  value */\n      dup4\n        /* \"@openzeppelin/contracts/token/ERC20/ERC20.sol\":10936:10996  ERC20InsufficientAllowance(spender, currentAllowance, value) */\n      mload(0x40)\n      0xfb8f41b200000000000000000000000000000000000000000000000000000000\n      dup2\n      mstore\n      0x04\n      add\n      tag_280\n      swap4\n      swap3\n      swap2\n      swap1\n      tag_281\n      jump\t// in\n    tag_280:\n      mload(0x40)\n      dup1\n      swap2\n      sub\n      swap1\n      revert\n        /* \"@openzeppelin/contracts/token/ERC20/ERC20.sol\":10881:11011  if (currentAllowance < value) {... */\n    tag_279:\n        /* \"@openzeppelin/contracts/token/ERC20/ERC20.sol\":11052:11109  _approve(owner, spender, currentAllowance - value, false) */\n      tag_282\n        /* \"@openzeppelin/contracts/token/ERC20/ERC20.sol\":11061:11066  owner */\n      dup5\n        /* \"@openzeppelin/contracts/token/ERC20/ERC20.sol\":11068:11075  spender */\n      dup5\n        /* \"@openzeppelin/contracts/token/ERC20/ERC20.sol\":11096:11101  value */\n      dup5\n        /* \"@openzeppelin/contracts/token/ERC20/ERC20.sol\":11077:11093  currentAllowance */\n      dup5\n        /* \"@openzeppelin/contracts/token/ERC20/ERC20.sol\":11077:11101  currentAllowance - value */\n      sub\n        /* \"@openzeppelin/contracts/token/ERC20/ERC20.sol\":11103:11108  false */\n      0x00\n        /* \"@openzeppelin/contracts/token/ERC20/ERC20.sol\":11052:11060  _approve */\n      tag_275\n        /* \"@openzeppelin/contracts/token/ERC20/ERC20.sol\":11052:11109  _approve(owner, spender, currentAllowance - value, false) */\n      jump\t// in\n    tag_282:\n        /* \"@openzeppelin/contracts/token/ERC20/ERC20.sol\":10824:11134  if (currentAllowance != type(uint256).max) {... */\n    tag_278:\n        /* \"@openzeppelin/contracts/token/ERC20/ERC20.sol\":10752:11140  {... */\n      pop\n        /* \"@openzeppelin/contracts/token/ERC20/ERC20.sol\":10663:11140  function _spendAllowance(address owner, address spender, uint256 value) internal virtual {... */\n      pop\n      pop\n      pop\n      jump\t// out\n        /* \"@openzeppelin/contracts/token/ERC20/ERC20.sol\":5656:5956  function _transfer(address from, address to, uint256 value) internal {... */\n    tag_158:\n        /* \"@openzeppelin/contracts/token/ERC20/ERC20.sol\":5755:5756  0 */\n      0x00\n        /* \"@openzeppelin/contracts/token/ERC20/ERC20.sol\":5739:5757  from == address(0) */\n      0xffffffffffffffffffffffffffffffffffffffff\n      and\n        /* \"@openzeppelin/contracts/token/ERC20/ERC20.sol\":5739:5743  from */\n      dup4\n        /* \"@openzeppelin/contracts/token/ERC20/ERC20.sol\":5739:5757  from == address(0) */\n      0xffffffffffffffffffffffffffffffffffffffff\n      and\n      sub\n        /* \"@openzeppelin/contracts/token/ERC20/ERC20.sol\":5735:5821  if (from == address(0)) {... */\n      tag_284\n      jumpi\n        /* \"@openzeppelin/contracts/token/ERC20/ERC20.sol\":5807:5808  0 */\n      0x00\n        /* \"@openzeppelin/contracts/token/ERC20/ERC20.sol\":5780:5810  ERC20InvalidSender(address(0)) */\n      mload(0x40)\n      0x96c6fd1e00000000000000000000000000000000000000000000000000000000\n      dup2\n      mstore\n      0x04\n      add\n      tag_285\n      swap2\n      swap1\n      tag_98\n      jump\t// in\n    tag_285:\n      mload(0x40)\n      dup1\n      swap2\n      sub\n      swap1\n      revert\n        /* \"@openzeppelin/contracts/token/ERC20/ERC20.sol\":5735:5821  if (from == address(0)) {... */\n    tag_284:\n        /* \"@openzeppelin/contracts/token/ERC20/ERC20.sol\":5848:5849  0 */\n      0x00\n        /* \"@openzeppelin/contracts/token/ERC20/ERC20.sol\":5834:5850  to == address(0) */\n      0xffffffffffffffffffffffffffffffffffffffff\n      and\n        /* \"@openzeppelin/contracts/token/ERC20/ERC20.sol\":5834:5836  to */\n      dup3\n        /* \"@openzeppelin/contracts/token/ERC20/ERC20.sol\":5834:5850  to == address(0) */\n      0xffffffffffffffffffffffffffffffffffffffff\n      and\n      sub\n        /* \"@openzeppelin/contracts/token/ERC20/ERC20.sol\":5830:5916  if (to == address(0)) {... */\n      tag_286\n      jumpi\n        /* \"@openzeppelin/contracts/token/ERC20/ERC20.sol\":5902:5903  0 */\n      0x00\n        /* \"@openzeppelin/contracts/token/ERC20/ERC20.sol\":5873:5905  ERC20InvalidReceiver(address(0)) */\n      mload(0x40)\n      0xec442f0500000000000000000000000000000000000000000000000000000000\n      dup2\n      mstore\n      0x04\n      add\n      tag_287\n      swap2\n      swap1\n      tag_98\n      jump\t// in\n    tag_287:\n      mload(0x40)\n      dup1\n      swap2\n      sub\n      swap1\n      revert\n        /* \"@openzeppelin/contracts/token/ERC20/ERC20.sol\":5830:5916  if (to == address(0)) {... */\n    tag_286:\n        /* \"@openzeppelin/contracts/token/ERC20/ERC20.sol\":5925:5949  _update(from, to, value) */\n      tag_288\n        /* \"@openzeppelin/contracts/token/ERC20/ERC20.sol\":5933:5937  from */\n      dup4\n        /* \"@openzeppelin/contracts/token/ERC20/ERC20.sol\":5939:5941  to */\n      dup4\n        /* \"@openzeppelin/contracts/token/ERC20/ERC20.sol\":5943:5948  value */\n      dup4\n        /* \"@openzeppelin/contracts/token/ERC20/ERC20.sol\":5925:5932  _update */\n      tag_289\n        /* \"@openzeppelin/contracts/token/ERC20/ERC20.sol\":5925:5949  _update(from, to, value) */\n      jump\t// in\n    tag_288:\n        /* \"@openzeppelin/contracts/token/ERC20/ERC20.sol\":5656:5956  function _transfer(address from, address to, uint256 value) internal {... */\n      pop\n      pop\n      pop\n      jump\t// out\n        /* \"@openzeppelin/contracts/access/Ownable.sol\":1796:1958  function _checkOwner() internal view virtual {... */\n    tag_168:\n        /* \"@openzeppelin/contracts/access/Ownable.sol\":1866:1878  _msgSender() */\n      tag_291\n        /* \"@openzeppelin/contracts/access/Ownable.sol\":1866:1876  _msgSender */\n      tag_141\n        /* \"@openzeppelin/contracts/access/Ownable.sol\":1866:1878  _msgSender() */\n      jump\t// in\n    tag_291:\n        /* \"@openzeppelin/contracts/access/Ownable.sol\":1855:1878  owner() != _msgSender() */\n      0xffffffffffffffffffffffffffffffffffffffff\n      and\n        /* \"@openzeppelin/contracts/access/Ownable.sol\":1855:1862  owner() */\n      tag_292\n        /* \"@openzeppelin/contracts/access/Ownable.sol\":1855:1860  owner */\n      tag_96\n        /* \"@openzeppelin/contracts/access/Ownable.sol\":1855:1862  owner() */\n      jump\t// in\n    tag_292:\n        /* \"@openzeppelin/contracts/access/Ownable.sol\":1855:1878  owner() != _msgSender() */\n      0xffffffffffffffffffffffffffffffffffffffff\n      and\n      eq\n        /* \"@openzeppelin/contracts/access/Ownable.sol\":1851:1952  if (owner() != _msgSender()) {... */\n      tag_293\n      jumpi\n        /* \"@openzeppelin/contracts/access/Ownable.sol\":1928:1940  _msgSender() */\n      tag_294\n        /* \"@openzeppelin/contracts/access/Ownable.sol\":1928:1938  _msgSender */\n      tag_141\n        /* \"@openzeppelin/contracts/access/Ownable.sol\":1928:1940  _msgSender() */\n      jump\t// in\n    tag_294:\n        /* \"@openzeppelin/contracts/access/Ownable.sol\":1901:1941  OwnableUnauthorizedAccount(_msgSender()) */\n      mload(0x40)\n      0x118cdaa700000000000000000000000000000000000000000000000000000000\n      dup2\n      mstore\n      0x04\n      add\n      tag_295\n      swap2\n      swap1\n      tag_98\n      jump\t// in\n    tag_295:\n      mload(0x40)\n      dup1\n      swap2\n      sub\n      swap1\n      revert\n        /* \"@openzeppelin/contracts/access/Ownable.sol\":1851:1952  if (owner() != _msgSender()) {... */\n    tag_293:\n        /* \"@openzeppelin/contracts/access/Ownable.sol\":1796:1958  function _checkOwner() internal view virtual {... */\n      jump\t// out\n        /* \"@openzeppelin/contracts/token/ERC20/ERC20.sol\":7721:7929  function _mint(address account, uint256 value) internal {... */\n    tag_171:\n        /* \"@openzeppelin/contracts/token/ERC20/ERC20.sol\":7810:7811  0 */\n      0x00\n        /* \"@openzeppelin/contracts/token/ERC20/ERC20.sol\":7791:7812  account == address(0) */\n      0xffffffffffffffffffffffffffffffffffffffff\n      and\n        /* \"@openzeppelin/contracts/token/ERC20/ERC20.sol\":7791:7798  account */\n      dup3\n        /* \"@openzeppelin/contracts/token/ERC20/ERC20.sol\":7791:7812  account == address(0) */\n      0xffffffffffffffffffffffffffffffffffffffff\n      and\n      sub\n        /* \"@openzeppelin/contracts/token/ERC20/ERC20.sol\":7787:7878  if (account == address(0)) {... */\n      tag_297\n      jumpi\n        /* \"@openzeppelin/contracts/token/ERC20/ERC20.sol\":7864:7865  0 */\n      0x00\n        /* \"@openzeppelin/contracts/token/ERC20/ERC20.sol\":7835:7867  ERC20InvalidReceiver(address(0)) */\n      mload(0x40)\n      0xec442f0500000000000000000000000000000000000000000000000000000000\n      dup2\n      mstore\n      0x04\n      add\n      tag_298\n      swap2\n      swap1\n      tag_98\n      jump\t// in\n    tag_298:\n      mload(0x40)\n      dup1\n      swap2\n      sub\n      swap1\n      revert\n        /* \"@openzeppelin/contracts/token/ERC20/ERC20.sol\":7787:7878  if (account == address(0)) {... */\n    tag_297:\n        /* \"@openzeppelin/contracts/token/ERC20/ERC20.sol\":7887:7922  _update(address(0), account, value) */\n      tag_299\n        /* \"@openzeppelin/contracts/token/ERC20/ERC20.sol\":7903:7904  0 */\n      0x00\n        /* \"@openzeppelin/contracts/token/ERC20/ERC20.sol\":7907:7914  account */\n      dup4\n        /* \"@openzeppelin/contracts/token/ERC20/ERC20.sol\":7916:7921  value */\n      dup4\n        /* \"@openzeppelin/contracts/token/ERC20/ERC20.sol\":7887:7894  _update */\n      tag_289\n        /* \"@openzeppelin/contracts/token/ERC20/ERC20.sol\":7887:7922  _update(address(0), account, value) */\n      jump\t// in\n    tag_299:\n        /* \"@openzeppelin/contracts/token/ERC20/ERC20.sol\":7721:7929  function _mint(address account, uint256 value) internal {... */\n      pop\n      pop\n      jump\t// out\n        /* \"@openzeppelin/contracts/token/ERC20/ERC20.sol\":8247:8453  function _burn(address account, uint256 value) internal {... */\n    tag_175:\n        /* \"@openzeppelin/contracts/token/ERC20/ERC20.sol\":8336:8337  0 */\n      0x00\n        /* \"@openzeppelin/contracts/token/ERC20/ERC20.sol\":8317:8338  account == address(0) */\n      0xffffffffffffffffffffffffffffffffffffffff\n      and\n        /* \"@openzeppelin/contracts/token/ERC20/ERC20.sol\":8317:8324  account */\n      dup3\n        /* \"@openzeppelin/contracts/token/ERC20/ERC20.sol\":8317:8338  account == address(0) */\n      0xffffffffffffffffffffffffffffffffffffffff\n      and\n      sub\n        /* \"@openzeppelin/contracts/token/ERC20/ERC20.sol\":8313:8402  if (account == address(0)) {... */\n      tag_301\n      jumpi\n        /* \"@openzeppelin/contracts/token/ERC20/ERC20.sol\":8388:8389  0 */\n      0x00\n        /* \"@openzeppelin/contracts/token/ERC20/ERC20.sol\":8361:8391  ERC20InvalidSender(address(0)) */\n      mload(0x40)\n      0x96c6fd1e00000000000000000000000000000000000000000000000000000000\n      dup2\n      mstore\n      0x04\n      add\n      tag_302\n      swap2\n      swap1\n      tag_98\n      jump\t// in\n    tag_302:\n      mload(0x40)\n      dup1\n      swap2\n      sub\n      swap1\n      revert\n        /* \"@openzeppelin/contracts/token/ERC20/ERC20.sol\":8313:8402  if (account == address(0)) {... */\n    tag_301:\n        /* \"@openzeppelin/contracts/token/ERC20/ERC20.sol\":8411:8446  _update(account, address(0), value) */\n      tag_303\n        /* \"@openzeppelin/contracts/token/ERC20/ERC20.sol\":8419:8426  account */\n      dup3\n        /* \"@openzeppelin/contracts/token/ERC20/ERC20.sol\":8436:8437  0 */\n      0x00\n        /* \"@openzeppelin/contracts/token/ERC20/ERC20.sol\":8440:8445  value */\n      dup4\n        /* \"@openzeppelin/contracts/token/ERC20/ERC20.sol\":8411:8418  _update */\n      tag_289\n        /* \"@openzeppelin/contracts/token/ERC20/ERC20.sol\":8411:8446  _update(account, address(0), value) */\n      jump\t// in\n    tag_303:\n        /* \"@openzeppelin/contracts/token/ERC20/ERC20.sol\":8247:8453  function _burn(address account, uint256 value) internal {... */\n      pop\n      pop\n      jump\t// out\n        /* \"@openzeppelin/contracts/access/Ownable.sol\":2912:3099  function _transferOwnership(address newOwner) internal virtual {... */\n    tag_188:\n        /* \"@openzeppelin/contracts/access/Ownable.sol\":2985:3001  address oldOwner */\n      0x00\n        /* \"@openzeppelin/contracts/access/Ownable.sol\":3004:3010  _owner */\n      0x05\n      0x00\n      swap1\n      sload\n      swap1\n      0x0100\n      exp\n      swap1\n      div\n      0xffffffffffffffffffffffffffffffffffffffff\n      and\n        /* \"@openzeppelin/contracts/access/Ownable.sol\":2985:3010  address oldOwner = _owner */\n      swap1\n      pop\n        /* \"@openzeppelin/contracts/access/Ownable.sol\":3029:3037  newOwner */\n      dup2\n        /* \"@openzeppelin/contracts/access/Ownable.sol\":3020:3026  _owner */\n      0x05\n      0x00\n        /* \"@openzeppelin/contracts/access/Ownable.sol\":3020:3037  _owner = newOwner */\n      0x0100\n      exp\n      dup2\n      sload\n      dup2\n      0xffffffffffffffffffffffffffffffffffffffff\n      mul\n      not\n      and\n      swap1\n      dup4\n      0xffffffffffffffffffffffffffffffffffffffff\n      and\n      mul\n      or\n      swap1\n      sstore\n      pop\n        /* \"@openzeppelin/contracts/access/Ownable.sol\":3083:3091  newOwner */\n      dup2\n        /* \"@openzeppelin/contracts/access/Ownable.sol\":3052:3092  OwnershipTransferred(oldOwner, newOwner) */\n      0xffffffffffffffffffffffffffffffffffffffff\n      and\n        /* \"@openzeppelin/contracts/access/Ownable.sol\":3073:3081  oldOwner */\n      dup2\n        /* \"@openzeppelin/contracts/access/Ownable.sol\":3052:3092  OwnershipTransferred(oldOwner, newOwner) */\n      0xffffffffffffffffffffffffffffffffffffffff\n      and\n      0x8be0079c531659141344cd1fd0a4f28419497f9722a3daafe3b4186f6b6457e0\n      mload(0x40)\n      mload(0x40)\n      dup1\n      swap2\n      sub\n      swap1\n      log3\n        /* \"@openzeppelin/contracts/access/Ownable.sol\":2975:3099  {... */\n      pop\n        /* \"@openzeppelin/contracts/access/Ownable.sol\":2912:3099  function _transferOwnership(address newOwner) internal virtual {... */\n      pop\n      jump\t// out\n        /* \"@openzeppelin/contracts/token/ERC20/ERC20.sol\":9949:10381  function _approve(address owner, address spender, uint256 value, bool emitEvent) internal virtual {... */\n    tag_275:\n        /* \"@openzeppelin/contracts/token/ERC20/ERC20.sol\":10078:10079  0 */\n      0x00\n        /* \"@openzeppelin/contracts/token/ERC20/ERC20.sol\":10061:10080  owner == address(0) */\n      0xffffffffffffffffffffffffffffffffffffffff\n      and\n        /* \"@openzeppelin/contracts/token/ERC20/ERC20.sol\":10061:10066  owner */\n      dup5\n        /* \"@openzeppelin/contracts/token/ERC20/ERC20.sol\":10061:10080  owner == address(0) */\n      0xffffffffffffffffffffffffffffffffffffffff\n      and\n      sub\n        /* \"@openzeppelin/contracts/token/ERC20/ERC20.sol\":10057:10146  if (owner == address(0)) {... */\n      tag_306\n      jumpi\n        /* \"@openzeppelin/contracts/token/ERC20/ERC20.sol\":10132:10133  0 */\n      0x00\n        /* \"@openzeppelin/contracts/token/ERC20/ERC20.sol\":10103:10135  ERC20InvalidApprover(address(0)) */\n      mload(0x40)\n      0xe602df0500000000000000000000000000000000000000000000000000000000\n      dup2\n      mstore\n      0x04\n      add\n      tag_307\n      swap2\n      swap1\n      tag_98\n      jump\t// in\n    tag_307:\n      mload(0x40)\n      dup1\n      swap2\n      sub\n      swap1\n      revert\n        /* \"@openzeppelin/contracts/token/ERC20/ERC20.sol\":10057:10146  if (owner == address(0)) {... */\n    tag_306:\n        /* \"@openzeppelin/contracts/token/ERC20/ERC20.sol\":10178:10179  0 */\n      0x00\n        /* \"@openzeppelin/contracts/token/ERC20/ERC20.sol\":10159:10180  spender == address(0) */\n      0xffffffffffffffffffffffffffffffffffffffff\n      and\n        /* \"@openzeppelin/contracts/token/ERC20/ERC20.sol\":10159:10166  spender */\n      dup4\n        /* \"@openzeppelin/contracts/token/ERC20/ERC20.sol\":10159:10180  spender == address(0) */\n      0xffffffffffffffffffffffffffffffffffffffff\n      and\n      sub\n        /* \"@openzeppelin/contracts/token/ERC20/ERC20.sol\":10155:10245  if (spender == address(0)) {... */\n      tag_308\n      jumpi\n        /* \"@openzeppelin/contracts/token/ERC20/ERC20.sol\":10231:10232  0 */\n      0x00\n        /* \"@openzeppelin/contracts/token/ERC20/ERC20.sol\":10203:10234  ERC20InvalidSpender(address(0)) */\n      mload(0x40)\n      0x94280d6200000000000000000000000000000000000000000000000000000000\n      dup2\n      mstore\n      0x04\n      add\n      tag_309\n      swap2\n      swap1\n      tag_98\n      jump\t// in\n    tag_309:\n      mload(0x40)\n      dup1\n      swap2\n      sub\n      swap1\n      revert\n        /* \"@openzeppelin/contracts/token/ERC20/ERC20.sol\":10155:10245  if (spender == address(0)) {... */\n    tag_308:\n        /* \"@openzeppelin/contracts/token/ERC20/ERC20.sol\":10284:10289  value */\n      dup2\n        /* \"@openzeppelin/contracts/token/ERC20/ERC20.sol\":10254:10265  _allowances */\n      0x01\n        /* \"@openzeppelin/contracts/token/ERC20/ERC20.sol\":10254:10272  _allowances[owner] */\n      0x00\n        /* \"@openzeppelin/contracts/token/ERC20/ERC20.sol\":10266:10271  owner */\n      dup7\n        /* \"@openzeppelin/contracts/token/ERC20/ERC20.sol\":10254:10272  _allowances[owner] */\n      0xffffffffffffffffffffffffffffffffffffffff\n      and\n      0xffffffffffffffffffffffffffffffffffffffff\n      and\n      dup2\n      mstore\n      0x20\n      add\n      swap1\n      dup2\n      mstore\n      0x20\n      add\n      0x00\n      keccak256\n        /* \"@openzeppelin/contracts/token/ERC20/ERC20.sol\":10254:10281  _allowances[owner][spender] */\n      0x00\n        /* \"@openzeppelin/contracts/token/ERC20/ERC20.sol\":10273:10280  spender */\n      dup6\n        /* \"@openzeppelin/contracts/token/ERC20/ERC20.sol\":10254:10281  _allowances[owner][spender] */\n      0xffffffffffffffffffffffffffffffffffffffff\n      and\n      0xffffffffffffffffffffffffffffffffffffffff\n      and\n      dup2\n      mstore\n      0x20\n      add\n      swap1\n      dup2\n      mstore\n      0x20\n      add\n      0x00\n      keccak256\n        /* \"@openzeppelin/contracts/token/ERC20/ERC20.sol\":10254:10289  _allowances[owner][spender] = value */\n      dup2\n      swap1\n      sstore\n      pop\n        /* \"@openzeppelin/contracts/token/ERC20/ERC20.sol\":10303:10312  emitEvent */\n      dup1\n        /* \"@openzeppelin/contracts/token/ERC20/ERC20.sol\":10299:10375  if (emitEvent) {... */\n      iszero\n      tag_310\n      jumpi\n        /* \"@openzeppelin/contracts/token/ERC20/ERC20.sol\":10349:10356  spender */\n      dup3\n        /* \"@openzeppelin/contracts/token/ERC20/ERC20.sol\":10333:10364  Approval(owner, spender, value) */\n      0xffffffffffffffffffffffffffffffffffffffff\n      and\n        /* \"@openzeppelin/contracts/token/ERC20/ERC20.sol\":10342:10347  owner */\n      dup5\n        /* \"@openzeppelin/contracts/token/ERC20/ERC20.sol\":10333:10364  Approval(owner, spender, value) */\n      0xffffffffffffffffffffffffffffffffffffffff\n      and\n      0x8c5be1e5ebec7d5bd14f71427d1e84f3dd0314c0f7b2291e5b200ac8c7c3b925\n        /* \"@openzeppelin/contracts/token/ERC20/ERC20.sol\":10358:10363  value */\n      dup5\n        /* \"@openzeppelin/contracts/token/ERC20/ERC20.sol\":10333:10364  Approval(owner, spender, value) */\n      mload(0x40)\n      tag_311\n      swap2\n      swap1\n      tag_50\n      jump\t// in\n    tag_311:\n      mload(0x40)\n      dup1\n      swap2\n      sub\n      swap1\n      log3\n        /* \"@openzeppelin/contracts/token/ERC20/ERC20.sol\":10299:10375  if (emitEvent) {... */\n    tag_310:\n        /* \"@openzeppelin/contracts/token/ERC20/ERC20.sol\":9949:10381  function _approve(address owner, address spender, uint256 value, bool emitEvent) internal virtual {... */\n      pop\n      pop\n      pop\n      pop\n      jump\t// out\n        /* \"@openzeppelin/contracts/token/ERC20/ERC20.sol\":6271:7378  function _update(address from, address to, uint256 value) internal virtual {... */\n    tag_289:\n        /* \"@openzeppelin/contracts/token/ERC20/ERC20.sol\":6376:6377  0 */\n      0x00\n        /* \"@openzeppelin/contracts/token/ERC20/ERC20.sol\":6360:6378  from == address(0) */\n      0xffffffffffffffffffffffffffffffffffffffff\n      and\n        /* \"@openzeppelin/contracts/token/ERC20/ERC20.sol\":6360:6364  from */\n      dup4\n        /* \"@openzeppelin/contracts/token/ERC20/ERC20.sol\":6360:6378  from == address(0) */\n      0xffffffffffffffffffffffffffffffffffffffff\n      and\n      sub\n        /* \"@openzeppelin/contracts/token/ERC20/ERC20.sol\":6356:6896  if (from == address(0)) {... */\n      tag_313\n      jumpi\n        /* \"@openzeppelin/contracts/token/ERC20/ERC20.sol\":6512:6517  value */\n      dup1\n        /* \"@openzeppelin/contracts/token/ERC20/ERC20.sol\":6496:6508  _totalSupply */\n      0x02\n      0x00\n        /* \"@openzeppelin/contracts/token/ERC20/ERC20.sol\":6496:6517  _totalSupply += value */\n      dup3\n      dup3\n      sload\n      tag_314\n      swap2\n      swap1\n      tag_315\n      jump\t// in\n    tag_314:\n      swap3\n      pop\n      pop\n      dup2\n      swap1\n      sstore\n      pop\n        /* \"@openzeppelin/contracts/token/ERC20/ERC20.sol\":6356:6896  if (from == address(0)) {... */\n      jump(tag_316)\n    tag_313:\n        /* \"@openzeppelin/contracts/token/ERC20/ERC20.sol\":6548:6567  uint256 fromBalance */\n      0x00\n        /* \"@openzeppelin/contracts/token/ERC20/ERC20.sol\":6570:6579  _balances */\n      dup1\n        /* \"@openzeppelin/contracts/token/ERC20/ERC20.sol\":6570:6585  _balances[from] */\n      0x00\n        /* \"@openzeppelin/contracts/token/ERC20/ERC20.sol\":6580:6584  from */\n      dup6\n        /* \"@openzeppelin/contracts/token/ERC20/ERC20.sol\":6570:6585  _balances[from] */\n      0xffffffffffffffffffffffffffffffffffffffff\n      and\n      0xffffffffffffffffffffffffffffffffffffffff\n      and\n      dup2\n      mstore\n      0x20\n      add\n      swap1\n      dup2\n      mstore\n      0x20\n      add\n      0x00\n      keccak256\n      sload\n        /* \"@openzeppelin/contracts/token/ERC20/ERC20.sol\":6548:6585  uint256 fromBalance = _balances[from] */\n      swap1\n      pop\n        /* \"@openzeppelin/contracts/token/ERC20/ERC20.sol\":6617:6622  value */\n      dup2\n        /* \"@openzeppelin/contracts/token/ERC20/ERC20.sol\":6603:6614  fromBalance */\n      dup2\n        /* \"@openzeppelin/contracts/token/ERC20/ERC20.sol\":6603:6622  fromBalance < value */\n      lt\n        /* \"@openzeppelin/contracts/token/ERC20/ERC20.sol\":6599:6714  if (fromBalance < value) {... */\n      iszero\n      tag_317\n      jumpi\n        /* \"@openzeppelin/contracts/token/ERC20/ERC20.sol\":6674:6678  from */\n      dup4\n        /* \"@openzeppelin/contracts/token/ERC20/ERC20.sol\":6680:6691  fromBalance */\n      dup2\n        /* \"@openzeppelin/contracts/token/ERC20/ERC20.sol\":6693:6698  value */\n      dup4\n        /* \"@openzeppelin/contracts/token/ERC20/ERC20.sol\":6649:6699  ERC20InsufficientBalance(from, fromBalance, value) */\n      mload(0x40)\n      0xe450d38c00000000000000000000000000000000000000000000000000000000\n      dup2\n      mstore\n      0x04\n      add\n      tag_318\n      swap4\n      swap3\n      swap2\n      swap1\n      tag_281\n      jump\t// in\n    tag_318:\n      mload(0x40)\n      dup1\n      swap2\n      sub\n      swap1\n      revert\n        /* \"@openzeppelin/contracts/token/ERC20/ERC20.sol\":6599:6714  if (fromBalance < value) {... */\n    tag_317:\n        /* \"@openzeppelin/contracts/token/ERC20/ERC20.sol\":6866:6871  value */\n      dup2\n        /* \"@openzeppelin/contracts/token/ERC20/ERC20.sol\":6852:6863  fromBalance */\n      dup2\n        /* \"@openzeppelin/contracts/token/ERC20/ERC20.sol\":6852:6871  fromBalance - value */\n      sub\n        /* \"@openzeppelin/contracts/token/ERC20/ERC20.sol\":6834:6843  _balances */\n      0x00\n        /* \"@openzeppelin/contracts/token/ERC20/ERC20.sol\":6834:6849  _balances[from] */\n      dup1\n        /* \"@openzeppelin/contracts/token/ERC20/ERC20.sol\":6844:6848  from */\n      dup7\n        /* \"@openzeppelin/contracts/token/ERC20/ERC20.sol\":6834:6849  _balances[from] */\n      0xffffffffffffffffffffffffffffffffffffffff\n      and\n      0xffffffffffffffffffffffffffffffffffffffff\n      and\n      dup2\n      mstore\n      0x20\n      add\n      swap1\n      dup2\n      mstore\n      0x20\n      add\n      0x00\n      keccak256\n        /* \"@openzeppelin/contracts/token/ERC20/ERC20.sol\":6834:6871  _balances[from] = fromBalance - value */\n      dup2\n      swap1\n      sstore\n      pop\n        /* \"@openzeppelin/contracts/token/ERC20/ERC20.sol\":6534:6896  {... */\n      pop\n        /* \"@openzeppelin/contracts/token/ERC20/ERC20.sol\":6356:6896  if (from == address(0)) {... */\n    tag_316:\n        /* \"@openzeppelin/contracts/token/ERC20/ERC20.sol\":6924:6925  0 */\n      0x00\n        /* \"@openzeppelin/contracts/token/ERC20/ERC20.sol\":6910:6926  to == address(0) */\n      0xffffffffffffffffffffffffffffffffffffffff\n      and\n        /* \"@openzeppelin/contracts/token/ERC20/ERC20.sol\":6910:6912  to */\n      dup3\n        /* \"@openzeppelin/contracts/token/ERC20/ERC20.sol\":6910:6926  to == address(0) */\n      0xffffffffffffffffffffffffffffffffffffffff\n      and\n      sub\n        /* \"@openzeppelin/contracts/token/ERC20/ERC20.sol\":6906:7331  if (to == address(0)) {... */\n      tag_319\n      jumpi\n        /* \"@openzeppelin/contracts/token/ERC20/ERC20.sol\":7089:7094  value */\n      dup1\n        /* \"@openzeppelin/contracts/token/ERC20/ERC20.sol\":7073:7085  _totalSupply */\n      0x02\n      0x00\n        /* \"@openzeppelin/contracts/token/ERC20/ERC20.sol\":7073:7094  _totalSupply -= value */\n      dup3\n      dup3\n      sload\n      sub\n      swap3\n      pop\n      pop\n      dup2\n      swap1\n      sstore\n      pop\n        /* \"@openzeppelin/contracts/token/ERC20/ERC20.sol\":6906:7331  if (to == address(0)) {... */\n      jump(tag_320)\n    tag_319:\n        /* \"@openzeppelin/contracts/token/ERC20/ERC20.sol\":7301:7306  value */\n      dup1\n        /* \"@openzeppelin/contracts/token/ERC20/ERC20.sol\":7284:7293  _balances */\n      0x00\n        /* \"@openzeppelin/contracts/token/ERC20/ERC20.sol\":7284:7297  _balances[to] */\n      dup1\n        /* \"@openzeppelin/contracts/token/ERC20/ERC20.sol\":7294:7296  to */\n      dup5\n        /* \"@openzeppelin/contracts/token/ERC20/ERC20.sol\":7284:7297  _balances[to] */\n      0xffffffffffffffffffffffffffffffffffffffff\n      and\n      0xffffffffffffffffffffffffffffffffffffffff\n      and\n      dup2\n      mstore\n      0x20\n      add\n      swap1\n      dup2\n      mstore\n      0x20\n      add\n      0x00\n      keccak256\n      0x00\n        /* \"@openzeppelin/contracts/token/ERC20/ERC20.sol\":7284:7306  _balances[to] += value */\n      dup3\n      dup3\n      sload\n      add\n      swap3\n      pop\n      pop\n      dup2\n      swap1\n      sstore\n      pop\n        /* \"@openzeppelin/contracts/token/ERC20/ERC20.sol\":6906:7331  if (to == address(0)) {... */\n    tag_320:\n        /* \"@openzeppelin/contracts/token/ERC20/ERC20.sol\":7361:7363  to */\n      dup2\n        /* \"@openzeppelin/contracts/token/ERC20/ERC20.sol\":7346:7371  Transfer(from, to, value) */\n      0xffffffffffffffffffffffffffffffffffffffff\n      and\n        /* \"@openzeppelin/contracts/token/ERC20/ERC20.sol\":7355:7359  from */\n      dup4\n        /* \"@openzeppelin/contracts/token/ERC20/ERC20.sol\":7346:7371  Transfer(from, to, value) */\n      0xffffffffffffffffffffffffffffffffffffffff\n      and\n      0xddf252ad1be2c89b69c2b068fc378daa952ba7f163c4a11628f55a4df523b3ef\n        /* \"@openzeppelin/contracts/token/ERC20/ERC20.sol\":7365:7370  value */\n      dup4\n        /* \"@openzeppelin/contracts/token/ERC20/ERC20.sol\":7346:7371  Transfer(from, to, value) */\n      mload(0x40)\n      tag_321\n      swap2\n      swap1\n      tag_50\n      jump\t// in\n    tag_321:\n      mload(0x40)\n      dup1\n      swap2\n      sub\n      swap1\n      log3\n        /* \"@openzeppelin/contracts/token/ERC20/ERC20.sol\":6271:7378  function _update(address from, address to, uint256 value) internal virtual {... */\n      pop\n      pop\n      pop\n      jump\t// out\n        /* \"#utility.yul\":7:106   */\n    tag_322:\n        /* \"#utility.yul\":59:65   */\n      0x00\n        /* \"#utility.yul\":93:98   */\n      dup2\n        /* \"#utility.yul\":87:99   */\n      mload\n        /* \"#utility.yul\":77:99   */\n      swap1\n      pop\n        /* \"#utility.yul\":7:106   */\n      swap2\n      swap1\n      pop\n      jump\t// out\n        /* \"#utility.yul\":112:281   */\n    tag_323:\n        /* \"#utility.yul\":196:207   */\n      0x00\n        /* \"#utility.yul\":230:236   */\n      dup3\n        /* \"#utility.yul\":225:228   */\n      dup3\n        /* \"#utility.yul\":218:237   */\n      mstore\n        /* \"#utility.yul\":270:274   */\n      0x20\n        /* \"#utility.yul\":265:268   */\n      dup3\n        /* \"#utility.yul\":261:275   */\n      add\n        /* \"#utility.yul\":246:275   */\n      swap1\n      pop\n        /* \"#utility.yul\":112:281   */\n      swap3\n      swap2\n      pop\n      pop\n      jump\t// out\n        /* \"#utility.yul\":287:426   */\n    tag_324:\n        /* \"#utility.yul\":376:382   */\n      dup3\n        /* \"#utility.yul\":371:374   */\n      dup2\n        /* \"#utility.yul\":366:369   */\n      dup4\n        /* \"#utility.yul\":360:383   */\n      mcopy\n        /* \"#utility.yul\":417:418   */\n      0x00\n        /* \"#utility.yul\":408:414   */\n      dup4\n        /* \"#utility.yul\":403:406   */\n      dup4\n        /* \"#utility.yul\":399:415   */\n      add\n        /* \"#utility.yul\":392:419   */\n      mstore\n        /* \"#utility.yul\":287:426   */\n      pop\n      pop\n      pop\n      jump\t// out\n        /* \"#utility.yul\":432:534   */\n    tag_325:\n        /* \"#utility.yul\":473:479   */\n      0x00\n        /* \"#utility.yul\":524:526   */\n      0x1f\n        /* \"#utility.yul\":520:527   */\n      not\n        /* \"#utility.yul\":515:517   */\n      0x1f\n        /* \"#utility.yul\":508:513   */\n      dup4\n        /* \"#utility.yul\":504:518   */\n      add\n        /* \"#utility.yul\":500:528   */\n      and\n        /* \"#utility.yul\":490:528   */\n      swap1\n      pop\n        /* \"#utility.yul\":432:534   */\n      swap2\n      swap1\n      pop\n      jump\t// out\n        /* \"#utility.yul\":540:917   */\n    tag_326:\n        /* \"#utility.yul\":628:631   */\n      0x00\n        /* \"#utility.yul\":656:695   */\n      tag_406\n        /* \"#utility.yul\":689:694   */\n      dup3\n        /* \"#utility.yul\":656:695   */\n      tag_322\n      jump\t// in\n    tag_406:\n        /* \"#utility.yul\":711:782   */\n      tag_407\n        /* \"#utility.yul\":775:781   */\n      dup2\n        /* \"#utility.yul\":770:773   */\n      dup6\n        /* \"#utility.yul\":711:782   */\n      tag_323\n      jump\t// in\n    tag_407:\n        /* \"#utility.yul\":704:782   */\n      swap4\n      pop\n        /* \"#utility.yul\":791:856   */\n      tag_408\n        /* \"#utility.yul\":849:855   */\n      dup2\n        /* \"#utility.yul\":844:847   */\n      dup6\n        /* \"#utility.yul\":837:841   */\n      0x20\n        /* \"#utility.yul\":830:835   */\n      dup7\n        /* \"#utility.yul\":826:842   */\n      add\n        /* \"#utility.yul\":791:856   */\n      tag_324\n      jump\t// in\n    tag_408:\n        /* \"#utility.yul\":881:910   */\n      tag_409\n        /* \"#utility.yul\":903:909   */\n      dup2\n        /* \"#utility.yul\":881:910   */\n      tag_325\n      jump\t// in\n    tag_409:\n        /* \"#utility.yul\":876:879   */\n      dup5\n        /* \"#utility.yul\":872:911   */\n      add\n        /* \"#utility.yul\":865:911   */\n      swap2\n      pop\n        /* \"#utility.yul\":632:917   */\n      pop\n        /* \"#utility.yul\":540:917   */\n      swap3\n      swap2\n      pop\n      pop\n      jump\t// out\n        /* \"#utility.yul\":923:1236   */\n    tag_37:\n        /* \"#utility.yul\":1036:1040   */\n      0x00\n        /* \"#utility.yul\":1074:1076   */\n      0x20\n        /* \"#utility.yul\":1063:1072   */\n      dup3\n        /* \"#utility.yul\":1059:1077   */\n      add\n        /* \"#utility.yul\":1051:1077   */\n      swap1\n      pop\n        /* \"#utility.yul\":1123:1132   */\n      dup2\n        /* \"#utility.yul\":1117:1121   */\n      dup2\n        /* \"#utility.yul\":1113:1133   */\n      sub\n        /* \"#utility.yul\":1109:1110   */\n      0x00\n        /* \"#utility.yul\":1098:1107   */\n      dup4\n        /* \"#utility.yul\":1094:1111   */\n      add\n        /* \"#utility.yul\":1087:1134   */\n      mstore\n        /* \"#utility.yul\":1151:1229   */\n      tag_411\n        /* \"#utility.yul\":1224:1228   */\n      dup2\n        /* \"#utility.yul\":1215:1221   */\n      dup5\n        /* \"#utility.yul\":1151:1229   */\n      tag_326\n      jump\t// in\n    tag_411:\n        /* \"#utility.yul\":1143:1229   */\n      swap1\n      pop\n        /* \"#utility.yul\":923:1236   */\n      swap3\n      swap2\n      pop\n      pop\n      jump\t// out\n        /* \"#utility.yul\":1242:1317   */\n    tag_327:\n        /* \"#utility.yul\":1275:1281   */\n      0x00\n        /* \"#utility.yul\":1308:1310   */\n      0x40\n        /* \"#utility.yul\":1302:1311   */\n      mload\n        /* \"#utility.yul\":1292:1311   */\n      swap1\n      pop\n        /* \"#utility.yul\":1242:1317   */\n      swap1\n      jump\t// out\n        /* \"#utility.yul\":1323:1440   */\n    tag_328:\n        /* \"#utility.yul\":1432:1433   */\n      0x00\n        /* \"#utility.yul\":1429:1430   */\n      dup1\n        /* \"#utility.yul\":1422:1434   */\n      revert\n        /* \"#utility.yul\":1446:1563   */\n    tag_329:\n        /* \"#utility.yul\":1555:1556   */\n      0x00\n        /* \"#utility.yul\":1552:1553   */\n      dup1\n        /* \"#utility.yul\":1545:1557   */\n      revert\n        /* \"#utility.yul\":1569:1695   */\n    tag_330:\n        /* \"#utility.yul\":1606:1613   */\n      0x00\n        /* \"#utility.yul\":1646:1688   */\n      0xffffffffffffffffffffffffffffffffffffffff\n        /* \"#utility.yul\":1639:1644   */\n      dup3\n        /* \"#utility.yul\":1635:1689   */\n      and\n        /* \"#utility.yul\":1624:1689   */\n      swap1\n      pop\n        /* \"#utility.yul\":1569:1695   */\n      swap2\n      swap1\n      pop\n      jump\t// out\n        /* \"#utility.yul\":1701:1797   */\n    tag_331:\n        /* \"#utility.yul\":1738:1745   */\n      0x00\n        /* \"#utility.yul\":1767:1791   */\n      tag_417\n        /* \"#utility.yul\":1785:1790   */\n      dup3\n        /* \"#utility.yul\":1767:1791   */\n      tag_330\n      jump\t// in\n    tag_417:\n        /* \"#utility.yul\":1756:1791   */\n      swap1\n      pop\n        /* \"#utility.yul\":1701:1797   */\n      swap2\n      swap1\n      pop\n      jump\t// out\n        /* \"#utility.yul\":1803:1925   */\n    tag_332:\n        /* \"#utility.yul\":1876:1900   */\n      tag_419\n        /* \"#utility.yul\":1894:1899   */\n      dup2\n        /* \"#utility.yul\":1876:1900   */\n      tag_331\n      jump\t// in\n    tag_419:\n        /* \"#utility.yul\":1869:1874   */\n      dup2\n        /* \"#utility.yul\":1866:1901   */\n      eq\n        /* \"#utility.yul\":1856:1919   */\n      tag_420\n      jumpi\n        /* \"#utility.yul\":1915:1916   */\n      0x00\n        /* \"#utility.yul\":1912:1913   */\n      dup1\n        /* \"#utility.yul\":1905:1917   */\n      revert\n        /* \"#utility.yul\":1856:1919   */\n    tag_420:\n        /* \"#utility.yul\":1803:1925   */\n      pop\n      jump\t// out\n        /* \"#utility.yul\":1931:2070   */\n    tag_333:\n        /* \"#utility.yul\":1977:1982   */\n      0x00\n        /* \"#utility.yul\":2015:2021   */\n      dup2\n        /* \"#utility.yul\":2002:2022   */\n      calldataload\n        /* \"#utility.yul\":1993:2022   */\n      swap1\n      pop\n        /* \"#utility.yul\":2031:2064   */\n      tag_422\n        /* \"#utility.yul\":2058:2063   */\n      dup2\n        /* \"#utility.yul\":2031:2064   */\n      tag_332\n      jump\t// in\n    tag_422:\n        /* \"#utility.yul\":1931:2070   */\n      swap3\n      swap2\n      pop\n      pop\n      jump\t// out\n        /* \"#utility.yul\":2076:2153   */\n    tag_334:\n        /* \"#utility.yul\":2113:2120   */\n      0x00\n        /* \"#utility.yul\":2142:2147   */\n      dup2\n        /* \"#utility.yul\":2131:2147   */\n      swap1\n      pop\n        /* \"#utility.yul\":2076:2153   */\n      swap2\n      swap1\n      pop\n      jump\t// out\n        /* \"#utility.yul\":2159:2281   */\n    tag_335:\n        /* \"#utility.yul\":2232:2256   */\n      tag_425\n        /* \"#utility.yul\":2250:2255   */\n      dup2\n        /* \"#utility.yul\":2232:2256   */\n      tag_334\n      jump\t// in\n    tag_425:\n        /* \"#utility.yul\":2225:2230   */\n      dup2\n        /* \"#utility.yul\":2222:2257   */\n      eq\n        /* \"#utility.yul\":2212:2275   */\n      tag_426\n      jumpi\n        /* \"#utility.yul\":2271:2272   */\n      0x00\n        /* \"#utility.yul\":2268:2269   */\n      dup1\n        /* \"#utility.yul\":2261:2273   */\n      revert\n        /* \"#utility.yul\":2212:2275   */\n    tag_426:\n        /* \"#utility.yul\":2159:2281   */\n      pop\n      jump\t// out\n        /* \"#utility.yul\":2287:2426   */\n    tag_336:\n        /* \"#utility.yul\":2333:2338   */\n      0x00\n        /* \"#utility.yul\":2371:2377   */\n      dup2\n        /* \"#utility.yul\":2358:2378   */\n      calldataload\n        /* \"#utility.yul\":2349:2378   */\n      swap1\n      pop\n        /* \"#utility.yul\":2387:2420   */\n      tag_428\n        /* \"#utility.yul\":2414:2419   */\n      dup2\n        /* \"#utility.yul\":2387:2420   */\n      tag_335\n      jump\t// in\n    tag_428:\n        /* \"#utility.yul\":2287:2426   */\n      swap3\n      swap2\n      pop\n      pop\n      jump\t// out\n        /* \"#utility.yul\":2432:2906   */\n    tag_40:\n        /* \"#utility.yul\":2500:2506   */\n      0x00\n        /* \"#utility.yul\":2508:2514   */\n      dup1\n        /* \"#utility.yul\":2557:2559   */\n      0x40\n        /* \"#utility.yul\":2545:2554   */\n      dup4\n        /* \"#utility.yul\":2536:2543   */\n      dup6\n        /* \"#utility.yul\":2532:2555   */\n      sub\n        /* \"#utility.yul\":2528:2560   */\n      slt\n        /* \"#utility.yul\":2525:2644   */\n      iszero\n      tag_430\n      jumpi\n        /* \"#utility.yul\":2563:2642   */\n      tag_431\n      tag_328\n      jump\t// in\n    tag_431:\n        /* \"#utility.yul\":2525:2644   */\n    tag_430:\n        /* \"#utility.yul\":2683:2684   */\n      0x00\n        /* \"#utility.yul\":2708:2761   */\n      tag_432\n        /* \"#utility.yul\":2753:2760   */\n      dup6\n        /* \"#utility.yul\":2744:2750   */\n      dup3\n        /* \"#utility.yul\":2733:2742   */\n      dup7\n        /* \"#utility.yul\":2729:2751   */\n      add\n        /* \"#utility.yul\":2708:2761   */\n      tag_333\n      jump\t// in\n    tag_432:\n        /* \"#utility.yul\":2698:2761   */\n      swap3\n      pop\n        /* \"#utility.yul\":2654:2771   */\n      pop\n        /* \"#utility.yul\":2810:2812   */\n      0x20\n        /* \"#utility.yul\":2836:2889   */\n      tag_433\n        /* \"#utility.yul\":2881:2888   */\n      dup6\n        /* \"#utility.yul\":2872:2878   */\n      dup3\n        /* \"#utility.yul\":2861:2870   */\n      dup7\n        /* \"#utility.yul\":2857:2879   */\n      add\n        /* \"#utility.yul\":2836:2889   */\n      tag_336\n      jump\t// in\n    tag_433:\n        /* \"#utility.yul\":2826:2889   */\n      swap2\n      pop\n        /* \"#utility.yul\":2781:2899   */\n      pop\n        /* \"#utility.yul\":2432:2906   */\n      swap3\n      pop\n      swap3\n      swap1\n      pop\n      jump\t// out\n        /* \"#utility.yul\":2912:3002   */\n    tag_337:\n        /* \"#utility.yul\":2946:2953   */\n      0x00\n        /* \"#utility.yul\":2989:2994   */\n      dup2\n        /* \"#utility.yul\":2982:2995   */\n      iszero\n        /* \"#utility.yul\":2975:2996   */\n      iszero\n        /* \"#utility.yul\":2964:2996   */\n      swap1\n      pop\n        /* \"#utility.yul\":2912:3002   */\n      swap2\n      swap1\n      pop\n      jump\t// out\n        /* \"#utility.yul\":3008:3117   */\n    tag_338:\n        /* \"#utility.yul\":3089:3110   */\n      tag_436\n        /* \"#utility.yul\":3104:3109   */\n      dup2\n        /* \"#utility.yul\":3089:3110   */\n      tag_337\n      jump\t// in\n    tag_436:\n        /* \"#utility.yul\":3084:3087   */\n      dup3\n        /* \"#utility.yul\":3077:3111   */\n      mstore\n        /* \"#utility.yul\":3008:3117   */\n      pop\n      pop\n      jump\t// out\n        /* \"#utility.yul\":3123:3333   */\n    tag_43:\n        /* \"#utility.yul\":3210:3214   */\n      0x00\n        /* \"#utility.yul\":3248:3250   */\n      0x20\n        /* \"#utility.yul\":3237:3246   */\n      dup3\n        /* \"#utility.yul\":3233:3251   */\n      add\n        /* \"#utility.yul\":3225:3251   */\n      swap1\n      pop\n        /* \"#utility.yul\":3261:3326   */\n      tag_438\n        /* \"#utility.yul\":3323:3324   */\n      0x00\n        /* \"#utility.yul\":3312:3321   */\n      dup4\n        /* \"#utility.yul\":3308:3325   */\n      add\n        /* \"#utility.yul\":3299:3305   */\n      dup5\n        /* \"#utility.yul\":3261:3326   */\n      tag_338\n      jump\t// in\n    tag_438:\n        /* \"#utility.yul\":3123:3333   */\n      swap3\n      swap2\n      pop\n      pop\n      jump\t// out\n        /* \"#utility.yul\":3339:3457   */\n    tag_339:\n        /* \"#utility.yul\":3426:3450   */\n      tag_440\n        /* \"#utility.yul\":3444:3449   */\n      dup2\n        /* \"#utility.yul\":3426:3450   */\n      tag_334\n      jump\t// in\n    tag_440:\n        /* \"#utility.yul\":3421:3424   */\n      dup3\n        /* \"#utility.yul\":3414:3451   */\n      mstore\n        /* \"#utility.yul\":3339:3457   */\n      pop\n      pop\n      jump\t// out\n        /* \"#utility.yul\":3463:3685   */\n    tag_50:\n        /* \"#utility.yul\":3556:3560   */\n      0x00\n        /* \"#utility.yul\":3594:3596   */\n      0x20\n        /* \"#utility.yul\":3583:3592   */\n      dup3\n        /* \"#utility.yul\":3579:3597   */\n      add\n        /* \"#utility.yul\":3571:3597   */\n      swap1\n      pop\n        /* \"#utility.yul\":3607:3678   */\n      tag_442\n        /* \"#utility.yul\":3675:3676   */\n      0x00\n        /* \"#utility.yul\":3664:3673   */\n      dup4\n        /* \"#utility.yul\":3660:3677   */\n      add\n        /* \"#utility.yul\":3651:3657   */\n      dup5\n        /* \"#utility.yul\":3607:3678   */\n      tag_339\n      jump\t// in\n    tag_442:\n        /* \"#utility.yul\":3463:3685   */\n      swap3\n      swap2\n      pop\n      pop\n      jump\t// out\n        /* \"#utility.yul\":3691:3777   */\n    tag_340:\n        /* \"#utility.yul\":3726:3733   */\n      0x00\n        /* \"#utility.yul\":3766:3770   */\n      0xff\n        /* \"#utility.yul\":3759:3764   */\n      dup3\n        /* \"#utility.yul\":3755:3771   */\n      and\n        /* \"#utility.yul\":3744:3771   */\n      swap1\n      pop\n        /* \"#utility.yul\":3691:3777   */\n      swap2\n      swap1\n      pop\n      jump\t// out\n        /* \"#utility.yul\":3783:3895   */\n    tag_341:\n        /* \"#utility.yul\":3866:3888   */\n      tag_445\n        /* \"#utility.yul\":3882:3887   */\n      dup2\n        /* \"#utility.yul\":3866:3888   */\n      tag_340\n      jump\t// in\n    tag_445:\n        /* \"#utility.yul\":3861:3864   */\n      dup3\n        /* \"#utility.yul\":3854:3889   */\n      mstore\n        /* \"#utility.yul\":3783:3895   */\n      pop\n      pop\n      jump\t// out\n        /* \"#utility.yul\":3901:4115   */\n    tag_54:\n        /* \"#utility.yul\":3990:3994   */\n      0x00\n        /* \"#utility.yul\":4028:4030   */\n      0x20\n        /* \"#utility.yul\":4017:4026   */\n      dup3\n        /* \"#utility.yul\":4013:4031   */\n      add\n        /* \"#utility.yul\":4005:4031   */\n      swap1\n      pop\n        /* \"#utility.yul\":4041:4108   */\n      tag_447\n        /* \"#utility.yul\":4105:4106   */\n      0x00\n        /* \"#utility.yul\":4094:4103   */\n      dup4\n        /* \"#utility.yul\":4090:4107   */\n      add\n        /* \"#utility.yul\":4081:4087   */\n      dup5\n        /* \"#utility.yul\":4041:4108   */\n      tag_341\n      jump\t// in\n    tag_447:\n        /* \"#utility.yul\":3901:4115   */\n      swap3\n      swap2\n      pop\n      pop\n      jump\t// out\n        /* \"#utility.yul\":4121:4740   */\n    tag_60:\n        /* \"#utility.yul\":4198:4204   */\n      0x00\n        /* \"#utility.yul\":4206:4212   */\n      dup1\n        /* \"#utility.yul\":4214:4220   */\n      0x00\n        /* \"#utility.yul\":4263:4265   */\n      0x60\n        /* \"#utility.yul\":4251:4260   */\n      dup5\n        /* \"#utility.yul\":4242:4249   */\n      dup7\n        /* \"#utility.yul\":4238:4261   */\n      sub\n        /* \"#utility.yul\":4234:4266   */\n      slt\n        /* \"#utility.yul\":4231:4350   */\n      iszero\n      tag_449\n      jumpi\n        /* \"#utility.yul\":4269:4348   */\n      tag_450\n      tag_328\n      jump\t// in\n    tag_450:\n        /* \"#utility.yul\":4231:4350   */\n    tag_449:\n        /* \"#utility.yul\":4389:4390   */\n      0x00\n        /* \"#utility.yul\":4414:4467   */\n      tag_451\n        /* \"#utility.yul\":4459:4466   */\n      dup7\n        /* \"#utility.yul\":4450:4456   */\n      dup3\n        /* \"#utility.yul\":4439:4448   */\n      dup8\n        /* \"#utility.yul\":4435:4457   */\n      add\n        /* \"#utility.yul\":4414:4467   */\n      tag_333\n      jump\t// in\n    tag_451:\n        /* \"#utility.yul\":4404:4467   */\n      swap4\n      pop\n        /* \"#utility.yul\":4360:4477   */\n      pop\n        /* \"#utility.yul\":4516:4518   */\n      0x20\n        /* \"#utility.yul\":4542:4595   */\n      tag_452\n        /* \"#utility.yul\":4587:4594   */\n      dup7\n        /* \"#utility.yul\":4578:4584   */\n      dup3\n        /* \"#utility.yul\":4567:4576   */\n      dup8\n        /* \"#utility.yul\":4563:4585   */\n      add\n        /* \"#utility.yul\":4542:4595   */\n      tag_333\n      jump\t// in\n    tag_452:\n        /* \"#utility.yul\":4532:4595   */\n      swap3\n      pop\n        /* \"#utility.yul\":4487:4605   */\n      pop\n        /* \"#utility.yul\":4644:4646   */\n      0x40\n        /* \"#utility.yul\":4670:4723   */\n      tag_453\n        /* \"#utility.yul\":4715:4722   */\n      dup7\n        /* \"#utility.yul\":4706:4712   */\n      dup3\n        /* \"#utility.yul\":4695:4704   */\n      dup8\n        /* \"#utility.yul\":4691:4713   */\n      add\n        /* \"#utility.yul\":4670:4723   */\n      tag_336\n      jump\t// in\n    tag_453:\n        /* \"#utility.yul\":4660:4723   */\n      swap2\n      pop\n        /* \"#utility.yul\":4615:4733   */\n      pop\n        /* \"#utility.yul\":4121:4740   */\n      swap3\n      pop\n      swap3\n      pop\n      swap3\n      jump\t// out\n        /* \"#utility.yul\":4746:4864   */\n    tag_342:\n        /* \"#utility.yul\":4817:4839   */\n      tag_455\n        /* \"#utility.yul\":4833:4838   */\n      dup2\n        /* \"#utility.yul\":4817:4839   */\n      tag_340\n      jump\t// in\n    tag_455:\n        /* \"#utility.yul\":4810:4815   */\n      dup2\n        /* \"#utility.yul\":4807:4840   */\n      eq\n        /* \"#utility.yul\":4797:4858   */\n      tag_456\n      jumpi\n        /* \"#utility.yul\":4854:4855   */\n      0x00\n        /* \"#utility.yul\":4851:4852   */\n      dup1\n        /* \"#utility.yul\":4844:4856   */\n      revert\n        /* \"#utility.yul\":4797:4858   */\n    tag_456:\n        /* \"#utility.yul\":4746:4864   */\n      pop\n      jump\t// out\n        /* \"#utility.yul\":4870:5005   */\n    tag_343:\n        /* \"#utility.yul\":4914:4919   */\n      0x00\n        /* \"#utility.yul\":4952:4958   */\n      dup2\n        /* \"#utility.yul\":4939:4959   */\n      calldataload\n        /* \"#utility.yul\":4930:4959   */\n      swap1\n      pop\n        /* \"#utility.yul\":4968:4999   */\n      tag_458\n        /* \"#utility.yul\":4993:4998   */\n      dup2\n        /* \"#utility.yul\":4968:4999   */\n      tag_342\n      jump\t// in\n    tag_458:\n        /* \"#utility.yul\":4870:5005   */\n      swap3\n      swap2\n      pop\n      pop\n      jump\t// out\n        /* \"#utility.yul\":5011:5336   */\n    tag_65:\n        /* \"#utility.yul\":5068:5074   */\n      0x00\n        /* \"#utility.yul\":5117:5119   */\n      0x20\n        /* \"#utility.yul\":5105:5114   */\n      dup3\n        /* \"#utility.yul\":5096:5103   */\n      dup5\n        /* \"#utility.yul\":5092:5115   */\n      sub\n        /* \"#utility.yul\":5088:5120   */\n      slt\n        /* \"#utility.yul\":5085:5204   */\n      iszero\n      tag_460\n      jumpi\n        /* \"#utility.yul\":5123:5202   */\n      tag_461\n      tag_328\n      jump\t// in\n    tag_461:\n        /* \"#utility.yul\":5085:5204   */\n    tag_460:\n        /* \"#utility.yul\":5243:5244   */\n      0x00\n        /* \"#utility.yul\":5268:5319   */\n      tag_462\n        /* \"#utility.yul\":5311:5318   */\n      dup5\n        /* \"#utility.yul\":5302:5308   */\n      dup3\n        /* \"#utility.yul\":5291:5300   */\n      dup6\n        /* \"#utility.yul\":5287:5309   */\n      add\n        /* \"#utility.yul\":5268:5319   */\n      tag_343\n      jump\t// in\n    tag_462:\n        /* \"#utility.yul\":5258:5319   */\n      swap2\n      pop\n        /* \"#utility.yul\":5214:5329   */\n      pop\n        /* \"#utility.yul\":5011:5336   */\n      swap3\n      swap2\n      pop\n      pop\n      jump\t// out\n        /* \"#utility.yul\":5342:5671   */\n    tag_76:\n        /* \"#utility.yul\":5401:5407   */\n      0x00\n        /* \"#utility.yul\":5450:5452   */\n      0x20\n        /* \"#utility.yul\":5438:5447   */\n      dup3\n        /* \"#utility.yul\":5429:5436   */\n      dup5\n        /* \"#utility.yul\":5425:5448   */\n      sub\n        /* \"#utility.yul\":5421:5453   */\n      slt\n        /* \"#utility.yul\":5418:5537   */\n      iszero\n      tag_464\n      jumpi\n        /* \"#utility.yul\":5456:5535   */\n      tag_465\n      tag_328\n      jump\t// in\n    tag_465:\n        /* \"#utility.yul\":5418:5537   */\n    tag_464:\n        /* \"#utility.yul\":5576:5577   */\n      0x00\n        /* \"#utility.yul\":5601:5654   */\n      tag_466\n        /* \"#utility.yul\":5646:5653   */\n      dup5\n        /* \"#utility.yul\":5637:5643   */\n      dup3\n        /* \"#utility.yul\":5626:5635   */\n      dup6\n        /* \"#utility.yul\":5622:5644   */\n      add\n        /* \"#utility.yul\":5601:5654   */\n      tag_336\n      jump\t// in\n    tag_466:\n        /* \"#utility.yul\":5591:5654   */\n      swap2\n      pop\n        /* \"#utility.yul\":5547:5664   */\n      pop\n        /* \"#utility.yul\":5342:5671   */\n      swap3\n      swap2\n      pop\n      pop\n      jump\t// out\n        /* \"#utility.yul\":5677:5794   */\n    tag_344:\n        /* \"#utility.yul\":5786:5787   */\n      0x00\n        /* \"#utility.yul\":5783:5784   */\n      dup1\n        /* \"#utility.yul\":5776:5788   */\n      revert\n        /* \"#utility.yul\":5800:5917   */\n    tag_345:\n        /* \"#utility.yul\":5909:5910   */\n      0x00\n        /* \"#utility.yul\":5906:5907   */\n      dup1\n        /* \"#utility.yul\":5899:5911   */\n      revert\n        /* \"#utility.yul\":5923:6103   */\n    tag_234:\n        /* \"#utility.yul\":5971:6048   */\n      0x4e487b7100000000000000000000000000000000000000000000000000000000\n        /* \"#utility.yul\":5968:5969   */\n      0x00\n        /* \"#utility.yul\":5961:6049   */\n      mstore\n        /* \"#utility.yul\":6068:6072   */\n      0x41\n        /* \"#utility.yul\":6065:6066   */\n      0x04\n        /* \"#utility.yul\":6058:6073   */\n      mstore\n        /* \"#utility.yul\":6092:6096   */\n      0x24\n        /* \"#utility.yul\":6089:6090   */\n      0x00\n        /* \"#utility.yul\":6082:6097   */\n      revert\n        /* \"#utility.yul\":6109:6390   */\n    tag_346:\n        /* \"#utility.yul\":6192:6219   */\n      tag_471\n        /* \"#utility.yul\":6214:6218   */\n      dup3\n        /* \"#utility.yul\":6192:6219   */\n      tag_325\n      jump\t// in\n    tag_471:\n        /* \"#utility.yul\":6184:6190   */\n      dup2\n        /* \"#utility.yul\":6180:6220   */\n      add\n        /* \"#utility.yul\":6322:6328   */\n      dup2\n        /* \"#utility.yul\":6310:6320   */\n      dup2\n        /* \"#utility.yul\":6307:6329   */\n      lt\n        /* \"#utility.yul\":6286:6304   */\n      0xffffffffffffffff\n        /* \"#utility.yul\":6274:6284   */\n      dup3\n        /* \"#utility.yul\":6271:6305   */\n      gt\n        /* \"#utility.yul\":6268:6330   */\n      or\n        /* \"#utility.yul\":6265:6353   */\n      iszero\n      tag_472\n      jumpi\n        /* \"#utility.yul\":6333:6351   */\n      tag_473\n      tag_234\n      jump\t// in\n    tag_473:\n        /* \"#utility.yul\":6265:6353   */\n    tag_472:\n        /* \"#utility.yul\":6373:6383   */\n      dup1\n        /* \"#utility.yul\":6369:6371   */\n      0x40\n        /* \"#utility.yul\":6362:6384   */\n      mstore\n        /* \"#utility.yul\":6152:6390   */\n      pop\n        /* \"#utility.yul\":6109:6390   */\n      pop\n      pop\n      jump\t// out\n        /* \"#utility.yul\":6396:6525   */\n    tag_347:\n        /* \"#utility.yul\":6430:6436   */\n      0x00\n        /* \"#utility.yul\":6457:6477   */\n      tag_475\n      tag_327\n      jump\t// in\n    tag_475:\n        /* \"#utility.yul\":6447:6477   */\n      swap1\n      pop\n        /* \"#utility.yul\":6486:6519   */\n      tag_476\n        /* \"#utility.yul\":6514:6518   */\n      dup3\n        /* \"#utility.yul\":6506:6512   */\n      dup3\n        /* \"#utility.yul\":6486:6519   */\n      tag_346\n      jump\t// in\n    tag_476:\n        /* \"#utility.yul\":6396:6525   */\n      swap2\n      swap1\n      pop\n      jump\t// out\n        /* \"#utility.yul\":6531:6839   */\n    tag_348:\n        /* \"#utility.yul\":6593:6597   */\n      0x00\n        /* \"#utility.yul\":6683:6701   */\n      0xffffffffffffffff\n        /* \"#utility.yul\":6675:6681   */\n      dup3\n        /* \"#utility.yul\":6672:6702   */\n      gt\n        /* \"#utility.yul\":6669:6725   */\n      iszero\n      tag_478\n      jumpi\n        /* \"#utility.yul\":6705:6723   */\n      tag_479\n      tag_234\n      jump\t// in\n    tag_479:\n        /* \"#utility.yul\":6669:6725   */\n    tag_478:\n        /* \"#utility.yul\":6743:6772   */\n      tag_480\n        /* \"#utility.yul\":6765:6771   */\n      dup3\n        /* \"#utility.yul\":6743:6772   */\n      tag_325\n      jump\t// in\n    tag_480:\n        /* \"#utility.yul\":6735:6772   */\n      swap1\n      pop\n        /* \"#utility.yul\":6827:6831   */\n      0x20\n        /* \"#utility.yul\":6821:6825   */\n      dup2\n        /* \"#utility.yul\":6817:6832   */\n      add\n        /* \"#utility.yul\":6809:6832   */\n      swap1\n      pop\n        /* \"#utility.yul\":6531:6839   */\n      swap2\n      swap1\n      pop\n      jump\t// out\n        /* \"#utility.yul\":6845:6993   */\n    tag_349:\n        /* \"#utility.yul\":6943:6949   */\n      dup3\n        /* \"#utility.yul\":6938:6941   */\n      dup2\n        /* \"#utility.yul\":6933:6936   */\n      dup4\n        /* \"#utility.yul\":6920:6950   */\n      calldatacopy\n        /* \"#utility.yul\":6984:6985   */\n      0x00\n        /* \"#utility.yul\":6975:6981   */\n      dup4\n        /* \"#utility.yul\":6970:6973   */\n      dup4\n        /* \"#utility.yul\":6966:6982   */\n      add\n        /* \"#utility.yul\":6959:6986   */\n      mstore\n        /* \"#utility.yul\":6845:6993   */\n      pop\n      pop\n      pop\n      jump\t// out\n        /* \"#utility.yul\":6999:7424   */\n    tag_350:\n        /* \"#utility.yul\":7077:7082   */\n      0x00\n        /* \"#utility.yul\":7102:7168   */\n      tag_483\n        /* \"#utility.yul\":7118:7167   */\n      tag_484\n        /* \"#utility.yul\":7160:7166   */\n      dup5\n        /* \"#utility.yul\":7118:7167   */\n      tag_348\n      jump\t// in\n    tag_484:\n        /* \"#utility.yul\":7102:7168   */\n      tag_347\n      jump\t// in\n    tag_483:\n        /* \"#utility.yul\":7093:7168   */\n      swap1\n      pop\n        /* \"#utility.yul\":7191:7197   */\n      dup3\n        /* \"#utility.yul\":7184:7189   */\n      dup2\n        /* \"#utility.yul\":7177:7198   */\n      mstore\n        /* \"#utility.yul\":7229:7233   */\n      0x20\n        /* \"#utility.yul\":7222:7227   */\n      dup2\n        /* \"#utility.yul\":7218:7234   */\n      add\n        /* \"#utility.yul\":7267:7270   */\n      dup5\n        /* \"#utility.yul\":7258:7264   */\n      dup5\n        /* \"#utility.yul\":7253:7256   */\n      dup5\n        /* \"#utility.yul\":7249:7265   */\n      add\n        /* \"#utility.yul\":7246:7271   */\n      gt\n        /* \"#utility.yul\":7243:7355   */\n      iszero\n      tag_485\n      jumpi\n        /* \"#utility.yul\":7274:7353   */\n      tag_486\n      tag_345\n      jump\t// in\n    tag_486:\n        /* \"#utility.yul\":7243:7355   */\n    tag_485:\n        /* \"#utility.yul\":7364:7418   */\n      tag_487\n        /* \"#utility.yul\":7411:7417   */\n      dup5\n        /* \"#utility.yul\":7406:7409   */\n      dup3\n        /* \"#utility.yul\":7401:7404   */\n      dup6\n        /* \"#utility.yul\":7364:7418   */\n      tag_349\n      jump\t// in\n    tag_487:\n        /* \"#utility.yul\":7083:7424   */\n      pop\n        /* \"#utility.yul\":6999:7424   */\n      swap4\n      swap3\n      pop\n      pop\n      pop\n      jump\t// out\n        /* \"#utility.yul\":7444:7784   */\n    tag_351:\n        /* \"#utility.yul\":7500:7505   */\n      0x00\n        /* \"#utility.yul\":7549:7552   */\n      dup3\n        /* \"#utility.yul\":7542:7546   */\n      0x1f\n        /* \"#utility.yul\":7534:7540   */\n      dup4\n        /* \"#utility.yul\":7530:7547   */\n      add\n        /* \"#utility.yul\":7526:7553   */\n      slt\n        /* \"#utility.yul\":7516:7638   */\n      tag_489\n      jumpi\n        /* \"#utility.yul\":7557:7636   */\n      tag_490\n      tag_344\n      jump\t// in\n    tag_490:\n        /* \"#utility.yul\":7516:7638   */\n    tag_489:\n        /* \"#utility.yul\":7674:7680   */\n      dup2\n        /* \"#utility.yul\":7661:7681   */\n      calldataload\n        /* \"#utility.yul\":7699:7778   */\n      tag_491\n        /* \"#utility.yul\":7774:7777   */\n      dup5\n        /* \"#utility.yul\":7766:7772   */\n      dup3\n        /* \"#utility.yul\":7759:7763   */\n      0x20\n        /* \"#utility.yul\":7751:7757   */\n      dup7\n        /* \"#utility.yul\":7747:7764   */\n      add\n        /* \"#utility.yul\":7699:7778   */\n      tag_350\n      jump\t// in\n    tag_491:\n        /* \"#utility.yul\":7690:7778   */\n      swap2\n      pop\n        /* \"#utility.yul\":7506:7784   */\n      pop\n        /* \"#utility.yul\":7444:7784   */\n      swap3\n      swap2\n      pop\n      pop\n      jump\t// out\n        /* \"#utility.yul\":7790:8444   */\n    tag_80:\n        /* \"#utility.yul\":7868:7874   */\n      0x00\n        /* \"#utility.yul\":7876:7882   */\n      dup1\n        /* \"#utility.yul\":7925:7927   */\n      0x40\n        /* \"#utility.yul\":7913:7922   */\n      dup4\n        /* \"#utility.yul\":7904:7911   */\n      dup6\n        /* \"#utility.yul\":7900:7923   */\n      sub\n        /* \"#utility.yul\":7896:7928   */\n      slt\n        /* \"#utility.yul\":7893:8012   */\n      iszero\n      tag_493\n      jumpi\n        /* \"#utility.yul\":7931:8010   */\n      tag_494\n      tag_328\n      jump\t// in\n    tag_494:\n        /* \"#utility.yul\":7893:8012   */\n    tag_493:\n        /* \"#utility.yul\":8079:8080   */\n      0x00\n        /* \"#utility.yul\":8068:8077   */\n      dup4\n        /* \"#utility.yul\":8064:8081   */\n      add\n        /* \"#utility.yul\":8051:8082   */\n      calldataload\n        /* \"#utility.yul\":8109:8127   */\n      0xffffffffffffffff\n        /* \"#utility.yul\":8101:8107   */\n      dup2\n        /* \"#utility.yul\":8098:8128   */\n      gt\n        /* \"#utility.yul\":8095:8212   */\n      iszero\n      tag_495\n      jumpi\n        /* \"#utility.yul\":8131:8210   */\n      tag_496\n      tag_329\n      jump\t// in\n    tag_496:\n        /* \"#utility.yul\":8095:8212   */\n    tag_495:\n        /* \"#utility.yul\":8236:8299   */\n      tag_497\n        /* \"#utility.yul\":8291:8298   */\n      dup6\n        /* \"#utility.yul\":8282:8288   */\n      dup3\n        /* \"#utility.yul\":8271:8280   */\n      dup7\n        /* \"#utility.yul\":8267:8289   */\n      add\n        /* \"#utility.yul\":8236:8299   */\n      tag_351\n      jump\t// in\n    tag_497:\n        /* \"#utility.yul\":8226:8299   */\n      swap3\n      pop\n        /* \"#utility.yul\":8022:8309   */\n      pop\n        /* \"#utility.yul\":8348:8350   */\n      0x20\n        /* \"#utility.yul\":8374:8427   */\n      tag_498\n        /* \"#utility.yul\":8419:8426   */\n      dup6\n        /* \"#utility.yul\":8410:8416   */\n      dup3\n        /* \"#utility.yul\":8399:8408   */\n      dup7\n        /* \"#utility.yul\":8395:8417   */\n      add\n        /* \"#utility.yul\":8374:8427   */\n      tag_336\n      jump\t// in\n    tag_498:\n        /* \"#utility.yul\":8364:8427   */\n      swap2\n      pop\n        /* \"#utility.yul\":8319:8437   */\n      pop\n        /* \"#utility.yul\":7790:8444   */\n      swap3\n      pop\n      swap3\n      swap1\n      pop\n      jump\t// out\n        /* \"#utility.yul\":8450:8779   */\n    tag_84:\n        /* \"#utility.yul\":8509:8515   */\n      0x00\n        /* \"#utility.yul\":8558:8560   */\n      0x20\n        /* \"#utility.yul\":8546:8555   */\n      dup3\n        /* \"#utility.yul\":8537:8544   */\n      dup5\n        /* \"#utility.yul\":8533:8556   */\n      sub\n        /* \"#utility.yul\":8529:8561   */\n      slt\n        /* \"#utility.yul\":8526:8645   */\n      iszero\n      tag_500\n      jumpi\n        /* \"#utility.yul\":8564:8643   */\n      tag_501\n      tag_328\n      jump\t// in\n    tag_501:\n        /* \"#utility.yul\":8526:8645   */\n    tag_500:\n        /* \"#utility.yul\":8684:8685   */\n      0x00\n        /* \"#utility.yul\":8709:8762   */\n      tag_502\n        /* \"#utility.yul\":8754:8761   */\n      dup5\n        /* \"#utility.yul\":8745:8751   */\n      dup3\n        /* \"#utility.yul\":8734:8743   */\n      dup6\n        /* \"#utility.yul\":8730:8752   */\n      add\n        /* \"#utility.yul\":8709:8762   */\n      tag_333\n      jump\t// in\n    tag_502:\n        /* \"#utility.yul\":8699:8762   */\n      swap2\n      pop\n        /* \"#utility.yul\":8655:8772   */\n      pop\n        /* \"#utility.yul\":8450:8779   */\n      swap3\n      swap2\n      pop\n      pop\n      jump\t// out\n        /* \"#utility.yul\":8785:8903   */\n    tag_352:\n        /* \"#utility.yul\":8872:8896   */\n      tag_504\n        /* \"#utility.yul\":8890:8895   */\n      dup2\n        /* \"#utility.yul\":8872:8896   */\n      tag_331\n      jump\t// in\n    tag_504:\n        /* \"#utility.yul\":8867:8870   */\n      dup3\n        /* \"#utility.yul\":8860:8897   */\n      mstore\n        /* \"#utility.yul\":8785:8903   */\n      pop\n      pop\n      jump\t// out\n        /* \"#utility.yul\":8909:9131   */\n    tag_98:\n        /* \"#utility.yul\":9002:9006   */\n      0x00\n        /* \"#utility.yul\":9040:9042   */\n      0x20\n        /* \"#utility.yul\":9029:9038   */\n      dup3\n        /* \"#utility.yul\":9025:9043   */\n      add\n        /* \"#utility.yul\":9017:9043   */\n      swap1\n      pop\n        /* \"#utility.yul\":9053:9124   */\n      tag_506\n        /* \"#utility.yul\":9121:9122   */\n      0x00\n        /* \"#utility.yul\":9110:9119   */\n      dup4\n        /* \"#utility.yul\":9106:9123   */\n      add\n        /* \"#utility.yul\":9097:9103   */\n      dup5\n        /* \"#utility.yul\":9053:9124   */\n      tag_352\n      jump\t// in\n    tag_506:\n        /* \"#utility.yul\":8909:9131   */\n      swap3\n      swap2\n      pop\n      pop\n      jump\t// out\n        /* \"#utility.yul\":9137:9249   */\n    tag_353:\n        /* \"#utility.yul\":9202:9208   */\n      0x00\n        /* \"#utility.yul\":9236:9241   */\n      dup2\n        /* \"#utility.yul\":9230:9242   */\n      mload\n        /* \"#utility.yul\":9220:9242   */\n      swap1\n      pop\n        /* \"#utility.yul\":9137:9249   */\n      swap2\n      swap1\n      pop\n      jump\t// out\n        /* \"#utility.yul\":9255:9437   */\n    tag_354:\n        /* \"#utility.yul\":9352:9363   */\n      0x00\n        /* \"#utility.yul\":9386:9392   */\n      dup3\n        /* \"#utility.yul\":9381:9384   */\n      dup3\n        /* \"#utility.yul\":9374:9393   */\n      mstore\n        /* \"#utility.yul\":9426:9430   */\n      0x20\n        /* \"#utility.yul\":9421:9424   */\n      dup3\n        /* \"#utility.yul\":9417:9431   */\n      add\n        /* \"#utility.yul\":9402:9431   */\n      swap1\n      pop\n        /* \"#utility.yul\":9255:9437   */\n      swap3\n      swap2\n      pop\n      pop\n      jump\t// out\n        /* \"#utility.yul\":9443:9573   */\n    tag_355:\n        /* \"#utility.yul\":9508:9512   */\n      0x00\n        /* \"#utility.yul\":9531:9534   */\n      dup2\n        /* \"#utility.yul\":9523:9534   */\n      swap1\n      pop\n        /* \"#utility.yul\":9561:9565   */\n      0x20\n        /* \"#utility.yul\":9556:9559   */\n      dup3\n        /* \"#utility.yul\":9552:9566   */\n      add\n        /* \"#utility.yul\":9544:9566   */\n      swap1\n      pop\n        /* \"#utility.yul\":9443:9573   */\n      swap2\n      swap1\n      pop\n      jump\t// out\n        /* \"#utility.yul\":9579:9681   */\n    tag_356:\n        /* \"#utility.yul\":9652:9674   */\n      tag_511\n        /* \"#utility.yul\":9668:9673   */\n      dup2\n        /* \"#utility.yul\":9652:9674   */\n      tag_340\n      jump\t// in\n    tag_511:\n        /* \"#utility.yul\":9647:9650   */\n      dup3\n        /* \"#utility.yul\":9640:9675   */\n      mstore\n        /* \"#utility.yul\":9579:9681   */\n      pop\n      pop\n      jump\t// out\n        /* \"#utility.yul\":9687:9858   */\n    tag_357:\n        /* \"#utility.yul\":9752:9762   */\n      0x00\n        /* \"#utility.yul\":9773:9815   */\n      tag_513\n        /* \"#utility.yul\":9811:9814   */\n      dup4\n        /* \"#utility.yul\":9803:9809   */\n      dup4\n        /* \"#utility.yul\":9773:9815   */\n      tag_356\n      jump\t// in\n    tag_513:\n        /* \"#utility.yul\":9847:9851   */\n      0x20\n        /* \"#utility.yul\":9842:9845   */\n      dup4\n        /* \"#utility.yul\":9838:9852   */\n      add\n        /* \"#utility.yul\":9824:9852   */\n      swap1\n      pop\n        /* \"#utility.yul\":9687:9858   */\n      swap3\n      swap2\n      pop\n      pop\n      jump\t// out\n        /* \"#utility.yul\":9864:9975   */\n    tag_358:\n        /* \"#utility.yul\":9932:9936   */\n      0x00\n        /* \"#utility.yul\":9964:9968   */\n      0x20\n        /* \"#utility.yul\":9959:9962   */\n      dup3\n        /* \"#utility.yul\":9955:9969   */\n      add\n        /* \"#utility.yul\":9947:9969   */\n      swap1\n      pop\n        /* \"#utility.yul\":9864:9975   */\n      swap2\n      swap1\n      pop\n      jump\t// out\n        /* \"#utility.yul\":10007:10723   */\n    tag_359:\n        /* \"#utility.yul\":10122:10125   */\n      0x00\n        /* \"#utility.yul\":10151:10203   */\n      tag_516\n        /* \"#utility.yul\":10197:10202   */\n      dup3\n        /* \"#utility.yul\":10151:10203   */\n      tag_353\n      jump\t// in\n    tag_516:\n        /* \"#utility.yul\":10219:10303   */\n      tag_517\n        /* \"#utility.yul\":10296:10302   */\n      dup2\n        /* \"#utility.yul\":10291:10294   */\n      dup6\n        /* \"#utility.yul\":10219:10303   */\n      tag_354\n      jump\t// in\n    tag_517:\n        /* \"#utility.yul\":10212:10303   */\n      swap4\n      pop\n        /* \"#utility.yul\":10327:10381   */\n      tag_518\n        /* \"#utility.yul\":10375:10380   */\n      dup4\n        /* \"#utility.yul\":10327:10381   */\n      tag_355\n      jump\t// in\n    tag_518:\n        /* \"#utility.yul\":10404:10411   */\n      dup1\n        /* \"#utility.yul\":10435:10436   */\n      0x00\n        /* \"#utility.yul\":10420:10698   */\n    tag_519:\n        /* \"#utility.yul\":10445:10451   */\n      dup4\n        /* \"#utility.yul\":10442:10443   */\n      dup2\n        /* \"#utility.yul\":10439:10452   */\n      lt\n        /* \"#utility.yul\":10420:10698   */\n      iszero\n      tag_521\n      jumpi\n        /* \"#utility.yul\":10521:10527   */\n      dup2\n        /* \"#utility.yul\":10515:10528   */\n      mload\n        /* \"#utility.yul\":10548:10607   */\n      tag_522\n        /* \"#utility.yul\":10603:10606   */\n      dup9\n        /* \"#utility.yul\":10588:10601   */\n      dup3\n        /* \"#utility.yul\":10548:10607   */\n      tag_357\n      jump\t// in\n    tag_522:\n        /* \"#utility.yul\":10541:10607   */\n      swap8\n      pop\n        /* \"#utility.yul\":10630:10688   */\n      tag_523\n        /* \"#utility.yul\":10681:10687   */\n      dup4\n        /* \"#utility.yul\":10630:10688   */\n      tag_358\n      jump\t// in\n    tag_523:\n        /* \"#utility.yul\":10620:10688   */\n      swap3\n      pop\n        /* \"#utility.yul\":10480:10698   */\n      pop\n        /* \"#utility.yul\":10467:10468   */\n      0x01\n        /* \"#utility.yul\":10464:10465   */\n      dup2\n        /* \"#utility.yul\":10460:10469   */\n      add\n        /* \"#utility.yul\":10455:10469   */\n      swap1\n      pop\n        /* \"#utility.yul\":10420:10698   */\n      jump(tag_519)\n    tag_521:\n        /* \"#utility.yul\":10424:10438   */\n      pop\n        /* \"#utility.yul\":10714:10717   */\n      dup6\n        /* \"#utility.yul\":10707:10717   */\n      swap4\n      pop\n        /* \"#utility.yul\":10127:10723   */\n      pop\n      pop\n      pop\n        /* \"#utility.yul\":10007:10723   */\n      swap3\n      swap2\n      pop\n      pop\n      jump\t// out\n        /* \"#utility.yul\":10729:11094   */\n    tag_117:\n        /* \"#utility.yul\":10868:10872   */\n      0x00\n        /* \"#utility.yul\":10906:10908   */\n      0x20\n        /* \"#utility.yul\":10895:10904   */\n      dup3\n        /* \"#utility.yul\":10891:10909   */\n      add\n        /* \"#utility.yul\":10883:10909   */\n      swap1\n      pop\n        /* \"#utility.yul\":10955:10964   */\n      dup2\n        /* \"#utility.yul\":10949:10953   */\n      dup2\n        /* \"#utility.yul\":10945:10965   */\n      sub\n        /* \"#utility.yul\":10941:10942   */\n      0x00\n        /* \"#utility.yul\":10930:10939   */\n      dup4\n        /* \"#utility.yul\":10926:10943   */\n      add\n        /* \"#utility.yul\":10919:10966   */\n      mstore\n        /* \"#utility.yul\":10983:11087   */\n      tag_525\n        /* \"#utility.yul\":11082:11086   */\n      dup2\n        /* \"#utility.yul\":11073:11079   */\n      dup5\n        /* \"#utility.yul\":10983:11087   */\n      tag_359\n      jump\t// in\n    tag_525:\n        /* \"#utility.yul\":10975:11087   */\n      swap1\n      pop\n        /* \"#utility.yul\":10729:11094   */\n      swap3\n      swap2\n      pop\n      pop\n      jump\t// out\n        /* \"#utility.yul\":11100:11574   */\n    tag_120:\n        /* \"#utility.yul\":11168:11174   */\n      0x00\n        /* \"#utility.yul\":11176:11182   */\n      dup1\n        /* \"#utility.yul\":11225:11227   */\n      0x40\n        /* \"#utility.yul\":11213:11222   */\n      dup4\n        /* \"#utility.yul\":11204:11211   */\n      dup6\n        /* \"#utility.yul\":11200:11223   */\n      sub\n        /* \"#utility.yul\":11196:11228   */\n      slt\n        /* \"#utility.yul\":11193:11312   */\n      iszero\n      tag_527\n      jumpi\n        /* \"#utility.yul\":11231:11310   */\n      tag_528\n      tag_328\n      jump\t// in\n    tag_528:\n        /* \"#utility.yul\":11193:11312   */\n    tag_527:\n        /* \"#utility.yul\":11351:11352   */\n      0x00\n        /* \"#utility.yul\":11376:11429   */\n      tag_529\n        /* \"#utility.yul\":11421:11428   */\n      dup6\n        /* \"#utility.yul\":11412:11418   */\n      dup3\n        /* \"#utility.yul\":11401:11410   */\n      dup7\n        /* \"#utility.yul\":11397:11419   */\n      add\n        /* \"#utility.yul\":11376:11429   */\n      tag_333\n      jump\t// in\n    tag_529:\n        /* \"#utility.yul\":11366:11429   */\n      swap3\n      pop\n        /* \"#utility.yul\":11322:11439   */\n      pop\n        /* \"#utility.yul\":11478:11480   */\n      0x20\n        /* \"#utility.yul\":11504:11557   */\n      tag_530\n        /* \"#utility.yul\":11549:11556   */\n      dup6\n        /* \"#utility.yul\":11540:11546   */\n      dup3\n        /* \"#utility.yul\":11529:11538   */\n      dup7\n        /* \"#utility.yul\":11525:11547   */\n      add\n        /* \"#utility.yul\":11504:11557   */\n      tag_333\n      jump\t// in\n    tag_530:\n        /* \"#utility.yul\":11494:11557   */\n      swap2\n      pop\n        /* \"#utility.yul\":11449:11567   */\n      pop\n        /* \"#utility.yul\":11100:11574   */\n      swap3\n      pop\n      swap3\n      swap1\n      pop\n      jump\t// out\n        /* \"#utility.yul\":11580:11696   */\n    tag_360:\n        /* \"#utility.yul\":11650:11671   */\n      tag_532\n        /* \"#utility.yul\":11665:11670   */\n      dup2\n        /* \"#utility.yul\":11650:11671   */\n      tag_337\n      jump\t// in\n    tag_532:\n        /* \"#utility.yul\":11643:11648   */\n      dup2\n        /* \"#utility.yul\":11640:11672   */\n      eq\n        /* \"#utility.yul\":11630:11690   */\n      tag_533\n      jumpi\n        /* \"#utility.yul\":11686:11687   */\n      0x00\n        /* \"#utility.yul\":11683:11684   */\n      dup1\n        /* \"#utility.yul\":11676:11688   */\n      revert\n        /* \"#utility.yul\":11630:11690   */\n    tag_533:\n        /* \"#utility.yul\":11580:11696   */\n      pop\n      jump\t// out\n        /* \"#utility.yul\":11702:11835   */\n    tag_361:\n        /* \"#utility.yul\":11745:11750   */\n      0x00\n        /* \"#utility.yul\":11783:11789   */\n      dup2\n        /* \"#utility.yul\":11770:11790   */\n      calldataload\n        /* \"#utility.yul\":11761:11790   */\n      swap1\n      pop\n        /* \"#utility.yul\":11799:11829   */\n      tag_535\n        /* \"#utility.yul\":11823:11828   */\n      dup2\n        /* \"#utility.yul\":11799:11829   */\n      tag_360\n      jump\t// in\n    tag_535:\n        /* \"#utility.yul\":11702:11835   */\n      swap3\n      swap2\n      pop\n      pop\n      jump\t// out\n        /* \"#utility.yul\":11841:12309   */\n    tag_125:\n        /* \"#utility.yul\":11906:11912   */\n      0x00\n        /* \"#utility.yul\":11914:11920   */\n      dup1\n        /* \"#utility.yul\":11963:11965   */\n      0x40\n        /* \"#utility.yul\":11951:11960   */\n      dup4\n        /* \"#utility.yul\":11942:11949   */\n      dup6\n        /* \"#utility.yul\":11938:11961   */\n      sub\n        /* \"#utility.yul\":11934:11966   */\n      slt\n        /* \"#utility.yul\":11931:12050   */\n      iszero\n      tag_537\n      jumpi\n        /* \"#utility.yul\":11969:12048   */\n      tag_538\n      tag_328\n      jump\t// in\n    tag_538:\n        /* \"#utility.yul\":11931:12050   */\n    tag_537:\n        /* \"#utility.yul\":12089:12090   */\n      0x00\n        /* \"#utility.yul\":12114:12164   */\n      tag_539\n        /* \"#utility.yul\":12156:12163   */\n      dup6\n        /* \"#utility.yul\":12147:12153   */\n      dup3\n        /* \"#utility.yul\":12136:12145   */\n      dup7\n        /* \"#utility.yul\":12132:12154   */\n      add\n        /* \"#utility.yul\":12114:12164   */\n      tag_361\n      jump\t// in\n    tag_539:\n        /* \"#utility.yul\":12104:12164   */\n      swap3\n      pop\n        /* \"#utility.yul\":12060:12174   */\n      pop\n        /* \"#utility.yul\":12213:12215   */\n      0x20\n        /* \"#utility.yul\":12239:12292   */\n      tag_540\n        /* \"#utility.yul\":12284:12291   */\n      dup6\n        /* \"#utility.yul\":12275:12281   */\n      dup3\n        /* \"#utility.yul\":12264:12273   */\n      dup7\n        /* \"#utility.yul\":12260:12282   */\n      add\n        /* \"#utility.yul\":12239:12292   */\n      tag_336\n      jump\t// in\n    tag_540:\n        /* \"#utility.yul\":12229:12292   */\n      swap2\n      pop\n        /* \"#utility.yul\":12184:12302   */\n      pop\n        /* \"#utility.yul\":11841:12309   */\n      swap3\n      pop\n      swap3\n      swap1\n      pop\n      jump\t// out\n        /* \"#utility.yul\":12315:12495   */\n    tag_362:\n        /* \"#utility.yul\":12363:12440   */\n      0x4e487b7100000000000000000000000000000000000000000000000000000000\n        /* \"#utility.yul\":12360:12361   */\n      0x00\n        /* \"#utility.yul\":12353:12441   */\n      mstore\n        /* \"#utility.yul\":12460:12464   */\n      0x22\n        /* \"#utility.yul\":12457:12458   */\n      0x04\n        /* \"#utility.yul\":12450:12465   */\n      mstore\n        /* \"#utility.yul\":12484:12488   */\n      0x24\n        /* \"#utility.yul\":12481:12482   */\n      0x00\n        /* \"#utility.yul\":12474:12489   */\n      revert\n        /* \"#utility.yul\":12501:12821   */\n    tag_134:\n        /* \"#utility.yul\":12545:12551   */\n      0x00\n        /* \"#utility.yul\":12582:12583   */\n      0x02\n        /* \"#utility.yul\":12576:12580   */\n      dup3\n        /* \"#utility.yul\":12572:12584   */\n      div\n        /* \"#utility.yul\":12562:12584   */\n      swap1\n      pop\n        /* \"#utility.yul\":12629:12630   */\n      0x01\n        /* \"#utility.yul\":12623:12627   */\n      dup3\n        /* \"#utility.yul\":12619:12631   */\n      and\n        /* \"#utility.yul\":12650:12668   */\n      dup1\n        /* \"#utility.yul\":12640:12721   */\n      tag_543\n      jumpi\n        /* \"#utility.yul\":12706:12710   */\n      0x7f\n        /* \"#utility.yul\":12698:12704   */\n      dup3\n        /* \"#utility.yul\":12694:12711   */\n      and\n        /* \"#utility.yul\":12684:12711   */\n      swap2\n      pop\n        /* \"#utility.yul\":12640:12721   */\n    tag_543:\n        /* \"#utility.yul\":12768:12770   */\n      0x20\n        /* \"#utility.yul\":12760:12766   */\n      dup3\n        /* \"#utility.yul\":12757:12771   */\n      lt\n        /* \"#utility.yul\":12737:12755   */\n      dup2\n        /* \"#utility.yul\":12734:12772   */\n      sub\n        /* \"#utility.yul\":12731:12815   */\n      tag_544\n      jumpi\n        /* \"#utility.yul\":12787:12805   */\n      tag_545\n      tag_362\n      jump\t// in\n    tag_545:\n        /* \"#utility.yul\":12731:12815   */\n    tag_544:\n        /* \"#utility.yul\":12552:12821   */\n      pop\n        /* \"#utility.yul\":12501:12821   */\n      swap2\n      swap1\n      pop\n      jump\t// out\n        /* \"#utility.yul\":12827:12997   */\n    tag_363:\n        /* \"#utility.yul\":12967:12989   */\n      0x496e73756666696369656e742062616c616e6365000000000000000000000000\n        /* \"#utility.yul\":12963:12964   */\n      0x00\n        /* \"#utility.yul\":12955:12961   */\n      dup3\n        /* \"#utility.yul\":12951:12965   */\n      add\n        /* \"#utility.yul\":12944:12990   */\n      mstore\n        /* \"#utility.yul\":12827:12997   */\n      pop\n      jump\t// out\n        /* \"#utility.yul\":13003:13369   */\n    tag_364:\n        /* \"#utility.yul\":13145:13148   */\n      0x00\n        /* \"#utility.yul\":13166:13233   */\n      tag_548\n        /* \"#utility.yul\":13230:13232   */\n      0x14\n        /* \"#utility.yul\":13225:13228   */\n      dup4\n        /* \"#utility.yul\":13166:13233   */\n      tag_323\n      jump\t// in\n    tag_548:\n        /* \"#utility.yul\":13159:13233   */\n      swap2\n      pop\n        /* \"#utility.yul\":13242:13335   */\n      tag_549\n        /* \"#utility.yul\":13331:13334   */\n      dup3\n        /* \"#utility.yul\":13242:13335   */\n      tag_363\n      jump\t// in\n    tag_549:\n        /* \"#utility.yul\":13360:13362   */\n      0x20\n        /* \"#utility.yul\":13355:13358   */\n      dup3\n        /* \"#utility.yul\":13351:13363   */\n      add\n        /* \"#utility.yul\":13344:13363   */\n      swap1\n      pop\n        /* \"#utility.yul\":13003:13369   */\n      swap2\n      swap1\n      pop\n      jump\t// out\n        /* \"#utility.yul\":13375:13794   */\n    tag_148:\n        /* \"#utility.yul\":13541:13545   */\n      0x00\n        /* \"#utility.yul\":13579:13581   */\n      0x20\n        /* \"#utility.yul\":13568:13577   */\n      dup3\n        /* \"#utility.yul\":13564:13582   */\n      add\n        /* \"#utility.yul\":13556:13582   */\n      swap1\n      pop\n        /* \"#utility.yul\":13628:13637   */\n      dup2\n        /* \"#utility.yul\":13622:13626   */\n      dup2\n        /* \"#utility.yul\":13618:13638   */\n      sub\n        /* \"#utility.yul\":13614:13615   */\n      0x00\n        /* \"#utility.yul\":13603:13612   */\n      dup4\n        /* \"#utility.yul\":13599:13616   */\n      add\n        /* \"#utility.yul\":13592:13639   */\n      mstore\n        /* \"#utility.yul\":13656:13787   */\n      tag_551\n        /* \"#utility.yul\":13782:13786   */\n      dup2\n        /* \"#utility.yul\":13656:13787   */\n      tag_364\n      jump\t// in\n    tag_551:\n        /* \"#utility.yul\":13648:13787   */\n      swap1\n      pop\n        /* \"#utility.yul\":13375:13794   */\n      swap2\n      swap1\n      pop\n      jump\t// out\n        /* \"#utility.yul\":13800:13941   */\n    tag_365:\n        /* \"#utility.yul\":13849:13853   */\n      0x00\n        /* \"#utility.yul\":13872:13875   */\n      dup2\n        /* \"#utility.yul\":13864:13875   */\n      swap1\n      pop\n        /* \"#utility.yul\":13895:13898   */\n      dup2\n        /* \"#utility.yul\":13892:13893   */\n      0x00\n        /* \"#utility.yul\":13885:13899   */\n      mstore\n        /* \"#utility.yul\":13929:13933   */\n      0x20\n        /* \"#utility.yul\":13926:13927   */\n      0x00\n        /* \"#utility.yul\":13916:13934   */\n      keccak256\n        /* \"#utility.yul\":13908:13934   */\n      swap1\n      pop\n        /* \"#utility.yul\":13800:13941   */\n      swap2\n      swap1\n      pop\n      jump\t// out\n        /* \"#utility.yul\":13947:14040   */\n    tag_366:\n        /* \"#utility.yul\":13984:13990   */\n      0x00\n        /* \"#utility.yul\":14031:14033   */\n      0x20\n        /* \"#utility.yul\":14026:14028   */\n      0x1f\n        /* \"#utility.yul\":14019:14024   */\n      dup4\n        /* \"#utility.yul\":14015:14029   */\n      add\n        /* \"#utility.yul\":14011:14034   */\n      div\n        /* \"#utility.yul\":14001:14034   */\n      swap1\n      pop\n        /* \"#utility.yul\":13947:14040   */\n      swap2\n      swap1\n      pop\n      jump\t// out\n        /* \"#utility.yul\":14046:14153   */\n    tag_367:\n        /* \"#utility.yul\":14090:14098   */\n      0x00\n        /* \"#utility.yul\":14140:14145   */\n      dup3\n        /* \"#utility.yul\":14134:14138   */\n      dup3\n        /* \"#utility.yul\":14130:14146   */\n      shl\n        /* \"#utility.yul\":14109:14146   */\n      swap1\n      pop\n        /* \"#utility.yul\":14046:14153   */\n      swap3\n      swap2\n      pop\n      pop\n      jump\t// out\n        /* \"#utility.yul\":14159:14552   */\n    tag_368:\n        /* \"#utility.yul\":14228:14234   */\n      0x00\n        /* \"#utility.yul\":14278:14279   */\n      0x08\n        /* \"#utility.yul\":14266:14276   */\n      dup4\n        /* \"#utility.yul\":14262:14280   */\n      mul\n        /* \"#utility.yul\":14301:14398   */\n      tag_556\n        /* \"#utility.yul\":14331:14397   */\n      0xffffffffffffffffffffffffffffffffffffffffffffffffffffffffffffffff\n        /* \"#utility.yul\":14320:14329   */\n      dup3\n        /* \"#utility.yul\":14301:14398   */\n      tag_367\n      jump\t// in\n    tag_556:\n        /* \"#utility.yul\":14419:14458   */\n      tag_557\n        /* \"#utility.yul\":14449:14457   */\n      dup7\n        /* \"#utility.yul\":14438:14447   */\n      dup4\n        /* \"#utility.yul\":14419:14458   */\n      tag_367\n      jump\t// in\n    tag_557:\n        /* \"#utility.yul\":14407:14458   */\n      swap6\n      pop\n        /* \"#utility.yul\":14491:14495   */\n      dup1\n        /* \"#utility.yul\":14487:14496   */\n      not\n        /* \"#utility.yul\":14480:14485   */\n      dup5\n        /* \"#utility.yul\":14476:14497   */\n      and\n        /* \"#utility.yul\":14467:14497   */\n      swap4\n      pop\n        /* \"#utility.yul\":14540:14544   */\n      dup1\n        /* \"#utility.yul\":14530:14538   */\n      dup7\n        /* \"#utility.yul\":14526:14545   */\n      and\n        /* \"#utility.yul\":14519:14524   */\n      dup5\n        /* \"#utility.yul\":14516:14546   */\n      or\n        /* \"#utility.yul\":14506:14546   */\n      swap3\n      pop\n        /* \"#utility.yul\":14235:14552   */\n      pop\n      pop\n        /* \"#utility.yul\":14159:14552   */\n      swap4\n      swap3\n      pop\n      pop\n      pop\n      jump\t// out\n        /* \"#utility.yul\":14558:14618   */\n    tag_369:\n        /* \"#utility.yul\":14586:14589   */\n      0x00\n        /* \"#utility.yul\":14607:14612   */\n      dup2\n        /* \"#utility.yul\":14600:14612   */\n      swap1\n      pop\n        /* \"#utility.yul\":14558:14618   */\n      swap2\n      swap1\n      pop\n      jump\t// out\n        /* \"#utility.yul\":14624:14766   */\n    tag_370:\n        /* \"#utility.yul\":14674:14683   */\n      0x00\n        /* \"#utility.yul\":14707:14760   */\n      tag_560\n        /* \"#utility.yul\":14725:14759   */\n      tag_561\n        /* \"#utility.yul\":14734:14758   */\n      tag_562\n        /* \"#utility.yul\":14752:14757   */\n      dup5\n        /* \"#utility.yul\":14734:14758   */\n      tag_334\n      jump\t// in\n    tag_562:\n        /* \"#utility.yul\":14725:14759   */\n      tag_369\n      jump\t// in\n    tag_561:\n        /* \"#utility.yul\":14707:14760   */\n      tag_334\n      jump\t// in\n    tag_560:\n        /* \"#utility.yul\":14694:14760   */\n      swap1\n      pop\n        /* \"#utility.yul\":14624:14766   */\n      swap2\n      swap1\n      pop\n      jump\t// out\n        /* \"#utility.yul\":14772:14847   */\n    tag_371:\n        /* \"#utility.yul\":14815:14818   */\n      0x00\n        /* \"#utility.yul\":14836:14841   */\n      dup2\n        /* \"#utility.yul\":14829:14841   */\n      swap1\n      pop\n        /* \"#utility.yul\":14772:14847   */\n      swap2\n      swap1\n      pop\n      jump\t// out\n        /* \"#utility.yul\":14853:15122   */\n    tag_372:\n        /* \"#utility.yul\":14963:15002   */\n      tag_565\n        /* \"#utility.yul\":14994:15001   */\n      dup4\n        /* \"#utility.yul\":14963:15002   */\n      tag_370\n      jump\t// in\n    tag_565:\n        /* \"#utility.yul\":15024:15115   */\n      tag_566\n        /* \"#utility.yul\":15073:15114   */\n      tag_567\n        /* \"#utility.yul\":15097:15113   */\n      dup3\n        /* \"#utility.yul\":15073:15114   */\n      tag_371\n      jump\t// in\n    tag_567:\n        /* \"#utility.yul\":15065:15071   */\n      dup5\n        /* \"#utility.yul\":15058:15062   */\n      dup5\n        /* \"#utility.yul\":15052:15063   */\n      sload\n        /* \"#utility.yul\":15024:15115   */\n      tag_368\n      jump\t// in\n    tag_566:\n        /* \"#utility.yul\":15018:15022   */\n      dup3\n        /* \"#utility.yul\":15011:15116   */\n      sstore\n        /* \"#utility.yul\":14929:15122   */\n      pop\n        /* \"#utility.yul\":14853:15122   */\n      pop\n      pop\n      pop\n      jump\t// out\n        /* \"#utility.yul\":15128:15201   */\n    tag_373:\n        /* \"#utility.yul\":15173:15176   */\n      0x00\n        /* \"#utility.yul\":15128:15201   */\n      swap1\n      jump\t// out\n        /* \"#utility.yul\":15207:15396   */\n    tag_374:\n        /* \"#utility.yul\":15284:15316   */\n      tag_570\n      tag_373\n      jump\t// in\n    tag_570:\n        /* \"#utility.yul\":15325:15390   */\n      tag_571\n        /* \"#utility.yul\":15383:15389   */\n      dup2\n        /* \"#utility.yul\":15375:15381   */\n      dup5\n        /* \"#utility.yul\":15369:15373   */\n      dup5\n        /* \"#utility.yul\":15325:15390   */\n      tag_372\n      jump\t// in\n    tag_571:\n        /* \"#utility.yul\":15260:15396   */\n      pop\n        /* \"#utility.yul\":15207:15396   */\n      pop\n      pop\n      jump\t// out\n        /* \"#utility.yul\":15402:15588   */\n    tag_375:\n        /* \"#utility.yul\":15462:15582   */\n    tag_573:\n        /* \"#utility.yul\":15479:15482   */\n      dup2\n        /* \"#utility.yul\":15472:15477   */\n      dup2\n        /* \"#utility.yul\":15469:15483   */\n      lt\n        /* \"#utility.yul\":15462:15582   */\n      iszero\n      tag_575\n      jumpi\n        /* \"#utility.yul\":15533:15572   */\n      tag_576\n        /* \"#utility.yul\":15570:15571   */\n      0x00\n        /* \"#utility.yul\":15563:15568   */\n      dup3\n        /* \"#utility.yul\":15533:15572   */\n      tag_374\n      jump\t// in\n    tag_576:\n        /* \"#utility.yul\":15506:15507   */\n      0x01\n        /* \"#utility.yul\":15499:15504   */\n      dup2\n        /* \"#utility.yul\":15495:15508   */\n      add\n        /* \"#utility.yul\":15486:15508   */\n      swap1\n      pop\n        /* \"#utility.yul\":15462:15582   */\n      jump(tag_573)\n    tag_575:\n        /* \"#utility.yul\":15402:15588   */\n      pop\n      pop\n      jump\t// out\n        /* \"#utility.yul\":15594:16137   */\n    tag_376:\n        /* \"#utility.yul\":15695:15697   */\n      0x1f\n        /* \"#utility.yul\":15690:15693   */\n      dup3\n        /* \"#utility.yul\":15687:15698   */\n      gt\n        /* \"#utility.yul\":15684:16130   */\n      iszero\n      tag_578\n      jumpi\n        /* \"#utility.yul\":15729:15767   */\n      tag_579\n        /* \"#utility.yul\":15761:15766   */\n      dup2\n        /* \"#utility.yul\":15729:15767   */\n      tag_365\n      jump\t// in\n    tag_579:\n        /* \"#utility.yul\":15813:15842   */\n      tag_580\n        /* \"#utility.yul\":15831:15841   */\n      dup5\n        /* \"#utility.yul\":15813:15842   */\n      tag_366\n      jump\t// in\n    tag_580:\n        /* \"#utility.yul\":15803:15811   */\n      dup2\n        /* \"#utility.yul\":15799:15843   */\n      add\n        /* \"#utility.yul\":15996:15998   */\n      0x20\n        /* \"#utility.yul\":15984:15994   */\n      dup6\n        /* \"#utility.yul\":15981:15999   */\n      lt\n        /* \"#utility.yul\":15978:16027   */\n      iszero\n      tag_581\n      jumpi\n        /* \"#utility.yul\":16017:16025   */\n      dup2\n        /* \"#utility.yul\":16002:16025   */\n      swap1\n      pop\n        /* \"#utility.yul\":15978:16027   */\n    tag_581:\n        /* \"#utility.yul\":16040:16120   */\n      tag_582\n        /* \"#utility.yul\":16096:16118   */\n      tag_583\n        /* \"#utility.yul\":16114:16117   */\n      dup6\n        /* \"#utility.yul\":16096:16118   */\n      tag_366\n      jump\t// in\n    tag_583:\n        /* \"#utility.yul\":16086:16094   */\n      dup4\n        /* \"#utility.yul\":16082:16119   */\n      add\n        /* \"#utility.yul\":16069:16080   */\n      dup3\n        /* \"#utility.yul\":16040:16120   */\n      tag_375\n      jump\t// in\n    tag_582:\n        /* \"#utility.yul\":15699:16130   */\n      pop\n      pop\n        /* \"#utility.yul\":15684:16130   */\n    tag_578:\n        /* \"#utility.yul\":15594:16137   */\n      pop\n      pop\n      pop\n      jump\t// out\n        /* \"#utility.yul\":16143:16260   */\n    tag_377:\n        /* \"#utility.yul\":16197:16205   */\n      0x00\n        /* \"#utility.yul\":16247:16252   */\n      dup3\n        /* \"#utility.yul\":16241:16245   */\n      dup3\n        /* \"#utility.yul\":16237:16253   */\n      shr\n        /* \"#utility.yul\":16216:16253   */\n      swap1\n      pop\n        /* \"#utility.yul\":16143:16260   */\n      swap3\n      swap2\n      pop\n      pop\n      jump\t// out\n        /* \"#utility.yul\":16266:16435   */\n    tag_378:\n        /* \"#utility.yul\":16310:16316   */\n      0x00\n        /* \"#utility.yul\":16343:16394   */\n      tag_586\n        /* \"#utility.yul\":16391:16392   */\n      0x00\n        /* \"#utility.yul\":16387:16393   */\n      not\n        /* \"#utility.yul\":16379:16384   */\n      dup5\n        /* \"#utility.yul\":16376:16377   */\n      0x08\n        /* \"#utility.yul\":16372:16385   */\n      mul\n        /* \"#utility.yul\":16343:16394   */\n      tag_377\n      jump\t// in\n    tag_586:\n        /* \"#utility.yul\":16339:16395   */\n      not\n        /* \"#utility.yul\":16424:16428   */\n      dup1\n        /* \"#utility.yul\":16418:16422   */\n      dup4\n        /* \"#utility.yul\":16414:16429   */\n      and\n        /* \"#utility.yul\":16404:16429   */\n      swap2\n      pop\n        /* \"#utility.yul\":16317:16435   */\n      pop\n        /* \"#utility.yul\":16266:16435   */\n      swap3\n      swap2\n      pop\n      pop\n      jump\t// out\n        /* \"#utility.yul\":16440:16735   */\n    tag_379:\n        /* \"#utility.yul\":16516:16520   */\n      0x00\n        /* \"#utility.yul\":16662:16691   */\n      tag_588\n        /* \"#utility.yul\":16687:16690   */\n      dup4\n        /* \"#utility.yul\":16681:16685   */\n      dup4\n        /* \"#utility.yul\":16662:16691   */\n      tag_378\n      jump\t// in\n    tag_588:\n        /* \"#utility.yul\":16654:16691   */\n      swap2\n      pop\n        /* \"#utility.yul\":16724:16727   */\n      dup3\n        /* \"#utility.yul\":16721:16722   */\n      0x02\n        /* \"#utility.yul\":16717:16728   */\n      mul\n        /* \"#utility.yul\":16711:16715   */\n      dup3\n        /* \"#utility.yul\":16708:16729   */\n      or\n        /* \"#utility.yul\":16700:16729   */\n      swap1\n      pop\n        /* \"#utility.yul\":16440:16735   */\n      swap3\n      swap2\n      pop\n      pop\n      jump\t// out\n        /* \"#utility.yul\":16740:18135   */\n    tag_180:\n        /* \"#utility.yul\":16857:16894   */\n      tag_590\n        /* \"#utility.yul\":16890:16893   */\n      dup3\n        /* \"#utility.yul\":16857:16894   */\n      tag_322\n      jump\t// in\n    tag_590:\n        /* \"#utility.yul\":16959:16977   */\n      0xffffffffffffffff\n        /* \"#utility.yul\":16951:16957   */\n      dup2\n        /* \"#utility.yul\":16948:16978   */\n      gt\n        /* \"#utility.yul\":16945:17001   */\n      iszero\n      tag_591\n      jumpi\n        /* \"#utility.yul\":16981:16999   */\n      tag_592\n      tag_234\n      jump\t// in\n    tag_592:\n        /* \"#utility.yul\":16945:17001   */\n    tag_591:\n        /* \"#utility.yul\":17025:17063   */\n      tag_593\n        /* \"#utility.yul\":17057:17061   */\n      dup3\n        /* \"#utility.yul\":17051:17062   */\n      sload\n        /* \"#utility.yul\":17025:17063   */\n      tag_134\n      jump\t// in\n    tag_593:\n        /* \"#utility.yul\":17110:17177   */\n      tag_594\n        /* \"#utility.yul\":17170:17176   */\n      dup3\n        /* \"#utility.yul\":17162:17168   */\n      dup3\n        /* \"#utility.yul\":17156:17160   */\n      dup6\n        /* \"#utility.yul\":17110:17177   */\n      tag_376\n      jump\t// in\n    tag_594:\n        /* \"#utility.yul\":17204:17205   */\n      0x00\n        /* \"#utility.yul\":17228:17232   */\n      0x20\n        /* \"#utility.yul\":17215:17232   */\n      swap1\n      pop\n        /* \"#utility.yul\":17260:17262   */\n      0x1f\n        /* \"#utility.yul\":17252:17258   */\n      dup4\n        /* \"#utility.yul\":17249:17263   */\n      gt\n        /* \"#utility.yul\":17277:17278   */\n      0x01\n        /* \"#utility.yul\":17272:17890   */\n      dup2\n      eq\n      tag_596\n      jumpi\n        /* \"#utility.yul\":17934:17935   */\n      0x00\n        /* \"#utility.yul\":17951:17957   */\n      dup5\n        /* \"#utility.yul\":17948:18025   */\n      iszero\n      tag_597\n      jumpi\n        /* \"#utility.yul\":18000:18009   */\n      dup3\n        /* \"#utility.yul\":17995:17998   */\n      dup8\n        /* \"#utility.yul\":17991:18010   */\n      add\n        /* \"#utility.yul\":17985:18011   */\n      mload\n        /* \"#utility.yul\":17976:18011   */\n      swap1\n      pop\n        /* \"#utility.yul\":17948:18025   */\n    tag_597:\n        /* \"#utility.yul\":18051:18118   */\n      tag_598\n        /* \"#utility.yul\":18111:18117   */\n      dup6\n        /* \"#utility.yul\":18104:18109   */\n      dup3\n        /* \"#utility.yul\":18051:18118   */\n      tag_379\n      jump\t// in\n    tag_598:\n        /* \"#utility.yul\":18045:18049   */\n      dup7\n        /* \"#utility.yul\":18038:18119   */\n      sstore\n        /* \"#utility.yul\":17907:18129   */\n      pop\n        /* \"#utility.yul\":17242:18129   */\n      jump(tag_595)\n        /* \"#utility.yul\":17272:17890   */\n    tag_596:\n        /* \"#utility.yul\":17324:17328   */\n      0x1f\n        /* \"#utility.yul\":17320:17329   */\n      not\n        /* \"#utility.yul\":17312:17318   */\n      dup5\n        /* \"#utility.yul\":17308:17330   */\n      and\n        /* \"#utility.yul\":17358:17395   */\n      tag_599\n        /* \"#utility.yul\":17390:17394   */\n      dup7\n        /* \"#utility.yul\":17358:17395   */\n      tag_365\n      jump\t// in\n    tag_599:\n        /* \"#utility.yul\":17417:17418   */\n      0x00\n        /* \"#utility.yul\":17431:17639   */\n    tag_600:\n        /* \"#utility.yul\":17445:17452   */\n      dup3\n        /* \"#utility.yul\":17442:17443   */\n      dup2\n        /* \"#utility.yul\":17439:17453   */\n      lt\n        /* \"#utility.yul\":17431:17639   */\n      iszero\n      tag_602\n      jumpi\n        /* \"#utility.yul\":17524:17533   */\n      dup5\n        /* \"#utility.yul\":17519:17522   */\n      dup10\n        /* \"#utility.yul\":17515:17534   */\n      add\n        /* \"#utility.yul\":17509:17535   */\n      mload\n        /* \"#utility.yul\":17501:17507   */\n      dup3\n        /* \"#utility.yul\":17494:17536   */\n      sstore\n        /* \"#utility.yul\":17575:17576   */\n      0x01\n        /* \"#utility.yul\":17567:17573   */\n      dup3\n        /* \"#utility.yul\":17563:17577   */\n      add\n        /* \"#utility.yul\":17553:17577   */\n      swap2\n      pop\n        /* \"#utility.yul\":17622:17624   */\n      0x20\n        /* \"#utility.yul\":17611:17620   */\n      dup6\n        /* \"#utility.yul\":17607:17625   */\n      add\n        /* \"#utility.yul\":17594:17625   */\n      swap5\n      pop\n        /* \"#utility.yul\":17468:17472   */\n      0x20\n        /* \"#utility.yul\":17465:17466   */\n      dup2\n        /* \"#utility.yul\":17461:17473   */\n      add\n        /* \"#utility.yul\":17456:17473   */\n      swap1\n      pop\n        /* \"#utility.yul\":17431:17639   */\n      jump(tag_600)\n    tag_602:\n        /* \"#utility.yul\":17667:17673   */\n      dup7\n        /* \"#utility.yul\":17658:17665   */\n      dup4\n        /* \"#utility.yul\":17655:17674   */\n      lt\n        /* \"#utility.yul\":17652:17831   */\n      iszero\n      tag_603\n      jumpi\n        /* \"#utility.yul\":17725:17734   */\n      dup5\n        /* \"#utility.yul\":17720:17723   */\n      dup10\n        /* \"#utility.yul\":17716:17735   */\n      add\n        /* \"#utility.yul\":17710:17736   */\n      mload\n        /* \"#utility.yul\":17768:17816   */\n      tag_604\n        /* \"#utility.yul\":17810:17814   */\n      0x1f\n        /* \"#utility.yul\":17802:17808   */\n      dup10\n        /* \"#utility.yul\":17798:17815   */\n      and\n        /* \"#utility.yul\":17787:17796   */\n      dup3\n        /* \"#utility.yul\":17768:17816   */\n      tag_378\n      jump\t// in\n    tag_604:\n        /* \"#utility.yul\":17760:17766   */\n      dup4\n        /* \"#utility.yul\":17753:17817   */\n      sstore\n        /* \"#utility.yul\":17675:17831   */\n      pop\n        /* \"#utility.yul\":17652:17831   */\n    tag_603:\n        /* \"#utility.yul\":17877:17878   */\n      0x01\n        /* \"#utility.yul\":17873:17874   */\n      0x02\n        /* \"#utility.yul\":17865:17871   */\n      dup9\n        /* \"#utility.yul\":17861:17875   */\n      mul\n        /* \"#utility.yul\":17857:17879   */\n      add\n        /* \"#utility.yul\":17851:17855   */\n      dup9\n        /* \"#utility.yul\":17844:17880   */\n      sstore\n        /* \"#utility.yul\":17279:17890   */\n      pop\n      pop\n      pop\n        /* \"#utility.yul\":17242:18129   */\n    tag_595:\n      pop\n        /* \"#utility.yul\":16832:18135   */\n      pop\n      pop\n      pop\n        /* \"#utility.yul\":16740:18135   */\n      pop\n      pop\n      jump\t// out\n        /* \"#utility.yul\":18141:18321   */\n    tag_380:\n        /* \"#utility.yul\":18189:18266   */\n      0x4e487b7100000000000000000000000000000000000000000000000000000000\n        /* \"#utility.yul\":18186:18187   */\n      0x00\n        /* \"#utility.yul\":18179:18267   */\n      mstore\n        /* \"#utility.yul\":18286:18290   */\n      0x11\n        /* \"#utility.yul\":18283:18284   */\n      0x04\n        /* \"#utility.yul\":18276:18291   */\n      mstore\n        /* \"#utility.yul\":18310:18314   */\n      0x24\n        /* \"#utility.yul\":18307:18308   */\n      0x00\n        /* \"#utility.yul\":18300:18315   */\n      revert\n        /* \"#utility.yul\":18327:18494   */\n    tag_182:\n        /* \"#utility.yul\":18364:18367   */\n      0x00\n        /* \"#utility.yul\":18387:18409   */\n      tag_607\n        /* \"#utility.yul\":18403:18408   */\n      dup3\n        /* \"#utility.yul\":18387:18409   */\n      tag_340\n      jump\t// in\n    tag_607:\n        /* \"#utility.yul\":18378:18409   */\n      swap2\n      pop\n        /* \"#utility.yul\":18431:18435   */\n      0xff\n        /* \"#utility.yul\":18424:18429   */\n      dup3\n        /* \"#utility.yul\":18421:18436   */\n      sub\n        /* \"#utility.yul\":18418:18459   */\n      tag_608\n      jumpi\n        /* \"#utility.yul\":18439:18457   */\n      tag_609\n      tag_380\n      jump\t// in\n    tag_609:\n        /* \"#utility.yul\":18418:18459   */\n    tag_608:\n        /* \"#utility.yul\":18486:18487   */\n      0x01\n        /* \"#utility.yul\":18479:18484   */\n      dup3\n        /* \"#utility.yul\":18475:18488   */\n      add\n        /* \"#utility.yul\":18468:18488   */\n      swap1\n      pop\n        /* \"#utility.yul\":18327:18494   */\n      swap2\n      swap1\n      pop\n      jump\t// out\n        /* \"#utility.yul\":18500:18669   */\n    tag_381:\n        /* \"#utility.yul\":18640:18661   */\n      0x496e73756666696369656e7420616d6f756e7400000000000000000000000000\n        /* \"#utility.yul\":18636:18637   */\n      0x00\n        /* \"#utility.yul\":18628:18634   */\n      dup3\n        /* \"#utility.yul\":18624:18638   */\n      add\n        /* \"#utility.yul\":18617:18662   */\n      mstore\n        /* \"#utility.yul\":18500:18669   */\n      pop\n      jump\t// out\n        /* \"#utility.yul\":18675:19041   */\n    tag_382:\n        /* \"#utility.yul\":18817:18820   */\n      0x00\n        /* \"#utility.yul\":18838:18905   */\n      tag_612\n        /* \"#utility.yul\":18902:18904   */\n      0x13\n        /* \"#utility.yul\":18897:18900   */\n      dup4\n        /* \"#utility.yul\":18838:18905   */\n      tag_323\n      jump\t// in\n    tag_612:\n        /* \"#utility.yul\":18831:18905   */\n      swap2\n      pop\n        /* \"#utility.yul\":18914:19007   */\n      tag_613\n        /* \"#utility.yul\":19003:19006   */\n      dup3\n        /* \"#utility.yul\":18914:19007   */\n      tag_381\n      jump\t// in\n    tag_613:\n        /* \"#utility.yul\":19032:19034   */\n      0x20\n        /* \"#utility.yul\":19027:19030   */\n      dup3\n        /* \"#utility.yul\":19023:19035   */\n      add\n        /* \"#utility.yul\":19016:19035   */\n      swap1\n      pop\n        /* \"#utility.yul\":18675:19041   */\n      swap2\n      swap1\n      pop\n      jump\t// out\n        /* \"#utility.yul\":19047:19466   */\n    tag_197:\n        /* \"#utility.yul\":19213:19217   */\n      0x00\n        /* \"#utility.yul\":19251:19253   */\n      0x20\n        /* \"#utility.yul\":19240:19249   */\n      dup3\n        /* \"#utility.yul\":19236:19254   */\n      add\n        /* \"#utility.yul\":19228:19254   */\n      swap1\n      pop\n        /* \"#utility.yul\":19300:19309   */\n      dup2\n        /* \"#utility.yul\":19294:19298   */\n      dup2\n        /* \"#utility.yul\":19290:19310   */\n      sub\n        /* \"#utility.yul\":19286:19287   */\n      0x00\n        /* \"#utility.yul\":19275:19284   */\n      dup4\n        /* \"#utility.yul\":19271:19288   */\n      add\n        /* \"#utility.yul\":19264:19311   */\n      mstore\n        /* \"#utility.yul\":19328:19459   */\n      tag_615\n        /* \"#utility.yul\":19454:19458   */\n      dup2\n        /* \"#utility.yul\":19328:19459   */\n      tag_382\n      jump\t// in\n    tag_615:\n        /* \"#utility.yul\":19320:19459   */\n      swap1\n      pop\n        /* \"#utility.yul\":19047:19466   */\n      swap2\n      swap1\n      pop\n      jump\t// out\n        /* \"#utility.yul\":19472:19636   */\n    tag_383:\n        /* \"#utility.yul\":19612:19628   */\n      0x4974656d206e6f7420666f756e64000000000000000000000000000000000000\n        /* \"#utility.yul\":19608:19609   */\n      0x00\n        /* \"#utility.yul\":19600:19606   */\n      dup3\n        /* \"#utility.yul\":19596:19610   */\n      add\n        /* \"#utility.yul\":19589:19629   */\n      mstore\n        /* \"#utility.yul\":19472:19636   */\n      pop\n      jump\t// out\n        /* \"#utility.yul\":19642:20008   */\n    tag_384:\n        /* \"#utility.yul\":19784:19787   */\n      0x00\n        /* \"#utility.yul\":19805:19872   */\n      tag_618\n        /* \"#utility.yul\":19869:19871   */\n      0x0e\n        /* \"#utility.yul\":19864:19867   */\n      dup4\n        /* \"#utility.yul\":19805:19872   */\n      tag_323\n      jump\t// in\n    tag_618:\n        /* \"#utility.yul\":19798:19872   */\n      swap2\n      pop\n        /* \"#utility.yul\":19881:19974   */\n      tag_619\n        /* \"#utility.yul\":19970:19973   */\n      dup3\n        /* \"#utility.yul\":19881:19974   */\n      tag_383\n      jump\t// in\n    tag_619:\n        /* \"#utility.yul\":19999:20001   */\n      0x20\n        /* \"#utility.yul\":19994:19997   */\n      dup3\n        /* \"#utility.yul\":19990:20002   */\n      add\n        /* \"#utility.yul\":19983:20002   */\n      swap1\n      pop\n        /* \"#utility.yul\":19642:20008   */\n      swap2\n      swap1\n      pop\n      jump\t// out\n        /* \"#utility.yul\":20014:20433   */\n    tag_213:\n        /* \"#utility.yul\":20180:20184   */\n      0x00\n        /* \"#utility.yul\":20218:20220   */\n      0x20\n        /* \"#utility.yul\":20207:20216   */\n      dup3\n        /* \"#utility.yul\":20203:20221   */\n      add\n        /* \"#utility.yul\":20195:20221   */\n      swap1\n      pop\n        /* \"#utility.yul\":20267:20276   */\n      dup2\n        /* \"#utility.yul\":20261:20265   */\n      dup2\n        /* \"#utility.yul\":20257:20277   */\n      sub\n        /* \"#utility.yul\":20253:20254   */\n      0x00\n        /* \"#utility.yul\":20242:20251   */\n      dup4\n        /* \"#utility.yul\":20238:20255   */\n      add\n        /* \"#utility.yul\":20231:20278   */\n      mstore\n        /* \"#utility.yul\":20295:20426   */\n      tag_621\n        /* \"#utility.yul\":20421:20425   */\n      dup2\n        /* \"#utility.yul\":20295:20426   */\n      tag_384\n      jump\t// in\n    tag_621:\n        /* \"#utility.yul\":20287:20426   */\n      swap1\n      pop\n        /* \"#utility.yul\":20014:20433   */\n      swap2\n      swap1\n      pop\n      jump\t// out\n        /* \"#utility.yul\":20439:20588   */\n    tag_385:\n        /* \"#utility.yul\":20488:20494   */\n      0x00\n        /* \"#utility.yul\":20522:20527   */\n      dup2\n        /* \"#utility.yul\":20516:20528   */\n      sload\n        /* \"#utility.yul\":20506:20528   */\n      swap1\n      pop\n        /* \"#utility.yul\":20548:20581   */\n      tag_623\n        /* \"#utility.yul\":20574:20580   */\n      dup2\n        /* \"#utility.yul\":20548:20581   */\n      tag_134\n      jump\t// in\n    tag_623:\n        /* \"#utility.yul\":20538:20581   */\n      swap1\n      pop\n        /* \"#utility.yul\":20439:20588   */\n      swap2\n      swap1\n      pop\n      jump\t// out\n        /* \"#utility.yul\":20594:22045   */\n    tag_220:\n        /* \"#utility.yul\":20705:20708   */\n      dup2\n        /* \"#utility.yul\":20699:20703   */\n      dup2\n        /* \"#utility.yul\":20696:20709   */\n      sub\n        /* \"#utility.yul\":20693:20719   */\n      tag_625\n      jumpi\n        /* \"#utility.yul\":20712:20717   */\n      pop\n      pop\n      jump(tag_624)\n        /* \"#utility.yul\":20693:20719   */\n    tag_625:\n        /* \"#utility.yul\":20743:20777   */\n      tag_626\n        /* \"#utility.yul\":20773:20776   */\n      dup3\n        /* \"#utility.yul\":20743:20777   */\n      tag_385\n      jump\t// in\n    tag_626:\n        /* \"#utility.yul\":20842:20860   */\n      0xffffffffffffffff\n        /* \"#utility.yul\":20834:20840   */\n      dup2\n        /* \"#utility.yul\":20831:20861   */\n      gt\n        /* \"#utility.yul\":20828:20884   */\n      iszero\n      tag_627\n      jumpi\n        /* \"#utility.yul\":20864:20882   */\n      tag_628\n      tag_234\n      jump\t// in\n    tag_628:\n        /* \"#utility.yul\":20828:20884   */\n    tag_627:\n        /* \"#utility.yul\":20908:20946   */\n      tag_629\n        /* \"#utility.yul\":20940:20944   */\n      dup3\n        /* \"#utility.yul\":20934:20945   */\n      sload\n        /* \"#utility.yul\":20908:20946   */\n      tag_134\n      jump\t// in\n    tag_629:\n        /* \"#utility.yul\":20993:21060   */\n      tag_630\n        /* \"#utility.yul\":21053:21059   */\n      dup3\n        /* \"#utility.yul\":21045:21051   */\n      dup3\n        /* \"#utility.yul\":21039:21043   */\n      dup6\n        /* \"#utility.yul\":20993:21060   */\n      tag_376\n      jump\t// in\n    tag_630:\n        /* \"#utility.yul\":21087:21088   */\n      0x00\n        /* \"#utility.yul\":21116:21118   */\n      0x1f\n        /* \"#utility.yul\":21108:21114   */\n      dup4\n        /* \"#utility.yul\":21105:21119   */\n      gt\n        /* \"#utility.yul\":21133:21134   */\n      0x01\n        /* \"#utility.yul\":21128:21800   */\n      dup2\n      eq\n      tag_632\n      jumpi\n        /* \"#utility.yul\":21844:21845   */\n      0x00\n        /* \"#utility.yul\":21861:21867   */\n      dup5\n        /* \"#utility.yul\":21858:21935   */\n      iszero\n      tag_633\n      jumpi\n        /* \"#utility.yul\":21910:21919   */\n      dup3\n        /* \"#utility.yul\":21905:21908   */\n      dup8\n        /* \"#utility.yul\":21901:21920   */\n      add\n        /* \"#utility.yul\":21895:21921   */\n      sload\n        /* \"#utility.yul\":21886:21921   */\n      swap1\n      pop\n        /* \"#utility.yul\":21858:21935   */\n    tag_633:\n        /* \"#utility.yul\":21961:22028   */\n      tag_634\n        /* \"#utility.yul\":22021:22027   */\n      dup6\n        /* \"#utility.yul\":22014:22019   */\n      dup3\n        /* \"#utility.yul\":21961:22028   */\n      tag_379\n      jump\t// in\n    tag_634:\n        /* \"#utility.yul\":21955:21959   */\n      dup7\n        /* \"#utility.yul\":21948:22029   */\n      sstore\n        /* \"#utility.yul\":21817:22039   */\n      pop\n        /* \"#utility.yul\":21098:22039   */\n      jump(tag_631)\n        /* \"#utility.yul\":21128:21800   */\n    tag_632:\n        /* \"#utility.yul\":21180:21184   */\n      0x1f\n        /* \"#utility.yul\":21176:21185   */\n      not\n        /* \"#utility.yul\":21168:21174   */\n      dup5\n        /* \"#utility.yul\":21164:21186   */\n      and\n        /* \"#utility.yul\":21206:21242   */\n      tag_635\n        /* \"#utility.yul\":21238:21241   */\n      dup8\n        /* \"#utility.yul\":21206:21242   */\n      tag_365\n      jump\t// in\n    tag_635:\n        /* \"#utility.yul\":21199:21242   */\n      swap7\n      pop\n        /* \"#utility.yul\":21269:21306   */\n      tag_636\n        /* \"#utility.yul\":21301:21305   */\n      dup7\n        /* \"#utility.yul\":21269:21306   */\n      tag_365\n      jump\t// in\n    tag_636:\n        /* \"#utility.yul\":21328:21329   */\n      0x00\n        /* \"#utility.yul\":21342:21549   */\n    tag_637:\n        /* \"#utility.yul\":21356:21363   */\n      dup3\n        /* \"#utility.yul\":21353:21354   */\n      dup2\n        /* \"#utility.yul\":21350:21364   */\n      lt\n        /* \"#utility.yul\":21342:21549   */\n      iszero\n      tag_639\n      jumpi\n        /* \"#utility.yul\":21435:21444   */\n      dup5\n        /* \"#utility.yul\":21430:21433   */\n      dup10\n        /* \"#utility.yul\":21426:21445   */\n      add\n        /* \"#utility.yul\":21420:21446   */\n      sload\n        /* \"#utility.yul\":21412:21418   */\n      dup3\n        /* \"#utility.yul\":21405:21447   */\n      sstore\n        /* \"#utility.yul\":21486:21487   */\n      0x01\n        /* \"#utility.yul\":21478:21484   */\n      dup3\n        /* \"#utility.yul\":21474:21488   */\n      add\n        /* \"#utility.yul\":21464:21488   */\n      swap2\n      pop\n        /* \"#utility.yul\":21533:21534   */\n      0x01\n        /* \"#utility.yul\":21522:21531   */\n      dup6\n        /* \"#utility.yul\":21518:21535   */\n      add\n        /* \"#utility.yul\":21505:21535   */\n      swap5\n      pop\n        /* \"#utility.yul\":21379:21383   */\n      0x20\n        /* \"#utility.yul\":21376:21377   */\n      dup2\n        /* \"#utility.yul\":21372:21384   */\n      add\n        /* \"#utility.yul\":21367:21384   */\n      swap1\n      pop\n        /* \"#utility.yul\":21342:21549   */\n      jump(tag_637)\n    tag_639:\n        /* \"#utility.yul\":21577:21583   */\n      dup7\n        /* \"#utility.yul\":21568:21575   */\n      dup4\n        /* \"#utility.yul\":21565:21584   */\n      lt\n        /* \"#utility.yul\":21562:21741   */\n      iszero\n      tag_640\n      jumpi\n        /* \"#utility.yul\":21635:21644   */\n      dup5\n        /* \"#utility.yul\":21630:21633   */\n      dup10\n        /* \"#utility.yul\":21626:21645   */\n      add\n        /* \"#utility.yul\":21620:21646   */\n      sload\n        /* \"#utility.yul\":21678:21726   */\n      tag_641\n        /* \"#utility.yul\":21720:21724   */\n      0x1f\n        /* \"#utility.yul\":21712:21718   */\n      dup10\n        /* \"#utility.yul\":21708:21725   */\n      and\n        /* \"#utility.yul\":21697:21706   */\n      dup3\n        /* \"#utility.yul\":21678:21726   */\n      tag_378\n      jump\t// in\n    tag_641:\n        /* \"#utility.yul\":21670:21676   */\n      dup4\n        /* \"#utility.yul\":21663:21727   */\n      sstore\n        /* \"#utility.yul\":21585:21741   */\n      pop\n        /* \"#utility.yul\":21562:21741   */\n    tag_640:\n        /* \"#utility.yul\":21787:21788   */\n      0x01\n        /* \"#utility.yul\":21783:21784   */\n      0x02\n        /* \"#utility.yul\":21775:21781   */\n      dup9\n        /* \"#utility.yul\":21771:21785   */\n      mul\n        /* \"#utility.yul\":21767:21789   */\n      add\n        /* \"#utility.yul\":21761:21765   */\n      dup9\n        /* \"#utility.yul\":21754:21790   */\n      sstore\n        /* \"#utility.yul\":21135:21800   */\n      pop\n      pop\n      pop\n        /* \"#utility.yul\":21098:22039   */\n    tag_631:\n      pop\n        /* \"#utility.yul\":20683:22045   */\n      pop\n      pop\n      pop\n        /* \"#utility.yul\":20594:22045   */\n      pop\n      pop\n    tag_624:\n      jump\t// out\n        /* \"#utility.yul\":22075:22906   */\n    tag_386:\n        /* \"#utility.yul\":22160:22163   */\n      0x00\n        /* \"#utility.yul\":22197:22202   */\n      dup2\n        /* \"#utility.yul\":22191:22203   */\n      sload\n        /* \"#utility.yul\":22226:22262   */\n      tag_643\n        /* \"#utility.yul\":22252:22261   */\n      dup2\n        /* \"#utility.yul\":22226:22262   */\n      tag_134\n      jump\t// in\n    tag_643:\n        /* \"#utility.yul\":22278:22349   */\n      tag_644\n        /* \"#utility.yul\":22342:22348   */\n      dup2\n        /* \"#utility.yul\":22337:22340   */\n      dup7\n        /* \"#utility.yul\":22278:22349   */\n      tag_323\n      jump\t// in\n    tag_644:\n        /* \"#utility.yul\":22271:22349   */\n      swap5\n      pop\n        /* \"#utility.yul\":22380:22381   */\n      0x01\n        /* \"#utility.yul\":22369:22378   */\n      dup3\n        /* \"#utility.yul\":22365:22382   */\n      and\n        /* \"#utility.yul\":22396:22397   */\n      0x00\n        /* \"#utility.yul\":22391:22555   */\n      dup2\n      eq\n      tag_646\n      jumpi\n        /* \"#utility.yul\":22569:22570   */\n      0x01\n        /* \"#utility.yul\":22564:22900   */\n      dup2\n      eq\n      tag_647\n      jumpi\n        /* \"#utility.yul\":22358:22900   */\n      jump(tag_645)\n        /* \"#utility.yul\":22391:22555   */\n    tag_646:\n        /* \"#utility.yul\":22475:22479   */\n      0xff\n        /* \"#utility.yul\":22471:22480   */\n      not\n        /* \"#utility.yul\":22460:22469   */\n      dup4\n        /* \"#utility.yul\":22456:22481   */\n      and\n        /* \"#utility.yul\":22451:22454   */\n      dup7\n        /* \"#utility.yul\":22444:22482   */\n      mstore\n        /* \"#utility.yul\":22535:22541   */\n      dup2\n        /* \"#utility.yul\":22528:22542   */\n      iszero\n        /* \"#utility.yul\":22521:22543   */\n      iszero\n        /* \"#utility.yul\":22515:22519   */\n      0x20\n        /* \"#utility.yul\":22511:22544   */\n      mul\n        /* \"#utility.yul\":22506:22509   */\n      dup7\n        /* \"#utility.yul\":22502:22545   */\n      add\n        /* \"#utility.yul\":22495:22545   */\n      swap4\n      pop\n        /* \"#utility.yul\":22391:22555   */\n      jump(tag_645)\n        /* \"#utility.yul\":22564:22900   */\n    tag_647:\n        /* \"#utility.yul\":22631:22669   */\n      tag_648\n        /* \"#utility.yul\":22663:22668   */\n      dup6\n        /* \"#utility.yul\":22631:22669   */\n      tag_365\n      jump\t// in\n    tag_648:\n        /* \"#utility.yul\":22691:22692   */\n      0x00\n        /* \"#utility.yul\":22705:22859   */\n    tag_649:\n        /* \"#utility.yul\":22719:22725   */\n      dup4\n        /* \"#utility.yul\":22716:22717   */\n      dup2\n        /* \"#utility.yul\":22713:22726   */\n      lt\n        /* \"#utility.yul\":22705:22859   */\n      iszero\n      tag_651\n      jumpi\n        /* \"#utility.yul\":22793:22800   */\n      dup2\n        /* \"#utility.yul\":22787:22801   */\n      sload\n        /* \"#utility.yul\":22783:22784   */\n      dup2\n        /* \"#utility.yul\":22778:22781   */\n      dup10\n        /* \"#utility.yul\":22774:22785   */\n      add\n        /* \"#utility.yul\":22767:22802   */\n      mstore\n        /* \"#utility.yul\":22843:22844   */\n      0x01\n        /* \"#utility.yul\":22834:22841   */\n      dup3\n        /* \"#utility.yul\":22830:22845   */\n      add\n        /* \"#utility.yul\":22819:22845   */\n      swap2\n      pop\n        /* \"#utility.yul\":22741:22745   */\n      0x20\n        /* \"#utility.yul\":22738:22739   */\n      dup2\n        /* \"#utility.yul\":22734:22746   */\n      add\n        /* \"#utility.yul\":22729:22746   */\n      swap1\n      pop\n        /* \"#utility.yul\":22705:22859   */\n      jump(tag_649)\n    tag_651:\n        /* \"#utility.yul\":22888:22889   */\n      dup1\n        /* \"#utility.yul\":22883:22886   */\n      dup9\n        /* \"#utility.yul\":22879:22890   */\n      add\n        /* \"#utility.yul\":22872:22890   */\n      swap6\n      pop\n        /* \"#utility.yul\":22571:22900   */\n      pop\n      pop\n        /* \"#utility.yul\":22358:22900   */\n    tag_645:\n      pop\n        /* \"#utility.yul\":22164:22906   */\n      pop\n      pop\n        /* \"#utility.yul\":22075:22906   */\n      swap3\n      swap2\n      pop\n      pop\n      jump\t// out\n        /* \"#utility.yul\":22912:23431   */\n    tag_222:\n        /* \"#utility.yul\":23074:23078   */\n      0x00\n        /* \"#utility.yul\":23112:23114   */\n      0x60\n        /* \"#utility.yul\":23101:23110   */\n      dup3\n        /* \"#utility.yul\":23097:23115   */\n      add\n        /* \"#utility.yul\":23089:23115   */\n      swap1\n      pop\n        /* \"#utility.yul\":23125:23192   */\n      tag_653\n        /* \"#utility.yul\":23189:23190   */\n      0x00\n        /* \"#utility.yul\":23178:23187   */\n      dup4\n        /* \"#utility.yul\":23174:23191   */\n      add\n        /* \"#utility.yul\":23165:23171   */\n      dup7\n        /* \"#utility.yul\":23125:23192   */\n      tag_341\n      jump\t// in\n    tag_653:\n        /* \"#utility.yul\":23239:23248   */\n      dup2\n        /* \"#utility.yul\":23233:23237   */\n      dup2\n        /* \"#utility.yul\":23229:23249   */\n      sub\n        /* \"#utility.yul\":23224:23226   */\n      0x20\n        /* \"#utility.yul\":23213:23222   */\n      dup4\n        /* \"#utility.yul\":23209:23227   */\n      add\n        /* \"#utility.yul\":23202:23250   */\n      mstore\n        /* \"#utility.yul\":23267:23342   */\n      tag_654\n        /* \"#utility.yul\":23337:23341   */\n      dup2\n        /* \"#utility.yul\":23328:23334   */\n      dup6\n        /* \"#utility.yul\":23267:23342   */\n      tag_386\n      jump\t// in\n    tag_654:\n        /* \"#utility.yul\":23259:23342   */\n      swap1\n      pop\n        /* \"#utility.yul\":23352:23424   */\n      tag_655\n        /* \"#utility.yul\":23420:23422   */\n      0x40\n        /* \"#utility.yul\":23409:23418   */\n      dup4\n        /* \"#utility.yul\":23405:23423   */\n      add\n        /* \"#utility.yul\":23396:23402   */\n      dup5\n        /* \"#utility.yul\":23352:23424   */\n      tag_339\n      jump\t// in\n    tag_655:\n        /* \"#utility.yul\":22912:23431   */\n      swap5\n      swap4\n      pop\n      pop\n      pop\n      pop\n      jump\t// out\n        /* \"#utility.yul\":23437:23617   */\n    tag_241:\n        /* \"#utility.yul\":23485:23562   */\n      0x4e487b7100000000000000000000000000000000000000000000000000000000\n        /* \"#utility.yul\":23482:23483   */\n      0x00\n        /* \"#utility.yul\":23475:23563   */\n      mstore\n        /* \"#utility.yul\":23582:23586   */\n      0x32\n        /* \"#utility.yul\":23579:23580   */\n      0x04\n        /* \"#utility.yul\":23572:23587   */\n      mstore\n        /* \"#utility.yul\":23606:23610   */\n      0x24\n        /* \"#utility.yul\":23603:23604   */\n      0x00\n        /* \"#utility.yul\":23596:23611   */\n      revert\n        /* \"#utility.yul\":23623:23702   */\n    tag_387:\n        /* \"#utility.yul\":23662:23669   */\n      0x00\n        /* \"#utility.yul\":23691:23696   */\n      dup2\n        /* \"#utility.yul\":23680:23696   */\n      swap1\n      pop\n        /* \"#utility.yul\":23623:23702   */\n      swap2\n      swap1\n      pop\n      jump\t// out\n        /* \"#utility.yul\":23708:23865   */\n    tag_388:\n        /* \"#utility.yul\":23813:23858   */\n      tag_659\n        /* \"#utility.yul\":23833:23857   */\n      tag_660\n        /* \"#utility.yul\":23851:23856   */\n      dup3\n        /* \"#utility.yul\":23833:23857   */\n      tag_334\n      jump\t// in\n    tag_660:\n        /* \"#utility.yul\":23813:23858   */\n      tag_387\n      jump\t// in\n    tag_659:\n        /* \"#utility.yul\":23808:23811   */\n      dup3\n        /* \"#utility.yul\":23801:23859   */\n      mstore\n        /* \"#utility.yul\":23708:23865   */\n      pop\n      pop\n      jump\t// out\n        /* \"#utility.yul\":23871:23965   */\n    tag_389:\n        /* \"#utility.yul\":23904:23912   */\n      0x00\n        /* \"#utility.yul\":23952:23957   */\n      dup2\n        /* \"#utility.yul\":23948:23950   */\n      0x60\n        /* \"#utility.yul\":23944:23958   */\n      shl\n        /* \"#utility.yul\":23923:23958   */\n      swap1\n      pop\n        /* \"#utility.yul\":23871:23965   */\n      swap2\n      swap1\n      pop\n      jump\t// out\n        /* \"#utility.yul\":23971:24065   */\n    tag_390:\n        /* \"#utility.yul\":24010:24017   */\n      0x00\n        /* \"#utility.yul\":24039:24059   */\n      tag_663\n        /* \"#utility.yul\":24053:24058   */\n      dup3\n        /* \"#utility.yul\":24039:24059   */\n      tag_389\n      jump\t// in\n    tag_663:\n        /* \"#utility.yul\":24028:24059   */\n      swap1\n      pop\n        /* \"#utility.yul\":23971:24065   */\n      swap2\n      swap1\n      pop\n      jump\t// out\n        /* \"#utility.yul\":24071:24171   */\n    tag_391:\n        /* \"#utility.yul\":24110:24117   */\n      0x00\n        /* \"#utility.yul\":24139:24165   */\n      tag_665\n        /* \"#utility.yul\":24159:24164   */\n      dup3\n        /* \"#utility.yul\":24139:24165   */\n      tag_390\n      jump\t// in\n    tag_665:\n        /* \"#utility.yul\":24128:24165   */\n      swap1\n      pop\n        /* \"#utility.yul\":24071:24171   */\n      swap2\n      swap1\n      pop\n      jump\t// out\n        /* \"#utility.yul\":24177:24334   */\n    tag_392:\n        /* \"#utility.yul\":24282:24327   */\n      tag_667\n        /* \"#utility.yul\":24302:24326   */\n      tag_668\n        /* \"#utility.yul\":24320:24325   */\n      dup3\n        /* \"#utility.yul\":24302:24326   */\n      tag_331\n      jump\t// in\n    tag_668:\n        /* \"#utility.yul\":24282:24327   */\n      tag_391\n      jump\t// in\n    tag_667:\n        /* \"#utility.yul\":24277:24280   */\n      dup3\n        /* \"#utility.yul\":24270:24328   */\n      mstore\n        /* \"#utility.yul\":24177:24334   */\n      pop\n      pop\n      jump\t// out\n        /* \"#utility.yul\":24340:24737   */\n    tag_247:\n        /* \"#utility.yul\":24480:24483   */\n      0x00\n        /* \"#utility.yul\":24495:24570   */\n      tag_670\n        /* \"#utility.yul\":24566:24569   */\n      dup3\n        /* \"#utility.yul\":24557:24563   */\n      dup6\n        /* \"#utility.yul\":24495:24570   */\n      tag_388\n      jump\t// in\n    tag_670:\n        /* \"#utility.yul\":24595:24597   */\n      0x20\n        /* \"#utility.yul\":24590:24593   */\n      dup3\n        /* \"#utility.yul\":24586:24598   */\n      add\n        /* \"#utility.yul\":24579:24598   */\n      swap2\n      pop\n        /* \"#utility.yul\":24608:24683   */\n      tag_671\n        /* \"#utility.yul\":24679:24682   */\n      dup3\n        /* \"#utility.yul\":24670:24676   */\n      dup5\n        /* \"#utility.yul\":24608:24683   */\n      tag_392\n      jump\t// in\n    tag_671:\n        /* \"#utility.yul\":24708:24710   */\n      0x14\n        /* \"#utility.yul\":24703:24706   */\n      dup3\n        /* \"#utility.yul\":24699:24711   */\n      add\n        /* \"#utility.yul\":24692:24711   */\n      swap2\n      pop\n        /* \"#utility.yul\":24728:24731   */\n      dup2\n        /* \"#utility.yul\":24721:24731   */\n      swap1\n      pop\n        /* \"#utility.yul\":24340:24737   */\n      swap4\n      swap3\n      pop\n      pop\n      pop\n      jump\t// out\n        /* \"#utility.yul\":24743:24923   */\n    tag_393:\n        /* \"#utility.yul\":24791:24868   */\n      0x4e487b7100000000000000000000000000000000000000000000000000000000\n        /* \"#utility.yul\":24788:24789   */\n      0x00\n        /* \"#utility.yul\":24781:24869   */\n      mstore\n        /* \"#utility.yul\":24888:24892   */\n      0x12\n        /* \"#utility.yul\":24885:24886   */\n      0x04\n        /* \"#utility.yul\":24878:24893   */\n      mstore\n        /* \"#utility.yul\":24912:24916   */\n      0x24\n        /* \"#utility.yul\":24909:24910   */\n      0x00\n        /* \"#utility.yul\":24902:24917   */\n      revert\n        /* \"#utility.yul\":24929:25105   */\n    tag_249:\n        /* \"#utility.yul\":24961:24962   */\n      0x00\n        /* \"#utility.yul\":24978:24998   */\n      tag_674\n        /* \"#utility.yul\":24996:24997   */\n      dup3\n        /* \"#utility.yul\":24978:24998   */\n      tag_334\n      jump\t// in\n    tag_674:\n        /* \"#utility.yul\":24973:24998   */\n      swap2\n      pop\n        /* \"#utility.yul\":25012:25032   */\n      tag_675\n        /* \"#utility.yul\":25030:25031   */\n      dup4\n        /* \"#utility.yul\":25012:25032   */\n      tag_334\n      jump\t// in\n    tag_675:\n        /* \"#utility.yul\":25007:25032   */\n      swap3\n      pop\n        /* \"#utility.yul\":25051:25052   */\n      dup3\n        /* \"#utility.yul\":25041:25076   */\n      tag_676\n      jumpi\n        /* \"#utility.yul\":25056:25074   */\n      tag_677\n      tag_393\n      jump\t// in\n    tag_677:\n        /* \"#utility.yul\":25041:25076   */\n    tag_676:\n        /* \"#utility.yul\":25097:25098   */\n      dup3\n        /* \"#utility.yul\":25094:25095   */\n      dup3\n        /* \"#utility.yul\":25090:25099   */\n      mod\n        /* \"#utility.yul\":25085:25099   */\n      swap1\n      pop\n        /* \"#utility.yul\":24929:25105   */\n      swap3\n      swap2\n      pop\n      pop\n      jump\t// out\n        /* \"#utility.yul\":25111:25521   */\n    tag_253:\n        /* \"#utility.yul\":25151:25158   */\n      0x00\n        /* \"#utility.yul\":25174:25194   */\n      tag_679\n        /* \"#utility.yul\":25192:25193   */\n      dup3\n        /* \"#utility.yul\":25174:25194   */\n      tag_334\n      jump\t// in\n    tag_679:\n        /* \"#utility.yul\":25169:25194   */\n      swap2\n      pop\n        /* \"#utility.yul\":25208:25228   */\n      tag_680\n        /* \"#utility.yul\":25226:25227   */\n      dup4\n        /* \"#utility.yul\":25208:25228   */\n      tag_334\n      jump\t// in\n    tag_680:\n        /* \"#utility.yul\":25203:25228   */\n      swap3\n      pop\n        /* \"#utility.yul\":25263:25264   */\n      dup3\n        /* \"#utility.yul\":25260:25261   */\n      dup3\n        /* \"#utility.yul\":25256:25265   */\n      mul\n        /* \"#utility.yul\":25285:25315   */\n      tag_681\n        /* \"#utility.yul\":25303:25314   */\n      dup2\n        /* \"#utility.yul\":25285:25315   */\n      tag_334\n      jump\t// in\n    tag_681:\n        /* \"#utility.yul\":25274:25315   */\n      swap2\n      pop\n        /* \"#utility.yul\":25464:25465   */\n      dup3\n        /* \"#utility.yul\":25455:25462   */\n      dup3\n        /* \"#utility.yul\":25451:25466   */\n      div\n        /* \"#utility.yul\":25448:25449   */\n      dup5\n        /* \"#utility.yul\":25445:25467   */\n      eq\n        /* \"#utility.yul\":25425:25426   */\n      dup4\n        /* \"#utility.yul\":25418:25427   */\n      iszero\n        /* \"#utility.yul\":25398:25481   */\n      or\n        /* \"#utility.yul\":25375:25514   */\n      tag_682\n      jumpi\n        /* \"#utility.yul\":25494:25512   */\n      tag_683\n      tag_380\n      jump\t// in\n    tag_683:\n        /* \"#utility.yul\":25375:25514   */\n    tag_682:\n        /* \"#utility.yul\":25159:25521   */\n      pop\n        /* \"#utility.yul\":25111:25521   */\n      swap3\n      swap2\n      pop\n      pop\n      jump\t// out\n        /* \"#utility.yul\":25527:25680   */\n    tag_394:\n        /* \"#utility.yul\":25667:25672   */\n      0x776f6e0000000000000000000000000000000000000000000000000000000000\n        /* \"#utility.yul\":25663:25664   */\n      0x00\n        /* \"#utility.yul\":25655:25661   */\n      dup3\n        /* \"#utility.yul\":25651:25665   */\n      add\n        /* \"#utility.yul\":25644:25673   */\n      mstore\n        /* \"#utility.yul\":25527:25680   */\n      pop\n      jump\t// out\n        /* \"#utility.yul\":25686:26051   */\n    tag_395:\n        /* \"#utility.yul\":25828:25831   */\n      0x00\n        /* \"#utility.yul\":25849:25915   */\n      tag_686\n        /* \"#utility.yul\":25913:25914   */\n      0x03\n        /* \"#utility.yul\":25908:25911   */\n      dup4\n        /* \"#utility.yul\":25849:25915   */\n      tag_323\n      jump\t// in\n    tag_686:\n        /* \"#utility.yul\":25842:25915   */\n      swap2\n      pop\n        /* \"#utility.yul\":25924:26017   */\n      tag_687\n        /* \"#utility.yul\":26013:26016   */\n      dup3\n        /* \"#utility.yul\":25924:26017   */\n      tag_394\n      jump\t// in\n    tag_687:\n        /* \"#utility.yul\":26042:26044   */\n      0x20\n        /* \"#utility.yul\":26037:26040   */\n      dup3\n        /* \"#utility.yul\":26033:26045   */\n      add\n        /* \"#utility.yul\":26026:26045   */\n      swap1\n      pop\n        /* \"#utility.yul\":25686:26051   */\n      swap2\n      swap1\n      pop\n      jump\t// out\n        /* \"#utility.yul\":26057:26684   */\n    tag_255:\n        /* \"#utility.yul\":26273:26277   */\n      0x00\n        /* \"#utility.yul\":26311:26313   */\n      0x60\n        /* \"#utility.yul\":26300:26309   */\n      dup3\n        /* \"#utility.yul\":26296:26314   */\n      add\n        /* \"#utility.yul\":26288:26314   */\n      swap1\n      pop\n        /* \"#utility.yul\":26324:26395   */\n      tag_689\n        /* \"#utility.yul\":26392:26393   */\n      0x00\n        /* \"#utility.yul\":26381:26390   */\n      dup4\n        /* \"#utility.yul\":26377:26394   */\n      add\n        /* \"#utility.yul\":26368:26374   */\n      dup6\n        /* \"#utility.yul\":26324:26395   */\n      tag_339\n      jump\t// in\n    tag_689:\n        /* \"#utility.yul\":26405:26471   */\n      tag_690\n        /* \"#utility.yul\":26467:26469   */\n      0x20\n        /* \"#utility.yul\":26456:26465   */\n      dup4\n        /* \"#utility.yul\":26452:26470   */\n      add\n        /* \"#utility.yul\":26443:26449   */\n      dup5\n        /* \"#utility.yul\":26405:26471   */\n      tag_338\n      jump\t// in\n    tag_690:\n        /* \"#utility.yul\":26518:26527   */\n      dup2\n        /* \"#utility.yul\":26512:26516   */\n      dup2\n        /* \"#utility.yul\":26508:26528   */\n      sub\n        /* \"#utility.yul\":26503:26505   */\n      0x40\n        /* \"#utility.yul\":26492:26501   */\n      dup4\n        /* \"#utility.yul\":26488:26506   */\n      add\n        /* \"#utility.yul\":26481:26529   */\n      mstore\n        /* \"#utility.yul\":26546:26677   */\n      tag_691\n        /* \"#utility.yul\":26672:26676   */\n      dup2\n        /* \"#utility.yul\":26546:26677   */\n      tag_395\n      jump\t// in\n    tag_691:\n        /* \"#utility.yul\":26538:26677   */\n      swap1\n      pop\n        /* \"#utility.yul\":26057:26684   */\n      swap4\n      swap3\n      pop\n      pop\n      pop\n      jump\t// out\n        /* \"#utility.yul\":26690:26844   */\n    tag_396:\n        /* \"#utility.yul\":26830:26836   */\n      0x6c6f737400000000000000000000000000000000000000000000000000000000\n        /* \"#utility.yul\":26826:26827   */\n      0x00\n        /* \"#utility.yul\":26818:26824   */\n      dup3\n        /* \"#utility.yul\":26814:26828   */\n      add\n        /* \"#utility.yul\":26807:26837   */\n      mstore\n        /* \"#utility.yul\":26690:26844   */\n      pop\n      jump\t// out\n        /* \"#utility.yul\":26850:27215   */\n    tag_397:\n        /* \"#utility.yul\":26992:26995   */\n      0x00\n        /* \"#utility.yul\":27013:27079   */\n      tag_694\n        /* \"#utility.yul\":27077:27078   */\n      0x04\n        /* \"#utility.yul\":27072:27075   */\n      dup4\n        /* \"#utility.yul\":27013:27079   */\n      tag_323\n      jump\t// in\n    tag_694:\n        /* \"#utility.yul\":27006:27079   */\n      swap2\n      pop\n        /* \"#utility.yul\":27088:27181   */\n      tag_695\n        /* \"#utility.yul\":27177:27180   */\n      dup3\n        /* \"#utility.yul\":27088:27181   */\n      tag_396\n      jump\t// in\n    tag_695:\n        /* \"#utility.yul\":27206:27208   */\n      0x20\n        /* \"#utility.yul\":27201:27204   */\n      dup3\n        /* \"#utility.yul\":27197:27209   */\n      add\n        /* \"#utility.yul\":27190:27209   */\n      swap1\n      pop\n        /* \"#utility.yul\":26850:27215   */\n      swap2\n      swap1\n      pop\n      jump\t// out\n        /* \"#utility.yul\":27221:27848   */\n    tag_259:\n        /* \"#utility.yul\":27437:27441   */\n      0x00\n        /* \"#utility.yul\":27475:27477   */\n      0x60\n        /* \"#utility.yul\":27464:27473   */\n      dup3\n        /* \"#utility.yul\":27460:27478   */\n      add\n        /* \"#utility.yul\":27452:27478   */\n      swap1\n      pop\n        /* \"#utility.yul\":27488:27559   */\n      tag_697\n        /* \"#utility.yul\":27556:27557   */\n      0x00\n        /* \"#utility.yul\":27545:27554   */\n      dup4\n        /* \"#utility.yul\":27541:27558   */\n      add\n        /* \"#utility.yul\":27532:27538   */\n      dup6\n        /* \"#utility.yul\":27488:27559   */\n      tag_339\n      jump\t// in\n    tag_697:\n        /* \"#utility.yul\":27569:27635   */\n      tag_698\n        /* \"#utility.yul\":27631:27633   */\n      0x20\n        /* \"#utility.yul\":27620:27629   */\n      dup4\n        /* \"#utility.yul\":27616:27634   */\n      add\n        /* \"#utility.yul\":27607:27613   */\n      dup5\n        /* \"#utility.yul\":27569:27635   */\n      tag_338\n      jump\t// in\n    tag_698:\n        /* \"#utility.yul\":27682:27691   */\n      dup2\n        /* \"#utility.yul\":27676:27680   */\n      dup2\n        /* \"#utility.yul\":27672:27692   */\n      sub\n        /* \"#utility.yul\":27667:27669   */\n      0x40\n        /* \"#utility.yul\":27656:27665   */\n      dup4\n        /* \"#utility.yul\":27652:27670   */\n      add\n        /* \"#utility.yul\":27645:27693   */\n      mstore\n        /* \"#utility.yul\":27710:27841   */\n      tag_699\n        /* \"#utility.yul\":27836:27840   */\n      dup2\n        /* \"#utility.yul\":27710:27841   */\n      tag_397\n      jump\t// in\n    tag_699:\n        /* \"#utility.yul\":27702:27841   */\n      swap1\n      pop\n        /* \"#utility.yul\":27221:27848   */\n      swap4\n      swap3\n      pop\n      pop\n      pop\n      jump\t// out\n        /* \"#utility.yul\":27854:28082   */\n    tag_398:\n        /* \"#utility.yul\":27994:28028   */\n      0x596f7527766520616c726561647920636c61696d656420796f75722077656c63\n        /* \"#utility.yul\":27990:27991   */\n      0x00\n        /* \"#utility.yul\":27982:27988   */\n      dup3\n        /* \"#utility.yul\":27978:27992   */\n      add\n        /* \"#utility.yul\":27971:28029   */\n      mstore\n        /* \"#utility.yul\":28063:28074   */\n      0x6f6d6520626f6e75730000000000000000000000000000000000000000000000\n        /* \"#utility.yul\":28058:28060   */\n      0x20\n        /* \"#utility.yul\":28050:28056   */\n      dup3\n        /* \"#utility.yul\":28046:28061   */\n      add\n        /* \"#utility.yul\":28039:28075   */\n      mstore\n        /* \"#utility.yul\":27854:28082   */\n      pop\n      jump\t// out\n        /* \"#utility.yul\":28088:28454   */\n    tag_399:\n        /* \"#utility.yul\":28230:28233   */\n      0x00\n        /* \"#utility.yul\":28251:28318   */\n      tag_702\n        /* \"#utility.yul\":28315:28317   */\n      0x29\n        /* \"#utility.yul\":28310:28313   */\n      dup4\n        /* \"#utility.yul\":28251:28318   */\n      tag_323\n      jump\t// in\n    tag_702:\n        /* \"#utility.yul\":28244:28318   */\n      swap2\n      pop\n        /* \"#utility.yul\":28327:28420   */\n      tag_703\n        /* \"#utility.yul\":28416:28419   */\n      dup3\n        /* \"#utility.yul\":28327:28420   */\n      tag_398\n      jump\t// in\n    tag_703:\n        /* \"#utility.yul\":28445:28447   */\n      0x40\n        /* \"#utility.yul\":28440:28443   */\n      dup3\n        /* \"#utility.yul\":28436:28448   */\n      add\n        /* \"#utility.yul\":28429:28448   */\n      swap1\n      pop\n        /* \"#utility.yul\":28088:28454   */\n      swap2\n      swap1\n      pop\n      jump\t// out\n        /* \"#utility.yul\":28460:28879   */\n    tag_270:\n        /* \"#utility.yul\":28626:28630   */\n      0x00\n        /* \"#utility.yul\":28664:28666   */\n      0x20\n        /* \"#utility.yul\":28653:28662   */\n      dup3\n        /* \"#utility.yul\":28649:28667   */\n      add\n        /* \"#utility.yul\":28641:28667   */\n      swap1\n      pop\n        /* \"#utility.yul\":28713:28722   */\n      dup2\n        /* \"#utility.yul\":28707:28711   */\n      dup2\n        /* \"#utility.yul\":28703:28723   */\n      sub\n        /* \"#utility.yul\":28699:28700   */\n      0x00\n        /* \"#utility.yul\":28688:28697   */\n      dup4\n        /* \"#utility.yul\":28684:28701   */\n      add\n        /* \"#utility.yul\":28677:28724   */\n      mstore\n        /* \"#utility.yul\":28741:28872   */\n      tag_705\n        /* \"#utility.yul\":28867:28871   */\n      dup2\n        /* \"#utility.yul\":28741:28872   */\n      tag_399\n      jump\t// in\n    tag_705:\n        /* \"#utility.yul\":28733:28872   */\n      swap1\n      pop\n        /* \"#utility.yul\":28460:28879   */\n      swap2\n      swap1\n      pop\n      jump\t// out\n        /* \"#utility.yul\":28885:29327   */\n    tag_281:\n        /* \"#utility.yul\":29034:29038   */\n      0x00\n        /* \"#utility.yul\":29072:29074   */\n      0x60\n        /* \"#utility.yul\":29061:29070   */\n      dup3\n        /* \"#utility.yul\":29057:29075   */\n      add\n        /* \"#utility.yul\":29049:29075   */\n      swap1\n      pop\n        /* \"#utility.yul\":29085:29156   */\n      tag_707\n        /* \"#utility.yul\":29153:29154   */\n      0x00\n        /* \"#utility.yul\":29142:29151   */\n      dup4\n        /* \"#utility.yul\":29138:29155   */\n      add\n        /* \"#utility.yul\":29129:29135   */\n      dup7\n        /* \"#utility.yul\":29085:29156   */\n      tag_352\n      jump\t// in\n    tag_707:\n        /* \"#utility.yul\":29166:29238   */\n      tag_708\n        /* \"#utility.yul\":29234:29236   */\n      0x20\n        /* \"#utility.yul\":29223:29232   */\n      dup4\n        /* \"#utility.yul\":29219:29237   */\n      add\n        /* \"#utility.yul\":29210:29216   */\n      dup6\n        /* \"#utility.yul\":29166:29238   */\n      tag_339\n      jump\t// in\n    tag_708:\n        /* \"#utility.yul\":29248:29320   */\n      tag_709\n        /* \"#utility.yul\":29316:29318   */\n      0x40\n        /* \"#utility.yul\":29305:29314   */\n      dup4\n        /* \"#utility.yul\":29301:29319   */\n      add\n        /* \"#utility.yul\":29292:29298   */\n      dup5\n        /* \"#utility.yul\":29248:29320   */\n      tag_339\n      jump\t// in\n    tag_709:\n        /* \"#utility.yul\":28885:29327   */\n      swap5\n      swap4\n      pop\n      pop\n      pop\n      pop\n      jump\t// out\n        /* \"#utility.yul\":29333:29524   */\n    tag_315:\n        /* \"#utility.yul\":29373:29376   */\n      0x00\n        /* \"#utility.yul\":29392:29412   */\n      tag_711\n        /* \"#utility.yul\":29410:29411   */\n      dup3\n        /* \"#utility.yul\":29392:29412   */\n      tag_334\n      jump\t// in\n    tag_711:\n        /* \"#utility.yul\":29387:29412   */\n      swap2\n      pop\n        /* \"#utility.yul\":29426:29446   */\n      tag_712\n        /* \"#utility.yul\":29444:29445   */\n      dup4\n        /* \"#utility.yul\":29426:29446   */\n      tag_334\n      jump\t// in\n    tag_712:\n        /* \"#utility.yul\":29421:29446   */\n      swap3\n      pop\n        /* \"#utility.yul\":29469:29470   */\n      dup3\n        /* \"#utility.yul\":29466:29467   */\n      dup3\n        /* \"#utility.yul\":29462:29471   */\n      add\n        /* \"#utility.yul\":29455:29471   */\n      swap1\n      pop\n        /* \"#utility.yul\":29490:29493   */\n      dup1\n        /* \"#utility.yul\":29487:29488   */\n      dup3\n        /* \"#utility.yul\":29484:29494   */\n      gt\n        /* \"#utility.yul\":29481:29517   */\n      iszero\n      tag_713\n      jumpi\n        /* \"#utility.yul\":29497:29515   */\n      tag_714\n      tag_380\n      jump\t// in\n    tag_714:\n        /* \"#utility.yul\":29481:29517   */\n    tag_713:\n        /* \"#utility.yul\":29333:29524   */\n      swap3\n      swap2\n      pop\n      pop\n      jump\t// out\n\n    auxdata: 0xa264697066735822122016fdb7131c80ef87a978434497a9fa06b2dc96b92f7640a1179fded40a98e9f664736f6c634300081a0033\n}\n",
				"bytecode": {
					"linkReferences": {},
					"object": "608060405234801561000f575f80fd5b506040516135d33803806135d3833981810160405281019061003191906109a9565b816040518060400160405280600581526020017f446567656e0000000000000000000000000000000000000000000000000000008152506040518060400160405280600381526020017f44474e000000000000000000000000000000000000000000000000000000000081525081600390816100ad9190610c18565b5080600490816100bd9190610c18565b5050505f73ffffffffffffffffffffffffffffffffffffffff168173ffffffffffffffffffffffffffffffffffffffff1603610130575f6040517f1e4fbdf70000000000000000000000000000000000000000000000000000000081526004016101279190610cf6565b60405180910390fd5b61013f816104cd60201b60201c565b50610150828261059060201b60201c565b60405180606001604052806040518060400160405280601081526020017f4e6f76696365204e6176696761746f72000000000000000000000000000000008152508152602001600160ff168152602001606481525060065f600160ff1681526020019081526020015f205f820151815f0190816101cd9190610c18565b506020820151816001015f6101000a81548160ff021916908360ff1602179055506040820151816002015590505060405180606001604052806040518060400160405280600f81526020017f4d7974686963204d6176657269636b00000000000000000000000000000000008152508152602001600260ff1681526020016102bc81525060065f600260ff1681526020019081526020015f205f820151815f0190816102799190610c18565b506020820151816001015f6101000a81548160ff021916908360ff1602179055506040820151816002015590505060405180606001604052806040518060400160405280601181526020017f43656c65737469616c20437275736865720000000000000000000000000000008152508152602001600360ff1681526020016104b081525060065f600360ff1681526020019081526020015f205f820151815f0190816103259190610c18565b506020820151816001015f6101000a81548160ff021916908360ff1602179055506040820151816002015590505060405180606001604052806040518060400160405280600a81526020017f41737472616c20416365000000000000000000000000000000000000000000008152508152602001600460ff16815260200161089881525060065f600460ff1681526020019081526020015f205f820151815f0190816103d19190610c18565b506020820151816001015f6101000a81548160ff021916908360ff1602179055506040820151816002015590505060405180606001604052806040518060400160405280601081526020017f446976696e6520446f6d696e61746f72000000000000000000000000000000008152508152602001600560ff16815260200161096081525060065f600560ff1681526020019081526020015f205f820151815f01908161047d9190610c18565b506020820151816001015f6101000a81548160ff021916908360ff16021790555060408201518160020155905050600660085f6101000a81548160ff021916908360ff1602179055505050610dcc565b5f60055f9054906101000a900473ffffffffffffffffffffffffffffffffffffffff1690508160055f6101000a81548173ffffffffffffffffffffffffffffffffffffffff021916908373ffffffffffffffffffffffffffffffffffffffff1602179055508173ffffffffffffffffffffffffffffffffffffffff168173ffffffffffffffffffffffffffffffffffffffff167f8be0079c531659141344cd1fd0a4f28419497f9722a3daafe3b4186f6b6457e060405160405180910390a35050565b61059e6105b260201b60201c565b6105ae828261064b60201b60201c565b5050565b6105c06106d060201b60201c565b73ffffffffffffffffffffffffffffffffffffffff166105e46106d760201b60201c565b73ffffffffffffffffffffffffffffffffffffffff16146106495761060d6106d060201b60201c565b6040517f118cdaa70000000000000000000000000000000000000000000000000000000081526004016106409190610cf6565b60405180910390fd5b565b5f73ffffffffffffffffffffffffffffffffffffffff168273ffffffffffffffffffffffffffffffffffffffff16036106bb575f6040517fec442f050000000000000000000000000000000000000000000000000000000081526004016106b29190610cf6565b60405180910390fd5b6106cc5f83836106ff60201b60201c565b5050565b5f33905090565b5f60055f9054906101000a900473ffffffffffffffffffffffffffffffffffffffff16905090565b5f73ffffffffffffffffffffffffffffffffffffffff168373ffffffffffffffffffffffffffffffffffffffff160361074f578060025f8282546107439190610d3c565b9250508190555061081d565b5f805f8573ffffffffffffffffffffffffffffffffffffffff1673ffffffffffffffffffffffffffffffffffffffff1681526020019081526020015f20549050818110156107d8578381836040517fe450d38c0000000000000000000000000000000000000000000000000000000081526004016107cf93929190610d7e565b60405180910390fd5b8181035f808673ffffffffffffffffffffffffffffffffffffffff1673ffffffffffffffffffffffffffffffffffffffff1681526020019081526020015f2081905550505b5f73ffffffffffffffffffffffffffffffffffffffff168273ffffffffffffffffffffffffffffffffffffffff1603610864578060025f82825403925050819055506108ae565b805f808473ffffffffffffffffffffffffffffffffffffffff1673ffffffffffffffffffffffffffffffffffffffff1681526020019081526020015f205f82825401925050819055505b8173ffffffffffffffffffffffffffffffffffffffff168373ffffffffffffffffffffffffffffffffffffffff167fddf252ad1be2c89b69c2b068fc378daa952ba7f163c4a11628f55a4df523b3ef8360405161090b9190610db3565b60405180910390a3505050565b5f80fd5b5f73ffffffffffffffffffffffffffffffffffffffff82169050919050565b5f6109458261091c565b9050919050565b6109558161093b565b811461095f575f80fd5b50565b5f815190506109708161094c565b92915050565b5f819050919050565b61098881610976565b8114610992575f80fd5b50565b5f815190506109a38161097f565b92915050565b5f80604083850312156109bf576109be610918565b5b5f6109cc85828601610962565b92505060206109dd85828601610995565b9150509250929050565b5f81519050919050565b7f4e487b71000000000000000000000000000000000000000000000000000000005f52604160045260245ffd5b7f4e487b71000000000000000000000000000000000000000000000000000000005f52602260045260245ffd5b5f6002820490506001821680610a6257607f821691505b602082108103610a7557610a74610a1e565b5b50919050565b5f819050815f5260205f209050919050565b5f6020601f8301049050919050565b5f82821b905092915050565b5f60088302610ad77fffffffffffffffffffffffffffffffffffffffffffffffffffffffffffffffff82610a9c565b610ae18683610a9c565b95508019841693508086168417925050509392505050565b5f819050919050565b5f610b1c610b17610b1284610976565b610af9565b610976565b9050919050565b5f819050919050565b610b3583610b02565b610b49610b4182610b23565b848454610aa8565b825550505050565b5f90565b610b5d610b51565b610b68818484610b2c565b505050565b5b81811015610b8b57610b805f82610b55565b600181019050610b6e565b5050565b601f821115610bd057610ba181610a7b565b610baa84610a8d565b81016020851015610bb9578190505b610bcd610bc585610a8d565b830182610b6d565b50505b505050565b5f82821c905092915050565b5f610bf05f1984600802610bd5565b1980831691505092915050565b5f610c088383610be1565b9150826002028217905092915050565b610c21826109e7565b67ffffffffffffffff811115610c3a57610c396109f1565b5b610c448254610a4b565b610c4f828285610b8f565b5f60209050601f831160018114610c80575f8415610c6e578287015190505b610c788582610bfd565b865550610cdf565b601f198416610c8e86610a7b565b5f5b82811015610cb557848901518255600182019150602085019450602081019050610c90565b86831015610cd25784890151610cce601f891682610be1565b8355505b6001600288020188555050505b505050505050565b610cf08161093b565b82525050565b5f602082019050610d095f830184610ce7565b92915050565b7f4e487b71000000000000000000000000000000000000000000000000000000005f52601160045260245ffd5b5f610d4682610976565b9150610d5183610976565b9250828201905080821115610d6957610d68610d0f565b5b92915050565b610d7881610976565b82525050565b5f606082019050610d915f830186610ce7565b610d9e6020830185610d6f565b610dab6040830184610d6f565b949350505050565b5f602082019050610dc65f830184610d6f565b92915050565b6127fa80610dd95f395ff3fe608060405234801561000f575f80fd5b506004361061018c575f3560e01c8063715018a6116100dc578063a9059cbb11610095578063dd62ed3e1161006f578063dd62ed3e14610480578063ea5e65e0146104b0578063f2fde38b146104cc578063f5112f87146104e85761018c565b8063a9059cbb14610404578063af3bcb7d14610434578063ce6019b4146104505761018c565b8063715018a61461035657806379cc6790146103605780637b47ec1a1461037c5780638da5cb5b1461039857806395d89b41146103b6578063a10f956d146103d45761018c565b806323b872dd1161014957806340c10f191161012357806340c10f19146102d257806342966c68146102ee57806362d6bbdf1461030a57806370a08231146103265761018c565b806323b872dd1461025457806330a8600614610284578063313ce567146102b45761018c565b806306fdde0314610190578063095ea7b3146101ae5780631072cbea146101de57806312065fe0146101fa57806317d70f7c1461021857806318160ddd14610236575b5f80fd5b6101986104f2565b6040516101a591906118ad565b60405180910390f35b6101c860048036038101906101c3919061196b565b610582565b6040516101d591906119c3565b60405180910390f35b6101f860048036038101906101f3919061196b565b6105a4565b005b6102026105fe565b60405161020f91906119eb565b60405180910390f35b61022061060d565b60405161022d9190611a1f565b60405180910390f35b61023e61061f565b60405161024b91906119eb565b60405180910390f35b61026e60048036038101906102699190611a38565b610628565b60405161027b91906119c3565b60405180910390f35b61029e60048036038101906102999190611ab2565b610656565b6040516102ab91906118ad565b60405180910390f35b6102bc6106ff565b6040516102c99190611a1f565b60405180910390f35b6102ec60048036038101906102e7919061196b565b610703565b005b61030860048036038101906103039190611add565b610719565b005b610324600480360381019061031f9190611c34565b61072d565b005b610340600480360381019061033b9190611c8e565b610802565b60405161034d91906119eb565b60405180910390f35b61035e610847565b005b61037a6004803603810190610375919061196b565b61085a565b005b61039660048036038101906103919190611add565b61087a565b005b6103a06108d1565b6040516103ad9190611cc8565b60405180910390f35b6103be6108f9565b6040516103cb91906118ad565b60405180910390f35b6103ee60048036038101906103e99190611ab2565b610989565b6040516103fb91906119eb565b60405180910390f35b61041e6004803603810190610419919061196b565b6109ac565b60405161042b91906119c3565b60405180910390f35b61044e60048036038101906104499190611ab2565b6109ce565b005b61046a60048036038101906104659190611c8e565b610bfe565b6040516104779190611d98565b60405180910390f35b61049a60048036038101906104959190611db8565b610e02565b6040516104a791906119eb565b60405180910390f35b6104ca60048036038101906104c59190611e20565b610e84565b005b6104e660048036038101906104e19190611c8e565b610f97565b005b6104f061101b565b005b60606003805461050190611e8b565b80601f016020809104026020016040519081016040528092919081815260200182805461052d90611e8b565b80156105785780601f1061054f57610100808354040283529160200191610578565b820191905f5260205f20905b81548152906001019060200180831161055b57829003601f168201915b5050505050905090565b5f8061058c611072565b9050610599818585611079565b600191505092915050565b806105ae33610802565b10156105ef576040517f08c379a00000000000000000000000000000000000000000000000000000000081526004016105e690611f05565b60405180910390fd5b6105f982826109ac565b505050565b5f61060833610802565b905090565b60085f9054906101000a900460ff1681565b5f600254905090565b5f80610632611072565b905061063f85828561108b565b61064a85858561111d565b60019150509392505050565b606060065f8360ff1660ff1681526020019081526020015f205f01805461067c90611e8b565b80601f01602080910402602001604051908101604052809291908181526020018280546106a890611e8b565b80156106f35780601f106106ca576101008083540402835291602001916106f3565b820191905f5260205f20905b8154815290600101906020018083116106d657829003601f168201915b50505050509050919050565b5f90565b61070b61120d565b6107158282611294565b5050565b61072a610724611072565b82611313565b50565b61073561120d565b604051806060016040528083815260200160085f9054906101000a900460ff1660ff1681526020018281525060065f60085f9054906101000a900460ff1660ff1660ff1681526020019081526020015f205f820151815f01908161079991906120c0565b506020820151816001015f6101000a81548160ff021916908360ff1602179055506040820151816002015590505060085f81819054906101000a900460ff16809291906107e5906121bc565b91906101000a81548160ff021916908360ff160217905550505050565b5f805f8373ffffffffffffffffffffffffffffffffffffffff1673ffffffffffffffffffffffffffffffffffffffff1681526020019081526020015f20549050919050565b61084f61120d565b6108585f611392565b565b61086c82610866611072565b8361108b565b6108768282611313565b5050565b8061088433610802565b10156108c5576040517f08c379a00000000000000000000000000000000000000000000000000000000081526004016108bc9061222e565b60405180910390fd5b6108ce81610719565b50565b5f60055f9054906101000a900473ffffffffffffffffffffffffffffffffffffffff16905090565b60606004805461090890611e8b565b80601f016020809104026020016040519081016040528092919081815260200182805461093490611e8b565b801561097f5780601f106109565761010080835404028352916020019161097f565b820191905f5260205f20905b81548152906001019060200180831161096257829003601f168201915b5050505050905090565b5f60065f8360ff1660ff1681526020019081526020015f20600201549050919050565b5f806109b6611072565b90506109c381858561111d565b600191505092915050565b5f60065f8360ff1660ff1681526020019081526020015f206002015403610a2a576040517f08c379a0000000000000000000000000000000000000000000000000000000008152600401610a2190612296565b60405180910390fd5b60065f8260ff1660ff1681526020019081526020015f2060020154610a4e33610802565b1015610a8f576040517f08c379a0000000000000000000000000000000000000000000000000000000008152600401610a8690611f05565b60405180910390fd5b610ab260065f8360ff1660ff1681526020019081526020015f2060020154610719565b60075f3373ffffffffffffffffffffffffffffffffffffffff1673ffffffffffffffffffffffffffffffffffffffff1681526020019081526020015f2060065f8360ff1660ff1681526020019081526020015f20908060018154018082558091505060019003905f5260205f2090600302015f909190919091505f8201815f019081610b3e91906122c9565b50600182015f9054906101000a900460ff16816001015f6101000a81548160ff021916908360ff1602179055506002820154816002015550503373ffffffffffffffffffffffffffffffffffffffff167f8bedd141782c49139782bd92bd7a760a0bcb544ffecfd2b25f00366fae06598e8260065f8560ff1660ff1681526020019081526020015f205f0160065f8660ff1660ff1681526020019081526020015f2060020154604051610bf39392919061242f565b60405180910390a250565b60605f60075f8473ffffffffffffffffffffffffffffffffffffffff1673ffffffffffffffffffffffffffffffffffffffff1681526020019081526020015f20805480602002602001604051908101604052809291908181526020015f905b82821015610d42578382905f5260205f2090600302016040518060600160405290815f82018054610c8d90611e8b565b80601f0160208091040260200160405190810160405280929190818152602001828054610cb990611e8b565b8015610d045780601f10610cdb57610100808354040283529160200191610d04565b820191905f5260205f20905b815481529060010190602001808311610ce757829003601f168201915b50505050508152602001600182015f9054906101000a900460ff1660ff1660ff16815260200160028201548152505081526020019060010190610c5d565b5050505090505f815190505f8167ffffffffffffffff811115610d6857610d67611b10565b5b604051908082528060200260200182016040528015610d965781602001602082028036833780820191505090505b5090505f5b82811015610df657838181518110610db657610db561246b565b5b602002602001015160200151828281518110610dd557610dd461246b565b5b602002602001019060ff16908160ff16815250508080600101915050610d9b565b50809350505050919050565b5f60015f8473ffffffffffffffffffffffffffffffffffffffff1673ffffffffffffffffffffffffffffffffffffffff1681526020019081526020015f205f8373ffffffffffffffffffffffffffffffffffffffff1673ffffffffffffffffffffffffffffffffffffffff1681526020019081526020015f2054905092915050565b5f600a4233604051602001610e9a9291906124fd565b604051602081830303815290604052805190602001205f1c610ebc9190612555565b905060058110151583151503610f3857610ee233600284610edd9190612585565b611294565b3373ffffffffffffffffffffffffffffffffffffffff167fd04d9689d8e43bc0bacea67661ef472dcf321f34f08af72f651af30c4c866587826001604051610f2b929190612610565b60405180910390a2610f92565b610f4182610719565b3373ffffffffffffffffffffffffffffffffffffffff167fd04d9689d8e43bc0bacea67661ef472dcf321f34f08af72f651af30c4c866587825f604051610f89929190612694565b60405180910390a25b505050565b610f9f61120d565b5f73ffffffffffffffffffffffffffffffffffffffff168173ffffffffffffffffffffffffffffffffffffffff160361100f575f6040517f1e4fbdf70000000000000000000000000000000000000000000000000000000081526004016110069190611cc8565b60405180910390fd5b61101881611392565b50565b5f61102533610802565b14611065576040517f08c379a000000000000000000000000000000000000000000000000000000000815260040161105c9061273e565b60405180910390fd5b611070336032611294565b565b5f33905090565b6110868383836001611455565b505050565b5f6110968484610e02565b90507fffffffffffffffffffffffffffffffffffffffffffffffffffffffffffffffff81146111175781811015611108578281836040517ffb8f41b20000000000000000000000000000000000000000000000000000000081526004016110ff9392919061275c565b60405180910390fd5b61111684848484035f611455565b5b50505050565b5f73ffffffffffffffffffffffffffffffffffffffff168373ffffffffffffffffffffffffffffffffffffffff160361118d575f6040517f96c6fd1e0000000000000000000000000000000000000000000000000000000081526004016111849190611cc8565b60405180910390fd5b5f73ffffffffffffffffffffffffffffffffffffffff168273ffffffffffffffffffffffffffffffffffffffff16036111fd575f6040517fec442f050000000000000000000000000000000000000000000000000000000081526004016111f49190611cc8565b60405180910390fd5b611208838383611624565b505050565b611215611072565b73ffffffffffffffffffffffffffffffffffffffff166112336108d1565b73ffffffffffffffffffffffffffffffffffffffff161461129257611256611072565b6040517f118cdaa70000000000000000000000000000000000000000000000000000000081526004016112899190611cc8565b60405180910390fd5b565b5f73ffffffffffffffffffffffffffffffffffffffff168273ffffffffffffffffffffffffffffffffffffffff1603611304575f6040517fec442f050000000000000000000000000000000000000000000000000000000081526004016112fb9190611cc8565b60405180910390fd5b61130f5f8383611624565b5050565b5f73ffffffffffffffffffffffffffffffffffffffff168273ffffffffffffffffffffffffffffffffffffffff1603611383575f6040517f96c6fd1e00000000000000000000000000000000000000000000000000000000815260040161137a9190611cc8565b60405180910390fd5b61138e825f83611624565b5050565b5f60055f9054906101000a900473ffffffffffffffffffffffffffffffffffffffff1690508160055f6101000a81548173ffffffffffffffffffffffffffffffffffffffff021916908373ffffffffffffffffffffffffffffffffffffffff1602179055508173ffffffffffffffffffffffffffffffffffffffff168173ffffffffffffffffffffffffffffffffffffffff167f8be0079c531659141344cd1fd0a4f28419497f9722a3daafe3b4186f6b6457e060405160405180910390a35050565b5f73ffffffffffffffffffffffffffffffffffffffff168473ffffffffffffffffffffffffffffffffffffffff16036114c5575f6040517fe602df050000000000000000000000000000000000000000000000000000000081526004016114bc9190611cc8565b60405180910390fd5b5f73ffffffffffffffffffffffffffffffffffffffff168373ffffffffffffffffffffffffffffffffffffffff1603611535575f6040517f94280d6200000000000000000000000000000000000000000000000000000000815260040161152c9190611cc8565b60405180910390fd5b8160015f8673ffffffffffffffffffffffffffffffffffffffff1673ffffffffffffffffffffffffffffffffffffffff1681526020019081526020015f205f8573ffffffffffffffffffffffffffffffffffffffff1673ffffffffffffffffffffffffffffffffffffffff1681526020019081526020015f2081905550801561161e578273ffffffffffffffffffffffffffffffffffffffff168473ffffffffffffffffffffffffffffffffffffffff167f8c5be1e5ebec7d5bd14f71427d1e84f3dd0314c0f7b2291e5b200ac8c7c3b9258460405161161591906119eb565b60405180910390a35b50505050565b5f73ffffffffffffffffffffffffffffffffffffffff168373ffffffffffffffffffffffffffffffffffffffff1603611674578060025f8282546116689190612791565b92505081905550611742565b5f805f8573ffffffffffffffffffffffffffffffffffffffff1673ffffffffffffffffffffffffffffffffffffffff1681526020019081526020015f20549050818110156116fd578381836040517fe450d38c0000000000000000000000000000000000000000000000000000000081526004016116f49392919061275c565b60405180910390fd5b8181035f808673ffffffffffffffffffffffffffffffffffffffff1673ffffffffffffffffffffffffffffffffffffffff1681526020019081526020015f2081905550505b5f73ffffffffffffffffffffffffffffffffffffffff168273ffffffffffffffffffffffffffffffffffffffff1603611789578060025f82825403925050819055506117d3565b805f808473ffffffffffffffffffffffffffffffffffffffff1673ffffffffffffffffffffffffffffffffffffffff1681526020019081526020015f205f82825401925050819055505b8173ffffffffffffffffffffffffffffffffffffffff168373ffffffffffffffffffffffffffffffffffffffff167fddf252ad1be2c89b69c2b068fc378daa952ba7f163c4a11628f55a4df523b3ef8360405161183091906119eb565b60405180910390a3505050565b5f81519050919050565b5f82825260208201905092915050565b8281835e5f83830152505050565b5f601f19601f8301169050919050565b5f61187f8261183d565b6118898185611847565b9350611899818560208601611857565b6118a281611865565b840191505092915050565b5f6020820190508181035f8301526118c58184611875565b905092915050565b5f604051905090565b5f80fd5b5f80fd5b5f73ffffffffffffffffffffffffffffffffffffffff82169050919050565b5f611907826118de565b9050919050565b611917816118fd565b8114611921575f80fd5b50565b5f813590506119328161190e565b92915050565b5f819050919050565b61194a81611938565b8114611954575f80fd5b50565b5f8135905061196581611941565b92915050565b5f8060408385031215611981576119806118d6565b5b5f61198e85828601611924565b925050602061199f85828601611957565b9150509250929050565b5f8115159050919050565b6119bd816119a9565b82525050565b5f6020820190506119d65f8301846119b4565b92915050565b6119e581611938565b82525050565b5f6020820190506119fe5f8301846119dc565b92915050565b5f60ff82169050919050565b611a1981611a04565b82525050565b5f602082019050611a325f830184611a10565b92915050565b5f805f60608486031215611a4f57611a4e6118d6565b5b5f611a5c86828701611924565b9350506020611a6d86828701611924565b9250506040611a7e86828701611957565b9150509250925092565b611a9181611a04565b8114611a9b575f80fd5b50565b5f81359050611aac81611a88565b92915050565b5f60208284031215611ac757611ac66118d6565b5b5f611ad484828501611a9e565b91505092915050565b5f60208284031215611af257611af16118d6565b5b5f611aff84828501611957565b91505092915050565b5f80fd5b5f80fd5b7f4e487b71000000000000000000000000000000000000000000000000000000005f52604160045260245ffd5b611b4682611865565b810181811067ffffffffffffffff82111715611b6557611b64611b10565b5b80604052505050565b5f611b776118cd565b9050611b838282611b3d565b919050565b5f67ffffffffffffffff821115611ba257611ba1611b10565b5b611bab82611865565b9050602081019050919050565b828183375f83830152505050565b5f611bd8611bd384611b88565b611b6e565b905082815260208101848484011115611bf457611bf3611b0c565b5b611bff848285611bb8565b509392505050565b5f82601f830112611c1b57611c1a611b08565b5b8135611c2b848260208601611bc6565b91505092915050565b5f8060408385031215611c4a57611c496118d6565b5b5f83013567ffffffffffffffff811115611c6757611c666118da565b5b611c7385828601611c07565b9250506020611c8485828601611957565b9150509250929050565b5f60208284031215611ca357611ca26118d6565b5b5f611cb084828501611924565b91505092915050565b611cc2816118fd565b82525050565b5f602082019050611cdb5f830184611cb9565b92915050565b5f81519050919050565b5f82825260208201905092915050565b5f819050602082019050919050565b611d1381611a04565b82525050565b5f611d248383611d0a565b60208301905092915050565b5f602082019050919050565b5f611d4682611ce1565b611d508185611ceb565b9350611d5b83611cfb565b805f5b83811015611d8b578151611d728882611d19565b9750611d7d83611d30565b925050600181019050611d5e565b5085935050505092915050565b5f6020820190508181035f830152611db08184611d3c565b905092915050565b5f8060408385031215611dce57611dcd6118d6565b5b5f611ddb85828601611924565b9250506020611dec85828601611924565b9150509250929050565b611dff816119a9565b8114611e09575f80fd5b50565b5f81359050611e1a81611df6565b92915050565b5f8060408385031215611e3657611e356118d6565b5b5f611e4385828601611e0c565b9250506020611e5485828601611957565b9150509250929050565b7f4e487b71000000000000000000000000000000000000000000000000000000005f52602260045260245ffd5b5f6002820490506001821680611ea257607f821691505b602082108103611eb557611eb4611e5e565b5b50919050565b7f496e73756666696369656e742062616c616e63650000000000000000000000005f82015250565b5f611eef601483611847565b9150611efa82611ebb565b602082019050919050565b5f6020820190508181035f830152611f1c81611ee3565b9050919050565b5f819050815f5260205f209050919050565b5f6020601f8301049050919050565b5f82821b905092915050565b5f60088302611f7f7fffffffffffffffffffffffffffffffffffffffffffffffffffffffffffffffff82611f44565b611f898683611f44565b95508019841693508086168417925050509392505050565b5f819050919050565b5f611fc4611fbf611fba84611938565b611fa1565b611938565b9050919050565b5f819050919050565b611fdd83611faa565b611ff1611fe982611fcb565b848454611f50565b825550505050565b5f90565b612005611ff9565b612010818484611fd4565b505050565b5b81811015612033576120285f82611ffd565b600181019050612016565b5050565b601f8211156120785761204981611f23565b61205284611f35565b81016020851015612061578190505b61207561206d85611f35565b830182612015565b50505b505050565b5f82821c905092915050565b5f6120985f198460080261207d565b1980831691505092915050565b5f6120b08383612089565b9150826002028217905092915050565b6120c98261183d565b67ffffffffffffffff8111156120e2576120e1611b10565b5b6120ec8254611e8b565b6120f7828285612037565b5f60209050601f831160018114612128575f8415612116578287015190505b61212085826120a5565b865550612187565b601f19841661213686611f23565b5f5b8281101561215d57848901518255600182019150602085019450602081019050612138565b8683101561217a5784890151612176601f891682612089565b8355505b6001600288020188555050505b505050505050565b7f4e487b71000000000000000000000000000000000000000000000000000000005f52601160045260245ffd5b5f6121c682611a04565b915060ff82036121d9576121d861218f565b5b600182019050919050565b7f496e73756666696369656e7420616d6f756e74000000000000000000000000005f82015250565b5f612218601383611847565b9150612223826121e4565b602082019050919050565b5f6020820190508181035f8301526122458161220c565b9050919050565b7f4974656d206e6f7420666f756e640000000000000000000000000000000000005f82015250565b5f612280600e83611847565b915061228b8261224c565b602082019050919050565b5f6020820190508181035f8301526122ad81612274565b9050919050565b5f815490506122c281611e8b565b9050919050565b8181036122d75750506123ac565b6122e0826122b4565b67ffffffffffffffff8111156122f9576122f8611b10565b5b6123038254611e8b565b61230e828285612037565b5f601f83116001811461233b575f8415612329578287015490505b61233385826120a5565b8655506123a5565b601f19841661234987611f23565b965061235486611f23565b5f5b8281101561237b57848901548255600182019150600185019450602081019050612356565b868310156123985784890154612394601f891682612089565b8355505b6001600288020188555050505b5050505050505b565b5f81546123ba81611e8b565b6123c48186611847565b9450600182165f81146123de57600181146123f457612426565b60ff198316865281151560200286019350612426565b6123fd85611f23565b5f5b8381101561241e578154818901526001820191506020810190506123ff565b808801955050505b50505092915050565b5f6060820190506124425f830186611a10565b818103602083015261245481856123ae565b905061246360408301846119dc565b949350505050565b7f4e487b71000000000000000000000000000000000000000000000000000000005f52603260045260245ffd5b5f819050919050565b6124b26124ad82611938565b612498565b82525050565b5f8160601b9050919050565b5f6124ce826124b8565b9050919050565b5f6124df826124c4565b9050919050565b6124f76124f2826118fd565b6124d5565b82525050565b5f61250882856124a1565b60208201915061251882846124e6565b6014820191508190509392505050565b7f4e487b71000000000000000000000000000000000000000000000000000000005f52601260045260245ffd5b5f61255f82611938565b915061256a83611938565b92508261257a57612579612528565b5b828206905092915050565b5f61258f82611938565b915061259a83611938565b92508282026125a881611938565b915082820484148315176125bf576125be61218f565b5b5092915050565b7f776f6e00000000000000000000000000000000000000000000000000000000005f82015250565b5f6125fa600383611847565b9150612605826125c6565b602082019050919050565b5f6060820190506126235f8301856119dc565b61263060208301846119b4565b8181036040830152612641816125ee565b90509392505050565b7f6c6f7374000000000000000000000000000000000000000000000000000000005f82015250565b5f61267e600483611847565b91506126898261264a565b602082019050919050565b5f6060820190506126a75f8301856119dc565b6126b460208301846119b4565b81810360408301526126c581612672565b90509392505050565b7f596f7527766520616c726561647920636c61696d656420796f75722077656c635f8201527f6f6d6520626f6e75730000000000000000000000000000000000000000000000602082015250565b5f612728602983611847565b9150612733826126ce565b604082019050919050565b5f6020820190508181035f8301526127558161271c565b9050919050565b5f60608201905061276f5f830186611cb9565b61277c60208301856119dc565b61278960408301846119dc565b949350505050565b5f61279b82611938565b91506127a683611938565b92508282019050808211156127be576127bd61218f565b5b9291505056fea264697066735822122016fdb7131c80ef87a978434497a9fa06b2dc96b92f7640a1179fded40a98e9f664736f6c634300081a0033",
					"opcodes": "PUSH1 0x80 PUSH1 0x40 MSTORE CALLVALUE DUP1 ISZERO PUSH2 0xF JUMPI PUSH0 DUP1 REVERT JUMPDEST POP PUSH1 0x40 MLOAD PUSH2 0x35D3 CODESIZE SUB DUP1 PUSH2 0x35D3 DUP4 CODECOPY DUP2 DUP2 ADD PUSH1 0x40 MSTORE DUP2 ADD SWAP1 PUSH2 0x31 SWAP2 SWAP1 PUSH2 0x9A9 JUMP JUMPDEST DUP2 PUSH1 0x40 MLOAD DUP1 PUSH1 0x40 ADD PUSH1 0x40 MSTORE DUP1 PUSH1 0x5 DUP2 MSTORE PUSH1 0x20 ADD PUSH32 0x446567656E000000000000000000000000000000000000000000000000000000 DUP2 MSTORE POP PUSH1 0x40 MLOAD DUP1 PUSH1 0x40 ADD PUSH1 0x40 MSTORE DUP1 PUSH1 0x3 DUP2 MSTORE PUSH1 0x20 ADD PUSH32 0x44474E0000000000000000000000000000000000000000000000000000000000 DUP2 MSTORE POP DUP2 PUSH1 0x3 SWAP1 DUP2 PUSH2 0xAD SWAP2 SWAP1 PUSH2 0xC18 JUMP JUMPDEST POP DUP1 PUSH1 0x4 SWAP1 DUP2 PUSH2 0xBD SWAP2 SWAP1 PUSH2 0xC18 JUMP JUMPDEST POP POP POP PUSH0 PUSH20 0xFFFFFFFFFFFFFFFFFFFFFFFFFFFFFFFFFFFFFFFF AND DUP2 PUSH20 0xFFFFFFFFFFFFFFFFFFFFFFFFFFFFFFFFFFFFFFFF AND SUB PUSH2 0x130 JUMPI PUSH0 PUSH1 0x40 MLOAD PUSH32 0x1E4FBDF700000000000000000000000000000000000000000000000000000000 DUP2 MSTORE PUSH1 0x4 ADD PUSH2 0x127 SWAP2 SWAP1 PUSH2 0xCF6 JUMP JUMPDEST PUSH1 0x40 MLOAD DUP1 SWAP2 SUB SWAP1 REVERT JUMPDEST PUSH2 0x13F DUP2 PUSH2 0x4CD PUSH1 0x20 SHL PUSH1 0x20 SHR JUMP JUMPDEST POP PUSH2 0x150 DUP3 DUP3 PUSH2 0x590 PUSH1 0x20 SHL PUSH1 0x20 SHR JUMP JUMPDEST PUSH1 0x40 MLOAD DUP1 PUSH1 0x60 ADD PUSH1 0x40 MSTORE DUP1 PUSH1 0x40 MLOAD DUP1 PUSH1 0x40 ADD PUSH1 0x40 MSTORE DUP1 PUSH1 0x10 DUP2 MSTORE PUSH1 0x20 ADD PUSH32 0x4E6F76696365204E6176696761746F7200000000000000000000000000000000 DUP2 MSTORE POP DUP2 MSTORE PUSH1 0x20 ADD PUSH1 0x1 PUSH1 0xFF AND DUP2 MSTORE PUSH1 0x20 ADD PUSH1 0x64 DUP2 MSTORE POP PUSH1 0x6 PUSH0 PUSH1 0x1 PUSH1 0xFF AND DUP2 MSTORE PUSH1 0x20 ADD SWAP1 DUP2 MSTORE PUSH1 0x20 ADD PUSH0 KECCAK256 PUSH0 DUP3 ADD MLOAD DUP2 PUSH0 ADD SWAP1 DUP2 PUSH2 0x1CD SWAP2 SWAP1 PUSH2 0xC18 JUMP JUMPDEST POP PUSH1 0x20 DUP3 ADD MLOAD DUP2 PUSH1 0x1 ADD PUSH0 PUSH2 0x100 EXP DUP2 SLOAD DUP2 PUSH1 0xFF MUL NOT AND SWAP1 DUP4 PUSH1 0xFF AND MUL OR SWAP1 SSTORE POP PUSH1 0x40 DUP3 ADD MLOAD DUP2 PUSH1 0x2 ADD SSTORE SWAP1 POP POP PUSH1 0x40 MLOAD DUP1 PUSH1 0x60 ADD PUSH1 0x40 MSTORE DUP1 PUSH1 0x40 MLOAD DUP1 PUSH1 0x40 ADD PUSH1 0x40 MSTORE DUP1 PUSH1 0xF DUP2 MSTORE PUSH1 0x20 ADD PUSH32 0x4D7974686963204D6176657269636B0000000000000000000000000000000000 DUP2 MSTORE POP DUP2 MSTORE PUSH1 0x20 ADD PUSH1 0x2 PUSH1 0xFF AND DUP2 MSTORE PUSH1 0x20 ADD PUSH2 0x2BC DUP2 MSTORE POP PUSH1 0x6 PUSH0 PUSH1 0x2 PUSH1 0xFF AND DUP2 MSTORE PUSH1 0x20 ADD SWAP1 DUP2 MSTORE PUSH1 0x20 ADD PUSH0 KECCAK256 PUSH0 DUP3 ADD MLOAD DUP2 PUSH0 ADD SWAP1 DUP2 PUSH2 0x279 SWAP2 SWAP1 PUSH2 0xC18 JUMP JUMPDEST POP PUSH1 0x20 DUP3 ADD MLOAD DUP2 PUSH1 0x1 ADD PUSH0 PUSH2 0x100 EXP DUP2 SLOAD DUP2 PUSH1 0xFF MUL NOT AND SWAP1 DUP4 PUSH1 0xFF AND MUL OR SWAP1 SSTORE POP PUSH1 0x40 DUP3 ADD MLOAD DUP2 PUSH1 0x2 ADD SSTORE SWAP1 POP POP PUSH1 0x40 MLOAD DUP1 PUSH1 0x60 ADD PUSH1 0x40 MSTORE DUP1 PUSH1 0x40 MLOAD DUP1 PUSH1 0x40 ADD PUSH1 0x40 MSTORE DUP1 PUSH1 0x11 DUP2 MSTORE PUSH1 0x20 ADD PUSH32 0x43656C65737469616C2043727573686572000000000000000000000000000000 DUP2 MSTORE POP DUP2 MSTORE PUSH1 0x20 ADD PUSH1 0x3 PUSH1 0xFF AND DUP2 MSTORE PUSH1 0x20 ADD PUSH2 0x4B0 DUP2 MSTORE POP PUSH1 0x6 PUSH0 PUSH1 0x3 PUSH1 0xFF AND DUP2 MSTORE PUSH1 0x20 ADD SWAP1 DUP2 MSTORE PUSH1 0x20 ADD PUSH0 KECCAK256 PUSH0 DUP3 ADD MLOAD DUP2 PUSH0 ADD SWAP1 DUP2 PUSH2 0x325 SWAP2 SWAP1 PUSH2 0xC18 JUMP JUMPDEST POP PUSH1 0x20 DUP3 ADD MLOAD DUP2 PUSH1 0x1 ADD PUSH0 PUSH2 0x100 EXP DUP2 SLOAD DUP2 PUSH1 0xFF MUL NOT AND SWAP1 DUP4 PUSH1 0xFF AND MUL OR SWAP1 SSTORE POP PUSH1 0x40 DUP3 ADD MLOAD DUP2 PUSH1 0x2 ADD SSTORE SWAP1 POP POP PUSH1 0x40 MLOAD DUP1 PUSH1 0x60 ADD PUSH1 0x40 MSTORE DUP1 PUSH1 0x40 MLOAD DUP1 PUSH1 0x40 ADD PUSH1 0x40 MSTORE DUP1 PUSH1 0xA DUP2 MSTORE PUSH1 0x20 ADD PUSH32 0x41737472616C2041636500000000000000000000000000000000000000000000 DUP2 MSTORE POP DUP2 MSTORE PUSH1 0x20 ADD PUSH1 0x4 PUSH1 0xFF AND DUP2 MSTORE PUSH1 0x20 ADD PUSH2 0x898 DUP2 MSTORE POP PUSH1 0x6 PUSH0 PUSH1 0x4 PUSH1 0xFF AND DUP2 MSTORE PUSH1 0x20 ADD SWAP1 DUP2 MSTORE PUSH1 0x20 ADD PUSH0 KECCAK256 PUSH0 DUP3 ADD MLOAD DUP2 PUSH0 ADD SWAP1 DUP2 PUSH2 0x3D1 SWAP2 SWAP1 PUSH2 0xC18 JUMP JUMPDEST POP PUSH1 0x20 DUP3 ADD MLOAD DUP2 PUSH1 0x1 ADD PUSH0 PUSH2 0x100 EXP DUP2 SLOAD DUP2 PUSH1 0xFF MUL NOT AND SWAP1 DUP4 PUSH1 0xFF AND MUL OR SWAP1 SSTORE POP PUSH1 0x40 DUP3 ADD MLOAD DUP2 PUSH1 0x2 ADD SSTORE SWAP1 POP POP PUSH1 0x40 MLOAD DUP1 PUSH1 0x60 ADD PUSH1 0x40 MSTORE DUP1 PUSH1 0x40 MLOAD DUP1 PUSH1 0x40 ADD PUSH1 0x40 MSTORE DUP1 PUSH1 0x10 DUP2 MSTORE PUSH1 0x20 ADD PUSH32 0x446976696E6520446F6D696E61746F7200000000000000000000000000000000 DUP2 MSTORE POP DUP2 MSTORE PUSH1 0x20 ADD PUSH1 0x5 PUSH1 0xFF AND DUP2 MSTORE PUSH1 0x20 ADD PUSH2 0x960 DUP2 MSTORE POP PUSH1 0x6 PUSH0 PUSH1 0x5 PUSH1 0xFF AND DUP2 MSTORE PUSH1 0x20 ADD SWAP1 DUP2 MSTORE PUSH1 0x20 ADD PUSH0 KECCAK256 PUSH0 DUP3 ADD MLOAD DUP2 PUSH0 ADD SWAP1 DUP2 PUSH2 0x47D SWAP2 SWAP1 PUSH2 0xC18 JUMP JUMPDEST POP PUSH1 0x20 DUP3 ADD MLOAD DUP2 PUSH1 0x1 ADD PUSH0 PUSH2 0x100 EXP DUP2 SLOAD DUP2 PUSH1 0xFF MUL NOT AND SWAP1 DUP4 PUSH1 0xFF AND MUL OR SWAP1 SSTORE POP PUSH1 0x40 DUP3 ADD MLOAD DUP2 PUSH1 0x2 ADD SSTORE SWAP1 POP POP PUSH1 0x6 PUSH1 0x8 PUSH0 PUSH2 0x100 EXP DUP2 SLOAD DUP2 PUSH1 0xFF MUL NOT AND SWAP1 DUP4 PUSH1 0xFF AND MUL OR SWAP1 SSTORE POP POP POP PUSH2 0xDCC JUMP JUMPDEST PUSH0 PUSH1 0x5 PUSH0 SWAP1 SLOAD SWAP1 PUSH2 0x100 EXP SWAP1 DIV PUSH20 0xFFFFFFFFFFFFFFFFFFFFFFFFFFFFFFFFFFFFFFFF AND SWAP1 POP DUP2 PUSH1 0x5 PUSH0 PUSH2 0x100 EXP DUP2 SLOAD DUP2 PUSH20 0xFFFFFFFFFFFFFFFFFFFFFFFFFFFFFFFFFFFFFFFF MUL NOT AND SWAP1 DUP4 PUSH20 0xFFFFFFFFFFFFFFFFFFFFFFFFFFFFFFFFFFFFFFFF AND MUL OR SWAP1 SSTORE POP DUP2 PUSH20 0xFFFFFFFFFFFFFFFFFFFFFFFFFFFFFFFFFFFFFFFF AND DUP2 PUSH20 0xFFFFFFFFFFFFFFFFFFFFFFFFFFFFFFFFFFFFFFFF AND PUSH32 0x8BE0079C531659141344CD1FD0A4F28419497F9722A3DAAFE3B4186F6B6457E0 PUSH1 0x40 MLOAD PUSH1 0x40 MLOAD DUP1 SWAP2 SUB SWAP1 LOG3 POP POP JUMP JUMPDEST PUSH2 0x59E PUSH2 0x5B2 PUSH1 0x20 SHL PUSH1 0x20 SHR JUMP JUMPDEST PUSH2 0x5AE DUP3 DUP3 PUSH2 0x64B PUSH1 0x20 SHL PUSH1 0x20 SHR JUMP JUMPDEST POP POP JUMP JUMPDEST PUSH2 0x5C0 PUSH2 0x6D0 PUSH1 0x20 SHL PUSH1 0x20 SHR JUMP JUMPDEST PUSH20 0xFFFFFFFFFFFFFFFFFFFFFFFFFFFFFFFFFFFFFFFF AND PUSH2 0x5E4 PUSH2 0x6D7 PUSH1 0x20 SHL PUSH1 0x20 SHR JUMP JUMPDEST PUSH20 0xFFFFFFFFFFFFFFFFFFFFFFFFFFFFFFFFFFFFFFFF AND EQ PUSH2 0x649 JUMPI PUSH2 0x60D PUSH2 0x6D0 PUSH1 0x20 SHL PUSH1 0x20 SHR JUMP JUMPDEST PUSH1 0x40 MLOAD PUSH32 0x118CDAA700000000000000000000000000000000000000000000000000000000 DUP2 MSTORE PUSH1 0x4 ADD PUSH2 0x640 SWAP2 SWAP1 PUSH2 0xCF6 JUMP JUMPDEST PUSH1 0x40 MLOAD DUP1 SWAP2 SUB SWAP1 REVERT JUMPDEST JUMP JUMPDEST PUSH0 PUSH20 0xFFFFFFFFFFFFFFFFFFFFFFFFFFFFFFFFFFFFFFFF AND DUP3 PUSH20 0xFFFFFFFFFFFFFFFFFFFFFFFFFFFFFFFFFFFFFFFF AND SUB PUSH2 0x6BB JUMPI PUSH0 PUSH1 0x40 MLOAD PUSH32 0xEC442F0500000000000000000000000000000000000000000000000000000000 DUP2 MSTORE PUSH1 0x4 ADD PUSH2 0x6B2 SWAP2 SWAP1 PUSH2 0xCF6 JUMP JUMPDEST PUSH1 0x40 MLOAD DUP1 SWAP2 SUB SWAP1 REVERT JUMPDEST PUSH2 0x6CC PUSH0 DUP4 DUP4 PUSH2 0x6FF PUSH1 0x20 SHL PUSH1 0x20 SHR JUMP JUMPDEST POP POP JUMP JUMPDEST PUSH0 CALLER SWAP1 POP SWAP1 JUMP JUMPDEST PUSH0 PUSH1 0x5 PUSH0 SWAP1 SLOAD SWAP1 PUSH2 0x100 EXP SWAP1 DIV PUSH20 0xFFFFFFFFFFFFFFFFFFFFFFFFFFFFFFFFFFFFFFFF AND SWAP1 POP SWAP1 JUMP JUMPDEST PUSH0 PUSH20 0xFFFFFFFFFFFFFFFFFFFFFFFFFFFFFFFFFFFFFFFF AND DUP4 PUSH20 0xFFFFFFFFFFFFFFFFFFFFFFFFFFFFFFFFFFFFFFFF AND SUB PUSH2 0x74F JUMPI DUP1 PUSH1 0x2 PUSH0 DUP3 DUP3 SLOAD PUSH2 0x743 SWAP2 SWAP1 PUSH2 0xD3C JUMP JUMPDEST SWAP3 POP POP DUP2 SWAP1 SSTORE POP PUSH2 0x81D JUMP JUMPDEST PUSH0 DUP1 PUSH0 DUP6 PUSH20 0xFFFFFFFFFFFFFFFFFFFFFFFFFFFFFFFFFFFFFFFF AND PUSH20 0xFFFFFFFFFFFFFFFFFFFFFFFFFFFFFFFFFFFFFFFF AND DUP2 MSTORE PUSH1 0x20 ADD SWAP1 DUP2 MSTORE PUSH1 0x20 ADD PUSH0 KECCAK256 SLOAD SWAP1 POP DUP2 DUP2 LT ISZERO PUSH2 0x7D8 JUMPI DUP4 DUP2 DUP4 PUSH1 0x40 MLOAD PUSH32 0xE450D38C00000000000000000000000000000000000000000000000000000000 DUP2 MSTORE PUSH1 0x4 ADD PUSH2 0x7CF SWAP4 SWAP3 SWAP2 SWAP1 PUSH2 0xD7E JUMP JUMPDEST PUSH1 0x40 MLOAD DUP1 SWAP2 SUB SWAP1 REVERT JUMPDEST DUP2 DUP2 SUB PUSH0 DUP1 DUP7 PUSH20 0xFFFFFFFFFFFFFFFFFFFFFFFFFFFFFFFFFFFFFFFF AND PUSH20 0xFFFFFFFFFFFFFFFFFFFFFFFFFFFFFFFFFFFFFFFF AND DUP2 MSTORE PUSH1 0x20 ADD SWAP1 DUP2 MSTORE PUSH1 0x20 ADD PUSH0 KECCAK256 DUP2 SWAP1 SSTORE POP POP JUMPDEST PUSH0 PUSH20 0xFFFFFFFFFFFFFFFFFFFFFFFFFFFFFFFFFFFFFFFF AND DUP3 PUSH20 0xFFFFFFFFFFFFFFFFFFFFFFFFFFFFFFFFFFFFFFFF AND SUB PUSH2 0x864 JUMPI DUP1 PUSH1 0x2 PUSH0 DUP3 DUP3 SLOAD SUB SWAP3 POP POP DUP2 SWAP1 SSTORE POP PUSH2 0x8AE JUMP JUMPDEST DUP1 PUSH0 DUP1 DUP5 PUSH20 0xFFFFFFFFFFFFFFFFFFFFFFFFFFFFFFFFFFFFFFFF AND PUSH20 0xFFFFFFFFFFFFFFFFFFFFFFFFFFFFFFFFFFFFFFFF AND DUP2 MSTORE PUSH1 0x20 ADD SWAP1 DUP2 MSTORE PUSH1 0x20 ADD PUSH0 KECCAK256 PUSH0 DUP3 DUP3 SLOAD ADD SWAP3 POP POP DUP2 SWAP1 SSTORE POP JUMPDEST DUP2 PUSH20 0xFFFFFFFFFFFFFFFFFFFFFFFFFFFFFFFFFFFFFFFF AND DUP4 PUSH20 0xFFFFFFFFFFFFFFFFFFFFFFFFFFFFFFFFFFFFFFFF AND PUSH32 0xDDF252AD1BE2C89B69C2B068FC378DAA952BA7F163C4A11628F55A4DF523B3EF DUP4 PUSH1 0x40 MLOAD PUSH2 0x90B SWAP2 SWAP1 PUSH2 0xDB3 JUMP JUMPDEST PUSH1 0x40 MLOAD DUP1 SWAP2 SUB SWAP1 LOG3 POP POP POP JUMP JUMPDEST PUSH0 DUP1 REVERT JUMPDEST PUSH0 PUSH20 0xFFFFFFFFFFFFFFFFFFFFFFFFFFFFFFFFFFFFFFFF DUP3 AND SWAP1 POP SWAP2 SWAP1 POP JUMP JUMPDEST PUSH0 PUSH2 0x945 DUP3 PUSH2 0x91C JUMP JUMPDEST SWAP1 POP SWAP2 SWAP1 POP JUMP JUMPDEST PUSH2 0x955 DUP2 PUSH2 0x93B JUMP JUMPDEST DUP2 EQ PUSH2 0x95F JUMPI PUSH0 DUP1 REVERT JUMPDEST POP JUMP JUMPDEST PUSH0 DUP2 MLOAD SWAP1 POP PUSH2 0x970 DUP2 PUSH2 0x94C JUMP JUMPDEST SWAP3 SWAP2 POP POP JUMP JUMPDEST PUSH0 DUP2 SWAP1 POP SWAP2 SWAP1 POP JUMP JUMPDEST PUSH2 0x988 DUP2 PUSH2 0x976 JUMP JUMPDEST DUP2 EQ PUSH2 0x992 JUMPI PUSH0 DUP1 REVERT JUMPDEST POP JUMP JUMPDEST PUSH0 DUP2 MLOAD SWAP1 POP PUSH2 0x9A3 DUP2 PUSH2 0x97F JUMP JUMPDEST SWAP3 SWAP2 POP POP JUMP JUMPDEST PUSH0 DUP1 PUSH1 0x40 DUP4 DUP6 SUB SLT ISZERO PUSH2 0x9BF JUMPI PUSH2 0x9BE PUSH2 0x918 JUMP JUMPDEST JUMPDEST PUSH0 PUSH2 0x9CC DUP6 DUP3 DUP7 ADD PUSH2 0x962 JUMP JUMPDEST SWAP3 POP POP PUSH1 0x20 PUSH2 0x9DD DUP6 DUP3 DUP7 ADD PUSH2 0x995 JUMP JUMPDEST SWAP2 POP POP SWAP3 POP SWAP3 SWAP1 POP JUMP JUMPDEST PUSH0 DUP2 MLOAD SWAP1 POP SWAP2 SWAP1 POP JUMP JUMPDEST PUSH32 0x4E487B7100000000000000000000000000000000000000000000000000000000 PUSH0 MSTORE PUSH1 0x41 PUSH1 0x4 MSTORE PUSH1 0x24 PUSH0 REVERT JUMPDEST PUSH32 0x4E487B7100000000000000000000000000000000000000000000000000000000 PUSH0 MSTORE PUSH1 0x22 PUSH1 0x4 MSTORE PUSH1 0x24 PUSH0 REVERT JUMPDEST PUSH0 PUSH1 0x2 DUP3 DIV SWAP1 POP PUSH1 0x1 DUP3 AND DUP1 PUSH2 0xA62 JUMPI PUSH1 0x7F DUP3 AND SWAP2 POP JUMPDEST PUSH1 0x20 DUP3 LT DUP2 SUB PUSH2 0xA75 JUMPI PUSH2 0xA74 PUSH2 0xA1E JUMP JUMPDEST JUMPDEST POP SWAP2 SWAP1 POP JUMP JUMPDEST PUSH0 DUP2 SWAP1 POP DUP2 PUSH0 MSTORE PUSH1 0x20 PUSH0 KECCAK256 SWAP1 POP SWAP2 SWAP1 POP JUMP JUMPDEST PUSH0 PUSH1 0x20 PUSH1 0x1F DUP4 ADD DIV SWAP1 POP SWAP2 SWAP1 POP JUMP JUMPDEST PUSH0 DUP3 DUP3 SHL SWAP1 POP SWAP3 SWAP2 POP POP JUMP JUMPDEST PUSH0 PUSH1 0x8 DUP4 MUL PUSH2 0xAD7 PUSH32 0xFFFFFFFFFFFFFFFFFFFFFFFFFFFFFFFFFFFFFFFFFFFFFFFFFFFFFFFFFFFFFFFF DUP3 PUSH2 0xA9C JUMP JUMPDEST PUSH2 0xAE1 DUP7 DUP4 PUSH2 0xA9C JUMP JUMPDEST SWAP6 POP DUP1 NOT DUP5 AND SWAP4 POP DUP1 DUP7 AND DUP5 OR SWAP3 POP POP POP SWAP4 SWAP3 POP POP POP JUMP JUMPDEST PUSH0 DUP2 SWAP1 POP SWAP2 SWAP1 POP JUMP JUMPDEST PUSH0 PUSH2 0xB1C PUSH2 0xB17 PUSH2 0xB12 DUP5 PUSH2 0x976 JUMP JUMPDEST PUSH2 0xAF9 JUMP JUMPDEST PUSH2 0x976 JUMP JUMPDEST SWAP1 POP SWAP2 SWAP1 POP JUMP JUMPDEST PUSH0 DUP2 SWAP1 POP SWAP2 SWAP1 POP JUMP JUMPDEST PUSH2 0xB35 DUP4 PUSH2 0xB02 JUMP JUMPDEST PUSH2 0xB49 PUSH2 0xB41 DUP3 PUSH2 0xB23 JUMP JUMPDEST DUP5 DUP5 SLOAD PUSH2 0xAA8 JUMP JUMPDEST DUP3 SSTORE POP POP POP POP JUMP JUMPDEST PUSH0 SWAP1 JUMP JUMPDEST PUSH2 0xB5D PUSH2 0xB51 JUMP JUMPDEST PUSH2 0xB68 DUP2 DUP5 DUP5 PUSH2 0xB2C JUMP JUMPDEST POP POP POP JUMP JUMPDEST JUMPDEST DUP2 DUP2 LT ISZERO PUSH2 0xB8B JUMPI PUSH2 0xB80 PUSH0 DUP3 PUSH2 0xB55 JUMP JUMPDEST PUSH1 0x1 DUP2 ADD SWAP1 POP PUSH2 0xB6E JUMP JUMPDEST POP POP JUMP JUMPDEST PUSH1 0x1F DUP3 GT ISZERO PUSH2 0xBD0 JUMPI PUSH2 0xBA1 DUP2 PUSH2 0xA7B JUMP JUMPDEST PUSH2 0xBAA DUP5 PUSH2 0xA8D JUMP JUMPDEST DUP2 ADD PUSH1 0x20 DUP6 LT ISZERO PUSH2 0xBB9 JUMPI DUP2 SWAP1 POP JUMPDEST PUSH2 0xBCD PUSH2 0xBC5 DUP6 PUSH2 0xA8D JUMP JUMPDEST DUP4 ADD DUP3 PUSH2 0xB6D JUMP JUMPDEST POP POP JUMPDEST POP POP POP JUMP JUMPDEST PUSH0 DUP3 DUP3 SHR SWAP1 POP SWAP3 SWAP2 POP POP JUMP JUMPDEST PUSH0 PUSH2 0xBF0 PUSH0 NOT DUP5 PUSH1 0x8 MUL PUSH2 0xBD5 JUMP JUMPDEST NOT DUP1 DUP4 AND SWAP2 POP POP SWAP3 SWAP2 POP POP JUMP JUMPDEST PUSH0 PUSH2 0xC08 DUP4 DUP4 PUSH2 0xBE1 JUMP JUMPDEST SWAP2 POP DUP3 PUSH1 0x2 MUL DUP3 OR SWAP1 POP SWAP3 SWAP2 POP POP JUMP JUMPDEST PUSH2 0xC21 DUP3 PUSH2 0x9E7 JUMP JUMPDEST PUSH8 0xFFFFFFFFFFFFFFFF DUP2 GT ISZERO PUSH2 0xC3A JUMPI PUSH2 0xC39 PUSH2 0x9F1 JUMP JUMPDEST JUMPDEST PUSH2 0xC44 DUP3 SLOAD PUSH2 0xA4B JUMP JUMPDEST PUSH2 0xC4F DUP3 DUP3 DUP6 PUSH2 0xB8F JUMP JUMPDEST PUSH0 PUSH1 0x20 SWAP1 POP PUSH1 0x1F DUP4 GT PUSH1 0x1 DUP2 EQ PUSH2 0xC80 JUMPI PUSH0 DUP5 ISZERO PUSH2 0xC6E JUMPI DUP3 DUP8 ADD MLOAD SWAP1 POP JUMPDEST PUSH2 0xC78 DUP6 DUP3 PUSH2 0xBFD JUMP JUMPDEST DUP7 SSTORE POP PUSH2 0xCDF JUMP JUMPDEST PUSH1 0x1F NOT DUP5 AND PUSH2 0xC8E DUP7 PUSH2 0xA7B JUMP JUMPDEST PUSH0 JUMPDEST DUP3 DUP2 LT ISZERO PUSH2 0xCB5 JUMPI DUP5 DUP10 ADD MLOAD DUP3 SSTORE PUSH1 0x1 DUP3 ADD SWAP2 POP PUSH1 0x20 DUP6 ADD SWAP5 POP PUSH1 0x20 DUP2 ADD SWAP1 POP PUSH2 0xC90 JUMP JUMPDEST DUP7 DUP4 LT ISZERO PUSH2 0xCD2 JUMPI DUP5 DUP10 ADD MLOAD PUSH2 0xCCE PUSH1 0x1F DUP10 AND DUP3 PUSH2 0xBE1 JUMP JUMPDEST DUP4 SSTORE POP JUMPDEST PUSH1 0x1 PUSH1 0x2 DUP9 MUL ADD DUP9 SSTORE POP POP POP JUMPDEST POP POP POP POP POP POP JUMP JUMPDEST PUSH2 0xCF0 DUP2 PUSH2 0x93B JUMP JUMPDEST DUP3 MSTORE POP POP JUMP JUMPDEST PUSH0 PUSH1 0x20 DUP3 ADD SWAP1 POP PUSH2 0xD09 PUSH0 DUP4 ADD DUP5 PUSH2 0xCE7 JUMP JUMPDEST SWAP3 SWAP2 POP POP JUMP JUMPDEST PUSH32 0x4E487B7100000000000000000000000000000000000000000000000000000000 PUSH0 MSTORE PUSH1 0x11 PUSH1 0x4 MSTORE PUSH1 0x24 PUSH0 REVERT JUMPDEST PUSH0 PUSH2 0xD46 DUP3 PUSH2 0x976 JUMP JUMPDEST SWAP2 POP PUSH2 0xD51 DUP4 PUSH2 0x976 JUMP JUMPDEST SWAP3 POP DUP3 DUP3 ADD SWAP1 POP DUP1 DUP3 GT ISZERO PUSH2 0xD69 JUMPI PUSH2 0xD68 PUSH2 0xD0F JUMP JUMPDEST JUMPDEST SWAP3 SWAP2 POP POP JUMP JUMPDEST PUSH2 0xD78 DUP2 PUSH2 0x976 JUMP JUMPDEST DUP3 MSTORE POP POP JUMP JUMPDEST PUSH0 PUSH1 0x60 DUP3 ADD SWAP1 POP PUSH2 0xD91 PUSH0 DUP4 ADD DUP7 PUSH2 0xCE7 JUMP JUMPDEST PUSH2 0xD9E PUSH1 0x20 DUP4 ADD DUP6 PUSH2 0xD6F JUMP JUMPDEST PUSH2 0xDAB PUSH1 0x40 DUP4 ADD DUP5 PUSH2 0xD6F JUMP JUMPDEST SWAP5 SWAP4 POP POP POP POP JUMP JUMPDEST PUSH0 PUSH1 0x20 DUP3 ADD SWAP1 POP PUSH2 0xDC6 PUSH0 DUP4 ADD DUP5 PUSH2 0xD6F JUMP JUMPDEST SWAP3 SWAP2 POP POP JUMP JUMPDEST PUSH2 0x27FA DUP1 PUSH2 0xDD9 PUSH0 CODECOPY PUSH0 RETURN INVALID PUSH1 0x80 PUSH1 0x40 MSTORE CALLVALUE DUP1 ISZERO PUSH2 0xF JUMPI PUSH0 DUP1 REVERT JUMPDEST POP PUSH1 0x4 CALLDATASIZE LT PUSH2 0x18C JUMPI PUSH0 CALLDATALOAD PUSH1 0xE0 SHR DUP1 PUSH4 0x715018A6 GT PUSH2 0xDC JUMPI DUP1 PUSH4 0xA9059CBB GT PUSH2 0x95 JUMPI DUP1 PUSH4 0xDD62ED3E GT PUSH2 0x6F JUMPI DUP1 PUSH4 0xDD62ED3E EQ PUSH2 0x480 JUMPI DUP1 PUSH4 0xEA5E65E0 EQ PUSH2 0x4B0 JUMPI DUP1 PUSH4 0xF2FDE38B EQ PUSH2 0x4CC JUMPI DUP1 PUSH4 0xF5112F87 EQ PUSH2 0x4E8 JUMPI PUSH2 0x18C JUMP JUMPDEST DUP1 PUSH4 0xA9059CBB EQ PUSH2 0x404 JUMPI DUP1 PUSH4 0xAF3BCB7D EQ PUSH2 0x434 JUMPI DUP1 PUSH4 0xCE6019B4 EQ PUSH2 0x450 JUMPI PUSH2 0x18C JUMP JUMPDEST DUP1 PUSH4 0x715018A6 EQ PUSH2 0x356 JUMPI DUP1 PUSH4 0x79CC6790 EQ PUSH2 0x360 JUMPI DUP1 PUSH4 0x7B47EC1A EQ PUSH2 0x37C JUMPI DUP1 PUSH4 0x8DA5CB5B EQ PUSH2 0x398 JUMPI DUP1 PUSH4 0x95D89B41 EQ PUSH2 0x3B6 JUMPI DUP1 PUSH4 0xA10F956D EQ PUSH2 0x3D4 JUMPI PUSH2 0x18C JUMP JUMPDEST DUP1 PUSH4 0x23B872DD GT PUSH2 0x149 JUMPI DUP1 PUSH4 0x40C10F19 GT PUSH2 0x123 JUMPI DUP1 PUSH4 0x40C10F19 EQ PUSH2 0x2D2 JUMPI DUP1 PUSH4 0x42966C68 EQ PUSH2 0x2EE JUMPI DUP1 PUSH4 0x62D6BBDF EQ PUSH2 0x30A JUMPI DUP1 PUSH4 0x70A08231 EQ PUSH2 0x326 JUMPI PUSH2 0x18C JUMP JUMPDEST DUP1 PUSH4 0x23B872DD EQ PUSH2 0x254 JUMPI DUP1 PUSH4 0x30A86006 EQ PUSH2 0x284 JUMPI DUP1 PUSH4 0x313CE567 EQ PUSH2 0x2B4 JUMPI PUSH2 0x18C JUMP JUMPDEST DUP1 PUSH4 0x6FDDE03 EQ PUSH2 0x190 JUMPI DUP1 PUSH4 0x95EA7B3 EQ PUSH2 0x1AE JUMPI DUP1 PUSH4 0x1072CBEA EQ PUSH2 0x1DE JUMPI DUP1 PUSH4 0x12065FE0 EQ PUSH2 0x1FA JUMPI DUP1 PUSH4 0x17D70F7C EQ PUSH2 0x218 JUMPI DUP1 PUSH4 0x18160DDD EQ PUSH2 0x236 JUMPI JUMPDEST PUSH0 DUP1 REVERT JUMPDEST PUSH2 0x198 PUSH2 0x4F2 JUMP JUMPDEST PUSH1 0x40 MLOAD PUSH2 0x1A5 SWAP2 SWAP1 PUSH2 0x18AD JUMP JUMPDEST PUSH1 0x40 MLOAD DUP1 SWAP2 SUB SWAP1 RETURN JUMPDEST PUSH2 0x1C8 PUSH1 0x4 DUP1 CALLDATASIZE SUB DUP2 ADD SWAP1 PUSH2 0x1C3 SWAP2 SWAP1 PUSH2 0x196B JUMP JUMPDEST PUSH2 0x582 JUMP JUMPDEST PUSH1 0x40 MLOAD PUSH2 0x1D5 SWAP2 SWAP1 PUSH2 0x19C3 JUMP JUMPDEST PUSH1 0x40 MLOAD DUP1 SWAP2 SUB SWAP1 RETURN JUMPDEST PUSH2 0x1F8 PUSH1 0x4 DUP1 CALLDATASIZE SUB DUP2 ADD SWAP1 PUSH2 0x1F3 SWAP2 SWAP1 PUSH2 0x196B JUMP JUMPDEST PUSH2 0x5A4 JUMP JUMPDEST STOP JUMPDEST PUSH2 0x202 PUSH2 0x5FE JUMP JUMPDEST PUSH1 0x40 MLOAD PUSH2 0x20F SWAP2 SWAP1 PUSH2 0x19EB JUMP JUMPDEST PUSH1 0x40 MLOAD DUP1 SWAP2 SUB SWAP1 RETURN JUMPDEST PUSH2 0x220 PUSH2 0x60D JUMP JUMPDEST PUSH1 0x40 MLOAD PUSH2 0x22D SWAP2 SWAP1 PUSH2 0x1A1F JUMP JUMPDEST PUSH1 0x40 MLOAD DUP1 SWAP2 SUB SWAP1 RETURN JUMPDEST PUSH2 0x23E PUSH2 0x61F JUMP JUMPDEST PUSH1 0x40 MLOAD PUSH2 0x24B SWAP2 SWAP1 PUSH2 0x19EB JUMP JUMPDEST PUSH1 0x40 MLOAD DUP1 SWAP2 SUB SWAP1 RETURN JUMPDEST PUSH2 0x26E PUSH1 0x4 DUP1 CALLDATASIZE SUB DUP2 ADD SWAP1 PUSH2 0x269 SWAP2 SWAP1 PUSH2 0x1A38 JUMP JUMPDEST PUSH2 0x628 JUMP JUMPDEST PUSH1 0x40 MLOAD PUSH2 0x27B SWAP2 SWAP1 PUSH2 0x19C3 JUMP JUMPDEST PUSH1 0x40 MLOAD DUP1 SWAP2 SUB SWAP1 RETURN JUMPDEST PUSH2 0x29E PUSH1 0x4 DUP1 CALLDATASIZE SUB DUP2 ADD SWAP1 PUSH2 0x299 SWAP2 SWAP1 PUSH2 0x1AB2 JUMP JUMPDEST PUSH2 0x656 JUMP JUMPDEST PUSH1 0x40 MLOAD PUSH2 0x2AB SWAP2 SWAP1 PUSH2 0x18AD JUMP JUMPDEST PUSH1 0x40 MLOAD DUP1 SWAP2 SUB SWAP1 RETURN JUMPDEST PUSH2 0x2BC PUSH2 0x6FF JUMP JUMPDEST PUSH1 0x40 MLOAD PUSH2 0x2C9 SWAP2 SWAP1 PUSH2 0x1A1F JUMP JUMPDEST PUSH1 0x40 MLOAD DUP1 SWAP2 SUB SWAP1 RETURN JUMPDEST PUSH2 0x2EC PUSH1 0x4 DUP1 CALLDATASIZE SUB DUP2 ADD SWAP1 PUSH2 0x2E7 SWAP2 SWAP1 PUSH2 0x196B JUMP JUMPDEST PUSH2 0x703 JUMP JUMPDEST STOP JUMPDEST PUSH2 0x308 PUSH1 0x4 DUP1 CALLDATASIZE SUB DUP2 ADD SWAP1 PUSH2 0x303 SWAP2 SWAP1 PUSH2 0x1ADD JUMP JUMPDEST PUSH2 0x719 JUMP JUMPDEST STOP JUMPDEST PUSH2 0x324 PUSH1 0x4 DUP1 CALLDATASIZE SUB DUP2 ADD SWAP1 PUSH2 0x31F SWAP2 SWAP1 PUSH2 0x1C34 JUMP JUMPDEST PUSH2 0x72D JUMP JUMPDEST STOP JUMPDEST PUSH2 0x340 PUSH1 0x4 DUP1 CALLDATASIZE SUB DUP2 ADD SWAP1 PUSH2 0x33B SWAP2 SWAP1 PUSH2 0x1C8E JUMP JUMPDEST PUSH2 0x802 JUMP JUMPDEST PUSH1 0x40 MLOAD PUSH2 0x34D SWAP2 SWAP1 PUSH2 0x19EB JUMP JUMPDEST PUSH1 0x40 MLOAD DUP1 SWAP2 SUB SWAP1 RETURN JUMPDEST PUSH2 0x35E PUSH2 0x847 JUMP JUMPDEST STOP JUMPDEST PUSH2 0x37A PUSH1 0x4 DUP1 CALLDATASIZE SUB DUP2 ADD SWAP1 PUSH2 0x375 SWAP2 SWAP1 PUSH2 0x196B JUMP JUMPDEST PUSH2 0x85A JUMP JUMPDEST STOP JUMPDEST PUSH2 0x396 PUSH1 0x4 DUP1 CALLDATASIZE SUB DUP2 ADD SWAP1 PUSH2 0x391 SWAP2 SWAP1 PUSH2 0x1ADD JUMP JUMPDEST PUSH2 0x87A JUMP JUMPDEST STOP JUMPDEST PUSH2 0x3A0 PUSH2 0x8D1 JUMP JUMPDEST PUSH1 0x40 MLOAD PUSH2 0x3AD SWAP2 SWAP1 PUSH2 0x1CC8 JUMP JUMPDEST PUSH1 0x40 MLOAD DUP1 SWAP2 SUB SWAP1 RETURN JUMPDEST PUSH2 0x3BE PUSH2 0x8F9 JUMP JUMPDEST PUSH1 0x40 MLOAD PUSH2 0x3CB SWAP2 SWAP1 PUSH2 0x18AD JUMP JUMPDEST PUSH1 0x40 MLOAD DUP1 SWAP2 SUB SWAP1 RETURN JUMPDEST PUSH2 0x3EE PUSH1 0x4 DUP1 CALLDATASIZE SUB DUP2 ADD SWAP1 PUSH2 0x3E9 SWAP2 SWAP1 PUSH2 0x1AB2 JUMP JUMPDEST PUSH2 0x989 JUMP JUMPDEST PUSH1 0x40 MLOAD PUSH2 0x3FB SWAP2 SWAP1 PUSH2 0x19EB JUMP JUMPDEST PUSH1 0x40 MLOAD DUP1 SWAP2 SUB SWAP1 RETURN JUMPDEST PUSH2 0x41E PUSH1 0x4 DUP1 CALLDATASIZE SUB DUP2 ADD SWAP1 PUSH2 0x419 SWAP2 SWAP1 PUSH2 0x196B JUMP JUMPDEST PUSH2 0x9AC JUMP JUMPDEST PUSH1 0x40 MLOAD PUSH2 0x42B SWAP2 SWAP1 PUSH2 0x19C3 JUMP JUMPDEST PUSH1 0x40 MLOAD DUP1 SWAP2 SUB SWAP1 RETURN JUMPDEST PUSH2 0x44E PUSH1 0x4 DUP1 CALLDATASIZE SUB DUP2 ADD SWAP1 PUSH2 0x449 SWAP2 SWAP1 PUSH2 0x1AB2 JUMP JUMPDEST PUSH2 0x9CE JUMP JUMPDEST STOP JUMPDEST PUSH2 0x46A PUSH1 0x4 DUP1 CALLDATASIZE SUB DUP2 ADD SWAP1 PUSH2 0x465 SWAP2 SWAP1 PUSH2 0x1C8E JUMP JUMPDEST PUSH2 0xBFE JUMP JUMPDEST PUSH1 0x40 MLOAD PUSH2 0x477 SWAP2 SWAP1 PUSH2 0x1D98 JUMP JUMPDEST PUSH1 0x40 MLOAD DUP1 SWAP2 SUB SWAP1 RETURN JUMPDEST PUSH2 0x49A PUSH1 0x4 DUP1 CALLDATASIZE SUB DUP2 ADD SWAP1 PUSH2 0x495 SWAP2 SWAP1 PUSH2 0x1DB8 JUMP JUMPDEST PUSH2 0xE02 JUMP JUMPDEST PUSH1 0x40 MLOAD PUSH2 0x4A7 SWAP2 SWAP1 PUSH2 0x19EB JUMP JUMPDEST PUSH1 0x40 MLOAD DUP1 SWAP2 SUB SWAP1 RETURN JUMPDEST PUSH2 0x4CA PUSH1 0x4 DUP1 CALLDATASIZE SUB DUP2 ADD SWAP1 PUSH2 0x4C5 SWAP2 SWAP1 PUSH2 0x1E20 JUMP JUMPDEST PUSH2 0xE84 JUMP JUMPDEST STOP JUMPDEST PUSH2 0x4E6 PUSH1 0x4 DUP1 CALLDATASIZE SUB DUP2 ADD SWAP1 PUSH2 0x4E1 SWAP2 SWAP1 PUSH2 0x1C8E JUMP JUMPDEST PUSH2 0xF97 JUMP JUMPDEST STOP JUMPDEST PUSH2 0x4F0 PUSH2 0x101B JUMP JUMPDEST STOP JUMPDEST PUSH1 0x60 PUSH1 0x3 DUP1 SLOAD PUSH2 0x501 SWAP1 PUSH2 0x1E8B JUMP JUMPDEST DUP1 PUSH1 0x1F ADD PUSH1 0x20 DUP1 SWAP2 DIV MUL PUSH1 0x20 ADD PUSH1 0x40 MLOAD SWAP1 DUP2 ADD PUSH1 0x40 MSTORE DUP1 SWAP3 SWAP2 SWAP1 DUP2 DUP2 MSTORE PUSH1 0x20 ADD DUP3 DUP1 SLOAD PUSH2 0x52D SWAP1 PUSH2 0x1E8B JUMP JUMPDEST DUP1 ISZERO PUSH2 0x578 JUMPI DUP1 PUSH1 0x1F LT PUSH2 0x54F JUMPI PUSH2 0x100 DUP1 DUP4 SLOAD DIV MUL DUP4 MSTORE SWAP2 PUSH1 0x20 ADD SWAP2 PUSH2 0x578 JUMP JUMPDEST DUP3 ADD SWAP2 SWAP1 PUSH0 MSTORE PUSH1 0x20 PUSH0 KECCAK256 SWAP1 JUMPDEST DUP2 SLOAD DUP2 MSTORE SWAP1 PUSH1 0x1 ADD SWAP1 PUSH1 0x20 ADD DUP1 DUP4 GT PUSH2 0x55B JUMPI DUP3 SWAP1 SUB PUSH1 0x1F AND DUP3 ADD SWAP2 JUMPDEST POP POP POP POP POP SWAP1 POP SWAP1 JUMP JUMPDEST PUSH0 DUP1 PUSH2 0x58C PUSH2 0x1072 JUMP JUMPDEST SWAP1 POP PUSH2 0x599 DUP2 DUP6 DUP6 PUSH2 0x1079 JUMP JUMPDEST PUSH1 0x1 SWAP2 POP POP SWAP3 SWAP2 POP POP JUMP JUMPDEST DUP1 PUSH2 0x5AE CALLER PUSH2 0x802 JUMP JUMPDEST LT ISZERO PUSH2 0x5EF JUMPI PUSH1 0x40 MLOAD PUSH32 0x8C379A000000000000000000000000000000000000000000000000000000000 DUP2 MSTORE PUSH1 0x4 ADD PUSH2 0x5E6 SWAP1 PUSH2 0x1F05 JUMP JUMPDEST PUSH1 0x40 MLOAD DUP1 SWAP2 SUB SWAP1 REVERT JUMPDEST PUSH2 0x5F9 DUP3 DUP3 PUSH2 0x9AC JUMP JUMPDEST POP POP POP JUMP JUMPDEST PUSH0 PUSH2 0x608 CALLER PUSH2 0x802 JUMP JUMPDEST SWAP1 POP SWAP1 JUMP JUMPDEST PUSH1 0x8 PUSH0 SWAP1 SLOAD SWAP1 PUSH2 0x100 EXP SWAP1 DIV PUSH1 0xFF AND DUP2 JUMP JUMPDEST PUSH0 PUSH1 0x2 SLOAD SWAP1 POP SWAP1 JUMP JUMPDEST PUSH0 DUP1 PUSH2 0x632 PUSH2 0x1072 JUMP JUMPDEST SWAP1 POP PUSH2 0x63F DUP6 DUP3 DUP6 PUSH2 0x108B JUMP JUMPDEST PUSH2 0x64A DUP6 DUP6 DUP6 PUSH2 0x111D JUMP JUMPDEST PUSH1 0x1 SWAP2 POP POP SWAP4 SWAP3 POP POP POP JUMP JUMPDEST PUSH1 0x60 PUSH1 0x6 PUSH0 DUP4 PUSH1 0xFF AND PUSH1 0xFF AND DUP2 MSTORE PUSH1 0x20 ADD SWAP1 DUP2 MSTORE PUSH1 0x20 ADD PUSH0 KECCAK256 PUSH0 ADD DUP1 SLOAD PUSH2 0x67C SWAP1 PUSH2 0x1E8B JUMP JUMPDEST DUP1 PUSH1 0x1F ADD PUSH1 0x20 DUP1 SWAP2 DIV MUL PUSH1 0x20 ADD PUSH1 0x40 MLOAD SWAP1 DUP2 ADD PUSH1 0x40 MSTORE DUP1 SWAP3 SWAP2 SWAP1 DUP2 DUP2 MSTORE PUSH1 0x20 ADD DUP3 DUP1 SLOAD PUSH2 0x6A8 SWAP1 PUSH2 0x1E8B JUMP JUMPDEST DUP1 ISZERO PUSH2 0x6F3 JUMPI DUP1 PUSH1 0x1F LT PUSH2 0x6CA JUMPI PUSH2 0x100 DUP1 DUP4 SLOAD DIV MUL DUP4 MSTORE SWAP2 PUSH1 0x20 ADD SWAP2 PUSH2 0x6F3 JUMP JUMPDEST DUP3 ADD SWAP2 SWAP1 PUSH0 MSTORE PUSH1 0x20 PUSH0 KECCAK256 SWAP1 JUMPDEST DUP2 SLOAD DUP2 MSTORE SWAP1 PUSH1 0x1 ADD SWAP1 PUSH1 0x20 ADD DUP1 DUP4 GT PUSH2 0x6D6 JUMPI DUP3 SWAP1 SUB PUSH1 0x1F AND DUP3 ADD SWAP2 JUMPDEST POP POP POP POP POP SWAP1 POP SWAP2 SWAP1 POP JUMP JUMPDEST PUSH0 SWAP1 JUMP JUMPDEST PUSH2 0x70B PUSH2 0x120D JUMP JUMPDEST PUSH2 0x715 DUP3 DUP3 PUSH2 0x1294 JUMP JUMPDEST POP POP JUMP JUMPDEST PUSH2 0x72A PUSH2 0x724 PUSH2 0x1072 JUMP JUMPDEST DUP3 PUSH2 0x1313 JUMP JUMPDEST POP JUMP JUMPDEST PUSH2 0x735 PUSH2 0x120D JUMP JUMPDEST PUSH1 0x40 MLOAD DUP1 PUSH1 0x60 ADD PUSH1 0x40 MSTORE DUP1 DUP4 DUP2 MSTORE PUSH1 0x20 ADD PUSH1 0x8 PUSH0 SWAP1 SLOAD SWAP1 PUSH2 0x100 EXP SWAP1 DIV PUSH1 0xFF AND PUSH1 0xFF AND DUP2 MSTORE PUSH1 0x20 ADD DUP3 DUP2 MSTORE POP PUSH1 0x6 PUSH0 PUSH1 0x8 PUSH0 SWAP1 SLOAD SWAP1 PUSH2 0x100 EXP SWAP1 DIV PUSH1 0xFF AND PUSH1 0xFF AND PUSH1 0xFF AND DUP2 MSTORE PUSH1 0x20 ADD SWAP1 DUP2 MSTORE PUSH1 0x20 ADD PUSH0 KECCAK256 PUSH0 DUP3 ADD MLOAD DUP2 PUSH0 ADD SWAP1 DUP2 PUSH2 0x799 SWAP2 SWAP1 PUSH2 0x20C0 JUMP JUMPDEST POP PUSH1 0x20 DUP3 ADD MLOAD DUP2 PUSH1 0x1 ADD PUSH0 PUSH2 0x100 EXP DUP2 SLOAD DUP2 PUSH1 0xFF MUL NOT AND SWAP1 DUP4 PUSH1 0xFF AND MUL OR SWAP1 SSTORE POP PUSH1 0x40 DUP3 ADD MLOAD DUP2 PUSH1 0x2 ADD SSTORE SWAP1 POP POP PUSH1 0x8 PUSH0 DUP2 DUP2 SWAP1 SLOAD SWAP1 PUSH2 0x100 EXP SWAP1 DIV PUSH1 0xFF AND DUP1 SWAP3 SWAP2 SWAP1 PUSH2 0x7E5 SWAP1 PUSH2 0x21BC JUMP JUMPDEST SWAP2 SWAP1 PUSH2 0x100 EXP DUP2 SLOAD DUP2 PUSH1 0xFF MUL NOT AND SWAP1 DUP4 PUSH1 0xFF AND MUL OR SWAP1 SSTORE POP POP POP POP JUMP JUMPDEST PUSH0 DUP1 PUSH0 DUP4 PUSH20 0xFFFFFFFFFFFFFFFFFFFFFFFFFFFFFFFFFFFFFFFF AND PUSH20 0xFFFFFFFFFFFFFFFFFFFFFFFFFFFFFFFFFFFFFFFF AND DUP2 MSTORE PUSH1 0x20 ADD SWAP1 DUP2 MSTORE PUSH1 0x20 ADD PUSH0 KECCAK256 SLOAD SWAP1 POP SWAP2 SWAP1 POP JUMP JUMPDEST PUSH2 0x84F PUSH2 0x120D JUMP JUMPDEST PUSH2 0x858 PUSH0 PUSH2 0x1392 JUMP JUMPDEST JUMP JUMPDEST PUSH2 0x86C DUP3 PUSH2 0x866 PUSH2 0x1072 JUMP JUMPDEST DUP4 PUSH2 0x108B JUMP JUMPDEST PUSH2 0x876 DUP3 DUP3 PUSH2 0x1313 JUMP JUMPDEST POP POP JUMP JUMPDEST DUP1 PUSH2 0x884 CALLER PUSH2 0x802 JUMP JUMPDEST LT ISZERO PUSH2 0x8C5 JUMPI PUSH1 0x40 MLOAD PUSH32 0x8C379A000000000000000000000000000000000000000000000000000000000 DUP2 MSTORE PUSH1 0x4 ADD PUSH2 0x8BC SWAP1 PUSH2 0x222E JUMP JUMPDEST PUSH1 0x40 MLOAD DUP1 SWAP2 SUB SWAP1 REVERT JUMPDEST PUSH2 0x8CE DUP2 PUSH2 0x719 JUMP JUMPDEST POP JUMP JUMPDEST PUSH0 PUSH1 0x5 PUSH0 SWAP1 SLOAD SWAP1 PUSH2 0x100 EXP SWAP1 DIV PUSH20 0xFFFFFFFFFFFFFFFFFFFFFFFFFFFFFFFFFFFFFFFF AND SWAP1 POP SWAP1 JUMP JUMPDEST PUSH1 0x60 PUSH1 0x4 DUP1 SLOAD PUSH2 0x908 SWAP1 PUSH2 0x1E8B JUMP JUMPDEST DUP1 PUSH1 0x1F ADD PUSH1 0x20 DUP1 SWAP2 DIV MUL PUSH1 0x20 ADD PUSH1 0x40 MLOAD SWAP1 DUP2 ADD PUSH1 0x40 MSTORE DUP1 SWAP3 SWAP2 SWAP1 DUP2 DUP2 MSTORE PUSH1 0x20 ADD DUP3 DUP1 SLOAD PUSH2 0x934 SWAP1 PUSH2 0x1E8B JUMP JUMPDEST DUP1 ISZERO PUSH2 0x97F JUMPI DUP1 PUSH1 0x1F LT PUSH2 0x956 JUMPI PUSH2 0x100 DUP1 DUP4 SLOAD DIV MUL DUP4 MSTORE SWAP2 PUSH1 0x20 ADD SWAP2 PUSH2 0x97F JUMP JUMPDEST DUP3 ADD SWAP2 SWAP1 PUSH0 MSTORE PUSH1 0x20 PUSH0 KECCAK256 SWAP1 JUMPDEST DUP2 SLOAD DUP2 MSTORE SWAP1 PUSH1 0x1 ADD SWAP1 PUSH1 0x20 ADD DUP1 DUP4 GT PUSH2 0x962 JUMPI DUP3 SWAP1 SUB PUSH1 0x1F AND DUP3 ADD SWAP2 JUMPDEST POP POP POP POP POP SWAP1 POP SWAP1 JUMP JUMPDEST PUSH0 PUSH1 0x6 PUSH0 DUP4 PUSH1 0xFF AND PUSH1 0xFF AND DUP2 MSTORE PUSH1 0x20 ADD SWAP1 DUP2 MSTORE PUSH1 0x20 ADD PUSH0 KECCAK256 PUSH1 0x2 ADD SLOAD SWAP1 POP SWAP2 SWAP1 POP JUMP JUMPDEST PUSH0 DUP1 PUSH2 0x9B6 PUSH2 0x1072 JUMP JUMPDEST SWAP1 POP PUSH2 0x9C3 DUP2 DUP6 DUP6 PUSH2 0x111D JUMP JUMPDEST PUSH1 0x1 SWAP2 POP POP SWAP3 SWAP2 POP POP JUMP JUMPDEST PUSH0 PUSH1 0x6 PUSH0 DUP4 PUSH1 0xFF AND PUSH1 0xFF AND DUP2 MSTORE PUSH1 0x20 ADD SWAP1 DUP2 MSTORE PUSH1 0x20 ADD PUSH0 KECCAK256 PUSH1 0x2 ADD SLOAD SUB PUSH2 0xA2A JUMPI PUSH1 0x40 MLOAD PUSH32 0x8C379A000000000000000000000000000000000000000000000000000000000 DUP2 MSTORE PUSH1 0x4 ADD PUSH2 0xA21 SWAP1 PUSH2 0x2296 JUMP JUMPDEST PUSH1 0x40 MLOAD DUP1 SWAP2 SUB SWAP1 REVERT JUMPDEST PUSH1 0x6 PUSH0 DUP3 PUSH1 0xFF AND PUSH1 0xFF AND DUP2 MSTORE PUSH1 0x20 ADD SWAP1 DUP2 MSTORE PUSH1 0x20 ADD PUSH0 KECCAK256 PUSH1 0x2 ADD SLOAD PUSH2 0xA4E CALLER PUSH2 0x802 JUMP JUMPDEST LT ISZERO PUSH2 0xA8F JUMPI PUSH1 0x40 MLOAD PUSH32 0x8C379A000000000000000000000000000000000000000000000000000000000 DUP2 MSTORE PUSH1 0x4 ADD PUSH2 0xA86 SWAP1 PUSH2 0x1F05 JUMP JUMPDEST PUSH1 0x40 MLOAD DUP1 SWAP2 SUB SWAP1 REVERT JUMPDEST PUSH2 0xAB2 PUSH1 0x6 PUSH0 DUP4 PUSH1 0xFF AND PUSH1 0xFF AND DUP2 MSTORE PUSH1 0x20 ADD SWAP1 DUP2 MSTORE PUSH1 0x20 ADD PUSH0 KECCAK256 PUSH1 0x2 ADD SLOAD PUSH2 0x719 JUMP JUMPDEST PUSH1 0x7 PUSH0 CALLER PUSH20 0xFFFFFFFFFFFFFFFFFFFFFFFFFFFFFFFFFFFFFFFF AND PUSH20 0xFFFFFFFFFFFFFFFFFFFFFFFFFFFFFFFFFFFFFFFF AND DUP2 MSTORE PUSH1 0x20 ADD SWAP1 DUP2 MSTORE PUSH1 0x20 ADD PUSH0 KECCAK256 PUSH1 0x6 PUSH0 DUP4 PUSH1 0xFF AND PUSH1 0xFF AND DUP2 MSTORE PUSH1 0x20 ADD SWAP1 DUP2 MSTORE PUSH1 0x20 ADD PUSH0 KECCAK256 SWAP1 DUP1 PUSH1 0x1 DUP2 SLOAD ADD DUP1 DUP3 SSTORE DUP1 SWAP2 POP POP PUSH1 0x1 SWAP1 SUB SWAP1 PUSH0 MSTORE PUSH1 0x20 PUSH0 KECCAK256 SWAP1 PUSH1 0x3 MUL ADD PUSH0 SWAP1 SWAP2 SWAP1 SWAP2 SWAP1 SWAP2 POP PUSH0 DUP3 ADD DUP2 PUSH0 ADD SWAP1 DUP2 PUSH2 0xB3E SWAP2 SWAP1 PUSH2 0x22C9 JUMP JUMPDEST POP PUSH1 0x1 DUP3 ADD PUSH0 SWAP1 SLOAD SWAP1 PUSH2 0x100 EXP SWAP1 DIV PUSH1 0xFF AND DUP2 PUSH1 0x1 ADD PUSH0 PUSH2 0x100 EXP DUP2 SLOAD DUP2 PUSH1 0xFF MUL NOT AND SWAP1 DUP4 PUSH1 0xFF AND MUL OR SWAP1 SSTORE POP PUSH1 0x2 DUP3 ADD SLOAD DUP2 PUSH1 0x2 ADD SSTORE POP POP CALLER PUSH20 0xFFFFFFFFFFFFFFFFFFFFFFFFFFFFFFFFFFFFFFFF AND PUSH32 0x8BEDD141782C49139782BD92BD7A760A0BCB544FFECFD2B25F00366FAE06598E DUP3 PUSH1 0x6 PUSH0 DUP6 PUSH1 0xFF AND PUSH1 0xFF AND DUP2 MSTORE PUSH1 0x20 ADD SWAP1 DUP2 MSTORE PUSH1 0x20 ADD PUSH0 KECCAK256 PUSH0 ADD PUSH1 0x6 PUSH0 DUP7 PUSH1 0xFF AND PUSH1 0xFF AND DUP2 MSTORE PUSH1 0x20 ADD SWAP1 DUP2 MSTORE PUSH1 0x20 ADD PUSH0 KECCAK256 PUSH1 0x2 ADD SLOAD PUSH1 0x40 MLOAD PUSH2 0xBF3 SWAP4 SWAP3 SWAP2 SWAP1 PUSH2 0x242F JUMP JUMPDEST PUSH1 0x40 MLOAD DUP1 SWAP2 SUB SWAP1 LOG2 POP JUMP JUMPDEST PUSH1 0x60 PUSH0 PUSH1 0x7 PUSH0 DUP5 PUSH20 0xFFFFFFFFFFFFFFFFFFFFFFFFFFFFFFFFFFFFFFFF AND PUSH20 0xFFFFFFFFFFFFFFFFFFFFFFFFFFFFFFFFFFFFFFFF AND DUP2 MSTORE PUSH1 0x20 ADD SWAP1 DUP2 MSTORE PUSH1 0x20 ADD PUSH0 KECCAK256 DUP1 SLOAD DUP1 PUSH1 0x20 MUL PUSH1 0x20 ADD PUSH1 0x40 MLOAD SWAP1 DUP2 ADD PUSH1 0x40 MSTORE DUP1 SWAP3 SWAP2 SWAP1 DUP2 DUP2 MSTORE PUSH1 0x20 ADD PUSH0 SWAP1 JUMPDEST DUP3 DUP3 LT ISZERO PUSH2 0xD42 JUMPI DUP4 DUP3 SWAP1 PUSH0 MSTORE PUSH1 0x20 PUSH0 KECCAK256 SWAP1 PUSH1 0x3 MUL ADD PUSH1 0x40 MLOAD DUP1 PUSH1 0x60 ADD PUSH1 0x40 MSTORE SWAP1 DUP2 PUSH0 DUP3 ADD DUP1 SLOAD PUSH2 0xC8D SWAP1 PUSH2 0x1E8B JUMP JUMPDEST DUP1 PUSH1 0x1F ADD PUSH1 0x20 DUP1 SWAP2 DIV MUL PUSH1 0x20 ADD PUSH1 0x40 MLOAD SWAP1 DUP2 ADD PUSH1 0x40 MSTORE DUP1 SWAP3 SWAP2 SWAP1 DUP2 DUP2 MSTORE PUSH1 0x20 ADD DUP3 DUP1 SLOAD PUSH2 0xCB9 SWAP1 PUSH2 0x1E8B JUMP JUMPDEST DUP1 ISZERO PUSH2 0xD04 JUMPI DUP1 PUSH1 0x1F LT PUSH2 0xCDB JUMPI PUSH2 0x100 DUP1 DUP4 SLOAD DIV MUL DUP4 MSTORE SWAP2 PUSH1 0x20 ADD SWAP2 PUSH2 0xD04 JUMP JUMPDEST DUP3 ADD SWAP2 SWAP1 PUSH0 MSTORE PUSH1 0x20 PUSH0 KECCAK256 SWAP1 JUMPDEST DUP2 SLOAD DUP2 MSTORE SWAP1 PUSH1 0x1 ADD SWAP1 PUSH1 0x20 ADD DUP1 DUP4 GT PUSH2 0xCE7 JUMPI DUP3 SWAP1 SUB PUSH1 0x1F AND DUP3 ADD SWAP2 JUMPDEST POP POP POP POP POP DUP2 MSTORE PUSH1 0x20 ADD PUSH1 0x1 DUP3 ADD PUSH0 SWAP1 SLOAD SWAP1 PUSH2 0x100 EXP SWAP1 DIV PUSH1 0xFF AND PUSH1 0xFF AND PUSH1 0xFF AND DUP2 MSTORE PUSH1 0x20 ADD PUSH1 0x2 DUP3 ADD SLOAD DUP2 MSTORE POP POP DUP2 MSTORE PUSH1 0x20 ADD SWAP1 PUSH1 0x1 ADD SWAP1 PUSH2 0xC5D JUMP JUMPDEST POP POP POP POP SWAP1 POP PUSH0 DUP2 MLOAD SWAP1 POP PUSH0 DUP2 PUSH8 0xFFFFFFFFFFFFFFFF DUP2 GT ISZERO PUSH2 0xD68 JUMPI PUSH2 0xD67 PUSH2 0x1B10 JUMP JUMPDEST JUMPDEST PUSH1 0x40 MLOAD SWAP1 DUP1 DUP3 MSTORE DUP1 PUSH1 0x20 MUL PUSH1 0x20 ADD DUP3 ADD PUSH1 0x40 MSTORE DUP1 ISZERO PUSH2 0xD96 JUMPI DUP2 PUSH1 0x20 ADD PUSH1 0x20 DUP3 MUL DUP1 CALLDATASIZE DUP4 CALLDATACOPY DUP1 DUP3 ADD SWAP2 POP POP SWAP1 POP JUMPDEST POP SWAP1 POP PUSH0 JUMPDEST DUP3 DUP2 LT ISZERO PUSH2 0xDF6 JUMPI DUP4 DUP2 DUP2 MLOAD DUP2 LT PUSH2 0xDB6 JUMPI PUSH2 0xDB5 PUSH2 0x246B JUMP JUMPDEST JUMPDEST PUSH1 0x20 MUL PUSH1 0x20 ADD ADD MLOAD PUSH1 0x20 ADD MLOAD DUP3 DUP3 DUP2 MLOAD DUP2 LT PUSH2 0xDD5 JUMPI PUSH2 0xDD4 PUSH2 0x246B JUMP JUMPDEST JUMPDEST PUSH1 0x20 MUL PUSH1 0x20 ADD ADD SWAP1 PUSH1 0xFF AND SWAP1 DUP2 PUSH1 0xFF AND DUP2 MSTORE POP POP DUP1 DUP1 PUSH1 0x1 ADD SWAP2 POP POP PUSH2 0xD9B JUMP JUMPDEST POP DUP1 SWAP4 POP POP POP POP SWAP2 SWAP1 POP JUMP JUMPDEST PUSH0 PUSH1 0x1 PUSH0 DUP5 PUSH20 0xFFFFFFFFFFFFFFFFFFFFFFFFFFFFFFFFFFFFFFFF AND PUSH20 0xFFFFFFFFFFFFFFFFFFFFFFFFFFFFFFFFFFFFFFFF AND DUP2 MSTORE PUSH1 0x20 ADD SWAP1 DUP2 MSTORE PUSH1 0x20 ADD PUSH0 KECCAK256 PUSH0 DUP4 PUSH20 0xFFFFFFFFFFFFFFFFFFFFFFFFFFFFFFFFFFFFFFFF AND PUSH20 0xFFFFFFFFFFFFFFFFFFFFFFFFFFFFFFFFFFFFFFFF AND DUP2 MSTORE PUSH1 0x20 ADD SWAP1 DUP2 MSTORE PUSH1 0x20 ADD PUSH0 KECCAK256 SLOAD SWAP1 POP SWAP3 SWAP2 POP POP JUMP JUMPDEST PUSH0 PUSH1 0xA TIMESTAMP CALLER PUSH1 0x40 MLOAD PUSH1 0x20 ADD PUSH2 0xE9A SWAP3 SWAP2 SWAP1 PUSH2 0x24FD JUMP JUMPDEST PUSH1 0x40 MLOAD PUSH1 0x20 DUP2 DUP4 SUB SUB DUP2 MSTORE SWAP1 PUSH1 0x40 MSTORE DUP1 MLOAD SWAP1 PUSH1 0x20 ADD KECCAK256 PUSH0 SHR PUSH2 0xEBC SWAP2 SWAP1 PUSH2 0x2555 JUMP JUMPDEST SWAP1 POP PUSH1 0x5 DUP2 LT ISZERO ISZERO DUP4 ISZERO ISZERO SUB PUSH2 0xF38 JUMPI PUSH2 0xEE2 CALLER PUSH1 0x2 DUP5 PUSH2 0xEDD SWAP2 SWAP1 PUSH2 0x2585 JUMP JUMPDEST PUSH2 0x1294 JUMP JUMPDEST CALLER PUSH20 0xFFFFFFFFFFFFFFFFFFFFFFFFFFFFFFFFFFFFFFFF AND PUSH32 0xD04D9689D8E43BC0BACEA67661EF472DCF321F34F08AF72F651AF30C4C866587 DUP3 PUSH1 0x1 PUSH1 0x40 MLOAD PUSH2 0xF2B SWAP3 SWAP2 SWAP1 PUSH2 0x2610 JUMP JUMPDEST PUSH1 0x40 MLOAD DUP1 SWAP2 SUB SWAP1 LOG2 PUSH2 0xF92 JUMP JUMPDEST PUSH2 0xF41 DUP3 PUSH2 0x719 JUMP JUMPDEST CALLER PUSH20 0xFFFFFFFFFFFFFFFFFFFFFFFFFFFFFFFFFFFFFFFF AND PUSH32 0xD04D9689D8E43BC0BACEA67661EF472DCF321F34F08AF72F651AF30C4C866587 DUP3 PUSH0 PUSH1 0x40 MLOAD PUSH2 0xF89 SWAP3 SWAP2 SWAP1 PUSH2 0x2694 JUMP JUMPDEST PUSH1 0x40 MLOAD DUP1 SWAP2 SUB SWAP1 LOG2 JUMPDEST POP POP POP JUMP JUMPDEST PUSH2 0xF9F PUSH2 0x120D JUMP JUMPDEST PUSH0 PUSH20 0xFFFFFFFFFFFFFFFFFFFFFFFFFFFFFFFFFFFFFFFF AND DUP2 PUSH20 0xFFFFFFFFFFFFFFFFFFFFFFFFFFFFFFFFFFFFFFFF AND SUB PUSH2 0x100F JUMPI PUSH0 PUSH1 0x40 MLOAD PUSH32 0x1E4FBDF700000000000000000000000000000000000000000000000000000000 DUP2 MSTORE PUSH1 0x4 ADD PUSH2 0x1006 SWAP2 SWAP1 PUSH2 0x1CC8 JUMP JUMPDEST PUSH1 0x40 MLOAD DUP1 SWAP2 SUB SWAP1 REVERT JUMPDEST PUSH2 0x1018 DUP2 PUSH2 0x1392 JUMP JUMPDEST POP JUMP JUMPDEST PUSH0 PUSH2 0x1025 CALLER PUSH2 0x802 JUMP JUMPDEST EQ PUSH2 0x1065 JUMPI PUSH1 0x40 MLOAD PUSH32 0x8C379A000000000000000000000000000000000000000000000000000000000 DUP2 MSTORE PUSH1 0x4 ADD PUSH2 0x105C SWAP1 PUSH2 0x273E JUMP JUMPDEST PUSH1 0x40 MLOAD DUP1 SWAP2 SUB SWAP1 REVERT JUMPDEST PUSH2 0x1070 CALLER PUSH1 0x32 PUSH2 0x1294 JUMP JUMPDEST JUMP JUMPDEST PUSH0 CALLER SWAP1 POP SWAP1 JUMP JUMPDEST PUSH2 0x1086 DUP4 DUP4 DUP4 PUSH1 0x1 PUSH2 0x1455 JUMP JUMPDEST POP POP POP JUMP JUMPDEST PUSH0 PUSH2 0x1096 DUP5 DUP5 PUSH2 0xE02 JUMP JUMPDEST SWAP1 POP PUSH32 0xFFFFFFFFFFFFFFFFFFFFFFFFFFFFFFFFFFFFFFFFFFFFFFFFFFFFFFFFFFFFFFFF DUP2 EQ PUSH2 0x1117 JUMPI DUP2 DUP2 LT ISZERO PUSH2 0x1108 JUMPI DUP3 DUP2 DUP4 PUSH1 0x40 MLOAD PUSH32 0xFB8F41B200000000000000000000000000000000000000000000000000000000 DUP2 MSTORE PUSH1 0x4 ADD PUSH2 0x10FF SWAP4 SWAP3 SWAP2 SWAP1 PUSH2 0x275C JUMP JUMPDEST PUSH1 0x40 MLOAD DUP1 SWAP2 SUB SWAP1 REVERT JUMPDEST PUSH2 0x1116 DUP5 DUP5 DUP5 DUP5 SUB PUSH0 PUSH2 0x1455 JUMP JUMPDEST JUMPDEST POP POP POP POP JUMP JUMPDEST PUSH0 PUSH20 0xFFFFFFFFFFFFFFFFFFFFFFFFFFFFFFFFFFFFFFFF AND DUP4 PUSH20 0xFFFFFFFFFFFFFFFFFFFFFFFFFFFFFFFFFFFFFFFF AND SUB PUSH2 0x118D JUMPI PUSH0 PUSH1 0x40 MLOAD PUSH32 0x96C6FD1E00000000000000000000000000000000000000000000000000000000 DUP2 MSTORE PUSH1 0x4 ADD PUSH2 0x1184 SWAP2 SWAP1 PUSH2 0x1CC8 JUMP JUMPDEST PUSH1 0x40 MLOAD DUP1 SWAP2 SUB SWAP1 REVERT JUMPDEST PUSH0 PUSH20 0xFFFFFFFFFFFFFFFFFFFFFFFFFFFFFFFFFFFFFFFF AND DUP3 PUSH20 0xFFFFFFFFFFFFFFFFFFFFFFFFFFFFFFFFFFFFFFFF AND SUB PUSH2 0x11FD JUMPI PUSH0 PUSH1 0x40 MLOAD PUSH32 0xEC442F0500000000000000000000000000000000000000000000000000000000 DUP2 MSTORE PUSH1 0x4 ADD PUSH2 0x11F4 SWAP2 SWAP1 PUSH2 0x1CC8 JUMP JUMPDEST PUSH1 0x40 MLOAD DUP1 SWAP2 SUB SWAP1 REVERT JUMPDEST PUSH2 0x1208 DUP4 DUP4 DUP4 PUSH2 0x1624 JUMP JUMPDEST POP POP POP JUMP JUMPDEST PUSH2 0x1215 PUSH2 0x1072 JUMP JUMPDEST PUSH20 0xFFFFFFFFFFFFFFFFFFFFFFFFFFFFFFFFFFFFFFFF AND PUSH2 0x1233 PUSH2 0x8D1 JUMP JUMPDEST PUSH20 0xFFFFFFFFFFFFFFFFFFFFFFFFFFFFFFFFFFFFFFFF AND EQ PUSH2 0x1292 JUMPI PUSH2 0x1256 PUSH2 0x1072 JUMP JUMPDEST PUSH1 0x40 MLOAD PUSH32 0x118CDAA700000000000000000000000000000000000000000000000000000000 DUP2 MSTORE PUSH1 0x4 ADD PUSH2 0x1289 SWAP2 SWAP1 PUSH2 0x1CC8 JUMP JUMPDEST PUSH1 0x40 MLOAD DUP1 SWAP2 SUB SWAP1 REVERT JUMPDEST JUMP JUMPDEST PUSH0 PUSH20 0xFFFFFFFFFFFFFFFFFFFFFFFFFFFFFFFFFFFFFFFF AND DUP3 PUSH20 0xFFFFFFFFFFFFFFFFFFFFFFFFFFFFFFFFFFFFFFFF AND SUB PUSH2 0x1304 JUMPI PUSH0 PUSH1 0x40 MLOAD PUSH32 0xEC442F0500000000000000000000000000000000000000000000000000000000 DUP2 MSTORE PUSH1 0x4 ADD PUSH2 0x12FB SWAP2 SWAP1 PUSH2 0x1CC8 JUMP JUMPDEST PUSH1 0x40 MLOAD DUP1 SWAP2 SUB SWAP1 REVERT JUMPDEST PUSH2 0x130F PUSH0 DUP4 DUP4 PUSH2 0x1624 JUMP JUMPDEST POP POP JUMP JUMPDEST PUSH0 PUSH20 0xFFFFFFFFFFFFFFFFFFFFFFFFFFFFFFFFFFFFFFFF AND DUP3 PUSH20 0xFFFFFFFFFFFFFFFFFFFFFFFFFFFFFFFFFFFFFFFF AND SUB PUSH2 0x1383 JUMPI PUSH0 PUSH1 0x40 MLOAD PUSH32 0x96C6FD1E00000000000000000000000000000000000000000000000000000000 DUP2 MSTORE PUSH1 0x4 ADD PUSH2 0x137A SWAP2 SWAP1 PUSH2 0x1CC8 JUMP JUMPDEST PUSH1 0x40 MLOAD DUP1 SWAP2 SUB SWAP1 REVERT JUMPDEST PUSH2 0x138E DUP3 PUSH0 DUP4 PUSH2 0x1624 JUMP JUMPDEST POP POP JUMP JUMPDEST PUSH0 PUSH1 0x5 PUSH0 SWAP1 SLOAD SWAP1 PUSH2 0x100 EXP SWAP1 DIV PUSH20 0xFFFFFFFFFFFFFFFFFFFFFFFFFFFFFFFFFFFFFFFF AND SWAP1 POP DUP2 PUSH1 0x5 PUSH0 PUSH2 0x100 EXP DUP2 SLOAD DUP2 PUSH20 0xFFFFFFFFFFFFFFFFFFFFFFFFFFFFFFFFFFFFFFFF MUL NOT AND SWAP1 DUP4 PUSH20 0xFFFFFFFFFFFFFFFFFFFFFFFFFFFFFFFFFFFFFFFF AND MUL OR SWAP1 SSTORE POP DUP2 PUSH20 0xFFFFFFFFFFFFFFFFFFFFFFFFFFFFFFFFFFFFFFFF AND DUP2 PUSH20 0xFFFFFFFFFFFFFFFFFFFFFFFFFFFFFFFFFFFFFFFF AND PUSH32 0x8BE0079C531659141344CD1FD0A4F28419497F9722A3DAAFE3B4186F6B6457E0 PUSH1 0x40 MLOAD PUSH1 0x40 MLOAD DUP1 SWAP2 SUB SWAP1 LOG3 POP POP JUMP JUMPDEST PUSH0 PUSH20 0xFFFFFFFFFFFFFFFFFFFFFFFFFFFFFFFFFFFFFFFF AND DUP5 PUSH20 0xFFFFFFFFFFFFFFFFFFFFFFFFFFFFFFFFFFFFFFFF AND SUB PUSH2 0x14C5 JUMPI PUSH0 PUSH1 0x40 MLOAD PUSH32 0xE602DF0500000000000000000000000000000000000000000000000000000000 DUP2 MSTORE PUSH1 0x4 ADD PUSH2 0x14BC SWAP2 SWAP1 PUSH2 0x1CC8 JUMP JUMPDEST PUSH1 0x40 MLOAD DUP1 SWAP2 SUB SWAP1 REVERT JUMPDEST PUSH0 PUSH20 0xFFFFFFFFFFFFFFFFFFFFFFFFFFFFFFFFFFFFFFFF AND DUP4 PUSH20 0xFFFFFFFFFFFFFFFFFFFFFFFFFFFFFFFFFFFFFFFF AND SUB PUSH2 0x1535 JUMPI PUSH0 PUSH1 0x40 MLOAD PUSH32 0x94280D6200000000000000000000000000000000000000000000000000000000 DUP2 MSTORE PUSH1 0x4 ADD PUSH2 0x152C SWAP2 SWAP1 PUSH2 0x1CC8 JUMP JUMPDEST PUSH1 0x40 MLOAD DUP1 SWAP2 SUB SWAP1 REVERT JUMPDEST DUP2 PUSH1 0x1 PUSH0 DUP7 PUSH20 0xFFFFFFFFFFFFFFFFFFFFFFFFFFFFFFFFFFFFFFFF AND PUSH20 0xFFFFFFFFFFFFFFFFFFFFFFFFFFFFFFFFFFFFFFFF AND DUP2 MSTORE PUSH1 0x20 ADD SWAP1 DUP2 MSTORE PUSH1 0x20 ADD PUSH0 KECCAK256 PUSH0 DUP6 PUSH20 0xFFFFFFFFFFFFFFFFFFFFFFFFFFFFFFFFFFFFFFFF AND PUSH20 0xFFFFFFFFFFFFFFFFFFFFFFFFFFFFFFFFFFFFFFFF AND DUP2 MSTORE PUSH1 0x20 ADD SWAP1 DUP2 MSTORE PUSH1 0x20 ADD PUSH0 KECCAK256 DUP2 SWAP1 SSTORE POP DUP1 ISZERO PUSH2 0x161E JUMPI DUP3 PUSH20 0xFFFFFFFFFFFFFFFFFFFFFFFFFFFFFFFFFFFFFFFF AND DUP5 PUSH20 0xFFFFFFFFFFFFFFFFFFFFFFFFFFFFFFFFFFFFFFFF AND PUSH32 0x8C5BE1E5EBEC7D5BD14F71427D1E84F3DD0314C0F7B2291E5B200AC8C7C3B925 DUP5 PUSH1 0x40 MLOAD PUSH2 0x1615 SWAP2 SWAP1 PUSH2 0x19EB JUMP JUMPDEST PUSH1 0x40 MLOAD DUP1 SWAP2 SUB SWAP1 LOG3 JUMPDEST POP POP POP POP JUMP JUMPDEST PUSH0 PUSH20 0xFFFFFFFFFFFFFFFFFFFFFFFFFFFFFFFFFFFFFFFF AND DUP4 PUSH20 0xFFFFFFFFFFFFFFFFFFFFFFFFFFFFFFFFFFFFFFFF AND SUB PUSH2 0x1674 JUMPI DUP1 PUSH1 0x2 PUSH0 DUP3 DUP3 SLOAD PUSH2 0x1668 SWAP2 SWAP1 PUSH2 0x2791 JUMP JUMPDEST SWAP3 POP POP DUP2 SWAP1 SSTORE POP PUSH2 0x1742 JUMP JUMPDEST PUSH0 DUP1 PUSH0 DUP6 PUSH20 0xFFFFFFFFFFFFFFFFFFFFFFFFFFFFFFFFFFFFFFFF AND PUSH20 0xFFFFFFFFFFFFFFFFFFFFFFFFFFFFFFFFFFFFFFFF AND DUP2 MSTORE PUSH1 0x20 ADD SWAP1 DUP2 MSTORE PUSH1 0x20 ADD PUSH0 KECCAK256 SLOAD SWAP1 POP DUP2 DUP2 LT ISZERO PUSH2 0x16FD JUMPI DUP4 DUP2 DUP4 PUSH1 0x40 MLOAD PUSH32 0xE450D38C00000000000000000000000000000000000000000000000000000000 DUP2 MSTORE PUSH1 0x4 ADD PUSH2 0x16F4 SWAP4 SWAP3 SWAP2 SWAP1 PUSH2 0x275C JUMP JUMPDEST PUSH1 0x40 MLOAD DUP1 SWAP2 SUB SWAP1 REVERT JUMPDEST DUP2 DUP2 SUB PUSH0 DUP1 DUP7 PUSH20 0xFFFFFFFFFFFFFFFFFFFFFFFFFFFFFFFFFFFFFFFF AND PUSH20 0xFFFFFFFFFFFFFFFFFFFFFFFFFFFFFFFFFFFFFFFF AND DUP2 MSTORE PUSH1 0x20 ADD SWAP1 DUP2 MSTORE PUSH1 0x20 ADD PUSH0 KECCAK256 DUP2 SWAP1 SSTORE POP POP JUMPDEST PUSH0 PUSH20 0xFFFFFFFFFFFFFFFFFFFFFFFFFFFFFFFFFFFFFFFF AND DUP3 PUSH20 0xFFFFFFFFFFFFFFFFFFFFFFFFFFFFFFFFFFFFFFFF AND SUB PUSH2 0x1789 JUMPI DUP1 PUSH1 0x2 PUSH0 DUP3 DUP3 SLOAD SUB SWAP3 POP POP DUP2 SWAP1 SSTORE POP PUSH2 0x17D3 JUMP JUMPDEST DUP1 PUSH0 DUP1 DUP5 PUSH20 0xFFFFFFFFFFFFFFFFFFFFFFFFFFFFFFFFFFFFFFFF AND PUSH20 0xFFFFFFFFFFFFFFFFFFFFFFFFFFFFFFFFFFFFFFFF AND DUP2 MSTORE PUSH1 0x20 ADD SWAP1 DUP2 MSTORE PUSH1 0x20 ADD PUSH0 KECCAK256 PUSH0 DUP3 DUP3 SLOAD ADD SWAP3 POP POP DUP2 SWAP1 SSTORE POP JUMPDEST DUP2 PUSH20 0xFFFFFFFFFFFFFFFFFFFFFFFFFFFFFFFFFFFFFFFF AND DUP4 PUSH20 0xFFFFFFFFFFFFFFFFFFFFFFFFFFFFFFFFFFFFFFFF AND PUSH32 0xDDF252AD1BE2C89B69C2B068FC378DAA952BA7F163C4A11628F55A4DF523B3EF DUP4 PUSH1 0x40 MLOAD PUSH2 0x1830 SWAP2 SWAP1 PUSH2 0x19EB JUMP JUMPDEST PUSH1 0x40 MLOAD DUP1 SWAP2 SUB SWAP1 LOG3 POP POP POP JUMP JUMPDEST PUSH0 DUP2 MLOAD SWAP1 POP SWAP2 SWAP1 POP JUMP JUMPDEST PUSH0 DUP3 DUP3 MSTORE PUSH1 0x20 DUP3 ADD SWAP1 POP SWAP3 SWAP2 POP POP JUMP JUMPDEST DUP3 DUP2 DUP4 MCOPY PUSH0 DUP4 DUP4 ADD MSTORE POP POP POP JUMP JUMPDEST PUSH0 PUSH1 0x1F NOT PUSH1 0x1F DUP4 ADD AND SWAP1 POP SWAP2 SWAP1 POP JUMP JUMPDEST PUSH0 PUSH2 0x187F DUP3 PUSH2 0x183D JUMP JUMPDEST PUSH2 0x1889 DUP2 DUP6 PUSH2 0x1847 JUMP JUMPDEST SWAP4 POP PUSH2 0x1899 DUP2 DUP6 PUSH1 0x20 DUP7 ADD PUSH2 0x1857 JUMP JUMPDEST PUSH2 0x18A2 DUP2 PUSH2 0x1865 JUMP JUMPDEST DUP5 ADD SWAP2 POP POP SWAP3 SWAP2 POP POP JUMP JUMPDEST PUSH0 PUSH1 0x20 DUP3 ADD SWAP1 POP DUP2 DUP2 SUB PUSH0 DUP4 ADD MSTORE PUSH2 0x18C5 DUP2 DUP5 PUSH2 0x1875 JUMP JUMPDEST SWAP1 POP SWAP3 SWAP2 POP POP JUMP JUMPDEST PUSH0 PUSH1 0x40 MLOAD SWAP1 POP SWAP1 JUMP JUMPDEST PUSH0 DUP1 REVERT JUMPDEST PUSH0 DUP1 REVERT JUMPDEST PUSH0 PUSH20 0xFFFFFFFFFFFFFFFFFFFFFFFFFFFFFFFFFFFFFFFF DUP3 AND SWAP1 POP SWAP2 SWAP1 POP JUMP JUMPDEST PUSH0 PUSH2 0x1907 DUP3 PUSH2 0x18DE JUMP JUMPDEST SWAP1 POP SWAP2 SWAP1 POP JUMP JUMPDEST PUSH2 0x1917 DUP2 PUSH2 0x18FD JUMP JUMPDEST DUP2 EQ PUSH2 0x1921 JUMPI PUSH0 DUP1 REVERT JUMPDEST POP JUMP JUMPDEST PUSH0 DUP2 CALLDATALOAD SWAP1 POP PUSH2 0x1932 DUP2 PUSH2 0x190E JUMP JUMPDEST SWAP3 SWAP2 POP POP JUMP JUMPDEST PUSH0 DUP2 SWAP1 POP SWAP2 SWAP1 POP JUMP JUMPDEST PUSH2 0x194A DUP2 PUSH2 0x1938 JUMP JUMPDEST DUP2 EQ PUSH2 0x1954 JUMPI PUSH0 DUP1 REVERT JUMPDEST POP JUMP JUMPDEST PUSH0 DUP2 CALLDATALOAD SWAP1 POP PUSH2 0x1965 DUP2 PUSH2 0x1941 JUMP JUMPDEST SWAP3 SWAP2 POP POP JUMP JUMPDEST PUSH0 DUP1 PUSH1 0x40 DUP4 DUP6 SUB SLT ISZERO PUSH2 0x1981 JUMPI PUSH2 0x1980 PUSH2 0x18D6 JUMP JUMPDEST JUMPDEST PUSH0 PUSH2 0x198E DUP6 DUP3 DUP7 ADD PUSH2 0x1924 JUMP JUMPDEST SWAP3 POP POP PUSH1 0x20 PUSH2 0x199F DUP6 DUP3 DUP7 ADD PUSH2 0x1957 JUMP JUMPDEST SWAP2 POP POP SWAP3 POP SWAP3 SWAP1 POP JUMP JUMPDEST PUSH0 DUP2 ISZERO ISZERO SWAP1 POP SWAP2 SWAP1 POP JUMP JUMPDEST PUSH2 0x19BD DUP2 PUSH2 0x19A9 JUMP JUMPDEST DUP3 MSTORE POP POP JUMP JUMPDEST PUSH0 PUSH1 0x20 DUP3 ADD SWAP1 POP PUSH2 0x19D6 PUSH0 DUP4 ADD DUP5 PUSH2 0x19B4 JUMP JUMPDEST SWAP3 SWAP2 POP POP JUMP JUMPDEST PUSH2 0x19E5 DUP2 PUSH2 0x1938 JUMP JUMPDEST DUP3 MSTORE POP POP JUMP JUMPDEST PUSH0 PUSH1 0x20 DUP3 ADD SWAP1 POP PUSH2 0x19FE PUSH0 DUP4 ADD DUP5 PUSH2 0x19DC JUMP JUMPDEST SWAP3 SWAP2 POP POP JUMP JUMPDEST PUSH0 PUSH1 0xFF DUP3 AND SWAP1 POP SWAP2 SWAP1 POP JUMP JUMPDEST PUSH2 0x1A19 DUP2 PUSH2 0x1A04 JUMP JUMPDEST DUP3 MSTORE POP POP JUMP JUMPDEST PUSH0 PUSH1 0x20 DUP3 ADD SWAP1 POP PUSH2 0x1A32 PUSH0 DUP4 ADD DUP5 PUSH2 0x1A10 JUMP JUMPDEST SWAP3 SWAP2 POP POP JUMP JUMPDEST PUSH0 DUP1 PUSH0 PUSH1 0x60 DUP5 DUP7 SUB SLT ISZERO PUSH2 0x1A4F JUMPI PUSH2 0x1A4E PUSH2 0x18D6 JUMP JUMPDEST JUMPDEST PUSH0 PUSH2 0x1A5C DUP7 DUP3 DUP8 ADD PUSH2 0x1924 JUMP JUMPDEST SWAP4 POP POP PUSH1 0x20 PUSH2 0x1A6D DUP7 DUP3 DUP8 ADD PUSH2 0x1924 JUMP JUMPDEST SWAP3 POP POP PUSH1 0x40 PUSH2 0x1A7E DUP7 DUP3 DUP8 ADD PUSH2 0x1957 JUMP JUMPDEST SWAP2 POP POP SWAP3 POP SWAP3 POP SWAP3 JUMP JUMPDEST PUSH2 0x1A91 DUP2 PUSH2 0x1A04 JUMP JUMPDEST DUP2 EQ PUSH2 0x1A9B JUMPI PUSH0 DUP1 REVERT JUMPDEST POP JUMP JUMPDEST PUSH0 DUP2 CALLDATALOAD SWAP1 POP PUSH2 0x1AAC DUP2 PUSH2 0x1A88 JUMP JUMPDEST SWAP3 SWAP2 POP POP JUMP JUMPDEST PUSH0 PUSH1 0x20 DUP3 DUP5 SUB SLT ISZERO PUSH2 0x1AC7 JUMPI PUSH2 0x1AC6 PUSH2 0x18D6 JUMP JUMPDEST JUMPDEST PUSH0 PUSH2 0x1AD4 DUP5 DUP3 DUP6 ADD PUSH2 0x1A9E JUMP JUMPDEST SWAP2 POP POP SWAP3 SWAP2 POP POP JUMP JUMPDEST PUSH0 PUSH1 0x20 DUP3 DUP5 SUB SLT ISZERO PUSH2 0x1AF2 JUMPI PUSH2 0x1AF1 PUSH2 0x18D6 JUMP JUMPDEST JUMPDEST PUSH0 PUSH2 0x1AFF DUP5 DUP3 DUP6 ADD PUSH2 0x1957 JUMP JUMPDEST SWAP2 POP POP SWAP3 SWAP2 POP POP JUMP JUMPDEST PUSH0 DUP1 REVERT JUMPDEST PUSH0 DUP1 REVERT JUMPDEST PUSH32 0x4E487B7100000000000000000000000000000000000000000000000000000000 PUSH0 MSTORE PUSH1 0x41 PUSH1 0x4 MSTORE PUSH1 0x24 PUSH0 REVERT JUMPDEST PUSH2 0x1B46 DUP3 PUSH2 0x1865 JUMP JUMPDEST DUP2 ADD DUP2 DUP2 LT PUSH8 0xFFFFFFFFFFFFFFFF DUP3 GT OR ISZERO PUSH2 0x1B65 JUMPI PUSH2 0x1B64 PUSH2 0x1B10 JUMP JUMPDEST JUMPDEST DUP1 PUSH1 0x40 MSTORE POP POP POP JUMP JUMPDEST PUSH0 PUSH2 0x1B77 PUSH2 0x18CD JUMP JUMPDEST SWAP1 POP PUSH2 0x1B83 DUP3 DUP3 PUSH2 0x1B3D JUMP JUMPDEST SWAP2 SWAP1 POP JUMP JUMPDEST PUSH0 PUSH8 0xFFFFFFFFFFFFFFFF DUP3 GT ISZERO PUSH2 0x1BA2 JUMPI PUSH2 0x1BA1 PUSH2 0x1B10 JUMP JUMPDEST JUMPDEST PUSH2 0x1BAB DUP3 PUSH2 0x1865 JUMP JUMPDEST SWAP1 POP PUSH1 0x20 DUP2 ADD SWAP1 POP SWAP2 SWAP1 POP JUMP JUMPDEST DUP3 DUP2 DUP4 CALLDATACOPY PUSH0 DUP4 DUP4 ADD MSTORE POP POP POP JUMP JUMPDEST PUSH0 PUSH2 0x1BD8 PUSH2 0x1BD3 DUP5 PUSH2 0x1B88 JUMP JUMPDEST PUSH2 0x1B6E JUMP JUMPDEST SWAP1 POP DUP3 DUP2 MSTORE PUSH1 0x20 DUP2 ADD DUP5 DUP5 DUP5 ADD GT ISZERO PUSH2 0x1BF4 JUMPI PUSH2 0x1BF3 PUSH2 0x1B0C JUMP JUMPDEST JUMPDEST PUSH2 0x1BFF DUP5 DUP3 DUP6 PUSH2 0x1BB8 JUMP JUMPDEST POP SWAP4 SWAP3 POP POP POP JUMP JUMPDEST PUSH0 DUP3 PUSH1 0x1F DUP4 ADD SLT PUSH2 0x1C1B JUMPI PUSH2 0x1C1A PUSH2 0x1B08 JUMP JUMPDEST JUMPDEST DUP2 CALLDATALOAD PUSH2 0x1C2B DUP5 DUP3 PUSH1 0x20 DUP7 ADD PUSH2 0x1BC6 JUMP JUMPDEST SWAP2 POP POP SWAP3 SWAP2 POP POP JUMP JUMPDEST PUSH0 DUP1 PUSH1 0x40 DUP4 DUP6 SUB SLT ISZERO PUSH2 0x1C4A JUMPI PUSH2 0x1C49 PUSH2 0x18D6 JUMP JUMPDEST JUMPDEST PUSH0 DUP4 ADD CALLDATALOAD PUSH8 0xFFFFFFFFFFFFFFFF DUP2 GT ISZERO PUSH2 0x1C67 JUMPI PUSH2 0x1C66 PUSH2 0x18DA JUMP JUMPDEST JUMPDEST PUSH2 0x1C73 DUP6 DUP3 DUP7 ADD PUSH2 0x1C07 JUMP JUMPDEST SWAP3 POP POP PUSH1 0x20 PUSH2 0x1C84 DUP6 DUP3 DUP7 ADD PUSH2 0x1957 JUMP JUMPDEST SWAP2 POP POP SWAP3 POP SWAP3 SWAP1 POP JUMP JUMPDEST PUSH0 PUSH1 0x20 DUP3 DUP5 SUB SLT ISZERO PUSH2 0x1CA3 JUMPI PUSH2 0x1CA2 PUSH2 0x18D6 JUMP JUMPDEST JUMPDEST PUSH0 PUSH2 0x1CB0 DUP5 DUP3 DUP6 ADD PUSH2 0x1924 JUMP JUMPDEST SWAP2 POP POP SWAP3 SWAP2 POP POP JUMP JUMPDEST PUSH2 0x1CC2 DUP2 PUSH2 0x18FD JUMP JUMPDEST DUP3 MSTORE POP POP JUMP JUMPDEST PUSH0 PUSH1 0x20 DUP3 ADD SWAP1 POP PUSH2 0x1CDB PUSH0 DUP4 ADD DUP5 PUSH2 0x1CB9 JUMP JUMPDEST SWAP3 SWAP2 POP POP JUMP JUMPDEST PUSH0 DUP2 MLOAD SWAP1 POP SWAP2 SWAP1 POP JUMP JUMPDEST PUSH0 DUP3 DUP3 MSTORE PUSH1 0x20 DUP3 ADD SWAP1 POP SWAP3 SWAP2 POP POP JUMP JUMPDEST PUSH0 DUP2 SWAP1 POP PUSH1 0x20 DUP3 ADD SWAP1 POP SWAP2 SWAP1 POP JUMP JUMPDEST PUSH2 0x1D13 DUP2 PUSH2 0x1A04 JUMP JUMPDEST DUP3 MSTORE POP POP JUMP JUMPDEST PUSH0 PUSH2 0x1D24 DUP4 DUP4 PUSH2 0x1D0A JUMP JUMPDEST PUSH1 0x20 DUP4 ADD SWAP1 POP SWAP3 SWAP2 POP POP JUMP JUMPDEST PUSH0 PUSH1 0x20 DUP3 ADD SWAP1 POP SWAP2 SWAP1 POP JUMP JUMPDEST PUSH0 PUSH2 0x1D46 DUP3 PUSH2 0x1CE1 JUMP JUMPDEST PUSH2 0x1D50 DUP2 DUP6 PUSH2 0x1CEB JUMP JUMPDEST SWAP4 POP PUSH2 0x1D5B DUP4 PUSH2 0x1CFB JUMP JUMPDEST DUP1 PUSH0 JUMPDEST DUP4 DUP2 LT ISZERO PUSH2 0x1D8B JUMPI DUP2 MLOAD PUSH2 0x1D72 DUP9 DUP3 PUSH2 0x1D19 JUMP JUMPDEST SWAP8 POP PUSH2 0x1D7D DUP4 PUSH2 0x1D30 JUMP JUMPDEST SWAP3 POP POP PUSH1 0x1 DUP2 ADD SWAP1 POP PUSH2 0x1D5E JUMP JUMPDEST POP DUP6 SWAP4 POP POP POP POP SWAP3 SWAP2 POP POP JUMP JUMPDEST PUSH0 PUSH1 0x20 DUP3 ADD SWAP1 POP DUP2 DUP2 SUB PUSH0 DUP4 ADD MSTORE PUSH2 0x1DB0 DUP2 DUP5 PUSH2 0x1D3C JUMP JUMPDEST SWAP1 POP SWAP3 SWAP2 POP POP JUMP JUMPDEST PUSH0 DUP1 PUSH1 0x40 DUP4 DUP6 SUB SLT ISZERO PUSH2 0x1DCE JUMPI PUSH2 0x1DCD PUSH2 0x18D6 JUMP JUMPDEST JUMPDEST PUSH0 PUSH2 0x1DDB DUP6 DUP3 DUP7 ADD PUSH2 0x1924 JUMP JUMPDEST SWAP3 POP POP PUSH1 0x20 PUSH2 0x1DEC DUP6 DUP3 DUP7 ADD PUSH2 0x1924 JUMP JUMPDEST SWAP2 POP POP SWAP3 POP SWAP3 SWAP1 POP JUMP JUMPDEST PUSH2 0x1DFF DUP2 PUSH2 0x19A9 JUMP JUMPDEST DUP2 EQ PUSH2 0x1E09 JUMPI PUSH0 DUP1 REVERT JUMPDEST POP JUMP JUMPDEST PUSH0 DUP2 CALLDATALOAD SWAP1 POP PUSH2 0x1E1A DUP2 PUSH2 0x1DF6 JUMP JUMPDEST SWAP3 SWAP2 POP POP JUMP JUMPDEST PUSH0 DUP1 PUSH1 0x40 DUP4 DUP6 SUB SLT ISZERO PUSH2 0x1E36 JUMPI PUSH2 0x1E35 PUSH2 0x18D6 JUMP JUMPDEST JUMPDEST PUSH0 PUSH2 0x1E43 DUP6 DUP3 DUP7 ADD PUSH2 0x1E0C JUMP JUMPDEST SWAP3 POP POP PUSH1 0x20 PUSH2 0x1E54 DUP6 DUP3 DUP7 ADD PUSH2 0x1957 JUMP JUMPDEST SWAP2 POP POP SWAP3 POP SWAP3 SWAP1 POP JUMP JUMPDEST PUSH32 0x4E487B7100000000000000000000000000000000000000000000000000000000 PUSH0 MSTORE PUSH1 0x22 PUSH1 0x4 MSTORE PUSH1 0x24 PUSH0 REVERT JUMPDEST PUSH0 PUSH1 0x2 DUP3 DIV SWAP1 POP PUSH1 0x1 DUP3 AND DUP1 PUSH2 0x1EA2 JUMPI PUSH1 0x7F DUP3 AND SWAP2 POP JUMPDEST PUSH1 0x20 DUP3 LT DUP2 SUB PUSH2 0x1EB5 JUMPI PUSH2 0x1EB4 PUSH2 0x1E5E JUMP JUMPDEST JUMPDEST POP SWAP2 SWAP1 POP JUMP JUMPDEST PUSH32 0x496E73756666696369656E742062616C616E6365000000000000000000000000 PUSH0 DUP3 ADD MSTORE POP JUMP JUMPDEST PUSH0 PUSH2 0x1EEF PUSH1 0x14 DUP4 PUSH2 0x1847 JUMP JUMPDEST SWAP2 POP PUSH2 0x1EFA DUP3 PUSH2 0x1EBB JUMP JUMPDEST PUSH1 0x20 DUP3 ADD SWAP1 POP SWAP2 SWAP1 POP JUMP JUMPDEST PUSH0 PUSH1 0x20 DUP3 ADD SWAP1 POP DUP2 DUP2 SUB PUSH0 DUP4 ADD MSTORE PUSH2 0x1F1C DUP2 PUSH2 0x1EE3 JUMP JUMPDEST SWAP1 POP SWAP2 SWAP1 POP JUMP JUMPDEST PUSH0 DUP2 SWAP1 POP DUP2 PUSH0 MSTORE PUSH1 0x20 PUSH0 KECCAK256 SWAP1 POP SWAP2 SWAP1 POP JUMP JUMPDEST PUSH0 PUSH1 0x20 PUSH1 0x1F DUP4 ADD DIV SWAP1 POP SWAP2 SWAP1 POP JUMP JUMPDEST PUSH0 DUP3 DUP3 SHL SWAP1 POP SWAP3 SWAP2 POP POP JUMP JUMPDEST PUSH0 PUSH1 0x8 DUP4 MUL PUSH2 0x1F7F PUSH32 0xFFFFFFFFFFFFFFFFFFFFFFFFFFFFFFFFFFFFFFFFFFFFFFFFFFFFFFFFFFFFFFFF DUP3 PUSH2 0x1F44 JUMP JUMPDEST PUSH2 0x1F89 DUP7 DUP4 PUSH2 0x1F44 JUMP JUMPDEST SWAP6 POP DUP1 NOT DUP5 AND SWAP4 POP DUP1 DUP7 AND DUP5 OR SWAP3 POP POP POP SWAP4 SWAP3 POP POP POP JUMP JUMPDEST PUSH0 DUP2 SWAP1 POP SWAP2 SWAP1 POP JUMP JUMPDEST PUSH0 PUSH2 0x1FC4 PUSH2 0x1FBF PUSH2 0x1FBA DUP5 PUSH2 0x1938 JUMP JUMPDEST PUSH2 0x1FA1 JUMP JUMPDEST PUSH2 0x1938 JUMP JUMPDEST SWAP1 POP SWAP2 SWAP1 POP JUMP JUMPDEST PUSH0 DUP2 SWAP1 POP SWAP2 SWAP1 POP JUMP JUMPDEST PUSH2 0x1FDD DUP4 PUSH2 0x1FAA JUMP JUMPDEST PUSH2 0x1FF1 PUSH2 0x1FE9 DUP3 PUSH2 0x1FCB JUMP JUMPDEST DUP5 DUP5 SLOAD PUSH2 0x1F50 JUMP JUMPDEST DUP3 SSTORE POP POP POP POP JUMP JUMPDEST PUSH0 SWAP1 JUMP JUMPDEST PUSH2 0x2005 PUSH2 0x1FF9 JUMP JUMPDEST PUSH2 0x2010 DUP2 DUP5 DUP5 PUSH2 0x1FD4 JUMP JUMPDEST POP POP POP JUMP JUMPDEST JUMPDEST DUP2 DUP2 LT ISZERO PUSH2 0x2033 JUMPI PUSH2 0x2028 PUSH0 DUP3 PUSH2 0x1FFD JUMP JUMPDEST PUSH1 0x1 DUP2 ADD SWAP1 POP PUSH2 0x2016 JUMP JUMPDEST POP POP JUMP JUMPDEST PUSH1 0x1F DUP3 GT ISZERO PUSH2 0x2078 JUMPI PUSH2 0x2049 DUP2 PUSH2 0x1F23 JUMP JUMPDEST PUSH2 0x2052 DUP5 PUSH2 0x1F35 JUMP JUMPDEST DUP2 ADD PUSH1 0x20 DUP6 LT ISZERO PUSH2 0x2061 JUMPI DUP2 SWAP1 POP JUMPDEST PUSH2 0x2075 PUSH2 0x206D DUP6 PUSH2 0x1F35 JUMP JUMPDEST DUP4 ADD DUP3 PUSH2 0x2015 JUMP JUMPDEST POP POP JUMPDEST POP POP POP JUMP JUMPDEST PUSH0 DUP3 DUP3 SHR SWAP1 POP SWAP3 SWAP2 POP POP JUMP JUMPDEST PUSH0 PUSH2 0x2098 PUSH0 NOT DUP5 PUSH1 0x8 MUL PUSH2 0x207D JUMP JUMPDEST NOT DUP1 DUP4 AND SWAP2 POP POP SWAP3 SWAP2 POP POP JUMP JUMPDEST PUSH0 PUSH2 0x20B0 DUP4 DUP4 PUSH2 0x2089 JUMP JUMPDEST SWAP2 POP DUP3 PUSH1 0x2 MUL DUP3 OR SWAP1 POP SWAP3 SWAP2 POP POP JUMP JUMPDEST PUSH2 0x20C9 DUP3 PUSH2 0x183D JUMP JUMPDEST PUSH8 0xFFFFFFFFFFFFFFFF DUP2 GT ISZERO PUSH2 0x20E2 JUMPI PUSH2 0x20E1 PUSH2 0x1B10 JUMP JUMPDEST JUMPDEST PUSH2 0x20EC DUP3 SLOAD PUSH2 0x1E8B JUMP JUMPDEST PUSH2 0x20F7 DUP3 DUP3 DUP6 PUSH2 0x2037 JUMP JUMPDEST PUSH0 PUSH1 0x20 SWAP1 POP PUSH1 0x1F DUP4 GT PUSH1 0x1 DUP2 EQ PUSH2 0x2128 JUMPI PUSH0 DUP5 ISZERO PUSH2 0x2116 JUMPI DUP3 DUP8 ADD MLOAD SWAP1 POP JUMPDEST PUSH2 0x2120 DUP6 DUP3 PUSH2 0x20A5 JUMP JUMPDEST DUP7 SSTORE POP PUSH2 0x2187 JUMP JUMPDEST PUSH1 0x1F NOT DUP5 AND PUSH2 0x2136 DUP7 PUSH2 0x1F23 JUMP JUMPDEST PUSH0 JUMPDEST DUP3 DUP2 LT ISZERO PUSH2 0x215D JUMPI DUP5 DUP10 ADD MLOAD DUP3 SSTORE PUSH1 0x1 DUP3 ADD SWAP2 POP PUSH1 0x20 DUP6 ADD SWAP5 POP PUSH1 0x20 DUP2 ADD SWAP1 POP PUSH2 0x2138 JUMP JUMPDEST DUP7 DUP4 LT ISZERO PUSH2 0x217A JUMPI DUP5 DUP10 ADD MLOAD PUSH2 0x2176 PUSH1 0x1F DUP10 AND DUP3 PUSH2 0x2089 JUMP JUMPDEST DUP4 SSTORE POP JUMPDEST PUSH1 0x1 PUSH1 0x2 DUP9 MUL ADD DUP9 SSTORE POP POP POP JUMPDEST POP POP POP POP POP POP JUMP JUMPDEST PUSH32 0x4E487B7100000000000000000000000000000000000000000000000000000000 PUSH0 MSTORE PUSH1 0x11 PUSH1 0x4 MSTORE PUSH1 0x24 PUSH0 REVERT JUMPDEST PUSH0 PUSH2 0x21C6 DUP3 PUSH2 0x1A04 JUMP JUMPDEST SWAP2 POP PUSH1 0xFF DUP3 SUB PUSH2 0x21D9 JUMPI PUSH2 0x21D8 PUSH2 0x218F JUMP JUMPDEST JUMPDEST PUSH1 0x1 DUP3 ADD SWAP1 POP SWAP2 SWAP1 POP JUMP JUMPDEST PUSH32 0x496E73756666696369656E7420616D6F756E7400000000000000000000000000 PUSH0 DUP3 ADD MSTORE POP JUMP JUMPDEST PUSH0 PUSH2 0x2218 PUSH1 0x13 DUP4 PUSH2 0x1847 JUMP JUMPDEST SWAP2 POP PUSH2 0x2223 DUP3 PUSH2 0x21E4 JUMP JUMPDEST PUSH1 0x20 DUP3 ADD SWAP1 POP SWAP2 SWAP1 POP JUMP JUMPDEST PUSH0 PUSH1 0x20 DUP3 ADD SWAP1 POP DUP2 DUP2 SUB PUSH0 DUP4 ADD MSTORE PUSH2 0x2245 DUP2 PUSH2 0x220C JUMP JUMPDEST SWAP1 POP SWAP2 SWAP1 POP JUMP JUMPDEST PUSH32 0x4974656D206E6F7420666F756E64000000000000000000000000000000000000 PUSH0 DUP3 ADD MSTORE POP JUMP JUMPDEST PUSH0 PUSH2 0x2280 PUSH1 0xE DUP4 PUSH2 0x1847 JUMP JUMPDEST SWAP2 POP PUSH2 0x228B DUP3 PUSH2 0x224C JUMP JUMPDEST PUSH1 0x20 DUP3 ADD SWAP1 POP SWAP2 SWAP1 POP JUMP JUMPDEST PUSH0 PUSH1 0x20 DUP3 ADD SWAP1 POP DUP2 DUP2 SUB PUSH0 DUP4 ADD MSTORE PUSH2 0x22AD DUP2 PUSH2 0x2274 JUMP JUMPDEST SWAP1 POP SWAP2 SWAP1 POP JUMP JUMPDEST PUSH0 DUP2 SLOAD SWAP1 POP PUSH2 0x22C2 DUP2 PUSH2 0x1E8B JUMP JUMPDEST SWAP1 POP SWAP2 SWAP1 POP JUMP JUMPDEST DUP2 DUP2 SUB PUSH2 0x22D7 JUMPI POP POP PUSH2 0x23AC JUMP JUMPDEST PUSH2 0x22E0 DUP3 PUSH2 0x22B4 JUMP JUMPDEST PUSH8 0xFFFFFFFFFFFFFFFF DUP2 GT ISZERO PUSH2 0x22F9 JUMPI PUSH2 0x22F8 PUSH2 0x1B10 JUMP JUMPDEST JUMPDEST PUSH2 0x2303 DUP3 SLOAD PUSH2 0x1E8B JUMP JUMPDEST PUSH2 0x230E DUP3 DUP3 DUP6 PUSH2 0x2037 JUMP JUMPDEST PUSH0 PUSH1 0x1F DUP4 GT PUSH1 0x1 DUP2 EQ PUSH2 0x233B JUMPI PUSH0 DUP5 ISZERO PUSH2 0x2329 JUMPI DUP3 DUP8 ADD SLOAD SWAP1 POP JUMPDEST PUSH2 0x2333 DUP6 DUP3 PUSH2 0x20A5 JUMP JUMPDEST DUP7 SSTORE POP PUSH2 0x23A5 JUMP JUMPDEST PUSH1 0x1F NOT DUP5 AND PUSH2 0x2349 DUP8 PUSH2 0x1F23 JUMP JUMPDEST SWAP7 POP PUSH2 0x2354 DUP7 PUSH2 0x1F23 JUMP JUMPDEST PUSH0 JUMPDEST DUP3 DUP2 LT ISZERO PUSH2 0x237B JUMPI DUP5 DUP10 ADD SLOAD DUP3 SSTORE PUSH1 0x1 DUP3 ADD SWAP2 POP PUSH1 0x1 DUP6 ADD SWAP5 POP PUSH1 0x20 DUP2 ADD SWAP1 POP PUSH2 0x2356 JUMP JUMPDEST DUP7 DUP4 LT ISZERO PUSH2 0x2398 JUMPI DUP5 DUP10 ADD SLOAD PUSH2 0x2394 PUSH1 0x1F DUP10 AND DUP3 PUSH2 0x2089 JUMP JUMPDEST DUP4 SSTORE POP JUMPDEST PUSH1 0x1 PUSH1 0x2 DUP9 MUL ADD DUP9 SSTORE POP POP POP JUMPDEST POP POP POP POP POP POP JUMPDEST JUMP JUMPDEST PUSH0 DUP2 SLOAD PUSH2 0x23BA DUP2 PUSH2 0x1E8B JUMP JUMPDEST PUSH2 0x23C4 DUP2 DUP7 PUSH2 0x1847 JUMP JUMPDEST SWAP5 POP PUSH1 0x1 DUP3 AND PUSH0 DUP2 EQ PUSH2 0x23DE JUMPI PUSH1 0x1 DUP2 EQ PUSH2 0x23F4 JUMPI PUSH2 0x2426 JUMP JUMPDEST PUSH1 0xFF NOT DUP4 AND DUP7 MSTORE DUP2 ISZERO ISZERO PUSH1 0x20 MUL DUP7 ADD SWAP4 POP PUSH2 0x2426 JUMP JUMPDEST PUSH2 0x23FD DUP6 PUSH2 0x1F23 JUMP JUMPDEST PUSH0 JUMPDEST DUP4 DUP2 LT ISZERO PUSH2 0x241E JUMPI DUP2 SLOAD DUP2 DUP10 ADD MSTORE PUSH1 0x1 DUP3 ADD SWAP2 POP PUSH1 0x20 DUP2 ADD SWAP1 POP PUSH2 0x23FF JUMP JUMPDEST DUP1 DUP9 ADD SWAP6 POP POP POP JUMPDEST POP POP POP SWAP3 SWAP2 POP POP JUMP JUMPDEST PUSH0 PUSH1 0x60 DUP3 ADD SWAP1 POP PUSH2 0x2442 PUSH0 DUP4 ADD DUP7 PUSH2 0x1A10 JUMP JUMPDEST DUP2 DUP2 SUB PUSH1 0x20 DUP4 ADD MSTORE PUSH2 0x2454 DUP2 DUP6 PUSH2 0x23AE JUMP JUMPDEST SWAP1 POP PUSH2 0x2463 PUSH1 0x40 DUP4 ADD DUP5 PUSH2 0x19DC JUMP JUMPDEST SWAP5 SWAP4 POP POP POP POP JUMP JUMPDEST PUSH32 0x4E487B7100000000000000000000000000000000000000000000000000000000 PUSH0 MSTORE PUSH1 0x32 PUSH1 0x4 MSTORE PUSH1 0x24 PUSH0 REVERT JUMPDEST PUSH0 DUP2 SWAP1 POP SWAP2 SWAP1 POP JUMP JUMPDEST PUSH2 0x24B2 PUSH2 0x24AD DUP3 PUSH2 0x1938 JUMP JUMPDEST PUSH2 0x2498 JUMP JUMPDEST DUP3 MSTORE POP POP JUMP JUMPDEST PUSH0 DUP2 PUSH1 0x60 SHL SWAP1 POP SWAP2 SWAP1 POP JUMP JUMPDEST PUSH0 PUSH2 0x24CE DUP3 PUSH2 0x24B8 JUMP JUMPDEST SWAP1 POP SWAP2 SWAP1 POP JUMP JUMPDEST PUSH0 PUSH2 0x24DF DUP3 PUSH2 0x24C4 JUMP JUMPDEST SWAP1 POP SWAP2 SWAP1 POP JUMP JUMPDEST PUSH2 0x24F7 PUSH2 0x24F2 DUP3 PUSH2 0x18FD JUMP JUMPDEST PUSH2 0x24D5 JUMP JUMPDEST DUP3 MSTORE POP POP JUMP JUMPDEST PUSH0 PUSH2 0x2508 DUP3 DUP6 PUSH2 0x24A1 JUMP JUMPDEST PUSH1 0x20 DUP3 ADD SWAP2 POP PUSH2 0x2518 DUP3 DUP5 PUSH2 0x24E6 JUMP JUMPDEST PUSH1 0x14 DUP3 ADD SWAP2 POP DUP2 SWAP1 POP SWAP4 SWAP3 POP POP POP JUMP JUMPDEST PUSH32 0x4E487B7100000000000000000000000000000000000000000000000000000000 PUSH0 MSTORE PUSH1 0x12 PUSH1 0x4 MSTORE PUSH1 0x24 PUSH0 REVERT JUMPDEST PUSH0 PUSH2 0x255F DUP3 PUSH2 0x1938 JUMP JUMPDEST SWAP2 POP PUSH2 0x256A DUP4 PUSH2 0x1938 JUMP JUMPDEST SWAP3 POP DUP3 PUSH2 0x257A JUMPI PUSH2 0x2579 PUSH2 0x2528 JUMP JUMPDEST JUMPDEST DUP3 DUP3 MOD SWAP1 POP SWAP3 SWAP2 POP POP JUMP JUMPDEST PUSH0 PUSH2 0x258F DUP3 PUSH2 0x1938 JUMP JUMPDEST SWAP2 POP PUSH2 0x259A DUP4 PUSH2 0x1938 JUMP JUMPDEST SWAP3 POP DUP3 DUP3 MUL PUSH2 0x25A8 DUP2 PUSH2 0x1938 JUMP JUMPDEST SWAP2 POP DUP3 DUP3 DIV DUP5 EQ DUP4 ISZERO OR PUSH2 0x25BF JUMPI PUSH2 0x25BE PUSH2 0x218F JUMP JUMPDEST JUMPDEST POP SWAP3 SWAP2 POP POP JUMP JUMPDEST PUSH32 0x776F6E0000000000000000000000000000000000000000000000000000000000 PUSH0 DUP3 ADD MSTORE POP JUMP JUMPDEST PUSH0 PUSH2 0x25FA PUSH1 0x3 DUP4 PUSH2 0x1847 JUMP JUMPDEST SWAP2 POP PUSH2 0x2605 DUP3 PUSH2 0x25C6 JUMP JUMPDEST PUSH1 0x20 DUP3 ADD SWAP1 POP SWAP2 SWAP1 POP JUMP JUMPDEST PUSH0 PUSH1 0x60 DUP3 ADD SWAP1 POP PUSH2 0x2623 PUSH0 DUP4 ADD DUP6 PUSH2 0x19DC JUMP JUMPDEST PUSH2 0x2630 PUSH1 0x20 DUP4 ADD DUP5 PUSH2 0x19B4 JUMP JUMPDEST DUP2 DUP2 SUB PUSH1 0x40 DUP4 ADD MSTORE PUSH2 0x2641 DUP2 PUSH2 0x25EE JUMP JUMPDEST SWAP1 POP SWAP4 SWAP3 POP POP POP JUMP JUMPDEST PUSH32 0x6C6F737400000000000000000000000000000000000000000000000000000000 PUSH0 DUP3 ADD MSTORE POP JUMP JUMPDEST PUSH0 PUSH2 0x267E PUSH1 0x4 DUP4 PUSH2 0x1847 JUMP JUMPDEST SWAP2 POP PUSH2 0x2689 DUP3 PUSH2 0x264A JUMP JUMPDEST PUSH1 0x20 DUP3 ADD SWAP1 POP SWAP2 SWAP1 POP JUMP JUMPDEST PUSH0 PUSH1 0x60 DUP3 ADD SWAP1 POP PUSH2 0x26A7 PUSH0 DUP4 ADD DUP6 PUSH2 0x19DC JUMP JUMPDEST PUSH2 0x26B4 PUSH1 0x20 DUP4 ADD DUP5 PUSH2 0x19B4 JUMP JUMPDEST DUP2 DUP2 SUB PUSH1 0x40 DUP4 ADD MSTORE PUSH2 0x26C5 DUP2 PUSH2 0x2672 JUMP JUMPDEST SWAP1 POP SWAP4 SWAP3 POP POP POP JUMP JUMPDEST PUSH32 0x596F7527766520616C726561647920636C61696D656420796F75722077656C63 PUSH0 DUP3 ADD MSTORE PUSH32 0x6F6D6520626F6E75730000000000000000000000000000000000000000000000 PUSH1 0x20 DUP3 ADD MSTORE POP JUMP JUMPDEST PUSH0 PUSH2 0x2728 PUSH1 0x29 DUP4 PUSH2 0x1847 JUMP JUMPDEST SWAP2 POP PUSH2 0x2733 DUP3 PUSH2 0x26CE JUMP JUMPDEST PUSH1 0x40 DUP3 ADD SWAP1 POP SWAP2 SWAP1 POP JUMP JUMPDEST PUSH0 PUSH1 0x20 DUP3 ADD SWAP1 POP DUP2 DUP2 SUB PUSH0 DUP4 ADD MSTORE PUSH2 0x2755 DUP2 PUSH2 0x271C JUMP JUMPDEST SWAP1 POP SWAP2 SWAP1 POP JUMP JUMPDEST PUSH0 PUSH1 0x60 DUP3 ADD SWAP1 POP PUSH2 0x276F PUSH0 DUP4 ADD DUP7 PUSH2 0x1CB9 JUMP JUMPDEST PUSH2 0x277C PUSH1 0x20 DUP4 ADD DUP6 PUSH2 0x19DC JUMP JUMPDEST PUSH2 0x2789 PUSH1 0x40 DUP4 ADD DUP5 PUSH2 0x19DC JUMP JUMPDEST SWAP5 SWAP4 POP POP POP POP JUMP JUMPDEST PUSH0 PUSH2 0x279B DUP3 PUSH2 0x1938 JUMP JUMPDEST SWAP2 POP PUSH2 0x27A6 DUP4 PUSH2 0x1938 JUMP JUMPDEST SWAP3 POP DUP3 DUP3 ADD SWAP1 POP DUP1 DUP3 GT ISZERO PUSH2 0x27BE JUMPI PUSH2 0x27BD PUSH2 0x218F JUMP JUMPDEST JUMPDEST SWAP3 SWAP2 POP POP JUMP INVALID LOG2 PUSH5 0x6970667358 0x22 SLT KECCAK256 AND REVERT 0xB7 SGT SHR DUP1 0xEF DUP8 0xA9 PUSH25 0x434497A9FA06B2DC96B92F7640A1179FDED40A98E9F664736F PUSH13 0x634300081A0033000000000000 "
				},
				"gasEstimates": {
					"creation": {
						"codeDepositCost": "2046800",
						"executionCost": "infinite",
						"totalCost": "infinite"
					},
					"external": {
						"addItem(string,uint256)": "infinite",
						"allowance(address,address)": "infinite",
						"approve(address,uint256)": "infinite",
						"balanceOf(address)": "2940",
						"burn(uint256)": "infinite",
						"burnFrom(address,uint256)": "infinite",
						"burnToken(uint256)": "infinite",
						"decimals()": "420",
						"getBalance()": "2651",
						"getItemName(uint8)": "infinite",
						"getItemPrice(uint8)": "2926",
						"getUserItems(address)": "infinite",
						"isLessThanFive(bool,uint256)": "infinite",
						"mint(address,uint256)": "infinite",
						"name()": "infinite",
						"owner()": "2604",
						"purchaseItem(uint8)": "infinite",
						"renounceOwnership()": "infinite",
						"symbol()": "infinite",
						"tokenId()": "2578",
						"totalSupply()": "2566",
						"transfer(address,uint256)": "infinite",
						"transferFrom(address,address,uint256)": "infinite",
						"transferOwnership(address)": "infinite",
						"transferToken(address,uint256)": "infinite",
						"welcomeBonus()": "infinite"
					}
				},
				"methodIdentifiers": {
					"addItem(string,uint256)": "62d6bbdf",
					"allowance(address,address)": "dd62ed3e",
					"approve(address,uint256)": "095ea7b3",
					"balanceOf(address)": "70a08231",
					"burn(uint256)": "42966c68",
					"burnFrom(address,uint256)": "79cc6790",
					"burnToken(uint256)": "7b47ec1a",
					"decimals()": "313ce567",
					"getBalance()": "12065fe0",
					"getItemName(uint8)": "30a86006",
					"getItemPrice(uint8)": "a10f956d",
					"getUserItems(address)": "ce6019b4",
					"isLessThanFive(bool,uint256)": "ea5e65e0",
					"mint(address,uint256)": "40c10f19",
					"name()": "06fdde03",
					"owner()": "8da5cb5b",
					"purchaseItem(uint8)": "af3bcb7d",
					"renounceOwnership()": "715018a6",
					"symbol()": "95d89b41",
					"tokenId()": "17d70f7c",
					"totalSupply()": "18160ddd",
					"transfer(address,uint256)": "a9059cbb",
					"transferFrom(address,address,uint256)": "23b872dd",
					"transferOwnership(address)": "f2fde38b",
					"transferToken(address,uint256)": "1072cbea",
					"welcomeBonus()": "f5112f87"
				}
			},
			"storageLayout": {
				"storage": [
					{
						"astId": 307,
						"contract": "contracts/DegenToken.sol:DegenToken",
						"label": "_balances",
						"offset": 0,
						"slot": "0",
						"type": "t_mapping(t_address,t_uint256)"
					},
					{
						"astId": 313,
						"contract": "contracts/DegenToken.sol:DegenToken",
						"label": "_allowances",
						"offset": 0,
						"slot": "1",
						"type": "t_mapping(t_address,t_mapping(t_address,t_uint256))"
					},
					{
						"astId": 315,
						"contract": "contracts/DegenToken.sol:DegenToken",
						"label": "_totalSupply",
						"offset": 0,
						"slot": "2",
						"type": "t_uint256"
					},
					{
						"astId": 317,
						"contract": "contracts/DegenToken.sol:DegenToken",
						"label": "_name",
						"offset": 0,
						"slot": "3",
						"type": "t_string_storage"
					},
					{
						"astId": 319,
						"contract": "contracts/DegenToken.sol:DegenToken",
						"label": "_symbol",
						"offset": 0,
						"slot": "4",
						"type": "t_string_storage"
					},
					{
						"astId": 8,
						"contract": "contracts/DegenToken.sol:DegenToken",
						"label": "_owner",
						"offset": 0,
						"slot": "5",
						"type": "t_address"
					},
					{
						"astId": 1002,
						"contract": "contracts/DegenToken.sol:DegenToken",
						"label": "items",
						"offset": 0,
						"slot": "6",
						"type": "t_mapping(t_uint8,t_struct(Item)997_storage)"
					},
					{
						"astId": 1008,
						"contract": "contracts/DegenToken.sol:DegenToken",
						"label": "playerItems",
						"offset": 0,
						"slot": "7",
						"type": "t_mapping(t_address,t_array(t_struct(Item)997_storage)dyn_storage)"
					},
					{
						"astId": 1010,
						"contract": "contracts/DegenToken.sol:DegenToken",
						"label": "tokenId",
						"offset": 0,
						"slot": "8",
						"type": "t_uint8"
					}
				],
				"types": {
					"t_address": {
						"encoding": "inplace",
						"label": "address",
						"numberOfBytes": "20"
					},
					"t_array(t_struct(Item)997_storage)dyn_storage": {
						"base": "t_struct(Item)997_storage",
						"encoding": "dynamic_array",
						"label": "struct DegenToken.Item[]",
						"numberOfBytes": "32"
					},
					"t_mapping(t_address,t_array(t_struct(Item)997_storage)dyn_storage)": {
						"encoding": "mapping",
						"key": "t_address",
						"label": "mapping(address => struct DegenToken.Item[])",
						"numberOfBytes": "32",
						"value": "t_array(t_struct(Item)997_storage)dyn_storage"
					},
					"t_mapping(t_address,t_mapping(t_address,t_uint256))": {
						"encoding": "mapping",
						"key": "t_address",
						"label": "mapping(address => mapping(address => uint256))",
						"numberOfBytes": "32",
						"value": "t_mapping(t_address,t_uint256)"
					},
					"t_mapping(t_address,t_uint256)": {
						"encoding": "mapping",
						"key": "t_address",
						"label": "mapping(address => uint256)",
						"numberOfBytes": "32",
						"value": "t_uint256"
					},
					"t_mapping(t_uint8,t_struct(Item)997_storage)": {
						"encoding": "mapping",
						"key": "t_uint8",
						"label": "mapping(uint8 => struct DegenToken.Item)",
						"numberOfBytes": "32",
						"value": "t_struct(Item)997_storage"
					},
					"t_string_storage": {
						"encoding": "bytes",
						"label": "string",
						"numberOfBytes": "32"
					},
					"t_struct(Item)997_storage": {
						"encoding": "inplace",
						"label": "struct DegenToken.Item",
						"members": [
							{
								"astId": 992,
								"contract": "contracts/DegenToken.sol:DegenToken",
								"label": "name",
								"offset": 0,
								"slot": "0",
								"type": "t_string_storage"
							},
							{
								"astId": 994,
								"contract": "contracts/DegenToken.sol:DegenToken",
								"label": "itemId",
								"offset": 0,
								"slot": "1",
								"type": "t_uint8"
							},
							{
								"astId": 996,
								"contract": "contracts/DegenToken.sol:DegenToken",
								"label": "price",
								"offset": 0,
								"slot": "2",
								"type": "t_uint256"
							}
						],
						"numberOfBytes": "96"
					},
					"t_uint256": {
						"encoding": "inplace",
						"label": "uint256",
						"numberOfBytes": "32"
					},
					"t_uint8": {
						"encoding": "inplace",
						"label": "uint8",
						"numberOfBytes": "1"
					}
				}
			},
			"userdoc": {
				"kind": "user",
				"methods": {},
				"version": 1
			}
		}
	}
}